{
	"contracts/NFTStaking.sol": {
		"SacredTemple": {
			"abi": [
				{
					"inputs": [
						{
							"internalType": "address",
							"name": "nftContract_",
							"type": "address"
						}
					],
					"stateMutability": "nonpayable",
					"type": "constructor"
				},
				{
					"anonymous": false,
					"inputs": [
						{
							"indexed": false,
							"internalType": "address",
							"name": "owner",
							"type": "address"
						},
						{
							"indexed": false,
							"internalType": "uint256",
							"name": "amount",
							"type": "uint256"
						}
					],
					"name": "Claimed",
					"type": "event"
				},
				{
					"anonymous": false,
					"inputs": [
						{
							"indexed": false,
							"internalType": "address",
							"name": "owner",
							"type": "address"
						},
						{
							"indexed": false,
							"internalType": "uint256",
							"name": "tokenId",
							"type": "uint256"
						},
						{
							"indexed": false,
							"internalType": "uint256",
							"name": "value",
							"type": "uint256"
						}
					],
					"name": "NFTStaked",
					"type": "event"
				},
				{
					"anonymous": false,
					"inputs": [
						{
							"indexed": false,
							"internalType": "address",
							"name": "owner",
							"type": "address"
						},
						{
							"indexed": false,
							"internalType": "uint256",
							"name": "tokenId",
							"type": "uint256"
						},
						{
							"indexed": false,
							"internalType": "uint256",
							"name": "value",
							"type": "uint256"
						}
					],
					"name": "NFTUnstaked",
					"type": "event"
				},
				{
					"anonymous": false,
					"inputs": [
						{
							"indexed": true,
							"internalType": "address",
							"name": "previousOwner",
							"type": "address"
						},
						{
							"indexed": true,
							"internalType": "address",
							"name": "newOwner",
							"type": "address"
						}
					],
					"name": "OwnershipTransferred",
					"type": "event"
				},
				{
					"inputs": [
						{
							"internalType": "address",
							"name": "",
							"type": "address"
						},
						{
							"internalType": "address",
							"name": "",
							"type": "address"
						},
						{
							"internalType": "uint256",
							"name": "",
							"type": "uint256"
						},
						{
							"internalType": "bytes",
							"name": "",
							"type": "bytes"
						}
					],
					"name": "onERC721Received",
					"outputs": [
						{
							"internalType": "bytes4",
							"name": "",
							"type": "bytes4"
						}
					],
					"stateMutability": "nonpayable",
					"type": "function"
				},
				{
					"inputs": [],
					"name": "owner",
					"outputs": [
						{
							"internalType": "address",
							"name": "",
							"type": "address"
						}
					],
					"stateMutability": "view",
					"type": "function"
				},
				{
					"inputs": [],
					"name": "renounceOwnership",
					"outputs": [],
					"stateMutability": "nonpayable",
					"type": "function"
				},
				{
					"inputs": [
						{
							"internalType": "uint256",
							"name": "",
							"type": "uint256"
						}
					],
					"name": "rewards",
					"outputs": [
						{
							"internalType": "uint256",
							"name": "",
							"type": "uint256"
						}
					],
					"stateMutability": "view",
					"type": "function"
				},
				{
					"inputs": [
						{
							"internalType": "address",
							"name": "nftContract_",
							"type": "address"
						}
					],
					"name": "setNftContact",
					"outputs": [],
					"stateMutability": "nonpayable",
					"type": "function"
				},
				{
					"inputs": [
						{
							"internalType": "uint256",
							"name": "tokenId",
							"type": "uint256"
						}
					],
					"name": "stake",
					"outputs": [],
					"stateMutability": "nonpayable",
					"type": "function"
				},
				{
					"inputs": [
						{
							"internalType": "uint256",
							"name": "",
							"type": "uint256"
						}
					],
					"name": "tokenOwnedBy",
					"outputs": [
						{
							"internalType": "address",
							"name": "",
							"type": "address"
						}
					],
					"stateMutability": "view",
					"type": "function"
				},
				{
					"inputs": [
						{
							"internalType": "address",
							"name": "newOwner",
							"type": "address"
						}
					],
					"name": "transferOwnership",
					"outputs": [],
					"stateMutability": "nonpayable",
					"type": "function"
				},
				{
					"inputs": [
						{
							"internalType": "uint256",
							"name": "tokenId",
							"type": "uint256"
						}
					],
					"name": "unstake",
					"outputs": [],
					"stateMutability": "nonpayable",
					"type": "function"
				},
				{
					"stateMutability": "payable",
					"type": "receive"
				}
			],
			"devdoc": {
				"kind": "dev",
				"methods": {
					"onERC721Received(address,address,uint256,bytes)": {
						"details": "See {IERC721Receiver-onERC721Received}. Always returns `IERC721Receiver.onERC721Received.selector`."
					},
					"owner()": {
						"details": "Returns the address of the current owner."
					},
					"renounceOwnership()": {
						"details": "Leaves the contract without owner. It will not be possible to call `onlyOwner` functions anymore. Can only be called by the current owner. NOTE: Renouncing ownership will leave the contract without an owner, thereby removing any functionality that is only available to the owner."
					},
					"transferOwnership(address)": {
						"details": "Transfers ownership of the contract to a new account (`newOwner`). Can only be called by the current owner."
					}
				},
				"version": 1
			},
			"evm": {
				"assembly": "    /* \"contracts/NFTStaking.sol\":490:2232  contract SacredTemple is Ownable, ERC721Holder, ReentrancyGuard {... */\n  mstore(0x40, 0x80)\n    /* \"contracts/NFTStaking.sol\":997:1076  constructor (address nftContract_) {... */\n  callvalue\n  dup1\n  iszero\n  tag_1\n  jumpi\n  0x00\n  dup1\n  revert\ntag_1:\n  pop\n  mload(0x40)\n  sub(codesize, bytecodeSize)\n  dup1\n  bytecodeSize\n  dup4\n  codecopy\n  dup2\n  dup2\n  add\n  0x40\n  mstore\n  dup2\n  add\n  swap1\n  tag_2\n  swap2\n  swap1\n  tag_3\n  jump\t// in\ntag_2:\n    /* \"@openzeppelin/contracts@4.7.3/access/Ownable.sol\":936:968  _transferOwnership(_msgSender()) */\n  tag_8\n    /* \"@openzeppelin/contracts@4.7.3/access/Ownable.sol\":955:967  _msgSender() */\n  tag_9\n    /* \"@openzeppelin/contracts@4.7.3/access/Ownable.sol\":955:965  _msgSender */\n  shl(0x20, tag_10)\n    /* \"@openzeppelin/contracts@4.7.3/access/Ownable.sol\":955:967  _msgSender() */\n  0x20\n  shr\n  jump\t// in\ntag_9:\n    /* \"@openzeppelin/contracts@4.7.3/access/Ownable.sol\":936:954  _transferOwnership */\n  shl(0x20, tag_11)\n    /* \"@openzeppelin/contracts@4.7.3/access/Ownable.sol\":936:968  _transferOwnership(_msgSender()) */\n  0x20\n  shr\n  jump\t// in\ntag_8:\n    /* \"@openzeppelin/contracts@4.7.3/security/ReentrancyGuard.sol\":1701:1702  1 */\n  0x01\n    /* \"@openzeppelin/contracts@4.7.3/security/ReentrancyGuard.sol\":1806:1813  _status */\n  dup1\n    /* \"@openzeppelin/contracts@4.7.3/security/ReentrancyGuard.sol\":1806:1828  _status = _NOT_ENTERED */\n  dup2\n  swap1\n  sstore\n  pop\n    /* \"contracts/NFTStaking.sol\":1057:1069  nftContract_ */\n  dup1\n    /* \"contracts/NFTStaking.sol\":1042:1054  _nftContract */\n  0x02\n  0x00\n    /* \"contracts/NFTStaking.sol\":1042:1069  _nftContract = nftContract_ */\n  0x0100\n  exp\n  dup2\n  sload\n  dup2\n  0xffffffffffffffffffffffffffffffffffffffff\n  mul\n  not\n  and\n  swap1\n  dup4\n  0xffffffffffffffffffffffffffffffffffffffff\n  and\n  mul\n  or\n  swap1\n  sstore\n  pop\n    /* \"contracts/NFTStaking.sol\":997:1076  constructor (address nftContract_) {... */\n  pop\n    /* \"contracts/NFTStaking.sol\":490:2232  contract SacredTemple is Ownable, ERC721Holder, ReentrancyGuard {... */\n  jump(tag_14)\n    /* \"@openzeppelin/contracts@4.7.3/utils/Context.sol\":640:736  function _msgSender() internal view virtual returns (address) {... */\ntag_10:\n    /* \"@openzeppelin/contracts@4.7.3/utils/Context.sol\":693:700  address */\n  0x00\n    /* \"@openzeppelin/contracts@4.7.3/utils/Context.sol\":719:729  msg.sender */\n  caller\n    /* \"@openzeppelin/contracts@4.7.3/utils/Context.sol\":712:729  return msg.sender */\n  swap1\n  pop\n    /* \"@openzeppelin/contracts@4.7.3/utils/Context.sol\":640:736  function _msgSender() internal view virtual returns (address) {... */\n  swap1\n  jump\t// out\n    /* \"@openzeppelin/contracts@4.7.3/access/Ownable.sol\":2433:2620  function _transferOwnership(address newOwner) internal virtual {... */\ntag_11:\n    /* \"@openzeppelin/contracts@4.7.3/access/Ownable.sol\":2506:2522  address oldOwner */\n  0x00\n    /* \"@openzeppelin/contracts@4.7.3/access/Ownable.sol\":2525:2531  _owner */\n  dup1\n  0x00\n  swap1\n  sload\n  swap1\n  0x0100\n  exp\n  swap1\n  div\n  0xffffffffffffffffffffffffffffffffffffffff\n  and\n    /* \"@openzeppelin/contracts@4.7.3/access/Ownable.sol\":2506:2531  address oldOwner = _owner */\n  swap1\n  pop\n    /* \"@openzeppelin/contracts@4.7.3/access/Ownable.sol\":2550:2558  newOwner */\n  dup2\n    /* \"@openzeppelin/contracts@4.7.3/access/Ownable.sol\":2541:2547  _owner */\n  0x00\n  dup1\n    /* \"@openzeppelin/contracts@4.7.3/access/Ownable.sol\":2541:2558  _owner = newOwner */\n  0x0100\n  exp\n  dup2\n  sload\n  dup2\n  0xffffffffffffffffffffffffffffffffffffffff\n  mul\n  not\n  and\n  swap1\n  dup4\n  0xffffffffffffffffffffffffffffffffffffffff\n  and\n  mul\n  or\n  swap1\n  sstore\n  pop\n    /* \"@openzeppelin/contracts@4.7.3/access/Ownable.sol\":2604:2612  newOwner */\n  dup2\n    /* \"@openzeppelin/contracts@4.7.3/access/Ownable.sol\":2573:2613  OwnershipTransferred(oldOwner, newOwner) */\n  0xffffffffffffffffffffffffffffffffffffffff\n  and\n    /* \"@openzeppelin/contracts@4.7.3/access/Ownable.sol\":2594:2602  oldOwner */\n  dup2\n    /* \"@openzeppelin/contracts@4.7.3/access/Ownable.sol\":2573:2613  OwnershipTransferred(oldOwner, newOwner) */\n  0xffffffffffffffffffffffffffffffffffffffff\n  and\n  0x8be0079c531659141344cd1fd0a4f28419497f9722a3daafe3b4186f6b6457e0\n  mload(0x40)\n  mload(0x40)\n  dup1\n  swap2\n  sub\n  swap1\n  log3\n    /* \"@openzeppelin/contracts@4.7.3/access/Ownable.sol\":2496:2620  {... */\n  pop\n    /* \"@openzeppelin/contracts@4.7.3/access/Ownable.sol\":2433:2620  function _transferOwnership(address newOwner) internal virtual {... */\n  pop\n  jump\t// out\n    /* \"#utility.yul\":7:150   */\ntag_18:\n    /* \"#utility.yul\":64:69   */\n  0x00\n    /* \"#utility.yul\":95:101   */\n  dup2\n    /* \"#utility.yul\":89:102   */\n  mload\n    /* \"#utility.yul\":80:102   */\n  swap1\n  pop\n    /* \"#utility.yul\":111:144   */\n  tag_20\n    /* \"#utility.yul\":138:143   */\n  dup2\n    /* \"#utility.yul\":111:144   */\n  tag_21\n  jump\t// in\ntag_20:\n    /* \"#utility.yul\":7:150   */\n  swap3\n  swap2\n  pop\n  pop\n  jump\t// out\n    /* \"#utility.yul\":156:507   */\ntag_3:\n    /* \"#utility.yul\":226:232   */\n  0x00\n    /* \"#utility.yul\":275:277   */\n  0x20\n    /* \"#utility.yul\":263:272   */\n  dup3\n    /* \"#utility.yul\":254:261   */\n  dup5\n    /* \"#utility.yul\":250:273   */\n  sub\n    /* \"#utility.yul\":246:278   */\n  slt\n    /* \"#utility.yul\":243:362   */\n  iszero\n  tag_23\n  jumpi\n    /* \"#utility.yul\":281:360   */\n  tag_24\n  tag_25\n  jump\t// in\ntag_24:\n    /* \"#utility.yul\":243:362   */\ntag_23:\n    /* \"#utility.yul\":401:402   */\n  0x00\n    /* \"#utility.yul\":426:490   */\n  tag_26\n    /* \"#utility.yul\":482:489   */\n  dup5\n    /* \"#utility.yul\":473:479   */\n  dup3\n    /* \"#utility.yul\":462:471   */\n  dup6\n    /* \"#utility.yul\":458:480   */\n  add\n    /* \"#utility.yul\":426:490   */\n  tag_18\n  jump\t// in\ntag_26:\n    /* \"#utility.yul\":416:490   */\n  swap2\n  pop\n    /* \"#utility.yul\":372:500   */\n  pop\n    /* \"#utility.yul\":156:507   */\n  swap3\n  swap2\n  pop\n  pop\n  jump\t// out\n    /* \"#utility.yul\":594:690   */\ntag_29:\n    /* \"#utility.yul\":631:638   */\n  0x00\n    /* \"#utility.yul\":660:684   */\n  tag_31\n    /* \"#utility.yul\":678:683   */\n  dup3\n    /* \"#utility.yul\":660:684   */\n  tag_32\n  jump\t// in\ntag_31:\n    /* \"#utility.yul\":649:684   */\n  swap1\n  pop\n    /* \"#utility.yul\":594:690   */\n  swap2\n  swap1\n  pop\n  jump\t// out\n    /* \"#utility.yul\":696:822   */\ntag_32:\n    /* \"#utility.yul\":733:740   */\n  0x00\n    /* \"#utility.yul\":773:815   */\n  0xffffffffffffffffffffffffffffffffffffffff\n    /* \"#utility.yul\":766:771   */\n  dup3\n    /* \"#utility.yul\":762:816   */\n  and\n    /* \"#utility.yul\":751:816   */\n  swap1\n  pop\n    /* \"#utility.yul\":696:822   */\n  swap2\n  swap1\n  pop\n  jump\t// out\n    /* \"#utility.yul\":951:1068   */\ntag_25:\n    /* \"#utility.yul\":1060:1061   */\n  0x00\n    /* \"#utility.yul\":1057:1058   */\n  dup1\n    /* \"#utility.yul\":1050:1062   */\n  revert\n    /* \"#utility.yul\":1074:1196   */\ntag_21:\n    /* \"#utility.yul\":1147:1171   */\n  tag_38\n    /* \"#utility.yul\":1165:1170   */\n  dup2\n    /* \"#utility.yul\":1147:1171   */\n  tag_29\n  jump\t// in\ntag_38:\n    /* \"#utility.yul\":1140:1145   */\n  dup2\n    /* \"#utility.yul\":1137:1172   */\n  eq\n    /* \"#utility.yul\":1127:1190   */\n  tag_39\n  jumpi\n    /* \"#utility.yul\":1186:1187   */\n  0x00\n    /* \"#utility.yul\":1183:1184   */\n  dup1\n    /* \"#utility.yul\":1176:1188   */\n  revert\n    /* \"#utility.yul\":1127:1190   */\ntag_39:\n    /* \"#utility.yul\":1074:1196   */\n  pop\n  jump\t// out\n    /* \"contracts/NFTStaking.sol\":490:2232  contract SacredTemple is Ownable, ERC721Holder, ReentrancyGuard {... */\ntag_14:\n  dataSize(sub_0)\n  dup1\n  dataOffset(sub_0)\n  0x00\n  codecopy\n  0x00\n  return\nstop\n\nsub_0: assembly {\n        /* \"contracts/NFTStaking.sol\":490:2232  contract SacredTemple is Ownable, ERC721Holder, ReentrancyGuard {... */\n      mstore(0x40, 0x80)\n      jumpi(tag_1, lt(calldatasize, 0x04))\n      shr(0xe0, calldataload(0x00))\n      dup1\n      0x8da5cb5b\n      gt\n      tag_12\n      jumpi\n      dup1\n      0x8da5cb5b\n      eq\n      tag_7\n      jumpi\n      dup1\n      0xa694fc3a\n      eq\n      tag_8\n      jumpi\n      dup1\n      0xf2fde38b\n      eq\n      tag_9\n      jumpi\n      dup1\n      0xf301af42\n      eq\n      tag_10\n      jumpi\n      dup1\n      0xfd71c650\n      eq\n      tag_11\n      jumpi\n      jump(tag_2)\n    tag_12:\n      dup1\n      0x150b7a02\n      eq\n      tag_3\n      jumpi\n      dup1\n      0x2e17de78\n      eq\n      tag_4\n      jumpi\n      dup1\n      0x715018a6\n      eq\n      tag_5\n      jumpi\n      dup1\n      0x8488cc41\n      eq\n      tag_6\n      jumpi\n      jump(tag_2)\n    tag_1:\n      jumpi(tag_2, calldatasize)\n        /* \"contracts/NFTStaking.sol\":1918:1938  uint256 sharePerEach */\n      0x00\n        /* \"contracts/NFTStaking.sol\":1953:1980  _stakedNFTCounter.current() */\n      tag_15\n        /* \"contracts/NFTStaking.sol\":1953:1970  _stakedNFTCounter */\n      0x03\n        /* \"contracts/NFTStaking.sol\":1953:1978  _stakedNFTCounter.current */\n      tag_16\n        /* \"contracts/NFTStaking.sol\":1953:1980  _stakedNFTCounter.current() */\n      jump\t// in\n    tag_15:\n        /* \"contracts/NFTStaking.sol\":1941:1950  msg.value */\n      callvalue\n        /* \"contracts/NFTStaking.sol\":1941:1980  msg.value / _stakedNFTCounter.current() */\n      tag_17\n      swap2\n      swap1\n      tag_18\n      jump\t// in\n    tag_17:\n        /* \"contracts/NFTStaking.sol\":1918:1980  uint256 sharePerEach = msg.value / _stakedNFTCounter.current() */\n      swap1\n      pop\n        /* \"contracts/NFTStaking.sol\":1990:2019  uint256[] memory tokensStaked */\n      0x00\n        /* \"contracts/NFTStaking.sol\":2026:2038  _nftContract */\n      0x02\n      0x00\n      swap1\n      sload\n      swap1\n      0x0100\n      exp\n      swap1\n      div\n      0xffffffffffffffffffffffffffffffffffffffff\n      and\n        /* \"contracts/NFTStaking.sol\":2022:2053  NFT(_nftContract).walletOfOwner */\n      0xffffffffffffffffffffffffffffffffffffffff\n      and\n      0x438b6300\n        /* \"contracts/NFTStaking.sol\":2062:2066  this */\n      address\n        /* \"contracts/NFTStaking.sol\":2022:2068  NFT(_nftContract).walletOfOwner(address(this)) */\n      mload(0x40)\n      dup3\n      0xffffffff\n      and\n      0xe0\n      shl\n      dup2\n      mstore\n      0x04\n      add\n      tag_19\n      swap2\n      swap1\n      tag_20\n      jump\t// in\n    tag_19:\n      0x00\n      mload(0x40)\n      dup1\n      dup4\n      sub\n      dup2\n      dup7\n      dup1\n      extcodesize\n      iszero\n      dup1\n      iszero\n      tag_21\n      jumpi\n      0x00\n      dup1\n      revert\n    tag_21:\n      pop\n      gas\n      staticcall\n      iszero\n      dup1\n      iszero\n      tag_23\n      jumpi\n      returndatasize\n      0x00\n      dup1\n      returndatacopy\n      revert(0x00, returndatasize)\n    tag_23:\n      pop\n      pop\n      pop\n      pop\n      mload(0x40)\n      returndatasize\n      0x00\n      dup3\n      returndatacopy\n      returndatasize\n      not(0x1f)\n      0x1f\n      dup3\n      add\n      and\n      dup3\n      add\n      dup1\n      0x40\n      mstore\n      pop\n      dup2\n      add\n      swap1\n      tag_24\n      swap2\n      swap1\n      tag_25\n      jump\t// in\n    tag_24:\n        /* \"contracts/NFTStaking.sol\":1990:2068  uint256[] memory tokensStaked = NFT(_nftContract).walletOfOwner(address(this)) */\n      swap1\n      pop\n        /* \"contracts/NFTStaking.sol\":2091:2100  uint256 i */\n      0x00\n        /* \"contracts/NFTStaking.sol\":2087:2224  for(uint256 i = 0; i < tokensStaked.length;){... */\n    tag_26:\n        /* \"contracts/NFTStaking.sol\":2110:2122  tokensStaked */\n      dup2\n        /* \"contracts/NFTStaking.sol\":2110:2129  tokensStaked.length */\n      mload\n        /* \"contracts/NFTStaking.sol\":2106:2107  i */\n      dup2\n        /* \"contracts/NFTStaking.sol\":2106:2129  i < tokensStaked.length */\n      lt\n        /* \"contracts/NFTStaking.sol\":2087:2224  for(uint256 i = 0; i < tokensStaked.length;){... */\n      iszero\n      tag_27\n      jumpi\n        /* \"contracts/NFTStaking.sol\":2172:2184  sharePerEach */\n      dup3\n        /* \"contracts/NFTStaking.sol\":2145:2152  rewards */\n      0x05\n        /* \"contracts/NFTStaking.sol\":2145:2168  rewards[tokenStaked[i]] */\n      0x00\n        /* \"contracts/NFTStaking.sol\":2153:2164  tokenStaked */\n      0x06\n        /* \"contracts/NFTStaking.sol\":2165:2166  i */\n      dup5\n        /* \"contracts/NFTStaking.sol\":2153:2167  tokenStaked[i] */\n      dup2\n      sload\n      dup2\n      lt\n      tag_29\n      jumpi\n      tag_30\n      tag_31\n      jump\t// in\n    tag_30:\n    tag_29:\n      swap1\n      0x00\n      mstore\n      keccak256(0x00, 0x20)\n      add\n      sload\n        /* \"contracts/NFTStaking.sol\":2145:2168  rewards[tokenStaked[i]] */\n      dup2\n      mstore\n      0x20\n      add\n      swap1\n      dup2\n      mstore\n      0x20\n      add\n      0x00\n      keccak256\n      0x00\n        /* \"contracts/NFTStaking.sol\":2145:2184  rewards[tokenStaked[i]] += sharePerEach */\n      dup3\n      dup3\n      sload\n      tag_33\n      swap2\n      swap1\n      tag_34\n      jump\t// in\n    tag_33:\n      swap3\n      pop\n      pop\n      dup2\n      swap1\n      sstore\n      pop\n        /* \"contracts/NFTStaking.sol\":2209:2212  ++i */\n      dup1\n      0x01\n      add\n      swap1\n      pop\n        /* \"contracts/NFTStaking.sol\":2087:2224  for(uint256 i = 0; i < tokensStaked.length;){... */\n      jump(tag_26)\n    tag_27:\n      pop\n        /* \"contracts/NFTStaking.sol\":1908:2230  {... */\n      pop\n      pop\n        /* \"contracts/NFTStaking.sol\":490:2232  contract SacredTemple is Ownable, ERC721Holder, ReentrancyGuard {... */\n      stop\n    tag_2:\n      0x00\n      dup1\n      revert\n        /* \"@openzeppelin/contracts@4.7.3/token/ERC721/utils/ERC721Holder.sol\":588:788  function onERC721Received(... */\n    tag_3:\n      callvalue\n      dup1\n      iszero\n      tag_35\n      jumpi\n      0x00\n      dup1\n      revert\n    tag_35:\n      pop\n      tag_36\n      0x04\n      dup1\n      calldatasize\n      sub\n      dup2\n      add\n      swap1\n      tag_37\n      swap2\n      swap1\n      tag_38\n      jump\t// in\n    tag_37:\n      tag_39\n      jump\t// in\n    tag_36:\n      mload(0x40)\n      tag_40\n      swap2\n      swap1\n      tag_41\n      jump\t// in\n    tag_40:\n      mload(0x40)\n      dup1\n      swap2\n      sub\n      swap1\n      return\n        /* \"contracts/NFTStaking.sol\":1452:1875  function unstake(uint256 tokenId) nonReentrant external {... */\n    tag_4:\n      callvalue\n      dup1\n      iszero\n      tag_42\n      jumpi\n      0x00\n      dup1\n      revert\n    tag_42:\n      pop\n      tag_43\n      0x04\n      dup1\n      calldatasize\n      sub\n      dup2\n      add\n      swap1\n      tag_44\n      swap2\n      swap1\n      tag_45\n      jump\t// in\n    tag_44:\n      tag_46\n      jump\t// in\n    tag_43:\n      stop\n        /* \"@openzeppelin/contracts@4.7.3/access/Ownable.sol\":1831:1932  function renounceOwnership() public virtual onlyOwner {... */\n    tag_5:\n      callvalue\n      dup1\n      iszero\n      tag_47\n      jumpi\n      0x00\n      dup1\n      revert\n    tag_47:\n      pop\n      tag_48\n      tag_49\n      jump\t// in\n    tag_48:\n      stop\n        /* \"contracts/NFTStaking.sol\":866:914  mapping (uint256 => address) public tokenOwnedBy */\n    tag_6:\n      callvalue\n      dup1\n      iszero\n      tag_50\n      jumpi\n      0x00\n      dup1\n      revert\n    tag_50:\n      pop\n      tag_51\n      0x04\n      dup1\n      calldatasize\n      sub\n      dup2\n      add\n      swap1\n      tag_52\n      swap2\n      swap1\n      tag_45\n      jump\t// in\n    tag_52:\n      tag_53\n      jump\t// in\n    tag_51:\n      mload(0x40)\n      tag_54\n      swap2\n      swap1\n      tag_20\n      jump\t// in\n    tag_54:\n      mload(0x40)\n      dup1\n      swap2\n      sub\n      swap1\n      return\n        /* \"@openzeppelin/contracts@4.7.3/access/Ownable.sol\":1201:1286  function owner() public view virtual returns (address) {... */\n    tag_7:\n      callvalue\n      dup1\n      iszero\n      tag_55\n      jumpi\n      0x00\n      dup1\n      revert\n    tag_55:\n      pop\n      tag_56\n      tag_57\n      jump\t// in\n    tag_56:\n      mload(0x40)\n      tag_58\n      swap2\n      swap1\n      tag_20\n      jump\t// in\n    tag_58:\n      mload(0x40)\n      dup1\n      swap2\n      sub\n      swap1\n      return\n        /* \"contracts/NFTStaking.sol\":1196:1446  function stake(uint256 tokenId) external {... */\n    tag_8:\n      callvalue\n      dup1\n      iszero\n      tag_59\n      jumpi\n      0x00\n      dup1\n      revert\n    tag_59:\n      pop\n      tag_60\n      0x04\n      dup1\n      calldatasize\n      sub\n      dup2\n      add\n      swap1\n      tag_61\n      swap2\n      swap1\n      tag_45\n      jump\t// in\n    tag_61:\n      tag_62\n      jump\t// in\n    tag_60:\n      stop\n        /* \"@openzeppelin/contracts@4.7.3/access/Ownable.sol\":2081:2279  function transferOwnership(address newOwner) public virtual onlyOwner {... */\n    tag_9:\n      callvalue\n      dup1\n      iszero\n      tag_63\n      jumpi\n      0x00\n      dup1\n      revert\n    tag_63:\n      pop\n      tag_64\n      0x04\n      dup1\n      calldatasize\n      sub\n      dup2\n      add\n      swap1\n      tag_65\n      swap2\n      swap1\n      tag_66\n      jump\t// in\n    tag_65:\n      tag_67\n      jump\t// in\n    tag_64:\n      stop\n        /* \"contracts/NFTStaking.sol\":920:963  mapping (uint256 => uint256) public rewards */\n    tag_10:\n      callvalue\n      dup1\n      iszero\n      tag_68\n      jumpi\n      0x00\n      dup1\n      revert\n    tag_68:\n      pop\n      tag_69\n      0x04\n      dup1\n      calldatasize\n      sub\n      dup2\n      add\n      swap1\n      tag_70\n      swap2\n      swap1\n      tag_45\n      jump\t// in\n    tag_70:\n      tag_71\n      jump\t// in\n    tag_69:\n      mload(0x40)\n      tag_72\n      swap2\n      swap1\n      tag_73\n      jump\t// in\n    tag_72:\n      mload(0x40)\n      dup1\n      swap2\n      sub\n      swap1\n      return\n        /* \"contracts/NFTStaking.sol\":1082:1190  function setNftContact(address nftContract_) external onlyOwner {... */\n    tag_11:\n      callvalue\n      dup1\n      iszero\n      tag_74\n      jumpi\n      0x00\n      dup1\n      revert\n    tag_74:\n      pop\n      tag_75\n      0x04\n      dup1\n      calldatasize\n      sub\n      dup2\n      add\n      swap1\n      tag_76\n      swap2\n      swap1\n      tag_66\n      jump\t// in\n    tag_76:\n      tag_77\n      jump\t// in\n    tag_75:\n      stop\n        /* \"@openzeppelin/contracts@4.7.3/utils/Counters.sol\":827:939  function current(Counter storage counter) internal view returns (uint256) {... */\n    tag_16:\n        /* \"@openzeppelin/contracts@4.7.3/utils/Counters.sol\":892:899  uint256 */\n      0x00\n        /* \"@openzeppelin/contracts@4.7.3/utils/Counters.sol\":918:925  counter */\n      dup2\n        /* \"@openzeppelin/contracts@4.7.3/utils/Counters.sol\":918:932  counter._value */\n      0x00\n      add\n      sload\n        /* \"@openzeppelin/contracts@4.7.3/utils/Counters.sol\":911:932  return counter._value */\n      swap1\n      pop\n        /* \"@openzeppelin/contracts@4.7.3/utils/Counters.sol\":827:939  function current(Counter storage counter) internal view returns (uint256) {... */\n      swap2\n      swap1\n      pop\n      jump\t// out\n        /* \"@openzeppelin/contracts@4.7.3/token/ERC721/utils/ERC721Holder.sol\":588:788  function onERC721Received(... */\n    tag_39:\n        /* \"@openzeppelin/contracts@4.7.3/token/ERC721/utils/ERC721Holder.sol\":726:732  bytes4 */\n      0x00\n        /* \"@openzeppelin/contracts@4.7.3/token/ERC721/utils/ERC721Holder.sol\":751:781  this.onERC721Received.selector */\n      shl(0xe0, 0x150b7a02)\n        /* \"@openzeppelin/contracts@4.7.3/token/ERC721/utils/ERC721Holder.sol\":744:781  return this.onERC721Received.selector */\n      swap1\n      pop\n        /* \"@openzeppelin/contracts@4.7.3/token/ERC721/utils/ERC721Holder.sol\":588:788  function onERC721Received(... */\n      swap5\n      swap4\n      pop\n      pop\n      pop\n      pop\n      jump\t// out\n        /* \"contracts/NFTStaking.sol\":1452:1875  function unstake(uint256 tokenId) nonReentrant external {... */\n    tag_46:\n        /* \"@openzeppelin/contracts@4.7.3/security/ReentrancyGuard.sol\":1744:1745  2 */\n      0x02\n        /* \"@openzeppelin/contracts@4.7.3/security/ReentrancyGuard.sol\":2325:2332  _status */\n      sload(0x01)\n        /* \"@openzeppelin/contracts@4.7.3/security/ReentrancyGuard.sol\":2325:2344  _status != _ENTERED */\n      eq\n      iszero\n        /* \"@openzeppelin/contracts@4.7.3/security/ReentrancyGuard.sol\":2317:2380  require(_status != _ENTERED, \"ReentrancyGuard: reentrant call\") */\n      tag_81\n      jumpi\n      mload(0x40)\n      0x08c379a000000000000000000000000000000000000000000000000000000000\n      dup2\n      mstore\n      0x04\n      add\n      tag_82\n      swap1\n      tag_83\n      jump\t// in\n    tag_82:\n      mload(0x40)\n      dup1\n      swap2\n      sub\n      swap1\n      revert\n    tag_81:\n        /* \"@openzeppelin/contracts@4.7.3/security/ReentrancyGuard.sol\":1744:1745  2 */\n      0x02\n        /* \"@openzeppelin/contracts@4.7.3/security/ReentrancyGuard.sol\":2455:2462  _status */\n      0x01\n        /* \"@openzeppelin/contracts@4.7.3/security/ReentrancyGuard.sol\":2455:2473  _status = _ENTERED */\n      dup2\n      swap1\n      sstore\n      pop\n        /* \"contracts/NFTStaking.sol\":1551:1561  msg.sender */\n      caller\n        /* \"contracts/NFTStaking.sol\":1526:1561  tokenOwnedBy[tokenId] == msg.sender */\n      0xffffffffffffffffffffffffffffffffffffffff\n      and\n        /* \"contracts/NFTStaking.sol\":1526:1538  tokenOwnedBy */\n      0x04\n        /* \"contracts/NFTStaking.sol\":1526:1547  tokenOwnedBy[tokenId] */\n      0x00\n        /* \"contracts/NFTStaking.sol\":1539:1546  tokenId */\n      dup4\n        /* \"contracts/NFTStaking.sol\":1526:1547  tokenOwnedBy[tokenId] */\n      dup2\n      mstore\n      0x20\n      add\n      swap1\n      dup2\n      mstore\n      0x20\n      add\n      0x00\n      keccak256\n      0x00\n      swap1\n      sload\n      swap1\n      0x0100\n      exp\n      swap1\n      div\n      0xffffffffffffffffffffffffffffffffffffffff\n      and\n        /* \"contracts/NFTStaking.sol\":1526:1561  tokenOwnedBy[tokenId] == msg.sender */\n      0xffffffffffffffffffffffffffffffffffffffff\n      and\n      eq\n        /* \"contracts/NFTStaking.sol\":1518:1588  require(tokenOwnedBy[tokenId] == msg.sender, \"You are not the owner.\") */\n      tag_85\n      jumpi\n      mload(0x40)\n      0x08c379a000000000000000000000000000000000000000000000000000000000\n      dup2\n      mstore\n      0x04\n      add\n      tag_86\n      swap1\n      tag_87\n      jump\t// in\n    tag_86:\n      mload(0x40)\n      dup1\n      swap2\n      sub\n      swap1\n      revert\n    tag_85:\n        /* \"contracts/NFTStaking.sol\":1605:1617  tokenOwnedBy */\n      0x04\n        /* \"contracts/NFTStaking.sol\":1605:1626  tokenOwnedBy[tokenId] */\n      0x00\n        /* \"contracts/NFTStaking.sol\":1618:1625  tokenId */\n      dup3\n        /* \"contracts/NFTStaking.sol\":1605:1626  tokenOwnedBy[tokenId] */\n      dup2\n      mstore\n      0x20\n      add\n      swap1\n      dup2\n      mstore\n      0x20\n      add\n      0x00\n      keccak256\n      0x00\n        /* \"contracts/NFTStaking.sol\":1598:1626  delete tokenOwnedBy[tokenId] */\n      0x0100\n      exp\n      dup2\n      sload\n      swap1\n      0xffffffffffffffffffffffffffffffffffffffff\n      mul\n      not\n      and\n      swap1\n      sstore\n        /* \"contracts/NFTStaking.sol\":1636:1665  _stakedNFTCounter.decrement() */\n      tag_88\n        /* \"contracts/NFTStaking.sol\":1636:1653  _stakedNFTCounter */\n      0x03\n        /* \"contracts/NFTStaking.sol\":1636:1663  _stakedNFTCounter.decrement */\n      tag_89\n        /* \"contracts/NFTStaking.sol\":1636:1665  _stakedNFTCounter.decrement() */\n      jump\t// in\n    tag_88:\n        /* \"contracts/NFTStaking.sol\":1676:1688  bool success */\n      0x00\n        /* \"contracts/NFTStaking.sol\":1702:1714  tokenOwnedBy */\n      0x04\n        /* \"contracts/NFTStaking.sol\":1702:1723  tokenOwnedBy[tokenId] */\n      0x00\n        /* \"contracts/NFTStaking.sol\":1715:1722  tokenId */\n      dup4\n        /* \"contracts/NFTStaking.sol\":1702:1723  tokenOwnedBy[tokenId] */\n      dup2\n      mstore\n      0x20\n      add\n      swap1\n      dup2\n      mstore\n      0x20\n      add\n      0x00\n      keccak256\n      0x00\n      swap1\n      sload\n      swap1\n      0x0100\n      exp\n      swap1\n      div\n      0xffffffffffffffffffffffffffffffffffffffff\n      and\n        /* \"contracts/NFTStaking.sol\":1694:1729  payable(tokenOwnedBy[tokenId]).call */\n      0xffffffffffffffffffffffffffffffffffffffff\n      and\n        /* \"contracts/NFTStaking.sol\":1737:1744  rewards */\n      0x05\n        /* \"contracts/NFTStaking.sol\":1737:1753  rewards[tokenId] */\n      0x00\n        /* \"contracts/NFTStaking.sol\":1745:1752  tokenId */\n      dup5\n        /* \"contracts/NFTStaking.sol\":1737:1753  rewards[tokenId] */\n      dup2\n      mstore\n      0x20\n      add\n      swap1\n      dup2\n      mstore\n      0x20\n      add\n      0x00\n      keccak256\n      sload\n        /* \"contracts/NFTStaking.sol\":1694:1758  payable(tokenOwnedBy[tokenId]).call{value: rewards[tokenId]}(\"\") */\n      mload(0x40)\n      tag_90\n      swap1\n      tag_91\n      jump\t// in\n    tag_90:\n      0x00\n      mload(0x40)\n      dup1\n      dup4\n      sub\n      dup2\n      dup6\n      dup8\n      gas\n      call\n      swap3\n      pop\n      pop\n      pop\n      returndatasize\n      dup1\n      0x00\n      dup2\n      eq\n      tag_94\n      jumpi\n      mload(0x40)\n      swap2\n      pop\n      and(add(returndatasize, 0x3f), not(0x1f))\n      dup3\n      add\n      0x40\n      mstore\n      returndatasize\n      dup3\n      mstore\n      returndatasize\n      0x00\n      0x20\n      dup5\n      add\n      returndatacopy\n      jump(tag_93)\n    tag_94:\n      0x60\n      swap2\n      pop\n    tag_93:\n      pop\n        /* \"contracts/NFTStaking.sol\":1675:1758  (bool success, ) = payable(tokenOwnedBy[tokenId]).call{value: rewards[tokenId]}(\"\") */\n      pop\n      swap1\n      pop\n        /* \"contracts/NFTStaking.sol\":1776:1783  success */\n      dup1\n        /* \"contracts/NFTStaking.sol\":1768:1784  require(success) */\n      tag_95\n      jumpi\n      0x00\n      dup1\n      revert\n    tag_95:\n        /* \"contracts/NFTStaking.sol\":1802:1814  _nftContract */\n      0x02\n      0x00\n      swap1\n      sload\n      swap1\n      0x0100\n      exp\n      swap1\n      div\n      0xffffffffffffffffffffffffffffffffffffffff\n      and\n        /* \"contracts/NFTStaking.sol\":1794:1832  IERC721(_nftContract).safeTransferFrom */\n      0xffffffffffffffffffffffffffffffffffffffff\n      and\n      0x42842e0e\n        /* \"contracts/NFTStaking.sol\":1841:1845  this */\n      address\n        /* \"contracts/NFTStaking.sol\":1848:1858  msg.sender */\n      caller\n        /* \"contracts/NFTStaking.sol\":1860:1867  tokenId */\n      dup6\n        /* \"contracts/NFTStaking.sol\":1794:1868  IERC721(_nftContract).safeTransferFrom(address(this), msg.sender, tokenId) */\n      mload(0x40)\n      dup5\n      0xffffffff\n      and\n      0xe0\n      shl\n      dup2\n      mstore\n      0x04\n      add\n      tag_96\n      swap4\n      swap3\n      swap2\n      swap1\n      tag_97\n      jump\t// in\n    tag_96:\n      0x00\n      mload(0x40)\n      dup1\n      dup4\n      sub\n      dup2\n      0x00\n      dup8\n      dup1\n      extcodesize\n      iszero\n      dup1\n      iszero\n      tag_98\n      jumpi\n      0x00\n      dup1\n      revert\n    tag_98:\n      pop\n      gas\n      call\n      iszero\n      dup1\n      iszero\n      tag_100\n      jumpi\n      returndatasize\n      0x00\n      dup1\n      returndatacopy\n      revert(0x00, returndatasize)\n    tag_100:\n      pop\n      pop\n      pop\n      pop\n        /* \"contracts/NFTStaking.sol\":1508:1875  {... */\n      pop\n        /* \"@openzeppelin/contracts@4.7.3/security/ReentrancyGuard.sol\":1701:1702  1 */\n      0x01\n        /* \"@openzeppelin/contracts@4.7.3/security/ReentrancyGuard.sol\":2628:2635  _status */\n      dup1\n        /* \"@openzeppelin/contracts@4.7.3/security/ReentrancyGuard.sol\":2628:2650  _status = _NOT_ENTERED */\n      dup2\n      swap1\n      sstore\n      pop\n        /* \"contracts/NFTStaking.sol\":1452:1875  function unstake(uint256 tokenId) nonReentrant external {... */\n      pop\n      jump\t// out\n        /* \"@openzeppelin/contracts@4.7.3/access/Ownable.sol\":1831:1932  function renounceOwnership() public virtual onlyOwner {... */\n    tag_49:\n        /* \"@openzeppelin/contracts@4.7.3/access/Ownable.sol\":1094:1107  _checkOwner() */\n      tag_102\n        /* \"@openzeppelin/contracts@4.7.3/access/Ownable.sol\":1094:1105  _checkOwner */\n      tag_103\n        /* \"@openzeppelin/contracts@4.7.3/access/Ownable.sol\":1094:1107  _checkOwner() */\n      jump\t// in\n    tag_102:\n        /* \"@openzeppelin/contracts@4.7.3/access/Ownable.sol\":1895:1925  _transferOwnership(address(0)) */\n      tag_105\n        /* \"@openzeppelin/contracts@4.7.3/access/Ownable.sol\":1922:1923  0 */\n      0x00\n        /* \"@openzeppelin/contracts@4.7.3/access/Ownable.sol\":1895:1913  _transferOwnership */\n      tag_106\n        /* \"@openzeppelin/contracts@4.7.3/access/Ownable.sol\":1895:1925  _transferOwnership(address(0)) */\n      jump\t// in\n    tag_105:\n        /* \"@openzeppelin/contracts@4.7.3/access/Ownable.sol\":1831:1932  function renounceOwnership() public virtual onlyOwner {... */\n      jump\t// out\n        /* \"contracts/NFTStaking.sol\":866:914  mapping (uint256 => address) public tokenOwnedBy */\n    tag_53:\n      mstore(0x20, 0x04)\n      dup1\n      0x00\n      mstore\n      keccak256(0x00, 0x40)\n      0x00\n      swap2\n      pop\n      sload\n      swap1\n      0x0100\n      exp\n      swap1\n      div\n      0xffffffffffffffffffffffffffffffffffffffff\n      and\n      dup2\n      jump\t// out\n        /* \"@openzeppelin/contracts@4.7.3/access/Ownable.sol\":1201:1286  function owner() public view virtual returns (address) {... */\n    tag_57:\n        /* \"@openzeppelin/contracts@4.7.3/access/Ownable.sol\":1247:1254  address */\n      0x00\n        /* \"@openzeppelin/contracts@4.7.3/access/Ownable.sol\":1273:1279  _owner */\n      dup1\n      0x00\n      swap1\n      sload\n      swap1\n      0x0100\n      exp\n      swap1\n      div\n      0xffffffffffffffffffffffffffffffffffffffff\n      and\n        /* \"@openzeppelin/contracts@4.7.3/access/Ownable.sol\":1266:1279  return _owner */\n      swap1\n      pop\n        /* \"@openzeppelin/contracts@4.7.3/access/Ownable.sol\":1201:1286  function owner() public view virtual returns (address) {... */\n      swap1\n      jump\t// out\n        /* \"contracts/NFTStaking.sol\":1196:1446  function stake(uint256 tokenId) external {... */\n    tag_62:\n        /* \"contracts/NFTStaking.sol\":1255:1267  _nftContract */\n      0x02\n      0x00\n      swap1\n      sload\n      swap1\n      0x0100\n      exp\n      swap1\n      div\n      0xffffffffffffffffffffffffffffffffffffffff\n      and\n        /* \"contracts/NFTStaking.sol\":1247:1285  IERC721(_nftContract).safeTransferFrom */\n      0xffffffffffffffffffffffffffffffffffffffff\n      and\n      0x42842e0e\n        /* \"contracts/NFTStaking.sol\":1286:1296  msg.sender */\n      caller\n        /* \"contracts/NFTStaking.sol\":1306:1310  this */\n      address\n        /* \"contracts/NFTStaking.sol\":1313:1320  tokenId */\n      dup5\n        /* \"contracts/NFTStaking.sol\":1247:1321  IERC721(_nftContract).safeTransferFrom(msg.sender, address(this), tokenId) */\n      mload(0x40)\n      dup5\n      0xffffffff\n      and\n      0xe0\n      shl\n      dup2\n      mstore\n      0x04\n      add\n      tag_109\n      swap4\n      swap3\n      swap2\n      swap1\n      tag_97\n      jump\t// in\n    tag_109:\n      0x00\n      mload(0x40)\n      dup1\n      dup4\n      sub\n      dup2\n      0x00\n      dup8\n      dup1\n      extcodesize\n      iszero\n      dup1\n      iszero\n      tag_110\n      jumpi\n      0x00\n      dup1\n      revert\n    tag_110:\n      pop\n      gas\n      call\n      iszero\n      dup1\n      iszero\n      tag_112\n      jumpi\n      returndatasize\n      0x00\n      dup1\n      returndatacopy\n      revert(0x00, returndatasize)\n    tag_112:\n      pop\n      pop\n      pop\n      pop\n        /* \"contracts/NFTStaking.sol\":1355:1365  msg.sender */\n      caller\n        /* \"contracts/NFTStaking.sol\":1331:1343  tokenOwnedBy */\n      0x04\n        /* \"contracts/NFTStaking.sol\":1331:1352  tokenOwnedBy[tokenId] */\n      0x00\n        /* \"contracts/NFTStaking.sol\":1344:1351  tokenId */\n      dup4\n        /* \"contracts/NFTStaking.sol\":1331:1352  tokenOwnedBy[tokenId] */\n      dup2\n      mstore\n      0x20\n      add\n      swap1\n      dup2\n      mstore\n      0x20\n      add\n      0x00\n      keccak256\n      0x00\n        /* \"contracts/NFTStaking.sol\":1331:1365  tokenOwnedBy[tokenId] = msg.sender */\n      0x0100\n      exp\n      dup2\n      sload\n      dup2\n      0xffffffffffffffffffffffffffffffffffffffff\n      mul\n      not\n      and\n      swap1\n      dup4\n      0xffffffffffffffffffffffffffffffffffffffff\n      and\n      mul\n      or\n      swap1\n      sstore\n      pop\n        /* \"contracts/NFTStaking.sol\":1375:1386  tokenStaked */\n      0x06\n        /* \"contracts/NFTStaking.sol\":1392:1399  tokenId */\n      dup2\n        /* \"contracts/NFTStaking.sol\":1375:1400  tokenStaked.push(tokenId) */\n      swap1\n      dup1\n      0x01\n      dup2\n      sload\n      add\n      dup1\n      dup3\n      sstore\n      dup1\n      swap2\n      pop\n      pop\n      0x01\n      swap1\n      sub\n      swap1\n      0x00\n      mstore\n      keccak256(0x00, 0x20)\n      add\n      0x00\n      swap1\n      swap2\n      swap1\n      swap2\n      swap1\n      swap2\n      pop\n      sstore\n        /* \"contracts/NFTStaking.sol\":1410:1439  _stakedNFTCounter.increment() */\n      tag_114\n        /* \"contracts/NFTStaking.sol\":1410:1427  _stakedNFTCounter */\n      0x03\n        /* \"contracts/NFTStaking.sol\":1410:1437  _stakedNFTCounter.increment */\n      tag_115\n        /* \"contracts/NFTStaking.sol\":1410:1439  _stakedNFTCounter.increment() */\n      jump\t// in\n    tag_114:\n        /* \"contracts/NFTStaking.sol\":1196:1446  function stake(uint256 tokenId) external {... */\n      pop\n      jump\t// out\n        /* \"@openzeppelin/contracts@4.7.3/access/Ownable.sol\":2081:2279  function transferOwnership(address newOwner) public virtual onlyOwner {... */\n    tag_67:\n        /* \"@openzeppelin/contracts@4.7.3/access/Ownable.sol\":1094:1107  _checkOwner() */\n      tag_117\n        /* \"@openzeppelin/contracts@4.7.3/access/Ownable.sol\":1094:1105  _checkOwner */\n      tag_103\n        /* \"@openzeppelin/contracts@4.7.3/access/Ownable.sol\":1094:1107  _checkOwner() */\n      jump\t// in\n    tag_117:\n        /* \"@openzeppelin/contracts@4.7.3/access/Ownable.sol\":2189:2190  0 */\n      0x00\n        /* \"@openzeppelin/contracts@4.7.3/access/Ownable.sol\":2169:2191  newOwner != address(0) */\n      0xffffffffffffffffffffffffffffffffffffffff\n      and\n        /* \"@openzeppelin/contracts@4.7.3/access/Ownable.sol\":2169:2177  newOwner */\n      dup2\n        /* \"@openzeppelin/contracts@4.7.3/access/Ownable.sol\":2169:2191  newOwner != address(0) */\n      0xffffffffffffffffffffffffffffffffffffffff\n      and\n      eq\n      iszero\n        /* \"@openzeppelin/contracts@4.7.3/access/Ownable.sol\":2161:2234  require(newOwner != address(0), \"Ownable: new owner is the zero address\") */\n      tag_119\n      jumpi\n      mload(0x40)\n      0x08c379a000000000000000000000000000000000000000000000000000000000\n      dup2\n      mstore\n      0x04\n      add\n      tag_120\n      swap1\n      tag_121\n      jump\t// in\n    tag_120:\n      mload(0x40)\n      dup1\n      swap2\n      sub\n      swap1\n      revert\n    tag_119:\n        /* \"@openzeppelin/contracts@4.7.3/access/Ownable.sol\":2244:2272  _transferOwnership(newOwner) */\n      tag_122\n        /* \"@openzeppelin/contracts@4.7.3/access/Ownable.sol\":2263:2271  newOwner */\n      dup2\n        /* \"@openzeppelin/contracts@4.7.3/access/Ownable.sol\":2244:2262  _transferOwnership */\n      tag_106\n        /* \"@openzeppelin/contracts@4.7.3/access/Ownable.sol\":2244:2272  _transferOwnership(newOwner) */\n      jump\t// in\n    tag_122:\n        /* \"@openzeppelin/contracts@4.7.3/access/Ownable.sol\":2081:2279  function transferOwnership(address newOwner) public virtual onlyOwner {... */\n      pop\n      jump\t// out\n        /* \"contracts/NFTStaking.sol\":920:963  mapping (uint256 => uint256) public rewards */\n    tag_71:\n      mstore(0x20, 0x05)\n      dup1\n      0x00\n      mstore\n      keccak256(0x00, 0x40)\n      0x00\n      swap2\n      pop\n      swap1\n      pop\n      sload\n      dup2\n      jump\t// out\n        /* \"contracts/NFTStaking.sol\":1082:1190  function setNftContact(address nftContract_) external onlyOwner {... */\n    tag_77:\n        /* \"@openzeppelin/contracts@4.7.3/access/Ownable.sol\":1094:1107  _checkOwner() */\n      tag_124\n        /* \"@openzeppelin/contracts@4.7.3/access/Ownable.sol\":1094:1105  _checkOwner */\n      tag_103\n        /* \"@openzeppelin/contracts@4.7.3/access/Ownable.sol\":1094:1107  _checkOwner() */\n      jump\t// in\n    tag_124:\n        /* \"contracts/NFTStaking.sol\":1171:1183  nftContract_ */\n      dup1\n        /* \"contracts/NFTStaking.sol\":1156:1168  _nftContract */\n      0x02\n      0x00\n        /* \"contracts/NFTStaking.sol\":1156:1183  _nftContract = nftContract_ */\n      0x0100\n      exp\n      dup2\n      sload\n      dup2\n      0xffffffffffffffffffffffffffffffffffffffff\n      mul\n      not\n      and\n      swap1\n      dup4\n      0xffffffffffffffffffffffffffffffffffffffff\n      and\n      mul\n      or\n      swap1\n      sstore\n      pop\n        /* \"contracts/NFTStaking.sol\":1082:1190  function setNftContact(address nftContract_) external onlyOwner {... */\n      pop\n      jump\t// out\n        /* \"@openzeppelin/contracts@4.7.3/utils/Counters.sol\":1074:1303  function decrement(Counter storage counter) internal {... */\n    tag_89:\n        /* \"@openzeppelin/contracts@4.7.3/utils/Counters.sol\":1137:1150  uint256 value */\n      0x00\n        /* \"@openzeppelin/contracts@4.7.3/utils/Counters.sol\":1153:1160  counter */\n      dup2\n        /* \"@openzeppelin/contracts@4.7.3/utils/Counters.sol\":1153:1167  counter._value */\n      0x00\n      add\n      sload\n        /* \"@openzeppelin/contracts@4.7.3/utils/Counters.sol\":1137:1167  uint256 value = counter._value */\n      swap1\n      pop\n        /* \"@openzeppelin/contracts@4.7.3/utils/Counters.sol\":1193:1194  0 */\n      0x00\n        /* \"@openzeppelin/contracts@4.7.3/utils/Counters.sol\":1185:1190  value */\n      dup2\n        /* \"@openzeppelin/contracts@4.7.3/utils/Counters.sol\":1185:1194  value > 0 */\n      gt\n        /* \"@openzeppelin/contracts@4.7.3/utils/Counters.sol\":1177:1226  require(value > 0, \"Counter: decrement overflow\") */\n      tag_127\n      jumpi\n      mload(0x40)\n      0x08c379a000000000000000000000000000000000000000000000000000000000\n      dup2\n      mstore\n      0x04\n      add\n      tag_128\n      swap1\n      tag_129\n      jump\t// in\n    tag_128:\n      mload(0x40)\n      dup1\n      swap2\n      sub\n      swap1\n      revert\n    tag_127:\n        /* \"@openzeppelin/contracts@4.7.3/utils/Counters.sol\":1285:1286  1 */\n      0x01\n        /* \"@openzeppelin/contracts@4.7.3/utils/Counters.sol\":1277:1282  value */\n      dup2\n        /* \"@openzeppelin/contracts@4.7.3/utils/Counters.sol\":1277:1286  value - 1 */\n      sub\n        /* \"@openzeppelin/contracts@4.7.3/utils/Counters.sol\":1260:1267  counter */\n      dup3\n        /* \"@openzeppelin/contracts@4.7.3/utils/Counters.sol\":1260:1274  counter._value */\n      0x00\n      add\n        /* \"@openzeppelin/contracts@4.7.3/utils/Counters.sol\":1260:1286  counter._value = value - 1 */\n      dup2\n      swap1\n      sstore\n      pop\n        /* \"@openzeppelin/contracts@4.7.3/utils/Counters.sol\":1127:1303  {... */\n      pop\n        /* \"@openzeppelin/contracts@4.7.3/utils/Counters.sol\":1074:1303  function decrement(Counter storage counter) internal {... */\n      pop\n      jump\t// out\n        /* \"@openzeppelin/contracts@4.7.3/access/Ownable.sol\":1359:1489  function _checkOwner() internal view virtual {... */\n    tag_103:\n        /* \"@openzeppelin/contracts@4.7.3/access/Ownable.sol\":1433:1445  _msgSender() */\n      tag_131\n        /* \"@openzeppelin/contracts@4.7.3/access/Ownable.sol\":1433:1443  _msgSender */\n      tag_132\n        /* \"@openzeppelin/contracts@4.7.3/access/Ownable.sol\":1433:1445  _msgSender() */\n      jump\t// in\n    tag_131:\n        /* \"@openzeppelin/contracts@4.7.3/access/Ownable.sol\":1422:1445  owner() == _msgSender() */\n      0xffffffffffffffffffffffffffffffffffffffff\n      and\n        /* \"@openzeppelin/contracts@4.7.3/access/Ownable.sol\":1422:1429  owner() */\n      tag_133\n        /* \"@openzeppelin/contracts@4.7.3/access/Ownable.sol\":1422:1427  owner */\n      tag_57\n        /* \"@openzeppelin/contracts@4.7.3/access/Ownable.sol\":1422:1429  owner() */\n      jump\t// in\n    tag_133:\n        /* \"@openzeppelin/contracts@4.7.3/access/Ownable.sol\":1422:1445  owner() == _msgSender() */\n      0xffffffffffffffffffffffffffffffffffffffff\n      and\n      eq\n        /* \"@openzeppelin/contracts@4.7.3/access/Ownable.sol\":1414:1482  require(owner() == _msgSender(), \"Ownable: caller is not the owner\") */\n      tag_134\n      jumpi\n      mload(0x40)\n      0x08c379a000000000000000000000000000000000000000000000000000000000\n      dup2\n      mstore\n      0x04\n      add\n      tag_135\n      swap1\n      tag_136\n      jump\t// in\n    tag_135:\n      mload(0x40)\n      dup1\n      swap2\n      sub\n      swap1\n      revert\n    tag_134:\n        /* \"@openzeppelin/contracts@4.7.3/access/Ownable.sol\":1359:1489  function _checkOwner() internal view virtual {... */\n      jump\t// out\n        /* \"@openzeppelin/contracts@4.7.3/access/Ownable.sol\":2433:2620  function _transferOwnership(address newOwner) internal virtual {... */\n    tag_106:\n        /* \"@openzeppelin/contracts@4.7.3/access/Ownable.sol\":2506:2522  address oldOwner */\n      0x00\n        /* \"@openzeppelin/contracts@4.7.3/access/Ownable.sol\":2525:2531  _owner */\n      dup1\n      0x00\n      swap1\n      sload\n      swap1\n      0x0100\n      exp\n      swap1\n      div\n      0xffffffffffffffffffffffffffffffffffffffff\n      and\n        /* \"@openzeppelin/contracts@4.7.3/access/Ownable.sol\":2506:2531  address oldOwner = _owner */\n      swap1\n      pop\n        /* \"@openzeppelin/contracts@4.7.3/access/Ownable.sol\":2550:2558  newOwner */\n      dup2\n        /* \"@openzeppelin/contracts@4.7.3/access/Ownable.sol\":2541:2547  _owner */\n      0x00\n      dup1\n        /* \"@openzeppelin/contracts@4.7.3/access/Ownable.sol\":2541:2558  _owner = newOwner */\n      0x0100\n      exp\n      dup2\n      sload\n      dup2\n      0xffffffffffffffffffffffffffffffffffffffff\n      mul\n      not\n      and\n      swap1\n      dup4\n      0xffffffffffffffffffffffffffffffffffffffff\n      and\n      mul\n      or\n      swap1\n      sstore\n      pop\n        /* \"@openzeppelin/contracts@4.7.3/access/Ownable.sol\":2604:2612  newOwner */\n      dup2\n        /* \"@openzeppelin/contracts@4.7.3/access/Ownable.sol\":2573:2613  OwnershipTransferred(oldOwner, newOwner) */\n      0xffffffffffffffffffffffffffffffffffffffff\n      and\n        /* \"@openzeppelin/contracts@4.7.3/access/Ownable.sol\":2594:2602  oldOwner */\n      dup2\n        /* \"@openzeppelin/contracts@4.7.3/access/Ownable.sol\":2573:2613  OwnershipTransferred(oldOwner, newOwner) */\n      0xffffffffffffffffffffffffffffffffffffffff\n      and\n      0x8be0079c531659141344cd1fd0a4f28419497f9722a3daafe3b4186f6b6457e0\n      mload(0x40)\n      mload(0x40)\n      dup1\n      swap2\n      sub\n      swap1\n      log3\n        /* \"@openzeppelin/contracts@4.7.3/access/Ownable.sol\":2496:2620  {... */\n      pop\n        /* \"@openzeppelin/contracts@4.7.3/access/Ownable.sol\":2433:2620  function _transferOwnership(address newOwner) internal virtual {... */\n      pop\n      jump\t// out\n        /* \"@openzeppelin/contracts@4.7.3/utils/Counters.sol\":945:1068  function increment(Counter storage counter) internal {... */\n    tag_115:\n        /* \"@openzeppelin/contracts@4.7.3/utils/Counters.sol\":1050:1051  1 */\n      0x01\n        /* \"@openzeppelin/contracts@4.7.3/utils/Counters.sol\":1032:1039  counter */\n      dup2\n        /* \"@openzeppelin/contracts@4.7.3/utils/Counters.sol\":1032:1046  counter._value */\n      0x00\n      add\n      0x00\n        /* \"@openzeppelin/contracts@4.7.3/utils/Counters.sol\":1032:1051  counter._value += 1 */\n      dup3\n      dup3\n      sload\n      add\n      swap3\n      pop\n      pop\n      dup2\n      swap1\n      sstore\n      pop\n        /* \"@openzeppelin/contracts@4.7.3/utils/Counters.sol\":945:1068  function increment(Counter storage counter) internal {... */\n      pop\n      jump\t// out\n        /* \"@openzeppelin/contracts@4.7.3/utils/Context.sol\":640:736  function _msgSender() internal view virtual returns (address) {... */\n    tag_132:\n        /* \"@openzeppelin/contracts@4.7.3/utils/Context.sol\":693:700  address */\n      0x00\n        /* \"@openzeppelin/contracts@4.7.3/utils/Context.sol\":719:729  msg.sender */\n      caller\n        /* \"@openzeppelin/contracts@4.7.3/utils/Context.sol\":712:729  return msg.sender */\n      swap1\n      pop\n        /* \"@openzeppelin/contracts@4.7.3/utils/Context.sol\":640:736  function _msgSender() internal view virtual returns (address) {... */\n      swap1\n      jump\t// out\n        /* \"#utility.yul\":24:768   */\n    tag_141:\n        /* \"#utility.yul\":131:136   */\n      0x00\n        /* \"#utility.yul\":156:237   */\n      tag_143\n        /* \"#utility.yul\":172:236   */\n      tag_144\n        /* \"#utility.yul\":229:235   */\n      dup5\n        /* \"#utility.yul\":172:236   */\n      tag_145\n      jump\t// in\n    tag_144:\n        /* \"#utility.yul\":156:237   */\n      tag_146\n      jump\t// in\n    tag_143:\n        /* \"#utility.yul\":147:237   */\n      swap1\n      pop\n        /* \"#utility.yul\":257:262   */\n      dup1\n        /* \"#utility.yul\":286:292   */\n      dup4\n        /* \"#utility.yul\":279:284   */\n      dup3\n        /* \"#utility.yul\":272:293   */\n      mstore\n        /* \"#utility.yul\":320:324   */\n      0x20\n        /* \"#utility.yul\":313:318   */\n      dup3\n        /* \"#utility.yul\":309:325   */\n      add\n        /* \"#utility.yul\":302:325   */\n      swap1\n      pop\n        /* \"#utility.yul\":346:352   */\n      dup3\n        /* \"#utility.yul\":396:399   */\n      dup6\n        /* \"#utility.yul\":388:392   */\n      0x20\n        /* \"#utility.yul\":380:386   */\n      dup7\n        /* \"#utility.yul\":376:393   */\n      mul\n        /* \"#utility.yul\":371:374   */\n      dup3\n        /* \"#utility.yul\":367:394   */\n      add\n        /* \"#utility.yul\":364:400   */\n      gt\n        /* \"#utility.yul\":361:504   */\n      iszero\n      tag_147\n      jumpi\n        /* \"#utility.yul\":415:494   */\n      tag_148\n      tag_149\n      jump\t// in\n    tag_148:\n        /* \"#utility.yul\":361:504   */\n    tag_147:\n        /* \"#utility.yul\":528:529   */\n      0x00\n        /* \"#utility.yul\":513:762   */\n    tag_150:\n        /* \"#utility.yul\":538:544   */\n      dup6\n        /* \"#utility.yul\":535:536   */\n      dup2\n        /* \"#utility.yul\":532:545   */\n      lt\n        /* \"#utility.yul\":513:762   */\n      iszero\n      tag_152\n      jumpi\n        /* \"#utility.yul\":606:609   */\n      dup2\n        /* \"#utility.yul\":635:683   */\n      tag_153\n        /* \"#utility.yul\":679:682   */\n      dup9\n        /* \"#utility.yul\":667:677   */\n      dup3\n        /* \"#utility.yul\":635:683   */\n      tag_154\n      jump\t// in\n    tag_153:\n        /* \"#utility.yul\":630:633   */\n      dup5\n        /* \"#utility.yul\":623:684   */\n      mstore\n        /* \"#utility.yul\":713:717   */\n      0x20\n        /* \"#utility.yul\":708:711   */\n      dup5\n        /* \"#utility.yul\":704:718   */\n      add\n        /* \"#utility.yul\":697:718   */\n      swap4\n      pop\n        /* \"#utility.yul\":747:751   */\n      0x20\n        /* \"#utility.yul\":742:745   */\n      dup4\n        /* \"#utility.yul\":738:752   */\n      add\n        /* \"#utility.yul\":731:752   */\n      swap3\n      pop\n        /* \"#utility.yul\":573:762   */\n      pop\n        /* \"#utility.yul\":560:561   */\n      0x01\n        /* \"#utility.yul\":557:558   */\n      dup2\n        /* \"#utility.yul\":553:562   */\n      add\n        /* \"#utility.yul\":548:562   */\n      swap1\n      pop\n        /* \"#utility.yul\":513:762   */\n      jump(tag_150)\n    tag_152:\n        /* \"#utility.yul\":517:531   */\n      pop\n        /* \"#utility.yul\":137:768   */\n      pop\n      pop\n        /* \"#utility.yul\":24:768   */\n      swap4\n      swap3\n      pop\n      pop\n      pop\n      jump\t// out\n        /* \"#utility.yul\":774:1184   */\n    tag_155:\n        /* \"#utility.yul\":851:856   */\n      0x00\n        /* \"#utility.yul\":876:941   */\n      tag_157\n        /* \"#utility.yul\":892:940   */\n      tag_158\n        /* \"#utility.yul\":933:939   */\n      dup5\n        /* \"#utility.yul\":892:940   */\n      tag_159\n      jump\t// in\n    tag_158:\n        /* \"#utility.yul\":876:941   */\n      tag_146\n      jump\t// in\n    tag_157:\n        /* \"#utility.yul\":867:941   */\n      swap1\n      pop\n        /* \"#utility.yul\":964:970   */\n      dup3\n        /* \"#utility.yul\":957:962   */\n      dup2\n        /* \"#utility.yul\":950:971   */\n      mstore\n        /* \"#utility.yul\":1002:1006   */\n      0x20\n        /* \"#utility.yul\":995:1000   */\n      dup2\n        /* \"#utility.yul\":991:1007   */\n      add\n        /* \"#utility.yul\":1040:1043   */\n      dup5\n        /* \"#utility.yul\":1031:1037   */\n      dup5\n        /* \"#utility.yul\":1026:1029   */\n      dup5\n        /* \"#utility.yul\":1022:1038   */\n      add\n        /* \"#utility.yul\":1019:1044   */\n      gt\n        /* \"#utility.yul\":1016:1128   */\n      iszero\n      tag_160\n      jumpi\n        /* \"#utility.yul\":1047:1126   */\n      tag_161\n      tag_162\n      jump\t// in\n    tag_161:\n        /* \"#utility.yul\":1016:1128   */\n    tag_160:\n        /* \"#utility.yul\":1137:1178   */\n      tag_163\n        /* \"#utility.yul\":1171:1177   */\n      dup5\n        /* \"#utility.yul\":1166:1169   */\n      dup3\n        /* \"#utility.yul\":1161:1164   */\n      dup6\n        /* \"#utility.yul\":1137:1178   */\n      tag_164\n      jump\t// in\n    tag_163:\n        /* \"#utility.yul\":857:1184   */\n      pop\n        /* \"#utility.yul\":774:1184   */\n      swap4\n      swap3\n      pop\n      pop\n      pop\n      jump\t// out\n        /* \"#utility.yul\":1190:1329   */\n    tag_165:\n        /* \"#utility.yul\":1236:1241   */\n      0x00\n        /* \"#utility.yul\":1274:1280   */\n      dup2\n        /* \"#utility.yul\":1261:1281   */\n      calldataload\n        /* \"#utility.yul\":1252:1281   */\n      swap1\n      pop\n        /* \"#utility.yul\":1290:1323   */\n      tag_167\n        /* \"#utility.yul\":1317:1322   */\n      dup2\n        /* \"#utility.yul\":1290:1323   */\n      tag_168\n      jump\t// in\n    tag_167:\n        /* \"#utility.yul\":1190:1329   */\n      swap3\n      swap2\n      pop\n      pop\n      jump\t// out\n        /* \"#utility.yul\":1352:1737   */\n    tag_169:\n        /* \"#utility.yul\":1434:1439   */\n      0x00\n        /* \"#utility.yul\":1483:1486   */\n      dup3\n        /* \"#utility.yul\":1476:1480   */\n      0x1f\n        /* \"#utility.yul\":1468:1474   */\n      dup4\n        /* \"#utility.yul\":1464:1481   */\n      add\n        /* \"#utility.yul\":1460:1487   */\n      slt\n        /* \"#utility.yul\":1450:1572   */\n      tag_171\n      jumpi\n        /* \"#utility.yul\":1491:1570   */\n      tag_172\n      tag_173\n      jump\t// in\n    tag_172:\n        /* \"#utility.yul\":1450:1572   */\n    tag_171:\n        /* \"#utility.yul\":1601:1607   */\n      dup2\n        /* \"#utility.yul\":1595:1608   */\n      mload\n        /* \"#utility.yul\":1626:1731   */\n      tag_174\n        /* \"#utility.yul\":1727:1730   */\n      dup5\n        /* \"#utility.yul\":1719:1725   */\n      dup3\n        /* \"#utility.yul\":1712:1716   */\n      0x20\n        /* \"#utility.yul\":1704:1710   */\n      dup7\n        /* \"#utility.yul\":1700:1717   */\n      add\n        /* \"#utility.yul\":1626:1731   */\n      tag_141\n      jump\t// in\n    tag_174:\n        /* \"#utility.yul\":1617:1731   */\n      swap2\n      pop\n        /* \"#utility.yul\":1440:1737   */\n      pop\n        /* \"#utility.yul\":1352:1737   */\n      swap3\n      swap2\n      pop\n      pop\n      jump\t// out\n        /* \"#utility.yul\":1756:2094   */\n    tag_175:\n        /* \"#utility.yul\":1811:1816   */\n      0x00\n        /* \"#utility.yul\":1860:1863   */\n      dup3\n        /* \"#utility.yul\":1853:1857   */\n      0x1f\n        /* \"#utility.yul\":1845:1851   */\n      dup4\n        /* \"#utility.yul\":1841:1858   */\n      add\n        /* \"#utility.yul\":1837:1864   */\n      slt\n        /* \"#utility.yul\":1827:1949   */\n      tag_177\n      jumpi\n        /* \"#utility.yul\":1868:1947   */\n      tag_178\n      tag_173\n      jump\t// in\n    tag_178:\n        /* \"#utility.yul\":1827:1949   */\n    tag_177:\n        /* \"#utility.yul\":1985:1991   */\n      dup2\n        /* \"#utility.yul\":1972:1992   */\n      calldataload\n        /* \"#utility.yul\":2010:2088   */\n      tag_179\n        /* \"#utility.yul\":2084:2087   */\n      dup5\n        /* \"#utility.yul\":2076:2082   */\n      dup3\n        /* \"#utility.yul\":2069:2073   */\n      0x20\n        /* \"#utility.yul\":2061:2067   */\n      dup7\n        /* \"#utility.yul\":2057:2074   */\n      add\n        /* \"#utility.yul\":2010:2088   */\n      tag_155\n      jump\t// in\n    tag_179:\n        /* \"#utility.yul\":2001:2088   */\n      swap2\n      pop\n        /* \"#utility.yul\":1817:2094   */\n      pop\n        /* \"#utility.yul\":1756:2094   */\n      swap3\n      swap2\n      pop\n      pop\n      jump\t// out\n        /* \"#utility.yul\":2100:2239   */\n    tag_180:\n        /* \"#utility.yul\":2146:2151   */\n      0x00\n        /* \"#utility.yul\":2184:2190   */\n      dup2\n        /* \"#utility.yul\":2171:2191   */\n      calldataload\n        /* \"#utility.yul\":2162:2191   */\n      swap1\n      pop\n        /* \"#utility.yul\":2200:2233   */\n      tag_182\n        /* \"#utility.yul\":2227:2232   */\n      dup2\n        /* \"#utility.yul\":2200:2233   */\n      tag_183\n      jump\t// in\n    tag_182:\n        /* \"#utility.yul\":2100:2239   */\n      swap3\n      swap2\n      pop\n      pop\n      jump\t// out\n        /* \"#utility.yul\":2245:2388   */\n    tag_154:\n        /* \"#utility.yul\":2302:2307   */\n      0x00\n        /* \"#utility.yul\":2333:2339   */\n      dup2\n        /* \"#utility.yul\":2327:2340   */\n      mload\n        /* \"#utility.yul\":2318:2340   */\n      swap1\n      pop\n        /* \"#utility.yul\":2349:2382   */\n      tag_185\n        /* \"#utility.yul\":2376:2381   */\n      dup2\n        /* \"#utility.yul\":2349:2382   */\n      tag_183\n      jump\t// in\n    tag_185:\n        /* \"#utility.yul\":2245:2388   */\n      swap3\n      swap2\n      pop\n      pop\n      jump\t// out\n        /* \"#utility.yul\":2394:2723   */\n    tag_66:\n        /* \"#utility.yul\":2453:2459   */\n      0x00\n        /* \"#utility.yul\":2502:2504   */\n      0x20\n        /* \"#utility.yul\":2490:2499   */\n      dup3\n        /* \"#utility.yul\":2481:2488   */\n      dup5\n        /* \"#utility.yul\":2477:2500   */\n      sub\n        /* \"#utility.yul\":2473:2505   */\n      slt\n        /* \"#utility.yul\":2470:2589   */\n      iszero\n      tag_187\n      jumpi\n        /* \"#utility.yul\":2508:2587   */\n      tag_188\n      tag_189\n      jump\t// in\n    tag_188:\n        /* \"#utility.yul\":2470:2589   */\n    tag_187:\n        /* \"#utility.yul\":2628:2629   */\n      0x00\n        /* \"#utility.yul\":2653:2706   */\n      tag_190\n        /* \"#utility.yul\":2698:2705   */\n      dup5\n        /* \"#utility.yul\":2689:2695   */\n      dup3\n        /* \"#utility.yul\":2678:2687   */\n      dup6\n        /* \"#utility.yul\":2674:2696   */\n      add\n        /* \"#utility.yul\":2653:2706   */\n      tag_165\n      jump\t// in\n    tag_190:\n        /* \"#utility.yul\":2643:2706   */\n      swap2\n      pop\n        /* \"#utility.yul\":2599:2716   */\n      pop\n        /* \"#utility.yul\":2394:2723   */\n      swap3\n      swap2\n      pop\n      pop\n      jump\t// out\n        /* \"#utility.yul\":2729:3672   */\n    tag_38:\n        /* \"#utility.yul\":2824:2830   */\n      0x00\n        /* \"#utility.yul\":2832:2838   */\n      dup1\n        /* \"#utility.yul\":2840:2846   */\n      0x00\n        /* \"#utility.yul\":2848:2854   */\n      dup1\n        /* \"#utility.yul\":2897:2900   */\n      0x80\n        /* \"#utility.yul\":2885:2894   */\n      dup6\n        /* \"#utility.yul\":2876:2883   */\n      dup8\n        /* \"#utility.yul\":2872:2895   */\n      sub\n        /* \"#utility.yul\":2868:2901   */\n      slt\n        /* \"#utility.yul\":2865:2985   */\n      iszero\n      tag_192\n      jumpi\n        /* \"#utility.yul\":2904:2983   */\n      tag_193\n      tag_189\n      jump\t// in\n    tag_193:\n        /* \"#utility.yul\":2865:2985   */\n    tag_192:\n        /* \"#utility.yul\":3024:3025   */\n      0x00\n        /* \"#utility.yul\":3049:3102   */\n      tag_194\n        /* \"#utility.yul\":3094:3101   */\n      dup8\n        /* \"#utility.yul\":3085:3091   */\n      dup3\n        /* \"#utility.yul\":3074:3083   */\n      dup9\n        /* \"#utility.yul\":3070:3092   */\n      add\n        /* \"#utility.yul\":3049:3102   */\n      tag_165\n      jump\t// in\n    tag_194:\n        /* \"#utility.yul\":3039:3102   */\n      swap5\n      pop\n        /* \"#utility.yul\":2995:3112   */\n      pop\n        /* \"#utility.yul\":3151:3153   */\n      0x20\n        /* \"#utility.yul\":3177:3230   */\n      tag_195\n        /* \"#utility.yul\":3222:3229   */\n      dup8\n        /* \"#utility.yul\":3213:3219   */\n      dup3\n        /* \"#utility.yul\":3202:3211   */\n      dup9\n        /* \"#utility.yul\":3198:3220   */\n      add\n        /* \"#utility.yul\":3177:3230   */\n      tag_165\n      jump\t// in\n    tag_195:\n        /* \"#utility.yul\":3167:3230   */\n      swap4\n      pop\n        /* \"#utility.yul\":3122:3240   */\n      pop\n        /* \"#utility.yul\":3279:3281   */\n      0x40\n        /* \"#utility.yul\":3305:3358   */\n      tag_196\n        /* \"#utility.yul\":3350:3357   */\n      dup8\n        /* \"#utility.yul\":3341:3347   */\n      dup3\n        /* \"#utility.yul\":3330:3339   */\n      dup9\n        /* \"#utility.yul\":3326:3348   */\n      add\n        /* \"#utility.yul\":3305:3358   */\n      tag_180\n      jump\t// in\n    tag_196:\n        /* \"#utility.yul\":3295:3358   */\n      swap3\n      pop\n        /* \"#utility.yul\":3250:3368   */\n      pop\n        /* \"#utility.yul\":3435:3437   */\n      0x60\n        /* \"#utility.yul\":3424:3433   */\n      dup6\n        /* \"#utility.yul\":3420:3438   */\n      add\n        /* \"#utility.yul\":3407:3439   */\n      calldataload\n        /* \"#utility.yul\":3466:3484   */\n      0xffffffffffffffff\n        /* \"#utility.yul\":3458:3464   */\n      dup2\n        /* \"#utility.yul\":3455:3485   */\n      gt\n        /* \"#utility.yul\":3452:3569   */\n      iszero\n      tag_197\n      jumpi\n        /* \"#utility.yul\":3488:3567   */\n      tag_198\n      tag_199\n      jump\t// in\n    tag_198:\n        /* \"#utility.yul\":3452:3569   */\n    tag_197:\n        /* \"#utility.yul\":3593:3655   */\n      tag_200\n        /* \"#utility.yul\":3647:3654   */\n      dup8\n        /* \"#utility.yul\":3638:3644   */\n      dup3\n        /* \"#utility.yul\":3627:3636   */\n      dup9\n        /* \"#utility.yul\":3623:3645   */\n      add\n        /* \"#utility.yul\":3593:3655   */\n      tag_175\n      jump\t// in\n    tag_200:\n        /* \"#utility.yul\":3583:3655   */\n      swap2\n      pop\n        /* \"#utility.yul\":3378:3665   */\n      pop\n        /* \"#utility.yul\":2729:3672   */\n      swap3\n      swap6\n      swap2\n      swap5\n      pop\n      swap3\n      pop\n      jump\t// out\n        /* \"#utility.yul\":3678:4232   */\n    tag_25:\n        /* \"#utility.yul\":3773:3779   */\n      0x00\n        /* \"#utility.yul\":3822:3824   */\n      0x20\n        /* \"#utility.yul\":3810:3819   */\n      dup3\n        /* \"#utility.yul\":3801:3808   */\n      dup5\n        /* \"#utility.yul\":3797:3820   */\n      sub\n        /* \"#utility.yul\":3793:3825   */\n      slt\n        /* \"#utility.yul\":3790:3909   */\n      iszero\n      tag_202\n      jumpi\n        /* \"#utility.yul\":3828:3907   */\n      tag_203\n      tag_189\n      jump\t// in\n    tag_203:\n        /* \"#utility.yul\":3790:3909   */\n    tag_202:\n        /* \"#utility.yul\":3969:3970   */\n      0x00\n        /* \"#utility.yul\":3958:3967   */\n      dup3\n        /* \"#utility.yul\":3954:3971   */\n      add\n        /* \"#utility.yul\":3948:3972   */\n      mload\n        /* \"#utility.yul\":3999:4017   */\n      0xffffffffffffffff\n        /* \"#utility.yul\":3991:3997   */\n      dup2\n        /* \"#utility.yul\":3988:4018   */\n      gt\n        /* \"#utility.yul\":3985:4102   */\n      iszero\n      tag_204\n      jumpi\n        /* \"#utility.yul\":4021:4100   */\n      tag_205\n      tag_199\n      jump\t// in\n    tag_205:\n        /* \"#utility.yul\":3985:4102   */\n    tag_204:\n        /* \"#utility.yul\":4126:4215   */\n      tag_206\n        /* \"#utility.yul\":4207:4214   */\n      dup5\n        /* \"#utility.yul\":4198:4204   */\n      dup3\n        /* \"#utility.yul\":4187:4196   */\n      dup6\n        /* \"#utility.yul\":4183:4205   */\n      add\n        /* \"#utility.yul\":4126:4215   */\n      tag_169\n      jump\t// in\n    tag_206:\n        /* \"#utility.yul\":4116:4215   */\n      swap2\n      pop\n        /* \"#utility.yul\":3919:4225   */\n      pop\n        /* \"#utility.yul\":3678:4232   */\n      swap3\n      swap2\n      pop\n      pop\n      jump\t// out\n        /* \"#utility.yul\":4238:4567   */\n    tag_45:\n        /* \"#utility.yul\":4297:4303   */\n      0x00\n        /* \"#utility.yul\":4346:4348   */\n      0x20\n        /* \"#utility.yul\":4334:4343   */\n      dup3\n        /* \"#utility.yul\":4325:4332   */\n      dup5\n        /* \"#utility.yul\":4321:4344   */\n      sub\n        /* \"#utility.yul\":4317:4349   */\n      slt\n        /* \"#utility.yul\":4314:4433   */\n      iszero\n      tag_208\n      jumpi\n        /* \"#utility.yul\":4352:4431   */\n      tag_209\n      tag_189\n      jump\t// in\n    tag_209:\n        /* \"#utility.yul\":4314:4433   */\n    tag_208:\n        /* \"#utility.yul\":4472:4473   */\n      0x00\n        /* \"#utility.yul\":4497:4550   */\n      tag_210\n        /* \"#utility.yul\":4542:4549   */\n      dup5\n        /* \"#utility.yul\":4533:4539   */\n      dup3\n        /* \"#utility.yul\":4522:4531   */\n      dup6\n        /* \"#utility.yul\":4518:4540   */\n      add\n        /* \"#utility.yul\":4497:4550   */\n      tag_180\n      jump\t// in\n    tag_210:\n        /* \"#utility.yul\":4487:4550   */\n      swap2\n      pop\n        /* \"#utility.yul\":4443:4560   */\n      pop\n        /* \"#utility.yul\":4238:4567   */\n      swap3\n      swap2\n      pop\n      pop\n      jump\t// out\n        /* \"#utility.yul\":4573:4691   */\n    tag_211:\n        /* \"#utility.yul\":4660:4684   */\n      tag_213\n        /* \"#utility.yul\":4678:4683   */\n      dup2\n        /* \"#utility.yul\":4660:4684   */\n      tag_214\n      jump\t// in\n    tag_213:\n        /* \"#utility.yul\":4655:4658   */\n      dup3\n        /* \"#utility.yul\":4648:4685   */\n      mstore\n        /* \"#utility.yul\":4573:4691   */\n      pop\n      pop\n      jump\t// out\n        /* \"#utility.yul\":4697:4812   */\n    tag_215:\n        /* \"#utility.yul\":4782:4805   */\n      tag_217\n        /* \"#utility.yul\":4799:4804   */\n      dup2\n        /* \"#utility.yul\":4782:4805   */\n      tag_218\n      jump\t// in\n    tag_217:\n        /* \"#utility.yul\":4777:4780   */\n      dup3\n        /* \"#utility.yul\":4770:4806   */\n      mstore\n        /* \"#utility.yul\":4697:4812   */\n      pop\n      pop\n      jump\t// out\n        /* \"#utility.yul\":4818:5184   */\n    tag_219:\n        /* \"#utility.yul\":4960:4963   */\n      0x00\n        /* \"#utility.yul\":4981:5048   */\n      tag_221\n        /* \"#utility.yul\":5045:5047   */\n      0x1b\n        /* \"#utility.yul\":5040:5043   */\n      dup4\n        /* \"#utility.yul\":4981:5048   */\n      tag_222\n      jump\t// in\n    tag_221:\n        /* \"#utility.yul\":4974:5048   */\n      swap2\n      pop\n        /* \"#utility.yul\":5057:5150   */\n      tag_223\n        /* \"#utility.yul\":5146:5149   */\n      dup3\n        /* \"#utility.yul\":5057:5150   */\n      tag_224\n      jump\t// in\n    tag_223:\n        /* \"#utility.yul\":5175:5177   */\n      0x20\n        /* \"#utility.yul\":5170:5173   */\n      dup3\n        /* \"#utility.yul\":5166:5178   */\n      add\n        /* \"#utility.yul\":5159:5178   */\n      swap1\n      pop\n        /* \"#utility.yul\":4818:5184   */\n      swap2\n      swap1\n      pop\n      jump\t// out\n        /* \"#utility.yul\":5190:5556   */\n    tag_225:\n        /* \"#utility.yul\":5332:5335   */\n      0x00\n        /* \"#utility.yul\":5353:5420   */\n      tag_227\n        /* \"#utility.yul\":5417:5419   */\n      0x26\n        /* \"#utility.yul\":5412:5415   */\n      dup4\n        /* \"#utility.yul\":5353:5420   */\n      tag_222\n      jump\t// in\n    tag_227:\n        /* \"#utility.yul\":5346:5420   */\n      swap2\n      pop\n        /* \"#utility.yul\":5429:5522   */\n      tag_228\n        /* \"#utility.yul\":5518:5521   */\n      dup3\n        /* \"#utility.yul\":5429:5522   */\n      tag_229\n      jump\t// in\n    tag_228:\n        /* \"#utility.yul\":5547:5549   */\n      0x40\n        /* \"#utility.yul\":5542:5545   */\n      dup3\n        /* \"#utility.yul\":5538:5550   */\n      add\n        /* \"#utility.yul\":5531:5550   */\n      swap1\n      pop\n        /* \"#utility.yul\":5190:5556   */\n      swap2\n      swap1\n      pop\n      jump\t// out\n        /* \"#utility.yul\":5562:5928   */\n    tag_230:\n        /* \"#utility.yul\":5704:5707   */\n      0x00\n        /* \"#utility.yul\":5725:5792   */\n      tag_232\n        /* \"#utility.yul\":5789:5791   */\n      0x20\n        /* \"#utility.yul\":5784:5787   */\n      dup4\n        /* \"#utility.yul\":5725:5792   */\n      tag_222\n      jump\t// in\n    tag_232:\n        /* \"#utility.yul\":5718:5792   */\n      swap2\n      pop\n        /* \"#utility.yul\":5801:5894   */\n      tag_233\n        /* \"#utility.yul\":5890:5893   */\n      dup3\n        /* \"#utility.yul\":5801:5894   */\n      tag_234\n      jump\t// in\n    tag_233:\n        /* \"#utility.yul\":5919:5921   */\n      0x20\n        /* \"#utility.yul\":5914:5917   */\n      dup3\n        /* \"#utility.yul\":5910:5922   */\n      add\n        /* \"#utility.yul\":5903:5922   */\n      swap1\n      pop\n        /* \"#utility.yul\":5562:5928   */\n      swap2\n      swap1\n      pop\n      jump\t// out\n        /* \"#utility.yul\":5934:6332   */\n    tag_235:\n        /* \"#utility.yul\":6093:6096   */\n      0x00\n        /* \"#utility.yul\":6114:6197   */\n      tag_237\n        /* \"#utility.yul\":6195:6196   */\n      0x00\n        /* \"#utility.yul\":6190:6193   */\n      dup4\n        /* \"#utility.yul\":6114:6197   */\n      tag_238\n      jump\t// in\n    tag_237:\n        /* \"#utility.yul\":6107:6197   */\n      swap2\n      pop\n        /* \"#utility.yul\":6206:6299   */\n      tag_239\n        /* \"#utility.yul\":6295:6298   */\n      dup3\n        /* \"#utility.yul\":6206:6299   */\n      tag_240\n      jump\t// in\n    tag_239:\n        /* \"#utility.yul\":6324:6325   */\n      0x00\n        /* \"#utility.yul\":6319:6322   */\n      dup3\n        /* \"#utility.yul\":6315:6326   */\n      add\n        /* \"#utility.yul\":6308:6326   */\n      swap1\n      pop\n        /* \"#utility.yul\":5934:6332   */\n      swap2\n      swap1\n      pop\n      jump\t// out\n        /* \"#utility.yul\":6338:6704   */\n    tag_241:\n        /* \"#utility.yul\":6480:6483   */\n      0x00\n        /* \"#utility.yul\":6501:6568   */\n      tag_243\n        /* \"#utility.yul\":6565:6567   */\n      0x16\n        /* \"#utility.yul\":6560:6563   */\n      dup4\n        /* \"#utility.yul\":6501:6568   */\n      tag_222\n      jump\t// in\n    tag_243:\n        /* \"#utility.yul\":6494:6568   */\n      swap2\n      pop\n        /* \"#utility.yul\":6577:6670   */\n      tag_244\n        /* \"#utility.yul\":6666:6669   */\n      dup3\n        /* \"#utility.yul\":6577:6670   */\n      tag_245\n      jump\t// in\n    tag_244:\n        /* \"#utility.yul\":6695:6697   */\n      0x20\n        /* \"#utility.yul\":6690:6693   */\n      dup3\n        /* \"#utility.yul\":6686:6698   */\n      add\n        /* \"#utility.yul\":6679:6698   */\n      swap1\n      pop\n        /* \"#utility.yul\":6338:6704   */\n      swap2\n      swap1\n      pop\n      jump\t// out\n        /* \"#utility.yul\":6710:7076   */\n    tag_246:\n        /* \"#utility.yul\":6852:6855   */\n      0x00\n        /* \"#utility.yul\":6873:6940   */\n      tag_248\n        /* \"#utility.yul\":6937:6939   */\n      0x1f\n        /* \"#utility.yul\":6932:6935   */\n      dup4\n        /* \"#utility.yul\":6873:6940   */\n      tag_222\n      jump\t// in\n    tag_248:\n        /* \"#utility.yul\":6866:6940   */\n      swap2\n      pop\n        /* \"#utility.yul\":6949:7042   */\n      tag_249\n        /* \"#utility.yul\":7038:7041   */\n      dup3\n        /* \"#utility.yul\":6949:7042   */\n      tag_250\n      jump\t// in\n    tag_249:\n        /* \"#utility.yul\":7067:7069   */\n      0x20\n        /* \"#utility.yul\":7062:7065   */\n      dup3\n        /* \"#utility.yul\":7058:7070   */\n      add\n        /* \"#utility.yul\":7051:7070   */\n      swap1\n      pop\n        /* \"#utility.yul\":6710:7076   */\n      swap2\n      swap1\n      pop\n      jump\t// out\n        /* \"#utility.yul\":7082:7200   */\n    tag_251:\n        /* \"#utility.yul\":7169:7193   */\n      tag_253\n        /* \"#utility.yul\":7187:7192   */\n      dup2\n        /* \"#utility.yul\":7169:7193   */\n      tag_254\n      jump\t// in\n    tag_253:\n        /* \"#utility.yul\":7164:7167   */\n      dup3\n        /* \"#utility.yul\":7157:7194   */\n      mstore\n        /* \"#utility.yul\":7082:7200   */\n      pop\n      pop\n      jump\t// out\n        /* \"#utility.yul\":7206:7585   */\n    tag_91:\n        /* \"#utility.yul\":7390:7393   */\n      0x00\n        /* \"#utility.yul\":7412:7559   */\n      tag_256\n        /* \"#utility.yul\":7555:7558   */\n      dup3\n        /* \"#utility.yul\":7412:7559   */\n      tag_235\n      jump\t// in\n    tag_256:\n        /* \"#utility.yul\":7405:7559   */\n      swap2\n      pop\n        /* \"#utility.yul\":7576:7579   */\n      dup2\n        /* \"#utility.yul\":7569:7579   */\n      swap1\n      pop\n        /* \"#utility.yul\":7206:7585   */\n      swap2\n      swap1\n      pop\n      jump\t// out\n        /* \"#utility.yul\":7591:7813   */\n    tag_20:\n        /* \"#utility.yul\":7684:7688   */\n      0x00\n        /* \"#utility.yul\":7722:7724   */\n      0x20\n        /* \"#utility.yul\":7711:7720   */\n      dup3\n        /* \"#utility.yul\":7707:7725   */\n      add\n        /* \"#utility.yul\":7699:7725   */\n      swap1\n      pop\n        /* \"#utility.yul\":7735:7806   */\n      tag_258\n        /* \"#utility.yul\":7803:7804   */\n      0x00\n        /* \"#utility.yul\":7792:7801   */\n      dup4\n        /* \"#utility.yul\":7788:7805   */\n      add\n        /* \"#utility.yul\":7779:7785   */\n      dup5\n        /* \"#utility.yul\":7735:7806   */\n      tag_211\n      jump\t// in\n    tag_258:\n        /* \"#utility.yul\":7591:7813   */\n      swap3\n      swap2\n      pop\n      pop\n      jump\t// out\n        /* \"#utility.yul\":7819:8261   */\n    tag_97:\n        /* \"#utility.yul\":7968:7972   */\n      0x00\n        /* \"#utility.yul\":8006:8008   */\n      0x60\n        /* \"#utility.yul\":7995:8004   */\n      dup3\n        /* \"#utility.yul\":7991:8009   */\n      add\n        /* \"#utility.yul\":7983:8009   */\n      swap1\n      pop\n        /* \"#utility.yul\":8019:8090   */\n      tag_260\n        /* \"#utility.yul\":8087:8088   */\n      0x00\n        /* \"#utility.yul\":8076:8085   */\n      dup4\n        /* \"#utility.yul\":8072:8089   */\n      add\n        /* \"#utility.yul\":8063:8069   */\n      dup7\n        /* \"#utility.yul\":8019:8090   */\n      tag_211\n      jump\t// in\n    tag_260:\n        /* \"#utility.yul\":8100:8172   */\n      tag_261\n        /* \"#utility.yul\":8168:8170   */\n      0x20\n        /* \"#utility.yul\":8157:8166   */\n      dup4\n        /* \"#utility.yul\":8153:8171   */\n      add\n        /* \"#utility.yul\":8144:8150   */\n      dup6\n        /* \"#utility.yul\":8100:8172   */\n      tag_211\n      jump\t// in\n    tag_261:\n        /* \"#utility.yul\":8182:8254   */\n      tag_262\n        /* \"#utility.yul\":8250:8252   */\n      0x40\n        /* \"#utility.yul\":8239:8248   */\n      dup4\n        /* \"#utility.yul\":8235:8253   */\n      add\n        /* \"#utility.yul\":8226:8232   */\n      dup5\n        /* \"#utility.yul\":8182:8254   */\n      tag_251\n      jump\t// in\n    tag_262:\n        /* \"#utility.yul\":7819:8261   */\n      swap5\n      swap4\n      pop\n      pop\n      pop\n      pop\n      jump\t// out\n        /* \"#utility.yul\":8267:8485   */\n    tag_41:\n        /* \"#utility.yul\":8358:8362   */\n      0x00\n        /* \"#utility.yul\":8396:8398   */\n      0x20\n        /* \"#utility.yul\":8385:8394   */\n      dup3\n        /* \"#utility.yul\":8381:8399   */\n      add\n        /* \"#utility.yul\":8373:8399   */\n      swap1\n      pop\n        /* \"#utility.yul\":8409:8478   */\n      tag_264\n        /* \"#utility.yul\":8475:8476   */\n      0x00\n        /* \"#utility.yul\":8464:8473   */\n      dup4\n        /* \"#utility.yul\":8460:8477   */\n      add\n        /* \"#utility.yul\":8451:8457   */\n      dup5\n        /* \"#utility.yul\":8409:8478   */\n      tag_215\n      jump\t// in\n    tag_264:\n        /* \"#utility.yul\":8267:8485   */\n      swap3\n      swap2\n      pop\n      pop\n      jump\t// out\n        /* \"#utility.yul\":8491:8910   */\n    tag_129:\n        /* \"#utility.yul\":8657:8661   */\n      0x00\n        /* \"#utility.yul\":8695:8697   */\n      0x20\n        /* \"#utility.yul\":8684:8693   */\n      dup3\n        /* \"#utility.yul\":8680:8698   */\n      add\n        /* \"#utility.yul\":8672:8698   */\n      swap1\n      pop\n        /* \"#utility.yul\":8744:8753   */\n      dup2\n        /* \"#utility.yul\":8738:8742   */\n      dup2\n        /* \"#utility.yul\":8734:8754   */\n      sub\n        /* \"#utility.yul\":8730:8731   */\n      0x00\n        /* \"#utility.yul\":8719:8728   */\n      dup4\n        /* \"#utility.yul\":8715:8732   */\n      add\n        /* \"#utility.yul\":8708:8755   */\n      mstore\n        /* \"#utility.yul\":8772:8903   */\n      tag_266\n        /* \"#utility.yul\":8898:8902   */\n      dup2\n        /* \"#utility.yul\":8772:8903   */\n      tag_219\n      jump\t// in\n    tag_266:\n        /* \"#utility.yul\":8764:8903   */\n      swap1\n      pop\n        /* \"#utility.yul\":8491:8910   */\n      swap2\n      swap1\n      pop\n      jump\t// out\n        /* \"#utility.yul\":8916:9335   */\n    tag_121:\n        /* \"#utility.yul\":9082:9086   */\n      0x00\n        /* \"#utility.yul\":9120:9122   */\n      0x20\n        /* \"#utility.yul\":9109:9118   */\n      dup3\n        /* \"#utility.yul\":9105:9123   */\n      add\n        /* \"#utility.yul\":9097:9123   */\n      swap1\n      pop\n        /* \"#utility.yul\":9169:9178   */\n      dup2\n        /* \"#utility.yul\":9163:9167   */\n      dup2\n        /* \"#utility.yul\":9159:9179   */\n      sub\n        /* \"#utility.yul\":9155:9156   */\n      0x00\n        /* \"#utility.yul\":9144:9153   */\n      dup4\n        /* \"#utility.yul\":9140:9157   */\n      add\n        /* \"#utility.yul\":9133:9180   */\n      mstore\n        /* \"#utility.yul\":9197:9328   */\n      tag_268\n        /* \"#utility.yul\":9323:9327   */\n      dup2\n        /* \"#utility.yul\":9197:9328   */\n      tag_225\n      jump\t// in\n    tag_268:\n        /* \"#utility.yul\":9189:9328   */\n      swap1\n      pop\n        /* \"#utility.yul\":8916:9335   */\n      swap2\n      swap1\n      pop\n      jump\t// out\n        /* \"#utility.yul\":9341:9760   */\n    tag_136:\n        /* \"#utility.yul\":9507:9511   */\n      0x00\n        /* \"#utility.yul\":9545:9547   */\n      0x20\n        /* \"#utility.yul\":9534:9543   */\n      dup3\n        /* \"#utility.yul\":9530:9548   */\n      add\n        /* \"#utility.yul\":9522:9548   */\n      swap1\n      pop\n        /* \"#utility.yul\":9594:9603   */\n      dup2\n        /* \"#utility.yul\":9588:9592   */\n      dup2\n        /* \"#utility.yul\":9584:9604   */\n      sub\n        /* \"#utility.yul\":9580:9581   */\n      0x00\n        /* \"#utility.yul\":9569:9578   */\n      dup4\n        /* \"#utility.yul\":9565:9582   */\n      add\n        /* \"#utility.yul\":9558:9605   */\n      mstore\n        /* \"#utility.yul\":9622:9753   */\n      tag_270\n        /* \"#utility.yul\":9748:9752   */\n      dup2\n        /* \"#utility.yul\":9622:9753   */\n      tag_230\n      jump\t// in\n    tag_270:\n        /* \"#utility.yul\":9614:9753   */\n      swap1\n      pop\n        /* \"#utility.yul\":9341:9760   */\n      swap2\n      swap1\n      pop\n      jump\t// out\n        /* \"#utility.yul\":9766:10185   */\n    tag_87:\n        /* \"#utility.yul\":9932:9936   */\n      0x00\n        /* \"#utility.yul\":9970:9972   */\n      0x20\n        /* \"#utility.yul\":9959:9968   */\n      dup3\n        /* \"#utility.yul\":9955:9973   */\n      add\n        /* \"#utility.yul\":9947:9973   */\n      swap1\n      pop\n        /* \"#utility.yul\":10019:10028   */\n      dup2\n        /* \"#utility.yul\":10013:10017   */\n      dup2\n        /* \"#utility.yul\":10009:10029   */\n      sub\n        /* \"#utility.yul\":10005:10006   */\n      0x00\n        /* \"#utility.yul\":9994:10003   */\n      dup4\n        /* \"#utility.yul\":9990:10007   */\n      add\n        /* \"#utility.yul\":9983:10030   */\n      mstore\n        /* \"#utility.yul\":10047:10178   */\n      tag_272\n        /* \"#utility.yul\":10173:10177   */\n      dup2\n        /* \"#utility.yul\":10047:10178   */\n      tag_241\n      jump\t// in\n    tag_272:\n        /* \"#utility.yul\":10039:10178   */\n      swap1\n      pop\n        /* \"#utility.yul\":9766:10185   */\n      swap2\n      swap1\n      pop\n      jump\t// out\n        /* \"#utility.yul\":10191:10610   */\n    tag_83:\n        /* \"#utility.yul\":10357:10361   */\n      0x00\n        /* \"#utility.yul\":10395:10397   */\n      0x20\n        /* \"#utility.yul\":10384:10393   */\n      dup3\n        /* \"#utility.yul\":10380:10398   */\n      add\n        /* \"#utility.yul\":10372:10398   */\n      swap1\n      pop\n        /* \"#utility.yul\":10444:10453   */\n      dup2\n        /* \"#utility.yul\":10438:10442   */\n      dup2\n        /* \"#utility.yul\":10434:10454   */\n      sub\n        /* \"#utility.yul\":10430:10431   */\n      0x00\n        /* \"#utility.yul\":10419:10428   */\n      dup4\n        /* \"#utility.yul\":10415:10432   */\n      add\n        /* \"#utility.yul\":10408:10455   */\n      mstore\n        /* \"#utility.yul\":10472:10603   */\n      tag_274\n        /* \"#utility.yul\":10598:10602   */\n      dup2\n        /* \"#utility.yul\":10472:10603   */\n      tag_246\n      jump\t// in\n    tag_274:\n        /* \"#utility.yul\":10464:10603   */\n      swap1\n      pop\n        /* \"#utility.yul\":10191:10610   */\n      swap2\n      swap1\n      pop\n      jump\t// out\n        /* \"#utility.yul\":10616:10838   */\n    tag_73:\n        /* \"#utility.yul\":10709:10713   */\n      0x00\n        /* \"#utility.yul\":10747:10749   */\n      0x20\n        /* \"#utility.yul\":10736:10745   */\n      dup3\n        /* \"#utility.yul\":10732:10750   */\n      add\n        /* \"#utility.yul\":10724:10750   */\n      swap1\n      pop\n        /* \"#utility.yul\":10760:10831   */\n      tag_276\n        /* \"#utility.yul\":10828:10829   */\n      0x00\n        /* \"#utility.yul\":10817:10826   */\n      dup4\n        /* \"#utility.yul\":10813:10830   */\n      add\n        /* \"#utility.yul\":10804:10810   */\n      dup5\n        /* \"#utility.yul\":10760:10831   */\n      tag_251\n      jump\t// in\n    tag_276:\n        /* \"#utility.yul\":10616:10838   */\n      swap3\n      swap2\n      pop\n      pop\n      jump\t// out\n        /* \"#utility.yul\":10844:10973   */\n    tag_146:\n        /* \"#utility.yul\":10878:10884   */\n      0x00\n        /* \"#utility.yul\":10905:10925   */\n      tag_278\n      tag_279\n      jump\t// in\n    tag_278:\n        /* \"#utility.yul\":10895:10925   */\n      swap1\n      pop\n        /* \"#utility.yul\":10934:10967   */\n      tag_280\n        /* \"#utility.yul\":10962:10966   */\n      dup3\n        /* \"#utility.yul\":10954:10960   */\n      dup3\n        /* \"#utility.yul\":10934:10967   */\n      tag_281\n      jump\t// in\n    tag_280:\n        /* \"#utility.yul\":10844:10973   */\n      swap2\n      swap1\n      pop\n      jump\t// out\n        /* \"#utility.yul\":10979:11054   */\n    tag_279:\n        /* \"#utility.yul\":11012:11018   */\n      0x00\n        /* \"#utility.yul\":11045:11047   */\n      0x40\n        /* \"#utility.yul\":11039:11048   */\n      mload\n        /* \"#utility.yul\":11029:11048   */\n      swap1\n      pop\n        /* \"#utility.yul\":10979:11054   */\n      swap1\n      jump\t// out\n        /* \"#utility.yul\":11060:11371   */\n    tag_145:\n        /* \"#utility.yul\":11137:11141   */\n      0x00\n        /* \"#utility.yul\":11227:11245   */\n      0xffffffffffffffff\n        /* \"#utility.yul\":11219:11225   */\n      dup3\n        /* \"#utility.yul\":11216:11246   */\n      gt\n        /* \"#utility.yul\":11213:11269   */\n      iszero\n      tag_284\n      jumpi\n        /* \"#utility.yul\":11249:11267   */\n      tag_285\n      tag_286\n      jump\t// in\n    tag_285:\n        /* \"#utility.yul\":11213:11269   */\n    tag_284:\n        /* \"#utility.yul\":11299:11303   */\n      0x20\n        /* \"#utility.yul\":11291:11297   */\n      dup3\n        /* \"#utility.yul\":11287:11304   */\n      mul\n        /* \"#utility.yul\":11279:11304   */\n      swap1\n      pop\n        /* \"#utility.yul\":11359:11363   */\n      0x20\n        /* \"#utility.yul\":11353:11357   */\n      dup2\n        /* \"#utility.yul\":11349:11364   */\n      add\n        /* \"#utility.yul\":11341:11364   */\n      swap1\n      pop\n        /* \"#utility.yul\":11060:11371   */\n      swap2\n      swap1\n      pop\n      jump\t// out\n        /* \"#utility.yul\":11377:11684   */\n    tag_159:\n        /* \"#utility.yul\":11438:11442   */\n      0x00\n        /* \"#utility.yul\":11528:11546   */\n      0xffffffffffffffff\n        /* \"#utility.yul\":11520:11526   */\n      dup3\n        /* \"#utility.yul\":11517:11547   */\n      gt\n        /* \"#utility.yul\":11514:11570   */\n      iszero\n      tag_288\n      jumpi\n        /* \"#utility.yul\":11550:11568   */\n      tag_289\n      tag_286\n      jump\t// in\n    tag_289:\n        /* \"#utility.yul\":11514:11570   */\n    tag_288:\n        /* \"#utility.yul\":11588:11617   */\n      tag_290\n        /* \"#utility.yul\":11610:11616   */\n      dup3\n        /* \"#utility.yul\":11588:11617   */\n      tag_291\n      jump\t// in\n    tag_290:\n        /* \"#utility.yul\":11580:11617   */\n      swap1\n      pop\n        /* \"#utility.yul\":11672:11676   */\n      0x20\n        /* \"#utility.yul\":11666:11670   */\n      dup2\n        /* \"#utility.yul\":11662:11677   */\n      add\n        /* \"#utility.yul\":11654:11677   */\n      swap1\n      pop\n        /* \"#utility.yul\":11377:11684   */\n      swap2\n      swap1\n      pop\n      jump\t// out\n        /* \"#utility.yul\":11690:11837   */\n    tag_238:\n        /* \"#utility.yul\":11791:11802   */\n      0x00\n        /* \"#utility.yul\":11828:11831   */\n      dup2\n        /* \"#utility.yul\":11813:11831   */\n      swap1\n      pop\n        /* \"#utility.yul\":11690:11837   */\n      swap3\n      swap2\n      pop\n      pop\n      jump\t// out\n        /* \"#utility.yul\":11843:12012   */\n    tag_222:\n        /* \"#utility.yul\":11927:11938   */\n      0x00\n        /* \"#utility.yul\":11961:11967   */\n      dup3\n        /* \"#utility.yul\":11956:11959   */\n      dup3\n        /* \"#utility.yul\":11949:11968   */\n      mstore\n        /* \"#utility.yul\":12001:12005   */\n      0x20\n        /* \"#utility.yul\":11996:11999   */\n      dup3\n        /* \"#utility.yul\":11992:12006   */\n      add\n        /* \"#utility.yul\":11977:12006   */\n      swap1\n      pop\n        /* \"#utility.yul\":11843:12012   */\n      swap3\n      swap2\n      pop\n      pop\n      jump\t// out\n        /* \"#utility.yul\":12018:12323   */\n    tag_34:\n        /* \"#utility.yul\":12058:12061   */\n      0x00\n        /* \"#utility.yul\":12077:12097   */\n      tag_295\n        /* \"#utility.yul\":12095:12096   */\n      dup3\n        /* \"#utility.yul\":12077:12097   */\n      tag_254\n      jump\t// in\n    tag_295:\n        /* \"#utility.yul\":12072:12097   */\n      swap2\n      pop\n        /* \"#utility.yul\":12111:12131   */\n      tag_296\n        /* \"#utility.yul\":12129:12130   */\n      dup4\n        /* \"#utility.yul\":12111:12131   */\n      tag_254\n      jump\t// in\n    tag_296:\n        /* \"#utility.yul\":12106:12131   */\n      swap3\n      pop\n        /* \"#utility.yul\":12265:12266   */\n      dup3\n        /* \"#utility.yul\":12197:12263   */\n      0xffffffffffffffffffffffffffffffffffffffffffffffffffffffffffffffff\n        /* \"#utility.yul\":12193:12267   */\n      sub\n        /* \"#utility.yul\":12190:12191   */\n      dup3\n        /* \"#utility.yul\":12187:12268   */\n      gt\n        /* \"#utility.yul\":12184:12291   */\n      iszero\n      tag_297\n      jumpi\n        /* \"#utility.yul\":12271:12289   */\n      tag_298\n      tag_299\n      jump\t// in\n    tag_298:\n        /* \"#utility.yul\":12184:12291   */\n    tag_297:\n        /* \"#utility.yul\":12315:12316   */\n      dup3\n        /* \"#utility.yul\":12312:12313   */\n      dup3\n        /* \"#utility.yul\":12308:12317   */\n      add\n        /* \"#utility.yul\":12301:12317   */\n      swap1\n      pop\n        /* \"#utility.yul\":12018:12323   */\n      swap3\n      swap2\n      pop\n      pop\n      jump\t// out\n        /* \"#utility.yul\":12329:12514   */\n    tag_18:\n        /* \"#utility.yul\":12369:12370   */\n      0x00\n        /* \"#utility.yul\":12386:12406   */\n      tag_301\n        /* \"#utility.yul\":12404:12405   */\n      dup3\n        /* \"#utility.yul\":12386:12406   */\n      tag_254\n      jump\t// in\n    tag_301:\n        /* \"#utility.yul\":12381:12406   */\n      swap2\n      pop\n        /* \"#utility.yul\":12420:12440   */\n      tag_302\n        /* \"#utility.yul\":12438:12439   */\n      dup4\n        /* \"#utility.yul\":12420:12440   */\n      tag_254\n      jump\t// in\n    tag_302:\n        /* \"#utility.yul\":12415:12440   */\n      swap3\n      pop\n        /* \"#utility.yul\":12459:12460   */\n      dup3\n        /* \"#utility.yul\":12449:12484   */\n      tag_303\n      jumpi\n        /* \"#utility.yul\":12464:12482   */\n      tag_304\n      tag_305\n      jump\t// in\n    tag_304:\n        /* \"#utility.yul\":12449:12484   */\n    tag_303:\n        /* \"#utility.yul\":12506:12507   */\n      dup3\n        /* \"#utility.yul\":12503:12504   */\n      dup3\n        /* \"#utility.yul\":12499:12508   */\n      div\n        /* \"#utility.yul\":12494:12508   */\n      swap1\n      pop\n        /* \"#utility.yul\":12329:12514   */\n      swap3\n      swap2\n      pop\n      pop\n      jump\t// out\n        /* \"#utility.yul\":12520:12616   */\n    tag_214:\n        /* \"#utility.yul\":12557:12564   */\n      0x00\n        /* \"#utility.yul\":12586:12610   */\n      tag_307\n        /* \"#utility.yul\":12604:12609   */\n      dup3\n        /* \"#utility.yul\":12586:12610   */\n      tag_308\n      jump\t// in\n    tag_307:\n        /* \"#utility.yul\":12575:12610   */\n      swap1\n      pop\n        /* \"#utility.yul\":12520:12616   */\n      swap2\n      swap1\n      pop\n      jump\t// out\n        /* \"#utility.yul\":12622:12771   */\n    tag_218:\n        /* \"#utility.yul\":12658:12665   */\n      0x00\n        /* \"#utility.yul\":12698:12764   */\n      0xffffffff00000000000000000000000000000000000000000000000000000000\n        /* \"#utility.yul\":12691:12696   */\n      dup3\n        /* \"#utility.yul\":12687:12765   */\n      and\n        /* \"#utility.yul\":12676:12765   */\n      swap1\n      pop\n        /* \"#utility.yul\":12622:12771   */\n      swap2\n      swap1\n      pop\n      jump\t// out\n        /* \"#utility.yul\":12777:12903   */\n    tag_308:\n        /* \"#utility.yul\":12814:12821   */\n      0x00\n        /* \"#utility.yul\":12854:12896   */\n      0xffffffffffffffffffffffffffffffffffffffff\n        /* \"#utility.yul\":12847:12852   */\n      dup3\n        /* \"#utility.yul\":12843:12897   */\n      and\n        /* \"#utility.yul\":12832:12897   */\n      swap1\n      pop\n        /* \"#utility.yul\":12777:12903   */\n      swap2\n      swap1\n      pop\n      jump\t// out\n        /* \"#utility.yul\":12909:12986   */\n    tag_254:\n        /* \"#utility.yul\":12946:12953   */\n      0x00\n        /* \"#utility.yul\":12975:12980   */\n      dup2\n        /* \"#utility.yul\":12964:12980   */\n      swap1\n      pop\n        /* \"#utility.yul\":12909:12986   */\n      swap2\n      swap1\n      pop\n      jump\t// out\n        /* \"#utility.yul\":12992:13146   */\n    tag_164:\n        /* \"#utility.yul\":13076:13082   */\n      dup3\n        /* \"#utility.yul\":13071:13074   */\n      dup2\n        /* \"#utility.yul\":13066:13069   */\n      dup4\n        /* \"#utility.yul\":13053:13083   */\n      calldatacopy\n        /* \"#utility.yul\":13138:13139   */\n      0x00\n        /* \"#utility.yul\":13129:13135   */\n      dup4\n        /* \"#utility.yul\":13124:13127   */\n      dup4\n        /* \"#utility.yul\":13120:13136   */\n      add\n        /* \"#utility.yul\":13113:13140   */\n      mstore\n        /* \"#utility.yul\":12992:13146   */\n      pop\n      pop\n      pop\n      jump\t// out\n        /* \"#utility.yul\":13152:13433   */\n    tag_281:\n        /* \"#utility.yul\":13235:13262   */\n      tag_314\n        /* \"#utility.yul\":13257:13261   */\n      dup3\n        /* \"#utility.yul\":13235:13262   */\n      tag_291\n      jump\t// in\n    tag_314:\n        /* \"#utility.yul\":13227:13233   */\n      dup2\n        /* \"#utility.yul\":13223:13263   */\n      add\n        /* \"#utility.yul\":13365:13371   */\n      dup2\n        /* \"#utility.yul\":13353:13363   */\n      dup2\n        /* \"#utility.yul\":13350:13372   */\n      lt\n        /* \"#utility.yul\":13329:13347   */\n      0xffffffffffffffff\n        /* \"#utility.yul\":13317:13327   */\n      dup3\n        /* \"#utility.yul\":13314:13348   */\n      gt\n        /* \"#utility.yul\":13311:13373   */\n      or\n        /* \"#utility.yul\":13308:13396   */\n      iszero\n      tag_315\n      jumpi\n        /* \"#utility.yul\":13376:13394   */\n      tag_316\n      tag_286\n      jump\t// in\n    tag_316:\n        /* \"#utility.yul\":13308:13396   */\n    tag_315:\n        /* \"#utility.yul\":13416:13426   */\n      dup1\n        /* \"#utility.yul\":13412:13414   */\n      0x40\n        /* \"#utility.yul\":13405:13427   */\n      mstore\n        /* \"#utility.yul\":13195:13433   */\n      pop\n        /* \"#utility.yul\":13152:13433   */\n      pop\n      pop\n      jump\t// out\n        /* \"#utility.yul\":13439:13619   */\n    tag_299:\n        /* \"#utility.yul\":13487:13564   */\n      0x4e487b7100000000000000000000000000000000000000000000000000000000\n        /* \"#utility.yul\":13484:13485   */\n      0x00\n        /* \"#utility.yul\":13477:13565   */\n      mstore\n        /* \"#utility.yul\":13584:13588   */\n      0x11\n        /* \"#utility.yul\":13581:13582   */\n      0x04\n        /* \"#utility.yul\":13574:13589   */\n      mstore\n        /* \"#utility.yul\":13608:13612   */\n      0x24\n        /* \"#utility.yul\":13605:13606   */\n      0x00\n        /* \"#utility.yul\":13598:13613   */\n      revert\n        /* \"#utility.yul\":13625:13805   */\n    tag_305:\n        /* \"#utility.yul\":13673:13750   */\n      0x4e487b7100000000000000000000000000000000000000000000000000000000\n        /* \"#utility.yul\":13670:13671   */\n      0x00\n        /* \"#utility.yul\":13663:13751   */\n      mstore\n        /* \"#utility.yul\":13770:13774   */\n      0x12\n        /* \"#utility.yul\":13767:13768   */\n      0x04\n        /* \"#utility.yul\":13760:13775   */\n      mstore\n        /* \"#utility.yul\":13794:13798   */\n      0x24\n        /* \"#utility.yul\":13791:13792   */\n      0x00\n        /* \"#utility.yul\":13784:13799   */\n      revert\n        /* \"#utility.yul\":13811:13991   */\n    tag_31:\n        /* \"#utility.yul\":13859:13936   */\n      0x4e487b7100000000000000000000000000000000000000000000000000000000\n        /* \"#utility.yul\":13856:13857   */\n      0x00\n        /* \"#utility.yul\":13849:13937   */\n      mstore\n        /* \"#utility.yul\":13956:13960   */\n      0x32\n        /* \"#utility.yul\":13953:13954   */\n      0x04\n        /* \"#utility.yul\":13946:13961   */\n      mstore\n        /* \"#utility.yul\":13980:13984   */\n      0x24\n        /* \"#utility.yul\":13977:13978   */\n      0x00\n        /* \"#utility.yul\":13970:13985   */\n      revert\n        /* \"#utility.yul\":13997:14177   */\n    tag_286:\n        /* \"#utility.yul\":14045:14122   */\n      0x4e487b7100000000000000000000000000000000000000000000000000000000\n        /* \"#utility.yul\":14042:14043   */\n      0x00\n        /* \"#utility.yul\":14035:14123   */\n      mstore\n        /* \"#utility.yul\":14142:14146   */\n      0x41\n        /* \"#utility.yul\":14139:14140   */\n      0x04\n        /* \"#utility.yul\":14132:14147   */\n      mstore\n        /* \"#utility.yul\":14166:14170   */\n      0x24\n        /* \"#utility.yul\":14163:14164   */\n      0x00\n        /* \"#utility.yul\":14156:14171   */\n      revert\n        /* \"#utility.yul\":14183:14300   */\n    tag_173:\n        /* \"#utility.yul\":14292:14293   */\n      0x00\n        /* \"#utility.yul\":14289:14290   */\n      dup1\n        /* \"#utility.yul\":14282:14294   */\n      revert\n        /* \"#utility.yul\":14306:14423   */\n    tag_149:\n        /* \"#utility.yul\":14415:14416   */\n      0x00\n        /* \"#utility.yul\":14412:14413   */\n      dup1\n        /* \"#utility.yul\":14405:14417   */\n      revert\n        /* \"#utility.yul\":14429:14546   */\n    tag_162:\n        /* \"#utility.yul\":14538:14539   */\n      0x00\n        /* \"#utility.yul\":14535:14536   */\n      dup1\n        /* \"#utility.yul\":14528:14540   */\n      revert\n        /* \"#utility.yul\":14552:14669   */\n    tag_199:\n        /* \"#utility.yul\":14661:14662   */\n      0x00\n        /* \"#utility.yul\":14658:14659   */\n      dup1\n        /* \"#utility.yul\":14651:14663   */\n      revert\n        /* \"#utility.yul\":14675:14792   */\n    tag_189:\n        /* \"#utility.yul\":14784:14785   */\n      0x00\n        /* \"#utility.yul\":14781:14782   */\n      dup1\n        /* \"#utility.yul\":14774:14786   */\n      revert\n        /* \"#utility.yul\":14798:14900   */\n    tag_291:\n        /* \"#utility.yul\":14839:14845   */\n      0x00\n        /* \"#utility.yul\":14890:14892   */\n      0x1f\n        /* \"#utility.yul\":14886:14893   */\n      not\n        /* \"#utility.yul\":14881:14883   */\n      0x1f\n        /* \"#utility.yul\":14874:14879   */\n      dup4\n        /* \"#utility.yul\":14870:14884   */\n      add\n        /* \"#utility.yul\":14866:14894   */\n      and\n        /* \"#utility.yul\":14856:14894   */\n      swap1\n      pop\n        /* \"#utility.yul\":14798:14900   */\n      swap2\n      swap1\n      pop\n      jump\t// out\n        /* \"#utility.yul\":14906:15083   */\n    tag_224:\n        /* \"#utility.yul\":15046:15075   */\n      0x436f756e7465723a2064656372656d656e74206f766572666c6f770000000000\n        /* \"#utility.yul\":15042:15043   */\n      0x00\n        /* \"#utility.yul\":15034:15040   */\n      dup3\n        /* \"#utility.yul\":15030:15044   */\n      add\n        /* \"#utility.yul\":15023:15076   */\n      mstore\n        /* \"#utility.yul\":14906:15083   */\n      pop\n      jump\t// out\n        /* \"#utility.yul\":15089:15314   */\n    tag_229:\n        /* \"#utility.yul\":15229:15263   */\n      0x4f776e61626c653a206e6577206f776e657220697320746865207a65726f2061\n        /* \"#utility.yul\":15225:15226   */\n      0x00\n        /* \"#utility.yul\":15217:15223   */\n      dup3\n        /* \"#utility.yul\":15213:15227   */\n      add\n        /* \"#utility.yul\":15206:15264   */\n      mstore\n        /* \"#utility.yul\":15298:15306   */\n      0x6464726573730000000000000000000000000000000000000000000000000000\n        /* \"#utility.yul\":15293:15295   */\n      0x20\n        /* \"#utility.yul\":15285:15291   */\n      dup3\n        /* \"#utility.yul\":15281:15296   */\n      add\n        /* \"#utility.yul\":15274:15307   */\n      mstore\n        /* \"#utility.yul\":15089:15314   */\n      pop\n      jump\t// out\n        /* \"#utility.yul\":15320:15502   */\n    tag_234:\n        /* \"#utility.yul\":15460:15494   */\n      0x4f776e61626c653a2063616c6c6572206973206e6f7420746865206f776e6572\n        /* \"#utility.yul\":15456:15457   */\n      0x00\n        /* \"#utility.yul\":15448:15454   */\n      dup3\n        /* \"#utility.yul\":15444:15458   */\n      add\n        /* \"#utility.yul\":15437:15495   */\n      mstore\n        /* \"#utility.yul\":15320:15502   */\n      pop\n      jump\t// out\n        /* \"#utility.yul\":15508:15622   */\n    tag_240:\n      pop\n      jump\t// out\n        /* \"#utility.yul\":15628:15800   */\n    tag_245:\n        /* \"#utility.yul\":15768:15792   */\n      0x596f7520617265206e6f7420746865206f776e65722e00000000000000000000\n        /* \"#utility.yul\":15764:15765   */\n      0x00\n        /* \"#utility.yul\":15756:15762   */\n      dup3\n        /* \"#utility.yul\":15752:15766   */\n      add\n        /* \"#utility.yul\":15745:15793   */\n      mstore\n        /* \"#utility.yul\":15628:15800   */\n      pop\n      jump\t// out\n        /* \"#utility.yul\":15806:15987   */\n    tag_250:\n        /* \"#utility.yul\":15946:15979   */\n      0x5265656e7472616e637947756172643a207265656e7472616e742063616c6c00\n        /* \"#utility.yul\":15942:15943   */\n      0x00\n        /* \"#utility.yul\":15934:15940   */\n      dup3\n        /* \"#utility.yul\":15930:15944   */\n      add\n        /* \"#utility.yul\":15923:15980   */\n      mstore\n        /* \"#utility.yul\":15806:15987   */\n      pop\n      jump\t// out\n        /* \"#utility.yul\":15993:16115   */\n    tag_168:\n        /* \"#utility.yul\":16066:16090   */\n      tag_334\n        /* \"#utility.yul\":16084:16089   */\n      dup2\n        /* \"#utility.yul\":16066:16090   */\n      tag_214\n      jump\t// in\n    tag_334:\n        /* \"#utility.yul\":16059:16064   */\n      dup2\n        /* \"#utility.yul\":16056:16091   */\n      eq\n        /* \"#utility.yul\":16046:16109   */\n      tag_335\n      jumpi\n        /* \"#utility.yul\":16105:16106   */\n      0x00\n        /* \"#utility.yul\":16102:16103   */\n      dup1\n        /* \"#utility.yul\":16095:16107   */\n      revert\n        /* \"#utility.yul\":16046:16109   */\n    tag_335:\n        /* \"#utility.yul\":15993:16115   */\n      pop\n      jump\t// out\n        /* \"#utility.yul\":16121:16243   */\n    tag_183:\n        /* \"#utility.yul\":16194:16218   */\n      tag_337\n        /* \"#utility.yul\":16212:16217   */\n      dup2\n        /* \"#utility.yul\":16194:16218   */\n      tag_254\n      jump\t// in\n    tag_337:\n        /* \"#utility.yul\":16187:16192   */\n      dup2\n        /* \"#utility.yul\":16184:16219   */\n      eq\n        /* \"#utility.yul\":16174:16237   */\n      tag_338\n      jumpi\n        /* \"#utility.yul\":16233:16234   */\n      0x00\n        /* \"#utility.yul\":16230:16231   */\n      dup1\n        /* \"#utility.yul\":16223:16235   */\n      revert\n        /* \"#utility.yul\":16174:16237   */\n    tag_338:\n        /* \"#utility.yul\":16121:16243   */\n      pop\n      jump\t// out\n\n    auxdata: 0xa26469706673582212201e9798068de73a76c482597cb6c54d8ed22cefde7e562e8aa13b45ea5191eed364736f6c63430008070033\n}\n",
				"bytecode": {
					"linkReferences": {},
					"object": "60806040523480156200001157600080fd5b506040516200151238038062001512833981810160405281019062000037919062000189565b620000576200004b620000a660201b60201c565b620000ae60201b60201c565b6001808190555080600260006101000a81548173ffffffffffffffffffffffffffffffffffffffff021916908373ffffffffffffffffffffffffffffffffffffffff160217905550506200020e565b600033905090565b60008060009054906101000a900473ffffffffffffffffffffffffffffffffffffffff169050816000806101000a81548173ffffffffffffffffffffffffffffffffffffffff021916908373ffffffffffffffffffffffffffffffffffffffff1602179055508173ffffffffffffffffffffffffffffffffffffffff168173ffffffffffffffffffffffffffffffffffffffff167f8be0079c531659141344cd1fd0a4f28419497f9722a3daafe3b4186f6b6457e060405160405180910390a35050565b6000815190506200018381620001f4565b92915050565b600060208284031215620001a257620001a1620001ef565b5b6000620001b28482850162000172565b91505092915050565b6000620001c882620001cf565b9050919050565b600073ffffffffffffffffffffffffffffffffffffffff82169050919050565b600080fd5b620001ff81620001bb565b81146200020b57600080fd5b50565b6112f4806200021e6000396000f3fe60806040526004361061008a5760003560e01c80638da5cb5b116100595780638da5cb5b1461027f578063a694fc3a146102aa578063f2fde38b146102d3578063f301af42146102fc578063fd71c65014610339576101c0565b8063150b7a02146101c55780632e17de7814610202578063715018a61461022b5780638488cc4114610242576101c0565b366101c057600061009b6003610362565b346100a69190610fdb565b90506000600260009054906101000a900473ffffffffffffffffffffffffffffffffffffffff1673ffffffffffffffffffffffffffffffffffffffff1663438b6300306040518263ffffffff1660e01b81526004016101059190610dbf565b60006040518083038186803b15801561011d57600080fd5b505afa158015610131573d6000803e3d6000fd5b505050506040513d6000823e3d601f19601f8201168201806040525081019061015a9190610c35565b905060005b81518110156101bb5782600560006006848154811061018157610180611112565b5b9060005260206000200154815260200190815260200160002060008282546101a99190610f85565b9250508190555080600101905061015f565b505050005b600080fd5b3480156101d157600080fd5b506101ec60048036038101906101e79190610bb2565b610370565b6040516101f99190610e11565b60405180910390f35b34801561020e57600080fd5b5061022960048036038101906102249190610c7e565b610384565b005b34801561023757600080fd5b5061024061060b565b005b34801561024e57600080fd5b5061026960048036038101906102649190610c7e565b61061f565b6040516102769190610dbf565b60405180910390f35b34801561028b57600080fd5b50610294610652565b6040516102a19190610dbf565b60405180910390f35b3480156102b657600080fd5b506102d160048036038101906102cc9190610c7e565b61067b565b005b3480156102df57600080fd5b506102fa60048036038101906102f59190610b85565b610794565b005b34801561030857600080fd5b50610323600480360381019061031e9190610c7e565b610818565b6040516103309190610ecc565b60405180910390f35b34801561034557600080fd5b50610360600480360381019061035b9190610b85565b610830565b005b600081600001549050919050565b600063150b7a0260e01b9050949350505050565b600260015414156103ca576040517f08c379a00000000000000000000000000000000000000000000000000000000081526004016103c190610eac565b60405180910390fd5b60026001819055503373ffffffffffffffffffffffffffffffffffffffff166004600083815260200190815260200160002060009054906101000a900473ffffffffffffffffffffffffffffffffffffffff1673ffffffffffffffffffffffffffffffffffffffff1614610473576040517f08c379a000000000000000000000000000000000000000000000000000000000815260040161046a90610e8c565b60405180910390fd5b6004600082815260200190815260200160002060006101000a81549073ffffffffffffffffffffffffffffffffffffffff02191690556104b3600361087c565b60006004600083815260200190815260200160002060009054906101000a900473ffffffffffffffffffffffffffffffffffffffff1673ffffffffffffffffffffffffffffffffffffffff16600560008481526020019081526020016000205460405161051f90610daa565b60006040518083038185875af1925050503d806000811461055c576040519150601f19603f3d011682016040523d82523d6000602084013e610561565b606091505b505090508061056f57600080fd5b600260009054906101000a900473ffffffffffffffffffffffffffffffffffffffff1673ffffffffffffffffffffffffffffffffffffffff166342842e0e3033856040518463ffffffff1660e01b81526004016105ce93929190610dda565b600060405180830381600087803b1580156105e857600080fd5b505af11580156105fc573d6000803e3d6000fd5b50505050506001808190555050565b6106136108d8565b61061d6000610956565b565b60046020528060005260406000206000915054906101000a900473ffffffffffffffffffffffffffffffffffffffff1681565b60008060009054906101000a900473ffffffffffffffffffffffffffffffffffffffff16905090565b600260009054906101000a900473ffffffffffffffffffffffffffffffffffffffff1673ffffffffffffffffffffffffffffffffffffffff166342842e0e3330846040518463ffffffff1660e01b81526004016106da93929190610dda565b600060405180830381600087803b1580156106f457600080fd5b505af1158015610708573d6000803e3d6000fd5b50505050336004600083815260200190815260200160002060006101000a81548173ffffffffffffffffffffffffffffffffffffffff021916908373ffffffffffffffffffffffffffffffffffffffff16021790555060068190806001815401808255809150506001900390600052602060002001600090919091909150556107916003610a1a565b50565b61079c6108d8565b600073ffffffffffffffffffffffffffffffffffffffff168173ffffffffffffffffffffffffffffffffffffffff16141561080c576040517f08c379a000000000000000000000000000000000000000000000000000000000815260040161080390610e4c565b60405180910390fd5b61081581610956565b50565b60056020528060005260406000206000915090505481565b6108386108d8565b80600260006101000a81548173ffffffffffffffffffffffffffffffffffffffff021916908373ffffffffffffffffffffffffffffffffffffffff16021790555050565b600081600001549050600081116108c8576040517f08c379a00000000000000000000000000000000000000000000000000000000081526004016108bf90610e2c565b60405180910390fd5b6001810382600001819055505050565b6108e0610a30565b73ffffffffffffffffffffffffffffffffffffffff166108fe610652565b73ffffffffffffffffffffffffffffffffffffffff1614610954576040517f08c379a000000000000000000000000000000000000000000000000000000000815260040161094b90610e6c565b60405180910390fd5b565b60008060009054906101000a900473ffffffffffffffffffffffffffffffffffffffff169050816000806101000a81548173ffffffffffffffffffffffffffffffffffffffff021916908373ffffffffffffffffffffffffffffffffffffffff1602179055508173ffffffffffffffffffffffffffffffffffffffff168173ffffffffffffffffffffffffffffffffffffffff167f8be0079c531659141344cd1fd0a4f28419497f9722a3daafe3b4186f6b6457e060405160405180910390a35050565b6001816000016000828254019250508190555050565b600033905090565b6000610a4b610a4684610f0c565b610ee7565b90508083825260208201905082856020860282011115610a6e57610a6d611175565b5b60005b85811015610a9e5781610a848882610b70565b845260208401935060208301925050600181019050610a71565b5050509392505050565b6000610abb610ab684610f38565b610ee7565b905082815260208101848484011115610ad757610ad661117a565b5b610ae2848285611074565b509392505050565b600081359050610af981611290565b92915050565b600082601f830112610b1457610b13611170565b5b8151610b24848260208601610a38565b91505092915050565b600082601f830112610b4257610b41611170565b5b8135610b52848260208601610aa8565b91505092915050565b600081359050610b6a816112a7565b92915050565b600081519050610b7f816112a7565b92915050565b600060208284031215610b9b57610b9a611184565b5b6000610ba984828501610aea565b91505092915050565b60008060008060808587031215610bcc57610bcb611184565b5b6000610bda87828801610aea565b9450506020610beb87828801610aea565b9350506040610bfc87828801610b5b565b925050606085013567ffffffffffffffff811115610c1d57610c1c61117f565b5b610c2987828801610b2d565b91505092959194509250565b600060208284031215610c4b57610c4a611184565b5b600082015167ffffffffffffffff811115610c6957610c6861117f565b5b610c7584828501610aff565b91505092915050565b600060208284031215610c9457610c93611184565b5b6000610ca284828501610b5b565b91505092915050565b610cb48161100c565b82525050565b610cc38161101e565b82525050565b6000610cd6601b83610f74565b9150610ce18261119a565b602082019050919050565b6000610cf9602683610f74565b9150610d04826111c3565b604082019050919050565b6000610d1c602083610f74565b9150610d2782611212565b602082019050919050565b6000610d3f600083610f69565b9150610d4a8261123b565b600082019050919050565b6000610d62601683610f74565b9150610d6d8261123e565b602082019050919050565b6000610d85601f83610f74565b9150610d9082611267565b602082019050919050565b610da48161106a565b82525050565b6000610db582610d32565b9150819050919050565b6000602082019050610dd46000830184610cab565b92915050565b6000606082019050610def6000830186610cab565b610dfc6020830185610cab565b610e096040830184610d9b565b949350505050565b6000602082019050610e266000830184610cba565b92915050565b60006020820190508181036000830152610e4581610cc9565b9050919050565b60006020820190508181036000830152610e6581610cec565b9050919050565b60006020820190508181036000830152610e8581610d0f565b9050919050565b60006020820190508181036000830152610ea581610d55565b9050919050565b60006020820190508181036000830152610ec581610d78565b9050919050565b6000602082019050610ee16000830184610d9b565b92915050565b6000610ef1610f02565b9050610efd8282611083565b919050565b6000604051905090565b600067ffffffffffffffff821115610f2757610f26611141565b5b602082029050602081019050919050565b600067ffffffffffffffff821115610f5357610f52611141565b5b610f5c82611189565b9050602081019050919050565b600081905092915050565b600082825260208201905092915050565b6000610f908261106a565b9150610f9b8361106a565b9250827fffffffffffffffffffffffffffffffffffffffffffffffffffffffffffffffff03821115610fd057610fcf6110b4565b5b828201905092915050565b6000610fe68261106a565b9150610ff18361106a565b925082611001576110006110e3565b5b828204905092915050565b60006110178261104a565b9050919050565b60007fffffffff0000000000000000000000000000000000000000000000000000000082169050919050565b600073ffffffffffffffffffffffffffffffffffffffff82169050919050565b6000819050919050565b82818337600083830152505050565b61108c82611189565b810181811067ffffffffffffffff821117156110ab576110aa611141565b5b80604052505050565b7f4e487b7100000000000000000000000000000000000000000000000000000000600052601160045260246000fd5b7f4e487b7100000000000000000000000000000000000000000000000000000000600052601260045260246000fd5b7f4e487b7100000000000000000000000000000000000000000000000000000000600052603260045260246000fd5b7f4e487b7100000000000000000000000000000000000000000000000000000000600052604160045260246000fd5b600080fd5b600080fd5b600080fd5b600080fd5b600080fd5b6000601f19601f8301169050919050565b7f436f756e7465723a2064656372656d656e74206f766572666c6f770000000000600082015250565b7f4f776e61626c653a206e6577206f776e657220697320746865207a65726f206160008201527f6464726573730000000000000000000000000000000000000000000000000000602082015250565b7f4f776e61626c653a2063616c6c6572206973206e6f7420746865206f776e6572600082015250565b50565b7f596f7520617265206e6f7420746865206f776e65722e00000000000000000000600082015250565b7f5265656e7472616e637947756172643a207265656e7472616e742063616c6c00600082015250565b6112998161100c565b81146112a457600080fd5b50565b6112b08161106a565b81146112bb57600080fd5b5056fea26469706673582212201e9798068de73a76c482597cb6c54d8ed22cefde7e562e8aa13b45ea5191eed364736f6c63430008070033",
					"opcodes": "PUSH1 0x80 PUSH1 0x40 MSTORE CALLVALUE DUP1 ISZERO PUSH3 0x11 JUMPI PUSH1 0x0 DUP1 REVERT JUMPDEST POP PUSH1 0x40 MLOAD PUSH3 0x1512 CODESIZE SUB DUP1 PUSH3 0x1512 DUP4 CODECOPY DUP2 DUP2 ADD PUSH1 0x40 MSTORE DUP2 ADD SWAP1 PUSH3 0x37 SWAP2 SWAP1 PUSH3 0x189 JUMP JUMPDEST PUSH3 0x57 PUSH3 0x4B PUSH3 0xA6 PUSH1 0x20 SHL PUSH1 0x20 SHR JUMP JUMPDEST PUSH3 0xAE PUSH1 0x20 SHL PUSH1 0x20 SHR JUMP JUMPDEST PUSH1 0x1 DUP1 DUP2 SWAP1 SSTORE POP DUP1 PUSH1 0x2 PUSH1 0x0 PUSH2 0x100 EXP DUP2 SLOAD DUP2 PUSH20 0xFFFFFFFFFFFFFFFFFFFFFFFFFFFFFFFFFFFFFFFF MUL NOT AND SWAP1 DUP4 PUSH20 0xFFFFFFFFFFFFFFFFFFFFFFFFFFFFFFFFFFFFFFFF AND MUL OR SWAP1 SSTORE POP POP PUSH3 0x20E JUMP JUMPDEST PUSH1 0x0 CALLER SWAP1 POP SWAP1 JUMP JUMPDEST PUSH1 0x0 DUP1 PUSH1 0x0 SWAP1 SLOAD SWAP1 PUSH2 0x100 EXP SWAP1 DIV PUSH20 0xFFFFFFFFFFFFFFFFFFFFFFFFFFFFFFFFFFFFFFFF AND SWAP1 POP DUP2 PUSH1 0x0 DUP1 PUSH2 0x100 EXP DUP2 SLOAD DUP2 PUSH20 0xFFFFFFFFFFFFFFFFFFFFFFFFFFFFFFFFFFFFFFFF MUL NOT AND SWAP1 DUP4 PUSH20 0xFFFFFFFFFFFFFFFFFFFFFFFFFFFFFFFFFFFFFFFF AND MUL OR SWAP1 SSTORE POP DUP2 PUSH20 0xFFFFFFFFFFFFFFFFFFFFFFFFFFFFFFFFFFFFFFFF AND DUP2 PUSH20 0xFFFFFFFFFFFFFFFFFFFFFFFFFFFFFFFFFFFFFFFF AND PUSH32 0x8BE0079C531659141344CD1FD0A4F28419497F9722A3DAAFE3B4186F6B6457E0 PUSH1 0x40 MLOAD PUSH1 0x40 MLOAD DUP1 SWAP2 SUB SWAP1 LOG3 POP POP JUMP JUMPDEST PUSH1 0x0 DUP2 MLOAD SWAP1 POP PUSH3 0x183 DUP2 PUSH3 0x1F4 JUMP JUMPDEST SWAP3 SWAP2 POP POP JUMP JUMPDEST PUSH1 0x0 PUSH1 0x20 DUP3 DUP5 SUB SLT ISZERO PUSH3 0x1A2 JUMPI PUSH3 0x1A1 PUSH3 0x1EF JUMP JUMPDEST JUMPDEST PUSH1 0x0 PUSH3 0x1B2 DUP5 DUP3 DUP6 ADD PUSH3 0x172 JUMP JUMPDEST SWAP2 POP POP SWAP3 SWAP2 POP POP JUMP JUMPDEST PUSH1 0x0 PUSH3 0x1C8 DUP3 PUSH3 0x1CF JUMP JUMPDEST SWAP1 POP SWAP2 SWAP1 POP JUMP JUMPDEST PUSH1 0x0 PUSH20 0xFFFFFFFFFFFFFFFFFFFFFFFFFFFFFFFFFFFFFFFF DUP3 AND SWAP1 POP SWAP2 SWAP1 POP JUMP JUMPDEST PUSH1 0x0 DUP1 REVERT JUMPDEST PUSH3 0x1FF DUP2 PUSH3 0x1BB JUMP JUMPDEST DUP2 EQ PUSH3 0x20B JUMPI PUSH1 0x0 DUP1 REVERT JUMPDEST POP JUMP JUMPDEST PUSH2 0x12F4 DUP1 PUSH3 0x21E PUSH1 0x0 CODECOPY PUSH1 0x0 RETURN INVALID PUSH1 0x80 PUSH1 0x40 MSTORE PUSH1 0x4 CALLDATASIZE LT PUSH2 0x8A JUMPI PUSH1 0x0 CALLDATALOAD PUSH1 0xE0 SHR DUP1 PUSH4 0x8DA5CB5B GT PUSH2 0x59 JUMPI DUP1 PUSH4 0x8DA5CB5B EQ PUSH2 0x27F JUMPI DUP1 PUSH4 0xA694FC3A EQ PUSH2 0x2AA JUMPI DUP1 PUSH4 0xF2FDE38B EQ PUSH2 0x2D3 JUMPI DUP1 PUSH4 0xF301AF42 EQ PUSH2 0x2FC JUMPI DUP1 PUSH4 0xFD71C650 EQ PUSH2 0x339 JUMPI PUSH2 0x1C0 JUMP JUMPDEST DUP1 PUSH4 0x150B7A02 EQ PUSH2 0x1C5 JUMPI DUP1 PUSH4 0x2E17DE78 EQ PUSH2 0x202 JUMPI DUP1 PUSH4 0x715018A6 EQ PUSH2 0x22B JUMPI DUP1 PUSH4 0x8488CC41 EQ PUSH2 0x242 JUMPI PUSH2 0x1C0 JUMP JUMPDEST CALLDATASIZE PUSH2 0x1C0 JUMPI PUSH1 0x0 PUSH2 0x9B PUSH1 0x3 PUSH2 0x362 JUMP JUMPDEST CALLVALUE PUSH2 0xA6 SWAP2 SWAP1 PUSH2 0xFDB JUMP JUMPDEST SWAP1 POP PUSH1 0x0 PUSH1 0x2 PUSH1 0x0 SWAP1 SLOAD SWAP1 PUSH2 0x100 EXP SWAP1 DIV PUSH20 0xFFFFFFFFFFFFFFFFFFFFFFFFFFFFFFFFFFFFFFFF AND PUSH20 0xFFFFFFFFFFFFFFFFFFFFFFFFFFFFFFFFFFFFFFFF AND PUSH4 0x438B6300 ADDRESS PUSH1 0x40 MLOAD DUP3 PUSH4 0xFFFFFFFF AND PUSH1 0xE0 SHL DUP2 MSTORE PUSH1 0x4 ADD PUSH2 0x105 SWAP2 SWAP1 PUSH2 0xDBF JUMP JUMPDEST PUSH1 0x0 PUSH1 0x40 MLOAD DUP1 DUP4 SUB DUP2 DUP7 DUP1 EXTCODESIZE ISZERO DUP1 ISZERO PUSH2 0x11D JUMPI PUSH1 0x0 DUP1 REVERT JUMPDEST POP GAS STATICCALL ISZERO DUP1 ISZERO PUSH2 0x131 JUMPI RETURNDATASIZE PUSH1 0x0 DUP1 RETURNDATACOPY RETURNDATASIZE PUSH1 0x0 REVERT JUMPDEST POP POP POP POP PUSH1 0x40 MLOAD RETURNDATASIZE PUSH1 0x0 DUP3 RETURNDATACOPY RETURNDATASIZE PUSH1 0x1F NOT PUSH1 0x1F DUP3 ADD AND DUP3 ADD DUP1 PUSH1 0x40 MSTORE POP DUP2 ADD SWAP1 PUSH2 0x15A SWAP2 SWAP1 PUSH2 0xC35 JUMP JUMPDEST SWAP1 POP PUSH1 0x0 JUMPDEST DUP2 MLOAD DUP2 LT ISZERO PUSH2 0x1BB JUMPI DUP3 PUSH1 0x5 PUSH1 0x0 PUSH1 0x6 DUP5 DUP2 SLOAD DUP2 LT PUSH2 0x181 JUMPI PUSH2 0x180 PUSH2 0x1112 JUMP JUMPDEST JUMPDEST SWAP1 PUSH1 0x0 MSTORE PUSH1 0x20 PUSH1 0x0 KECCAK256 ADD SLOAD DUP2 MSTORE PUSH1 0x20 ADD SWAP1 DUP2 MSTORE PUSH1 0x20 ADD PUSH1 0x0 KECCAK256 PUSH1 0x0 DUP3 DUP3 SLOAD PUSH2 0x1A9 SWAP2 SWAP1 PUSH2 0xF85 JUMP JUMPDEST SWAP3 POP POP DUP2 SWAP1 SSTORE POP DUP1 PUSH1 0x1 ADD SWAP1 POP PUSH2 0x15F JUMP JUMPDEST POP POP POP STOP JUMPDEST PUSH1 0x0 DUP1 REVERT JUMPDEST CALLVALUE DUP1 ISZERO PUSH2 0x1D1 JUMPI PUSH1 0x0 DUP1 REVERT JUMPDEST POP PUSH2 0x1EC PUSH1 0x4 DUP1 CALLDATASIZE SUB DUP2 ADD SWAP1 PUSH2 0x1E7 SWAP2 SWAP1 PUSH2 0xBB2 JUMP JUMPDEST PUSH2 0x370 JUMP JUMPDEST PUSH1 0x40 MLOAD PUSH2 0x1F9 SWAP2 SWAP1 PUSH2 0xE11 JUMP JUMPDEST PUSH1 0x40 MLOAD DUP1 SWAP2 SUB SWAP1 RETURN JUMPDEST CALLVALUE DUP1 ISZERO PUSH2 0x20E JUMPI PUSH1 0x0 DUP1 REVERT JUMPDEST POP PUSH2 0x229 PUSH1 0x4 DUP1 CALLDATASIZE SUB DUP2 ADD SWAP1 PUSH2 0x224 SWAP2 SWAP1 PUSH2 0xC7E JUMP JUMPDEST PUSH2 0x384 JUMP JUMPDEST STOP JUMPDEST CALLVALUE DUP1 ISZERO PUSH2 0x237 JUMPI PUSH1 0x0 DUP1 REVERT JUMPDEST POP PUSH2 0x240 PUSH2 0x60B JUMP JUMPDEST STOP JUMPDEST CALLVALUE DUP1 ISZERO PUSH2 0x24E JUMPI PUSH1 0x0 DUP1 REVERT JUMPDEST POP PUSH2 0x269 PUSH1 0x4 DUP1 CALLDATASIZE SUB DUP2 ADD SWAP1 PUSH2 0x264 SWAP2 SWAP1 PUSH2 0xC7E JUMP JUMPDEST PUSH2 0x61F JUMP JUMPDEST PUSH1 0x40 MLOAD PUSH2 0x276 SWAP2 SWAP1 PUSH2 0xDBF JUMP JUMPDEST PUSH1 0x40 MLOAD DUP1 SWAP2 SUB SWAP1 RETURN JUMPDEST CALLVALUE DUP1 ISZERO PUSH2 0x28B JUMPI PUSH1 0x0 DUP1 REVERT JUMPDEST POP PUSH2 0x294 PUSH2 0x652 JUMP JUMPDEST PUSH1 0x40 MLOAD PUSH2 0x2A1 SWAP2 SWAP1 PUSH2 0xDBF JUMP JUMPDEST PUSH1 0x40 MLOAD DUP1 SWAP2 SUB SWAP1 RETURN JUMPDEST CALLVALUE DUP1 ISZERO PUSH2 0x2B6 JUMPI PUSH1 0x0 DUP1 REVERT JUMPDEST POP PUSH2 0x2D1 PUSH1 0x4 DUP1 CALLDATASIZE SUB DUP2 ADD SWAP1 PUSH2 0x2CC SWAP2 SWAP1 PUSH2 0xC7E JUMP JUMPDEST PUSH2 0x67B JUMP JUMPDEST STOP JUMPDEST CALLVALUE DUP1 ISZERO PUSH2 0x2DF JUMPI PUSH1 0x0 DUP1 REVERT JUMPDEST POP PUSH2 0x2FA PUSH1 0x4 DUP1 CALLDATASIZE SUB DUP2 ADD SWAP1 PUSH2 0x2F5 SWAP2 SWAP1 PUSH2 0xB85 JUMP JUMPDEST PUSH2 0x794 JUMP JUMPDEST STOP JUMPDEST CALLVALUE DUP1 ISZERO PUSH2 0x308 JUMPI PUSH1 0x0 DUP1 REVERT JUMPDEST POP PUSH2 0x323 PUSH1 0x4 DUP1 CALLDATASIZE SUB DUP2 ADD SWAP1 PUSH2 0x31E SWAP2 SWAP1 PUSH2 0xC7E JUMP JUMPDEST PUSH2 0x818 JUMP JUMPDEST PUSH1 0x40 MLOAD PUSH2 0x330 SWAP2 SWAP1 PUSH2 0xECC JUMP JUMPDEST PUSH1 0x40 MLOAD DUP1 SWAP2 SUB SWAP1 RETURN JUMPDEST CALLVALUE DUP1 ISZERO PUSH2 0x345 JUMPI PUSH1 0x0 DUP1 REVERT JUMPDEST POP PUSH2 0x360 PUSH1 0x4 DUP1 CALLDATASIZE SUB DUP2 ADD SWAP1 PUSH2 0x35B SWAP2 SWAP1 PUSH2 0xB85 JUMP JUMPDEST PUSH2 0x830 JUMP JUMPDEST STOP JUMPDEST PUSH1 0x0 DUP2 PUSH1 0x0 ADD SLOAD SWAP1 POP SWAP2 SWAP1 POP JUMP JUMPDEST PUSH1 0x0 PUSH4 0x150B7A02 PUSH1 0xE0 SHL SWAP1 POP SWAP5 SWAP4 POP POP POP POP JUMP JUMPDEST PUSH1 0x2 PUSH1 0x1 SLOAD EQ ISZERO PUSH2 0x3CA JUMPI PUSH1 0x40 MLOAD PUSH32 0x8C379A000000000000000000000000000000000000000000000000000000000 DUP2 MSTORE PUSH1 0x4 ADD PUSH2 0x3C1 SWAP1 PUSH2 0xEAC JUMP JUMPDEST PUSH1 0x40 MLOAD DUP1 SWAP2 SUB SWAP1 REVERT JUMPDEST PUSH1 0x2 PUSH1 0x1 DUP2 SWAP1 SSTORE POP CALLER PUSH20 0xFFFFFFFFFFFFFFFFFFFFFFFFFFFFFFFFFFFFFFFF AND PUSH1 0x4 PUSH1 0x0 DUP4 DUP2 MSTORE PUSH1 0x20 ADD SWAP1 DUP2 MSTORE PUSH1 0x20 ADD PUSH1 0x0 KECCAK256 PUSH1 0x0 SWAP1 SLOAD SWAP1 PUSH2 0x100 EXP SWAP1 DIV PUSH20 0xFFFFFFFFFFFFFFFFFFFFFFFFFFFFFFFFFFFFFFFF AND PUSH20 0xFFFFFFFFFFFFFFFFFFFFFFFFFFFFFFFFFFFFFFFF AND EQ PUSH2 0x473 JUMPI PUSH1 0x40 MLOAD PUSH32 0x8C379A000000000000000000000000000000000000000000000000000000000 DUP2 MSTORE PUSH1 0x4 ADD PUSH2 0x46A SWAP1 PUSH2 0xE8C JUMP JUMPDEST PUSH1 0x40 MLOAD DUP1 SWAP2 SUB SWAP1 REVERT JUMPDEST PUSH1 0x4 PUSH1 0x0 DUP3 DUP2 MSTORE PUSH1 0x20 ADD SWAP1 DUP2 MSTORE PUSH1 0x20 ADD PUSH1 0x0 KECCAK256 PUSH1 0x0 PUSH2 0x100 EXP DUP2 SLOAD SWAP1 PUSH20 0xFFFFFFFFFFFFFFFFFFFFFFFFFFFFFFFFFFFFFFFF MUL NOT AND SWAP1 SSTORE PUSH2 0x4B3 PUSH1 0x3 PUSH2 0x87C JUMP JUMPDEST PUSH1 0x0 PUSH1 0x4 PUSH1 0x0 DUP4 DUP2 MSTORE PUSH1 0x20 ADD SWAP1 DUP2 MSTORE PUSH1 0x20 ADD PUSH1 0x0 KECCAK256 PUSH1 0x0 SWAP1 SLOAD SWAP1 PUSH2 0x100 EXP SWAP1 DIV PUSH20 0xFFFFFFFFFFFFFFFFFFFFFFFFFFFFFFFFFFFFFFFF AND PUSH20 0xFFFFFFFFFFFFFFFFFFFFFFFFFFFFFFFFFFFFFFFF AND PUSH1 0x5 PUSH1 0x0 DUP5 DUP2 MSTORE PUSH1 0x20 ADD SWAP1 DUP2 MSTORE PUSH1 0x20 ADD PUSH1 0x0 KECCAK256 SLOAD PUSH1 0x40 MLOAD PUSH2 0x51F SWAP1 PUSH2 0xDAA JUMP JUMPDEST PUSH1 0x0 PUSH1 0x40 MLOAD DUP1 DUP4 SUB DUP2 DUP6 DUP8 GAS CALL SWAP3 POP POP POP RETURNDATASIZE DUP1 PUSH1 0x0 DUP2 EQ PUSH2 0x55C JUMPI PUSH1 0x40 MLOAD SWAP2 POP PUSH1 0x1F NOT PUSH1 0x3F RETURNDATASIZE ADD AND DUP3 ADD PUSH1 0x40 MSTORE RETURNDATASIZE DUP3 MSTORE RETURNDATASIZE PUSH1 0x0 PUSH1 0x20 DUP5 ADD RETURNDATACOPY PUSH2 0x561 JUMP JUMPDEST PUSH1 0x60 SWAP2 POP JUMPDEST POP POP SWAP1 POP DUP1 PUSH2 0x56F JUMPI PUSH1 0x0 DUP1 REVERT JUMPDEST PUSH1 0x2 PUSH1 0x0 SWAP1 SLOAD SWAP1 PUSH2 0x100 EXP SWAP1 DIV PUSH20 0xFFFFFFFFFFFFFFFFFFFFFFFFFFFFFFFFFFFFFFFF AND PUSH20 0xFFFFFFFFFFFFFFFFFFFFFFFFFFFFFFFFFFFFFFFF AND PUSH4 0x42842E0E ADDRESS CALLER DUP6 PUSH1 0x40 MLOAD DUP5 PUSH4 0xFFFFFFFF AND PUSH1 0xE0 SHL DUP2 MSTORE PUSH1 0x4 ADD PUSH2 0x5CE SWAP4 SWAP3 SWAP2 SWAP1 PUSH2 0xDDA JUMP JUMPDEST PUSH1 0x0 PUSH1 0x40 MLOAD DUP1 DUP4 SUB DUP2 PUSH1 0x0 DUP8 DUP1 EXTCODESIZE ISZERO DUP1 ISZERO PUSH2 0x5E8 JUMPI PUSH1 0x0 DUP1 REVERT JUMPDEST POP GAS CALL ISZERO DUP1 ISZERO PUSH2 0x5FC JUMPI RETURNDATASIZE PUSH1 0x0 DUP1 RETURNDATACOPY RETURNDATASIZE PUSH1 0x0 REVERT JUMPDEST POP POP POP POP POP PUSH1 0x1 DUP1 DUP2 SWAP1 SSTORE POP POP JUMP JUMPDEST PUSH2 0x613 PUSH2 0x8D8 JUMP JUMPDEST PUSH2 0x61D PUSH1 0x0 PUSH2 0x956 JUMP JUMPDEST JUMP JUMPDEST PUSH1 0x4 PUSH1 0x20 MSTORE DUP1 PUSH1 0x0 MSTORE PUSH1 0x40 PUSH1 0x0 KECCAK256 PUSH1 0x0 SWAP2 POP SLOAD SWAP1 PUSH2 0x100 EXP SWAP1 DIV PUSH20 0xFFFFFFFFFFFFFFFFFFFFFFFFFFFFFFFFFFFFFFFF AND DUP2 JUMP JUMPDEST PUSH1 0x0 DUP1 PUSH1 0x0 SWAP1 SLOAD SWAP1 PUSH2 0x100 EXP SWAP1 DIV PUSH20 0xFFFFFFFFFFFFFFFFFFFFFFFFFFFFFFFFFFFFFFFF AND SWAP1 POP SWAP1 JUMP JUMPDEST PUSH1 0x2 PUSH1 0x0 SWAP1 SLOAD SWAP1 PUSH2 0x100 EXP SWAP1 DIV PUSH20 0xFFFFFFFFFFFFFFFFFFFFFFFFFFFFFFFFFFFFFFFF AND PUSH20 0xFFFFFFFFFFFFFFFFFFFFFFFFFFFFFFFFFFFFFFFF AND PUSH4 0x42842E0E CALLER ADDRESS DUP5 PUSH1 0x40 MLOAD DUP5 PUSH4 0xFFFFFFFF AND PUSH1 0xE0 SHL DUP2 MSTORE PUSH1 0x4 ADD PUSH2 0x6DA SWAP4 SWAP3 SWAP2 SWAP1 PUSH2 0xDDA JUMP JUMPDEST PUSH1 0x0 PUSH1 0x40 MLOAD DUP1 DUP4 SUB DUP2 PUSH1 0x0 DUP8 DUP1 EXTCODESIZE ISZERO DUP1 ISZERO PUSH2 0x6F4 JUMPI PUSH1 0x0 DUP1 REVERT JUMPDEST POP GAS CALL ISZERO DUP1 ISZERO PUSH2 0x708 JUMPI RETURNDATASIZE PUSH1 0x0 DUP1 RETURNDATACOPY RETURNDATASIZE PUSH1 0x0 REVERT JUMPDEST POP POP POP POP CALLER PUSH1 0x4 PUSH1 0x0 DUP4 DUP2 MSTORE PUSH1 0x20 ADD SWAP1 DUP2 MSTORE PUSH1 0x20 ADD PUSH1 0x0 KECCAK256 PUSH1 0x0 PUSH2 0x100 EXP DUP2 SLOAD DUP2 PUSH20 0xFFFFFFFFFFFFFFFFFFFFFFFFFFFFFFFFFFFFFFFF MUL NOT AND SWAP1 DUP4 PUSH20 0xFFFFFFFFFFFFFFFFFFFFFFFFFFFFFFFFFFFFFFFF AND MUL OR SWAP1 SSTORE POP PUSH1 0x6 DUP2 SWAP1 DUP1 PUSH1 0x1 DUP2 SLOAD ADD DUP1 DUP3 SSTORE DUP1 SWAP2 POP POP PUSH1 0x1 SWAP1 SUB SWAP1 PUSH1 0x0 MSTORE PUSH1 0x20 PUSH1 0x0 KECCAK256 ADD PUSH1 0x0 SWAP1 SWAP2 SWAP1 SWAP2 SWAP1 SWAP2 POP SSTORE PUSH2 0x791 PUSH1 0x3 PUSH2 0xA1A JUMP JUMPDEST POP JUMP JUMPDEST PUSH2 0x79C PUSH2 0x8D8 JUMP JUMPDEST PUSH1 0x0 PUSH20 0xFFFFFFFFFFFFFFFFFFFFFFFFFFFFFFFFFFFFFFFF AND DUP2 PUSH20 0xFFFFFFFFFFFFFFFFFFFFFFFFFFFFFFFFFFFFFFFF AND EQ ISZERO PUSH2 0x80C JUMPI PUSH1 0x40 MLOAD PUSH32 0x8C379A000000000000000000000000000000000000000000000000000000000 DUP2 MSTORE PUSH1 0x4 ADD PUSH2 0x803 SWAP1 PUSH2 0xE4C JUMP JUMPDEST PUSH1 0x40 MLOAD DUP1 SWAP2 SUB SWAP1 REVERT JUMPDEST PUSH2 0x815 DUP2 PUSH2 0x956 JUMP JUMPDEST POP JUMP JUMPDEST PUSH1 0x5 PUSH1 0x20 MSTORE DUP1 PUSH1 0x0 MSTORE PUSH1 0x40 PUSH1 0x0 KECCAK256 PUSH1 0x0 SWAP2 POP SWAP1 POP SLOAD DUP2 JUMP JUMPDEST PUSH2 0x838 PUSH2 0x8D8 JUMP JUMPDEST DUP1 PUSH1 0x2 PUSH1 0x0 PUSH2 0x100 EXP DUP2 SLOAD DUP2 PUSH20 0xFFFFFFFFFFFFFFFFFFFFFFFFFFFFFFFFFFFFFFFF MUL NOT AND SWAP1 DUP4 PUSH20 0xFFFFFFFFFFFFFFFFFFFFFFFFFFFFFFFFFFFFFFFF AND MUL OR SWAP1 SSTORE POP POP JUMP JUMPDEST PUSH1 0x0 DUP2 PUSH1 0x0 ADD SLOAD SWAP1 POP PUSH1 0x0 DUP2 GT PUSH2 0x8C8 JUMPI PUSH1 0x40 MLOAD PUSH32 0x8C379A000000000000000000000000000000000000000000000000000000000 DUP2 MSTORE PUSH1 0x4 ADD PUSH2 0x8BF SWAP1 PUSH2 0xE2C JUMP JUMPDEST PUSH1 0x40 MLOAD DUP1 SWAP2 SUB SWAP1 REVERT JUMPDEST PUSH1 0x1 DUP2 SUB DUP3 PUSH1 0x0 ADD DUP2 SWAP1 SSTORE POP POP POP JUMP JUMPDEST PUSH2 0x8E0 PUSH2 0xA30 JUMP JUMPDEST PUSH20 0xFFFFFFFFFFFFFFFFFFFFFFFFFFFFFFFFFFFFFFFF AND PUSH2 0x8FE PUSH2 0x652 JUMP JUMPDEST PUSH20 0xFFFFFFFFFFFFFFFFFFFFFFFFFFFFFFFFFFFFFFFF AND EQ PUSH2 0x954 JUMPI PUSH1 0x40 MLOAD PUSH32 0x8C379A000000000000000000000000000000000000000000000000000000000 DUP2 MSTORE PUSH1 0x4 ADD PUSH2 0x94B SWAP1 PUSH2 0xE6C JUMP JUMPDEST PUSH1 0x40 MLOAD DUP1 SWAP2 SUB SWAP1 REVERT JUMPDEST JUMP JUMPDEST PUSH1 0x0 DUP1 PUSH1 0x0 SWAP1 SLOAD SWAP1 PUSH2 0x100 EXP SWAP1 DIV PUSH20 0xFFFFFFFFFFFFFFFFFFFFFFFFFFFFFFFFFFFFFFFF AND SWAP1 POP DUP2 PUSH1 0x0 DUP1 PUSH2 0x100 EXP DUP2 SLOAD DUP2 PUSH20 0xFFFFFFFFFFFFFFFFFFFFFFFFFFFFFFFFFFFFFFFF MUL NOT AND SWAP1 DUP4 PUSH20 0xFFFFFFFFFFFFFFFFFFFFFFFFFFFFFFFFFFFFFFFF AND MUL OR SWAP1 SSTORE POP DUP2 PUSH20 0xFFFFFFFFFFFFFFFFFFFFFFFFFFFFFFFFFFFFFFFF AND DUP2 PUSH20 0xFFFFFFFFFFFFFFFFFFFFFFFFFFFFFFFFFFFFFFFF AND PUSH32 0x8BE0079C531659141344CD1FD0A4F28419497F9722A3DAAFE3B4186F6B6457E0 PUSH1 0x40 MLOAD PUSH1 0x40 MLOAD DUP1 SWAP2 SUB SWAP1 LOG3 POP POP JUMP JUMPDEST PUSH1 0x1 DUP2 PUSH1 0x0 ADD PUSH1 0x0 DUP3 DUP3 SLOAD ADD SWAP3 POP POP DUP2 SWAP1 SSTORE POP POP JUMP JUMPDEST PUSH1 0x0 CALLER SWAP1 POP SWAP1 JUMP JUMPDEST PUSH1 0x0 PUSH2 0xA4B PUSH2 0xA46 DUP5 PUSH2 0xF0C JUMP JUMPDEST PUSH2 0xEE7 JUMP JUMPDEST SWAP1 POP DUP1 DUP4 DUP3 MSTORE PUSH1 0x20 DUP3 ADD SWAP1 POP DUP3 DUP6 PUSH1 0x20 DUP7 MUL DUP3 ADD GT ISZERO PUSH2 0xA6E JUMPI PUSH2 0xA6D PUSH2 0x1175 JUMP JUMPDEST JUMPDEST PUSH1 0x0 JUMPDEST DUP6 DUP2 LT ISZERO PUSH2 0xA9E JUMPI DUP2 PUSH2 0xA84 DUP9 DUP3 PUSH2 0xB70 JUMP JUMPDEST DUP5 MSTORE PUSH1 0x20 DUP5 ADD SWAP4 POP PUSH1 0x20 DUP4 ADD SWAP3 POP POP PUSH1 0x1 DUP2 ADD SWAP1 POP PUSH2 0xA71 JUMP JUMPDEST POP POP POP SWAP4 SWAP3 POP POP POP JUMP JUMPDEST PUSH1 0x0 PUSH2 0xABB PUSH2 0xAB6 DUP5 PUSH2 0xF38 JUMP JUMPDEST PUSH2 0xEE7 JUMP JUMPDEST SWAP1 POP DUP3 DUP2 MSTORE PUSH1 0x20 DUP2 ADD DUP5 DUP5 DUP5 ADD GT ISZERO PUSH2 0xAD7 JUMPI PUSH2 0xAD6 PUSH2 0x117A JUMP JUMPDEST JUMPDEST PUSH2 0xAE2 DUP5 DUP3 DUP6 PUSH2 0x1074 JUMP JUMPDEST POP SWAP4 SWAP3 POP POP POP JUMP JUMPDEST PUSH1 0x0 DUP2 CALLDATALOAD SWAP1 POP PUSH2 0xAF9 DUP2 PUSH2 0x1290 JUMP JUMPDEST SWAP3 SWAP2 POP POP JUMP JUMPDEST PUSH1 0x0 DUP3 PUSH1 0x1F DUP4 ADD SLT PUSH2 0xB14 JUMPI PUSH2 0xB13 PUSH2 0x1170 JUMP JUMPDEST JUMPDEST DUP2 MLOAD PUSH2 0xB24 DUP5 DUP3 PUSH1 0x20 DUP7 ADD PUSH2 0xA38 JUMP JUMPDEST SWAP2 POP POP SWAP3 SWAP2 POP POP JUMP JUMPDEST PUSH1 0x0 DUP3 PUSH1 0x1F DUP4 ADD SLT PUSH2 0xB42 JUMPI PUSH2 0xB41 PUSH2 0x1170 JUMP JUMPDEST JUMPDEST DUP2 CALLDATALOAD PUSH2 0xB52 DUP5 DUP3 PUSH1 0x20 DUP7 ADD PUSH2 0xAA8 JUMP JUMPDEST SWAP2 POP POP SWAP3 SWAP2 POP POP JUMP JUMPDEST PUSH1 0x0 DUP2 CALLDATALOAD SWAP1 POP PUSH2 0xB6A DUP2 PUSH2 0x12A7 JUMP JUMPDEST SWAP3 SWAP2 POP POP JUMP JUMPDEST PUSH1 0x0 DUP2 MLOAD SWAP1 POP PUSH2 0xB7F DUP2 PUSH2 0x12A7 JUMP JUMPDEST SWAP3 SWAP2 POP POP JUMP JUMPDEST PUSH1 0x0 PUSH1 0x20 DUP3 DUP5 SUB SLT ISZERO PUSH2 0xB9B JUMPI PUSH2 0xB9A PUSH2 0x1184 JUMP JUMPDEST JUMPDEST PUSH1 0x0 PUSH2 0xBA9 DUP5 DUP3 DUP6 ADD PUSH2 0xAEA JUMP JUMPDEST SWAP2 POP POP SWAP3 SWAP2 POP POP JUMP JUMPDEST PUSH1 0x0 DUP1 PUSH1 0x0 DUP1 PUSH1 0x80 DUP6 DUP8 SUB SLT ISZERO PUSH2 0xBCC JUMPI PUSH2 0xBCB PUSH2 0x1184 JUMP JUMPDEST JUMPDEST PUSH1 0x0 PUSH2 0xBDA DUP8 DUP3 DUP9 ADD PUSH2 0xAEA JUMP JUMPDEST SWAP5 POP POP PUSH1 0x20 PUSH2 0xBEB DUP8 DUP3 DUP9 ADD PUSH2 0xAEA JUMP JUMPDEST SWAP4 POP POP PUSH1 0x40 PUSH2 0xBFC DUP8 DUP3 DUP9 ADD PUSH2 0xB5B JUMP JUMPDEST SWAP3 POP POP PUSH1 0x60 DUP6 ADD CALLDATALOAD PUSH8 0xFFFFFFFFFFFFFFFF DUP2 GT ISZERO PUSH2 0xC1D JUMPI PUSH2 0xC1C PUSH2 0x117F JUMP JUMPDEST JUMPDEST PUSH2 0xC29 DUP8 DUP3 DUP9 ADD PUSH2 0xB2D JUMP JUMPDEST SWAP2 POP POP SWAP3 SWAP6 SWAP2 SWAP5 POP SWAP3 POP JUMP JUMPDEST PUSH1 0x0 PUSH1 0x20 DUP3 DUP5 SUB SLT ISZERO PUSH2 0xC4B JUMPI PUSH2 0xC4A PUSH2 0x1184 JUMP JUMPDEST JUMPDEST PUSH1 0x0 DUP3 ADD MLOAD PUSH8 0xFFFFFFFFFFFFFFFF DUP2 GT ISZERO PUSH2 0xC69 JUMPI PUSH2 0xC68 PUSH2 0x117F JUMP JUMPDEST JUMPDEST PUSH2 0xC75 DUP5 DUP3 DUP6 ADD PUSH2 0xAFF JUMP JUMPDEST SWAP2 POP POP SWAP3 SWAP2 POP POP JUMP JUMPDEST PUSH1 0x0 PUSH1 0x20 DUP3 DUP5 SUB SLT ISZERO PUSH2 0xC94 JUMPI PUSH2 0xC93 PUSH2 0x1184 JUMP JUMPDEST JUMPDEST PUSH1 0x0 PUSH2 0xCA2 DUP5 DUP3 DUP6 ADD PUSH2 0xB5B JUMP JUMPDEST SWAP2 POP POP SWAP3 SWAP2 POP POP JUMP JUMPDEST PUSH2 0xCB4 DUP2 PUSH2 0x100C JUMP JUMPDEST DUP3 MSTORE POP POP JUMP JUMPDEST PUSH2 0xCC3 DUP2 PUSH2 0x101E JUMP JUMPDEST DUP3 MSTORE POP POP JUMP JUMPDEST PUSH1 0x0 PUSH2 0xCD6 PUSH1 0x1B DUP4 PUSH2 0xF74 JUMP JUMPDEST SWAP2 POP PUSH2 0xCE1 DUP3 PUSH2 0x119A JUMP JUMPDEST PUSH1 0x20 DUP3 ADD SWAP1 POP SWAP2 SWAP1 POP JUMP JUMPDEST PUSH1 0x0 PUSH2 0xCF9 PUSH1 0x26 DUP4 PUSH2 0xF74 JUMP JUMPDEST SWAP2 POP PUSH2 0xD04 DUP3 PUSH2 0x11C3 JUMP JUMPDEST PUSH1 0x40 DUP3 ADD SWAP1 POP SWAP2 SWAP1 POP JUMP JUMPDEST PUSH1 0x0 PUSH2 0xD1C PUSH1 0x20 DUP4 PUSH2 0xF74 JUMP JUMPDEST SWAP2 POP PUSH2 0xD27 DUP3 PUSH2 0x1212 JUMP JUMPDEST PUSH1 0x20 DUP3 ADD SWAP1 POP SWAP2 SWAP1 POP JUMP JUMPDEST PUSH1 0x0 PUSH2 0xD3F PUSH1 0x0 DUP4 PUSH2 0xF69 JUMP JUMPDEST SWAP2 POP PUSH2 0xD4A DUP3 PUSH2 0x123B JUMP JUMPDEST PUSH1 0x0 DUP3 ADD SWAP1 POP SWAP2 SWAP1 POP JUMP JUMPDEST PUSH1 0x0 PUSH2 0xD62 PUSH1 0x16 DUP4 PUSH2 0xF74 JUMP JUMPDEST SWAP2 POP PUSH2 0xD6D DUP3 PUSH2 0x123E JUMP JUMPDEST PUSH1 0x20 DUP3 ADD SWAP1 POP SWAP2 SWAP1 POP JUMP JUMPDEST PUSH1 0x0 PUSH2 0xD85 PUSH1 0x1F DUP4 PUSH2 0xF74 JUMP JUMPDEST SWAP2 POP PUSH2 0xD90 DUP3 PUSH2 0x1267 JUMP JUMPDEST PUSH1 0x20 DUP3 ADD SWAP1 POP SWAP2 SWAP1 POP JUMP JUMPDEST PUSH2 0xDA4 DUP2 PUSH2 0x106A JUMP JUMPDEST DUP3 MSTORE POP POP JUMP JUMPDEST PUSH1 0x0 PUSH2 0xDB5 DUP3 PUSH2 0xD32 JUMP JUMPDEST SWAP2 POP DUP2 SWAP1 POP SWAP2 SWAP1 POP JUMP JUMPDEST PUSH1 0x0 PUSH1 0x20 DUP3 ADD SWAP1 POP PUSH2 0xDD4 PUSH1 0x0 DUP4 ADD DUP5 PUSH2 0xCAB JUMP JUMPDEST SWAP3 SWAP2 POP POP JUMP JUMPDEST PUSH1 0x0 PUSH1 0x60 DUP3 ADD SWAP1 POP PUSH2 0xDEF PUSH1 0x0 DUP4 ADD DUP7 PUSH2 0xCAB JUMP JUMPDEST PUSH2 0xDFC PUSH1 0x20 DUP4 ADD DUP6 PUSH2 0xCAB JUMP JUMPDEST PUSH2 0xE09 PUSH1 0x40 DUP4 ADD DUP5 PUSH2 0xD9B JUMP JUMPDEST SWAP5 SWAP4 POP POP POP POP JUMP JUMPDEST PUSH1 0x0 PUSH1 0x20 DUP3 ADD SWAP1 POP PUSH2 0xE26 PUSH1 0x0 DUP4 ADD DUP5 PUSH2 0xCBA JUMP JUMPDEST SWAP3 SWAP2 POP POP JUMP JUMPDEST PUSH1 0x0 PUSH1 0x20 DUP3 ADD SWAP1 POP DUP2 DUP2 SUB PUSH1 0x0 DUP4 ADD MSTORE PUSH2 0xE45 DUP2 PUSH2 0xCC9 JUMP JUMPDEST SWAP1 POP SWAP2 SWAP1 POP JUMP JUMPDEST PUSH1 0x0 PUSH1 0x20 DUP3 ADD SWAP1 POP DUP2 DUP2 SUB PUSH1 0x0 DUP4 ADD MSTORE PUSH2 0xE65 DUP2 PUSH2 0xCEC JUMP JUMPDEST SWAP1 POP SWAP2 SWAP1 POP JUMP JUMPDEST PUSH1 0x0 PUSH1 0x20 DUP3 ADD SWAP1 POP DUP2 DUP2 SUB PUSH1 0x0 DUP4 ADD MSTORE PUSH2 0xE85 DUP2 PUSH2 0xD0F JUMP JUMPDEST SWAP1 POP SWAP2 SWAP1 POP JUMP JUMPDEST PUSH1 0x0 PUSH1 0x20 DUP3 ADD SWAP1 POP DUP2 DUP2 SUB PUSH1 0x0 DUP4 ADD MSTORE PUSH2 0xEA5 DUP2 PUSH2 0xD55 JUMP JUMPDEST SWAP1 POP SWAP2 SWAP1 POP JUMP JUMPDEST PUSH1 0x0 PUSH1 0x20 DUP3 ADD SWAP1 POP DUP2 DUP2 SUB PUSH1 0x0 DUP4 ADD MSTORE PUSH2 0xEC5 DUP2 PUSH2 0xD78 JUMP JUMPDEST SWAP1 POP SWAP2 SWAP1 POP JUMP JUMPDEST PUSH1 0x0 PUSH1 0x20 DUP3 ADD SWAP1 POP PUSH2 0xEE1 PUSH1 0x0 DUP4 ADD DUP5 PUSH2 0xD9B JUMP JUMPDEST SWAP3 SWAP2 POP POP JUMP JUMPDEST PUSH1 0x0 PUSH2 0xEF1 PUSH2 0xF02 JUMP JUMPDEST SWAP1 POP PUSH2 0xEFD DUP3 DUP3 PUSH2 0x1083 JUMP JUMPDEST SWAP2 SWAP1 POP JUMP JUMPDEST PUSH1 0x0 PUSH1 0x40 MLOAD SWAP1 POP SWAP1 JUMP JUMPDEST PUSH1 0x0 PUSH8 0xFFFFFFFFFFFFFFFF DUP3 GT ISZERO PUSH2 0xF27 JUMPI PUSH2 0xF26 PUSH2 0x1141 JUMP JUMPDEST JUMPDEST PUSH1 0x20 DUP3 MUL SWAP1 POP PUSH1 0x20 DUP2 ADD SWAP1 POP SWAP2 SWAP1 POP JUMP JUMPDEST PUSH1 0x0 PUSH8 0xFFFFFFFFFFFFFFFF DUP3 GT ISZERO PUSH2 0xF53 JUMPI PUSH2 0xF52 PUSH2 0x1141 JUMP JUMPDEST JUMPDEST PUSH2 0xF5C DUP3 PUSH2 0x1189 JUMP JUMPDEST SWAP1 POP PUSH1 0x20 DUP2 ADD SWAP1 POP SWAP2 SWAP1 POP JUMP JUMPDEST PUSH1 0x0 DUP2 SWAP1 POP SWAP3 SWAP2 POP POP JUMP JUMPDEST PUSH1 0x0 DUP3 DUP3 MSTORE PUSH1 0x20 DUP3 ADD SWAP1 POP SWAP3 SWAP2 POP POP JUMP JUMPDEST PUSH1 0x0 PUSH2 0xF90 DUP3 PUSH2 0x106A JUMP JUMPDEST SWAP2 POP PUSH2 0xF9B DUP4 PUSH2 0x106A JUMP JUMPDEST SWAP3 POP DUP3 PUSH32 0xFFFFFFFFFFFFFFFFFFFFFFFFFFFFFFFFFFFFFFFFFFFFFFFFFFFFFFFFFFFFFFFF SUB DUP3 GT ISZERO PUSH2 0xFD0 JUMPI PUSH2 0xFCF PUSH2 0x10B4 JUMP JUMPDEST JUMPDEST DUP3 DUP3 ADD SWAP1 POP SWAP3 SWAP2 POP POP JUMP JUMPDEST PUSH1 0x0 PUSH2 0xFE6 DUP3 PUSH2 0x106A JUMP JUMPDEST SWAP2 POP PUSH2 0xFF1 DUP4 PUSH2 0x106A JUMP JUMPDEST SWAP3 POP DUP3 PUSH2 0x1001 JUMPI PUSH2 0x1000 PUSH2 0x10E3 JUMP JUMPDEST JUMPDEST DUP3 DUP3 DIV SWAP1 POP SWAP3 SWAP2 POP POP JUMP JUMPDEST PUSH1 0x0 PUSH2 0x1017 DUP3 PUSH2 0x104A JUMP JUMPDEST SWAP1 POP SWAP2 SWAP1 POP JUMP JUMPDEST PUSH1 0x0 PUSH32 0xFFFFFFFF00000000000000000000000000000000000000000000000000000000 DUP3 AND SWAP1 POP SWAP2 SWAP1 POP JUMP JUMPDEST PUSH1 0x0 PUSH20 0xFFFFFFFFFFFFFFFFFFFFFFFFFFFFFFFFFFFFFFFF DUP3 AND SWAP1 POP SWAP2 SWAP1 POP JUMP JUMPDEST PUSH1 0x0 DUP2 SWAP1 POP SWAP2 SWAP1 POP JUMP JUMPDEST DUP3 DUP2 DUP4 CALLDATACOPY PUSH1 0x0 DUP4 DUP4 ADD MSTORE POP POP POP JUMP JUMPDEST PUSH2 0x108C DUP3 PUSH2 0x1189 JUMP JUMPDEST DUP2 ADD DUP2 DUP2 LT PUSH8 0xFFFFFFFFFFFFFFFF DUP3 GT OR ISZERO PUSH2 0x10AB JUMPI PUSH2 0x10AA PUSH2 0x1141 JUMP JUMPDEST JUMPDEST DUP1 PUSH1 0x40 MSTORE POP POP POP JUMP JUMPDEST PUSH32 0x4E487B7100000000000000000000000000000000000000000000000000000000 PUSH1 0x0 MSTORE PUSH1 0x11 PUSH1 0x4 MSTORE PUSH1 0x24 PUSH1 0x0 REVERT JUMPDEST PUSH32 0x4E487B7100000000000000000000000000000000000000000000000000000000 PUSH1 0x0 MSTORE PUSH1 0x12 PUSH1 0x4 MSTORE PUSH1 0x24 PUSH1 0x0 REVERT JUMPDEST PUSH32 0x4E487B7100000000000000000000000000000000000000000000000000000000 PUSH1 0x0 MSTORE PUSH1 0x32 PUSH1 0x4 MSTORE PUSH1 0x24 PUSH1 0x0 REVERT JUMPDEST PUSH32 0x4E487B7100000000000000000000000000000000000000000000000000000000 PUSH1 0x0 MSTORE PUSH1 0x41 PUSH1 0x4 MSTORE PUSH1 0x24 PUSH1 0x0 REVERT JUMPDEST PUSH1 0x0 DUP1 REVERT JUMPDEST PUSH1 0x0 DUP1 REVERT JUMPDEST PUSH1 0x0 DUP1 REVERT JUMPDEST PUSH1 0x0 DUP1 REVERT JUMPDEST PUSH1 0x0 DUP1 REVERT JUMPDEST PUSH1 0x0 PUSH1 0x1F NOT PUSH1 0x1F DUP4 ADD AND SWAP1 POP SWAP2 SWAP1 POP JUMP JUMPDEST PUSH32 0x436F756E7465723A2064656372656D656E74206F766572666C6F770000000000 PUSH1 0x0 DUP3 ADD MSTORE POP JUMP JUMPDEST PUSH32 0x4F776E61626C653A206E6577206F776E657220697320746865207A65726F2061 PUSH1 0x0 DUP3 ADD MSTORE PUSH32 0x6464726573730000000000000000000000000000000000000000000000000000 PUSH1 0x20 DUP3 ADD MSTORE POP JUMP JUMPDEST PUSH32 0x4F776E61626C653A2063616C6C6572206973206E6F7420746865206F776E6572 PUSH1 0x0 DUP3 ADD MSTORE POP JUMP JUMPDEST POP JUMP JUMPDEST PUSH32 0x596F7520617265206E6F7420746865206F776E65722E00000000000000000000 PUSH1 0x0 DUP3 ADD MSTORE POP JUMP JUMPDEST PUSH32 0x5265656E7472616E637947756172643A207265656E7472616E742063616C6C00 PUSH1 0x0 DUP3 ADD MSTORE POP JUMP JUMPDEST PUSH2 0x1299 DUP2 PUSH2 0x100C JUMP JUMPDEST DUP2 EQ PUSH2 0x12A4 JUMPI PUSH1 0x0 DUP1 REVERT JUMPDEST POP JUMP JUMPDEST PUSH2 0x12B0 DUP2 PUSH2 0x106A JUMP JUMPDEST DUP2 EQ PUSH2 0x12BB JUMPI PUSH1 0x0 DUP1 REVERT JUMPDEST POP JUMP INVALID LOG2 PUSH5 0x6970667358 0x22 SLT KECCAK256 0x1E SWAP8 SWAP9 MOD DUP14 0xE7 GASPRICE PUSH23 0xC482597CB6C54D8ED22CEFDE7E562E8AA13B45EA5191EE 0xD3 PUSH5 0x736F6C6343 STOP ADDMOD SMOD STOP CALLER "
				},
				"gasEstimates": {
					"creation": {
						"codeDepositCost": "970400",
						"executionCost": "infinite",
						"totalCost": "infinite"
					},
					"external": {
						"onERC721Received(address,address,uint256,bytes)": "infinite",
						"owner()": "2522",
						"renounceOwnership()": "30443",
						"rewards(uint256)": "infinite",
						"setNftContact(address)": "27074",
						"stake(uint256)": "infinite",
						"tokenOwnedBy(uint256)": "2906",
						"transferOwnership(address)": "30791",
						"unstake(uint256)": "infinite"
					}
				},
				"methodIdentifiers": {
					"onERC721Received(address,address,uint256,bytes)": "150b7a02",
					"owner()": "8da5cb5b",
					"renounceOwnership()": "715018a6",
					"rewards(uint256)": "f301af42",
					"setNftContact(address)": "fd71c650",
					"stake(uint256)": "a694fc3a",
					"tokenOwnedBy(uint256)": "8488cc41",
					"transferOwnership(address)": "f2fde38b",
					"unstake(uint256)": "2e17de78"
				}
			},
			"storageLayout": {
				"storage": [
					{
						"astId": 7,
						"contract": "contracts/NFTStaking.sol:SacredTemple",
						"label": "_owner",
						"offset": 0,
						"slot": "0",
						"type": "t_address"
					},
					{
						"astId": 123,
						"contract": "contracts/NFTStaking.sol:SacredTemple",
						"label": "_status",
						"offset": 0,
						"slot": "1",
						"type": "t_uint256"
					},
					{
						"astId": 445,
						"contract": "contracts/NFTStaking.sol:SacredTemple",
						"label": "_nftContract",
						"offset": 0,
						"slot": "2",
						"type": "t_address"
					},
					{
						"astId": 452,
						"contract": "contracts/NFTStaking.sol:SacredTemple",
						"label": "_stakedNFTCounter",
						"offset": 0,
						"slot": "3",
						"type": "t_struct(Counter)341_storage"
					},
					{
						"astId": 478,
						"contract": "contracts/NFTStaking.sol:SacredTemple",
						"label": "tokenOwnedBy",
						"offset": 0,
						"slot": "4",
						"type": "t_mapping(t_uint256,t_address)"
					},
					{
						"astId": 482,
						"contract": "contracts/NFTStaking.sol:SacredTemple",
						"label": "rewards",
						"offset": 0,
						"slot": "5",
						"type": "t_mapping(t_uint256,t_uint256)"
					},
					{
						"astId": 485,
						"contract": "contracts/NFTStaking.sol:SacredTemple",
						"label": "tokenStaked",
						"offset": 0,
						"slot": "6",
						"type": "t_array(t_uint256)dyn_storage"
					}
				],
				"types": {
					"t_address": {
						"encoding": "inplace",
						"label": "address",
						"numberOfBytes": "20"
					},
					"t_array(t_uint256)dyn_storage": {
						"base": "t_uint256",
						"encoding": "dynamic_array",
						"label": "uint256[]",
						"numberOfBytes": "32"
					},
					"t_mapping(t_uint256,t_address)": {
						"encoding": "mapping",
						"key": "t_uint256",
						"label": "mapping(uint256 => address)",
						"numberOfBytes": "32",
						"value": "t_address"
					},
					"t_mapping(t_uint256,t_uint256)": {
						"encoding": "mapping",
						"key": "t_uint256",
						"label": "mapping(uint256 => uint256)",
						"numberOfBytes": "32",
						"value": "t_uint256"
					},
					"t_struct(Counter)341_storage": {
						"encoding": "inplace",
						"label": "struct Counters.Counter",
						"members": [
							{
								"astId": 340,
								"contract": "contracts/NFTStaking.sol:SacredTemple",
								"label": "_value",
								"offset": 0,
								"slot": "0",
								"type": "t_uint256"
							}
						],
						"numberOfBytes": "32"
					},
					"t_uint256": {
						"encoding": "inplace",
						"label": "uint256",
						"numberOfBytes": "32"
					}
				}
			},
			"userdoc": {
				"kind": "user",
				"methods": {},
				"version": 1
			}
		}
	}
}