{
	"contracts/NFTStaking.sol": {
		"SacredTemple": {
			"abi": [
				{
					"inputs": [
						{
							"internalType": "address",
							"name": "nftContract_",
							"type": "address"
						}
					],
					"stateMutability": "nonpayable",
					"type": "constructor"
				},
				{
					"anonymous": false,
					"inputs": [
						{
							"indexed": false,
							"internalType": "address",
							"name": "owner",
							"type": "address"
						},
						{
							"indexed": false,
							"internalType": "uint256",
							"name": "amount",
							"type": "uint256"
						}
					],
					"name": "Claimed",
					"type": "event"
				},
				{
					"anonymous": false,
					"inputs": [
						{
							"indexed": false,
							"internalType": "address",
							"name": "owner",
							"type": "address"
						},
						{
							"indexed": false,
							"internalType": "uint256",
							"name": "tokenId",
							"type": "uint256"
						},
						{
							"indexed": false,
							"internalType": "uint256",
							"name": "value",
							"type": "uint256"
						}
					],
					"name": "NFTStaked",
					"type": "event"
				},
				{
					"anonymous": false,
					"inputs": [
						{
							"indexed": false,
							"internalType": "address",
							"name": "owner",
							"type": "address"
						},
						{
							"indexed": false,
							"internalType": "uint256",
							"name": "tokenId",
							"type": "uint256"
						},
						{
							"indexed": false,
							"internalType": "uint256",
							"name": "value",
							"type": "uint256"
						}
					],
					"name": "NFTUnstaked",
					"type": "event"
				},
				{
					"anonymous": false,
					"inputs": [
						{
							"indexed": true,
							"internalType": "address",
							"name": "previousOwner",
							"type": "address"
						},
						{
							"indexed": true,
							"internalType": "address",
							"name": "newOwner",
							"type": "address"
						}
					],
					"name": "OwnershipTransferred",
					"type": "event"
				},
				{
					"inputs": [
						{
							"internalType": "address",
							"name": "",
							"type": "address"
						},
						{
							"internalType": "address",
							"name": "",
							"type": "address"
						},
						{
							"internalType": "uint256",
							"name": "",
							"type": "uint256"
						},
						{
							"internalType": "bytes",
							"name": "",
							"type": "bytes"
						}
					],
					"name": "onERC721Received",
					"outputs": [
						{
							"internalType": "bytes4",
							"name": "",
							"type": "bytes4"
						}
					],
					"stateMutability": "nonpayable",
					"type": "function"
				},
				{
					"inputs": [],
					"name": "owner",
					"outputs": [
						{
							"internalType": "address",
							"name": "",
							"type": "address"
						}
					],
					"stateMutability": "view",
					"type": "function"
				},
				{
					"inputs": [],
					"name": "renounceOwnership",
					"outputs": [],
					"stateMutability": "nonpayable",
					"type": "function"
				},
				{
					"inputs": [
						{
							"internalType": "uint256",
							"name": "",
							"type": "uint256"
						}
					],
					"name": "rewards",
					"outputs": [
						{
							"internalType": "uint256",
							"name": "",
							"type": "uint256"
						}
					],
					"stateMutability": "view",
					"type": "function"
				},
				{
					"inputs": [
						{
							"internalType": "address",
							"name": "nftContract_",
							"type": "address"
						}
					],
					"name": "setNftContact",
					"outputs": [],
					"stateMutability": "nonpayable",
					"type": "function"
				},
				{
					"inputs": [
						{
							"internalType": "uint256",
							"name": "tokenId",
							"type": "uint256"
						}
					],
					"name": "stake",
					"outputs": [],
					"stateMutability": "nonpayable",
					"type": "function"
				},
				{
					"inputs": [
						{
							"internalType": "uint256",
							"name": "",
							"type": "uint256"
						}
					],
					"name": "tokenOwnedBy",
					"outputs": [
						{
							"internalType": "address",
							"name": "",
							"type": "address"
						}
					],
					"stateMutability": "view",
					"type": "function"
				},
				{
					"inputs": [
						{
							"internalType": "address",
							"name": "newOwner",
							"type": "address"
						}
					],
					"name": "transferOwnership",
					"outputs": [],
					"stateMutability": "nonpayable",
					"type": "function"
				},
				{
					"inputs": [
						{
							"internalType": "uint256",
							"name": "tokenId",
							"type": "uint256"
						}
					],
					"name": "unstake",
					"outputs": [],
					"stateMutability": "nonpayable",
					"type": "function"
				},
				{
					"stateMutability": "payable",
					"type": "receive"
				}
			],
			"devdoc": {
				"kind": "dev",
				"methods": {
					"onERC721Received(address,address,uint256,bytes)": {
						"details": "See {IERC721Receiver-onERC721Received}. Always returns `IERC721Receiver.onERC721Received.selector`."
					},
					"owner()": {
						"details": "Returns the address of the current owner."
					},
					"renounceOwnership()": {
						"details": "Leaves the contract without owner. It will not be possible to call `onlyOwner` functions anymore. Can only be called by the current owner. NOTE: Renouncing ownership will leave the contract without an owner, thereby removing any functionality that is only available to the owner."
					},
					"transferOwnership(address)": {
						"details": "Transfers ownership of the contract to a new account (`newOwner`). Can only be called by the current owner."
					}
				},
				"version": 1
			},
			"evm": {
				"assembly": "    /* \"contracts/NFTStaking.sol\":490:2113  contract SacredTemple is Ownable, ERC721Holder, ReentrancyGuard {... */\n  mstore(0x40, 0x80)\n    /* \"contracts/NFTStaking.sol\":997:1076  constructor (address nftContract_) {... */\n  callvalue\n  dup1\n  iszero\n  tag_1\n  jumpi\n  0x00\n  dup1\n  revert\ntag_1:\n  pop\n  mload(0x40)\n  sub(codesize, bytecodeSize)\n  dup1\n  bytecodeSize\n  dup4\n  codecopy\n  dup2\n  dup2\n  add\n  0x40\n  mstore\n  dup2\n  add\n  swap1\n  tag_2\n  swap2\n  swap1\n  tag_3\n  jump\t// in\ntag_2:\n    /* \"@openzeppelin/contracts@4.7.3/access/Ownable.sol\":936:968  _transferOwnership(_msgSender()) */\n  tag_8\n    /* \"@openzeppelin/contracts@4.7.3/access/Ownable.sol\":955:967  _msgSender() */\n  tag_9\n    /* \"@openzeppelin/contracts@4.7.3/access/Ownable.sol\":955:965  _msgSender */\n  shl(0x20, tag_10)\n    /* \"@openzeppelin/contracts@4.7.3/access/Ownable.sol\":955:967  _msgSender() */\n  0x20\n  shr\n  jump\t// in\ntag_9:\n    /* \"@openzeppelin/contracts@4.7.3/access/Ownable.sol\":936:954  _transferOwnership */\n  shl(0x20, tag_11)\n    /* \"@openzeppelin/contracts@4.7.3/access/Ownable.sol\":936:968  _transferOwnership(_msgSender()) */\n  0x20\n  shr\n  jump\t// in\ntag_8:\n    /* \"@openzeppelin/contracts@4.7.3/security/ReentrancyGuard.sol\":1701:1702  1 */\n  0x01\n    /* \"@openzeppelin/contracts@4.7.3/security/ReentrancyGuard.sol\":1806:1813  _status */\n  dup1\n    /* \"@openzeppelin/contracts@4.7.3/security/ReentrancyGuard.sol\":1806:1828  _status = _NOT_ENTERED */\n  dup2\n  swap1\n  sstore\n  pop\n    /* \"contracts/NFTStaking.sol\":1057:1069  nftContract_ */\n  dup1\n    /* \"contracts/NFTStaking.sol\":1042:1054  _nftContract */\n  0x02\n  0x00\n    /* \"contracts/NFTStaking.sol\":1042:1069  _nftContract = nftContract_ */\n  0x0100\n  exp\n  dup2\n  sload\n  dup2\n  0xffffffffffffffffffffffffffffffffffffffff\n  mul\n  not\n  and\n  swap1\n  dup4\n  0xffffffffffffffffffffffffffffffffffffffff\n  and\n  mul\n  or\n  swap1\n  sstore\n  pop\n    /* \"contracts/NFTStaking.sol\":997:1076  constructor (address nftContract_) {... */\n  pop\n    /* \"contracts/NFTStaking.sol\":490:2113  contract SacredTemple is Ownable, ERC721Holder, ReentrancyGuard {... */\n  jump(tag_14)\n    /* \"@openzeppelin/contracts@4.7.3/utils/Context.sol\":640:736  function _msgSender() internal view virtual returns (address) {... */\ntag_10:\n    /* \"@openzeppelin/contracts@4.7.3/utils/Context.sol\":693:700  address */\n  0x00\n    /* \"@openzeppelin/contracts@4.7.3/utils/Context.sol\":719:729  msg.sender */\n  caller\n    /* \"@openzeppelin/contracts@4.7.3/utils/Context.sol\":712:729  return msg.sender */\n  swap1\n  pop\n    /* \"@openzeppelin/contracts@4.7.3/utils/Context.sol\":640:736  function _msgSender() internal view virtual returns (address) {... */\n  swap1\n  jump\t// out\n    /* \"@openzeppelin/contracts@4.7.3/access/Ownable.sol\":2433:2620  function _transferOwnership(address newOwner) internal virtual {... */\ntag_11:\n    /* \"@openzeppelin/contracts@4.7.3/access/Ownable.sol\":2506:2522  address oldOwner */\n  0x00\n    /* \"@openzeppelin/contracts@4.7.3/access/Ownable.sol\":2525:2531  _owner */\n  dup1\n  0x00\n  swap1\n  sload\n  swap1\n  0x0100\n  exp\n  swap1\n  div\n  0xffffffffffffffffffffffffffffffffffffffff\n  and\n    /* \"@openzeppelin/contracts@4.7.3/access/Ownable.sol\":2506:2531  address oldOwner = _owner */\n  swap1\n  pop\n    /* \"@openzeppelin/contracts@4.7.3/access/Ownable.sol\":2550:2558  newOwner */\n  dup2\n    /* \"@openzeppelin/contracts@4.7.3/access/Ownable.sol\":2541:2547  _owner */\n  0x00\n  dup1\n    /* \"@openzeppelin/contracts@4.7.3/access/Ownable.sol\":2541:2558  _owner = newOwner */\n  0x0100\n  exp\n  dup2\n  sload\n  dup2\n  0xffffffffffffffffffffffffffffffffffffffff\n  mul\n  not\n  and\n  swap1\n  dup4\n  0xffffffffffffffffffffffffffffffffffffffff\n  and\n  mul\n  or\n  swap1\n  sstore\n  pop\n    /* \"@openzeppelin/contracts@4.7.3/access/Ownable.sol\":2604:2612  newOwner */\n  dup2\n    /* \"@openzeppelin/contracts@4.7.3/access/Ownable.sol\":2573:2613  OwnershipTransferred(oldOwner, newOwner) */\n  0xffffffffffffffffffffffffffffffffffffffff\n  and\n    /* \"@openzeppelin/contracts@4.7.3/access/Ownable.sol\":2594:2602  oldOwner */\n  dup2\n    /* \"@openzeppelin/contracts@4.7.3/access/Ownable.sol\":2573:2613  OwnershipTransferred(oldOwner, newOwner) */\n  0xffffffffffffffffffffffffffffffffffffffff\n  and\n  0x8be0079c531659141344cd1fd0a4f28419497f9722a3daafe3b4186f6b6457e0\n  mload(0x40)\n  mload(0x40)\n  dup1\n  swap2\n  sub\n  swap1\n  log3\n    /* \"@openzeppelin/contracts@4.7.3/access/Ownable.sol\":2496:2620  {... */\n  pop\n    /* \"@openzeppelin/contracts@4.7.3/access/Ownable.sol\":2433:2620  function _transferOwnership(address newOwner) internal virtual {... */\n  pop\n  jump\t// out\n    /* \"#utility.yul\":7:150   */\ntag_18:\n    /* \"#utility.yul\":64:69   */\n  0x00\n    /* \"#utility.yul\":95:101   */\n  dup2\n    /* \"#utility.yul\":89:102   */\n  mload\n    /* \"#utility.yul\":80:102   */\n  swap1\n  pop\n    /* \"#utility.yul\":111:144   */\n  tag_20\n    /* \"#utility.yul\":138:143   */\n  dup2\n    /* \"#utility.yul\":111:144   */\n  tag_21\n  jump\t// in\ntag_20:\n    /* \"#utility.yul\":7:150   */\n  swap3\n  swap2\n  pop\n  pop\n  jump\t// out\n    /* \"#utility.yul\":156:507   */\ntag_3:\n    /* \"#utility.yul\":226:232   */\n  0x00\n    /* \"#utility.yul\":275:277   */\n  0x20\n    /* \"#utility.yul\":263:272   */\n  dup3\n    /* \"#utility.yul\":254:261   */\n  dup5\n    /* \"#utility.yul\":250:273   */\n  sub\n    /* \"#utility.yul\":246:278   */\n  slt\n    /* \"#utility.yul\":243:362   */\n  iszero\n  tag_23\n  jumpi\n    /* \"#utility.yul\":281:360   */\n  tag_24\n  tag_25\n  jump\t// in\ntag_24:\n    /* \"#utility.yul\":243:362   */\ntag_23:\n    /* \"#utility.yul\":401:402   */\n  0x00\n    /* \"#utility.yul\":426:490   */\n  tag_26\n    /* \"#utility.yul\":482:489   */\n  dup5\n    /* \"#utility.yul\":473:479   */\n  dup3\n    /* \"#utility.yul\":462:471   */\n  dup6\n    /* \"#utility.yul\":458:480   */\n  add\n    /* \"#utility.yul\":426:490   */\n  tag_18\n  jump\t// in\ntag_26:\n    /* \"#utility.yul\":416:490   */\n  swap2\n  pop\n    /* \"#utility.yul\":372:500   */\n  pop\n    /* \"#utility.yul\":156:507   */\n  swap3\n  swap2\n  pop\n  pop\n  jump\t// out\n    /* \"#utility.yul\":594:690   */\ntag_29:\n    /* \"#utility.yul\":631:638   */\n  0x00\n    /* \"#utility.yul\":660:684   */\n  tag_31\n    /* \"#utility.yul\":678:683   */\n  dup3\n    /* \"#utility.yul\":660:684   */\n  tag_32\n  jump\t// in\ntag_31:\n    /* \"#utility.yul\":649:684   */\n  swap1\n  pop\n    /* \"#utility.yul\":594:690   */\n  swap2\n  swap1\n  pop\n  jump\t// out\n    /* \"#utility.yul\":696:822   */\ntag_32:\n    /* \"#utility.yul\":733:740   */\n  0x00\n    /* \"#utility.yul\":773:815   */\n  0xffffffffffffffffffffffffffffffffffffffff\n    /* \"#utility.yul\":766:771   */\n  dup3\n    /* \"#utility.yul\":762:816   */\n  and\n    /* \"#utility.yul\":751:816   */\n  swap1\n  pop\n    /* \"#utility.yul\":696:822   */\n  swap2\n  swap1\n  pop\n  jump\t// out\n    /* \"#utility.yul\":951:1068   */\ntag_25:\n    /* \"#utility.yul\":1060:1061   */\n  0x00\n    /* \"#utility.yul\":1057:1058   */\n  dup1\n    /* \"#utility.yul\":1050:1062   */\n  revert\n    /* \"#utility.yul\":1074:1196   */\ntag_21:\n    /* \"#utility.yul\":1147:1171   */\n  tag_38\n    /* \"#utility.yul\":1165:1170   */\n  dup2\n    /* \"#utility.yul\":1147:1171   */\n  tag_29\n  jump\t// in\ntag_38:\n    /* \"#utility.yul\":1140:1145   */\n  dup2\n    /* \"#utility.yul\":1137:1172   */\n  eq\n    /* \"#utility.yul\":1127:1190   */\n  tag_39\n  jumpi\n    /* \"#utility.yul\":1186:1187   */\n  0x00\n    /* \"#utility.yul\":1183:1184   */\n  dup1\n    /* \"#utility.yul\":1176:1188   */\n  revert\n    /* \"#utility.yul\":1127:1190   */\ntag_39:\n    /* \"#utility.yul\":1074:1196   */\n  pop\n  jump\t// out\n    /* \"contracts/NFTStaking.sol\":490:2113  contract SacredTemple is Ownable, ERC721Holder, ReentrancyGuard {... */\ntag_14:\n  dataSize(sub_0)\n  dup1\n  dataOffset(sub_0)\n  0x00\n  codecopy\n  0x00\n  return\nstop\n\nsub_0: assembly {\n        /* \"contracts/NFTStaking.sol\":490:2113  contract SacredTemple is Ownable, ERC721Holder, ReentrancyGuard {... */\n      mstore(0x40, 0x80)\n      jumpi(tag_1, lt(calldatasize, 0x04))\n      shr(0xe0, calldataload(0x00))\n      dup1\n      0x8da5cb5b\n      gt\n      tag_12\n      jumpi\n      dup1\n      0x8da5cb5b\n      eq\n      tag_7\n      jumpi\n      dup1\n      0xa694fc3a\n      eq\n      tag_8\n      jumpi\n      dup1\n      0xf2fde38b\n      eq\n      tag_9\n      jumpi\n      dup1\n      0xf301af42\n      eq\n      tag_10\n      jumpi\n      dup1\n      0xfd71c650\n      eq\n      tag_11\n      jumpi\n      jump(tag_2)\n    tag_12:\n      dup1\n      0x150b7a02\n      eq\n      tag_3\n      jumpi\n      dup1\n      0x2e17de78\n      eq\n      tag_4\n      jumpi\n      dup1\n      0x715018a6\n      eq\n      tag_5\n      jumpi\n      dup1\n      0x8488cc41\n      eq\n      tag_6\n      jumpi\n      jump(tag_2)\n    tag_1:\n      jumpi(tag_2, calldatasize)\n        /* \"contracts/NFTStaking.sol\":1799:1819  uint256 sharePerEach */\n      0x00\n        /* \"contracts/NFTStaking.sol\":1834:1861  _stakedNFTCounter.current() */\n      tag_15\n        /* \"contracts/NFTStaking.sol\":1834:1851  _stakedNFTCounter */\n      0x03\n        /* \"contracts/NFTStaking.sol\":1834:1859  _stakedNFTCounter.current */\n      tag_16\n        /* \"contracts/NFTStaking.sol\":1834:1861  _stakedNFTCounter.current() */\n      jump\t// in\n    tag_15:\n        /* \"contracts/NFTStaking.sol\":1822:1831  msg.value */\n      callvalue\n        /* \"contracts/NFTStaking.sol\":1822:1861  msg.value / _stakedNFTCounter.current() */\n      tag_17\n      swap2\n      swap1\n      tag_18\n      jump\t// in\n    tag_17:\n        /* \"contracts/NFTStaking.sol\":1799:1861  uint256 sharePerEach = msg.value / _stakedNFTCounter.current() */\n      swap1\n      pop\n        /* \"contracts/NFTStaking.sol\":1871:1900  uint256[] memory tokensStaked */\n      0x00\n        /* \"contracts/NFTStaking.sol\":1907:1919  _nftContract */\n      0x02\n      0x00\n      swap1\n      sload\n      swap1\n      0x0100\n      exp\n      swap1\n      div\n      0xffffffffffffffffffffffffffffffffffffffff\n      and\n        /* \"contracts/NFTStaking.sol\":1903:1934  NFT(_nftContract).walletOfOwner */\n      0xffffffffffffffffffffffffffffffffffffffff\n      and\n      0x438b6300\n        /* \"contracts/NFTStaking.sol\":1943:1947  this */\n      address\n        /* \"contracts/NFTStaking.sol\":1903:1949  NFT(_nftContract).walletOfOwner(address(this)) */\n      mload(0x40)\n      dup3\n      0xffffffff\n      and\n      0xe0\n      shl\n      dup2\n      mstore\n      0x04\n      add\n      tag_19\n      swap2\n      swap1\n      tag_20\n      jump\t// in\n    tag_19:\n      0x00\n      mload(0x40)\n      dup1\n      dup4\n      sub\n      dup2\n      dup7\n      dup1\n      extcodesize\n      iszero\n      dup1\n      iszero\n      tag_21\n      jumpi\n      0x00\n      dup1\n      revert\n    tag_21:\n      pop\n      gas\n      staticcall\n      iszero\n      dup1\n      iszero\n      tag_23\n      jumpi\n      returndatasize\n      0x00\n      dup1\n      returndatacopy\n      revert(0x00, returndatasize)\n    tag_23:\n      pop\n      pop\n      pop\n      pop\n      mload(0x40)\n      returndatasize\n      0x00\n      dup3\n      returndatacopy\n      returndatasize\n      not(0x1f)\n      0x1f\n      dup3\n      add\n      and\n      dup3\n      add\n      dup1\n      0x40\n      mstore\n      pop\n      dup2\n      add\n      swap1\n      tag_24\n      swap2\n      swap1\n      tag_25\n      jump\t// in\n    tag_24:\n        /* \"contracts/NFTStaking.sol\":1871:1949  uint256[] memory tokensStaked = NFT(_nftContract).walletOfOwner(address(this)) */\n      swap1\n      pop\n        /* \"contracts/NFTStaking.sol\":1972:1981  uint256 i */\n      0x00\n        /* \"contracts/NFTStaking.sol\":1968:2105  for(uint256 i = 0; i < tokensStaked.length;){... */\n    tag_26:\n        /* \"contracts/NFTStaking.sol\":1991:2003  tokensStaked */\n      dup2\n        /* \"contracts/NFTStaking.sol\":1991:2010  tokensStaked.length */\n      mload\n        /* \"contracts/NFTStaking.sol\":1987:1988  i */\n      dup2\n        /* \"contracts/NFTStaking.sol\":1987:2010  i < tokensStaked.length */\n      lt\n        /* \"contracts/NFTStaking.sol\":1968:2105  for(uint256 i = 0; i < tokensStaked.length;){... */\n      iszero\n      tag_27\n      jumpi\n        /* \"contracts/NFTStaking.sol\":2053:2065  sharePerEach */\n      dup3\n        /* \"contracts/NFTStaking.sol\":2026:2033  rewards */\n      0x05\n        /* \"contracts/NFTStaking.sol\":2026:2049  rewards[tokenStaked[i]] */\n      0x00\n        /* \"contracts/NFTStaking.sol\":2034:2045  tokenStaked */\n      0x06\n        /* \"contracts/NFTStaking.sol\":2046:2047  i */\n      dup5\n        /* \"contracts/NFTStaking.sol\":2034:2048  tokenStaked[i] */\n      dup2\n      sload\n      dup2\n      lt\n      tag_29\n      jumpi\n      tag_30\n      tag_31\n      jump\t// in\n    tag_30:\n    tag_29:\n      swap1\n      0x00\n      mstore\n      keccak256(0x00, 0x20)\n      add\n      sload\n        /* \"contracts/NFTStaking.sol\":2026:2049  rewards[tokenStaked[i]] */\n      dup2\n      mstore\n      0x20\n      add\n      swap1\n      dup2\n      mstore\n      0x20\n      add\n      0x00\n      keccak256\n      0x00\n        /* \"contracts/NFTStaking.sol\":2026:2065  rewards[tokenStaked[i]] += sharePerEach */\n      dup3\n      dup3\n      sload\n      tag_33\n      swap2\n      swap1\n      tag_34\n      jump\t// in\n    tag_33:\n      swap3\n      pop\n      pop\n      dup2\n      swap1\n      sstore\n      pop\n        /* \"contracts/NFTStaking.sol\":2090:2093  ++i */\n      dup1\n      0x01\n      add\n      swap1\n      pop\n        /* \"contracts/NFTStaking.sol\":1968:2105  for(uint256 i = 0; i < tokensStaked.length;){... */\n      jump(tag_26)\n    tag_27:\n      pop\n        /* \"contracts/NFTStaking.sol\":1789:2111  {... */\n      pop\n      pop\n        /* \"contracts/NFTStaking.sol\":490:2113  contract SacredTemple is Ownable, ERC721Holder, ReentrancyGuard {... */\n      stop\n    tag_2:\n      0x00\n      dup1\n      revert\n        /* \"@openzeppelin/contracts@4.7.3/token/ERC721/utils/ERC721Holder.sol\":588:788  function onERC721Received(... */\n    tag_3:\n      callvalue\n      dup1\n      iszero\n      tag_35\n      jumpi\n      0x00\n      dup1\n      revert\n    tag_35:\n      pop\n      tag_36\n      0x04\n      dup1\n      calldatasize\n      sub\n      dup2\n      add\n      swap1\n      tag_37\n      swap2\n      swap1\n      tag_38\n      jump\t// in\n    tag_37:\n      tag_39\n      jump\t// in\n    tag_36:\n      mload(0x40)\n      tag_40\n      swap2\n      swap1\n      tag_41\n      jump\t// in\n    tag_40:\n      mload(0x40)\n      dup1\n      swap2\n      sub\n      swap1\n      return\n        /* \"contracts/NFTStaking.sol\":1452:1756  function unstake(uint256 tokenId) nonReentrant external {... */\n    tag_4:\n      callvalue\n      dup1\n      iszero\n      tag_42\n      jumpi\n      0x00\n      dup1\n      revert\n    tag_42:\n      pop\n      tag_43\n      0x04\n      dup1\n      calldatasize\n      sub\n      dup2\n      add\n      swap1\n      tag_44\n      swap2\n      swap1\n      tag_45\n      jump\t// in\n    tag_44:\n      tag_46\n      jump\t// in\n    tag_43:\n      stop\n        /* \"@openzeppelin/contracts@4.7.3/access/Ownable.sol\":1831:1932  function renounceOwnership() public virtual onlyOwner {... */\n    tag_5:\n      callvalue\n      dup1\n      iszero\n      tag_47\n      jumpi\n      0x00\n      dup1\n      revert\n    tag_47:\n      pop\n      tag_48\n      tag_49\n      jump\t// in\n    tag_48:\n      stop\n        /* \"contracts/NFTStaking.sol\":866:914  mapping (uint256 => address) public tokenOwnedBy */\n    tag_6:\n      callvalue\n      dup1\n      iszero\n      tag_50\n      jumpi\n      0x00\n      dup1\n      revert\n    tag_50:\n      pop\n      tag_51\n      0x04\n      dup1\n      calldatasize\n      sub\n      dup2\n      add\n      swap1\n      tag_52\n      swap2\n      swap1\n      tag_45\n      jump\t// in\n    tag_52:\n      tag_53\n      jump\t// in\n    tag_51:\n      mload(0x40)\n      tag_54\n      swap2\n      swap1\n      tag_20\n      jump\t// in\n    tag_54:\n      mload(0x40)\n      dup1\n      swap2\n      sub\n      swap1\n      return\n        /* \"@openzeppelin/contracts@4.7.3/access/Ownable.sol\":1201:1286  function owner() public view virtual returns (address) {... */\n    tag_7:\n      callvalue\n      dup1\n      iszero\n      tag_55\n      jumpi\n      0x00\n      dup1\n      revert\n    tag_55:\n      pop\n      tag_56\n      tag_57\n      jump\t// in\n    tag_56:\n      mload(0x40)\n      tag_58\n      swap2\n      swap1\n      tag_20\n      jump\t// in\n    tag_58:\n      mload(0x40)\n      dup1\n      swap2\n      sub\n      swap1\n      return\n        /* \"contracts/NFTStaking.sol\":1196:1446  function stake(uint256 tokenId) external {... */\n    tag_8:\n      callvalue\n      dup1\n      iszero\n      tag_59\n      jumpi\n      0x00\n      dup1\n      revert\n    tag_59:\n      pop\n      tag_60\n      0x04\n      dup1\n      calldatasize\n      sub\n      dup2\n      add\n      swap1\n      tag_61\n      swap2\n      swap1\n      tag_45\n      jump\t// in\n    tag_61:\n      tag_62\n      jump\t// in\n    tag_60:\n      stop\n        /* \"@openzeppelin/contracts@4.7.3/access/Ownable.sol\":2081:2279  function transferOwnership(address newOwner) public virtual onlyOwner {... */\n    tag_9:\n      callvalue\n      dup1\n      iszero\n      tag_63\n      jumpi\n      0x00\n      dup1\n      revert\n    tag_63:\n      pop\n      tag_64\n      0x04\n      dup1\n      calldatasize\n      sub\n      dup2\n      add\n      swap1\n      tag_65\n      swap2\n      swap1\n      tag_66\n      jump\t// in\n    tag_65:\n      tag_67\n      jump\t// in\n    tag_64:\n      stop\n        /* \"contracts/NFTStaking.sol\":920:963  mapping (uint256 => uint256) public rewards */\n    tag_10:\n      callvalue\n      dup1\n      iszero\n      tag_68\n      jumpi\n      0x00\n      dup1\n      revert\n    tag_68:\n      pop\n      tag_69\n      0x04\n      dup1\n      calldatasize\n      sub\n      dup2\n      add\n      swap1\n      tag_70\n      swap2\n      swap1\n      tag_45\n      jump\t// in\n    tag_70:\n      tag_71\n      jump\t// in\n    tag_69:\n      mload(0x40)\n      tag_72\n      swap2\n      swap1\n      tag_73\n      jump\t// in\n    tag_72:\n      mload(0x40)\n      dup1\n      swap2\n      sub\n      swap1\n      return\n        /* \"contracts/NFTStaking.sol\":1082:1190  function setNftContact(address nftContract_) external onlyOwner {... */\n    tag_11:\n      callvalue\n      dup1\n      iszero\n      tag_74\n      jumpi\n      0x00\n      dup1\n      revert\n    tag_74:\n      pop\n      tag_75\n      0x04\n      dup1\n      calldatasize\n      sub\n      dup2\n      add\n      swap1\n      tag_76\n      swap2\n      swap1\n      tag_66\n      jump\t// in\n    tag_76:\n      tag_77\n      jump\t// in\n    tag_75:\n      stop\n        /* \"@openzeppelin/contracts@4.7.3/utils/Counters.sol\":827:939  function current(Counter storage counter) internal view returns (uint256) {... */\n    tag_16:\n        /* \"@openzeppelin/contracts@4.7.3/utils/Counters.sol\":892:899  uint256 */\n      0x00\n        /* \"@openzeppelin/contracts@4.7.3/utils/Counters.sol\":918:925  counter */\n      dup2\n        /* \"@openzeppelin/contracts@4.7.3/utils/Counters.sol\":918:932  counter._value */\n      0x00\n      add\n      sload\n        /* \"@openzeppelin/contracts@4.7.3/utils/Counters.sol\":911:932  return counter._value */\n      swap1\n      pop\n        /* \"@openzeppelin/contracts@4.7.3/utils/Counters.sol\":827:939  function current(Counter storage counter) internal view returns (uint256) {... */\n      swap2\n      swap1\n      pop\n      jump\t// out\n        /* \"@openzeppelin/contracts@4.7.3/token/ERC721/utils/ERC721Holder.sol\":588:788  function onERC721Received(... */\n    tag_39:\n        /* \"@openzeppelin/contracts@4.7.3/token/ERC721/utils/ERC721Holder.sol\":726:732  bytes4 */\n      0x00\n        /* \"@openzeppelin/contracts@4.7.3/token/ERC721/utils/ERC721Holder.sol\":751:781  this.onERC721Received.selector */\n      shl(0xe0, 0x150b7a02)\n        /* \"@openzeppelin/contracts@4.7.3/token/ERC721/utils/ERC721Holder.sol\":744:781  return this.onERC721Received.selector */\n      swap1\n      pop\n        /* \"@openzeppelin/contracts@4.7.3/token/ERC721/utils/ERC721Holder.sol\":588:788  function onERC721Received(... */\n      swap5\n      swap4\n      pop\n      pop\n      pop\n      pop\n      jump\t// out\n        /* \"contracts/NFTStaking.sol\":1452:1756  function unstake(uint256 tokenId) nonReentrant external {... */\n    tag_46:\n        /* \"@openzeppelin/contracts@4.7.3/security/ReentrancyGuard.sol\":1744:1745  2 */\n      0x02\n        /* \"@openzeppelin/contracts@4.7.3/security/ReentrancyGuard.sol\":2325:2332  _status */\n      sload(0x01)\n        /* \"@openzeppelin/contracts@4.7.3/security/ReentrancyGuard.sol\":2325:2344  _status != _ENTERED */\n      eq\n      iszero\n        /* \"@openzeppelin/contracts@4.7.3/security/ReentrancyGuard.sol\":2317:2380  require(_status != _ENTERED, \"ReentrancyGuard: reentrant call\") */\n      tag_81\n      jumpi\n      mload(0x40)\n      0x08c379a000000000000000000000000000000000000000000000000000000000\n      dup2\n      mstore\n      0x04\n      add\n      tag_82\n      swap1\n      tag_83\n      jump\t// in\n    tag_82:\n      mload(0x40)\n      dup1\n      swap2\n      sub\n      swap1\n      revert\n    tag_81:\n        /* \"@openzeppelin/contracts@4.7.3/security/ReentrancyGuard.sol\":1744:1745  2 */\n      0x02\n        /* \"@openzeppelin/contracts@4.7.3/security/ReentrancyGuard.sol\":2455:2462  _status */\n      0x01\n        /* \"@openzeppelin/contracts@4.7.3/security/ReentrancyGuard.sol\":2455:2473  _status = _ENTERED */\n      dup2\n      swap1\n      sstore\n      pop\n        /* \"contracts/NFTStaking.sol\":1551:1561  msg.sender */\n      caller\n        /* \"contracts/NFTStaking.sol\":1526:1561  tokenOwnedBy[tokenId] == msg.sender */\n      0xffffffffffffffffffffffffffffffffffffffff\n      and\n        /* \"contracts/NFTStaking.sol\":1526:1538  tokenOwnedBy */\n      0x04\n        /* \"contracts/NFTStaking.sol\":1526:1547  tokenOwnedBy[tokenId] */\n      0x00\n        /* \"contracts/NFTStaking.sol\":1539:1546  tokenId */\n      dup4\n        /* \"contracts/NFTStaking.sol\":1526:1547  tokenOwnedBy[tokenId] */\n      dup2\n      mstore\n      0x20\n      add\n      swap1\n      dup2\n      mstore\n      0x20\n      add\n      0x00\n      keccak256\n      0x00\n      swap1\n      sload\n      swap1\n      0x0100\n      exp\n      swap1\n      div\n      0xffffffffffffffffffffffffffffffffffffffff\n      and\n        /* \"contracts/NFTStaking.sol\":1526:1561  tokenOwnedBy[tokenId] == msg.sender */\n      0xffffffffffffffffffffffffffffffffffffffff\n      and\n      eq\n        /* \"contracts/NFTStaking.sol\":1518:1588  require(tokenOwnedBy[tokenId] == msg.sender, \"You are not the owner.\") */\n      tag_85\n      jumpi\n      mload(0x40)\n      0x08c379a000000000000000000000000000000000000000000000000000000000\n      dup2\n      mstore\n      0x04\n      add\n      tag_86\n      swap1\n      tag_87\n      jump\t// in\n    tag_86:\n      mload(0x40)\n      dup1\n      swap2\n      sub\n      swap1\n      revert\n    tag_85:\n        /* \"contracts/NFTStaking.sol\":1605:1617  tokenOwnedBy */\n      0x04\n        /* \"contracts/NFTStaking.sol\":1605:1626  tokenOwnedBy[tokenId] */\n      0x00\n        /* \"contracts/NFTStaking.sol\":1618:1625  tokenId */\n      dup3\n        /* \"contracts/NFTStaking.sol\":1605:1626  tokenOwnedBy[tokenId] */\n      dup2\n      mstore\n      0x20\n      add\n      swap1\n      dup2\n      mstore\n      0x20\n      add\n      0x00\n      keccak256\n      0x00\n        /* \"contracts/NFTStaking.sol\":1598:1626  delete tokenOwnedBy[tokenId] */\n      0x0100\n      exp\n      dup2\n      sload\n      swap1\n      0xffffffffffffffffffffffffffffffffffffffff\n      mul\n      not\n      and\n      swap1\n      sstore\n        /* \"contracts/NFTStaking.sol\":1636:1665  _stakedNFTCounter.decrement() */\n      tag_88\n        /* \"contracts/NFTStaking.sol\":1636:1653  _stakedNFTCounter */\n      0x03\n        /* \"contracts/NFTStaking.sol\":1636:1663  _stakedNFTCounter.decrement */\n      tag_89\n        /* \"contracts/NFTStaking.sol\":1636:1665  _stakedNFTCounter.decrement() */\n      jump\t// in\n    tag_88:\n        /* \"contracts/NFTStaking.sol\":1683:1695  _nftContract */\n      0x02\n      0x00\n      swap1\n      sload\n      swap1\n      0x0100\n      exp\n      swap1\n      div\n      0xffffffffffffffffffffffffffffffffffffffff\n      and\n        /* \"contracts/NFTStaking.sol\":1675:1713  IERC721(_nftContract).safeTransferFrom */\n      0xffffffffffffffffffffffffffffffffffffffff\n      and\n      0x42842e0e\n        /* \"contracts/NFTStaking.sol\":1722:1726  this */\n      address\n        /* \"contracts/NFTStaking.sol\":1729:1739  msg.sender */\n      caller\n        /* \"contracts/NFTStaking.sol\":1741:1748  tokenId */\n      dup5\n        /* \"contracts/NFTStaking.sol\":1675:1749  IERC721(_nftContract).safeTransferFrom(address(this), msg.sender, tokenId) */\n      mload(0x40)\n      dup5\n      0xffffffff\n      and\n      0xe0\n      shl\n      dup2\n      mstore\n      0x04\n      add\n      tag_90\n      swap4\n      swap3\n      swap2\n      swap1\n      tag_91\n      jump\t// in\n    tag_90:\n      0x00\n      mload(0x40)\n      dup1\n      dup4\n      sub\n      dup2\n      0x00\n      dup8\n      dup1\n      extcodesize\n      iszero\n      dup1\n      iszero\n      tag_92\n      jumpi\n      0x00\n      dup1\n      revert\n    tag_92:\n      pop\n      gas\n      call\n      iszero\n      dup1\n      iszero\n      tag_94\n      jumpi\n      returndatasize\n      0x00\n      dup1\n      returndatacopy\n      revert(0x00, returndatasize)\n    tag_94:\n      pop\n      pop\n      pop\n      pop\n        /* \"@openzeppelin/contracts@4.7.3/security/ReentrancyGuard.sol\":1701:1702  1 */\n      0x01\n        /* \"@openzeppelin/contracts@4.7.3/security/ReentrancyGuard.sol\":2628:2635  _status */\n      dup1\n        /* \"@openzeppelin/contracts@4.7.3/security/ReentrancyGuard.sol\":2628:2650  _status = _NOT_ENTERED */\n      dup2\n      swap1\n      sstore\n      pop\n        /* \"contracts/NFTStaking.sol\":1452:1756  function unstake(uint256 tokenId) nonReentrant external {... */\n      pop\n      jump\t// out\n        /* \"@openzeppelin/contracts@4.7.3/access/Ownable.sol\":1831:1932  function renounceOwnership() public virtual onlyOwner {... */\n    tag_49:\n        /* \"@openzeppelin/contracts@4.7.3/access/Ownable.sol\":1094:1107  _checkOwner() */\n      tag_96\n        /* \"@openzeppelin/contracts@4.7.3/access/Ownable.sol\":1094:1105  _checkOwner */\n      tag_97\n        /* \"@openzeppelin/contracts@4.7.3/access/Ownable.sol\":1094:1107  _checkOwner() */\n      jump\t// in\n    tag_96:\n        /* \"@openzeppelin/contracts@4.7.3/access/Ownable.sol\":1895:1925  _transferOwnership(address(0)) */\n      tag_99\n        /* \"@openzeppelin/contracts@4.7.3/access/Ownable.sol\":1922:1923  0 */\n      0x00\n        /* \"@openzeppelin/contracts@4.7.3/access/Ownable.sol\":1895:1913  _transferOwnership */\n      tag_100\n        /* \"@openzeppelin/contracts@4.7.3/access/Ownable.sol\":1895:1925  _transferOwnership(address(0)) */\n      jump\t// in\n    tag_99:\n        /* \"@openzeppelin/contracts@4.7.3/access/Ownable.sol\":1831:1932  function renounceOwnership() public virtual onlyOwner {... */\n      jump\t// out\n        /* \"contracts/NFTStaking.sol\":866:914  mapping (uint256 => address) public tokenOwnedBy */\n    tag_53:\n      mstore(0x20, 0x04)\n      dup1\n      0x00\n      mstore\n      keccak256(0x00, 0x40)\n      0x00\n      swap2\n      pop\n      sload\n      swap1\n      0x0100\n      exp\n      swap1\n      div\n      0xffffffffffffffffffffffffffffffffffffffff\n      and\n      dup2\n      jump\t// out\n        /* \"@openzeppelin/contracts@4.7.3/access/Ownable.sol\":1201:1286  function owner() public view virtual returns (address) {... */\n    tag_57:\n        /* \"@openzeppelin/contracts@4.7.3/access/Ownable.sol\":1247:1254  address */\n      0x00\n        /* \"@openzeppelin/contracts@4.7.3/access/Ownable.sol\":1273:1279  _owner */\n      dup1\n      0x00\n      swap1\n      sload\n      swap1\n      0x0100\n      exp\n      swap1\n      div\n      0xffffffffffffffffffffffffffffffffffffffff\n      and\n        /* \"@openzeppelin/contracts@4.7.3/access/Ownable.sol\":1266:1279  return _owner */\n      swap1\n      pop\n        /* \"@openzeppelin/contracts@4.7.3/access/Ownable.sol\":1201:1286  function owner() public view virtual returns (address) {... */\n      swap1\n      jump\t// out\n        /* \"contracts/NFTStaking.sol\":1196:1446  function stake(uint256 tokenId) external {... */\n    tag_62:\n        /* \"contracts/NFTStaking.sol\":1255:1267  _nftContract */\n      0x02\n      0x00\n      swap1\n      sload\n      swap1\n      0x0100\n      exp\n      swap1\n      div\n      0xffffffffffffffffffffffffffffffffffffffff\n      and\n        /* \"contracts/NFTStaking.sol\":1247:1285  IERC721(_nftContract).safeTransferFrom */\n      0xffffffffffffffffffffffffffffffffffffffff\n      and\n      0x42842e0e\n        /* \"contracts/NFTStaking.sol\":1286:1296  msg.sender */\n      caller\n        /* \"contracts/NFTStaking.sol\":1306:1310  this */\n      address\n        /* \"contracts/NFTStaking.sol\":1313:1320  tokenId */\n      dup5\n        /* \"contracts/NFTStaking.sol\":1247:1321  IERC721(_nftContract).safeTransferFrom(msg.sender, address(this), tokenId) */\n      mload(0x40)\n      dup5\n      0xffffffff\n      and\n      0xe0\n      shl\n      dup2\n      mstore\n      0x04\n      add\n      tag_103\n      swap4\n      swap3\n      swap2\n      swap1\n      tag_91\n      jump\t// in\n    tag_103:\n      0x00\n      mload(0x40)\n      dup1\n      dup4\n      sub\n      dup2\n      0x00\n      dup8\n      dup1\n      extcodesize\n      iszero\n      dup1\n      iszero\n      tag_104\n      jumpi\n      0x00\n      dup1\n      revert\n    tag_104:\n      pop\n      gas\n      call\n      iszero\n      dup1\n      iszero\n      tag_106\n      jumpi\n      returndatasize\n      0x00\n      dup1\n      returndatacopy\n      revert(0x00, returndatasize)\n    tag_106:\n      pop\n      pop\n      pop\n      pop\n        /* \"contracts/NFTStaking.sol\":1355:1365  msg.sender */\n      caller\n        /* \"contracts/NFTStaking.sol\":1331:1343  tokenOwnedBy */\n      0x04\n        /* \"contracts/NFTStaking.sol\":1331:1352  tokenOwnedBy[tokenId] */\n      0x00\n        /* \"contracts/NFTStaking.sol\":1344:1351  tokenId */\n      dup4\n        /* \"contracts/NFTStaking.sol\":1331:1352  tokenOwnedBy[tokenId] */\n      dup2\n      mstore\n      0x20\n      add\n      swap1\n      dup2\n      mstore\n      0x20\n      add\n      0x00\n      keccak256\n      0x00\n        /* \"contracts/NFTStaking.sol\":1331:1365  tokenOwnedBy[tokenId] = msg.sender */\n      0x0100\n      exp\n      dup2\n      sload\n      dup2\n      0xffffffffffffffffffffffffffffffffffffffff\n      mul\n      not\n      and\n      swap1\n      dup4\n      0xffffffffffffffffffffffffffffffffffffffff\n      and\n      mul\n      or\n      swap1\n      sstore\n      pop\n        /* \"contracts/NFTStaking.sol\":1375:1386  tokenStaked */\n      0x06\n        /* \"contracts/NFTStaking.sol\":1392:1399  tokenId */\n      dup2\n        /* \"contracts/NFTStaking.sol\":1375:1400  tokenStaked.push(tokenId) */\n      swap1\n      dup1\n      0x01\n      dup2\n      sload\n      add\n      dup1\n      dup3\n      sstore\n      dup1\n      swap2\n      pop\n      pop\n      0x01\n      swap1\n      sub\n      swap1\n      0x00\n      mstore\n      keccak256(0x00, 0x20)\n      add\n      0x00\n      swap1\n      swap2\n      swap1\n      swap2\n      swap1\n      swap2\n      pop\n      sstore\n        /* \"contracts/NFTStaking.sol\":1410:1439  _stakedNFTCounter.increment() */\n      tag_108\n        /* \"contracts/NFTStaking.sol\":1410:1427  _stakedNFTCounter */\n      0x03\n        /* \"contracts/NFTStaking.sol\":1410:1437  _stakedNFTCounter.increment */\n      tag_109\n        /* \"contracts/NFTStaking.sol\":1410:1439  _stakedNFTCounter.increment() */\n      jump\t// in\n    tag_108:\n        /* \"contracts/NFTStaking.sol\":1196:1446  function stake(uint256 tokenId) external {... */\n      pop\n      jump\t// out\n        /* \"@openzeppelin/contracts@4.7.3/access/Ownable.sol\":2081:2279  function transferOwnership(address newOwner) public virtual onlyOwner {... */\n    tag_67:\n        /* \"@openzeppelin/contracts@4.7.3/access/Ownable.sol\":1094:1107  _checkOwner() */\n      tag_111\n        /* \"@openzeppelin/contracts@4.7.3/access/Ownable.sol\":1094:1105  _checkOwner */\n      tag_97\n        /* \"@openzeppelin/contracts@4.7.3/access/Ownable.sol\":1094:1107  _checkOwner() */\n      jump\t// in\n    tag_111:\n        /* \"@openzeppelin/contracts@4.7.3/access/Ownable.sol\":2189:2190  0 */\n      0x00\n        /* \"@openzeppelin/contracts@4.7.3/access/Ownable.sol\":2169:2191  newOwner != address(0) */\n      0xffffffffffffffffffffffffffffffffffffffff\n      and\n        /* \"@openzeppelin/contracts@4.7.3/access/Ownable.sol\":2169:2177  newOwner */\n      dup2\n        /* \"@openzeppelin/contracts@4.7.3/access/Ownable.sol\":2169:2191  newOwner != address(0) */\n      0xffffffffffffffffffffffffffffffffffffffff\n      and\n      eq\n      iszero\n        /* \"@openzeppelin/contracts@4.7.3/access/Ownable.sol\":2161:2234  require(newOwner != address(0), \"Ownable: new owner is the zero address\") */\n      tag_113\n      jumpi\n      mload(0x40)\n      0x08c379a000000000000000000000000000000000000000000000000000000000\n      dup2\n      mstore\n      0x04\n      add\n      tag_114\n      swap1\n      tag_115\n      jump\t// in\n    tag_114:\n      mload(0x40)\n      dup1\n      swap2\n      sub\n      swap1\n      revert\n    tag_113:\n        /* \"@openzeppelin/contracts@4.7.3/access/Ownable.sol\":2244:2272  _transferOwnership(newOwner) */\n      tag_116\n        /* \"@openzeppelin/contracts@4.7.3/access/Ownable.sol\":2263:2271  newOwner */\n      dup2\n        /* \"@openzeppelin/contracts@4.7.3/access/Ownable.sol\":2244:2262  _transferOwnership */\n      tag_100\n        /* \"@openzeppelin/contracts@4.7.3/access/Ownable.sol\":2244:2272  _transferOwnership(newOwner) */\n      jump\t// in\n    tag_116:\n        /* \"@openzeppelin/contracts@4.7.3/access/Ownable.sol\":2081:2279  function transferOwnership(address newOwner) public virtual onlyOwner {... */\n      pop\n      jump\t// out\n        /* \"contracts/NFTStaking.sol\":920:963  mapping (uint256 => uint256) public rewards */\n    tag_71:\n      mstore(0x20, 0x05)\n      dup1\n      0x00\n      mstore\n      keccak256(0x00, 0x40)\n      0x00\n      swap2\n      pop\n      swap1\n      pop\n      sload\n      dup2\n      jump\t// out\n        /* \"contracts/NFTStaking.sol\":1082:1190  function setNftContact(address nftContract_) external onlyOwner {... */\n    tag_77:\n        /* \"@openzeppelin/contracts@4.7.3/access/Ownable.sol\":1094:1107  _checkOwner() */\n      tag_118\n        /* \"@openzeppelin/contracts@4.7.3/access/Ownable.sol\":1094:1105  _checkOwner */\n      tag_97\n        /* \"@openzeppelin/contracts@4.7.3/access/Ownable.sol\":1094:1107  _checkOwner() */\n      jump\t// in\n    tag_118:\n        /* \"contracts/NFTStaking.sol\":1171:1183  nftContract_ */\n      dup1\n        /* \"contracts/NFTStaking.sol\":1156:1168  _nftContract */\n      0x02\n      0x00\n        /* \"contracts/NFTStaking.sol\":1156:1183  _nftContract = nftContract_ */\n      0x0100\n      exp\n      dup2\n      sload\n      dup2\n      0xffffffffffffffffffffffffffffffffffffffff\n      mul\n      not\n      and\n      swap1\n      dup4\n      0xffffffffffffffffffffffffffffffffffffffff\n      and\n      mul\n      or\n      swap1\n      sstore\n      pop\n        /* \"contracts/NFTStaking.sol\":1082:1190  function setNftContact(address nftContract_) external onlyOwner {... */\n      pop\n      jump\t// out\n        /* \"@openzeppelin/contracts@4.7.3/utils/Counters.sol\":1074:1303  function decrement(Counter storage counter) internal {... */\n    tag_89:\n        /* \"@openzeppelin/contracts@4.7.3/utils/Counters.sol\":1137:1150  uint256 value */\n      0x00\n        /* \"@openzeppelin/contracts@4.7.3/utils/Counters.sol\":1153:1160  counter */\n      dup2\n        /* \"@openzeppelin/contracts@4.7.3/utils/Counters.sol\":1153:1167  counter._value */\n      0x00\n      add\n      sload\n        /* \"@openzeppelin/contracts@4.7.3/utils/Counters.sol\":1137:1167  uint256 value = counter._value */\n      swap1\n      pop\n        /* \"@openzeppelin/contracts@4.7.3/utils/Counters.sol\":1193:1194  0 */\n      0x00\n        /* \"@openzeppelin/contracts@4.7.3/utils/Counters.sol\":1185:1190  value */\n      dup2\n        /* \"@openzeppelin/contracts@4.7.3/utils/Counters.sol\":1185:1194  value > 0 */\n      gt\n        /* \"@openzeppelin/contracts@4.7.3/utils/Counters.sol\":1177:1226  require(value > 0, \"Counter: decrement overflow\") */\n      tag_121\n      jumpi\n      mload(0x40)\n      0x08c379a000000000000000000000000000000000000000000000000000000000\n      dup2\n      mstore\n      0x04\n      add\n      tag_122\n      swap1\n      tag_123\n      jump\t// in\n    tag_122:\n      mload(0x40)\n      dup1\n      swap2\n      sub\n      swap1\n      revert\n    tag_121:\n        /* \"@openzeppelin/contracts@4.7.3/utils/Counters.sol\":1285:1286  1 */\n      0x01\n        /* \"@openzeppelin/contracts@4.7.3/utils/Counters.sol\":1277:1282  value */\n      dup2\n        /* \"@openzeppelin/contracts@4.7.3/utils/Counters.sol\":1277:1286  value - 1 */\n      sub\n        /* \"@openzeppelin/contracts@4.7.3/utils/Counters.sol\":1260:1267  counter */\n      dup3\n        /* \"@openzeppelin/contracts@4.7.3/utils/Counters.sol\":1260:1274  counter._value */\n      0x00\n      add\n        /* \"@openzeppelin/contracts@4.7.3/utils/Counters.sol\":1260:1286  counter._value = value - 1 */\n      dup2\n      swap1\n      sstore\n      pop\n        /* \"@openzeppelin/contracts@4.7.3/utils/Counters.sol\":1127:1303  {... */\n      pop\n        /* \"@openzeppelin/contracts@4.7.3/utils/Counters.sol\":1074:1303  function decrement(Counter storage counter) internal {... */\n      pop\n      jump\t// out\n        /* \"@openzeppelin/contracts@4.7.3/access/Ownable.sol\":1359:1489  function _checkOwner() internal view virtual {... */\n    tag_97:\n        /* \"@openzeppelin/contracts@4.7.3/access/Ownable.sol\":1433:1445  _msgSender() */\n      tag_125\n        /* \"@openzeppelin/contracts@4.7.3/access/Ownable.sol\":1433:1443  _msgSender */\n      tag_126\n        /* \"@openzeppelin/contracts@4.7.3/access/Ownable.sol\":1433:1445  _msgSender() */\n      jump\t// in\n    tag_125:\n        /* \"@openzeppelin/contracts@4.7.3/access/Ownable.sol\":1422:1445  owner() == _msgSender() */\n      0xffffffffffffffffffffffffffffffffffffffff\n      and\n        /* \"@openzeppelin/contracts@4.7.3/access/Ownable.sol\":1422:1429  owner() */\n      tag_127\n        /* \"@openzeppelin/contracts@4.7.3/access/Ownable.sol\":1422:1427  owner */\n      tag_57\n        /* \"@openzeppelin/contracts@4.7.3/access/Ownable.sol\":1422:1429  owner() */\n      jump\t// in\n    tag_127:\n        /* \"@openzeppelin/contracts@4.7.3/access/Ownable.sol\":1422:1445  owner() == _msgSender() */\n      0xffffffffffffffffffffffffffffffffffffffff\n      and\n      eq\n        /* \"@openzeppelin/contracts@4.7.3/access/Ownable.sol\":1414:1482  require(owner() == _msgSender(), \"Ownable: caller is not the owner\") */\n      tag_128\n      jumpi\n      mload(0x40)\n      0x08c379a000000000000000000000000000000000000000000000000000000000\n      dup2\n      mstore\n      0x04\n      add\n      tag_129\n      swap1\n      tag_130\n      jump\t// in\n    tag_129:\n      mload(0x40)\n      dup1\n      swap2\n      sub\n      swap1\n      revert\n    tag_128:\n        /* \"@openzeppelin/contracts@4.7.3/access/Ownable.sol\":1359:1489  function _checkOwner() internal view virtual {... */\n      jump\t// out\n        /* \"@openzeppelin/contracts@4.7.3/access/Ownable.sol\":2433:2620  function _transferOwnership(address newOwner) internal virtual {... */\n    tag_100:\n        /* \"@openzeppelin/contracts@4.7.3/access/Ownable.sol\":2506:2522  address oldOwner */\n      0x00\n        /* \"@openzeppelin/contracts@4.7.3/access/Ownable.sol\":2525:2531  _owner */\n      dup1\n      0x00\n      swap1\n      sload\n      swap1\n      0x0100\n      exp\n      swap1\n      div\n      0xffffffffffffffffffffffffffffffffffffffff\n      and\n        /* \"@openzeppelin/contracts@4.7.3/access/Ownable.sol\":2506:2531  address oldOwner = _owner */\n      swap1\n      pop\n        /* \"@openzeppelin/contracts@4.7.3/access/Ownable.sol\":2550:2558  newOwner */\n      dup2\n        /* \"@openzeppelin/contracts@4.7.3/access/Ownable.sol\":2541:2547  _owner */\n      0x00\n      dup1\n        /* \"@openzeppelin/contracts@4.7.3/access/Ownable.sol\":2541:2558  _owner = newOwner */\n      0x0100\n      exp\n      dup2\n      sload\n      dup2\n      0xffffffffffffffffffffffffffffffffffffffff\n      mul\n      not\n      and\n      swap1\n      dup4\n      0xffffffffffffffffffffffffffffffffffffffff\n      and\n      mul\n      or\n      swap1\n      sstore\n      pop\n        /* \"@openzeppelin/contracts@4.7.3/access/Ownable.sol\":2604:2612  newOwner */\n      dup2\n        /* \"@openzeppelin/contracts@4.7.3/access/Ownable.sol\":2573:2613  OwnershipTransferred(oldOwner, newOwner) */\n      0xffffffffffffffffffffffffffffffffffffffff\n      and\n        /* \"@openzeppelin/contracts@4.7.3/access/Ownable.sol\":2594:2602  oldOwner */\n      dup2\n        /* \"@openzeppelin/contracts@4.7.3/access/Ownable.sol\":2573:2613  OwnershipTransferred(oldOwner, newOwner) */\n      0xffffffffffffffffffffffffffffffffffffffff\n      and\n      0x8be0079c531659141344cd1fd0a4f28419497f9722a3daafe3b4186f6b6457e0\n      mload(0x40)\n      mload(0x40)\n      dup1\n      swap2\n      sub\n      swap1\n      log3\n        /* \"@openzeppelin/contracts@4.7.3/access/Ownable.sol\":2496:2620  {... */\n      pop\n        /* \"@openzeppelin/contracts@4.7.3/access/Ownable.sol\":2433:2620  function _transferOwnership(address newOwner) internal virtual {... */\n      pop\n      jump\t// out\n        /* \"@openzeppelin/contracts@4.7.3/utils/Counters.sol\":945:1068  function increment(Counter storage counter) internal {... */\n    tag_109:\n        /* \"@openzeppelin/contracts@4.7.3/utils/Counters.sol\":1050:1051  1 */\n      0x01\n        /* \"@openzeppelin/contracts@4.7.3/utils/Counters.sol\":1032:1039  counter */\n      dup2\n        /* \"@openzeppelin/contracts@4.7.3/utils/Counters.sol\":1032:1046  counter._value */\n      0x00\n      add\n      0x00\n        /* \"@openzeppelin/contracts@4.7.3/utils/Counters.sol\":1032:1051  counter._value += 1 */\n      dup3\n      dup3\n      sload\n      add\n      swap3\n      pop\n      pop\n      dup2\n      swap1\n      sstore\n      pop\n        /* \"@openzeppelin/contracts@4.7.3/utils/Counters.sol\":945:1068  function increment(Counter storage counter) internal {... */\n      pop\n      jump\t// out\n        /* \"@openzeppelin/contracts@4.7.3/utils/Context.sol\":640:736  function _msgSender() internal view virtual returns (address) {... */\n    tag_126:\n        /* \"@openzeppelin/contracts@4.7.3/utils/Context.sol\":693:700  address */\n      0x00\n        /* \"@openzeppelin/contracts@4.7.3/utils/Context.sol\":719:729  msg.sender */\n      caller\n        /* \"@openzeppelin/contracts@4.7.3/utils/Context.sol\":712:729  return msg.sender */\n      swap1\n      pop\n        /* \"@openzeppelin/contracts@4.7.3/utils/Context.sol\":640:736  function _msgSender() internal view virtual returns (address) {... */\n      swap1\n      jump\t// out\n        /* \"#utility.yul\":24:768   */\n    tag_135:\n        /* \"#utility.yul\":131:136   */\n      0x00\n        /* \"#utility.yul\":156:237   */\n      tag_137\n        /* \"#utility.yul\":172:236   */\n      tag_138\n        /* \"#utility.yul\":229:235   */\n      dup5\n        /* \"#utility.yul\":172:236   */\n      tag_139\n      jump\t// in\n    tag_138:\n        /* \"#utility.yul\":156:237   */\n      tag_140\n      jump\t// in\n    tag_137:\n        /* \"#utility.yul\":147:237   */\n      swap1\n      pop\n        /* \"#utility.yul\":257:262   */\n      dup1\n        /* \"#utility.yul\":286:292   */\n      dup4\n        /* \"#utility.yul\":279:284   */\n      dup3\n        /* \"#utility.yul\":272:293   */\n      mstore\n        /* \"#utility.yul\":320:324   */\n      0x20\n        /* \"#utility.yul\":313:318   */\n      dup3\n        /* \"#utility.yul\":309:325   */\n      add\n        /* \"#utility.yul\":302:325   */\n      swap1\n      pop\n        /* \"#utility.yul\":346:352   */\n      dup3\n        /* \"#utility.yul\":396:399   */\n      dup6\n        /* \"#utility.yul\":388:392   */\n      0x20\n        /* \"#utility.yul\":380:386   */\n      dup7\n        /* \"#utility.yul\":376:393   */\n      mul\n        /* \"#utility.yul\":371:374   */\n      dup3\n        /* \"#utility.yul\":367:394   */\n      add\n        /* \"#utility.yul\":364:400   */\n      gt\n        /* \"#utility.yul\":361:504   */\n      iszero\n      tag_141\n      jumpi\n        /* \"#utility.yul\":415:494   */\n      tag_142\n      tag_143\n      jump\t// in\n    tag_142:\n        /* \"#utility.yul\":361:504   */\n    tag_141:\n        /* \"#utility.yul\":528:529   */\n      0x00\n        /* \"#utility.yul\":513:762   */\n    tag_144:\n        /* \"#utility.yul\":538:544   */\n      dup6\n        /* \"#utility.yul\":535:536   */\n      dup2\n        /* \"#utility.yul\":532:545   */\n      lt\n        /* \"#utility.yul\":513:762   */\n      iszero\n      tag_146\n      jumpi\n        /* \"#utility.yul\":606:609   */\n      dup2\n        /* \"#utility.yul\":635:683   */\n      tag_147\n        /* \"#utility.yul\":679:682   */\n      dup9\n        /* \"#utility.yul\":667:677   */\n      dup3\n        /* \"#utility.yul\":635:683   */\n      tag_148\n      jump\t// in\n    tag_147:\n        /* \"#utility.yul\":630:633   */\n      dup5\n        /* \"#utility.yul\":623:684   */\n      mstore\n        /* \"#utility.yul\":713:717   */\n      0x20\n        /* \"#utility.yul\":708:711   */\n      dup5\n        /* \"#utility.yul\":704:718   */\n      add\n        /* \"#utility.yul\":697:718   */\n      swap4\n      pop\n        /* \"#utility.yul\":747:751   */\n      0x20\n        /* \"#utility.yul\":742:745   */\n      dup4\n        /* \"#utility.yul\":738:752   */\n      add\n        /* \"#utility.yul\":731:752   */\n      swap3\n      pop\n        /* \"#utility.yul\":573:762   */\n      pop\n        /* \"#utility.yul\":560:561   */\n      0x01\n        /* \"#utility.yul\":557:558   */\n      dup2\n        /* \"#utility.yul\":553:562   */\n      add\n        /* \"#utility.yul\":548:562   */\n      swap1\n      pop\n        /* \"#utility.yul\":513:762   */\n      jump(tag_144)\n    tag_146:\n        /* \"#utility.yul\":517:531   */\n      pop\n        /* \"#utility.yul\":137:768   */\n      pop\n      pop\n        /* \"#utility.yul\":24:768   */\n      swap4\n      swap3\n      pop\n      pop\n      pop\n      jump\t// out\n        /* \"#utility.yul\":774:1184   */\n    tag_149:\n        /* \"#utility.yul\":851:856   */\n      0x00\n        /* \"#utility.yul\":876:941   */\n      tag_151\n        /* \"#utility.yul\":892:940   */\n      tag_152\n        /* \"#utility.yul\":933:939   */\n      dup5\n        /* \"#utility.yul\":892:940   */\n      tag_153\n      jump\t// in\n    tag_152:\n        /* \"#utility.yul\":876:941   */\n      tag_140\n      jump\t// in\n    tag_151:\n        /* \"#utility.yul\":867:941   */\n      swap1\n      pop\n        /* \"#utility.yul\":964:970   */\n      dup3\n        /* \"#utility.yul\":957:962   */\n      dup2\n        /* \"#utility.yul\":950:971   */\n      mstore\n        /* \"#utility.yul\":1002:1006   */\n      0x20\n        /* \"#utility.yul\":995:1000   */\n      dup2\n        /* \"#utility.yul\":991:1007   */\n      add\n        /* \"#utility.yul\":1040:1043   */\n      dup5\n        /* \"#utility.yul\":1031:1037   */\n      dup5\n        /* \"#utility.yul\":1026:1029   */\n      dup5\n        /* \"#utility.yul\":1022:1038   */\n      add\n        /* \"#utility.yul\":1019:1044   */\n      gt\n        /* \"#utility.yul\":1016:1128   */\n      iszero\n      tag_154\n      jumpi\n        /* \"#utility.yul\":1047:1126   */\n      tag_155\n      tag_156\n      jump\t// in\n    tag_155:\n        /* \"#utility.yul\":1016:1128   */\n    tag_154:\n        /* \"#utility.yul\":1137:1178   */\n      tag_157\n        /* \"#utility.yul\":1171:1177   */\n      dup5\n        /* \"#utility.yul\":1166:1169   */\n      dup3\n        /* \"#utility.yul\":1161:1164   */\n      dup6\n        /* \"#utility.yul\":1137:1178   */\n      tag_158\n      jump\t// in\n    tag_157:\n        /* \"#utility.yul\":857:1184   */\n      pop\n        /* \"#utility.yul\":774:1184   */\n      swap4\n      swap3\n      pop\n      pop\n      pop\n      jump\t// out\n        /* \"#utility.yul\":1190:1329   */\n    tag_159:\n        /* \"#utility.yul\":1236:1241   */\n      0x00\n        /* \"#utility.yul\":1274:1280   */\n      dup2\n        /* \"#utility.yul\":1261:1281   */\n      calldataload\n        /* \"#utility.yul\":1252:1281   */\n      swap1\n      pop\n        /* \"#utility.yul\":1290:1323   */\n      tag_161\n        /* \"#utility.yul\":1317:1322   */\n      dup2\n        /* \"#utility.yul\":1290:1323   */\n      tag_162\n      jump\t// in\n    tag_161:\n        /* \"#utility.yul\":1190:1329   */\n      swap3\n      swap2\n      pop\n      pop\n      jump\t// out\n        /* \"#utility.yul\":1352:1737   */\n    tag_163:\n        /* \"#utility.yul\":1434:1439   */\n      0x00\n        /* \"#utility.yul\":1483:1486   */\n      dup3\n        /* \"#utility.yul\":1476:1480   */\n      0x1f\n        /* \"#utility.yul\":1468:1474   */\n      dup4\n        /* \"#utility.yul\":1464:1481   */\n      add\n        /* \"#utility.yul\":1460:1487   */\n      slt\n        /* \"#utility.yul\":1450:1572   */\n      tag_165\n      jumpi\n        /* \"#utility.yul\":1491:1570   */\n      tag_166\n      tag_167\n      jump\t// in\n    tag_166:\n        /* \"#utility.yul\":1450:1572   */\n    tag_165:\n        /* \"#utility.yul\":1601:1607   */\n      dup2\n        /* \"#utility.yul\":1595:1608   */\n      mload\n        /* \"#utility.yul\":1626:1731   */\n      tag_168\n        /* \"#utility.yul\":1727:1730   */\n      dup5\n        /* \"#utility.yul\":1719:1725   */\n      dup3\n        /* \"#utility.yul\":1712:1716   */\n      0x20\n        /* \"#utility.yul\":1704:1710   */\n      dup7\n        /* \"#utility.yul\":1700:1717   */\n      add\n        /* \"#utility.yul\":1626:1731   */\n      tag_135\n      jump\t// in\n    tag_168:\n        /* \"#utility.yul\":1617:1731   */\n      swap2\n      pop\n        /* \"#utility.yul\":1440:1737   */\n      pop\n        /* \"#utility.yul\":1352:1737   */\n      swap3\n      swap2\n      pop\n      pop\n      jump\t// out\n        /* \"#utility.yul\":1756:2094   */\n    tag_169:\n        /* \"#utility.yul\":1811:1816   */\n      0x00\n        /* \"#utility.yul\":1860:1863   */\n      dup3\n        /* \"#utility.yul\":1853:1857   */\n      0x1f\n        /* \"#utility.yul\":1845:1851   */\n      dup4\n        /* \"#utility.yul\":1841:1858   */\n      add\n        /* \"#utility.yul\":1837:1864   */\n      slt\n        /* \"#utility.yul\":1827:1949   */\n      tag_171\n      jumpi\n        /* \"#utility.yul\":1868:1947   */\n      tag_172\n      tag_167\n      jump\t// in\n    tag_172:\n        /* \"#utility.yul\":1827:1949   */\n    tag_171:\n        /* \"#utility.yul\":1985:1991   */\n      dup2\n        /* \"#utility.yul\":1972:1992   */\n      calldataload\n        /* \"#utility.yul\":2010:2088   */\n      tag_173\n        /* \"#utility.yul\":2084:2087   */\n      dup5\n        /* \"#utility.yul\":2076:2082   */\n      dup3\n        /* \"#utility.yul\":2069:2073   */\n      0x20\n        /* \"#utility.yul\":2061:2067   */\n      dup7\n        /* \"#utility.yul\":2057:2074   */\n      add\n        /* \"#utility.yul\":2010:2088   */\n      tag_149\n      jump\t// in\n    tag_173:\n        /* \"#utility.yul\":2001:2088   */\n      swap2\n      pop\n        /* \"#utility.yul\":1817:2094   */\n      pop\n        /* \"#utility.yul\":1756:2094   */\n      swap3\n      swap2\n      pop\n      pop\n      jump\t// out\n        /* \"#utility.yul\":2100:2239   */\n    tag_174:\n        /* \"#utility.yul\":2146:2151   */\n      0x00\n        /* \"#utility.yul\":2184:2190   */\n      dup2\n        /* \"#utility.yul\":2171:2191   */\n      calldataload\n        /* \"#utility.yul\":2162:2191   */\n      swap1\n      pop\n        /* \"#utility.yul\":2200:2233   */\n      tag_176\n        /* \"#utility.yul\":2227:2232   */\n      dup2\n        /* \"#utility.yul\":2200:2233   */\n      tag_177\n      jump\t// in\n    tag_176:\n        /* \"#utility.yul\":2100:2239   */\n      swap3\n      swap2\n      pop\n      pop\n      jump\t// out\n        /* \"#utility.yul\":2245:2388   */\n    tag_148:\n        /* \"#utility.yul\":2302:2307   */\n      0x00\n        /* \"#utility.yul\":2333:2339   */\n      dup2\n        /* \"#utility.yul\":2327:2340   */\n      mload\n        /* \"#utility.yul\":2318:2340   */\n      swap1\n      pop\n        /* \"#utility.yul\":2349:2382   */\n      tag_179\n        /* \"#utility.yul\":2376:2381   */\n      dup2\n        /* \"#utility.yul\":2349:2382   */\n      tag_177\n      jump\t// in\n    tag_179:\n        /* \"#utility.yul\":2245:2388   */\n      swap3\n      swap2\n      pop\n      pop\n      jump\t// out\n        /* \"#utility.yul\":2394:2723   */\n    tag_66:\n        /* \"#utility.yul\":2453:2459   */\n      0x00\n        /* \"#utility.yul\":2502:2504   */\n      0x20\n        /* \"#utility.yul\":2490:2499   */\n      dup3\n        /* \"#utility.yul\":2481:2488   */\n      dup5\n        /* \"#utility.yul\":2477:2500   */\n      sub\n        /* \"#utility.yul\":2473:2505   */\n      slt\n        /* \"#utility.yul\":2470:2589   */\n      iszero\n      tag_181\n      jumpi\n        /* \"#utility.yul\":2508:2587   */\n      tag_182\n      tag_183\n      jump\t// in\n    tag_182:\n        /* \"#utility.yul\":2470:2589   */\n    tag_181:\n        /* \"#utility.yul\":2628:2629   */\n      0x00\n        /* \"#utility.yul\":2653:2706   */\n      tag_184\n        /* \"#utility.yul\":2698:2705   */\n      dup5\n        /* \"#utility.yul\":2689:2695   */\n      dup3\n        /* \"#utility.yul\":2678:2687   */\n      dup6\n        /* \"#utility.yul\":2674:2696   */\n      add\n        /* \"#utility.yul\":2653:2706   */\n      tag_159\n      jump\t// in\n    tag_184:\n        /* \"#utility.yul\":2643:2706   */\n      swap2\n      pop\n        /* \"#utility.yul\":2599:2716   */\n      pop\n        /* \"#utility.yul\":2394:2723   */\n      swap3\n      swap2\n      pop\n      pop\n      jump\t// out\n        /* \"#utility.yul\":2729:3672   */\n    tag_38:\n        /* \"#utility.yul\":2824:2830   */\n      0x00\n        /* \"#utility.yul\":2832:2838   */\n      dup1\n        /* \"#utility.yul\":2840:2846   */\n      0x00\n        /* \"#utility.yul\":2848:2854   */\n      dup1\n        /* \"#utility.yul\":2897:2900   */\n      0x80\n        /* \"#utility.yul\":2885:2894   */\n      dup6\n        /* \"#utility.yul\":2876:2883   */\n      dup8\n        /* \"#utility.yul\":2872:2895   */\n      sub\n        /* \"#utility.yul\":2868:2901   */\n      slt\n        /* \"#utility.yul\":2865:2985   */\n      iszero\n      tag_186\n      jumpi\n        /* \"#utility.yul\":2904:2983   */\n      tag_187\n      tag_183\n      jump\t// in\n    tag_187:\n        /* \"#utility.yul\":2865:2985   */\n    tag_186:\n        /* \"#utility.yul\":3024:3025   */\n      0x00\n        /* \"#utility.yul\":3049:3102   */\n      tag_188\n        /* \"#utility.yul\":3094:3101   */\n      dup8\n        /* \"#utility.yul\":3085:3091   */\n      dup3\n        /* \"#utility.yul\":3074:3083   */\n      dup9\n        /* \"#utility.yul\":3070:3092   */\n      add\n        /* \"#utility.yul\":3049:3102   */\n      tag_159\n      jump\t// in\n    tag_188:\n        /* \"#utility.yul\":3039:3102   */\n      swap5\n      pop\n        /* \"#utility.yul\":2995:3112   */\n      pop\n        /* \"#utility.yul\":3151:3153   */\n      0x20\n        /* \"#utility.yul\":3177:3230   */\n      tag_189\n        /* \"#utility.yul\":3222:3229   */\n      dup8\n        /* \"#utility.yul\":3213:3219   */\n      dup3\n        /* \"#utility.yul\":3202:3211   */\n      dup9\n        /* \"#utility.yul\":3198:3220   */\n      add\n        /* \"#utility.yul\":3177:3230   */\n      tag_159\n      jump\t// in\n    tag_189:\n        /* \"#utility.yul\":3167:3230   */\n      swap4\n      pop\n        /* \"#utility.yul\":3122:3240   */\n      pop\n        /* \"#utility.yul\":3279:3281   */\n      0x40\n        /* \"#utility.yul\":3305:3358   */\n      tag_190\n        /* \"#utility.yul\":3350:3357   */\n      dup8\n        /* \"#utility.yul\":3341:3347   */\n      dup3\n        /* \"#utility.yul\":3330:3339   */\n      dup9\n        /* \"#utility.yul\":3326:3348   */\n      add\n        /* \"#utility.yul\":3305:3358   */\n      tag_174\n      jump\t// in\n    tag_190:\n        /* \"#utility.yul\":3295:3358   */\n      swap3\n      pop\n        /* \"#utility.yul\":3250:3368   */\n      pop\n        /* \"#utility.yul\":3435:3437   */\n      0x60\n        /* \"#utility.yul\":3424:3433   */\n      dup6\n        /* \"#utility.yul\":3420:3438   */\n      add\n        /* \"#utility.yul\":3407:3439   */\n      calldataload\n        /* \"#utility.yul\":3466:3484   */\n      0xffffffffffffffff\n        /* \"#utility.yul\":3458:3464   */\n      dup2\n        /* \"#utility.yul\":3455:3485   */\n      gt\n        /* \"#utility.yul\":3452:3569   */\n      iszero\n      tag_191\n      jumpi\n        /* \"#utility.yul\":3488:3567   */\n      tag_192\n      tag_193\n      jump\t// in\n    tag_192:\n        /* \"#utility.yul\":3452:3569   */\n    tag_191:\n        /* \"#utility.yul\":3593:3655   */\n      tag_194\n        /* \"#utility.yul\":3647:3654   */\n      dup8\n        /* \"#utility.yul\":3638:3644   */\n      dup3\n        /* \"#utility.yul\":3627:3636   */\n      dup9\n        /* \"#utility.yul\":3623:3645   */\n      add\n        /* \"#utility.yul\":3593:3655   */\n      tag_169\n      jump\t// in\n    tag_194:\n        /* \"#utility.yul\":3583:3655   */\n      swap2\n      pop\n        /* \"#utility.yul\":3378:3665   */\n      pop\n        /* \"#utility.yul\":2729:3672   */\n      swap3\n      swap6\n      swap2\n      swap5\n      pop\n      swap3\n      pop\n      jump\t// out\n        /* \"#utility.yul\":3678:4232   */\n    tag_25:\n        /* \"#utility.yul\":3773:3779   */\n      0x00\n        /* \"#utility.yul\":3822:3824   */\n      0x20\n        /* \"#utility.yul\":3810:3819   */\n      dup3\n        /* \"#utility.yul\":3801:3808   */\n      dup5\n        /* \"#utility.yul\":3797:3820   */\n      sub\n        /* \"#utility.yul\":3793:3825   */\n      slt\n        /* \"#utility.yul\":3790:3909   */\n      iszero\n      tag_196\n      jumpi\n        /* \"#utility.yul\":3828:3907   */\n      tag_197\n      tag_183\n      jump\t// in\n    tag_197:\n        /* \"#utility.yul\":3790:3909   */\n    tag_196:\n        /* \"#utility.yul\":3969:3970   */\n      0x00\n        /* \"#utility.yul\":3958:3967   */\n      dup3\n        /* \"#utility.yul\":3954:3971   */\n      add\n        /* \"#utility.yul\":3948:3972   */\n      mload\n        /* \"#utility.yul\":3999:4017   */\n      0xffffffffffffffff\n        /* \"#utility.yul\":3991:3997   */\n      dup2\n        /* \"#utility.yul\":3988:4018   */\n      gt\n        /* \"#utility.yul\":3985:4102   */\n      iszero\n      tag_198\n      jumpi\n        /* \"#utility.yul\":4021:4100   */\n      tag_199\n      tag_193\n      jump\t// in\n    tag_199:\n        /* \"#utility.yul\":3985:4102   */\n    tag_198:\n        /* \"#utility.yul\":4126:4215   */\n      tag_200\n        /* \"#utility.yul\":4207:4214   */\n      dup5\n        /* \"#utility.yul\":4198:4204   */\n      dup3\n        /* \"#utility.yul\":4187:4196   */\n      dup6\n        /* \"#utility.yul\":4183:4205   */\n      add\n        /* \"#utility.yul\":4126:4215   */\n      tag_163\n      jump\t// in\n    tag_200:\n        /* \"#utility.yul\":4116:4215   */\n      swap2\n      pop\n        /* \"#utility.yul\":3919:4225   */\n      pop\n        /* \"#utility.yul\":3678:4232   */\n      swap3\n      swap2\n      pop\n      pop\n      jump\t// out\n        /* \"#utility.yul\":4238:4567   */\n    tag_45:\n        /* \"#utility.yul\":4297:4303   */\n      0x00\n        /* \"#utility.yul\":4346:4348   */\n      0x20\n        /* \"#utility.yul\":4334:4343   */\n      dup3\n        /* \"#utility.yul\":4325:4332   */\n      dup5\n        /* \"#utility.yul\":4321:4344   */\n      sub\n        /* \"#utility.yul\":4317:4349   */\n      slt\n        /* \"#utility.yul\":4314:4433   */\n      iszero\n      tag_202\n      jumpi\n        /* \"#utility.yul\":4352:4431   */\n      tag_203\n      tag_183\n      jump\t// in\n    tag_203:\n        /* \"#utility.yul\":4314:4433   */\n    tag_202:\n        /* \"#utility.yul\":4472:4473   */\n      0x00\n        /* \"#utility.yul\":4497:4550   */\n      tag_204\n        /* \"#utility.yul\":4542:4549   */\n      dup5\n        /* \"#utility.yul\":4533:4539   */\n      dup3\n        /* \"#utility.yul\":4522:4531   */\n      dup6\n        /* \"#utility.yul\":4518:4540   */\n      add\n        /* \"#utility.yul\":4497:4550   */\n      tag_174\n      jump\t// in\n    tag_204:\n        /* \"#utility.yul\":4487:4550   */\n      swap2\n      pop\n        /* \"#utility.yul\":4443:4560   */\n      pop\n        /* \"#utility.yul\":4238:4567   */\n      swap3\n      swap2\n      pop\n      pop\n      jump\t// out\n        /* \"#utility.yul\":4573:4691   */\n    tag_205:\n        /* \"#utility.yul\":4660:4684   */\n      tag_207\n        /* \"#utility.yul\":4678:4683   */\n      dup2\n        /* \"#utility.yul\":4660:4684   */\n      tag_208\n      jump\t// in\n    tag_207:\n        /* \"#utility.yul\":4655:4658   */\n      dup3\n        /* \"#utility.yul\":4648:4685   */\n      mstore\n        /* \"#utility.yul\":4573:4691   */\n      pop\n      pop\n      jump\t// out\n        /* \"#utility.yul\":4697:4812   */\n    tag_209:\n        /* \"#utility.yul\":4782:4805   */\n      tag_211\n        /* \"#utility.yul\":4799:4804   */\n      dup2\n        /* \"#utility.yul\":4782:4805   */\n      tag_212\n      jump\t// in\n    tag_211:\n        /* \"#utility.yul\":4777:4780   */\n      dup3\n        /* \"#utility.yul\":4770:4806   */\n      mstore\n        /* \"#utility.yul\":4697:4812   */\n      pop\n      pop\n      jump\t// out\n        /* \"#utility.yul\":4818:5184   */\n    tag_213:\n        /* \"#utility.yul\":4960:4963   */\n      0x00\n        /* \"#utility.yul\":4981:5048   */\n      tag_215\n        /* \"#utility.yul\":5045:5047   */\n      0x1b\n        /* \"#utility.yul\":5040:5043   */\n      dup4\n        /* \"#utility.yul\":4981:5048   */\n      tag_216\n      jump\t// in\n    tag_215:\n        /* \"#utility.yul\":4974:5048   */\n      swap2\n      pop\n        /* \"#utility.yul\":5057:5150   */\n      tag_217\n        /* \"#utility.yul\":5146:5149   */\n      dup3\n        /* \"#utility.yul\":5057:5150   */\n      tag_218\n      jump\t// in\n    tag_217:\n        /* \"#utility.yul\":5175:5177   */\n      0x20\n        /* \"#utility.yul\":5170:5173   */\n      dup3\n        /* \"#utility.yul\":5166:5178   */\n      add\n        /* \"#utility.yul\":5159:5178   */\n      swap1\n      pop\n        /* \"#utility.yul\":4818:5184   */\n      swap2\n      swap1\n      pop\n      jump\t// out\n        /* \"#utility.yul\":5190:5556   */\n    tag_219:\n        /* \"#utility.yul\":5332:5335   */\n      0x00\n        /* \"#utility.yul\":5353:5420   */\n      tag_221\n        /* \"#utility.yul\":5417:5419   */\n      0x26\n        /* \"#utility.yul\":5412:5415   */\n      dup4\n        /* \"#utility.yul\":5353:5420   */\n      tag_216\n      jump\t// in\n    tag_221:\n        /* \"#utility.yul\":5346:5420   */\n      swap2\n      pop\n        /* \"#utility.yul\":5429:5522   */\n      tag_222\n        /* \"#utility.yul\":5518:5521   */\n      dup3\n        /* \"#utility.yul\":5429:5522   */\n      tag_223\n      jump\t// in\n    tag_222:\n        /* \"#utility.yul\":5547:5549   */\n      0x40\n        /* \"#utility.yul\":5542:5545   */\n      dup3\n        /* \"#utility.yul\":5538:5550   */\n      add\n        /* \"#utility.yul\":5531:5550   */\n      swap1\n      pop\n        /* \"#utility.yul\":5190:5556   */\n      swap2\n      swap1\n      pop\n      jump\t// out\n        /* \"#utility.yul\":5562:5928   */\n    tag_224:\n        /* \"#utility.yul\":5704:5707   */\n      0x00\n        /* \"#utility.yul\":5725:5792   */\n      tag_226\n        /* \"#utility.yul\":5789:5791   */\n      0x20\n        /* \"#utility.yul\":5784:5787   */\n      dup4\n        /* \"#utility.yul\":5725:5792   */\n      tag_216\n      jump\t// in\n    tag_226:\n        /* \"#utility.yul\":5718:5792   */\n      swap2\n      pop\n        /* \"#utility.yul\":5801:5894   */\n      tag_227\n        /* \"#utility.yul\":5890:5893   */\n      dup3\n        /* \"#utility.yul\":5801:5894   */\n      tag_228\n      jump\t// in\n    tag_227:\n        /* \"#utility.yul\":5919:5921   */\n      0x20\n        /* \"#utility.yul\":5914:5917   */\n      dup3\n        /* \"#utility.yul\":5910:5922   */\n      add\n        /* \"#utility.yul\":5903:5922   */\n      swap1\n      pop\n        /* \"#utility.yul\":5562:5928   */\n      swap2\n      swap1\n      pop\n      jump\t// out\n        /* \"#utility.yul\":5934:6300   */\n    tag_229:\n        /* \"#utility.yul\":6076:6079   */\n      0x00\n        /* \"#utility.yul\":6097:6164   */\n      tag_231\n        /* \"#utility.yul\":6161:6163   */\n      0x16\n        /* \"#utility.yul\":6156:6159   */\n      dup4\n        /* \"#utility.yul\":6097:6164   */\n      tag_216\n      jump\t// in\n    tag_231:\n        /* \"#utility.yul\":6090:6164   */\n      swap2\n      pop\n        /* \"#utility.yul\":6173:6266   */\n      tag_232\n        /* \"#utility.yul\":6262:6265   */\n      dup3\n        /* \"#utility.yul\":6173:6266   */\n      tag_233\n      jump\t// in\n    tag_232:\n        /* \"#utility.yul\":6291:6293   */\n      0x20\n        /* \"#utility.yul\":6286:6289   */\n      dup3\n        /* \"#utility.yul\":6282:6294   */\n      add\n        /* \"#utility.yul\":6275:6294   */\n      swap1\n      pop\n        /* \"#utility.yul\":5934:6300   */\n      swap2\n      swap1\n      pop\n      jump\t// out\n        /* \"#utility.yul\":6306:6672   */\n    tag_234:\n        /* \"#utility.yul\":6448:6451   */\n      0x00\n        /* \"#utility.yul\":6469:6536   */\n      tag_236\n        /* \"#utility.yul\":6533:6535   */\n      0x1f\n        /* \"#utility.yul\":6528:6531   */\n      dup4\n        /* \"#utility.yul\":6469:6536   */\n      tag_216\n      jump\t// in\n    tag_236:\n        /* \"#utility.yul\":6462:6536   */\n      swap2\n      pop\n        /* \"#utility.yul\":6545:6638   */\n      tag_237\n        /* \"#utility.yul\":6634:6637   */\n      dup3\n        /* \"#utility.yul\":6545:6638   */\n      tag_238\n      jump\t// in\n    tag_237:\n        /* \"#utility.yul\":6663:6665   */\n      0x20\n        /* \"#utility.yul\":6658:6661   */\n      dup3\n        /* \"#utility.yul\":6654:6666   */\n      add\n        /* \"#utility.yul\":6647:6666   */\n      swap1\n      pop\n        /* \"#utility.yul\":6306:6672   */\n      swap2\n      swap1\n      pop\n      jump\t// out\n        /* \"#utility.yul\":6678:6796   */\n    tag_239:\n        /* \"#utility.yul\":6765:6789   */\n      tag_241\n        /* \"#utility.yul\":6783:6788   */\n      dup2\n        /* \"#utility.yul\":6765:6789   */\n      tag_242\n      jump\t// in\n    tag_241:\n        /* \"#utility.yul\":6760:6763   */\n      dup3\n        /* \"#utility.yul\":6753:6790   */\n      mstore\n        /* \"#utility.yul\":6678:6796   */\n      pop\n      pop\n      jump\t// out\n        /* \"#utility.yul\":6802:7024   */\n    tag_20:\n        /* \"#utility.yul\":6895:6899   */\n      0x00\n        /* \"#utility.yul\":6933:6935   */\n      0x20\n        /* \"#utility.yul\":6922:6931   */\n      dup3\n        /* \"#utility.yul\":6918:6936   */\n      add\n        /* \"#utility.yul\":6910:6936   */\n      swap1\n      pop\n        /* \"#utility.yul\":6946:7017   */\n      tag_244\n        /* \"#utility.yul\":7014:7015   */\n      0x00\n        /* \"#utility.yul\":7003:7012   */\n      dup4\n        /* \"#utility.yul\":6999:7016   */\n      add\n        /* \"#utility.yul\":6990:6996   */\n      dup5\n        /* \"#utility.yul\":6946:7017   */\n      tag_205\n      jump\t// in\n    tag_244:\n        /* \"#utility.yul\":6802:7024   */\n      swap3\n      swap2\n      pop\n      pop\n      jump\t// out\n        /* \"#utility.yul\":7030:7472   */\n    tag_91:\n        /* \"#utility.yul\":7179:7183   */\n      0x00\n        /* \"#utility.yul\":7217:7219   */\n      0x60\n        /* \"#utility.yul\":7206:7215   */\n      dup3\n        /* \"#utility.yul\":7202:7220   */\n      add\n        /* \"#utility.yul\":7194:7220   */\n      swap1\n      pop\n        /* \"#utility.yul\":7230:7301   */\n      tag_246\n        /* \"#utility.yul\":7298:7299   */\n      0x00\n        /* \"#utility.yul\":7287:7296   */\n      dup4\n        /* \"#utility.yul\":7283:7300   */\n      add\n        /* \"#utility.yul\":7274:7280   */\n      dup7\n        /* \"#utility.yul\":7230:7301   */\n      tag_205\n      jump\t// in\n    tag_246:\n        /* \"#utility.yul\":7311:7383   */\n      tag_247\n        /* \"#utility.yul\":7379:7381   */\n      0x20\n        /* \"#utility.yul\":7368:7377   */\n      dup4\n        /* \"#utility.yul\":7364:7382   */\n      add\n        /* \"#utility.yul\":7355:7361   */\n      dup6\n        /* \"#utility.yul\":7311:7383   */\n      tag_205\n      jump\t// in\n    tag_247:\n        /* \"#utility.yul\":7393:7465   */\n      tag_248\n        /* \"#utility.yul\":7461:7463   */\n      0x40\n        /* \"#utility.yul\":7450:7459   */\n      dup4\n        /* \"#utility.yul\":7446:7464   */\n      add\n        /* \"#utility.yul\":7437:7443   */\n      dup5\n        /* \"#utility.yul\":7393:7465   */\n      tag_239\n      jump\t// in\n    tag_248:\n        /* \"#utility.yul\":7030:7472   */\n      swap5\n      swap4\n      pop\n      pop\n      pop\n      pop\n      jump\t// out\n        /* \"#utility.yul\":7478:7696   */\n    tag_41:\n        /* \"#utility.yul\":7569:7573   */\n      0x00\n        /* \"#utility.yul\":7607:7609   */\n      0x20\n        /* \"#utility.yul\":7596:7605   */\n      dup3\n        /* \"#utility.yul\":7592:7610   */\n      add\n        /* \"#utility.yul\":7584:7610   */\n      swap1\n      pop\n        /* \"#utility.yul\":7620:7689   */\n      tag_250\n        /* \"#utility.yul\":7686:7687   */\n      0x00\n        /* \"#utility.yul\":7675:7684   */\n      dup4\n        /* \"#utility.yul\":7671:7688   */\n      add\n        /* \"#utility.yul\":7662:7668   */\n      dup5\n        /* \"#utility.yul\":7620:7689   */\n      tag_209\n      jump\t// in\n    tag_250:\n        /* \"#utility.yul\":7478:7696   */\n      swap3\n      swap2\n      pop\n      pop\n      jump\t// out\n        /* \"#utility.yul\":7702:8121   */\n    tag_123:\n        /* \"#utility.yul\":7868:7872   */\n      0x00\n        /* \"#utility.yul\":7906:7908   */\n      0x20\n        /* \"#utility.yul\":7895:7904   */\n      dup3\n        /* \"#utility.yul\":7891:7909   */\n      add\n        /* \"#utility.yul\":7883:7909   */\n      swap1\n      pop\n        /* \"#utility.yul\":7955:7964   */\n      dup2\n        /* \"#utility.yul\":7949:7953   */\n      dup2\n        /* \"#utility.yul\":7945:7965   */\n      sub\n        /* \"#utility.yul\":7941:7942   */\n      0x00\n        /* \"#utility.yul\":7930:7939   */\n      dup4\n        /* \"#utility.yul\":7926:7943   */\n      add\n        /* \"#utility.yul\":7919:7966   */\n      mstore\n        /* \"#utility.yul\":7983:8114   */\n      tag_252\n        /* \"#utility.yul\":8109:8113   */\n      dup2\n        /* \"#utility.yul\":7983:8114   */\n      tag_213\n      jump\t// in\n    tag_252:\n        /* \"#utility.yul\":7975:8114   */\n      swap1\n      pop\n        /* \"#utility.yul\":7702:8121   */\n      swap2\n      swap1\n      pop\n      jump\t// out\n        /* \"#utility.yul\":8127:8546   */\n    tag_115:\n        /* \"#utility.yul\":8293:8297   */\n      0x00\n        /* \"#utility.yul\":8331:8333   */\n      0x20\n        /* \"#utility.yul\":8320:8329   */\n      dup3\n        /* \"#utility.yul\":8316:8334   */\n      add\n        /* \"#utility.yul\":8308:8334   */\n      swap1\n      pop\n        /* \"#utility.yul\":8380:8389   */\n      dup2\n        /* \"#utility.yul\":8374:8378   */\n      dup2\n        /* \"#utility.yul\":8370:8390   */\n      sub\n        /* \"#utility.yul\":8366:8367   */\n      0x00\n        /* \"#utility.yul\":8355:8364   */\n      dup4\n        /* \"#utility.yul\":8351:8368   */\n      add\n        /* \"#utility.yul\":8344:8391   */\n      mstore\n        /* \"#utility.yul\":8408:8539   */\n      tag_254\n        /* \"#utility.yul\":8534:8538   */\n      dup2\n        /* \"#utility.yul\":8408:8539   */\n      tag_219\n      jump\t// in\n    tag_254:\n        /* \"#utility.yul\":8400:8539   */\n      swap1\n      pop\n        /* \"#utility.yul\":8127:8546   */\n      swap2\n      swap1\n      pop\n      jump\t// out\n        /* \"#utility.yul\":8552:8971   */\n    tag_130:\n        /* \"#utility.yul\":8718:8722   */\n      0x00\n        /* \"#utility.yul\":8756:8758   */\n      0x20\n        /* \"#utility.yul\":8745:8754   */\n      dup3\n        /* \"#utility.yul\":8741:8759   */\n      add\n        /* \"#utility.yul\":8733:8759   */\n      swap1\n      pop\n        /* \"#utility.yul\":8805:8814   */\n      dup2\n        /* \"#utility.yul\":8799:8803   */\n      dup2\n        /* \"#utility.yul\":8795:8815   */\n      sub\n        /* \"#utility.yul\":8791:8792   */\n      0x00\n        /* \"#utility.yul\":8780:8789   */\n      dup4\n        /* \"#utility.yul\":8776:8793   */\n      add\n        /* \"#utility.yul\":8769:8816   */\n      mstore\n        /* \"#utility.yul\":8833:8964   */\n      tag_256\n        /* \"#utility.yul\":8959:8963   */\n      dup2\n        /* \"#utility.yul\":8833:8964   */\n      tag_224\n      jump\t// in\n    tag_256:\n        /* \"#utility.yul\":8825:8964   */\n      swap1\n      pop\n        /* \"#utility.yul\":8552:8971   */\n      swap2\n      swap1\n      pop\n      jump\t// out\n        /* \"#utility.yul\":8977:9396   */\n    tag_87:\n        /* \"#utility.yul\":9143:9147   */\n      0x00\n        /* \"#utility.yul\":9181:9183   */\n      0x20\n        /* \"#utility.yul\":9170:9179   */\n      dup3\n        /* \"#utility.yul\":9166:9184   */\n      add\n        /* \"#utility.yul\":9158:9184   */\n      swap1\n      pop\n        /* \"#utility.yul\":9230:9239   */\n      dup2\n        /* \"#utility.yul\":9224:9228   */\n      dup2\n        /* \"#utility.yul\":9220:9240   */\n      sub\n        /* \"#utility.yul\":9216:9217   */\n      0x00\n        /* \"#utility.yul\":9205:9214   */\n      dup4\n        /* \"#utility.yul\":9201:9218   */\n      add\n        /* \"#utility.yul\":9194:9241   */\n      mstore\n        /* \"#utility.yul\":9258:9389   */\n      tag_258\n        /* \"#utility.yul\":9384:9388   */\n      dup2\n        /* \"#utility.yul\":9258:9389   */\n      tag_229\n      jump\t// in\n    tag_258:\n        /* \"#utility.yul\":9250:9389   */\n      swap1\n      pop\n        /* \"#utility.yul\":8977:9396   */\n      swap2\n      swap1\n      pop\n      jump\t// out\n        /* \"#utility.yul\":9402:9821   */\n    tag_83:\n        /* \"#utility.yul\":9568:9572   */\n      0x00\n        /* \"#utility.yul\":9606:9608   */\n      0x20\n        /* \"#utility.yul\":9595:9604   */\n      dup3\n        /* \"#utility.yul\":9591:9609   */\n      add\n        /* \"#utility.yul\":9583:9609   */\n      swap1\n      pop\n        /* \"#utility.yul\":9655:9664   */\n      dup2\n        /* \"#utility.yul\":9649:9653   */\n      dup2\n        /* \"#utility.yul\":9645:9665   */\n      sub\n        /* \"#utility.yul\":9641:9642   */\n      0x00\n        /* \"#utility.yul\":9630:9639   */\n      dup4\n        /* \"#utility.yul\":9626:9643   */\n      add\n        /* \"#utility.yul\":9619:9666   */\n      mstore\n        /* \"#utility.yul\":9683:9814   */\n      tag_260\n        /* \"#utility.yul\":9809:9813   */\n      dup2\n        /* \"#utility.yul\":9683:9814   */\n      tag_234\n      jump\t// in\n    tag_260:\n        /* \"#utility.yul\":9675:9814   */\n      swap1\n      pop\n        /* \"#utility.yul\":9402:9821   */\n      swap2\n      swap1\n      pop\n      jump\t// out\n        /* \"#utility.yul\":9827:10049   */\n    tag_73:\n        /* \"#utility.yul\":9920:9924   */\n      0x00\n        /* \"#utility.yul\":9958:9960   */\n      0x20\n        /* \"#utility.yul\":9947:9956   */\n      dup3\n        /* \"#utility.yul\":9943:9961   */\n      add\n        /* \"#utility.yul\":9935:9961   */\n      swap1\n      pop\n        /* \"#utility.yul\":9971:10042   */\n      tag_262\n        /* \"#utility.yul\":10039:10040   */\n      0x00\n        /* \"#utility.yul\":10028:10037   */\n      dup4\n        /* \"#utility.yul\":10024:10041   */\n      add\n        /* \"#utility.yul\":10015:10021   */\n      dup5\n        /* \"#utility.yul\":9971:10042   */\n      tag_239\n      jump\t// in\n    tag_262:\n        /* \"#utility.yul\":9827:10049   */\n      swap3\n      swap2\n      pop\n      pop\n      jump\t// out\n        /* \"#utility.yul\":10055:10184   */\n    tag_140:\n        /* \"#utility.yul\":10089:10095   */\n      0x00\n        /* \"#utility.yul\":10116:10136   */\n      tag_264\n      tag_265\n      jump\t// in\n    tag_264:\n        /* \"#utility.yul\":10106:10136   */\n      swap1\n      pop\n        /* \"#utility.yul\":10145:10178   */\n      tag_266\n        /* \"#utility.yul\":10173:10177   */\n      dup3\n        /* \"#utility.yul\":10165:10171   */\n      dup3\n        /* \"#utility.yul\":10145:10178   */\n      tag_267\n      jump\t// in\n    tag_266:\n        /* \"#utility.yul\":10055:10184   */\n      swap2\n      swap1\n      pop\n      jump\t// out\n        /* \"#utility.yul\":10190:10265   */\n    tag_265:\n        /* \"#utility.yul\":10223:10229   */\n      0x00\n        /* \"#utility.yul\":10256:10258   */\n      0x40\n        /* \"#utility.yul\":10250:10259   */\n      mload\n        /* \"#utility.yul\":10240:10259   */\n      swap1\n      pop\n        /* \"#utility.yul\":10190:10265   */\n      swap1\n      jump\t// out\n        /* \"#utility.yul\":10271:10582   */\n    tag_139:\n        /* \"#utility.yul\":10348:10352   */\n      0x00\n        /* \"#utility.yul\":10438:10456   */\n      0xffffffffffffffff\n        /* \"#utility.yul\":10430:10436   */\n      dup3\n        /* \"#utility.yul\":10427:10457   */\n      gt\n        /* \"#utility.yul\":10424:10480   */\n      iszero\n      tag_270\n      jumpi\n        /* \"#utility.yul\":10460:10478   */\n      tag_271\n      tag_272\n      jump\t// in\n    tag_271:\n        /* \"#utility.yul\":10424:10480   */\n    tag_270:\n        /* \"#utility.yul\":10510:10514   */\n      0x20\n        /* \"#utility.yul\":10502:10508   */\n      dup3\n        /* \"#utility.yul\":10498:10515   */\n      mul\n        /* \"#utility.yul\":10490:10515   */\n      swap1\n      pop\n        /* \"#utility.yul\":10570:10574   */\n      0x20\n        /* \"#utility.yul\":10564:10568   */\n      dup2\n        /* \"#utility.yul\":10560:10575   */\n      add\n        /* \"#utility.yul\":10552:10575   */\n      swap1\n      pop\n        /* \"#utility.yul\":10271:10582   */\n      swap2\n      swap1\n      pop\n      jump\t// out\n        /* \"#utility.yul\":10588:10895   */\n    tag_153:\n        /* \"#utility.yul\":10649:10653   */\n      0x00\n        /* \"#utility.yul\":10739:10757   */\n      0xffffffffffffffff\n        /* \"#utility.yul\":10731:10737   */\n      dup3\n        /* \"#utility.yul\":10728:10758   */\n      gt\n        /* \"#utility.yul\":10725:10781   */\n      iszero\n      tag_274\n      jumpi\n        /* \"#utility.yul\":10761:10779   */\n      tag_275\n      tag_272\n      jump\t// in\n    tag_275:\n        /* \"#utility.yul\":10725:10781   */\n    tag_274:\n        /* \"#utility.yul\":10799:10828   */\n      tag_276\n        /* \"#utility.yul\":10821:10827   */\n      dup3\n        /* \"#utility.yul\":10799:10828   */\n      tag_277\n      jump\t// in\n    tag_276:\n        /* \"#utility.yul\":10791:10828   */\n      swap1\n      pop\n        /* \"#utility.yul\":10883:10887   */\n      0x20\n        /* \"#utility.yul\":10877:10881   */\n      dup2\n        /* \"#utility.yul\":10873:10888   */\n      add\n        /* \"#utility.yul\":10865:10888   */\n      swap1\n      pop\n        /* \"#utility.yul\":10588:10895   */\n      swap2\n      swap1\n      pop\n      jump\t// out\n        /* \"#utility.yul\":10901:11070   */\n    tag_216:\n        /* \"#utility.yul\":10985:10996   */\n      0x00\n        /* \"#utility.yul\":11019:11025   */\n      dup3\n        /* \"#utility.yul\":11014:11017   */\n      dup3\n        /* \"#utility.yul\":11007:11026   */\n      mstore\n        /* \"#utility.yul\":11059:11063   */\n      0x20\n        /* \"#utility.yul\":11054:11057   */\n      dup3\n        /* \"#utility.yul\":11050:11064   */\n      add\n        /* \"#utility.yul\":11035:11064   */\n      swap1\n      pop\n        /* \"#utility.yul\":10901:11070   */\n      swap3\n      swap2\n      pop\n      pop\n      jump\t// out\n        /* \"#utility.yul\":11076:11381   */\n    tag_34:\n        /* \"#utility.yul\":11116:11119   */\n      0x00\n        /* \"#utility.yul\":11135:11155   */\n      tag_280\n        /* \"#utility.yul\":11153:11154   */\n      dup3\n        /* \"#utility.yul\":11135:11155   */\n      tag_242\n      jump\t// in\n    tag_280:\n        /* \"#utility.yul\":11130:11155   */\n      swap2\n      pop\n        /* \"#utility.yul\":11169:11189   */\n      tag_281\n        /* \"#utility.yul\":11187:11188   */\n      dup4\n        /* \"#utility.yul\":11169:11189   */\n      tag_242\n      jump\t// in\n    tag_281:\n        /* \"#utility.yul\":11164:11189   */\n      swap3\n      pop\n        /* \"#utility.yul\":11323:11324   */\n      dup3\n        /* \"#utility.yul\":11255:11321   */\n      0xffffffffffffffffffffffffffffffffffffffffffffffffffffffffffffffff\n        /* \"#utility.yul\":11251:11325   */\n      sub\n        /* \"#utility.yul\":11248:11249   */\n      dup3\n        /* \"#utility.yul\":11245:11326   */\n      gt\n        /* \"#utility.yul\":11242:11349   */\n      iszero\n      tag_282\n      jumpi\n        /* \"#utility.yul\":11329:11347   */\n      tag_283\n      tag_284\n      jump\t// in\n    tag_283:\n        /* \"#utility.yul\":11242:11349   */\n    tag_282:\n        /* \"#utility.yul\":11373:11374   */\n      dup3\n        /* \"#utility.yul\":11370:11371   */\n      dup3\n        /* \"#utility.yul\":11366:11375   */\n      add\n        /* \"#utility.yul\":11359:11375   */\n      swap1\n      pop\n        /* \"#utility.yul\":11076:11381   */\n      swap3\n      swap2\n      pop\n      pop\n      jump\t// out\n        /* \"#utility.yul\":11387:11572   */\n    tag_18:\n        /* \"#utility.yul\":11427:11428   */\n      0x00\n        /* \"#utility.yul\":11444:11464   */\n      tag_286\n        /* \"#utility.yul\":11462:11463   */\n      dup3\n        /* \"#utility.yul\":11444:11464   */\n      tag_242\n      jump\t// in\n    tag_286:\n        /* \"#utility.yul\":11439:11464   */\n      swap2\n      pop\n        /* \"#utility.yul\":11478:11498   */\n      tag_287\n        /* \"#utility.yul\":11496:11497   */\n      dup4\n        /* \"#utility.yul\":11478:11498   */\n      tag_242\n      jump\t// in\n    tag_287:\n        /* \"#utility.yul\":11473:11498   */\n      swap3\n      pop\n        /* \"#utility.yul\":11517:11518   */\n      dup3\n        /* \"#utility.yul\":11507:11542   */\n      tag_288\n      jumpi\n        /* \"#utility.yul\":11522:11540   */\n      tag_289\n      tag_290\n      jump\t// in\n    tag_289:\n        /* \"#utility.yul\":11507:11542   */\n    tag_288:\n        /* \"#utility.yul\":11564:11565   */\n      dup3\n        /* \"#utility.yul\":11561:11562   */\n      dup3\n        /* \"#utility.yul\":11557:11566   */\n      div\n        /* \"#utility.yul\":11552:11566   */\n      swap1\n      pop\n        /* \"#utility.yul\":11387:11572   */\n      swap3\n      swap2\n      pop\n      pop\n      jump\t// out\n        /* \"#utility.yul\":11578:11674   */\n    tag_208:\n        /* \"#utility.yul\":11615:11622   */\n      0x00\n        /* \"#utility.yul\":11644:11668   */\n      tag_292\n        /* \"#utility.yul\":11662:11667   */\n      dup3\n        /* \"#utility.yul\":11644:11668   */\n      tag_293\n      jump\t// in\n    tag_292:\n        /* \"#utility.yul\":11633:11668   */\n      swap1\n      pop\n        /* \"#utility.yul\":11578:11674   */\n      swap2\n      swap1\n      pop\n      jump\t// out\n        /* \"#utility.yul\":11680:11829   */\n    tag_212:\n        /* \"#utility.yul\":11716:11723   */\n      0x00\n        /* \"#utility.yul\":11756:11822   */\n      0xffffffff00000000000000000000000000000000000000000000000000000000\n        /* \"#utility.yul\":11749:11754   */\n      dup3\n        /* \"#utility.yul\":11745:11823   */\n      and\n        /* \"#utility.yul\":11734:11823   */\n      swap1\n      pop\n        /* \"#utility.yul\":11680:11829   */\n      swap2\n      swap1\n      pop\n      jump\t// out\n        /* \"#utility.yul\":11835:11961   */\n    tag_293:\n        /* \"#utility.yul\":11872:11879   */\n      0x00\n        /* \"#utility.yul\":11912:11954   */\n      0xffffffffffffffffffffffffffffffffffffffff\n        /* \"#utility.yul\":11905:11910   */\n      dup3\n        /* \"#utility.yul\":11901:11955   */\n      and\n        /* \"#utility.yul\":11890:11955   */\n      swap1\n      pop\n        /* \"#utility.yul\":11835:11961   */\n      swap2\n      swap1\n      pop\n      jump\t// out\n        /* \"#utility.yul\":11967:12044   */\n    tag_242:\n        /* \"#utility.yul\":12004:12011   */\n      0x00\n        /* \"#utility.yul\":12033:12038   */\n      dup2\n        /* \"#utility.yul\":12022:12038   */\n      swap1\n      pop\n        /* \"#utility.yul\":11967:12044   */\n      swap2\n      swap1\n      pop\n      jump\t// out\n        /* \"#utility.yul\":12050:12204   */\n    tag_158:\n        /* \"#utility.yul\":12134:12140   */\n      dup3\n        /* \"#utility.yul\":12129:12132   */\n      dup2\n        /* \"#utility.yul\":12124:12127   */\n      dup4\n        /* \"#utility.yul\":12111:12141   */\n      calldatacopy\n        /* \"#utility.yul\":12196:12197   */\n      0x00\n        /* \"#utility.yul\":12187:12193   */\n      dup4\n        /* \"#utility.yul\":12182:12185   */\n      dup4\n        /* \"#utility.yul\":12178:12194   */\n      add\n        /* \"#utility.yul\":12171:12198   */\n      mstore\n        /* \"#utility.yul\":12050:12204   */\n      pop\n      pop\n      pop\n      jump\t// out\n        /* \"#utility.yul\":12210:12491   */\n    tag_267:\n        /* \"#utility.yul\":12293:12320   */\n      tag_299\n        /* \"#utility.yul\":12315:12319   */\n      dup3\n        /* \"#utility.yul\":12293:12320   */\n      tag_277\n      jump\t// in\n    tag_299:\n        /* \"#utility.yul\":12285:12291   */\n      dup2\n        /* \"#utility.yul\":12281:12321   */\n      add\n        /* \"#utility.yul\":12423:12429   */\n      dup2\n        /* \"#utility.yul\":12411:12421   */\n      dup2\n        /* \"#utility.yul\":12408:12430   */\n      lt\n        /* \"#utility.yul\":12387:12405   */\n      0xffffffffffffffff\n        /* \"#utility.yul\":12375:12385   */\n      dup3\n        /* \"#utility.yul\":12372:12406   */\n      gt\n        /* \"#utility.yul\":12369:12431   */\n      or\n        /* \"#utility.yul\":12366:12454   */\n      iszero\n      tag_300\n      jumpi\n        /* \"#utility.yul\":12434:12452   */\n      tag_301\n      tag_272\n      jump\t// in\n    tag_301:\n        /* \"#utility.yul\":12366:12454   */\n    tag_300:\n        /* \"#utility.yul\":12474:12484   */\n      dup1\n        /* \"#utility.yul\":12470:12472   */\n      0x40\n        /* \"#utility.yul\":12463:12485   */\n      mstore\n        /* \"#utility.yul\":12253:12491   */\n      pop\n        /* \"#utility.yul\":12210:12491   */\n      pop\n      pop\n      jump\t// out\n        /* \"#utility.yul\":12497:12677   */\n    tag_284:\n        /* \"#utility.yul\":12545:12622   */\n      0x4e487b7100000000000000000000000000000000000000000000000000000000\n        /* \"#utility.yul\":12542:12543   */\n      0x00\n        /* \"#utility.yul\":12535:12623   */\n      mstore\n        /* \"#utility.yul\":12642:12646   */\n      0x11\n        /* \"#utility.yul\":12639:12640   */\n      0x04\n        /* \"#utility.yul\":12632:12647   */\n      mstore\n        /* \"#utility.yul\":12666:12670   */\n      0x24\n        /* \"#utility.yul\":12663:12664   */\n      0x00\n        /* \"#utility.yul\":12656:12671   */\n      revert\n        /* \"#utility.yul\":12683:12863   */\n    tag_290:\n        /* \"#utility.yul\":12731:12808   */\n      0x4e487b7100000000000000000000000000000000000000000000000000000000\n        /* \"#utility.yul\":12728:12729   */\n      0x00\n        /* \"#utility.yul\":12721:12809   */\n      mstore\n        /* \"#utility.yul\":12828:12832   */\n      0x12\n        /* \"#utility.yul\":12825:12826   */\n      0x04\n        /* \"#utility.yul\":12818:12833   */\n      mstore\n        /* \"#utility.yul\":12852:12856   */\n      0x24\n        /* \"#utility.yul\":12849:12850   */\n      0x00\n        /* \"#utility.yul\":12842:12857   */\n      revert\n        /* \"#utility.yul\":12869:13049   */\n    tag_31:\n        /* \"#utility.yul\":12917:12994   */\n      0x4e487b7100000000000000000000000000000000000000000000000000000000\n        /* \"#utility.yul\":12914:12915   */\n      0x00\n        /* \"#utility.yul\":12907:12995   */\n      mstore\n        /* \"#utility.yul\":13014:13018   */\n      0x32\n        /* \"#utility.yul\":13011:13012   */\n      0x04\n        /* \"#utility.yul\":13004:13019   */\n      mstore\n        /* \"#utility.yul\":13038:13042   */\n      0x24\n        /* \"#utility.yul\":13035:13036   */\n      0x00\n        /* \"#utility.yul\":13028:13043   */\n      revert\n        /* \"#utility.yul\":13055:13235   */\n    tag_272:\n        /* \"#utility.yul\":13103:13180   */\n      0x4e487b7100000000000000000000000000000000000000000000000000000000\n        /* \"#utility.yul\":13100:13101   */\n      0x00\n        /* \"#utility.yul\":13093:13181   */\n      mstore\n        /* \"#utility.yul\":13200:13204   */\n      0x41\n        /* \"#utility.yul\":13197:13198   */\n      0x04\n        /* \"#utility.yul\":13190:13205   */\n      mstore\n        /* \"#utility.yul\":13224:13228   */\n      0x24\n        /* \"#utility.yul\":13221:13222   */\n      0x00\n        /* \"#utility.yul\":13214:13229   */\n      revert\n        /* \"#utility.yul\":13241:13358   */\n    tag_167:\n        /* \"#utility.yul\":13350:13351   */\n      0x00\n        /* \"#utility.yul\":13347:13348   */\n      dup1\n        /* \"#utility.yul\":13340:13352   */\n      revert\n        /* \"#utility.yul\":13364:13481   */\n    tag_143:\n        /* \"#utility.yul\":13473:13474   */\n      0x00\n        /* \"#utility.yul\":13470:13471   */\n      dup1\n        /* \"#utility.yul\":13463:13475   */\n      revert\n        /* \"#utility.yul\":13487:13604   */\n    tag_156:\n        /* \"#utility.yul\":13596:13597   */\n      0x00\n        /* \"#utility.yul\":13593:13594   */\n      dup1\n        /* \"#utility.yul\":13586:13598   */\n      revert\n        /* \"#utility.yul\":13610:13727   */\n    tag_193:\n        /* \"#utility.yul\":13719:13720   */\n      0x00\n        /* \"#utility.yul\":13716:13717   */\n      dup1\n        /* \"#utility.yul\":13709:13721   */\n      revert\n        /* \"#utility.yul\":13733:13850   */\n    tag_183:\n        /* \"#utility.yul\":13842:13843   */\n      0x00\n        /* \"#utility.yul\":13839:13840   */\n      dup1\n        /* \"#utility.yul\":13832:13844   */\n      revert\n        /* \"#utility.yul\":13856:13958   */\n    tag_277:\n        /* \"#utility.yul\":13897:13903   */\n      0x00\n        /* \"#utility.yul\":13948:13950   */\n      0x1f\n        /* \"#utility.yul\":13944:13951   */\n      not\n        /* \"#utility.yul\":13939:13941   */\n      0x1f\n        /* \"#utility.yul\":13932:13937   */\n      dup4\n        /* \"#utility.yul\":13928:13942   */\n      add\n        /* \"#utility.yul\":13924:13952   */\n      and\n        /* \"#utility.yul\":13914:13952   */\n      swap1\n      pop\n        /* \"#utility.yul\":13856:13958   */\n      swap2\n      swap1\n      pop\n      jump\t// out\n        /* \"#utility.yul\":13964:14141   */\n    tag_218:\n        /* \"#utility.yul\":14104:14133   */\n      0x436f756e7465723a2064656372656d656e74206f766572666c6f770000000000\n        /* \"#utility.yul\":14100:14101   */\n      0x00\n        /* \"#utility.yul\":14092:14098   */\n      dup3\n        /* \"#utility.yul\":14088:14102   */\n      add\n        /* \"#utility.yul\":14081:14134   */\n      mstore\n        /* \"#utility.yul\":13964:14141   */\n      pop\n      jump\t// out\n        /* \"#utility.yul\":14147:14372   */\n    tag_223:\n        /* \"#utility.yul\":14287:14321   */\n      0x4f776e61626c653a206e6577206f776e657220697320746865207a65726f2061\n        /* \"#utility.yul\":14283:14284   */\n      0x00\n        /* \"#utility.yul\":14275:14281   */\n      dup3\n        /* \"#utility.yul\":14271:14285   */\n      add\n        /* \"#utility.yul\":14264:14322   */\n      mstore\n        /* \"#utility.yul\":14356:14364   */\n      0x6464726573730000000000000000000000000000000000000000000000000000\n        /* \"#utility.yul\":14351:14353   */\n      0x20\n        /* \"#utility.yul\":14343:14349   */\n      dup3\n        /* \"#utility.yul\":14339:14354   */\n      add\n        /* \"#utility.yul\":14332:14365   */\n      mstore\n        /* \"#utility.yul\":14147:14372   */\n      pop\n      jump\t// out\n        /* \"#utility.yul\":14378:14560   */\n    tag_228:\n        /* \"#utility.yul\":14518:14552   */\n      0x4f776e61626c653a2063616c6c6572206973206e6f7420746865206f776e6572\n        /* \"#utility.yul\":14514:14515   */\n      0x00\n        /* \"#utility.yul\":14506:14512   */\n      dup3\n        /* \"#utility.yul\":14502:14516   */\n      add\n        /* \"#utility.yul\":14495:14553   */\n      mstore\n        /* \"#utility.yul\":14378:14560   */\n      pop\n      jump\t// out\n        /* \"#utility.yul\":14566:14738   */\n    tag_233:\n        /* \"#utility.yul\":14706:14730   */\n      0x596f7520617265206e6f7420746865206f776e65722e00000000000000000000\n        /* \"#utility.yul\":14702:14703   */\n      0x00\n        /* \"#utility.yul\":14694:14700   */\n      dup3\n        /* \"#utility.yul\":14690:14704   */\n      add\n        /* \"#utility.yul\":14683:14731   */\n      mstore\n        /* \"#utility.yul\":14566:14738   */\n      pop\n      jump\t// out\n        /* \"#utility.yul\":14744:14925   */\n    tag_238:\n        /* \"#utility.yul\":14884:14917   */\n      0x5265656e7472616e637947756172643a207265656e7472616e742063616c6c00\n        /* \"#utility.yul\":14880:14881   */\n      0x00\n        /* \"#utility.yul\":14872:14878   */\n      dup3\n        /* \"#utility.yul\":14868:14882   */\n      add\n        /* \"#utility.yul\":14861:14918   */\n      mstore\n        /* \"#utility.yul\":14744:14925   */\n      pop\n      jump\t// out\n        /* \"#utility.yul\":14931:15053   */\n    tag_162:\n        /* \"#utility.yul\":15004:15028   */\n      tag_318\n        /* \"#utility.yul\":15022:15027   */\n      dup2\n        /* \"#utility.yul\":15004:15028   */\n      tag_208\n      jump\t// in\n    tag_318:\n        /* \"#utility.yul\":14997:15002   */\n      dup2\n        /* \"#utility.yul\":14994:15029   */\n      eq\n        /* \"#utility.yul\":14984:15047   */\n      tag_319\n      jumpi\n        /* \"#utility.yul\":15043:15044   */\n      0x00\n        /* \"#utility.yul\":15040:15041   */\n      dup1\n        /* \"#utility.yul\":15033:15045   */\n      revert\n        /* \"#utility.yul\":14984:15047   */\n    tag_319:\n        /* \"#utility.yul\":14931:15053   */\n      pop\n      jump\t// out\n        /* \"#utility.yul\":15059:15181   */\n    tag_177:\n        /* \"#utility.yul\":15132:15156   */\n      tag_321\n        /* \"#utility.yul\":15150:15155   */\n      dup2\n        /* \"#utility.yul\":15132:15156   */\n      tag_242\n      jump\t// in\n    tag_321:\n        /* \"#utility.yul\":15125:15130   */\n      dup2\n        /* \"#utility.yul\":15122:15157   */\n      eq\n        /* \"#utility.yul\":15112:15175   */\n      tag_322\n      jumpi\n        /* \"#utility.yul\":15171:15172   */\n      0x00\n        /* \"#utility.yul\":15168:15169   */\n      dup1\n        /* \"#utility.yul\":15161:15173   */\n      revert\n        /* \"#utility.yul\":15112:15175   */\n    tag_322:\n        /* \"#utility.yul\":15059:15181   */\n      pop\n      jump\t// out\n\n    auxdata: 0xa2646970667358221220358c1e1ad9bffa6ca993009eba38c17419c73a3934e9f133d0c757cb864d202e64736f6c63430008070033\n}\n",
				"bytecode": {
					"linkReferences": {},
					"object": "60806040523480156200001157600080fd5b506040516200140f3803806200140f833981810160405281019062000037919062000189565b620000576200004b620000a660201b60201c565b620000ae60201b60201c565b6001808190555080600260006101000a81548173ffffffffffffffffffffffffffffffffffffffff021916908373ffffffffffffffffffffffffffffffffffffffff160217905550506200020e565b600033905090565b60008060009054906101000a900473ffffffffffffffffffffffffffffffffffffffff169050816000806101000a81548173ffffffffffffffffffffffffffffffffffffffff021916908373ffffffffffffffffffffffffffffffffffffffff1602179055508173ffffffffffffffffffffffffffffffffffffffff168173ffffffffffffffffffffffffffffffffffffffff167f8be0079c531659141344cd1fd0a4f28419497f9722a3daafe3b4186f6b6457e060405160405180910390a35050565b6000815190506200018381620001f4565b92915050565b600060208284031215620001a257620001a1620001ef565b5b6000620001b28482850162000172565b91505092915050565b6000620001c882620001cf565b9050919050565b600073ffffffffffffffffffffffffffffffffffffffff82169050919050565b600080fd5b620001ff81620001bb565b81146200020b57600080fd5b50565b6111f1806200021e6000396000f3fe60806040526004361061008a5760003560e01c80638da5cb5b116100595780638da5cb5b1461027f578063a694fc3a146102aa578063f2fde38b146102d3578063f301af42146102fc578063fd71c65014610339576101c0565b8063150b7a02146101c55780632e17de7814610202578063715018a61461022b5780638488cc4114610242576101c0565b366101c057600061009b6003610362565b346100a69190610edb565b90506000600260009054906101000a900473ffffffffffffffffffffffffffffffffffffffff1673ffffffffffffffffffffffffffffffffffffffff1663438b6300306040518263ffffffff1660e01b81526004016101059190610cca565b60006040518083038186803b15801561011d57600080fd5b505afa158015610131573d6000803e3d6000fd5b505050506040513d6000823e3d601f19601f8201168201806040525081019061015a9190610b78565b905060005b81518110156101bb5782600560006006848154811061018157610180611012565b5b9060005260206000200154815260200190815260200160002060008282546101a99190610e85565b9250508190555080600101905061015f565b505050005b600080fd5b3480156101d157600080fd5b506101ec60048036038101906101e79190610af5565b610370565b6040516101f99190610d1c565b60405180910390f35b34801561020e57600080fd5b5061022960048036038101906102249190610bc1565b610384565b005b34801561023757600080fd5b5061024061054e565b005b34801561024e57600080fd5b5061026960048036038101906102649190610bc1565b610562565b6040516102769190610cca565b60405180910390f35b34801561028b57600080fd5b50610294610595565b6040516102a19190610cca565b60405180910390f35b3480156102b657600080fd5b506102d160048036038101906102cc9190610bc1565b6105be565b005b3480156102df57600080fd5b506102fa60048036038101906102f59190610ac8565b6106d7565b005b34801561030857600080fd5b50610323600480360381019061031e9190610bc1565b61075b565b6040516103309190610dd7565b60405180910390f35b34801561034557600080fd5b50610360600480360381019061035b9190610ac8565b610773565b005b600081600001549050919050565b600063150b7a0260e01b9050949350505050565b600260015414156103ca576040517f08c379a00000000000000000000000000000000000000000000000000000000081526004016103c190610db7565b60405180910390fd5b60026001819055503373ffffffffffffffffffffffffffffffffffffffff166004600083815260200190815260200160002060009054906101000a900473ffffffffffffffffffffffffffffffffffffffff1673ffffffffffffffffffffffffffffffffffffffff1614610473576040517f08c379a000000000000000000000000000000000000000000000000000000000815260040161046a90610d97565b60405180910390fd5b6004600082815260200190815260200160002060006101000a81549073ffffffffffffffffffffffffffffffffffffffff02191690556104b360036107bf565b600260009054906101000a900473ffffffffffffffffffffffffffffffffffffffff1673ffffffffffffffffffffffffffffffffffffffff166342842e0e3033846040518463ffffffff1660e01b815260040161051293929190610ce5565b600060405180830381600087803b15801561052c57600080fd5b505af1158015610540573d6000803e3d6000fd5b505050506001808190555050565b61055661081b565b6105606000610899565b565b60046020528060005260406000206000915054906101000a900473ffffffffffffffffffffffffffffffffffffffff1681565b60008060009054906101000a900473ffffffffffffffffffffffffffffffffffffffff16905090565b600260009054906101000a900473ffffffffffffffffffffffffffffffffffffffff1673ffffffffffffffffffffffffffffffffffffffff166342842e0e3330846040518463ffffffff1660e01b815260040161061d93929190610ce5565b600060405180830381600087803b15801561063757600080fd5b505af115801561064b573d6000803e3d6000fd5b50505050336004600083815260200190815260200160002060006101000a81548173ffffffffffffffffffffffffffffffffffffffff021916908373ffffffffffffffffffffffffffffffffffffffff16021790555060068190806001815401808255809150506001900390600052602060002001600090919091909150556106d4600361095d565b50565b6106df61081b565b600073ffffffffffffffffffffffffffffffffffffffff168173ffffffffffffffffffffffffffffffffffffffff16141561074f576040517f08c379a000000000000000000000000000000000000000000000000000000000815260040161074690610d57565b60405180910390fd5b61075881610899565b50565b60056020528060005260406000206000915090505481565b61077b61081b565b80600260006101000a81548173ffffffffffffffffffffffffffffffffffffffff021916908373ffffffffffffffffffffffffffffffffffffffff16021790555050565b6000816000015490506000811161080b576040517f08c379a000000000000000000000000000000000000000000000000000000000815260040161080290610d37565b60405180910390fd5b6001810382600001819055505050565b610823610973565b73ffffffffffffffffffffffffffffffffffffffff16610841610595565b73ffffffffffffffffffffffffffffffffffffffff1614610897576040517f08c379a000000000000000000000000000000000000000000000000000000000815260040161088e90610d77565b60405180910390fd5b565b60008060009054906101000a900473ffffffffffffffffffffffffffffffffffffffff169050816000806101000a81548173ffffffffffffffffffffffffffffffffffffffff021916908373ffffffffffffffffffffffffffffffffffffffff1602179055508173ffffffffffffffffffffffffffffffffffffffff168173ffffffffffffffffffffffffffffffffffffffff167f8be0079c531659141344cd1fd0a4f28419497f9722a3daafe3b4186f6b6457e060405160405180910390a35050565b6001816000016000828254019250508190555050565b600033905090565b600061098e61098984610e17565b610df2565b905080838252602082019050828560208602820111156109b1576109b0611075565b5b60005b858110156109e157816109c78882610ab3565b8452602084019350602083019250506001810190506109b4565b5050509392505050565b60006109fe6109f984610e43565b610df2565b905082815260208101848484011115610a1a57610a1961107a565b5b610a25848285610f74565b509392505050565b600081359050610a3c8161118d565b92915050565b600082601f830112610a5757610a56611070565b5b8151610a6784826020860161097b565b91505092915050565b600082601f830112610a8557610a84611070565b5b8135610a958482602086016109eb565b91505092915050565b600081359050610aad816111a4565b92915050565b600081519050610ac2816111a4565b92915050565b600060208284031215610ade57610add611084565b5b6000610aec84828501610a2d565b91505092915050565b60008060008060808587031215610b0f57610b0e611084565b5b6000610b1d87828801610a2d565b9450506020610b2e87828801610a2d565b9350506040610b3f87828801610a9e565b925050606085013567ffffffffffffffff811115610b6057610b5f61107f565b5b610b6c87828801610a70565b91505092959194509250565b600060208284031215610b8e57610b8d611084565b5b600082015167ffffffffffffffff811115610bac57610bab61107f565b5b610bb884828501610a42565b91505092915050565b600060208284031215610bd757610bd6611084565b5b6000610be584828501610a9e565b91505092915050565b610bf781610f0c565b82525050565b610c0681610f1e565b82525050565b6000610c19601b83610e74565b9150610c248261109a565b602082019050919050565b6000610c3c602683610e74565b9150610c47826110c3565b604082019050919050565b6000610c5f602083610e74565b9150610c6a82611112565b602082019050919050565b6000610c82601683610e74565b9150610c8d8261113b565b602082019050919050565b6000610ca5601f83610e74565b9150610cb082611164565b602082019050919050565b610cc481610f6a565b82525050565b6000602082019050610cdf6000830184610bee565b92915050565b6000606082019050610cfa6000830186610bee565b610d076020830185610bee565b610d146040830184610cbb565b949350505050565b6000602082019050610d316000830184610bfd565b92915050565b60006020820190508181036000830152610d5081610c0c565b9050919050565b60006020820190508181036000830152610d7081610c2f565b9050919050565b60006020820190508181036000830152610d9081610c52565b9050919050565b60006020820190508181036000830152610db081610c75565b9050919050565b60006020820190508181036000830152610dd081610c98565b9050919050565b6000602082019050610dec6000830184610cbb565b92915050565b6000610dfc610e0d565b9050610e088282610f83565b919050565b6000604051905090565b600067ffffffffffffffff821115610e3257610e31611041565b5b602082029050602081019050919050565b600067ffffffffffffffff821115610e5e57610e5d611041565b5b610e6782611089565b9050602081019050919050565b600082825260208201905092915050565b6000610e9082610f6a565b9150610e9b83610f6a565b9250827fffffffffffffffffffffffffffffffffffffffffffffffffffffffffffffffff03821115610ed057610ecf610fb4565b5b828201905092915050565b6000610ee682610f6a565b9150610ef183610f6a565b925082610f0157610f00610fe3565b5b828204905092915050565b6000610f1782610f4a565b9050919050565b60007fffffffff0000000000000000000000000000000000000000000000000000000082169050919050565b600073ffffffffffffffffffffffffffffffffffffffff82169050919050565b6000819050919050565b82818337600083830152505050565b610f8c82611089565b810181811067ffffffffffffffff82111715610fab57610faa611041565b5b80604052505050565b7f4e487b7100000000000000000000000000000000000000000000000000000000600052601160045260246000fd5b7f4e487b7100000000000000000000000000000000000000000000000000000000600052601260045260246000fd5b7f4e487b7100000000000000000000000000000000000000000000000000000000600052603260045260246000fd5b7f4e487b7100000000000000000000000000000000000000000000000000000000600052604160045260246000fd5b600080fd5b600080fd5b600080fd5b600080fd5b600080fd5b6000601f19601f8301169050919050565b7f436f756e7465723a2064656372656d656e74206f766572666c6f770000000000600082015250565b7f4f776e61626c653a206e6577206f776e657220697320746865207a65726f206160008201527f6464726573730000000000000000000000000000000000000000000000000000602082015250565b7f4f776e61626c653a2063616c6c6572206973206e6f7420746865206f776e6572600082015250565b7f596f7520617265206e6f7420746865206f776e65722e00000000000000000000600082015250565b7f5265656e7472616e637947756172643a207265656e7472616e742063616c6c00600082015250565b61119681610f0c565b81146111a157600080fd5b50565b6111ad81610f6a565b81146111b857600080fd5b5056fea2646970667358221220358c1e1ad9bffa6ca993009eba38c17419c73a3934e9f133d0c757cb864d202e64736f6c63430008070033",
					"opcodes": "PUSH1 0x80 PUSH1 0x40 MSTORE CALLVALUE DUP1 ISZERO PUSH3 0x11 JUMPI PUSH1 0x0 DUP1 REVERT JUMPDEST POP PUSH1 0x40 MLOAD PUSH3 0x140F CODESIZE SUB DUP1 PUSH3 0x140F DUP4 CODECOPY DUP2 DUP2 ADD PUSH1 0x40 MSTORE DUP2 ADD SWAP1 PUSH3 0x37 SWAP2 SWAP1 PUSH3 0x189 JUMP JUMPDEST PUSH3 0x57 PUSH3 0x4B PUSH3 0xA6 PUSH1 0x20 SHL PUSH1 0x20 SHR JUMP JUMPDEST PUSH3 0xAE PUSH1 0x20 SHL PUSH1 0x20 SHR JUMP JUMPDEST PUSH1 0x1 DUP1 DUP2 SWAP1 SSTORE POP DUP1 PUSH1 0x2 PUSH1 0x0 PUSH2 0x100 EXP DUP2 SLOAD DUP2 PUSH20 0xFFFFFFFFFFFFFFFFFFFFFFFFFFFFFFFFFFFFFFFF MUL NOT AND SWAP1 DUP4 PUSH20 0xFFFFFFFFFFFFFFFFFFFFFFFFFFFFFFFFFFFFFFFF AND MUL OR SWAP1 SSTORE POP POP PUSH3 0x20E JUMP JUMPDEST PUSH1 0x0 CALLER SWAP1 POP SWAP1 JUMP JUMPDEST PUSH1 0x0 DUP1 PUSH1 0x0 SWAP1 SLOAD SWAP1 PUSH2 0x100 EXP SWAP1 DIV PUSH20 0xFFFFFFFFFFFFFFFFFFFFFFFFFFFFFFFFFFFFFFFF AND SWAP1 POP DUP2 PUSH1 0x0 DUP1 PUSH2 0x100 EXP DUP2 SLOAD DUP2 PUSH20 0xFFFFFFFFFFFFFFFFFFFFFFFFFFFFFFFFFFFFFFFF MUL NOT AND SWAP1 DUP4 PUSH20 0xFFFFFFFFFFFFFFFFFFFFFFFFFFFFFFFFFFFFFFFF AND MUL OR SWAP1 SSTORE POP DUP2 PUSH20 0xFFFFFFFFFFFFFFFFFFFFFFFFFFFFFFFFFFFFFFFF AND DUP2 PUSH20 0xFFFFFFFFFFFFFFFFFFFFFFFFFFFFFFFFFFFFFFFF AND PUSH32 0x8BE0079C531659141344CD1FD0A4F28419497F9722A3DAAFE3B4186F6B6457E0 PUSH1 0x40 MLOAD PUSH1 0x40 MLOAD DUP1 SWAP2 SUB SWAP1 LOG3 POP POP JUMP JUMPDEST PUSH1 0x0 DUP2 MLOAD SWAP1 POP PUSH3 0x183 DUP2 PUSH3 0x1F4 JUMP JUMPDEST SWAP3 SWAP2 POP POP JUMP JUMPDEST PUSH1 0x0 PUSH1 0x20 DUP3 DUP5 SUB SLT ISZERO PUSH3 0x1A2 JUMPI PUSH3 0x1A1 PUSH3 0x1EF JUMP JUMPDEST JUMPDEST PUSH1 0x0 PUSH3 0x1B2 DUP5 DUP3 DUP6 ADD PUSH3 0x172 JUMP JUMPDEST SWAP2 POP POP SWAP3 SWAP2 POP POP JUMP JUMPDEST PUSH1 0x0 PUSH3 0x1C8 DUP3 PUSH3 0x1CF JUMP JUMPDEST SWAP1 POP SWAP2 SWAP1 POP JUMP JUMPDEST PUSH1 0x0 PUSH20 0xFFFFFFFFFFFFFFFFFFFFFFFFFFFFFFFFFFFFFFFF DUP3 AND SWAP1 POP SWAP2 SWAP1 POP JUMP JUMPDEST PUSH1 0x0 DUP1 REVERT JUMPDEST PUSH3 0x1FF DUP2 PUSH3 0x1BB JUMP JUMPDEST DUP2 EQ PUSH3 0x20B JUMPI PUSH1 0x0 DUP1 REVERT JUMPDEST POP JUMP JUMPDEST PUSH2 0x11F1 DUP1 PUSH3 0x21E PUSH1 0x0 CODECOPY PUSH1 0x0 RETURN INVALID PUSH1 0x80 PUSH1 0x40 MSTORE PUSH1 0x4 CALLDATASIZE LT PUSH2 0x8A JUMPI PUSH1 0x0 CALLDATALOAD PUSH1 0xE0 SHR DUP1 PUSH4 0x8DA5CB5B GT PUSH2 0x59 JUMPI DUP1 PUSH4 0x8DA5CB5B EQ PUSH2 0x27F JUMPI DUP1 PUSH4 0xA694FC3A EQ PUSH2 0x2AA JUMPI DUP1 PUSH4 0xF2FDE38B EQ PUSH2 0x2D3 JUMPI DUP1 PUSH4 0xF301AF42 EQ PUSH2 0x2FC JUMPI DUP1 PUSH4 0xFD71C650 EQ PUSH2 0x339 JUMPI PUSH2 0x1C0 JUMP JUMPDEST DUP1 PUSH4 0x150B7A02 EQ PUSH2 0x1C5 JUMPI DUP1 PUSH4 0x2E17DE78 EQ PUSH2 0x202 JUMPI DUP1 PUSH4 0x715018A6 EQ PUSH2 0x22B JUMPI DUP1 PUSH4 0x8488CC41 EQ PUSH2 0x242 JUMPI PUSH2 0x1C0 JUMP JUMPDEST CALLDATASIZE PUSH2 0x1C0 JUMPI PUSH1 0x0 PUSH2 0x9B PUSH1 0x3 PUSH2 0x362 JUMP JUMPDEST CALLVALUE PUSH2 0xA6 SWAP2 SWAP1 PUSH2 0xEDB JUMP JUMPDEST SWAP1 POP PUSH1 0x0 PUSH1 0x2 PUSH1 0x0 SWAP1 SLOAD SWAP1 PUSH2 0x100 EXP SWAP1 DIV PUSH20 0xFFFFFFFFFFFFFFFFFFFFFFFFFFFFFFFFFFFFFFFF AND PUSH20 0xFFFFFFFFFFFFFFFFFFFFFFFFFFFFFFFFFFFFFFFF AND PUSH4 0x438B6300 ADDRESS PUSH1 0x40 MLOAD DUP3 PUSH4 0xFFFFFFFF AND PUSH1 0xE0 SHL DUP2 MSTORE PUSH1 0x4 ADD PUSH2 0x105 SWAP2 SWAP1 PUSH2 0xCCA JUMP JUMPDEST PUSH1 0x0 PUSH1 0x40 MLOAD DUP1 DUP4 SUB DUP2 DUP7 DUP1 EXTCODESIZE ISZERO DUP1 ISZERO PUSH2 0x11D JUMPI PUSH1 0x0 DUP1 REVERT JUMPDEST POP GAS STATICCALL ISZERO DUP1 ISZERO PUSH2 0x131 JUMPI RETURNDATASIZE PUSH1 0x0 DUP1 RETURNDATACOPY RETURNDATASIZE PUSH1 0x0 REVERT JUMPDEST POP POP POP POP PUSH1 0x40 MLOAD RETURNDATASIZE PUSH1 0x0 DUP3 RETURNDATACOPY RETURNDATASIZE PUSH1 0x1F NOT PUSH1 0x1F DUP3 ADD AND DUP3 ADD DUP1 PUSH1 0x40 MSTORE POP DUP2 ADD SWAP1 PUSH2 0x15A SWAP2 SWAP1 PUSH2 0xB78 JUMP JUMPDEST SWAP1 POP PUSH1 0x0 JUMPDEST DUP2 MLOAD DUP2 LT ISZERO PUSH2 0x1BB JUMPI DUP3 PUSH1 0x5 PUSH1 0x0 PUSH1 0x6 DUP5 DUP2 SLOAD DUP2 LT PUSH2 0x181 JUMPI PUSH2 0x180 PUSH2 0x1012 JUMP JUMPDEST JUMPDEST SWAP1 PUSH1 0x0 MSTORE PUSH1 0x20 PUSH1 0x0 KECCAK256 ADD SLOAD DUP2 MSTORE PUSH1 0x20 ADD SWAP1 DUP2 MSTORE PUSH1 0x20 ADD PUSH1 0x0 KECCAK256 PUSH1 0x0 DUP3 DUP3 SLOAD PUSH2 0x1A9 SWAP2 SWAP1 PUSH2 0xE85 JUMP JUMPDEST SWAP3 POP POP DUP2 SWAP1 SSTORE POP DUP1 PUSH1 0x1 ADD SWAP1 POP PUSH2 0x15F JUMP JUMPDEST POP POP POP STOP JUMPDEST PUSH1 0x0 DUP1 REVERT JUMPDEST CALLVALUE DUP1 ISZERO PUSH2 0x1D1 JUMPI PUSH1 0x0 DUP1 REVERT JUMPDEST POP PUSH2 0x1EC PUSH1 0x4 DUP1 CALLDATASIZE SUB DUP2 ADD SWAP1 PUSH2 0x1E7 SWAP2 SWAP1 PUSH2 0xAF5 JUMP JUMPDEST PUSH2 0x370 JUMP JUMPDEST PUSH1 0x40 MLOAD PUSH2 0x1F9 SWAP2 SWAP1 PUSH2 0xD1C JUMP JUMPDEST PUSH1 0x40 MLOAD DUP1 SWAP2 SUB SWAP1 RETURN JUMPDEST CALLVALUE DUP1 ISZERO PUSH2 0x20E JUMPI PUSH1 0x0 DUP1 REVERT JUMPDEST POP PUSH2 0x229 PUSH1 0x4 DUP1 CALLDATASIZE SUB DUP2 ADD SWAP1 PUSH2 0x224 SWAP2 SWAP1 PUSH2 0xBC1 JUMP JUMPDEST PUSH2 0x384 JUMP JUMPDEST STOP JUMPDEST CALLVALUE DUP1 ISZERO PUSH2 0x237 JUMPI PUSH1 0x0 DUP1 REVERT JUMPDEST POP PUSH2 0x240 PUSH2 0x54E JUMP JUMPDEST STOP JUMPDEST CALLVALUE DUP1 ISZERO PUSH2 0x24E JUMPI PUSH1 0x0 DUP1 REVERT JUMPDEST POP PUSH2 0x269 PUSH1 0x4 DUP1 CALLDATASIZE SUB DUP2 ADD SWAP1 PUSH2 0x264 SWAP2 SWAP1 PUSH2 0xBC1 JUMP JUMPDEST PUSH2 0x562 JUMP JUMPDEST PUSH1 0x40 MLOAD PUSH2 0x276 SWAP2 SWAP1 PUSH2 0xCCA JUMP JUMPDEST PUSH1 0x40 MLOAD DUP1 SWAP2 SUB SWAP1 RETURN JUMPDEST CALLVALUE DUP1 ISZERO PUSH2 0x28B JUMPI PUSH1 0x0 DUP1 REVERT JUMPDEST POP PUSH2 0x294 PUSH2 0x595 JUMP JUMPDEST PUSH1 0x40 MLOAD PUSH2 0x2A1 SWAP2 SWAP1 PUSH2 0xCCA JUMP JUMPDEST PUSH1 0x40 MLOAD DUP1 SWAP2 SUB SWAP1 RETURN JUMPDEST CALLVALUE DUP1 ISZERO PUSH2 0x2B6 JUMPI PUSH1 0x0 DUP1 REVERT JUMPDEST POP PUSH2 0x2D1 PUSH1 0x4 DUP1 CALLDATASIZE SUB DUP2 ADD SWAP1 PUSH2 0x2CC SWAP2 SWAP1 PUSH2 0xBC1 JUMP JUMPDEST PUSH2 0x5BE JUMP JUMPDEST STOP JUMPDEST CALLVALUE DUP1 ISZERO PUSH2 0x2DF JUMPI PUSH1 0x0 DUP1 REVERT JUMPDEST POP PUSH2 0x2FA PUSH1 0x4 DUP1 CALLDATASIZE SUB DUP2 ADD SWAP1 PUSH2 0x2F5 SWAP2 SWAP1 PUSH2 0xAC8 JUMP JUMPDEST PUSH2 0x6D7 JUMP JUMPDEST STOP JUMPDEST CALLVALUE DUP1 ISZERO PUSH2 0x308 JUMPI PUSH1 0x0 DUP1 REVERT JUMPDEST POP PUSH2 0x323 PUSH1 0x4 DUP1 CALLDATASIZE SUB DUP2 ADD SWAP1 PUSH2 0x31E SWAP2 SWAP1 PUSH2 0xBC1 JUMP JUMPDEST PUSH2 0x75B JUMP JUMPDEST PUSH1 0x40 MLOAD PUSH2 0x330 SWAP2 SWAP1 PUSH2 0xDD7 JUMP JUMPDEST PUSH1 0x40 MLOAD DUP1 SWAP2 SUB SWAP1 RETURN JUMPDEST CALLVALUE DUP1 ISZERO PUSH2 0x345 JUMPI PUSH1 0x0 DUP1 REVERT JUMPDEST POP PUSH2 0x360 PUSH1 0x4 DUP1 CALLDATASIZE SUB DUP2 ADD SWAP1 PUSH2 0x35B SWAP2 SWAP1 PUSH2 0xAC8 JUMP JUMPDEST PUSH2 0x773 JUMP JUMPDEST STOP JUMPDEST PUSH1 0x0 DUP2 PUSH1 0x0 ADD SLOAD SWAP1 POP SWAP2 SWAP1 POP JUMP JUMPDEST PUSH1 0x0 PUSH4 0x150B7A02 PUSH1 0xE0 SHL SWAP1 POP SWAP5 SWAP4 POP POP POP POP JUMP JUMPDEST PUSH1 0x2 PUSH1 0x1 SLOAD EQ ISZERO PUSH2 0x3CA JUMPI PUSH1 0x40 MLOAD PUSH32 0x8C379A000000000000000000000000000000000000000000000000000000000 DUP2 MSTORE PUSH1 0x4 ADD PUSH2 0x3C1 SWAP1 PUSH2 0xDB7 JUMP JUMPDEST PUSH1 0x40 MLOAD DUP1 SWAP2 SUB SWAP1 REVERT JUMPDEST PUSH1 0x2 PUSH1 0x1 DUP2 SWAP1 SSTORE POP CALLER PUSH20 0xFFFFFFFFFFFFFFFFFFFFFFFFFFFFFFFFFFFFFFFF AND PUSH1 0x4 PUSH1 0x0 DUP4 DUP2 MSTORE PUSH1 0x20 ADD SWAP1 DUP2 MSTORE PUSH1 0x20 ADD PUSH1 0x0 KECCAK256 PUSH1 0x0 SWAP1 SLOAD SWAP1 PUSH2 0x100 EXP SWAP1 DIV PUSH20 0xFFFFFFFFFFFFFFFFFFFFFFFFFFFFFFFFFFFFFFFF AND PUSH20 0xFFFFFFFFFFFFFFFFFFFFFFFFFFFFFFFFFFFFFFFF AND EQ PUSH2 0x473 JUMPI PUSH1 0x40 MLOAD PUSH32 0x8C379A000000000000000000000000000000000000000000000000000000000 DUP2 MSTORE PUSH1 0x4 ADD PUSH2 0x46A SWAP1 PUSH2 0xD97 JUMP JUMPDEST PUSH1 0x40 MLOAD DUP1 SWAP2 SUB SWAP1 REVERT JUMPDEST PUSH1 0x4 PUSH1 0x0 DUP3 DUP2 MSTORE PUSH1 0x20 ADD SWAP1 DUP2 MSTORE PUSH1 0x20 ADD PUSH1 0x0 KECCAK256 PUSH1 0x0 PUSH2 0x100 EXP DUP2 SLOAD SWAP1 PUSH20 0xFFFFFFFFFFFFFFFFFFFFFFFFFFFFFFFFFFFFFFFF MUL NOT AND SWAP1 SSTORE PUSH2 0x4B3 PUSH1 0x3 PUSH2 0x7BF JUMP JUMPDEST PUSH1 0x2 PUSH1 0x0 SWAP1 SLOAD SWAP1 PUSH2 0x100 EXP SWAP1 DIV PUSH20 0xFFFFFFFFFFFFFFFFFFFFFFFFFFFFFFFFFFFFFFFF AND PUSH20 0xFFFFFFFFFFFFFFFFFFFFFFFFFFFFFFFFFFFFFFFF AND PUSH4 0x42842E0E ADDRESS CALLER DUP5 PUSH1 0x40 MLOAD DUP5 PUSH4 0xFFFFFFFF AND PUSH1 0xE0 SHL DUP2 MSTORE PUSH1 0x4 ADD PUSH2 0x512 SWAP4 SWAP3 SWAP2 SWAP1 PUSH2 0xCE5 JUMP JUMPDEST PUSH1 0x0 PUSH1 0x40 MLOAD DUP1 DUP4 SUB DUP2 PUSH1 0x0 DUP8 DUP1 EXTCODESIZE ISZERO DUP1 ISZERO PUSH2 0x52C JUMPI PUSH1 0x0 DUP1 REVERT JUMPDEST POP GAS CALL ISZERO DUP1 ISZERO PUSH2 0x540 JUMPI RETURNDATASIZE PUSH1 0x0 DUP1 RETURNDATACOPY RETURNDATASIZE PUSH1 0x0 REVERT JUMPDEST POP POP POP POP PUSH1 0x1 DUP1 DUP2 SWAP1 SSTORE POP POP JUMP JUMPDEST PUSH2 0x556 PUSH2 0x81B JUMP JUMPDEST PUSH2 0x560 PUSH1 0x0 PUSH2 0x899 JUMP JUMPDEST JUMP JUMPDEST PUSH1 0x4 PUSH1 0x20 MSTORE DUP1 PUSH1 0x0 MSTORE PUSH1 0x40 PUSH1 0x0 KECCAK256 PUSH1 0x0 SWAP2 POP SLOAD SWAP1 PUSH2 0x100 EXP SWAP1 DIV PUSH20 0xFFFFFFFFFFFFFFFFFFFFFFFFFFFFFFFFFFFFFFFF AND DUP2 JUMP JUMPDEST PUSH1 0x0 DUP1 PUSH1 0x0 SWAP1 SLOAD SWAP1 PUSH2 0x100 EXP SWAP1 DIV PUSH20 0xFFFFFFFFFFFFFFFFFFFFFFFFFFFFFFFFFFFFFFFF AND SWAP1 POP SWAP1 JUMP JUMPDEST PUSH1 0x2 PUSH1 0x0 SWAP1 SLOAD SWAP1 PUSH2 0x100 EXP SWAP1 DIV PUSH20 0xFFFFFFFFFFFFFFFFFFFFFFFFFFFFFFFFFFFFFFFF AND PUSH20 0xFFFFFFFFFFFFFFFFFFFFFFFFFFFFFFFFFFFFFFFF AND PUSH4 0x42842E0E CALLER ADDRESS DUP5 PUSH1 0x40 MLOAD DUP5 PUSH4 0xFFFFFFFF AND PUSH1 0xE0 SHL DUP2 MSTORE PUSH1 0x4 ADD PUSH2 0x61D SWAP4 SWAP3 SWAP2 SWAP1 PUSH2 0xCE5 JUMP JUMPDEST PUSH1 0x0 PUSH1 0x40 MLOAD DUP1 DUP4 SUB DUP2 PUSH1 0x0 DUP8 DUP1 EXTCODESIZE ISZERO DUP1 ISZERO PUSH2 0x637 JUMPI PUSH1 0x0 DUP1 REVERT JUMPDEST POP GAS CALL ISZERO DUP1 ISZERO PUSH2 0x64B JUMPI RETURNDATASIZE PUSH1 0x0 DUP1 RETURNDATACOPY RETURNDATASIZE PUSH1 0x0 REVERT JUMPDEST POP POP POP POP CALLER PUSH1 0x4 PUSH1 0x0 DUP4 DUP2 MSTORE PUSH1 0x20 ADD SWAP1 DUP2 MSTORE PUSH1 0x20 ADD PUSH1 0x0 KECCAK256 PUSH1 0x0 PUSH2 0x100 EXP DUP2 SLOAD DUP2 PUSH20 0xFFFFFFFFFFFFFFFFFFFFFFFFFFFFFFFFFFFFFFFF MUL NOT AND SWAP1 DUP4 PUSH20 0xFFFFFFFFFFFFFFFFFFFFFFFFFFFFFFFFFFFFFFFF AND MUL OR SWAP1 SSTORE POP PUSH1 0x6 DUP2 SWAP1 DUP1 PUSH1 0x1 DUP2 SLOAD ADD DUP1 DUP3 SSTORE DUP1 SWAP2 POP POP PUSH1 0x1 SWAP1 SUB SWAP1 PUSH1 0x0 MSTORE PUSH1 0x20 PUSH1 0x0 KECCAK256 ADD PUSH1 0x0 SWAP1 SWAP2 SWAP1 SWAP2 SWAP1 SWAP2 POP SSTORE PUSH2 0x6D4 PUSH1 0x3 PUSH2 0x95D JUMP JUMPDEST POP JUMP JUMPDEST PUSH2 0x6DF PUSH2 0x81B JUMP JUMPDEST PUSH1 0x0 PUSH20 0xFFFFFFFFFFFFFFFFFFFFFFFFFFFFFFFFFFFFFFFF AND DUP2 PUSH20 0xFFFFFFFFFFFFFFFFFFFFFFFFFFFFFFFFFFFFFFFF AND EQ ISZERO PUSH2 0x74F JUMPI PUSH1 0x40 MLOAD PUSH32 0x8C379A000000000000000000000000000000000000000000000000000000000 DUP2 MSTORE PUSH1 0x4 ADD PUSH2 0x746 SWAP1 PUSH2 0xD57 JUMP JUMPDEST PUSH1 0x40 MLOAD DUP1 SWAP2 SUB SWAP1 REVERT JUMPDEST PUSH2 0x758 DUP2 PUSH2 0x899 JUMP JUMPDEST POP JUMP JUMPDEST PUSH1 0x5 PUSH1 0x20 MSTORE DUP1 PUSH1 0x0 MSTORE PUSH1 0x40 PUSH1 0x0 KECCAK256 PUSH1 0x0 SWAP2 POP SWAP1 POP SLOAD DUP2 JUMP JUMPDEST PUSH2 0x77B PUSH2 0x81B JUMP JUMPDEST DUP1 PUSH1 0x2 PUSH1 0x0 PUSH2 0x100 EXP DUP2 SLOAD DUP2 PUSH20 0xFFFFFFFFFFFFFFFFFFFFFFFFFFFFFFFFFFFFFFFF MUL NOT AND SWAP1 DUP4 PUSH20 0xFFFFFFFFFFFFFFFFFFFFFFFFFFFFFFFFFFFFFFFF AND MUL OR SWAP1 SSTORE POP POP JUMP JUMPDEST PUSH1 0x0 DUP2 PUSH1 0x0 ADD SLOAD SWAP1 POP PUSH1 0x0 DUP2 GT PUSH2 0x80B JUMPI PUSH1 0x40 MLOAD PUSH32 0x8C379A000000000000000000000000000000000000000000000000000000000 DUP2 MSTORE PUSH1 0x4 ADD PUSH2 0x802 SWAP1 PUSH2 0xD37 JUMP JUMPDEST PUSH1 0x40 MLOAD DUP1 SWAP2 SUB SWAP1 REVERT JUMPDEST PUSH1 0x1 DUP2 SUB DUP3 PUSH1 0x0 ADD DUP2 SWAP1 SSTORE POP POP POP JUMP JUMPDEST PUSH2 0x823 PUSH2 0x973 JUMP JUMPDEST PUSH20 0xFFFFFFFFFFFFFFFFFFFFFFFFFFFFFFFFFFFFFFFF AND PUSH2 0x841 PUSH2 0x595 JUMP JUMPDEST PUSH20 0xFFFFFFFFFFFFFFFFFFFFFFFFFFFFFFFFFFFFFFFF AND EQ PUSH2 0x897 JUMPI PUSH1 0x40 MLOAD PUSH32 0x8C379A000000000000000000000000000000000000000000000000000000000 DUP2 MSTORE PUSH1 0x4 ADD PUSH2 0x88E SWAP1 PUSH2 0xD77 JUMP JUMPDEST PUSH1 0x40 MLOAD DUP1 SWAP2 SUB SWAP1 REVERT JUMPDEST JUMP JUMPDEST PUSH1 0x0 DUP1 PUSH1 0x0 SWAP1 SLOAD SWAP1 PUSH2 0x100 EXP SWAP1 DIV PUSH20 0xFFFFFFFFFFFFFFFFFFFFFFFFFFFFFFFFFFFFFFFF AND SWAP1 POP DUP2 PUSH1 0x0 DUP1 PUSH2 0x100 EXP DUP2 SLOAD DUP2 PUSH20 0xFFFFFFFFFFFFFFFFFFFFFFFFFFFFFFFFFFFFFFFF MUL NOT AND SWAP1 DUP4 PUSH20 0xFFFFFFFFFFFFFFFFFFFFFFFFFFFFFFFFFFFFFFFF AND MUL OR SWAP1 SSTORE POP DUP2 PUSH20 0xFFFFFFFFFFFFFFFFFFFFFFFFFFFFFFFFFFFFFFFF AND DUP2 PUSH20 0xFFFFFFFFFFFFFFFFFFFFFFFFFFFFFFFFFFFFFFFF AND PUSH32 0x8BE0079C531659141344CD1FD0A4F28419497F9722A3DAAFE3B4186F6B6457E0 PUSH1 0x40 MLOAD PUSH1 0x40 MLOAD DUP1 SWAP2 SUB SWAP1 LOG3 POP POP JUMP JUMPDEST PUSH1 0x1 DUP2 PUSH1 0x0 ADD PUSH1 0x0 DUP3 DUP3 SLOAD ADD SWAP3 POP POP DUP2 SWAP1 SSTORE POP POP JUMP JUMPDEST PUSH1 0x0 CALLER SWAP1 POP SWAP1 JUMP JUMPDEST PUSH1 0x0 PUSH2 0x98E PUSH2 0x989 DUP5 PUSH2 0xE17 JUMP JUMPDEST PUSH2 0xDF2 JUMP JUMPDEST SWAP1 POP DUP1 DUP4 DUP3 MSTORE PUSH1 0x20 DUP3 ADD SWAP1 POP DUP3 DUP6 PUSH1 0x20 DUP7 MUL DUP3 ADD GT ISZERO PUSH2 0x9B1 JUMPI PUSH2 0x9B0 PUSH2 0x1075 JUMP JUMPDEST JUMPDEST PUSH1 0x0 JUMPDEST DUP6 DUP2 LT ISZERO PUSH2 0x9E1 JUMPI DUP2 PUSH2 0x9C7 DUP9 DUP3 PUSH2 0xAB3 JUMP JUMPDEST DUP5 MSTORE PUSH1 0x20 DUP5 ADD SWAP4 POP PUSH1 0x20 DUP4 ADD SWAP3 POP POP PUSH1 0x1 DUP2 ADD SWAP1 POP PUSH2 0x9B4 JUMP JUMPDEST POP POP POP SWAP4 SWAP3 POP POP POP JUMP JUMPDEST PUSH1 0x0 PUSH2 0x9FE PUSH2 0x9F9 DUP5 PUSH2 0xE43 JUMP JUMPDEST PUSH2 0xDF2 JUMP JUMPDEST SWAP1 POP DUP3 DUP2 MSTORE PUSH1 0x20 DUP2 ADD DUP5 DUP5 DUP5 ADD GT ISZERO PUSH2 0xA1A JUMPI PUSH2 0xA19 PUSH2 0x107A JUMP JUMPDEST JUMPDEST PUSH2 0xA25 DUP5 DUP3 DUP6 PUSH2 0xF74 JUMP JUMPDEST POP SWAP4 SWAP3 POP POP POP JUMP JUMPDEST PUSH1 0x0 DUP2 CALLDATALOAD SWAP1 POP PUSH2 0xA3C DUP2 PUSH2 0x118D JUMP JUMPDEST SWAP3 SWAP2 POP POP JUMP JUMPDEST PUSH1 0x0 DUP3 PUSH1 0x1F DUP4 ADD SLT PUSH2 0xA57 JUMPI PUSH2 0xA56 PUSH2 0x1070 JUMP JUMPDEST JUMPDEST DUP2 MLOAD PUSH2 0xA67 DUP5 DUP3 PUSH1 0x20 DUP7 ADD PUSH2 0x97B JUMP JUMPDEST SWAP2 POP POP SWAP3 SWAP2 POP POP JUMP JUMPDEST PUSH1 0x0 DUP3 PUSH1 0x1F DUP4 ADD SLT PUSH2 0xA85 JUMPI PUSH2 0xA84 PUSH2 0x1070 JUMP JUMPDEST JUMPDEST DUP2 CALLDATALOAD PUSH2 0xA95 DUP5 DUP3 PUSH1 0x20 DUP7 ADD PUSH2 0x9EB JUMP JUMPDEST SWAP2 POP POP SWAP3 SWAP2 POP POP JUMP JUMPDEST PUSH1 0x0 DUP2 CALLDATALOAD SWAP1 POP PUSH2 0xAAD DUP2 PUSH2 0x11A4 JUMP JUMPDEST SWAP3 SWAP2 POP POP JUMP JUMPDEST PUSH1 0x0 DUP2 MLOAD SWAP1 POP PUSH2 0xAC2 DUP2 PUSH2 0x11A4 JUMP JUMPDEST SWAP3 SWAP2 POP POP JUMP JUMPDEST PUSH1 0x0 PUSH1 0x20 DUP3 DUP5 SUB SLT ISZERO PUSH2 0xADE JUMPI PUSH2 0xADD PUSH2 0x1084 JUMP JUMPDEST JUMPDEST PUSH1 0x0 PUSH2 0xAEC DUP5 DUP3 DUP6 ADD PUSH2 0xA2D JUMP JUMPDEST SWAP2 POP POP SWAP3 SWAP2 POP POP JUMP JUMPDEST PUSH1 0x0 DUP1 PUSH1 0x0 DUP1 PUSH1 0x80 DUP6 DUP8 SUB SLT ISZERO PUSH2 0xB0F JUMPI PUSH2 0xB0E PUSH2 0x1084 JUMP JUMPDEST JUMPDEST PUSH1 0x0 PUSH2 0xB1D DUP8 DUP3 DUP9 ADD PUSH2 0xA2D JUMP JUMPDEST SWAP5 POP POP PUSH1 0x20 PUSH2 0xB2E DUP8 DUP3 DUP9 ADD PUSH2 0xA2D JUMP JUMPDEST SWAP4 POP POP PUSH1 0x40 PUSH2 0xB3F DUP8 DUP3 DUP9 ADD PUSH2 0xA9E JUMP JUMPDEST SWAP3 POP POP PUSH1 0x60 DUP6 ADD CALLDATALOAD PUSH8 0xFFFFFFFFFFFFFFFF DUP2 GT ISZERO PUSH2 0xB60 JUMPI PUSH2 0xB5F PUSH2 0x107F JUMP JUMPDEST JUMPDEST PUSH2 0xB6C DUP8 DUP3 DUP9 ADD PUSH2 0xA70 JUMP JUMPDEST SWAP2 POP POP SWAP3 SWAP6 SWAP2 SWAP5 POP SWAP3 POP JUMP JUMPDEST PUSH1 0x0 PUSH1 0x20 DUP3 DUP5 SUB SLT ISZERO PUSH2 0xB8E JUMPI PUSH2 0xB8D PUSH2 0x1084 JUMP JUMPDEST JUMPDEST PUSH1 0x0 DUP3 ADD MLOAD PUSH8 0xFFFFFFFFFFFFFFFF DUP2 GT ISZERO PUSH2 0xBAC JUMPI PUSH2 0xBAB PUSH2 0x107F JUMP JUMPDEST JUMPDEST PUSH2 0xBB8 DUP5 DUP3 DUP6 ADD PUSH2 0xA42 JUMP JUMPDEST SWAP2 POP POP SWAP3 SWAP2 POP POP JUMP JUMPDEST PUSH1 0x0 PUSH1 0x20 DUP3 DUP5 SUB SLT ISZERO PUSH2 0xBD7 JUMPI PUSH2 0xBD6 PUSH2 0x1084 JUMP JUMPDEST JUMPDEST PUSH1 0x0 PUSH2 0xBE5 DUP5 DUP3 DUP6 ADD PUSH2 0xA9E JUMP JUMPDEST SWAP2 POP POP SWAP3 SWAP2 POP POP JUMP JUMPDEST PUSH2 0xBF7 DUP2 PUSH2 0xF0C JUMP JUMPDEST DUP3 MSTORE POP POP JUMP JUMPDEST PUSH2 0xC06 DUP2 PUSH2 0xF1E JUMP JUMPDEST DUP3 MSTORE POP POP JUMP JUMPDEST PUSH1 0x0 PUSH2 0xC19 PUSH1 0x1B DUP4 PUSH2 0xE74 JUMP JUMPDEST SWAP2 POP PUSH2 0xC24 DUP3 PUSH2 0x109A JUMP JUMPDEST PUSH1 0x20 DUP3 ADD SWAP1 POP SWAP2 SWAP1 POP JUMP JUMPDEST PUSH1 0x0 PUSH2 0xC3C PUSH1 0x26 DUP4 PUSH2 0xE74 JUMP JUMPDEST SWAP2 POP PUSH2 0xC47 DUP3 PUSH2 0x10C3 JUMP JUMPDEST PUSH1 0x40 DUP3 ADD SWAP1 POP SWAP2 SWAP1 POP JUMP JUMPDEST PUSH1 0x0 PUSH2 0xC5F PUSH1 0x20 DUP4 PUSH2 0xE74 JUMP JUMPDEST SWAP2 POP PUSH2 0xC6A DUP3 PUSH2 0x1112 JUMP JUMPDEST PUSH1 0x20 DUP3 ADD SWAP1 POP SWAP2 SWAP1 POP JUMP JUMPDEST PUSH1 0x0 PUSH2 0xC82 PUSH1 0x16 DUP4 PUSH2 0xE74 JUMP JUMPDEST SWAP2 POP PUSH2 0xC8D DUP3 PUSH2 0x113B JUMP JUMPDEST PUSH1 0x20 DUP3 ADD SWAP1 POP SWAP2 SWAP1 POP JUMP JUMPDEST PUSH1 0x0 PUSH2 0xCA5 PUSH1 0x1F DUP4 PUSH2 0xE74 JUMP JUMPDEST SWAP2 POP PUSH2 0xCB0 DUP3 PUSH2 0x1164 JUMP JUMPDEST PUSH1 0x20 DUP3 ADD SWAP1 POP SWAP2 SWAP1 POP JUMP JUMPDEST PUSH2 0xCC4 DUP2 PUSH2 0xF6A JUMP JUMPDEST DUP3 MSTORE POP POP JUMP JUMPDEST PUSH1 0x0 PUSH1 0x20 DUP3 ADD SWAP1 POP PUSH2 0xCDF PUSH1 0x0 DUP4 ADD DUP5 PUSH2 0xBEE JUMP JUMPDEST SWAP3 SWAP2 POP POP JUMP JUMPDEST PUSH1 0x0 PUSH1 0x60 DUP3 ADD SWAP1 POP PUSH2 0xCFA PUSH1 0x0 DUP4 ADD DUP7 PUSH2 0xBEE JUMP JUMPDEST PUSH2 0xD07 PUSH1 0x20 DUP4 ADD DUP6 PUSH2 0xBEE JUMP JUMPDEST PUSH2 0xD14 PUSH1 0x40 DUP4 ADD DUP5 PUSH2 0xCBB JUMP JUMPDEST SWAP5 SWAP4 POP POP POP POP JUMP JUMPDEST PUSH1 0x0 PUSH1 0x20 DUP3 ADD SWAP1 POP PUSH2 0xD31 PUSH1 0x0 DUP4 ADD DUP5 PUSH2 0xBFD JUMP JUMPDEST SWAP3 SWAP2 POP POP JUMP JUMPDEST PUSH1 0x0 PUSH1 0x20 DUP3 ADD SWAP1 POP DUP2 DUP2 SUB PUSH1 0x0 DUP4 ADD MSTORE PUSH2 0xD50 DUP2 PUSH2 0xC0C JUMP JUMPDEST SWAP1 POP SWAP2 SWAP1 POP JUMP JUMPDEST PUSH1 0x0 PUSH1 0x20 DUP3 ADD SWAP1 POP DUP2 DUP2 SUB PUSH1 0x0 DUP4 ADD MSTORE PUSH2 0xD70 DUP2 PUSH2 0xC2F JUMP JUMPDEST SWAP1 POP SWAP2 SWAP1 POP JUMP JUMPDEST PUSH1 0x0 PUSH1 0x20 DUP3 ADD SWAP1 POP DUP2 DUP2 SUB PUSH1 0x0 DUP4 ADD MSTORE PUSH2 0xD90 DUP2 PUSH2 0xC52 JUMP JUMPDEST SWAP1 POP SWAP2 SWAP1 POP JUMP JUMPDEST PUSH1 0x0 PUSH1 0x20 DUP3 ADD SWAP1 POP DUP2 DUP2 SUB PUSH1 0x0 DUP4 ADD MSTORE PUSH2 0xDB0 DUP2 PUSH2 0xC75 JUMP JUMPDEST SWAP1 POP SWAP2 SWAP1 POP JUMP JUMPDEST PUSH1 0x0 PUSH1 0x20 DUP3 ADD SWAP1 POP DUP2 DUP2 SUB PUSH1 0x0 DUP4 ADD MSTORE PUSH2 0xDD0 DUP2 PUSH2 0xC98 JUMP JUMPDEST SWAP1 POP SWAP2 SWAP1 POP JUMP JUMPDEST PUSH1 0x0 PUSH1 0x20 DUP3 ADD SWAP1 POP PUSH2 0xDEC PUSH1 0x0 DUP4 ADD DUP5 PUSH2 0xCBB JUMP JUMPDEST SWAP3 SWAP2 POP POP JUMP JUMPDEST PUSH1 0x0 PUSH2 0xDFC PUSH2 0xE0D JUMP JUMPDEST SWAP1 POP PUSH2 0xE08 DUP3 DUP3 PUSH2 0xF83 JUMP JUMPDEST SWAP2 SWAP1 POP JUMP JUMPDEST PUSH1 0x0 PUSH1 0x40 MLOAD SWAP1 POP SWAP1 JUMP JUMPDEST PUSH1 0x0 PUSH8 0xFFFFFFFFFFFFFFFF DUP3 GT ISZERO PUSH2 0xE32 JUMPI PUSH2 0xE31 PUSH2 0x1041 JUMP JUMPDEST JUMPDEST PUSH1 0x20 DUP3 MUL SWAP1 POP PUSH1 0x20 DUP2 ADD SWAP1 POP SWAP2 SWAP1 POP JUMP JUMPDEST PUSH1 0x0 PUSH8 0xFFFFFFFFFFFFFFFF DUP3 GT ISZERO PUSH2 0xE5E JUMPI PUSH2 0xE5D PUSH2 0x1041 JUMP JUMPDEST JUMPDEST PUSH2 0xE67 DUP3 PUSH2 0x1089 JUMP JUMPDEST SWAP1 POP PUSH1 0x20 DUP2 ADD SWAP1 POP SWAP2 SWAP1 POP JUMP JUMPDEST PUSH1 0x0 DUP3 DUP3 MSTORE PUSH1 0x20 DUP3 ADD SWAP1 POP SWAP3 SWAP2 POP POP JUMP JUMPDEST PUSH1 0x0 PUSH2 0xE90 DUP3 PUSH2 0xF6A JUMP JUMPDEST SWAP2 POP PUSH2 0xE9B DUP4 PUSH2 0xF6A JUMP JUMPDEST SWAP3 POP DUP3 PUSH32 0xFFFFFFFFFFFFFFFFFFFFFFFFFFFFFFFFFFFFFFFFFFFFFFFFFFFFFFFFFFFFFFFF SUB DUP3 GT ISZERO PUSH2 0xED0 JUMPI PUSH2 0xECF PUSH2 0xFB4 JUMP JUMPDEST JUMPDEST DUP3 DUP3 ADD SWAP1 POP SWAP3 SWAP2 POP POP JUMP JUMPDEST PUSH1 0x0 PUSH2 0xEE6 DUP3 PUSH2 0xF6A JUMP JUMPDEST SWAP2 POP PUSH2 0xEF1 DUP4 PUSH2 0xF6A JUMP JUMPDEST SWAP3 POP DUP3 PUSH2 0xF01 JUMPI PUSH2 0xF00 PUSH2 0xFE3 JUMP JUMPDEST JUMPDEST DUP3 DUP3 DIV SWAP1 POP SWAP3 SWAP2 POP POP JUMP JUMPDEST PUSH1 0x0 PUSH2 0xF17 DUP3 PUSH2 0xF4A JUMP JUMPDEST SWAP1 POP SWAP2 SWAP1 POP JUMP JUMPDEST PUSH1 0x0 PUSH32 0xFFFFFFFF00000000000000000000000000000000000000000000000000000000 DUP3 AND SWAP1 POP SWAP2 SWAP1 POP JUMP JUMPDEST PUSH1 0x0 PUSH20 0xFFFFFFFFFFFFFFFFFFFFFFFFFFFFFFFFFFFFFFFF DUP3 AND SWAP1 POP SWAP2 SWAP1 POP JUMP JUMPDEST PUSH1 0x0 DUP2 SWAP1 POP SWAP2 SWAP1 POP JUMP JUMPDEST DUP3 DUP2 DUP4 CALLDATACOPY PUSH1 0x0 DUP4 DUP4 ADD MSTORE POP POP POP JUMP JUMPDEST PUSH2 0xF8C DUP3 PUSH2 0x1089 JUMP JUMPDEST DUP2 ADD DUP2 DUP2 LT PUSH8 0xFFFFFFFFFFFFFFFF DUP3 GT OR ISZERO PUSH2 0xFAB JUMPI PUSH2 0xFAA PUSH2 0x1041 JUMP JUMPDEST JUMPDEST DUP1 PUSH1 0x40 MSTORE POP POP POP JUMP JUMPDEST PUSH32 0x4E487B7100000000000000000000000000000000000000000000000000000000 PUSH1 0x0 MSTORE PUSH1 0x11 PUSH1 0x4 MSTORE PUSH1 0x24 PUSH1 0x0 REVERT JUMPDEST PUSH32 0x4E487B7100000000000000000000000000000000000000000000000000000000 PUSH1 0x0 MSTORE PUSH1 0x12 PUSH1 0x4 MSTORE PUSH1 0x24 PUSH1 0x0 REVERT JUMPDEST PUSH32 0x4E487B7100000000000000000000000000000000000000000000000000000000 PUSH1 0x0 MSTORE PUSH1 0x32 PUSH1 0x4 MSTORE PUSH1 0x24 PUSH1 0x0 REVERT JUMPDEST PUSH32 0x4E487B7100000000000000000000000000000000000000000000000000000000 PUSH1 0x0 MSTORE PUSH1 0x41 PUSH1 0x4 MSTORE PUSH1 0x24 PUSH1 0x0 REVERT JUMPDEST PUSH1 0x0 DUP1 REVERT JUMPDEST PUSH1 0x0 DUP1 REVERT JUMPDEST PUSH1 0x0 DUP1 REVERT JUMPDEST PUSH1 0x0 DUP1 REVERT JUMPDEST PUSH1 0x0 DUP1 REVERT JUMPDEST PUSH1 0x0 PUSH1 0x1F NOT PUSH1 0x1F DUP4 ADD AND SWAP1 POP SWAP2 SWAP1 POP JUMP JUMPDEST PUSH32 0x436F756E7465723A2064656372656D656E74206F766572666C6F770000000000 PUSH1 0x0 DUP3 ADD MSTORE POP JUMP JUMPDEST PUSH32 0x4F776E61626C653A206E6577206F776E657220697320746865207A65726F2061 PUSH1 0x0 DUP3 ADD MSTORE PUSH32 0x6464726573730000000000000000000000000000000000000000000000000000 PUSH1 0x20 DUP3 ADD MSTORE POP JUMP JUMPDEST PUSH32 0x4F776E61626C653A2063616C6C6572206973206E6F7420746865206F776E6572 PUSH1 0x0 DUP3 ADD MSTORE POP JUMP JUMPDEST PUSH32 0x596F7520617265206E6F7420746865206F776E65722E00000000000000000000 PUSH1 0x0 DUP3 ADD MSTORE POP JUMP JUMPDEST PUSH32 0x5265656E7472616E637947756172643A207265656E7472616E742063616C6C00 PUSH1 0x0 DUP3 ADD MSTORE POP JUMP JUMPDEST PUSH2 0x1196 DUP2 PUSH2 0xF0C JUMP JUMPDEST DUP2 EQ PUSH2 0x11A1 JUMPI PUSH1 0x0 DUP1 REVERT JUMPDEST POP JUMP JUMPDEST PUSH2 0x11AD DUP2 PUSH2 0xF6A JUMP JUMPDEST DUP2 EQ PUSH2 0x11B8 JUMPI PUSH1 0x0 DUP1 REVERT JUMPDEST POP JUMP INVALID LOG2 PUSH5 0x6970667358 0x22 SLT KECCAK256 CALLDATALOAD DUP13 0x1E BYTE 0xD9 0xBF STATICCALL PUSH13 0xA993009EBA38C17419C73A3934 0xE9 CALL CALLER 0xD0 0xC7 JUMPI 0xCB DUP7 0x4D KECCAK256 0x2E PUSH5 0x736F6C6343 STOP ADDMOD SMOD STOP CALLER "
				},
				"gasEstimates": {
					"creation": {
						"codeDepositCost": "918600",
						"executionCost": "infinite",
						"totalCost": "infinite"
					},
					"external": {
						"onERC721Received(address,address,uint256,bytes)": "infinite",
						"owner()": "2522",
						"renounceOwnership()": "30443",
						"rewards(uint256)": "infinite",
						"setNftContact(address)": "27074",
						"stake(uint256)": "infinite",
						"tokenOwnedBy(uint256)": "2906",
						"transferOwnership(address)": "30791",
						"unstake(uint256)": "infinite"
					}
				},
				"methodIdentifiers": {
					"onERC721Received(address,address,uint256,bytes)": "150b7a02",
					"owner()": "8da5cb5b",
					"renounceOwnership()": "715018a6",
					"rewards(uint256)": "f301af42",
					"setNftContact(address)": "fd71c650",
					"stake(uint256)": "a694fc3a",
					"tokenOwnedBy(uint256)": "8488cc41",
					"transferOwnership(address)": "f2fde38b",
					"unstake(uint256)": "2e17de78"
				}
			},
			"storageLayout": {
				"storage": [
					{
						"astId": 7,
						"contract": "contracts/NFTStaking.sol:SacredTemple",
						"label": "_owner",
						"offset": 0,
						"slot": "0",
						"type": "t_address"
					},
					{
						"astId": 123,
						"contract": "contracts/NFTStaking.sol:SacredTemple",
						"label": "_status",
						"offset": 0,
						"slot": "1",
						"type": "t_uint256"
					},
					{
						"astId": 445,
						"contract": "contracts/NFTStaking.sol:SacredTemple",
						"label": "_nftContract",
						"offset": 0,
						"slot": "2",
						"type": "t_address"
					},
					{
						"astId": 452,
						"contract": "contracts/NFTStaking.sol:SacredTemple",
						"label": "_stakedNFTCounter",
						"offset": 0,
						"slot": "3",
						"type": "t_struct(Counter)341_storage"
					},
					{
						"astId": 478,
						"contract": "contracts/NFTStaking.sol:SacredTemple",
						"label": "tokenOwnedBy",
						"offset": 0,
						"slot": "4",
						"type": "t_mapping(t_uint256,t_address)"
					},
					{
						"astId": 482,
						"contract": "contracts/NFTStaking.sol:SacredTemple",
						"label": "rewards",
						"offset": 0,
						"slot": "5",
						"type": "t_mapping(t_uint256,t_uint256)"
					},
					{
						"astId": 485,
						"contract": "contracts/NFTStaking.sol:SacredTemple",
						"label": "tokenStaked",
						"offset": 0,
						"slot": "6",
						"type": "t_array(t_uint256)dyn_storage"
					}
				],
				"types": {
					"t_address": {
						"encoding": "inplace",
						"label": "address",
						"numberOfBytes": "20"
					},
					"t_array(t_uint256)dyn_storage": {
						"base": "t_uint256",
						"encoding": "dynamic_array",
						"label": "uint256[]",
						"numberOfBytes": "32"
					},
					"t_mapping(t_uint256,t_address)": {
						"encoding": "mapping",
						"key": "t_uint256",
						"label": "mapping(uint256 => address)",
						"numberOfBytes": "32",
						"value": "t_address"
					},
					"t_mapping(t_uint256,t_uint256)": {
						"encoding": "mapping",
						"key": "t_uint256",
						"label": "mapping(uint256 => uint256)",
						"numberOfBytes": "32",
						"value": "t_uint256"
					},
					"t_struct(Counter)341_storage": {
						"encoding": "inplace",
						"label": "struct Counters.Counter",
						"members": [
							{
								"astId": 340,
								"contract": "contracts/NFTStaking.sol:SacredTemple",
								"label": "_value",
								"offset": 0,
								"slot": "0",
								"type": "t_uint256"
							}
						],
						"numberOfBytes": "32"
					},
					"t_uint256": {
						"encoding": "inplace",
						"label": "uint256",
						"numberOfBytes": "32"
					}
				}
			},
			"userdoc": {
				"kind": "user",
				"methods": {},
				"version": 1
			}
		}
	}
}