{
	"contracts/NFTStaking.sol": {
		"SacredTemple": {
			"abi": [
				{
					"inputs": [
						{
							"internalType": "address",
							"name": "nftContract_",
							"type": "address"
						}
					],
					"stateMutability": "nonpayable",
					"type": "constructor"
				},
				{
					"anonymous": false,
					"inputs": [
						{
							"indexed": false,
							"internalType": "address",
							"name": "owner",
							"type": "address"
						},
						{
							"indexed": false,
							"internalType": "uint256",
							"name": "amount",
							"type": "uint256"
						}
					],
					"name": "Claimed",
					"type": "event"
				},
				{
					"anonymous": false,
					"inputs": [
						{
							"indexed": false,
							"internalType": "address",
							"name": "owner",
							"type": "address"
						},
						{
							"indexed": false,
							"internalType": "uint256",
							"name": "tokenId",
							"type": "uint256"
						},
						{
							"indexed": false,
							"internalType": "uint256",
							"name": "value",
							"type": "uint256"
						}
					],
					"name": "NFTStaked",
					"type": "event"
				},
				{
					"anonymous": false,
					"inputs": [
						{
							"indexed": false,
							"internalType": "address",
							"name": "owner",
							"type": "address"
						},
						{
							"indexed": false,
							"internalType": "uint256",
							"name": "tokenId",
							"type": "uint256"
						},
						{
							"indexed": false,
							"internalType": "uint256",
							"name": "value",
							"type": "uint256"
						}
					],
					"name": "NFTUnstaked",
					"type": "event"
				},
				{
					"anonymous": false,
					"inputs": [
						{
							"indexed": true,
							"internalType": "address",
							"name": "previousOwner",
							"type": "address"
						},
						{
							"indexed": true,
							"internalType": "address",
							"name": "newOwner",
							"type": "address"
						}
					],
					"name": "OwnershipTransferred",
					"type": "event"
				},
				{
					"inputs": [
						{
							"internalType": "uint256",
							"name": "tokenId",
							"type": "uint256"
						}
					],
					"name": "calculateRewards",
					"outputs": [
						{
							"internalType": "uint256",
							"name": "",
							"type": "uint256"
						}
					],
					"stateMutability": "view",
					"type": "function"
				},
				{
					"inputs": [
						{
							"internalType": "uint256",
							"name": "tokenId",
							"type": "uint256"
						}
					],
					"name": "claim",
					"outputs": [],
					"stateMutability": "nonpayable",
					"type": "function"
				},
				{
					"inputs": [
						{
							"internalType": "address",
							"name": "",
							"type": "address"
						},
						{
							"internalType": "address",
							"name": "",
							"type": "address"
						},
						{
							"internalType": "uint256",
							"name": "",
							"type": "uint256"
						},
						{
							"internalType": "bytes",
							"name": "",
							"type": "bytes"
						}
					],
					"name": "onERC721Received",
					"outputs": [
						{
							"internalType": "bytes4",
							"name": "",
							"type": "bytes4"
						}
					],
					"stateMutability": "nonpayable",
					"type": "function"
				},
				{
					"inputs": [],
					"name": "owner",
					"outputs": [
						{
							"internalType": "address",
							"name": "",
							"type": "address"
						}
					],
					"stateMutability": "view",
					"type": "function"
				},
				{
					"inputs": [],
					"name": "renounceOwnership",
					"outputs": [],
					"stateMutability": "nonpayable",
					"type": "function"
				},
				{
					"inputs": [
						{
							"internalType": "uint256",
							"name": "",
							"type": "uint256"
						}
					],
					"name": "rewards",
					"outputs": [
						{
							"internalType": "uint256",
							"name": "",
							"type": "uint256"
						}
					],
					"stateMutability": "view",
					"type": "function"
				},
				{
					"inputs": [
						{
							"internalType": "address",
							"name": "nftContract_",
							"type": "address"
						}
					],
					"name": "setNftContact",
					"outputs": [],
					"stateMutability": "nonpayable",
					"type": "function"
				},
				{
					"inputs": [
						{
							"internalType": "uint256",
							"name": "tokenId",
							"type": "uint256"
						}
					],
					"name": "stake",
					"outputs": [],
					"stateMutability": "nonpayable",
					"type": "function"
				},
				{
					"inputs": [
						{
							"internalType": "uint256",
							"name": "",
							"type": "uint256"
						}
					],
					"name": "tokenOwnedBy",
					"outputs": [
						{
							"internalType": "address",
							"name": "",
							"type": "address"
						}
					],
					"stateMutability": "view",
					"type": "function"
				},
				{
					"inputs": [
						{
							"internalType": "address",
							"name": "newOwner",
							"type": "address"
						}
					],
					"name": "transferOwnership",
					"outputs": [],
					"stateMutability": "nonpayable",
					"type": "function"
				},
				{
					"inputs": [
						{
							"internalType": "uint256",
							"name": "tokenId",
							"type": "uint256"
						}
					],
					"name": "unstake",
					"outputs": [],
					"stateMutability": "nonpayable",
					"type": "function"
				},
				{
					"stateMutability": "payable",
					"type": "receive"
				}
			],
			"devdoc": {
				"kind": "dev",
				"methods": {
					"onERC721Received(address,address,uint256,bytes)": {
						"details": "See {IERC721Receiver-onERC721Received}. Always returns `IERC721Receiver.onERC721Received.selector`."
					},
					"owner()": {
						"details": "Returns the address of the current owner."
					},
					"renounceOwnership()": {
						"details": "Leaves the contract without owner. It will not be possible to call `onlyOwner` functions anymore. Can only be called by the current owner. NOTE: Renouncing ownership will leave the contract without an owner, thereby removing any functionality that is only available to the owner."
					},
					"transferOwnership(address)": {
						"details": "Transfers ownership of the contract to a new account (`newOwner`). Can only be called by the current owner."
					}
				},
				"version": 1
			},
			"evm": {
				"assembly": "    /* \"contracts/NFTStaking.sol\":492:2754  contract SacredTemple is Ownable, ERC721Holder, ReentrancyGuard {... */\n  mstore(0x40, 0x80)\n    /* \"contracts/NFTStaking.sol\":999:1078  constructor (address nftContract_) {... */\n  callvalue\n  dup1\n  iszero\n  tag_1\n  jumpi\n  0x00\n  dup1\n  revert\ntag_1:\n  pop\n  mload(0x40)\n  sub(codesize, bytecodeSize)\n  dup1\n  bytecodeSize\n  dup4\n  codecopy\n  dup2\n  dup2\n  add\n  0x40\n  mstore\n  dup2\n  add\n  swap1\n  tag_2\n  swap2\n  swap1\n  tag_3\n  jump\t// in\ntag_2:\n    /* \"@openzeppelin/contracts@4.7.3/access/Ownable.sol\":936:968  _transferOwnership(_msgSender()) */\n  tag_8\n    /* \"@openzeppelin/contracts@4.7.3/access/Ownable.sol\":955:967  _msgSender() */\n  tag_9\n    /* \"@openzeppelin/contracts@4.7.3/access/Ownable.sol\":955:965  _msgSender */\n  shl(0x20, tag_10)\n    /* \"@openzeppelin/contracts@4.7.3/access/Ownable.sol\":955:967  _msgSender() */\n  0x20\n  shr\n  jump\t// in\ntag_9:\n    /* \"@openzeppelin/contracts@4.7.3/access/Ownable.sol\":936:954  _transferOwnership */\n  shl(0x20, tag_11)\n    /* \"@openzeppelin/contracts@4.7.3/access/Ownable.sol\":936:968  _transferOwnership(_msgSender()) */\n  0x20\n  shr\n  jump\t// in\ntag_8:\n    /* \"@openzeppelin/contracts@4.7.3/security/ReentrancyGuard.sol\":1701:1702  1 */\n  0x01\n    /* \"@openzeppelin/contracts@4.7.3/security/ReentrancyGuard.sol\":1806:1813  _status */\n  dup1\n    /* \"@openzeppelin/contracts@4.7.3/security/ReentrancyGuard.sol\":1806:1828  _status = _NOT_ENTERED */\n  dup2\n  swap1\n  sstore\n  pop\n    /* \"contracts/NFTStaking.sol\":1059:1071  nftContract_ */\n  dup1\n    /* \"contracts/NFTStaking.sol\":1044:1056  _nftContract */\n  0x02\n  0x00\n    /* \"contracts/NFTStaking.sol\":1044:1071  _nftContract = nftContract_ */\n  0x0100\n  exp\n  dup2\n  sload\n  dup2\n  0xffffffffffffffffffffffffffffffffffffffff\n  mul\n  not\n  and\n  swap1\n  dup4\n  0xffffffffffffffffffffffffffffffffffffffff\n  and\n  mul\n  or\n  swap1\n  sstore\n  pop\n    /* \"contracts/NFTStaking.sol\":999:1078  constructor (address nftContract_) {... */\n  pop\n    /* \"contracts/NFTStaking.sol\":492:2754  contract SacredTemple is Ownable, ERC721Holder, ReentrancyGuard {... */\n  jump(tag_14)\n    /* \"@openzeppelin/contracts@4.7.3/utils/Context.sol\":640:736  function _msgSender() internal view virtual returns (address) {... */\ntag_10:\n    /* \"@openzeppelin/contracts@4.7.3/utils/Context.sol\":693:700  address */\n  0x00\n    /* \"@openzeppelin/contracts@4.7.3/utils/Context.sol\":719:729  msg.sender */\n  caller\n    /* \"@openzeppelin/contracts@4.7.3/utils/Context.sol\":712:729  return msg.sender */\n  swap1\n  pop\n    /* \"@openzeppelin/contracts@4.7.3/utils/Context.sol\":640:736  function _msgSender() internal view virtual returns (address) {... */\n  swap1\n  jump\t// out\n    /* \"@openzeppelin/contracts@4.7.3/access/Ownable.sol\":2433:2620  function _transferOwnership(address newOwner) internal virtual {... */\ntag_11:\n    /* \"@openzeppelin/contracts@4.7.3/access/Ownable.sol\":2506:2522  address oldOwner */\n  0x00\n    /* \"@openzeppelin/contracts@4.7.3/access/Ownable.sol\":2525:2531  _owner */\n  dup1\n  0x00\n  swap1\n  sload\n  swap1\n  0x0100\n  exp\n  swap1\n  div\n  0xffffffffffffffffffffffffffffffffffffffff\n  and\n    /* \"@openzeppelin/contracts@4.7.3/access/Ownable.sol\":2506:2531  address oldOwner = _owner */\n  swap1\n  pop\n    /* \"@openzeppelin/contracts@4.7.3/access/Ownable.sol\":2550:2558  newOwner */\n  dup2\n    /* \"@openzeppelin/contracts@4.7.3/access/Ownable.sol\":2541:2547  _owner */\n  0x00\n  dup1\n    /* \"@openzeppelin/contracts@4.7.3/access/Ownable.sol\":2541:2558  _owner = newOwner */\n  0x0100\n  exp\n  dup2\n  sload\n  dup2\n  0xffffffffffffffffffffffffffffffffffffffff\n  mul\n  not\n  and\n  swap1\n  dup4\n  0xffffffffffffffffffffffffffffffffffffffff\n  and\n  mul\n  or\n  swap1\n  sstore\n  pop\n    /* \"@openzeppelin/contracts@4.7.3/access/Ownable.sol\":2604:2612  newOwner */\n  dup2\n    /* \"@openzeppelin/contracts@4.7.3/access/Ownable.sol\":2573:2613  OwnershipTransferred(oldOwner, newOwner) */\n  0xffffffffffffffffffffffffffffffffffffffff\n  and\n    /* \"@openzeppelin/contracts@4.7.3/access/Ownable.sol\":2594:2602  oldOwner */\n  dup2\n    /* \"@openzeppelin/contracts@4.7.3/access/Ownable.sol\":2573:2613  OwnershipTransferred(oldOwner, newOwner) */\n  0xffffffffffffffffffffffffffffffffffffffff\n  and\n  0x8be0079c531659141344cd1fd0a4f28419497f9722a3daafe3b4186f6b6457e0\n  mload(0x40)\n  mload(0x40)\n  dup1\n  swap2\n  sub\n  swap1\n  log3\n    /* \"@openzeppelin/contracts@4.7.3/access/Ownable.sol\":2496:2620  {... */\n  pop\n    /* \"@openzeppelin/contracts@4.7.3/access/Ownable.sol\":2433:2620  function _transferOwnership(address newOwner) internal virtual {... */\n  pop\n  jump\t// out\n    /* \"#utility.yul\":88:205   */\ntag_18:\n    /* \"#utility.yul\":197:198   */\n  0x00\n    /* \"#utility.yul\":194:195   */\n  dup1\n    /* \"#utility.yul\":187:199   */\n  revert\n    /* \"#utility.yul\":334:460   */\ntag_20:\n    /* \"#utility.yul\":371:378   */\n  0x00\n    /* \"#utility.yul\":411:453   */\n  0xffffffffffffffffffffffffffffffffffffffff\n    /* \"#utility.yul\":404:409   */\n  dup3\n    /* \"#utility.yul\":400:454   */\n  and\n    /* \"#utility.yul\":389:454   */\n  swap1\n  pop\n    /* \"#utility.yul\":334:460   */\n  swap2\n  swap1\n  pop\n  jump\t// out\n    /* \"#utility.yul\":466:562   */\ntag_21:\n    /* \"#utility.yul\":503:510   */\n  0x00\n    /* \"#utility.yul\":532:556   */\n  tag_30\n    /* \"#utility.yul\":550:555   */\n  dup3\n    /* \"#utility.yul\":532:556   */\n  tag_20\n  jump\t// in\ntag_30:\n    /* \"#utility.yul\":521:556   */\n  swap1\n  pop\n    /* \"#utility.yul\":466:562   */\n  swap2\n  swap1\n  pop\n  jump\t// out\n    /* \"#utility.yul\":568:690   */\ntag_22:\n    /* \"#utility.yul\":641:665   */\n  tag_32\n    /* \"#utility.yul\":659:664   */\n  dup2\n    /* \"#utility.yul\":641:665   */\n  tag_21\n  jump\t// in\ntag_32:\n    /* \"#utility.yul\":634:639   */\n  dup2\n    /* \"#utility.yul\":631:666   */\n  eq\n    /* \"#utility.yul\":621:684   */\n  tag_33\n  jumpi\n    /* \"#utility.yul\":680:681   */\n  0x00\n    /* \"#utility.yul\":677:678   */\n  dup1\n    /* \"#utility.yul\":670:682   */\n  revert\n    /* \"#utility.yul\":621:684   */\ntag_33:\n    /* \"#utility.yul\":568:690   */\n  pop\n  jump\t// out\n    /* \"#utility.yul\":696:839   */\ntag_23:\n    /* \"#utility.yul\":753:758   */\n  0x00\n    /* \"#utility.yul\":784:790   */\n  dup2\n    /* \"#utility.yul\":778:791   */\n  mload\n    /* \"#utility.yul\":769:791   */\n  swap1\n  pop\n    /* \"#utility.yul\":800:833   */\n  tag_35\n    /* \"#utility.yul\":827:832   */\n  dup2\n    /* \"#utility.yul\":800:833   */\n  tag_22\n  jump\t// in\ntag_35:\n    /* \"#utility.yul\":696:839   */\n  swap3\n  swap2\n  pop\n  pop\n  jump\t// out\n    /* \"#utility.yul\":845:1196   */\ntag_3:\n    /* \"#utility.yul\":915:921   */\n  0x00\n    /* \"#utility.yul\":964:966   */\n  0x20\n    /* \"#utility.yul\":952:961   */\n  dup3\n    /* \"#utility.yul\":943:950   */\n  dup5\n    /* \"#utility.yul\":939:962   */\n  sub\n    /* \"#utility.yul\":935:967   */\n  slt\n    /* \"#utility.yul\":932:1051   */\n  iszero\n  tag_37\n  jumpi\n    /* \"#utility.yul\":970:1049   */\n  tag_38\n  tag_18\n  jump\t// in\ntag_38:\n    /* \"#utility.yul\":932:1051   */\ntag_37:\n    /* \"#utility.yul\":1090:1091   */\n  0x00\n    /* \"#utility.yul\":1115:1179   */\n  tag_39\n    /* \"#utility.yul\":1171:1178   */\n  dup5\n    /* \"#utility.yul\":1162:1168   */\n  dup3\n    /* \"#utility.yul\":1151:1160   */\n  dup6\n    /* \"#utility.yul\":1147:1169   */\n  add\n    /* \"#utility.yul\":1115:1179   */\n  tag_23\n  jump\t// in\ntag_39:\n    /* \"#utility.yul\":1105:1179   */\n  swap2\n  pop\n    /* \"#utility.yul\":1061:1189   */\n  pop\n    /* \"#utility.yul\":845:1196   */\n  swap3\n  swap2\n  pop\n  pop\n  jump\t// out\n    /* \"contracts/NFTStaking.sol\":492:2754  contract SacredTemple is Ownable, ERC721Holder, ReentrancyGuard {... */\ntag_14:\n  dataSize(sub_0)\n  dup1\n  dataOffset(sub_0)\n  0x00\n  codecopy\n  0x00\n  return\nstop\n\nsub_0: assembly {\n        /* \"contracts/NFTStaking.sol\":492:2754  contract SacredTemple is Ownable, ERC721Holder, ReentrancyGuard {... */\n      mstore(0x40, 0x80)\n      jumpi(tag_1, lt(calldatasize, 0x04))\n      shr(0xe0, calldataload(0x00))\n      dup1\n      0x8da5cb5b\n      gt\n      tag_14\n      jumpi\n      dup1\n      0x8da5cb5b\n      eq\n      tag_8\n      jumpi\n      dup1\n      0xa694fc3a\n      eq\n      tag_9\n      jumpi\n      dup1\n      0xd3ea4350\n      eq\n      tag_10\n      jumpi\n      dup1\n      0xf2fde38b\n      eq\n      tag_11\n      jumpi\n      dup1\n      0xf301af42\n      eq\n      tag_12\n      jumpi\n      dup1\n      0xfd71c650\n      eq\n      tag_13\n      jumpi\n      jump(tag_2)\n    tag_14:\n      dup1\n      0x150b7a02\n      eq\n      tag_3\n      jumpi\n      dup1\n      0x2e17de78\n      eq\n      tag_4\n      jumpi\n      dup1\n      0x379607f5\n      eq\n      tag_5\n      jumpi\n      dup1\n      0x715018a6\n      eq\n      tag_6\n      jumpi\n      dup1\n      0x8488cc41\n      eq\n      tag_7\n      jumpi\n      jump(tag_2)\n    tag_1:\n      jumpi(tag_2, calldatasize)\n        /* \"contracts/NFTStaking.sol\":2405:2406  0 */\n      0x00\n        /* \"contracts/NFTStaking.sol\":2374:2401  _stakedNFTCounter.current() */\n      tag_17\n        /* \"contracts/NFTStaking.sol\":2374:2391  _stakedNFTCounter */\n      0x03\n        /* \"contracts/NFTStaking.sol\":2374:2399  _stakedNFTCounter.current */\n      tag_18\n        /* \"contracts/NFTStaking.sol\":2374:2401  _stakedNFTCounter.current() */\n      jump\t// in\n    tag_17:\n        /* \"contracts/NFTStaking.sol\":2374:2406  _stakedNFTCounter.current() != 0 */\n      sub\n        /* \"contracts/NFTStaking.sol\":2366:2429  require(_stakedNFTCounter.current() != 0, \"No NFTs are staked\") */\n      tag_19\n      jumpi\n      mload(0x40)\n      0x08c379a000000000000000000000000000000000000000000000000000000000\n      dup2\n      mstore\n      0x04\n      add\n      tag_20\n      swap1\n      tag_21\n      jump\t// in\n    tag_20:\n      mload(0x40)\n      dup1\n      swap2\n      sub\n      swap1\n      revert\n    tag_19:\n        /* \"contracts/NFTStaking.sol\":2439:2459  uint256 sharePerEach */\n      0x00\n        /* \"contracts/NFTStaking.sol\":2474:2501  _stakedNFTCounter.current() */\n      tag_22\n        /* \"contracts/NFTStaking.sol\":2474:2491  _stakedNFTCounter */\n      0x03\n        /* \"contracts/NFTStaking.sol\":2474:2499  _stakedNFTCounter.current */\n      tag_18\n        /* \"contracts/NFTStaking.sol\":2474:2501  _stakedNFTCounter.current() */\n      jump\t// in\n    tag_22:\n        /* \"contracts/NFTStaking.sol\":2462:2471  msg.value */\n      callvalue\n        /* \"contracts/NFTStaking.sol\":2462:2501  msg.value / _stakedNFTCounter.current() */\n      tag_23\n      swap2\n      swap1\n      tag_24\n      jump\t// in\n    tag_23:\n        /* \"contracts/NFTStaking.sol\":2439:2501  uint256 sharePerEach = msg.value / _stakedNFTCounter.current() */\n      swap1\n      pop\n        /* \"contracts/NFTStaking.sol\":2511:2540  uint256[] memory tokensStaked */\n      0x00\n        /* \"contracts/NFTStaking.sol\":2548:2560  _nftContract */\n      0x02\n      0x00\n      swap1\n      sload\n      swap1\n      0x0100\n      exp\n      swap1\n      div\n      0xffffffffffffffffffffffffffffffffffffffff\n      and\n        /* \"contracts/NFTStaking.sol\":2543:2575  INFT(_nftContract).walletOfOwner */\n      0xffffffffffffffffffffffffffffffffffffffff\n      and\n      0x438b6300\n        /* \"contracts/NFTStaking.sol\":2584:2588  this */\n      address\n        /* \"contracts/NFTStaking.sol\":2543:2590  INFT(_nftContract).walletOfOwner(address(this)) */\n      mload(0x40)\n      dup3\n      0xffffffff\n      and\n      0xe0\n      shl\n      dup2\n      mstore\n      0x04\n      add\n      tag_25\n      swap2\n      swap1\n      tag_26\n      jump\t// in\n    tag_25:\n      0x00\n      mload(0x40)\n      dup1\n      dup4\n      sub\n      dup2\n      dup7\n      gas\n      staticcall\n      iszero\n      dup1\n      iszero\n      tag_28\n      jumpi\n      returndatasize\n      0x00\n      dup1\n      returndatacopy\n      revert(0x00, returndatasize)\n    tag_28:\n      pop\n      pop\n      pop\n      pop\n      mload(0x40)\n      returndatasize\n      0x00\n      dup3\n      returndatacopy\n      returndatasize\n      not(0x1f)\n      0x1f\n      dup3\n      add\n      and\n      dup3\n      add\n      dup1\n      0x40\n      mstore\n      pop\n      dup2\n      add\n      swap1\n      tag_29\n      swap2\n      swap1\n      tag_30\n      jump\t// in\n    tag_29:\n        /* \"contracts/NFTStaking.sol\":2511:2590  uint256[] memory tokensStaked = INFT(_nftContract).walletOfOwner(address(this)) */\n      swap1\n      pop\n        /* \"contracts/NFTStaking.sol\":2613:2622  uint256 i */\n      0x00\n        /* \"contracts/NFTStaking.sol\":2609:2746  for(uint256 i = 0; i < tokensStaked.length;){... */\n    tag_31:\n        /* \"contracts/NFTStaking.sol\":2632:2644  tokensStaked */\n      dup2\n        /* \"contracts/NFTStaking.sol\":2632:2651  tokensStaked.length */\n      mload\n        /* \"contracts/NFTStaking.sol\":2628:2629  i */\n      dup2\n        /* \"contracts/NFTStaking.sol\":2628:2651  i < tokensStaked.length */\n      lt\n        /* \"contracts/NFTStaking.sol\":2609:2746  for(uint256 i = 0; i < tokensStaked.length;){... */\n      iszero\n      tag_32\n      jumpi\n        /* \"contracts/NFTStaking.sol\":2694:2706  sharePerEach */\n      dup3\n        /* \"contracts/NFTStaking.sol\":2667:2674  rewards */\n      0x05\n        /* \"contracts/NFTStaking.sol\":2667:2690  rewards[tokenStaked[i]] */\n      0x00\n        /* \"contracts/NFTStaking.sol\":2675:2686  tokenStaked */\n      0x06\n        /* \"contracts/NFTStaking.sol\":2687:2688  i */\n      dup5\n        /* \"contracts/NFTStaking.sol\":2675:2689  tokenStaked[i] */\n      dup2\n      sload\n      dup2\n      lt\n      tag_34\n      jumpi\n      tag_35\n      tag_36\n      jump\t// in\n    tag_35:\n    tag_34:\n      swap1\n      0x00\n      mstore\n      keccak256(0x00, 0x20)\n      add\n      sload\n        /* \"contracts/NFTStaking.sol\":2667:2690  rewards[tokenStaked[i]] */\n      dup2\n      mstore\n      0x20\n      add\n      swap1\n      dup2\n      mstore\n      0x20\n      add\n      0x00\n      keccak256\n      0x00\n        /* \"contracts/NFTStaking.sol\":2667:2706  rewards[tokenStaked[i]] += sharePerEach */\n      dup3\n      dup3\n      sload\n      tag_38\n      swap2\n      swap1\n      tag_39\n      jump\t// in\n    tag_38:\n      swap3\n      pop\n      pop\n      dup2\n      swap1\n      sstore\n      pop\n        /* \"contracts/NFTStaking.sol\":2731:2734  ++i */\n      dup1\n      0x01\n      add\n      swap1\n      pop\n        /* \"contracts/NFTStaking.sol\":2609:2746  for(uint256 i = 0; i < tokensStaked.length;){... */\n      jump(tag_31)\n    tag_32:\n      stop\n        /* \"contracts/NFTStaking.sol\":492:2754  contract SacredTemple is Ownable, ERC721Holder, ReentrancyGuard {... */\n    tag_2:\n      0x00\n      dup1\n      revert\n        /* \"@openzeppelin/contracts@4.7.3/token/ERC721/utils/ERC721Holder.sol\":588:788  function onERC721Received(... */\n    tag_3:\n      callvalue\n      dup1\n      iszero\n      tag_40\n      jumpi\n      0x00\n      dup1\n      revert\n    tag_40:\n      pop\n      tag_41\n      0x04\n      dup1\n      calldatasize\n      sub\n      dup2\n      add\n      swap1\n      tag_42\n      swap2\n      swap1\n      tag_43\n      jump\t// in\n    tag_42:\n      tag_44\n      jump\t// in\n    tag_41:\n      mload(0x40)\n      tag_45\n      swap2\n      swap1\n      tag_46\n      jump\t// in\n    tag_45:\n      mload(0x40)\n      dup1\n      swap2\n      sub\n      swap1\n      return\n        /* \"contracts/NFTStaking.sol\":1454:1910  function unstake(uint256 tokenId) nonReentrant external {... */\n    tag_4:\n      callvalue\n      dup1\n      iszero\n      tag_47\n      jumpi\n      0x00\n      dup1\n      revert\n    tag_47:\n      pop\n      tag_48\n      0x04\n      dup1\n      calldatasize\n      sub\n      dup2\n      add\n      swap1\n      tag_49\n      swap2\n      swap1\n      tag_50\n      jump\t// in\n    tag_49:\n      tag_51\n      jump\t// in\n    tag_48:\n      stop\n        /* \"contracts/NFTStaking.sol\":1916:2206  function claim(uint256 tokenId) nonReentrant external {... */\n    tag_5:\n      callvalue\n      dup1\n      iszero\n      tag_52\n      jumpi\n      0x00\n      dup1\n      revert\n    tag_52:\n      pop\n      tag_53\n      0x04\n      dup1\n      calldatasize\n      sub\n      dup2\n      add\n      swap1\n      tag_54\n      swap2\n      swap1\n      tag_50\n      jump\t// in\n    tag_54:\n      tag_55\n      jump\t// in\n    tag_53:\n      stop\n        /* \"@openzeppelin/contracts@4.7.3/access/Ownable.sol\":1831:1932  function renounceOwnership() public virtual onlyOwner {... */\n    tag_6:\n      callvalue\n      dup1\n      iszero\n      tag_56\n      jumpi\n      0x00\n      dup1\n      revert\n    tag_56:\n      pop\n      tag_57\n      tag_58\n      jump\t// in\n    tag_57:\n      stop\n        /* \"contracts/NFTStaking.sol\":868:916  mapping (uint256 => address) public tokenOwnedBy */\n    tag_7:\n      callvalue\n      dup1\n      iszero\n      tag_59\n      jumpi\n      0x00\n      dup1\n      revert\n    tag_59:\n      pop\n      tag_60\n      0x04\n      dup1\n      calldatasize\n      sub\n      dup2\n      add\n      swap1\n      tag_61\n      swap2\n      swap1\n      tag_50\n      jump\t// in\n    tag_61:\n      tag_62\n      jump\t// in\n    tag_60:\n      mload(0x40)\n      tag_63\n      swap2\n      swap1\n      tag_26\n      jump\t// in\n    tag_63:\n      mload(0x40)\n      dup1\n      swap2\n      sub\n      swap1\n      return\n        /* \"@openzeppelin/contracts@4.7.3/access/Ownable.sol\":1201:1286  function owner() public view virtual returns (address) {... */\n    tag_8:\n      callvalue\n      dup1\n      iszero\n      tag_64\n      jumpi\n      0x00\n      dup1\n      revert\n    tag_64:\n      pop\n      tag_65\n      tag_66\n      jump\t// in\n    tag_65:\n      mload(0x40)\n      tag_67\n      swap2\n      swap1\n      tag_26\n      jump\t// in\n    tag_67:\n      mload(0x40)\n      dup1\n      swap2\n      sub\n      swap1\n      return\n        /* \"contracts/NFTStaking.sol\":1198:1448  function stake(uint256 tokenId) external {... */\n    tag_9:\n      callvalue\n      dup1\n      iszero\n      tag_68\n      jumpi\n      0x00\n      dup1\n      revert\n    tag_68:\n      pop\n      tag_69\n      0x04\n      dup1\n      calldatasize\n      sub\n      dup2\n      add\n      swap1\n      tag_70\n      swap2\n      swap1\n      tag_50\n      jump\t// in\n    tag_70:\n      tag_71\n      jump\t// in\n    tag_69:\n      stop\n        /* \"contracts/NFTStaking.sol\":2212:2323  function calculateRewards(uint256 tokenId) public view returns(uint256){... */\n    tag_10:\n      callvalue\n      dup1\n      iszero\n      tag_72\n      jumpi\n      0x00\n      dup1\n      revert\n    tag_72:\n      pop\n      tag_73\n      0x04\n      dup1\n      calldatasize\n      sub\n      dup2\n      add\n      swap1\n      tag_74\n      swap2\n      swap1\n      tag_50\n      jump\t// in\n    tag_74:\n      tag_75\n      jump\t// in\n    tag_73:\n      mload(0x40)\n      tag_76\n      swap2\n      swap1\n      tag_77\n      jump\t// in\n    tag_76:\n      mload(0x40)\n      dup1\n      swap2\n      sub\n      swap1\n      return\n        /* \"@openzeppelin/contracts@4.7.3/access/Ownable.sol\":2081:2279  function transferOwnership(address newOwner) public virtual onlyOwner {... */\n    tag_11:\n      callvalue\n      dup1\n      iszero\n      tag_78\n      jumpi\n      0x00\n      dup1\n      revert\n    tag_78:\n      pop\n      tag_79\n      0x04\n      dup1\n      calldatasize\n      sub\n      dup2\n      add\n      swap1\n      tag_80\n      swap2\n      swap1\n      tag_81\n      jump\t// in\n    tag_80:\n      tag_82\n      jump\t// in\n    tag_79:\n      stop\n        /* \"contracts/NFTStaking.sol\":922:965  mapping (uint256 => uint256) public rewards */\n    tag_12:\n      callvalue\n      dup1\n      iszero\n      tag_83\n      jumpi\n      0x00\n      dup1\n      revert\n    tag_83:\n      pop\n      tag_84\n      0x04\n      dup1\n      calldatasize\n      sub\n      dup2\n      add\n      swap1\n      tag_85\n      swap2\n      swap1\n      tag_50\n      jump\t// in\n    tag_85:\n      tag_86\n      jump\t// in\n    tag_84:\n      mload(0x40)\n      tag_87\n      swap2\n      swap1\n      tag_77\n      jump\t// in\n    tag_87:\n      mload(0x40)\n      dup1\n      swap2\n      sub\n      swap1\n      return\n        /* \"contracts/NFTStaking.sol\":1084:1192  function setNftContact(address nftContract_) external onlyOwner {... */\n    tag_13:\n      callvalue\n      dup1\n      iszero\n      tag_88\n      jumpi\n      0x00\n      dup1\n      revert\n    tag_88:\n      pop\n      tag_89\n      0x04\n      dup1\n      calldatasize\n      sub\n      dup2\n      add\n      swap1\n      tag_90\n      swap2\n      swap1\n      tag_81\n      jump\t// in\n    tag_90:\n      tag_91\n      jump\t// in\n    tag_89:\n      stop\n        /* \"@openzeppelin/contracts@4.7.3/utils/Counters.sol\":827:939  function current(Counter storage counter) internal view returns (uint256) {... */\n    tag_18:\n        /* \"@openzeppelin/contracts@4.7.3/utils/Counters.sol\":892:899  uint256 */\n      0x00\n        /* \"@openzeppelin/contracts@4.7.3/utils/Counters.sol\":918:925  counter */\n      dup2\n        /* \"@openzeppelin/contracts@4.7.3/utils/Counters.sol\":918:932  counter._value */\n      0x00\n      add\n      sload\n        /* \"@openzeppelin/contracts@4.7.3/utils/Counters.sol\":911:932  return counter._value */\n      swap1\n      pop\n        /* \"@openzeppelin/contracts@4.7.3/utils/Counters.sol\":827:939  function current(Counter storage counter) internal view returns (uint256) {... */\n      swap2\n      swap1\n      pop\n      jump\t// out\n        /* \"@openzeppelin/contracts@4.7.3/token/ERC721/utils/ERC721Holder.sol\":588:788  function onERC721Received(... */\n    tag_44:\n        /* \"@openzeppelin/contracts@4.7.3/token/ERC721/utils/ERC721Holder.sol\":726:732  bytes4 */\n      0x00\n        /* \"@openzeppelin/contracts@4.7.3/token/ERC721/utils/ERC721Holder.sol\":751:781  this.onERC721Received.selector */\n      shl(0xe0, 0x150b7a02)\n        /* \"@openzeppelin/contracts@4.7.3/token/ERC721/utils/ERC721Holder.sol\":744:781  return this.onERC721Received.selector */\n      swap1\n      pop\n        /* \"@openzeppelin/contracts@4.7.3/token/ERC721/utils/ERC721Holder.sol\":588:788  function onERC721Received(... */\n      swap5\n      swap4\n      pop\n      pop\n      pop\n      pop\n      jump\t// out\n        /* \"contracts/NFTStaking.sol\":1454:1910  function unstake(uint256 tokenId) nonReentrant external {... */\n    tag_51:\n        /* \"@openzeppelin/contracts@4.7.3/security/ReentrancyGuard.sol\":1744:1745  2 */\n      0x02\n        /* \"@openzeppelin/contracts@4.7.3/security/ReentrancyGuard.sol\":2325:2332  _status */\n      sload(0x01)\n        /* \"@openzeppelin/contracts@4.7.3/security/ReentrancyGuard.sol\":2325:2344  _status != _ENTERED */\n      sub\n        /* \"@openzeppelin/contracts@4.7.3/security/ReentrancyGuard.sol\":2317:2380  require(_status != _ENTERED, \"ReentrancyGuard: reentrant call\") */\n      tag_95\n      jumpi\n      mload(0x40)\n      0x08c379a000000000000000000000000000000000000000000000000000000000\n      dup2\n      mstore\n      0x04\n      add\n      tag_96\n      swap1\n      tag_97\n      jump\t// in\n    tag_96:\n      mload(0x40)\n      dup1\n      swap2\n      sub\n      swap1\n      revert\n    tag_95:\n        /* \"@openzeppelin/contracts@4.7.3/security/ReentrancyGuard.sol\":1744:1745  2 */\n      0x02\n        /* \"@openzeppelin/contracts@4.7.3/security/ReentrancyGuard.sol\":2455:2462  _status */\n      0x01\n        /* \"@openzeppelin/contracts@4.7.3/security/ReentrancyGuard.sol\":2455:2473  _status = _ENTERED */\n      dup2\n      swap1\n      sstore\n      pop\n        /* \"contracts/NFTStaking.sol\":1553:1563  msg.sender */\n      caller\n        /* \"contracts/NFTStaking.sol\":1528:1563  tokenOwnedBy[tokenId] == msg.sender */\n      0xffffffffffffffffffffffffffffffffffffffff\n      and\n        /* \"contracts/NFTStaking.sol\":1528:1540  tokenOwnedBy */\n      0x04\n        /* \"contracts/NFTStaking.sol\":1528:1549  tokenOwnedBy[tokenId] */\n      0x00\n        /* \"contracts/NFTStaking.sol\":1541:1548  tokenId */\n      dup4\n        /* \"contracts/NFTStaking.sol\":1528:1549  tokenOwnedBy[tokenId] */\n      dup2\n      mstore\n      0x20\n      add\n      swap1\n      dup2\n      mstore\n      0x20\n      add\n      0x00\n      keccak256\n      0x00\n      swap1\n      sload\n      swap1\n      0x0100\n      exp\n      swap1\n      div\n      0xffffffffffffffffffffffffffffffffffffffff\n      and\n        /* \"contracts/NFTStaking.sol\":1528:1563  tokenOwnedBy[tokenId] == msg.sender */\n      0xffffffffffffffffffffffffffffffffffffffff\n      and\n      eq\n        /* \"contracts/NFTStaking.sol\":1520:1590  require(tokenOwnedBy[tokenId] == msg.sender, \"You are not the owner.\") */\n      tag_99\n      jumpi\n      mload(0x40)\n      0x08c379a000000000000000000000000000000000000000000000000000000000\n      dup2\n      mstore\n      0x04\n      add\n      tag_100\n      swap1\n      tag_101\n      jump\t// in\n    tag_100:\n      mload(0x40)\n      dup1\n      swap2\n      sub\n      swap1\n      revert\n    tag_99:\n        /* \"contracts/NFTStaking.sol\":1607:1619  tokenOwnedBy */\n      0x04\n        /* \"contracts/NFTStaking.sol\":1607:1628  tokenOwnedBy[tokenId] */\n      0x00\n        /* \"contracts/NFTStaking.sol\":1620:1627  tokenId */\n      dup3\n        /* \"contracts/NFTStaking.sol\":1607:1628  tokenOwnedBy[tokenId] */\n      dup2\n      mstore\n      0x20\n      add\n      swap1\n      dup2\n      mstore\n      0x20\n      add\n      0x00\n      keccak256\n      0x00\n        /* \"contracts/NFTStaking.sol\":1600:1628  delete tokenOwnedBy[tokenId] */\n      0x0100\n      exp\n      dup2\n      sload\n      swap1\n      0xffffffffffffffffffffffffffffffffffffffff\n      mul\n      not\n      and\n      swap1\n      sstore\n        /* \"contracts/NFTStaking.sol\":1638:1667  _stakedNFTCounter.decrement() */\n      tag_102\n        /* \"contracts/NFTStaking.sol\":1638:1655  _stakedNFTCounter */\n      0x03\n        /* \"contracts/NFTStaking.sol\":1638:1665  _stakedNFTCounter.decrement */\n      tag_103\n        /* \"contracts/NFTStaking.sol\":1638:1667  _stakedNFTCounter.decrement() */\n      jump\t// in\n    tag_102:\n        /* \"contracts/NFTStaking.sol\":1678:1690  bool success */\n      0x00\n        /* \"contracts/NFTStaking.sol\":1704:1716  tokenOwnedBy */\n      0x04\n        /* \"contracts/NFTStaking.sol\":1704:1725  tokenOwnedBy[tokenId] */\n      0x00\n        /* \"contracts/NFTStaking.sol\":1717:1724  tokenId */\n      dup4\n        /* \"contracts/NFTStaking.sol\":1704:1725  tokenOwnedBy[tokenId] */\n      dup2\n      mstore\n      0x20\n      add\n      swap1\n      dup2\n      mstore\n      0x20\n      add\n      0x00\n      keccak256\n      0x00\n      swap1\n      sload\n      swap1\n      0x0100\n      exp\n      swap1\n      div\n      0xffffffffffffffffffffffffffffffffffffffff\n      and\n        /* \"contracts/NFTStaking.sol\":1696:1731  payable(tokenOwnedBy[tokenId]).call */\n      0xffffffffffffffffffffffffffffffffffffffff\n      and\n        /* \"contracts/NFTStaking.sol\":1739:1746  rewards */\n      0x05\n        /* \"contracts/NFTStaking.sol\":1739:1755  rewards[tokenId] */\n      0x00\n        /* \"contracts/NFTStaking.sol\":1747:1754  tokenId */\n      dup5\n        /* \"contracts/NFTStaking.sol\":1739:1755  rewards[tokenId] */\n      dup2\n      mstore\n      0x20\n      add\n      swap1\n      dup2\n      mstore\n      0x20\n      add\n      0x00\n      keccak256\n      sload\n        /* \"contracts/NFTStaking.sol\":1696:1760  payable(tokenOwnedBy[tokenId]).call{value: rewards[tokenId]}(\"\") */\n      mload(0x40)\n      tag_104\n      swap1\n      tag_105\n      jump\t// in\n    tag_104:\n      0x00\n      mload(0x40)\n      dup1\n      dup4\n      sub\n      dup2\n      dup6\n      dup8\n      gas\n      call\n      swap3\n      pop\n      pop\n      pop\n      returndatasize\n      dup1\n      0x00\n      dup2\n      eq\n      tag_108\n      jumpi\n      mload(0x40)\n      swap2\n      pop\n      and(add(returndatasize, 0x3f), not(0x1f))\n      dup3\n      add\n      0x40\n      mstore\n      returndatasize\n      dup3\n      mstore\n      returndatasize\n      0x00\n      0x20\n      dup5\n      add\n      returndatacopy\n      jump(tag_107)\n    tag_108:\n      0x60\n      swap2\n      pop\n    tag_107:\n      pop\n        /* \"contracts/NFTStaking.sol\":1677:1760  (bool success, ) = payable(tokenOwnedBy[tokenId]).call{value: rewards[tokenId]}(\"\") */\n      pop\n      swap1\n      pop\n        /* \"contracts/NFTStaking.sol\":1778:1785  success */\n      dup1\n        /* \"contracts/NFTStaking.sol\":1770:1786  require(success) */\n      tag_109\n      jumpi\n      0x00\n      dup1\n      revert\n    tag_109:\n        /* \"contracts/NFTStaking.sol\":1803:1810  rewards */\n      0x05\n        /* \"contracts/NFTStaking.sol\":1803:1819  rewards[tokenId] */\n      0x00\n        /* \"contracts/NFTStaking.sol\":1811:1818  tokenId */\n      dup4\n        /* \"contracts/NFTStaking.sol\":1803:1819  rewards[tokenId] */\n      dup2\n      mstore\n      0x20\n      add\n      swap1\n      dup2\n      mstore\n      0x20\n      add\n      0x00\n      keccak256\n        /* \"contracts/NFTStaking.sol\":1796:1819  delete rewards[tokenId] */\n      0x00\n      swap1\n      sstore\n        /* \"contracts/NFTStaking.sol\":1837:1849  _nftContract */\n      0x02\n      0x00\n      swap1\n      sload\n      swap1\n      0x0100\n      exp\n      swap1\n      div\n      0xffffffffffffffffffffffffffffffffffffffff\n      and\n        /* \"contracts/NFTStaking.sol\":1829:1867  IERC721(_nftContract).safeTransferFrom */\n      0xffffffffffffffffffffffffffffffffffffffff\n      and\n      0x42842e0e\n        /* \"contracts/NFTStaking.sol\":1876:1880  this */\n      address\n        /* \"contracts/NFTStaking.sol\":1883:1893  msg.sender */\n      caller\n        /* \"contracts/NFTStaking.sol\":1895:1902  tokenId */\n      dup6\n        /* \"contracts/NFTStaking.sol\":1829:1903  IERC721(_nftContract).safeTransferFrom(address(this), msg.sender, tokenId) */\n      mload(0x40)\n      dup5\n      0xffffffff\n      and\n      0xe0\n      shl\n      dup2\n      mstore\n      0x04\n      add\n      tag_110\n      swap4\n      swap3\n      swap2\n      swap1\n      tag_111\n      jump\t// in\n    tag_110:\n      0x00\n      mload(0x40)\n      dup1\n      dup4\n      sub\n      dup2\n      0x00\n      dup8\n      dup1\n      extcodesize\n      iszero\n      dup1\n      iszero\n      tag_112\n      jumpi\n      0x00\n      dup1\n      revert\n    tag_112:\n      pop\n      gas\n      call\n      iszero\n      dup1\n      iszero\n      tag_114\n      jumpi\n      returndatasize\n      0x00\n      dup1\n      returndatacopy\n      revert(0x00, returndatasize)\n    tag_114:\n      pop\n      pop\n      pop\n      pop\n        /* \"contracts/NFTStaking.sol\":1510:1910  {... */\n      pop\n        /* \"@openzeppelin/contracts@4.7.3/security/ReentrancyGuard.sol\":1701:1702  1 */\n      0x01\n        /* \"@openzeppelin/contracts@4.7.3/security/ReentrancyGuard.sol\":2628:2635  _status */\n      dup1\n        /* \"@openzeppelin/contracts@4.7.3/security/ReentrancyGuard.sol\":2628:2650  _status = _NOT_ENTERED */\n      dup2\n      swap1\n      sstore\n      pop\n        /* \"contracts/NFTStaking.sol\":1454:1910  function unstake(uint256 tokenId) nonReentrant external {... */\n      pop\n      jump\t// out\n        /* \"contracts/NFTStaking.sol\":1916:2206  function claim(uint256 tokenId) nonReentrant external {... */\n    tag_55:\n        /* \"@openzeppelin/contracts@4.7.3/security/ReentrancyGuard.sol\":1744:1745  2 */\n      0x02\n        /* \"@openzeppelin/contracts@4.7.3/security/ReentrancyGuard.sol\":2325:2332  _status */\n      sload(0x01)\n        /* \"@openzeppelin/contracts@4.7.3/security/ReentrancyGuard.sol\":2325:2344  _status != _ENTERED */\n      sub\n        /* \"@openzeppelin/contracts@4.7.3/security/ReentrancyGuard.sol\":2317:2380  require(_status != _ENTERED, \"ReentrancyGuard: reentrant call\") */\n      tag_116\n      jumpi\n      mload(0x40)\n      0x08c379a000000000000000000000000000000000000000000000000000000000\n      dup2\n      mstore\n      0x04\n      add\n      tag_117\n      swap1\n      tag_97\n      jump\t// in\n    tag_117:\n      mload(0x40)\n      dup1\n      swap2\n      sub\n      swap1\n      revert\n    tag_116:\n        /* \"@openzeppelin/contracts@4.7.3/security/ReentrancyGuard.sol\":1744:1745  2 */\n      0x02\n        /* \"@openzeppelin/contracts@4.7.3/security/ReentrancyGuard.sol\":2455:2462  _status */\n      0x01\n        /* \"@openzeppelin/contracts@4.7.3/security/ReentrancyGuard.sol\":2455:2473  _status = _ENTERED */\n      dup2\n      swap1\n      sstore\n      pop\n        /* \"contracts/NFTStaking.sol\":2013:2023  msg.sender */\n      caller\n        /* \"contracts/NFTStaking.sol\":1988:2023  tokenOwnedBy[tokenId] == msg.sender */\n      0xffffffffffffffffffffffffffffffffffffffff\n      and\n        /* \"contracts/NFTStaking.sol\":1988:2000  tokenOwnedBy */\n      0x04\n        /* \"contracts/NFTStaking.sol\":1988:2009  tokenOwnedBy[tokenId] */\n      0x00\n        /* \"contracts/NFTStaking.sol\":2001:2008  tokenId */\n      dup4\n        /* \"contracts/NFTStaking.sol\":1988:2009  tokenOwnedBy[tokenId] */\n      dup2\n      mstore\n      0x20\n      add\n      swap1\n      dup2\n      mstore\n      0x20\n      add\n      0x00\n      keccak256\n      0x00\n      swap1\n      sload\n      swap1\n      0x0100\n      exp\n      swap1\n      div\n      0xffffffffffffffffffffffffffffffffffffffff\n      and\n        /* \"contracts/NFTStaking.sol\":1988:2023  tokenOwnedBy[tokenId] == msg.sender */\n      0xffffffffffffffffffffffffffffffffffffffff\n      and\n      eq\n        /* \"contracts/NFTStaking.sol\":1980:2050  require(tokenOwnedBy[tokenId] == msg.sender, \"You are not the owner.\") */\n      tag_119\n      jumpi\n      mload(0x40)\n      0x08c379a000000000000000000000000000000000000000000000000000000000\n      dup2\n      mstore\n      0x04\n      add\n      tag_120\n      swap1\n      tag_101\n      jump\t// in\n    tag_120:\n      mload(0x40)\n      dup1\n      swap2\n      sub\n      swap1\n      revert\n    tag_119:\n        /* \"contracts/NFTStaking.sol\":2061:2073  bool success */\n      0x00\n        /* \"contracts/NFTStaking.sol\":2087:2099  tokenOwnedBy */\n      0x04\n        /* \"contracts/NFTStaking.sol\":2087:2108  tokenOwnedBy[tokenId] */\n      0x00\n        /* \"contracts/NFTStaking.sol\":2100:2107  tokenId */\n      dup4\n        /* \"contracts/NFTStaking.sol\":2087:2108  tokenOwnedBy[tokenId] */\n      dup2\n      mstore\n      0x20\n      add\n      swap1\n      dup2\n      mstore\n      0x20\n      add\n      0x00\n      keccak256\n      0x00\n      swap1\n      sload\n      swap1\n      0x0100\n      exp\n      swap1\n      div\n      0xffffffffffffffffffffffffffffffffffffffff\n      and\n        /* \"contracts/NFTStaking.sol\":2079:2114  payable(tokenOwnedBy[tokenId]).call */\n      0xffffffffffffffffffffffffffffffffffffffff\n      and\n        /* \"contracts/NFTStaking.sol\":2122:2129  rewards */\n      0x05\n        /* \"contracts/NFTStaking.sol\":2122:2138  rewards[tokenId] */\n      0x00\n        /* \"contracts/NFTStaking.sol\":2130:2137  tokenId */\n      dup5\n        /* \"contracts/NFTStaking.sol\":2122:2138  rewards[tokenId] */\n      dup2\n      mstore\n      0x20\n      add\n      swap1\n      dup2\n      mstore\n      0x20\n      add\n      0x00\n      keccak256\n      sload\n        /* \"contracts/NFTStaking.sol\":2079:2143  payable(tokenOwnedBy[tokenId]).call{value: rewards[tokenId]}(\"\") */\n      mload(0x40)\n      tag_121\n      swap1\n      tag_105\n      jump\t// in\n    tag_121:\n      0x00\n      mload(0x40)\n      dup1\n      dup4\n      sub\n      dup2\n      dup6\n      dup8\n      gas\n      call\n      swap3\n      pop\n      pop\n      pop\n      returndatasize\n      dup1\n      0x00\n      dup2\n      eq\n      tag_124\n      jumpi\n      mload(0x40)\n      swap2\n      pop\n      and(add(returndatasize, 0x3f), not(0x1f))\n      dup3\n      add\n      0x40\n      mstore\n      returndatasize\n      dup3\n      mstore\n      returndatasize\n      0x00\n      0x20\n      dup5\n      add\n      returndatacopy\n      jump(tag_123)\n    tag_124:\n      0x60\n      swap2\n      pop\n    tag_123:\n      pop\n        /* \"contracts/NFTStaking.sol\":2060:2143  (bool success, ) = payable(tokenOwnedBy[tokenId]).call{value: rewards[tokenId]}(\"\") */\n      pop\n      swap1\n      pop\n        /* \"contracts/NFTStaking.sol\":2161:2168  success */\n      dup1\n        /* \"contracts/NFTStaking.sol\":2153:2169  require(success) */\n      tag_125\n      jumpi\n      0x00\n      dup1\n      revert\n    tag_125:\n        /* \"contracts/NFTStaking.sol\":2198:2199  0 */\n      0x00\n        /* \"contracts/NFTStaking.sol\":2179:2186  rewards */\n      0x05\n        /* \"contracts/NFTStaking.sol\":2179:2195  rewards[tokenId] */\n      0x00\n        /* \"contracts/NFTStaking.sol\":2187:2194  tokenId */\n      dup5\n        /* \"contracts/NFTStaking.sol\":2179:2195  rewards[tokenId] */\n      dup2\n      mstore\n      0x20\n      add\n      swap1\n      dup2\n      mstore\n      0x20\n      add\n      0x00\n      keccak256\n        /* \"contracts/NFTStaking.sol\":2179:2199  rewards[tokenId] = 0 */\n      dup2\n      swap1\n      sstore\n      pop\n        /* \"contracts/NFTStaking.sol\":1970:2206  {... */\n      pop\n        /* \"@openzeppelin/contracts@4.7.3/security/ReentrancyGuard.sol\":1701:1702  1 */\n      0x01\n        /* \"@openzeppelin/contracts@4.7.3/security/ReentrancyGuard.sol\":2628:2635  _status */\n      dup1\n        /* \"@openzeppelin/contracts@4.7.3/security/ReentrancyGuard.sol\":2628:2650  _status = _NOT_ENTERED */\n      dup2\n      swap1\n      sstore\n      pop\n        /* \"contracts/NFTStaking.sol\":1916:2206  function claim(uint256 tokenId) nonReentrant external {... */\n      pop\n      jump\t// out\n        /* \"@openzeppelin/contracts@4.7.3/access/Ownable.sol\":1831:1932  function renounceOwnership() public virtual onlyOwner {... */\n    tag_58:\n        /* \"@openzeppelin/contracts@4.7.3/access/Ownable.sol\":1094:1107  _checkOwner() */\n      tag_127\n        /* \"@openzeppelin/contracts@4.7.3/access/Ownable.sol\":1094:1105  _checkOwner */\n      tag_128\n        /* \"@openzeppelin/contracts@4.7.3/access/Ownable.sol\":1094:1107  _checkOwner() */\n      jump\t// in\n    tag_127:\n        /* \"@openzeppelin/contracts@4.7.3/access/Ownable.sol\":1895:1925  _transferOwnership(address(0)) */\n      tag_130\n        /* \"@openzeppelin/contracts@4.7.3/access/Ownable.sol\":1922:1923  0 */\n      0x00\n        /* \"@openzeppelin/contracts@4.7.3/access/Ownable.sol\":1895:1913  _transferOwnership */\n      tag_131\n        /* \"@openzeppelin/contracts@4.7.3/access/Ownable.sol\":1895:1925  _transferOwnership(address(0)) */\n      jump\t// in\n    tag_130:\n        /* \"@openzeppelin/contracts@4.7.3/access/Ownable.sol\":1831:1932  function renounceOwnership() public virtual onlyOwner {... */\n      jump\t// out\n        /* \"contracts/NFTStaking.sol\":868:916  mapping (uint256 => address) public tokenOwnedBy */\n    tag_62:\n      mstore(0x20, 0x04)\n      dup1\n      0x00\n      mstore\n      keccak256(0x00, 0x40)\n      0x00\n      swap2\n      pop\n      sload\n      swap1\n      0x0100\n      exp\n      swap1\n      div\n      0xffffffffffffffffffffffffffffffffffffffff\n      and\n      dup2\n      jump\t// out\n        /* \"@openzeppelin/contracts@4.7.3/access/Ownable.sol\":1201:1286  function owner() public view virtual returns (address) {... */\n    tag_66:\n        /* \"@openzeppelin/contracts@4.7.3/access/Ownable.sol\":1247:1254  address */\n      0x00\n        /* \"@openzeppelin/contracts@4.7.3/access/Ownable.sol\":1273:1279  _owner */\n      dup1\n      0x00\n      swap1\n      sload\n      swap1\n      0x0100\n      exp\n      swap1\n      div\n      0xffffffffffffffffffffffffffffffffffffffff\n      and\n        /* \"@openzeppelin/contracts@4.7.3/access/Ownable.sol\":1266:1279  return _owner */\n      swap1\n      pop\n        /* \"@openzeppelin/contracts@4.7.3/access/Ownable.sol\":1201:1286  function owner() public view virtual returns (address) {... */\n      swap1\n      jump\t// out\n        /* \"contracts/NFTStaking.sol\":1198:1448  function stake(uint256 tokenId) external {... */\n    tag_71:\n        /* \"contracts/NFTStaking.sol\":1257:1269  _nftContract */\n      0x02\n      0x00\n      swap1\n      sload\n      swap1\n      0x0100\n      exp\n      swap1\n      div\n      0xffffffffffffffffffffffffffffffffffffffff\n      and\n        /* \"contracts/NFTStaking.sol\":1249:1287  IERC721(_nftContract).safeTransferFrom */\n      0xffffffffffffffffffffffffffffffffffffffff\n      and\n      0x42842e0e\n        /* \"contracts/NFTStaking.sol\":1288:1298  msg.sender */\n      caller\n        /* \"contracts/NFTStaking.sol\":1308:1312  this */\n      address\n        /* \"contracts/NFTStaking.sol\":1315:1322  tokenId */\n      dup5\n        /* \"contracts/NFTStaking.sol\":1249:1323  IERC721(_nftContract).safeTransferFrom(msg.sender, address(this), tokenId) */\n      mload(0x40)\n      dup5\n      0xffffffff\n      and\n      0xe0\n      shl\n      dup2\n      mstore\n      0x04\n      add\n      tag_134\n      swap4\n      swap3\n      swap2\n      swap1\n      tag_111\n      jump\t// in\n    tag_134:\n      0x00\n      mload(0x40)\n      dup1\n      dup4\n      sub\n      dup2\n      0x00\n      dup8\n      dup1\n      extcodesize\n      iszero\n      dup1\n      iszero\n      tag_135\n      jumpi\n      0x00\n      dup1\n      revert\n    tag_135:\n      pop\n      gas\n      call\n      iszero\n      dup1\n      iszero\n      tag_137\n      jumpi\n      returndatasize\n      0x00\n      dup1\n      returndatacopy\n      revert(0x00, returndatasize)\n    tag_137:\n      pop\n      pop\n      pop\n      pop\n        /* \"contracts/NFTStaking.sol\":1357:1367  msg.sender */\n      caller\n        /* \"contracts/NFTStaking.sol\":1333:1345  tokenOwnedBy */\n      0x04\n        /* \"contracts/NFTStaking.sol\":1333:1354  tokenOwnedBy[tokenId] */\n      0x00\n        /* \"contracts/NFTStaking.sol\":1346:1353  tokenId */\n      dup4\n        /* \"contracts/NFTStaking.sol\":1333:1354  tokenOwnedBy[tokenId] */\n      dup2\n      mstore\n      0x20\n      add\n      swap1\n      dup2\n      mstore\n      0x20\n      add\n      0x00\n      keccak256\n      0x00\n        /* \"contracts/NFTStaking.sol\":1333:1367  tokenOwnedBy[tokenId] = msg.sender */\n      0x0100\n      exp\n      dup2\n      sload\n      dup2\n      0xffffffffffffffffffffffffffffffffffffffff\n      mul\n      not\n      and\n      swap1\n      dup4\n      0xffffffffffffffffffffffffffffffffffffffff\n      and\n      mul\n      or\n      swap1\n      sstore\n      pop\n        /* \"contracts/NFTStaking.sol\":1377:1388  tokenStaked */\n      0x06\n        /* \"contracts/NFTStaking.sol\":1394:1401  tokenId */\n      dup2\n        /* \"contracts/NFTStaking.sol\":1377:1402  tokenStaked.push(tokenId) */\n      swap1\n      dup1\n      0x01\n      dup2\n      sload\n      add\n      dup1\n      dup3\n      sstore\n      dup1\n      swap2\n      pop\n      pop\n      0x01\n      swap1\n      sub\n      swap1\n      0x00\n      mstore\n      keccak256(0x00, 0x20)\n      add\n      0x00\n      swap1\n      swap2\n      swap1\n      swap2\n      swap1\n      swap2\n      pop\n      sstore\n        /* \"contracts/NFTStaking.sol\":1412:1441  _stakedNFTCounter.increment() */\n      tag_139\n        /* \"contracts/NFTStaking.sol\":1412:1429  _stakedNFTCounter */\n      0x03\n        /* \"contracts/NFTStaking.sol\":1412:1439  _stakedNFTCounter.increment */\n      tag_140\n        /* \"contracts/NFTStaking.sol\":1412:1441  _stakedNFTCounter.increment() */\n      jump\t// in\n    tag_139:\n        /* \"contracts/NFTStaking.sol\":1198:1448  function stake(uint256 tokenId) external {... */\n      pop\n      jump\t// out\n        /* \"contracts/NFTStaking.sol\":2212:2323  function calculateRewards(uint256 tokenId) public view returns(uint256){... */\n    tag_75:\n        /* \"contracts/NFTStaking.sol\":2275:2282  uint256 */\n      0x00\n        /* \"contracts/NFTStaking.sol\":2300:2307  rewards */\n      0x05\n        /* \"contracts/NFTStaking.sol\":2300:2316  rewards[tokenId] */\n      0x00\n        /* \"contracts/NFTStaking.sol\":2308:2315  tokenId */\n      dup4\n        /* \"contracts/NFTStaking.sol\":2300:2316  rewards[tokenId] */\n      dup2\n      mstore\n      0x20\n      add\n      swap1\n      dup2\n      mstore\n      0x20\n      add\n      0x00\n      keccak256\n      sload\n        /* \"contracts/NFTStaking.sol\":2293:2316  return rewards[tokenId] */\n      swap1\n      pop\n        /* \"contracts/NFTStaking.sol\":2212:2323  function calculateRewards(uint256 tokenId) public view returns(uint256){... */\n      swap2\n      swap1\n      pop\n      jump\t// out\n        /* \"@openzeppelin/contracts@4.7.3/access/Ownable.sol\":2081:2279  function transferOwnership(address newOwner) public virtual onlyOwner {... */\n    tag_82:\n        /* \"@openzeppelin/contracts@4.7.3/access/Ownable.sol\":1094:1107  _checkOwner() */\n      tag_143\n        /* \"@openzeppelin/contracts@4.7.3/access/Ownable.sol\":1094:1105  _checkOwner */\n      tag_128\n        /* \"@openzeppelin/contracts@4.7.3/access/Ownable.sol\":1094:1107  _checkOwner() */\n      jump\t// in\n    tag_143:\n        /* \"@openzeppelin/contracts@4.7.3/access/Ownable.sol\":2189:2190  0 */\n      0x00\n        /* \"@openzeppelin/contracts@4.7.3/access/Ownable.sol\":2169:2191  newOwner != address(0) */\n      0xffffffffffffffffffffffffffffffffffffffff\n      and\n        /* \"@openzeppelin/contracts@4.7.3/access/Ownable.sol\":2169:2177  newOwner */\n      dup2\n        /* \"@openzeppelin/contracts@4.7.3/access/Ownable.sol\":2169:2191  newOwner != address(0) */\n      0xffffffffffffffffffffffffffffffffffffffff\n      and\n      sub\n        /* \"@openzeppelin/contracts@4.7.3/access/Ownable.sol\":2161:2234  require(newOwner != address(0), \"Ownable: new owner is the zero address\") */\n      tag_145\n      jumpi\n      mload(0x40)\n      0x08c379a000000000000000000000000000000000000000000000000000000000\n      dup2\n      mstore\n      0x04\n      add\n      tag_146\n      swap1\n      tag_147\n      jump\t// in\n    tag_146:\n      mload(0x40)\n      dup1\n      swap2\n      sub\n      swap1\n      revert\n    tag_145:\n        /* \"@openzeppelin/contracts@4.7.3/access/Ownable.sol\":2244:2272  _transferOwnership(newOwner) */\n      tag_148\n        /* \"@openzeppelin/contracts@4.7.3/access/Ownable.sol\":2263:2271  newOwner */\n      dup2\n        /* \"@openzeppelin/contracts@4.7.3/access/Ownable.sol\":2244:2262  _transferOwnership */\n      tag_131\n        /* \"@openzeppelin/contracts@4.7.3/access/Ownable.sol\":2244:2272  _transferOwnership(newOwner) */\n      jump\t// in\n    tag_148:\n        /* \"@openzeppelin/contracts@4.7.3/access/Ownable.sol\":2081:2279  function transferOwnership(address newOwner) public virtual onlyOwner {... */\n      pop\n      jump\t// out\n        /* \"contracts/NFTStaking.sol\":922:965  mapping (uint256 => uint256) public rewards */\n    tag_86:\n      mstore(0x20, 0x05)\n      dup1\n      0x00\n      mstore\n      keccak256(0x00, 0x40)\n      0x00\n      swap2\n      pop\n      swap1\n      pop\n      sload\n      dup2\n      jump\t// out\n        /* \"contracts/NFTStaking.sol\":1084:1192  function setNftContact(address nftContract_) external onlyOwner {... */\n    tag_91:\n        /* \"@openzeppelin/contracts@4.7.3/access/Ownable.sol\":1094:1107  _checkOwner() */\n      tag_150\n        /* \"@openzeppelin/contracts@4.7.3/access/Ownable.sol\":1094:1105  _checkOwner */\n      tag_128\n        /* \"@openzeppelin/contracts@4.7.3/access/Ownable.sol\":1094:1107  _checkOwner() */\n      jump\t// in\n    tag_150:\n        /* \"contracts/NFTStaking.sol\":1173:1185  nftContract_ */\n      dup1\n        /* \"contracts/NFTStaking.sol\":1158:1170  _nftContract */\n      0x02\n      0x00\n        /* \"contracts/NFTStaking.sol\":1158:1185  _nftContract = nftContract_ */\n      0x0100\n      exp\n      dup2\n      sload\n      dup2\n      0xffffffffffffffffffffffffffffffffffffffff\n      mul\n      not\n      and\n      swap1\n      dup4\n      0xffffffffffffffffffffffffffffffffffffffff\n      and\n      mul\n      or\n      swap1\n      sstore\n      pop\n        /* \"contracts/NFTStaking.sol\":1084:1192  function setNftContact(address nftContract_) external onlyOwner {... */\n      pop\n      jump\t// out\n        /* \"@openzeppelin/contracts@4.7.3/utils/Counters.sol\":1074:1303  function decrement(Counter storage counter) internal {... */\n    tag_103:\n        /* \"@openzeppelin/contracts@4.7.3/utils/Counters.sol\":1137:1150  uint256 value */\n      0x00\n        /* \"@openzeppelin/contracts@4.7.3/utils/Counters.sol\":1153:1160  counter */\n      dup2\n        /* \"@openzeppelin/contracts@4.7.3/utils/Counters.sol\":1153:1167  counter._value */\n      0x00\n      add\n      sload\n        /* \"@openzeppelin/contracts@4.7.3/utils/Counters.sol\":1137:1167  uint256 value = counter._value */\n      swap1\n      pop\n        /* \"@openzeppelin/contracts@4.7.3/utils/Counters.sol\":1193:1194  0 */\n      0x00\n        /* \"@openzeppelin/contracts@4.7.3/utils/Counters.sol\":1185:1190  value */\n      dup2\n        /* \"@openzeppelin/contracts@4.7.3/utils/Counters.sol\":1185:1194  value > 0 */\n      gt\n        /* \"@openzeppelin/contracts@4.7.3/utils/Counters.sol\":1177:1226  require(value > 0, \"Counter: decrement overflow\") */\n      tag_153\n      jumpi\n      mload(0x40)\n      0x08c379a000000000000000000000000000000000000000000000000000000000\n      dup2\n      mstore\n      0x04\n      add\n      tag_154\n      swap1\n      tag_155\n      jump\t// in\n    tag_154:\n      mload(0x40)\n      dup1\n      swap2\n      sub\n      swap1\n      revert\n    tag_153:\n        /* \"@openzeppelin/contracts@4.7.3/utils/Counters.sol\":1285:1286  1 */\n      0x01\n        /* \"@openzeppelin/contracts@4.7.3/utils/Counters.sol\":1277:1282  value */\n      dup2\n        /* \"@openzeppelin/contracts@4.7.3/utils/Counters.sol\":1277:1286  value - 1 */\n      sub\n        /* \"@openzeppelin/contracts@4.7.3/utils/Counters.sol\":1260:1267  counter */\n      dup3\n        /* \"@openzeppelin/contracts@4.7.3/utils/Counters.sol\":1260:1274  counter._value */\n      0x00\n      add\n        /* \"@openzeppelin/contracts@4.7.3/utils/Counters.sol\":1260:1286  counter._value = value - 1 */\n      dup2\n      swap1\n      sstore\n      pop\n        /* \"@openzeppelin/contracts@4.7.3/utils/Counters.sol\":1127:1303  {... */\n      pop\n        /* \"@openzeppelin/contracts@4.7.3/utils/Counters.sol\":1074:1303  function decrement(Counter storage counter) internal {... */\n      pop\n      jump\t// out\n        /* \"@openzeppelin/contracts@4.7.3/access/Ownable.sol\":1359:1489  function _checkOwner() internal view virtual {... */\n    tag_128:\n        /* \"@openzeppelin/contracts@4.7.3/access/Ownable.sol\":1433:1445  _msgSender() */\n      tag_157\n        /* \"@openzeppelin/contracts@4.7.3/access/Ownable.sol\":1433:1443  _msgSender */\n      tag_158\n        /* \"@openzeppelin/contracts@4.7.3/access/Ownable.sol\":1433:1445  _msgSender() */\n      jump\t// in\n    tag_157:\n        /* \"@openzeppelin/contracts@4.7.3/access/Ownable.sol\":1422:1445  owner() == _msgSender() */\n      0xffffffffffffffffffffffffffffffffffffffff\n      and\n        /* \"@openzeppelin/contracts@4.7.3/access/Ownable.sol\":1422:1429  owner() */\n      tag_159\n        /* \"@openzeppelin/contracts@4.7.3/access/Ownable.sol\":1422:1427  owner */\n      tag_66\n        /* \"@openzeppelin/contracts@4.7.3/access/Ownable.sol\":1422:1429  owner() */\n      jump\t// in\n    tag_159:\n        /* \"@openzeppelin/contracts@4.7.3/access/Ownable.sol\":1422:1445  owner() == _msgSender() */\n      0xffffffffffffffffffffffffffffffffffffffff\n      and\n      eq\n        /* \"@openzeppelin/contracts@4.7.3/access/Ownable.sol\":1414:1482  require(owner() == _msgSender(), \"Ownable: caller is not the owner\") */\n      tag_160\n      jumpi\n      mload(0x40)\n      0x08c379a000000000000000000000000000000000000000000000000000000000\n      dup2\n      mstore\n      0x04\n      add\n      tag_161\n      swap1\n      tag_162\n      jump\t// in\n    tag_161:\n      mload(0x40)\n      dup1\n      swap2\n      sub\n      swap1\n      revert\n    tag_160:\n        /* \"@openzeppelin/contracts@4.7.3/access/Ownable.sol\":1359:1489  function _checkOwner() internal view virtual {... */\n      jump\t// out\n        /* \"@openzeppelin/contracts@4.7.3/access/Ownable.sol\":2433:2620  function _transferOwnership(address newOwner) internal virtual {... */\n    tag_131:\n        /* \"@openzeppelin/contracts@4.7.3/access/Ownable.sol\":2506:2522  address oldOwner */\n      0x00\n        /* \"@openzeppelin/contracts@4.7.3/access/Ownable.sol\":2525:2531  _owner */\n      dup1\n      0x00\n      swap1\n      sload\n      swap1\n      0x0100\n      exp\n      swap1\n      div\n      0xffffffffffffffffffffffffffffffffffffffff\n      and\n        /* \"@openzeppelin/contracts@4.7.3/access/Ownable.sol\":2506:2531  address oldOwner = _owner */\n      swap1\n      pop\n        /* \"@openzeppelin/contracts@4.7.3/access/Ownable.sol\":2550:2558  newOwner */\n      dup2\n        /* \"@openzeppelin/contracts@4.7.3/access/Ownable.sol\":2541:2547  _owner */\n      0x00\n      dup1\n        /* \"@openzeppelin/contracts@4.7.3/access/Ownable.sol\":2541:2558  _owner = newOwner */\n      0x0100\n      exp\n      dup2\n      sload\n      dup2\n      0xffffffffffffffffffffffffffffffffffffffff\n      mul\n      not\n      and\n      swap1\n      dup4\n      0xffffffffffffffffffffffffffffffffffffffff\n      and\n      mul\n      or\n      swap1\n      sstore\n      pop\n        /* \"@openzeppelin/contracts@4.7.3/access/Ownable.sol\":2604:2612  newOwner */\n      dup2\n        /* \"@openzeppelin/contracts@4.7.3/access/Ownable.sol\":2573:2613  OwnershipTransferred(oldOwner, newOwner) */\n      0xffffffffffffffffffffffffffffffffffffffff\n      and\n        /* \"@openzeppelin/contracts@4.7.3/access/Ownable.sol\":2594:2602  oldOwner */\n      dup2\n        /* \"@openzeppelin/contracts@4.7.3/access/Ownable.sol\":2573:2613  OwnershipTransferred(oldOwner, newOwner) */\n      0xffffffffffffffffffffffffffffffffffffffff\n      and\n      0x8be0079c531659141344cd1fd0a4f28419497f9722a3daafe3b4186f6b6457e0\n      mload(0x40)\n      mload(0x40)\n      dup1\n      swap2\n      sub\n      swap1\n      log3\n        /* \"@openzeppelin/contracts@4.7.3/access/Ownable.sol\":2496:2620  {... */\n      pop\n        /* \"@openzeppelin/contracts@4.7.3/access/Ownable.sol\":2433:2620  function _transferOwnership(address newOwner) internal virtual {... */\n      pop\n      jump\t// out\n        /* \"@openzeppelin/contracts@4.7.3/utils/Counters.sol\":945:1068  function increment(Counter storage counter) internal {... */\n    tag_140:\n        /* \"@openzeppelin/contracts@4.7.3/utils/Counters.sol\":1050:1051  1 */\n      0x01\n        /* \"@openzeppelin/contracts@4.7.3/utils/Counters.sol\":1032:1039  counter */\n      dup2\n        /* \"@openzeppelin/contracts@4.7.3/utils/Counters.sol\":1032:1046  counter._value */\n      0x00\n      add\n      0x00\n        /* \"@openzeppelin/contracts@4.7.3/utils/Counters.sol\":1032:1051  counter._value += 1 */\n      dup3\n      dup3\n      sload\n      add\n      swap3\n      pop\n      pop\n      dup2\n      swap1\n      sstore\n      pop\n        /* \"@openzeppelin/contracts@4.7.3/utils/Counters.sol\":945:1068  function increment(Counter storage counter) internal {... */\n      pop\n      jump\t// out\n        /* \"@openzeppelin/contracts@4.7.3/utils/Context.sol\":640:736  function _msgSender() internal view virtual returns (address) {... */\n    tag_158:\n        /* \"@openzeppelin/contracts@4.7.3/utils/Context.sol\":693:700  address */\n      0x00\n        /* \"@openzeppelin/contracts@4.7.3/utils/Context.sol\":719:729  msg.sender */\n      caller\n        /* \"@openzeppelin/contracts@4.7.3/utils/Context.sol\":712:729  return msg.sender */\n      swap1\n      pop\n        /* \"@openzeppelin/contracts@4.7.3/utils/Context.sol\":640:736  function _msgSender() internal view virtual returns (address) {... */\n      swap1\n      jump\t// out\n        /* \"#utility.yul\":7:176   */\n    tag_166:\n        /* \"#utility.yul\":91:102   */\n      0x00\n        /* \"#utility.yul\":125:131   */\n      dup3\n        /* \"#utility.yul\":120:123   */\n      dup3\n        /* \"#utility.yul\":113:132   */\n      mstore\n        /* \"#utility.yul\":165:169   */\n      0x20\n        /* \"#utility.yul\":160:163   */\n      dup3\n        /* \"#utility.yul\":156:170   */\n      add\n        /* \"#utility.yul\":141:170   */\n      swap1\n      pop\n        /* \"#utility.yul\":7:176   */\n      swap3\n      swap2\n      pop\n      pop\n      jump\t// out\n        /* \"#utility.yul\":182:350   */\n    tag_167:\n        /* \"#utility.yul\":322:342   */\n      0x4e6f204e46547320617265207374616b65640000000000000000000000000000\n        /* \"#utility.yul\":318:319   */\n      0x00\n        /* \"#utility.yul\":310:316   */\n      dup3\n        /* \"#utility.yul\":306:320   */\n      add\n        /* \"#utility.yul\":299:343   */\n      mstore\n        /* \"#utility.yul\":182:350   */\n      pop\n      jump\t// out\n        /* \"#utility.yul\":356:722   */\n    tag_168:\n        /* \"#utility.yul\":498:501   */\n      0x00\n        /* \"#utility.yul\":519:586   */\n      tag_217\n        /* \"#utility.yul\":583:585   */\n      0x12\n        /* \"#utility.yul\":578:581   */\n      dup4\n        /* \"#utility.yul\":519:586   */\n      tag_166\n      jump\t// in\n    tag_217:\n        /* \"#utility.yul\":512:586   */\n      swap2\n      pop\n        /* \"#utility.yul\":595:688   */\n      tag_218\n        /* \"#utility.yul\":684:687   */\n      dup3\n        /* \"#utility.yul\":595:688   */\n      tag_167\n      jump\t// in\n    tag_218:\n        /* \"#utility.yul\":713:715   */\n      0x20\n        /* \"#utility.yul\":708:711   */\n      dup3\n        /* \"#utility.yul\":704:716   */\n      add\n        /* \"#utility.yul\":697:716   */\n      swap1\n      pop\n        /* \"#utility.yul\":356:722   */\n      swap2\n      swap1\n      pop\n      jump\t// out\n        /* \"#utility.yul\":728:1147   */\n    tag_21:\n        /* \"#utility.yul\":894:898   */\n      0x00\n        /* \"#utility.yul\":932:934   */\n      0x20\n        /* \"#utility.yul\":921:930   */\n      dup3\n        /* \"#utility.yul\":917:935   */\n      add\n        /* \"#utility.yul\":909:935   */\n      swap1\n      pop\n        /* \"#utility.yul\":981:990   */\n      dup2\n        /* \"#utility.yul\":975:979   */\n      dup2\n        /* \"#utility.yul\":971:991   */\n      sub\n        /* \"#utility.yul\":967:968   */\n      0x00\n        /* \"#utility.yul\":956:965   */\n      dup4\n        /* \"#utility.yul\":952:969   */\n      add\n        /* \"#utility.yul\":945:992   */\n      mstore\n        /* \"#utility.yul\":1009:1140   */\n      tag_220\n        /* \"#utility.yul\":1135:1139   */\n      dup2\n        /* \"#utility.yul\":1009:1140   */\n      tag_168\n      jump\t// in\n    tag_220:\n        /* \"#utility.yul\":1001:1140   */\n      swap1\n      pop\n        /* \"#utility.yul\":728:1147   */\n      swap2\n      swap1\n      pop\n      jump\t// out\n        /* \"#utility.yul\":1153:1230   */\n    tag_169:\n        /* \"#utility.yul\":1190:1197   */\n      0x00\n        /* \"#utility.yul\":1219:1224   */\n      dup2\n        /* \"#utility.yul\":1208:1224   */\n      swap1\n      pop\n        /* \"#utility.yul\":1153:1230   */\n      swap2\n      swap1\n      pop\n      jump\t// out\n        /* \"#utility.yul\":1236:1416   */\n    tag_170:\n        /* \"#utility.yul\":1284:1361   */\n      0x4e487b7100000000000000000000000000000000000000000000000000000000\n        /* \"#utility.yul\":1281:1282   */\n      0x00\n        /* \"#utility.yul\":1274:1362   */\n      mstore\n        /* \"#utility.yul\":1381:1385   */\n      0x12\n        /* \"#utility.yul\":1378:1379   */\n      0x04\n        /* \"#utility.yul\":1371:1386   */\n      mstore\n        /* \"#utility.yul\":1405:1409   */\n      0x24\n        /* \"#utility.yul\":1402:1403   */\n      0x00\n        /* \"#utility.yul\":1395:1410   */\n      revert\n        /* \"#utility.yul\":1422:1602   */\n    tag_171:\n        /* \"#utility.yul\":1470:1547   */\n      0x4e487b7100000000000000000000000000000000000000000000000000000000\n        /* \"#utility.yul\":1467:1468   */\n      0x00\n        /* \"#utility.yul\":1460:1548   */\n      mstore\n        /* \"#utility.yul\":1567:1571   */\n      0x11\n        /* \"#utility.yul\":1564:1565   */\n      0x04\n        /* \"#utility.yul\":1557:1572   */\n      mstore\n        /* \"#utility.yul\":1591:1595   */\n      0x24\n        /* \"#utility.yul\":1588:1589   */\n      0x00\n        /* \"#utility.yul\":1581:1596   */\n      revert\n        /* \"#utility.yul\":1608:1793   */\n    tag_24:\n        /* \"#utility.yul\":1648:1649   */\n      0x00\n        /* \"#utility.yul\":1665:1685   */\n      tag_225\n        /* \"#utility.yul\":1683:1684   */\n      dup3\n        /* \"#utility.yul\":1665:1685   */\n      tag_169\n      jump\t// in\n    tag_225:\n        /* \"#utility.yul\":1660:1685   */\n      swap2\n      pop\n        /* \"#utility.yul\":1699:1719   */\n      tag_226\n        /* \"#utility.yul\":1717:1718   */\n      dup4\n        /* \"#utility.yul\":1699:1719   */\n      tag_169\n      jump\t// in\n    tag_226:\n        /* \"#utility.yul\":1694:1719   */\n      swap3\n      pop\n        /* \"#utility.yul\":1738:1739   */\n      dup3\n        /* \"#utility.yul\":1728:1763   */\n      tag_227\n      jumpi\n        /* \"#utility.yul\":1743:1761   */\n      tag_228\n      tag_170\n      jump\t// in\n    tag_228:\n        /* \"#utility.yul\":1728:1763   */\n    tag_227:\n        /* \"#utility.yul\":1785:1786   */\n      dup3\n        /* \"#utility.yul\":1782:1783   */\n      dup3\n        /* \"#utility.yul\":1778:1787   */\n      div\n        /* \"#utility.yul\":1773:1787   */\n      swap1\n      pop\n        /* \"#utility.yul\":1608:1793   */\n      swap3\n      swap2\n      pop\n      pop\n      jump\t// out\n        /* \"#utility.yul\":1799:1925   */\n    tag_172:\n        /* \"#utility.yul\":1836:1843   */\n      0x00\n        /* \"#utility.yul\":1876:1918   */\n      0xffffffffffffffffffffffffffffffffffffffff\n        /* \"#utility.yul\":1869:1874   */\n      dup3\n        /* \"#utility.yul\":1865:1919   */\n      and\n        /* \"#utility.yul\":1854:1919   */\n      swap1\n      pop\n        /* \"#utility.yul\":1799:1925   */\n      swap2\n      swap1\n      pop\n      jump\t// out\n        /* \"#utility.yul\":1931:2027   */\n    tag_173:\n        /* \"#utility.yul\":1968:1975   */\n      0x00\n        /* \"#utility.yul\":1997:2021   */\n      tag_231\n        /* \"#utility.yul\":2015:2020   */\n      dup3\n        /* \"#utility.yul\":1997:2021   */\n      tag_172\n      jump\t// in\n    tag_231:\n        /* \"#utility.yul\":1986:2021   */\n      swap1\n      pop\n        /* \"#utility.yul\":1931:2027   */\n      swap2\n      swap1\n      pop\n      jump\t// out\n        /* \"#utility.yul\":2033:2151   */\n    tag_174:\n        /* \"#utility.yul\":2120:2144   */\n      tag_233\n        /* \"#utility.yul\":2138:2143   */\n      dup2\n        /* \"#utility.yul\":2120:2144   */\n      tag_173\n      jump\t// in\n    tag_233:\n        /* \"#utility.yul\":2115:2118   */\n      dup3\n        /* \"#utility.yul\":2108:2145   */\n      mstore\n        /* \"#utility.yul\":2033:2151   */\n      pop\n      pop\n      jump\t// out\n        /* \"#utility.yul\":2157:2379   */\n    tag_26:\n        /* \"#utility.yul\":2250:2254   */\n      0x00\n        /* \"#utility.yul\":2288:2290   */\n      0x20\n        /* \"#utility.yul\":2277:2286   */\n      dup3\n        /* \"#utility.yul\":2273:2291   */\n      add\n        /* \"#utility.yul\":2265:2291   */\n      swap1\n      pop\n        /* \"#utility.yul\":2301:2372   */\n      tag_235\n        /* \"#utility.yul\":2369:2370   */\n      0x00\n        /* \"#utility.yul\":2358:2367   */\n      dup4\n        /* \"#utility.yul\":2354:2371   */\n      add\n        /* \"#utility.yul\":2345:2351   */\n      dup5\n        /* \"#utility.yul\":2301:2372   */\n      tag_174\n      jump\t// in\n    tag_235:\n        /* \"#utility.yul\":2157:2379   */\n      swap3\n      swap2\n      pop\n      pop\n      jump\t// out\n        /* \"#utility.yul\":2385:2460   */\n    tag_175:\n        /* \"#utility.yul\":2418:2424   */\n      0x00\n        /* \"#utility.yul\":2451:2453   */\n      0x40\n        /* \"#utility.yul\":2445:2454   */\n      mload\n        /* \"#utility.yul\":2435:2454   */\n      swap1\n      pop\n        /* \"#utility.yul\":2385:2460   */\n      swap1\n      jump\t// out\n        /* \"#utility.yul\":2466:2583   */\n    tag_176:\n        /* \"#utility.yul\":2575:2576   */\n      0x00\n        /* \"#utility.yul\":2572:2573   */\n      dup1\n        /* \"#utility.yul\":2565:2577   */\n      revert\n        /* \"#utility.yul\":2589:2706   */\n    tag_177:\n        /* \"#utility.yul\":2698:2699   */\n      0x00\n        /* \"#utility.yul\":2695:2696   */\n      dup1\n        /* \"#utility.yul\":2688:2700   */\n      revert\n        /* \"#utility.yul\":2712:2829   */\n    tag_178:\n        /* \"#utility.yul\":2821:2822   */\n      0x00\n        /* \"#utility.yul\":2818:2819   */\n      dup1\n        /* \"#utility.yul\":2811:2823   */\n      revert\n        /* \"#utility.yul\":2835:2937   */\n    tag_179:\n        /* \"#utility.yul\":2876:2882   */\n      0x00\n        /* \"#utility.yul\":2927:2929   */\n      0x1f\n        /* \"#utility.yul\":2923:2930   */\n      not\n        /* \"#utility.yul\":2918:2920   */\n      0x1f\n        /* \"#utility.yul\":2911:2916   */\n      dup4\n        /* \"#utility.yul\":2907:2921   */\n      add\n        /* \"#utility.yul\":2903:2931   */\n      and\n        /* \"#utility.yul\":2893:2931   */\n      swap1\n      pop\n        /* \"#utility.yul\":2835:2937   */\n      swap2\n      swap1\n      pop\n      jump\t// out\n        /* \"#utility.yul\":2943:3123   */\n    tag_180:\n        /* \"#utility.yul\":2991:3068   */\n      0x4e487b7100000000000000000000000000000000000000000000000000000000\n        /* \"#utility.yul\":2988:2989   */\n      0x00\n        /* \"#utility.yul\":2981:3069   */\n      mstore\n        /* \"#utility.yul\":3088:3092   */\n      0x41\n        /* \"#utility.yul\":3085:3086   */\n      0x04\n        /* \"#utility.yul\":3078:3093   */\n      mstore\n        /* \"#utility.yul\":3112:3116   */\n      0x24\n        /* \"#utility.yul\":3109:3110   */\n      0x00\n        /* \"#utility.yul\":3102:3117   */\n      revert\n        /* \"#utility.yul\":3129:3410   */\n    tag_181:\n        /* \"#utility.yul\":3212:3239   */\n      tag_243\n        /* \"#utility.yul\":3234:3238   */\n      dup3\n        /* \"#utility.yul\":3212:3239   */\n      tag_179\n      jump\t// in\n    tag_243:\n        /* \"#utility.yul\":3204:3210   */\n      dup2\n        /* \"#utility.yul\":3200:3240   */\n      add\n        /* \"#utility.yul\":3342:3348   */\n      dup2\n        /* \"#utility.yul\":3330:3340   */\n      dup2\n        /* \"#utility.yul\":3327:3349   */\n      lt\n        /* \"#utility.yul\":3306:3324   */\n      0xffffffffffffffff\n        /* \"#utility.yul\":3294:3304   */\n      dup3\n        /* \"#utility.yul\":3291:3325   */\n      gt\n        /* \"#utility.yul\":3288:3350   */\n      or\n        /* \"#utility.yul\":3285:3373   */\n      iszero\n      tag_244\n      jumpi\n        /* \"#utility.yul\":3353:3371   */\n      tag_245\n      tag_180\n      jump\t// in\n    tag_245:\n        /* \"#utility.yul\":3285:3373   */\n    tag_244:\n        /* \"#utility.yul\":3393:3403   */\n      dup1\n        /* \"#utility.yul\":3389:3391   */\n      0x40\n        /* \"#utility.yul\":3382:3404   */\n      mstore\n        /* \"#utility.yul\":3172:3410   */\n      pop\n        /* \"#utility.yul\":3129:3410   */\n      pop\n      pop\n      jump\t// out\n        /* \"#utility.yul\":3416:3545   */\n    tag_182:\n        /* \"#utility.yul\":3450:3456   */\n      0x00\n        /* \"#utility.yul\":3477:3497   */\n      tag_247\n      tag_175\n      jump\t// in\n    tag_247:\n        /* \"#utility.yul\":3467:3497   */\n      swap1\n      pop\n        /* \"#utility.yul\":3506:3539   */\n      tag_248\n        /* \"#utility.yul\":3534:3538   */\n      dup3\n        /* \"#utility.yul\":3526:3532   */\n      dup3\n        /* \"#utility.yul\":3506:3539   */\n      tag_181\n      jump\t// in\n    tag_248:\n        /* \"#utility.yul\":3416:3545   */\n      swap2\n      swap1\n      pop\n      jump\t// out\n        /* \"#utility.yul\":3551:3862   */\n    tag_183:\n        /* \"#utility.yul\":3628:3632   */\n      0x00\n        /* \"#utility.yul\":3718:3736   */\n      0xffffffffffffffff\n        /* \"#utility.yul\":3710:3716   */\n      dup3\n        /* \"#utility.yul\":3707:3737   */\n      gt\n        /* \"#utility.yul\":3704:3760   */\n      iszero\n      tag_250\n      jumpi\n        /* \"#utility.yul\":3740:3758   */\n      tag_251\n      tag_180\n      jump\t// in\n    tag_251:\n        /* \"#utility.yul\":3704:3760   */\n    tag_250:\n        /* \"#utility.yul\":3790:3794   */\n      0x20\n        /* \"#utility.yul\":3782:3788   */\n      dup3\n        /* \"#utility.yul\":3778:3795   */\n      mul\n        /* \"#utility.yul\":3770:3795   */\n      swap1\n      pop\n        /* \"#utility.yul\":3850:3854   */\n      0x20\n        /* \"#utility.yul\":3844:3848   */\n      dup2\n        /* \"#utility.yul\":3840:3855   */\n      add\n        /* \"#utility.yul\":3832:3855   */\n      swap1\n      pop\n        /* \"#utility.yul\":3551:3862   */\n      swap2\n      swap1\n      pop\n      jump\t// out\n        /* \"#utility.yul\":3868:3985   */\n    tag_184:\n        /* \"#utility.yul\":3977:3978   */\n      0x00\n        /* \"#utility.yul\":3974:3975   */\n      dup1\n        /* \"#utility.yul\":3967:3979   */\n      revert\n        /* \"#utility.yul\":3991:4113   */\n    tag_185:\n        /* \"#utility.yul\":4064:4088   */\n      tag_254\n        /* \"#utility.yul\":4082:4087   */\n      dup2\n        /* \"#utility.yul\":4064:4088   */\n      tag_169\n      jump\t// in\n    tag_254:\n        /* \"#utility.yul\":4057:4062   */\n      dup2\n        /* \"#utility.yul\":4054:4089   */\n      eq\n        /* \"#utility.yul\":4044:4107   */\n      tag_255\n      jumpi\n        /* \"#utility.yul\":4103:4104   */\n      0x00\n        /* \"#utility.yul\":4100:4101   */\n      dup1\n        /* \"#utility.yul\":4093:4105   */\n      revert\n        /* \"#utility.yul\":4044:4107   */\n    tag_255:\n        /* \"#utility.yul\":3991:4113   */\n      pop\n      jump\t// out\n        /* \"#utility.yul\":4119:4262   */\n    tag_186:\n        /* \"#utility.yul\":4176:4181   */\n      0x00\n        /* \"#utility.yul\":4207:4213   */\n      dup2\n        /* \"#utility.yul\":4201:4214   */\n      mload\n        /* \"#utility.yul\":4192:4214   */\n      swap1\n      pop\n        /* \"#utility.yul\":4223:4256   */\n      tag_257\n        /* \"#utility.yul\":4250:4255   */\n      dup2\n        /* \"#utility.yul\":4223:4256   */\n      tag_185\n      jump\t// in\n    tag_257:\n        /* \"#utility.yul\":4119:4262   */\n      swap3\n      swap2\n      pop\n      pop\n      jump\t// out\n        /* \"#utility.yul\":4285:5017   */\n    tag_187:\n        /* \"#utility.yul\":4392:4397   */\n      0x00\n        /* \"#utility.yul\":4417:4498   */\n      tag_259\n        /* \"#utility.yul\":4433:4497   */\n      tag_260\n        /* \"#utility.yul\":4490:4496   */\n      dup5\n        /* \"#utility.yul\":4433:4497   */\n      tag_183\n      jump\t// in\n    tag_260:\n        /* \"#utility.yul\":4417:4498   */\n      tag_182\n      jump\t// in\n    tag_259:\n        /* \"#utility.yul\":4408:4498   */\n      swap1\n      pop\n        /* \"#utility.yul\":4518:4523   */\n      dup1\n        /* \"#utility.yul\":4547:4553   */\n      dup4\n        /* \"#utility.yul\":4540:4545   */\n      dup3\n        /* \"#utility.yul\":4533:4554   */\n      mstore\n        /* \"#utility.yul\":4581:4585   */\n      0x20\n        /* \"#utility.yul\":4574:4579   */\n      dup3\n        /* \"#utility.yul\":4570:4586   */\n      add\n        /* \"#utility.yul\":4563:4586   */\n      swap1\n      pop\n        /* \"#utility.yul\":4634:4638   */\n      0x20\n        /* \"#utility.yul\":4626:4632   */\n      dup5\n        /* \"#utility.yul\":4622:4639   */\n      mul\n        /* \"#utility.yul\":4614:4620   */\n      dup4\n        /* \"#utility.yul\":4610:4640   */\n      add\n        /* \"#utility.yul\":4663:4666   */\n      dup6\n        /* \"#utility.yul\":4655:4661   */\n      dup2\n        /* \"#utility.yul\":4652:4667   */\n      gt\n        /* \"#utility.yul\":4649:4771   */\n      iszero\n      tag_261\n      jumpi\n        /* \"#utility.yul\":4682:4761   */\n      tag_262\n      tag_184\n      jump\t// in\n    tag_262:\n        /* \"#utility.yul\":4649:4771   */\n    tag_261:\n        /* \"#utility.yul\":4797:4803   */\n      dup4\n        /* \"#utility.yul\":4780:5011   */\n    tag_263:\n        /* \"#utility.yul\":4814:4820   */\n      dup2\n        /* \"#utility.yul\":4809:4812   */\n      dup2\n        /* \"#utility.yul\":4806:4821   */\n      lt\n        /* \"#utility.yul\":4780:5011   */\n      iszero\n      tag_265\n      jumpi\n        /* \"#utility.yul\":4889:4892   */\n      dup1\n        /* \"#utility.yul\":4918:4966   */\n      tag_266\n        /* \"#utility.yul\":4962:4965   */\n      dup9\n        /* \"#utility.yul\":4950:4960   */\n      dup3\n        /* \"#utility.yul\":4918:4966   */\n      tag_186\n      jump\t// in\n    tag_266:\n        /* \"#utility.yul\":4913:4916   */\n      dup5\n        /* \"#utility.yul\":4906:4967   */\n      mstore\n        /* \"#utility.yul\":4996:5000   */\n      0x20\n        /* \"#utility.yul\":4991:4994   */\n      dup5\n        /* \"#utility.yul\":4987:5001   */\n      add\n        /* \"#utility.yul\":4980:5001   */\n      swap4\n      pop\n        /* \"#utility.yul\":4856:5011   */\n      pop\n        /* \"#utility.yul\":4840:4844   */\n      0x20\n        /* \"#utility.yul\":4835:4838   */\n      dup2\n        /* \"#utility.yul\":4831:4845   */\n      add\n        /* \"#utility.yul\":4824:4845   */\n      swap1\n      pop\n        /* \"#utility.yul\":4780:5011   */\n      jump(tag_263)\n    tag_265:\n        /* \"#utility.yul\":4784:4805   */\n      pop\n        /* \"#utility.yul\":4398:5017   */\n      pop\n      pop\n        /* \"#utility.yul\":4285:5017   */\n      swap4\n      swap3\n      pop\n      pop\n      pop\n      jump\t// out\n        /* \"#utility.yul\":5040:5425   */\n    tag_188:\n        /* \"#utility.yul\":5122:5127   */\n      0x00\n        /* \"#utility.yul\":5171:5174   */\n      dup3\n        /* \"#utility.yul\":5164:5168   */\n      0x1f\n        /* \"#utility.yul\":5156:5162   */\n      dup4\n        /* \"#utility.yul\":5152:5169   */\n      add\n        /* \"#utility.yul\":5148:5175   */\n      slt\n        /* \"#utility.yul\":5138:5260   */\n      tag_268\n      jumpi\n        /* \"#utility.yul\":5179:5258   */\n      tag_269\n      tag_178\n      jump\t// in\n    tag_269:\n        /* \"#utility.yul\":5138:5260   */\n    tag_268:\n        /* \"#utility.yul\":5289:5295   */\n      dup2\n        /* \"#utility.yul\":5283:5296   */\n      mload\n        /* \"#utility.yul\":5314:5419   */\n      tag_270\n        /* \"#utility.yul\":5415:5418   */\n      dup5\n        /* \"#utility.yul\":5407:5413   */\n      dup3\n        /* \"#utility.yul\":5400:5404   */\n      0x20\n        /* \"#utility.yul\":5392:5398   */\n      dup7\n        /* \"#utility.yul\":5388:5405   */\n      add\n        /* \"#utility.yul\":5314:5419   */\n      tag_187\n      jump\t// in\n    tag_270:\n        /* \"#utility.yul\":5305:5419   */\n      swap2\n      pop\n        /* \"#utility.yul\":5128:5425   */\n      pop\n        /* \"#utility.yul\":5040:5425   */\n      swap3\n      swap2\n      pop\n      pop\n      jump\t// out\n        /* \"#utility.yul\":5431:5985   */\n    tag_30:\n        /* \"#utility.yul\":5526:5532   */\n      0x00\n        /* \"#utility.yul\":5575:5577   */\n      0x20\n        /* \"#utility.yul\":5563:5572   */\n      dup3\n        /* \"#utility.yul\":5554:5561   */\n      dup5\n        /* \"#utility.yul\":5550:5573   */\n      sub\n        /* \"#utility.yul\":5546:5578   */\n      slt\n        /* \"#utility.yul\":5543:5662   */\n      iszero\n      tag_272\n      jumpi\n        /* \"#utility.yul\":5581:5660   */\n      tag_273\n      tag_176\n      jump\t// in\n    tag_273:\n        /* \"#utility.yul\":5543:5662   */\n    tag_272:\n        /* \"#utility.yul\":5722:5723   */\n      0x00\n        /* \"#utility.yul\":5711:5720   */\n      dup3\n        /* \"#utility.yul\":5707:5724   */\n      add\n        /* \"#utility.yul\":5701:5725   */\n      mload\n        /* \"#utility.yul\":5752:5770   */\n      0xffffffffffffffff\n        /* \"#utility.yul\":5744:5750   */\n      dup2\n        /* \"#utility.yul\":5741:5771   */\n      gt\n        /* \"#utility.yul\":5738:5855   */\n      iszero\n      tag_274\n      jumpi\n        /* \"#utility.yul\":5774:5853   */\n      tag_275\n      tag_177\n      jump\t// in\n    tag_275:\n        /* \"#utility.yul\":5738:5855   */\n    tag_274:\n        /* \"#utility.yul\":5879:5968   */\n      tag_276\n        /* \"#utility.yul\":5960:5967   */\n      dup5\n        /* \"#utility.yul\":5951:5957   */\n      dup3\n        /* \"#utility.yul\":5940:5949   */\n      dup6\n        /* \"#utility.yul\":5936:5958   */\n      add\n        /* \"#utility.yul\":5879:5968   */\n      tag_188\n      jump\t// in\n    tag_276:\n        /* \"#utility.yul\":5869:5968   */\n      swap2\n      pop\n        /* \"#utility.yul\":5672:5978   */\n      pop\n        /* \"#utility.yul\":5431:5985   */\n      swap3\n      swap2\n      pop\n      pop\n      jump\t// out\n        /* \"#utility.yul\":5991:6171   */\n    tag_36:\n        /* \"#utility.yul\":6039:6116   */\n      0x4e487b7100000000000000000000000000000000000000000000000000000000\n        /* \"#utility.yul\":6036:6037   */\n      0x00\n        /* \"#utility.yul\":6029:6117   */\n      mstore\n        /* \"#utility.yul\":6136:6140   */\n      0x32\n        /* \"#utility.yul\":6133:6134   */\n      0x04\n        /* \"#utility.yul\":6126:6141   */\n      mstore\n        /* \"#utility.yul\":6160:6164   */\n      0x24\n        /* \"#utility.yul\":6157:6158   */\n      0x00\n        /* \"#utility.yul\":6150:6165   */\n      revert\n        /* \"#utility.yul\":6177:6368   */\n    tag_39:\n        /* \"#utility.yul\":6217:6220   */\n      0x00\n        /* \"#utility.yul\":6236:6256   */\n      tag_279\n        /* \"#utility.yul\":6254:6255   */\n      dup3\n        /* \"#utility.yul\":6236:6256   */\n      tag_169\n      jump\t// in\n    tag_279:\n        /* \"#utility.yul\":6231:6256   */\n      swap2\n      pop\n        /* \"#utility.yul\":6270:6290   */\n      tag_280\n        /* \"#utility.yul\":6288:6289   */\n      dup4\n        /* \"#utility.yul\":6270:6290   */\n      tag_169\n      jump\t// in\n    tag_280:\n        /* \"#utility.yul\":6265:6290   */\n      swap3\n      pop\n        /* \"#utility.yul\":6313:6314   */\n      dup3\n        /* \"#utility.yul\":6310:6311   */\n      dup3\n        /* \"#utility.yul\":6306:6315   */\n      add\n        /* \"#utility.yul\":6299:6315   */\n      swap1\n      pop\n        /* \"#utility.yul\":6334:6337   */\n      dup1\n        /* \"#utility.yul\":6331:6332   */\n      dup3\n        /* \"#utility.yul\":6328:6338   */\n      gt\n        /* \"#utility.yul\":6325:6361   */\n      iszero\n      tag_281\n      jumpi\n        /* \"#utility.yul\":6341:6359   */\n      tag_282\n      tag_171\n      jump\t// in\n    tag_282:\n        /* \"#utility.yul\":6325:6361   */\n    tag_281:\n        /* \"#utility.yul\":6177:6368   */\n      swap3\n      swap2\n      pop\n      pop\n      jump\t// out\n        /* \"#utility.yul\":6374:6496   */\n    tag_189:\n        /* \"#utility.yul\":6447:6471   */\n      tag_284\n        /* \"#utility.yul\":6465:6470   */\n      dup2\n        /* \"#utility.yul\":6447:6471   */\n      tag_173\n      jump\t// in\n    tag_284:\n        /* \"#utility.yul\":6440:6445   */\n      dup2\n        /* \"#utility.yul\":6437:6472   */\n      eq\n        /* \"#utility.yul\":6427:6490   */\n      tag_285\n      jumpi\n        /* \"#utility.yul\":6486:6487   */\n      0x00\n        /* \"#utility.yul\":6483:6484   */\n      dup1\n        /* \"#utility.yul\":6476:6488   */\n      revert\n        /* \"#utility.yul\":6427:6490   */\n    tag_285:\n        /* \"#utility.yul\":6374:6496   */\n      pop\n      jump\t// out\n        /* \"#utility.yul\":6502:6641   */\n    tag_190:\n        /* \"#utility.yul\":6548:6553   */\n      0x00\n        /* \"#utility.yul\":6586:6592   */\n      dup2\n        /* \"#utility.yul\":6573:6593   */\n      calldataload\n        /* \"#utility.yul\":6564:6593   */\n      swap1\n      pop\n        /* \"#utility.yul\":6602:6635   */\n      tag_287\n        /* \"#utility.yul\":6629:6634   */\n      dup2\n        /* \"#utility.yul\":6602:6635   */\n      tag_189\n      jump\t// in\n    tag_287:\n        /* \"#utility.yul\":6502:6641   */\n      swap3\n      swap2\n      pop\n      pop\n      jump\t// out\n        /* \"#utility.yul\":6647:6786   */\n    tag_191:\n        /* \"#utility.yul\":6693:6698   */\n      0x00\n        /* \"#utility.yul\":6731:6737   */\n      dup2\n        /* \"#utility.yul\":6718:6738   */\n      calldataload\n        /* \"#utility.yul\":6709:6738   */\n      swap1\n      pop\n        /* \"#utility.yul\":6747:6780   */\n      tag_289\n        /* \"#utility.yul\":6774:6779   */\n      dup2\n        /* \"#utility.yul\":6747:6780   */\n      tag_185\n      jump\t// in\n    tag_289:\n        /* \"#utility.yul\":6647:6786   */\n      swap3\n      swap2\n      pop\n      pop\n      jump\t// out\n        /* \"#utility.yul\":6792:6909   */\n    tag_192:\n        /* \"#utility.yul\":6901:6902   */\n      0x00\n        /* \"#utility.yul\":6898:6899   */\n      dup1\n        /* \"#utility.yul\":6891:6903   */\n      revert\n        /* \"#utility.yul\":6915:7222   */\n    tag_193:\n        /* \"#utility.yul\":6976:6980   */\n      0x00\n        /* \"#utility.yul\":7066:7084   */\n      0xffffffffffffffff\n        /* \"#utility.yul\":7058:7064   */\n      dup3\n        /* \"#utility.yul\":7055:7085   */\n      gt\n        /* \"#utility.yul\":7052:7108   */\n      iszero\n      tag_292\n      jumpi\n        /* \"#utility.yul\":7088:7106   */\n      tag_293\n      tag_180\n      jump\t// in\n    tag_293:\n        /* \"#utility.yul\":7052:7108   */\n    tag_292:\n        /* \"#utility.yul\":7126:7155   */\n      tag_294\n        /* \"#utility.yul\":7148:7154   */\n      dup3\n        /* \"#utility.yul\":7126:7155   */\n      tag_179\n      jump\t// in\n    tag_294:\n        /* \"#utility.yul\":7118:7155   */\n      swap1\n      pop\n        /* \"#utility.yul\":7210:7214   */\n      0x20\n        /* \"#utility.yul\":7204:7208   */\n      dup2\n        /* \"#utility.yul\":7200:7215   */\n      add\n        /* \"#utility.yul\":7192:7215   */\n      swap1\n      pop\n        /* \"#utility.yul\":6915:7222   */\n      swap2\n      swap1\n      pop\n      jump\t// out\n        /* \"#utility.yul\":7228:7374   */\n    tag_194:\n        /* \"#utility.yul\":7325:7331   */\n      dup3\n        /* \"#utility.yul\":7320:7323   */\n      dup2\n        /* \"#utility.yul\":7315:7318   */\n      dup4\n        /* \"#utility.yul\":7302:7332   */\n      calldatacopy\n        /* \"#utility.yul\":7366:7367   */\n      0x00\n        /* \"#utility.yul\":7357:7363   */\n      dup4\n        /* \"#utility.yul\":7352:7355   */\n      dup4\n        /* \"#utility.yul\":7348:7364   */\n      add\n        /* \"#utility.yul\":7341:7368   */\n      mstore\n        /* \"#utility.yul\":7228:7374   */\n      pop\n      pop\n      pop\n      jump\t// out\n        /* \"#utility.yul\":7380:7803   */\n    tag_195:\n        /* \"#utility.yul\":7457:7462   */\n      0x00\n        /* \"#utility.yul\":7482:7547   */\n      tag_297\n        /* \"#utility.yul\":7498:7546   */\n      tag_298\n        /* \"#utility.yul\":7539:7545   */\n      dup5\n        /* \"#utility.yul\":7498:7546   */\n      tag_193\n      jump\t// in\n    tag_298:\n        /* \"#utility.yul\":7482:7547   */\n      tag_182\n      jump\t// in\n    tag_297:\n        /* \"#utility.yul\":7473:7547   */\n      swap1\n      pop\n        /* \"#utility.yul\":7570:7576   */\n      dup3\n        /* \"#utility.yul\":7563:7568   */\n      dup2\n        /* \"#utility.yul\":7556:7577   */\n      mstore\n        /* \"#utility.yul\":7608:7612   */\n      0x20\n        /* \"#utility.yul\":7601:7606   */\n      dup2\n        /* \"#utility.yul\":7597:7613   */\n      add\n        /* \"#utility.yul\":7646:7649   */\n      dup5\n        /* \"#utility.yul\":7637:7643   */\n      dup5\n        /* \"#utility.yul\":7632:7635   */\n      dup5\n        /* \"#utility.yul\":7628:7644   */\n      add\n        /* \"#utility.yul\":7625:7650   */\n      gt\n        /* \"#utility.yul\":7622:7734   */\n      iszero\n      tag_299\n      jumpi\n        /* \"#utility.yul\":7653:7732   */\n      tag_300\n      tag_192\n      jump\t// in\n    tag_300:\n        /* \"#utility.yul\":7622:7734   */\n    tag_299:\n        /* \"#utility.yul\":7743:7797   */\n      tag_301\n        /* \"#utility.yul\":7790:7796   */\n      dup5\n        /* \"#utility.yul\":7785:7788   */\n      dup3\n        /* \"#utility.yul\":7780:7783   */\n      dup6\n        /* \"#utility.yul\":7743:7797   */\n      tag_194\n      jump\t// in\n    tag_301:\n        /* \"#utility.yul\":7463:7803   */\n      pop\n        /* \"#utility.yul\":7380:7803   */\n      swap4\n      swap3\n      pop\n      pop\n      pop\n      jump\t// out\n        /* \"#utility.yul\":7822:8160   */\n    tag_196:\n        /* \"#utility.yul\":7877:7882   */\n      0x00\n        /* \"#utility.yul\":7926:7929   */\n      dup3\n        /* \"#utility.yul\":7919:7923   */\n      0x1f\n        /* \"#utility.yul\":7911:7917   */\n      dup4\n        /* \"#utility.yul\":7907:7924   */\n      add\n        /* \"#utility.yul\":7903:7930   */\n      slt\n        /* \"#utility.yul\":7893:8015   */\n      tag_303\n      jumpi\n        /* \"#utility.yul\":7934:8013   */\n      tag_304\n      tag_178\n      jump\t// in\n    tag_304:\n        /* \"#utility.yul\":7893:8015   */\n    tag_303:\n        /* \"#utility.yul\":8051:8057   */\n      dup2\n        /* \"#utility.yul\":8038:8058   */\n      calldataload\n        /* \"#utility.yul\":8076:8154   */\n      tag_305\n        /* \"#utility.yul\":8150:8153   */\n      dup5\n        /* \"#utility.yul\":8142:8148   */\n      dup3\n        /* \"#utility.yul\":8135:8139   */\n      0x20\n        /* \"#utility.yul\":8127:8133   */\n      dup7\n        /* \"#utility.yul\":8123:8140   */\n      add\n        /* \"#utility.yul\":8076:8154   */\n      tag_195\n      jump\t// in\n    tag_305:\n        /* \"#utility.yul\":8067:8154   */\n      swap2\n      pop\n        /* \"#utility.yul\":7883:8160   */\n      pop\n        /* \"#utility.yul\":7822:8160   */\n      swap3\n      swap2\n      pop\n      pop\n      jump\t// out\n        /* \"#utility.yul\":8166:9109   */\n    tag_43:\n        /* \"#utility.yul\":8261:8267   */\n      0x00\n        /* \"#utility.yul\":8269:8275   */\n      dup1\n        /* \"#utility.yul\":8277:8283   */\n      0x00\n        /* \"#utility.yul\":8285:8291   */\n      dup1\n        /* \"#utility.yul\":8334:8337   */\n      0x80\n        /* \"#utility.yul\":8322:8331   */\n      dup6\n        /* \"#utility.yul\":8313:8320   */\n      dup8\n        /* \"#utility.yul\":8309:8332   */\n      sub\n        /* \"#utility.yul\":8305:8338   */\n      slt\n        /* \"#utility.yul\":8302:8422   */\n      iszero\n      tag_307\n      jumpi\n        /* \"#utility.yul\":8341:8420   */\n      tag_308\n      tag_176\n      jump\t// in\n    tag_308:\n        /* \"#utility.yul\":8302:8422   */\n    tag_307:\n        /* \"#utility.yul\":8461:8462   */\n      0x00\n        /* \"#utility.yul\":8486:8539   */\n      tag_309\n        /* \"#utility.yul\":8531:8538   */\n      dup8\n        /* \"#utility.yul\":8522:8528   */\n      dup3\n        /* \"#utility.yul\":8511:8520   */\n      dup9\n        /* \"#utility.yul\":8507:8529   */\n      add\n        /* \"#utility.yul\":8486:8539   */\n      tag_190\n      jump\t// in\n    tag_309:\n        /* \"#utility.yul\":8476:8539   */\n      swap5\n      pop\n        /* \"#utility.yul\":8432:8549   */\n      pop\n        /* \"#utility.yul\":8588:8590   */\n      0x20\n        /* \"#utility.yul\":8614:8667   */\n      tag_310\n        /* \"#utility.yul\":8659:8666   */\n      dup8\n        /* \"#utility.yul\":8650:8656   */\n      dup3\n        /* \"#utility.yul\":8639:8648   */\n      dup9\n        /* \"#utility.yul\":8635:8657   */\n      add\n        /* \"#utility.yul\":8614:8667   */\n      tag_190\n      jump\t// in\n    tag_310:\n        /* \"#utility.yul\":8604:8667   */\n      swap4\n      pop\n        /* \"#utility.yul\":8559:8677   */\n      pop\n        /* \"#utility.yul\":8716:8718   */\n      0x40\n        /* \"#utility.yul\":8742:8795   */\n      tag_311\n        /* \"#utility.yul\":8787:8794   */\n      dup8\n        /* \"#utility.yul\":8778:8784   */\n      dup3\n        /* \"#utility.yul\":8767:8776   */\n      dup9\n        /* \"#utility.yul\":8763:8785   */\n      add\n        /* \"#utility.yul\":8742:8795   */\n      tag_191\n      jump\t// in\n    tag_311:\n        /* \"#utility.yul\":8732:8795   */\n      swap3\n      pop\n        /* \"#utility.yul\":8687:8805   */\n      pop\n        /* \"#utility.yul\":8872:8874   */\n      0x60\n        /* \"#utility.yul\":8861:8870   */\n      dup6\n        /* \"#utility.yul\":8857:8875   */\n      add\n        /* \"#utility.yul\":8844:8876   */\n      calldataload\n        /* \"#utility.yul\":8903:8921   */\n      0xffffffffffffffff\n        /* \"#utility.yul\":8895:8901   */\n      dup2\n        /* \"#utility.yul\":8892:8922   */\n      gt\n        /* \"#utility.yul\":8889:9006   */\n      iszero\n      tag_312\n      jumpi\n        /* \"#utility.yul\":8925:9004   */\n      tag_313\n      tag_177\n      jump\t// in\n    tag_313:\n        /* \"#utility.yul\":8889:9006   */\n    tag_312:\n        /* \"#utility.yul\":9030:9092   */\n      tag_314\n        /* \"#utility.yul\":9084:9091   */\n      dup8\n        /* \"#utility.yul\":9075:9081   */\n      dup3\n        /* \"#utility.yul\":9064:9073   */\n      dup9\n        /* \"#utility.yul\":9060:9082   */\n      add\n        /* \"#utility.yul\":9030:9092   */\n      tag_196\n      jump\t// in\n    tag_314:\n        /* \"#utility.yul\":9020:9092   */\n      swap2\n      pop\n        /* \"#utility.yul\":8815:9102   */\n      pop\n        /* \"#utility.yul\":8166:9109   */\n      swap3\n      swap6\n      swap2\n      swap5\n      pop\n      swap3\n      pop\n      jump\t// out\n        /* \"#utility.yul\":9115:9264   */\n    tag_197:\n        /* \"#utility.yul\":9151:9158   */\n      0x00\n        /* \"#utility.yul\":9191:9257   */\n      0xffffffff00000000000000000000000000000000000000000000000000000000\n        /* \"#utility.yul\":9184:9189   */\n      dup3\n        /* \"#utility.yul\":9180:9258   */\n      and\n        /* \"#utility.yul\":9169:9258   */\n      swap1\n      pop\n        /* \"#utility.yul\":9115:9264   */\n      swap2\n      swap1\n      pop\n      jump\t// out\n        /* \"#utility.yul\":9270:9385   */\n    tag_198:\n        /* \"#utility.yul\":9355:9378   */\n      tag_317\n        /* \"#utility.yul\":9372:9377   */\n      dup2\n        /* \"#utility.yul\":9355:9378   */\n      tag_197\n      jump\t// in\n    tag_317:\n        /* \"#utility.yul\":9350:9353   */\n      dup3\n        /* \"#utility.yul\":9343:9379   */\n      mstore\n        /* \"#utility.yul\":9270:9385   */\n      pop\n      pop\n      jump\t// out\n        /* \"#utility.yul\":9391:9609   */\n    tag_46:\n        /* \"#utility.yul\":9482:9486   */\n      0x00\n        /* \"#utility.yul\":9520:9522   */\n      0x20\n        /* \"#utility.yul\":9509:9518   */\n      dup3\n        /* \"#utility.yul\":9505:9523   */\n      add\n        /* \"#utility.yul\":9497:9523   */\n      swap1\n      pop\n        /* \"#utility.yul\":9533:9602   */\n      tag_319\n        /* \"#utility.yul\":9599:9600   */\n      0x00\n        /* \"#utility.yul\":9588:9597   */\n      dup4\n        /* \"#utility.yul\":9584:9601   */\n      add\n        /* \"#utility.yul\":9575:9581   */\n      dup5\n        /* \"#utility.yul\":9533:9602   */\n      tag_198\n      jump\t// in\n    tag_319:\n        /* \"#utility.yul\":9391:9609   */\n      swap3\n      swap2\n      pop\n      pop\n      jump\t// out\n        /* \"#utility.yul\":9615:9944   */\n    tag_50:\n        /* \"#utility.yul\":9674:9680   */\n      0x00\n        /* \"#utility.yul\":9723:9725   */\n      0x20\n        /* \"#utility.yul\":9711:9720   */\n      dup3\n        /* \"#utility.yul\":9702:9709   */\n      dup5\n        /* \"#utility.yul\":9698:9721   */\n      sub\n        /* \"#utility.yul\":9694:9726   */\n      slt\n        /* \"#utility.yul\":9691:9810   */\n      iszero\n      tag_321\n      jumpi\n        /* \"#utility.yul\":9729:9808   */\n      tag_322\n      tag_176\n      jump\t// in\n    tag_322:\n        /* \"#utility.yul\":9691:9810   */\n    tag_321:\n        /* \"#utility.yul\":9849:9850   */\n      0x00\n        /* \"#utility.yul\":9874:9927   */\n      tag_323\n        /* \"#utility.yul\":9919:9926   */\n      dup5\n        /* \"#utility.yul\":9910:9916   */\n      dup3\n        /* \"#utility.yul\":9899:9908   */\n      dup6\n        /* \"#utility.yul\":9895:9917   */\n      add\n        /* \"#utility.yul\":9874:9927   */\n      tag_191\n      jump\t// in\n    tag_323:\n        /* \"#utility.yul\":9864:9927   */\n      swap2\n      pop\n        /* \"#utility.yul\":9820:9937   */\n      pop\n        /* \"#utility.yul\":9615:9944   */\n      swap3\n      swap2\n      pop\n      pop\n      jump\t// out\n        /* \"#utility.yul\":9950:10068   */\n    tag_199:\n        /* \"#utility.yul\":10037:10061   */\n      tag_325\n        /* \"#utility.yul\":10055:10060   */\n      dup2\n        /* \"#utility.yul\":10037:10061   */\n      tag_169\n      jump\t// in\n    tag_325:\n        /* \"#utility.yul\":10032:10035   */\n      dup3\n        /* \"#utility.yul\":10025:10062   */\n      mstore\n        /* \"#utility.yul\":9950:10068   */\n      pop\n      pop\n      jump\t// out\n        /* \"#utility.yul\":10074:10296   */\n    tag_77:\n        /* \"#utility.yul\":10167:10171   */\n      0x00\n        /* \"#utility.yul\":10205:10207   */\n      0x20\n        /* \"#utility.yul\":10194:10203   */\n      dup3\n        /* \"#utility.yul\":10190:10208   */\n      add\n        /* \"#utility.yul\":10182:10208   */\n      swap1\n      pop\n        /* \"#utility.yul\":10218:10289   */\n      tag_327\n        /* \"#utility.yul\":10286:10287   */\n      0x00\n        /* \"#utility.yul\":10275:10284   */\n      dup4\n        /* \"#utility.yul\":10271:10288   */\n      add\n        /* \"#utility.yul\":10262:10268   */\n      dup5\n        /* \"#utility.yul\":10218:10289   */\n      tag_199\n      jump\t// in\n    tag_327:\n        /* \"#utility.yul\":10074:10296   */\n      swap3\n      swap2\n      pop\n      pop\n      jump\t// out\n        /* \"#utility.yul\":10302:10631   */\n    tag_81:\n        /* \"#utility.yul\":10361:10367   */\n      0x00\n        /* \"#utility.yul\":10410:10412   */\n      0x20\n        /* \"#utility.yul\":10398:10407   */\n      dup3\n        /* \"#utility.yul\":10389:10396   */\n      dup5\n        /* \"#utility.yul\":10385:10408   */\n      sub\n        /* \"#utility.yul\":10381:10413   */\n      slt\n        /* \"#utility.yul\":10378:10497   */\n      iszero\n      tag_329\n      jumpi\n        /* \"#utility.yul\":10416:10495   */\n      tag_330\n      tag_176\n      jump\t// in\n    tag_330:\n        /* \"#utility.yul\":10378:10497   */\n    tag_329:\n        /* \"#utility.yul\":10536:10537   */\n      0x00\n        /* \"#utility.yul\":10561:10614   */\n      tag_331\n        /* \"#utility.yul\":10606:10613   */\n      dup5\n        /* \"#utility.yul\":10597:10603   */\n      dup3\n        /* \"#utility.yul\":10586:10595   */\n      dup6\n        /* \"#utility.yul\":10582:10604   */\n      add\n        /* \"#utility.yul\":10561:10614   */\n      tag_190\n      jump\t// in\n    tag_331:\n        /* \"#utility.yul\":10551:10614   */\n      swap2\n      pop\n        /* \"#utility.yul\":10507:10624   */\n      pop\n        /* \"#utility.yul\":10302:10631   */\n      swap3\n      swap2\n      pop\n      pop\n      jump\t// out\n        /* \"#utility.yul\":10637:10818   */\n    tag_200:\n        /* \"#utility.yul\":10777:10810   */\n      0x5265656e7472616e637947756172643a207265656e7472616e742063616c6c00\n        /* \"#utility.yul\":10773:10774   */\n      0x00\n        /* \"#utility.yul\":10765:10771   */\n      dup3\n        /* \"#utility.yul\":10761:10775   */\n      add\n        /* \"#utility.yul\":10754:10811   */\n      mstore\n        /* \"#utility.yul\":10637:10818   */\n      pop\n      jump\t// out\n        /* \"#utility.yul\":10824:11190   */\n    tag_201:\n        /* \"#utility.yul\":10966:10969   */\n      0x00\n        /* \"#utility.yul\":10987:11054   */\n      tag_334\n        /* \"#utility.yul\":11051:11053   */\n      0x1f\n        /* \"#utility.yul\":11046:11049   */\n      dup4\n        /* \"#utility.yul\":10987:11054   */\n      tag_166\n      jump\t// in\n    tag_334:\n        /* \"#utility.yul\":10980:11054   */\n      swap2\n      pop\n        /* \"#utility.yul\":11063:11156   */\n      tag_335\n        /* \"#utility.yul\":11152:11155   */\n      dup3\n        /* \"#utility.yul\":11063:11156   */\n      tag_200\n      jump\t// in\n    tag_335:\n        /* \"#utility.yul\":11181:11183   */\n      0x20\n        /* \"#utility.yul\":11176:11179   */\n      dup3\n        /* \"#utility.yul\":11172:11184   */\n      add\n        /* \"#utility.yul\":11165:11184   */\n      swap1\n      pop\n        /* \"#utility.yul\":10824:11190   */\n      swap2\n      swap1\n      pop\n      jump\t// out\n        /* \"#utility.yul\":11196:11615   */\n    tag_97:\n        /* \"#utility.yul\":11362:11366   */\n      0x00\n        /* \"#utility.yul\":11400:11402   */\n      0x20\n        /* \"#utility.yul\":11389:11398   */\n      dup3\n        /* \"#utility.yul\":11385:11403   */\n      add\n        /* \"#utility.yul\":11377:11403   */\n      swap1\n      pop\n        /* \"#utility.yul\":11449:11458   */\n      dup2\n        /* \"#utility.yul\":11443:11447   */\n      dup2\n        /* \"#utility.yul\":11439:11459   */\n      sub\n        /* \"#utility.yul\":11435:11436   */\n      0x00\n        /* \"#utility.yul\":11424:11433   */\n      dup4\n        /* \"#utility.yul\":11420:11437   */\n      add\n        /* \"#utility.yul\":11413:11460   */\n      mstore\n        /* \"#utility.yul\":11477:11608   */\n      tag_337\n        /* \"#utility.yul\":11603:11607   */\n      dup2\n        /* \"#utility.yul\":11477:11608   */\n      tag_201\n      jump\t// in\n    tag_337:\n        /* \"#utility.yul\":11469:11608   */\n      swap1\n      pop\n        /* \"#utility.yul\":11196:11615   */\n      swap2\n      swap1\n      pop\n      jump\t// out\n        /* \"#utility.yul\":11621:11793   */\n    tag_202:\n        /* \"#utility.yul\":11761:11785   */\n      0x596f7520617265206e6f7420746865206f776e65722e00000000000000000000\n        /* \"#utility.yul\":11757:11758   */\n      0x00\n        /* \"#utility.yul\":11749:11755   */\n      dup3\n        /* \"#utility.yul\":11745:11759   */\n      add\n        /* \"#utility.yul\":11738:11786   */\n      mstore\n        /* \"#utility.yul\":11621:11793   */\n      pop\n      jump\t// out\n        /* \"#utility.yul\":11799:12165   */\n    tag_203:\n        /* \"#utility.yul\":11941:11944   */\n      0x00\n        /* \"#utility.yul\":11962:12029   */\n      tag_340\n        /* \"#utility.yul\":12026:12028   */\n      0x16\n        /* \"#utility.yul\":12021:12024   */\n      dup4\n        /* \"#utility.yul\":11962:12029   */\n      tag_166\n      jump\t// in\n    tag_340:\n        /* \"#utility.yul\":11955:12029   */\n      swap2\n      pop\n        /* \"#utility.yul\":12038:12131   */\n      tag_341\n        /* \"#utility.yul\":12127:12130   */\n      dup3\n        /* \"#utility.yul\":12038:12131   */\n      tag_202\n      jump\t// in\n    tag_341:\n        /* \"#utility.yul\":12156:12158   */\n      0x20\n        /* \"#utility.yul\":12151:12154   */\n      dup3\n        /* \"#utility.yul\":12147:12159   */\n      add\n        /* \"#utility.yul\":12140:12159   */\n      swap1\n      pop\n        /* \"#utility.yul\":11799:12165   */\n      swap2\n      swap1\n      pop\n      jump\t// out\n        /* \"#utility.yul\":12171:12590   */\n    tag_101:\n        /* \"#utility.yul\":12337:12341   */\n      0x00\n        /* \"#utility.yul\":12375:12377   */\n      0x20\n        /* \"#utility.yul\":12364:12373   */\n      dup3\n        /* \"#utility.yul\":12360:12378   */\n      add\n        /* \"#utility.yul\":12352:12378   */\n      swap1\n      pop\n        /* \"#utility.yul\":12424:12433   */\n      dup2\n        /* \"#utility.yul\":12418:12422   */\n      dup2\n        /* \"#utility.yul\":12414:12434   */\n      sub\n        /* \"#utility.yul\":12410:12411   */\n      0x00\n        /* \"#utility.yul\":12399:12408   */\n      dup4\n        /* \"#utility.yul\":12395:12412   */\n      add\n        /* \"#utility.yul\":12388:12435   */\n      mstore\n        /* \"#utility.yul\":12452:12583   */\n      tag_343\n        /* \"#utility.yul\":12578:12582   */\n      dup2\n        /* \"#utility.yul\":12452:12583   */\n      tag_203\n      jump\t// in\n    tag_343:\n        /* \"#utility.yul\":12444:12583   */\n      swap1\n      pop\n        /* \"#utility.yul\":12171:12590   */\n      swap2\n      swap1\n      pop\n      jump\t// out\n        /* \"#utility.yul\":12596:12743   */\n    tag_204:\n        /* \"#utility.yul\":12697:12708   */\n      0x00\n        /* \"#utility.yul\":12734:12737   */\n      dup2\n        /* \"#utility.yul\":12719:12737   */\n      swap1\n      pop\n        /* \"#utility.yul\":12596:12743   */\n      swap3\n      swap2\n      pop\n      pop\n      jump\t// out\n        /* \"#utility.yul\":12749:12863   */\n    tag_205:\n      pop\n      jump\t// out\n        /* \"#utility.yul\":12869:13267   */\n    tag_206:\n        /* \"#utility.yul\":13028:13031   */\n      0x00\n        /* \"#utility.yul\":13049:13132   */\n      tag_347\n        /* \"#utility.yul\":13130:13131   */\n      0x00\n        /* \"#utility.yul\":13125:13128   */\n      dup4\n        /* \"#utility.yul\":13049:13132   */\n      tag_204\n      jump\t// in\n    tag_347:\n        /* \"#utility.yul\":13042:13132   */\n      swap2\n      pop\n        /* \"#utility.yul\":13141:13234   */\n      tag_348\n        /* \"#utility.yul\":13230:13233   */\n      dup3\n        /* \"#utility.yul\":13141:13234   */\n      tag_205\n      jump\t// in\n    tag_348:\n        /* \"#utility.yul\":13259:13260   */\n      0x00\n        /* \"#utility.yul\":13254:13257   */\n      dup3\n        /* \"#utility.yul\":13250:13261   */\n      add\n        /* \"#utility.yul\":13243:13261   */\n      swap1\n      pop\n        /* \"#utility.yul\":12869:13267   */\n      swap2\n      swap1\n      pop\n      jump\t// out\n        /* \"#utility.yul\":13273:13652   */\n    tag_105:\n        /* \"#utility.yul\":13457:13460   */\n      0x00\n        /* \"#utility.yul\":13479:13626   */\n      tag_350\n        /* \"#utility.yul\":13622:13625   */\n      dup3\n        /* \"#utility.yul\":13479:13626   */\n      tag_206\n      jump\t// in\n    tag_350:\n        /* \"#utility.yul\":13472:13626   */\n      swap2\n      pop\n        /* \"#utility.yul\":13643:13646   */\n      dup2\n        /* \"#utility.yul\":13636:13646   */\n      swap1\n      pop\n        /* \"#utility.yul\":13273:13652   */\n      swap2\n      swap1\n      pop\n      jump\t// out\n        /* \"#utility.yul\":13658:14100   */\n    tag_111:\n        /* \"#utility.yul\":13807:13811   */\n      0x00\n        /* \"#utility.yul\":13845:13847   */\n      0x60\n        /* \"#utility.yul\":13834:13843   */\n      dup3\n        /* \"#utility.yul\":13830:13848   */\n      add\n        /* \"#utility.yul\":13822:13848   */\n      swap1\n      pop\n        /* \"#utility.yul\":13858:13929   */\n      tag_352\n        /* \"#utility.yul\":13926:13927   */\n      0x00\n        /* \"#utility.yul\":13915:13924   */\n      dup4\n        /* \"#utility.yul\":13911:13928   */\n      add\n        /* \"#utility.yul\":13902:13908   */\n      dup7\n        /* \"#utility.yul\":13858:13929   */\n      tag_174\n      jump\t// in\n    tag_352:\n        /* \"#utility.yul\":13939:14011   */\n      tag_353\n        /* \"#utility.yul\":14007:14009   */\n      0x20\n        /* \"#utility.yul\":13996:14005   */\n      dup4\n        /* \"#utility.yul\":13992:14010   */\n      add\n        /* \"#utility.yul\":13983:13989   */\n      dup6\n        /* \"#utility.yul\":13939:14011   */\n      tag_174\n      jump\t// in\n    tag_353:\n        /* \"#utility.yul\":14021:14093   */\n      tag_354\n        /* \"#utility.yul\":14089:14091   */\n      0x40\n        /* \"#utility.yul\":14078:14087   */\n      dup4\n        /* \"#utility.yul\":14074:14092   */\n      add\n        /* \"#utility.yul\":14065:14071   */\n      dup5\n        /* \"#utility.yul\":14021:14093   */\n      tag_199\n      jump\t// in\n    tag_354:\n        /* \"#utility.yul\":13658:14100   */\n      swap5\n      swap4\n      pop\n      pop\n      pop\n      pop\n      jump\t// out\n        /* \"#utility.yul\":14106:14331   */\n    tag_207:\n        /* \"#utility.yul\":14246:14280   */\n      0x4f776e61626c653a206e6577206f776e657220697320746865207a65726f2061\n        /* \"#utility.yul\":14242:14243   */\n      0x00\n        /* \"#utility.yul\":14234:14240   */\n      dup3\n        /* \"#utility.yul\":14230:14244   */\n      add\n        /* \"#utility.yul\":14223:14281   */\n      mstore\n        /* \"#utility.yul\":14315:14323   */\n      0x6464726573730000000000000000000000000000000000000000000000000000\n        /* \"#utility.yul\":14310:14312   */\n      0x20\n        /* \"#utility.yul\":14302:14308   */\n      dup3\n        /* \"#utility.yul\":14298:14313   */\n      add\n        /* \"#utility.yul\":14291:14324   */\n      mstore\n        /* \"#utility.yul\":14106:14331   */\n      pop\n      jump\t// out\n        /* \"#utility.yul\":14337:14703   */\n    tag_208:\n        /* \"#utility.yul\":14479:14482   */\n      0x00\n        /* \"#utility.yul\":14500:14567   */\n      tag_357\n        /* \"#utility.yul\":14564:14566   */\n      0x26\n        /* \"#utility.yul\":14559:14562   */\n      dup4\n        /* \"#utility.yul\":14500:14567   */\n      tag_166\n      jump\t// in\n    tag_357:\n        /* \"#utility.yul\":14493:14567   */\n      swap2\n      pop\n        /* \"#utility.yul\":14576:14669   */\n      tag_358\n        /* \"#utility.yul\":14665:14668   */\n      dup3\n        /* \"#utility.yul\":14576:14669   */\n      tag_207\n      jump\t// in\n    tag_358:\n        /* \"#utility.yul\":14694:14696   */\n      0x40\n        /* \"#utility.yul\":14689:14692   */\n      dup3\n        /* \"#utility.yul\":14685:14697   */\n      add\n        /* \"#utility.yul\":14678:14697   */\n      swap1\n      pop\n        /* \"#utility.yul\":14337:14703   */\n      swap2\n      swap1\n      pop\n      jump\t// out\n        /* \"#utility.yul\":14709:15128   */\n    tag_147:\n        /* \"#utility.yul\":14875:14879   */\n      0x00\n        /* \"#utility.yul\":14913:14915   */\n      0x20\n        /* \"#utility.yul\":14902:14911   */\n      dup3\n        /* \"#utility.yul\":14898:14916   */\n      add\n        /* \"#utility.yul\":14890:14916   */\n      swap1\n      pop\n        /* \"#utility.yul\":14962:14971   */\n      dup2\n        /* \"#utility.yul\":14956:14960   */\n      dup2\n        /* \"#utility.yul\":14952:14972   */\n      sub\n        /* \"#utility.yul\":14948:14949   */\n      0x00\n        /* \"#utility.yul\":14937:14946   */\n      dup4\n        /* \"#utility.yul\":14933:14950   */\n      add\n        /* \"#utility.yul\":14926:14973   */\n      mstore\n        /* \"#utility.yul\":14990:15121   */\n      tag_360\n        /* \"#utility.yul\":15116:15120   */\n      dup2\n        /* \"#utility.yul\":14990:15121   */\n      tag_208\n      jump\t// in\n    tag_360:\n        /* \"#utility.yul\":14982:15121   */\n      swap1\n      pop\n        /* \"#utility.yul\":14709:15128   */\n      swap2\n      swap1\n      pop\n      jump\t// out\n        /* \"#utility.yul\":15134:15311   */\n    tag_209:\n        /* \"#utility.yul\":15274:15303   */\n      0x436f756e7465723a2064656372656d656e74206f766572666c6f770000000000\n        /* \"#utility.yul\":15270:15271   */\n      0x00\n        /* \"#utility.yul\":15262:15268   */\n      dup3\n        /* \"#utility.yul\":15258:15272   */\n      add\n        /* \"#utility.yul\":15251:15304   */\n      mstore\n        /* \"#utility.yul\":15134:15311   */\n      pop\n      jump\t// out\n        /* \"#utility.yul\":15317:15683   */\n    tag_210:\n        /* \"#utility.yul\":15459:15462   */\n      0x00\n        /* \"#utility.yul\":15480:15547   */\n      tag_363\n        /* \"#utility.yul\":15544:15546   */\n      0x1b\n        /* \"#utility.yul\":15539:15542   */\n      dup4\n        /* \"#utility.yul\":15480:15547   */\n      tag_166\n      jump\t// in\n    tag_363:\n        /* \"#utility.yul\":15473:15547   */\n      swap2\n      pop\n        /* \"#utility.yul\":15556:15649   */\n      tag_364\n        /* \"#utility.yul\":15645:15648   */\n      dup3\n        /* \"#utility.yul\":15556:15649   */\n      tag_209\n      jump\t// in\n    tag_364:\n        /* \"#utility.yul\":15674:15676   */\n      0x20\n        /* \"#utility.yul\":15669:15672   */\n      dup3\n        /* \"#utility.yul\":15665:15677   */\n      add\n        /* \"#utility.yul\":15658:15677   */\n      swap1\n      pop\n        /* \"#utility.yul\":15317:15683   */\n      swap2\n      swap1\n      pop\n      jump\t// out\n        /* \"#utility.yul\":15689:16108   */\n    tag_155:\n        /* \"#utility.yul\":15855:15859   */\n      0x00\n        /* \"#utility.yul\":15893:15895   */\n      0x20\n        /* \"#utility.yul\":15882:15891   */\n      dup3\n        /* \"#utility.yul\":15878:15896   */\n      add\n        /* \"#utility.yul\":15870:15896   */\n      swap1\n      pop\n        /* \"#utility.yul\":15942:15951   */\n      dup2\n        /* \"#utility.yul\":15936:15940   */\n      dup2\n        /* \"#utility.yul\":15932:15952   */\n      sub\n        /* \"#utility.yul\":15928:15929   */\n      0x00\n        /* \"#utility.yul\":15917:15926   */\n      dup4\n        /* \"#utility.yul\":15913:15930   */\n      add\n        /* \"#utility.yul\":15906:15953   */\n      mstore\n        /* \"#utility.yul\":15970:16101   */\n      tag_366\n        /* \"#utility.yul\":16096:16100   */\n      dup2\n        /* \"#utility.yul\":15970:16101   */\n      tag_210\n      jump\t// in\n    tag_366:\n        /* \"#utility.yul\":15962:16101   */\n      swap1\n      pop\n        /* \"#utility.yul\":15689:16108   */\n      swap2\n      swap1\n      pop\n      jump\t// out\n        /* \"#utility.yul\":16114:16296   */\n    tag_211:\n        /* \"#utility.yul\":16254:16288   */\n      0x4f776e61626c653a2063616c6c6572206973206e6f7420746865206f776e6572\n        /* \"#utility.yul\":16250:16251   */\n      0x00\n        /* \"#utility.yul\":16242:16248   */\n      dup3\n        /* \"#utility.yul\":16238:16252   */\n      add\n        /* \"#utility.yul\":16231:16289   */\n      mstore\n        /* \"#utility.yul\":16114:16296   */\n      pop\n      jump\t// out\n        /* \"#utility.yul\":16302:16668   */\n    tag_212:\n        /* \"#utility.yul\":16444:16447   */\n      0x00\n        /* \"#utility.yul\":16465:16532   */\n      tag_369\n        /* \"#utility.yul\":16529:16531   */\n      0x20\n        /* \"#utility.yul\":16524:16527   */\n      dup4\n        /* \"#utility.yul\":16465:16532   */\n      tag_166\n      jump\t// in\n    tag_369:\n        /* \"#utility.yul\":16458:16532   */\n      swap2\n      pop\n        /* \"#utility.yul\":16541:16634   */\n      tag_370\n        /* \"#utility.yul\":16630:16633   */\n      dup3\n        /* \"#utility.yul\":16541:16634   */\n      tag_211\n      jump\t// in\n    tag_370:\n        /* \"#utility.yul\":16659:16661   */\n      0x20\n        /* \"#utility.yul\":16654:16657   */\n      dup3\n        /* \"#utility.yul\":16650:16662   */\n      add\n        /* \"#utility.yul\":16643:16662   */\n      swap1\n      pop\n        /* \"#utility.yul\":16302:16668   */\n      swap2\n      swap1\n      pop\n      jump\t// out\n        /* \"#utility.yul\":16674:17093   */\n    tag_162:\n        /* \"#utility.yul\":16840:16844   */\n      0x00\n        /* \"#utility.yul\":16878:16880   */\n      0x20\n        /* \"#utility.yul\":16867:16876   */\n      dup3\n        /* \"#utility.yul\":16863:16881   */\n      add\n        /* \"#utility.yul\":16855:16881   */\n      swap1\n      pop\n        /* \"#utility.yul\":16927:16936   */\n      dup2\n        /* \"#utility.yul\":16921:16925   */\n      dup2\n        /* \"#utility.yul\":16917:16937   */\n      sub\n        /* \"#utility.yul\":16913:16914   */\n      0x00\n        /* \"#utility.yul\":16902:16911   */\n      dup4\n        /* \"#utility.yul\":16898:16915   */\n      add\n        /* \"#utility.yul\":16891:16938   */\n      mstore\n        /* \"#utility.yul\":16955:17086   */\n      tag_372\n        /* \"#utility.yul\":17081:17085   */\n      dup2\n        /* \"#utility.yul\":16955:17086   */\n      tag_212\n      jump\t// in\n    tag_372:\n        /* \"#utility.yul\":16947:17086   */\n      swap1\n      pop\n        /* \"#utility.yul\":16674:17093   */\n      swap2\n      swap1\n      pop\n      jump\t// out\n\n    auxdata: 0xa2646970667358221220f782c976aff4b1241a8eb5dde63152623f5232f5a577d674ce27c912897bc1b564736f6c63430008110033\n}\n",
				"bytecode": {
					"linkReferences": {},
					"object": "60806040523480156200001157600080fd5b506040516200180b3803806200180b8339818101604052810190620000379190620001dc565b620000576200004b620000a660201b60201c565b620000ae60201b60201c565b6001808190555080600260006101000a81548173ffffffffffffffffffffffffffffffffffffffff021916908373ffffffffffffffffffffffffffffffffffffffff160217905550506200020e565b600033905090565b60008060009054906101000a900473ffffffffffffffffffffffffffffffffffffffff169050816000806101000a81548173ffffffffffffffffffffffffffffffffffffffff021916908373ffffffffffffffffffffffffffffffffffffffff1602179055508173ffffffffffffffffffffffffffffffffffffffff168173ffffffffffffffffffffffffffffffffffffffff167f8be0079c531659141344cd1fd0a4f28419497f9722a3daafe3b4186f6b6457e060405160405180910390a35050565b600080fd5b600073ffffffffffffffffffffffffffffffffffffffff82169050919050565b6000620001a48262000177565b9050919050565b620001b68162000197565b8114620001c257600080fd5b50565b600081519050620001d681620001ab565b92915050565b600060208284031215620001f557620001f462000172565b5b60006200020584828501620001c5565b91505092915050565b6115ed806200021e6000396000f3fe6080604052600436106100a05760003560e01c80638da5cb5b116100645780638da5cb5b146102f8578063a694fc3a14610323578063d3ea43501461034c578063f2fde38b14610389578063f301af42146103b2578063fd71c650146103ef57610210565b8063150b7a02146102155780632e17de7814610252578063379607f51461027b578063715018a6146102a45780638488cc41146102bb57610210565b366102105760006100b16003610418565b036100f1576040517f08c379a00000000000000000000000000000000000000000000000000000000081526004016100e890610d4b565b60405180910390fd5b60006100fd6003610418565b346101089190610dd3565b90506000600260009054906101000a900473ffffffffffffffffffffffffffffffffffffffff1673ffffffffffffffffffffffffffffffffffffffff1663438b6300306040518263ffffffff1660e01b81526004016101679190610e45565b600060405180830381865afa158015610184573d6000803e3d6000fd5b505050506040513d6000823e3d601f19601f820116820180604052508101906101ad9190610ff9565b905060005b815181101561020e578260056000600684815481106101d4576101d3611042565b5b9060005260206000200154815260200190815260200160002060008282546101fc9190611071565b925050819055508060010190506101b2565b005b600080fd5b34801561022157600080fd5b5061023c6004803603810190610237919061119b565b610426565b6040516102499190611259565b60405180910390f35b34801561025e57600080fd5b5061027960048036038101906102749190611274565b61043a565b005b34801561028757600080fd5b506102a2600480360381019061029d9190611274565b6106d7565b005b3480156102b057600080fd5b506102b96108a5565b005b3480156102c757600080fd5b506102e260048036038101906102dd9190611274565b6108b9565b6040516102ef9190610e45565b60405180910390f35b34801561030457600080fd5b5061030d6108ec565b60405161031a9190610e45565b60405180910390f35b34801561032f57600080fd5b5061034a60048036038101906103459190611274565b610915565b005b34801561035857600080fd5b50610373600480360381019061036e9190611274565b610a2e565b60405161038091906112b0565b60405180910390f35b34801561039557600080fd5b506103b060048036038101906103ab91906112cb565b610a4b565b005b3480156103be57600080fd5b506103d960048036038101906103d49190611274565b610ace565b6040516103e691906112b0565b60405180910390f35b3480156103fb57600080fd5b50610416600480360381019061041191906112cb565b610ae6565b005b600081600001549050919050565b600063150b7a0260e01b9050949350505050565b60026001540361047f576040517f08c379a000000000000000000000000000000000000000000000000000000000815260040161047690611344565b60405180910390fd5b60026001819055503373ffffffffffffffffffffffffffffffffffffffff166004600083815260200190815260200160002060009054906101000a900473ffffffffffffffffffffffffffffffffffffffff1673ffffffffffffffffffffffffffffffffffffffff1614610528576040517f08c379a000000000000000000000000000000000000000000000000000000000815260040161051f906113b0565b60405180910390fd5b6004600082815260200190815260200160002060006101000a81549073ffffffffffffffffffffffffffffffffffffffff02191690556105686003610b32565b60006004600083815260200190815260200160002060009054906101000a900473ffffffffffffffffffffffffffffffffffffffff1673ffffffffffffffffffffffffffffffffffffffff1660056000848152602001908152602001600020546040516105d490611401565b60006040518083038185875af1925050503d8060008114610611576040519150601f19603f3d011682016040523d82523d6000602084013e610616565b606091505b505090508061062457600080fd5b6005600083815260200190815260200160002060009055600260009054906101000a900473ffffffffffffffffffffffffffffffffffffffff1673ffffffffffffffffffffffffffffffffffffffff166342842e0e3033856040518463ffffffff1660e01b815260040161069a93929190611416565b600060405180830381600087803b1580156106b457600080fd5b505af11580156106c8573d6000803e3d6000fd5b50505050506001808190555050565b60026001540361071c576040517f08c379a000000000000000000000000000000000000000000000000000000000815260040161071390611344565b60405180910390fd5b60026001819055503373ffffffffffffffffffffffffffffffffffffffff166004600083815260200190815260200160002060009054906101000a900473ffffffffffffffffffffffffffffffffffffffff1673ffffffffffffffffffffffffffffffffffffffff16146107c5576040517f08c379a00000000000000000000000000000000000000000000000000000000081526004016107bc906113b0565b60405180910390fd5b60006004600083815260200190815260200160002060009054906101000a900473ffffffffffffffffffffffffffffffffffffffff1673ffffffffffffffffffffffffffffffffffffffff16600560008481526020019081526020016000205460405161083190611401565b60006040518083038185875af1925050503d806000811461086e576040519150601f19603f3d011682016040523d82523d6000602084013e610873565b606091505b505090508061088157600080fd5b60006005600084815260200190815260200160002081905550506001808190555050565b6108ad610b8e565b6108b76000610c0c565b565b60046020528060005260406000206000915054906101000a900473ffffffffffffffffffffffffffffffffffffffff1681565b60008060009054906101000a900473ffffffffffffffffffffffffffffffffffffffff16905090565b600260009054906101000a900473ffffffffffffffffffffffffffffffffffffffff1673ffffffffffffffffffffffffffffffffffffffff166342842e0e3330846040518463ffffffff1660e01b815260040161097493929190611416565b600060405180830381600087803b15801561098e57600080fd5b505af11580156109a2573d6000803e3d6000fd5b50505050336004600083815260200190815260200160002060006101000a81548173ffffffffffffffffffffffffffffffffffffffff021916908373ffffffffffffffffffffffffffffffffffffffff1602179055506006819080600181540180825580915050600190039060005260206000200160009091909190915055610a2b6003610cd0565b50565b600060056000838152602001908152602001600020549050919050565b610a53610b8e565b600073ffffffffffffffffffffffffffffffffffffffff168173ffffffffffffffffffffffffffffffffffffffff1603610ac2576040517f08c379a0000000000000000000000000000000000000000000000000000000008152600401610ab9906114bf565b60405180910390fd5b610acb81610c0c565b50565b60056020528060005260406000206000915090505481565b610aee610b8e565b80600260006101000a81548173ffffffffffffffffffffffffffffffffffffffff021916908373ffffffffffffffffffffffffffffffffffffffff16021790555050565b60008160000154905060008111610b7e576040517f08c379a0000000000000000000000000000000000000000000000000000000008152600401610b759061152b565b60405180910390fd5b6001810382600001819055505050565b610b96610ce6565b73ffffffffffffffffffffffffffffffffffffffff16610bb46108ec565b73ffffffffffffffffffffffffffffffffffffffff1614610c0a576040517f08c379a0000000000000000000000000000000000000000000000000000000008152600401610c0190611597565b60405180910390fd5b565b60008060009054906101000a900473ffffffffffffffffffffffffffffffffffffffff169050816000806101000a81548173ffffffffffffffffffffffffffffffffffffffff021916908373ffffffffffffffffffffffffffffffffffffffff1602179055508173ffffffffffffffffffffffffffffffffffffffff168173ffffffffffffffffffffffffffffffffffffffff167f8be0079c531659141344cd1fd0a4f28419497f9722a3daafe3b4186f6b6457e060405160405180910390a35050565b6001816000016000828254019250508190555050565b600033905090565b600082825260208201905092915050565b7f4e6f204e46547320617265207374616b65640000000000000000000000000000600082015250565b6000610d35601283610cee565b9150610d4082610cff565b602082019050919050565b60006020820190508181036000830152610d6481610d28565b9050919050565b6000819050919050565b7f4e487b7100000000000000000000000000000000000000000000000000000000600052601260045260246000fd5b7f4e487b7100000000000000000000000000000000000000000000000000000000600052601160045260246000fd5b6000610dde82610d6b565b9150610de983610d6b565b925082610df957610df8610d75565b5b828204905092915050565b600073ffffffffffffffffffffffffffffffffffffffff82169050919050565b6000610e2f82610e04565b9050919050565b610e3f81610e24565b82525050565b6000602082019050610e5a6000830184610e36565b92915050565b6000604051905090565b600080fd5b600080fd5b600080fd5b6000601f19601f8301169050919050565b7f4e487b7100000000000000000000000000000000000000000000000000000000600052604160045260246000fd5b610ec282610e79565b810181811067ffffffffffffffff82111715610ee157610ee0610e8a565b5b80604052505050565b6000610ef4610e60565b9050610f008282610eb9565b919050565b600067ffffffffffffffff821115610f2057610f1f610e8a565b5b602082029050602081019050919050565b600080fd5b610f3f81610d6b565b8114610f4a57600080fd5b50565b600081519050610f5c81610f36565b92915050565b6000610f75610f7084610f05565b610eea565b90508083825260208201905060208402830185811115610f9857610f97610f31565b5b835b81811015610fc15780610fad8882610f4d565b845260208401935050602081019050610f9a565b5050509392505050565b600082601f830112610fe057610fdf610e74565b5b8151610ff0848260208601610f62565b91505092915050565b60006020828403121561100f5761100e610e6a565b5b600082015167ffffffffffffffff81111561102d5761102c610e6f565b5b61103984828501610fcb565b91505092915050565b7f4e487b7100000000000000000000000000000000000000000000000000000000600052603260045260246000fd5b600061107c82610d6b565b915061108783610d6b565b925082820190508082111561109f5761109e610da4565b5b92915050565b6110ae81610e24565b81146110b957600080fd5b50565b6000813590506110cb816110a5565b92915050565b6000813590506110e081610f36565b92915050565b600080fd5b600067ffffffffffffffff82111561110657611105610e8a565b5b61110f82610e79565b9050602081019050919050565b82818337600083830152505050565b600061113e611139846110eb565b610eea565b90508281526020810184848401111561115a576111596110e6565b5b61116584828561111c565b509392505050565b600082601f83011261118257611181610e74565b5b813561119284826020860161112b565b91505092915050565b600080600080608085870312156111b5576111b4610e6a565b5b60006111c3878288016110bc565b94505060206111d4878288016110bc565b93505060406111e5878288016110d1565b925050606085013567ffffffffffffffff81111561120657611205610e6f565b5b6112128782880161116d565b91505092959194509250565b60007fffffffff0000000000000000000000000000000000000000000000000000000082169050919050565b6112538161121e565b82525050565b600060208201905061126e600083018461124a565b92915050565b60006020828403121561128a57611289610e6a565b5b6000611298848285016110d1565b91505092915050565b6112aa81610d6b565b82525050565b60006020820190506112c560008301846112a1565b92915050565b6000602082840312156112e1576112e0610e6a565b5b60006112ef848285016110bc565b91505092915050565b7f5265656e7472616e637947756172643a207265656e7472616e742063616c6c00600082015250565b600061132e601f83610cee565b9150611339826112f8565b602082019050919050565b6000602082019050818103600083015261135d81611321565b9050919050565b7f596f7520617265206e6f7420746865206f776e65722e00000000000000000000600082015250565b600061139a601683610cee565b91506113a582611364565b602082019050919050565b600060208201905081810360008301526113c98161138d565b9050919050565b600081905092915050565b50565b60006113eb6000836113d0565b91506113f6826113db565b600082019050919050565b600061140c826113de565b9150819050919050565b600060608201905061142b6000830186610e36565b6114386020830185610e36565b61144560408301846112a1565b949350505050565b7f4f776e61626c653a206e6577206f776e657220697320746865207a65726f206160008201527f6464726573730000000000000000000000000000000000000000000000000000602082015250565b60006114a9602683610cee565b91506114b48261144d565b604082019050919050565b600060208201905081810360008301526114d88161149c565b9050919050565b7f436f756e7465723a2064656372656d656e74206f766572666c6f770000000000600082015250565b6000611515601b83610cee565b9150611520826114df565b602082019050919050565b6000602082019050818103600083015261154481611508565b9050919050565b7f4f776e61626c653a2063616c6c6572206973206e6f7420746865206f776e6572600082015250565b6000611581602083610cee565b915061158c8261154b565b602082019050919050565b600060208201905081810360008301526115b081611574565b905091905056fea2646970667358221220f782c976aff4b1241a8eb5dde63152623f5232f5a577d674ce27c912897bc1b564736f6c63430008110033",
					"opcodes": "PUSH1 0x80 PUSH1 0x40 MSTORE CALLVALUE DUP1 ISZERO PUSH3 0x11 JUMPI PUSH1 0x0 DUP1 REVERT JUMPDEST POP PUSH1 0x40 MLOAD PUSH3 0x180B CODESIZE SUB DUP1 PUSH3 0x180B DUP4 CODECOPY DUP2 DUP2 ADD PUSH1 0x40 MSTORE DUP2 ADD SWAP1 PUSH3 0x37 SWAP2 SWAP1 PUSH3 0x1DC JUMP JUMPDEST PUSH3 0x57 PUSH3 0x4B PUSH3 0xA6 PUSH1 0x20 SHL PUSH1 0x20 SHR JUMP JUMPDEST PUSH3 0xAE PUSH1 0x20 SHL PUSH1 0x20 SHR JUMP JUMPDEST PUSH1 0x1 DUP1 DUP2 SWAP1 SSTORE POP DUP1 PUSH1 0x2 PUSH1 0x0 PUSH2 0x100 EXP DUP2 SLOAD DUP2 PUSH20 0xFFFFFFFFFFFFFFFFFFFFFFFFFFFFFFFFFFFFFFFF MUL NOT AND SWAP1 DUP4 PUSH20 0xFFFFFFFFFFFFFFFFFFFFFFFFFFFFFFFFFFFFFFFF AND MUL OR SWAP1 SSTORE POP POP PUSH3 0x20E JUMP JUMPDEST PUSH1 0x0 CALLER SWAP1 POP SWAP1 JUMP JUMPDEST PUSH1 0x0 DUP1 PUSH1 0x0 SWAP1 SLOAD SWAP1 PUSH2 0x100 EXP SWAP1 DIV PUSH20 0xFFFFFFFFFFFFFFFFFFFFFFFFFFFFFFFFFFFFFFFF AND SWAP1 POP DUP2 PUSH1 0x0 DUP1 PUSH2 0x100 EXP DUP2 SLOAD DUP2 PUSH20 0xFFFFFFFFFFFFFFFFFFFFFFFFFFFFFFFFFFFFFFFF MUL NOT AND SWAP1 DUP4 PUSH20 0xFFFFFFFFFFFFFFFFFFFFFFFFFFFFFFFFFFFFFFFF AND MUL OR SWAP1 SSTORE POP DUP2 PUSH20 0xFFFFFFFFFFFFFFFFFFFFFFFFFFFFFFFFFFFFFFFF AND DUP2 PUSH20 0xFFFFFFFFFFFFFFFFFFFFFFFFFFFFFFFFFFFFFFFF AND PUSH32 0x8BE0079C531659141344CD1FD0A4F28419497F9722A3DAAFE3B4186F6B6457E0 PUSH1 0x40 MLOAD PUSH1 0x40 MLOAD DUP1 SWAP2 SUB SWAP1 LOG3 POP POP JUMP JUMPDEST PUSH1 0x0 DUP1 REVERT JUMPDEST PUSH1 0x0 PUSH20 0xFFFFFFFFFFFFFFFFFFFFFFFFFFFFFFFFFFFFFFFF DUP3 AND SWAP1 POP SWAP2 SWAP1 POP JUMP JUMPDEST PUSH1 0x0 PUSH3 0x1A4 DUP3 PUSH3 0x177 JUMP JUMPDEST SWAP1 POP SWAP2 SWAP1 POP JUMP JUMPDEST PUSH3 0x1B6 DUP2 PUSH3 0x197 JUMP JUMPDEST DUP2 EQ PUSH3 0x1C2 JUMPI PUSH1 0x0 DUP1 REVERT JUMPDEST POP JUMP JUMPDEST PUSH1 0x0 DUP2 MLOAD SWAP1 POP PUSH3 0x1D6 DUP2 PUSH3 0x1AB JUMP JUMPDEST SWAP3 SWAP2 POP POP JUMP JUMPDEST PUSH1 0x0 PUSH1 0x20 DUP3 DUP5 SUB SLT ISZERO PUSH3 0x1F5 JUMPI PUSH3 0x1F4 PUSH3 0x172 JUMP JUMPDEST JUMPDEST PUSH1 0x0 PUSH3 0x205 DUP5 DUP3 DUP6 ADD PUSH3 0x1C5 JUMP JUMPDEST SWAP2 POP POP SWAP3 SWAP2 POP POP JUMP JUMPDEST PUSH2 0x15ED DUP1 PUSH3 0x21E PUSH1 0x0 CODECOPY PUSH1 0x0 RETURN INVALID PUSH1 0x80 PUSH1 0x40 MSTORE PUSH1 0x4 CALLDATASIZE LT PUSH2 0xA0 JUMPI PUSH1 0x0 CALLDATALOAD PUSH1 0xE0 SHR DUP1 PUSH4 0x8DA5CB5B GT PUSH2 0x64 JUMPI DUP1 PUSH4 0x8DA5CB5B EQ PUSH2 0x2F8 JUMPI DUP1 PUSH4 0xA694FC3A EQ PUSH2 0x323 JUMPI DUP1 PUSH4 0xD3EA4350 EQ PUSH2 0x34C JUMPI DUP1 PUSH4 0xF2FDE38B EQ PUSH2 0x389 JUMPI DUP1 PUSH4 0xF301AF42 EQ PUSH2 0x3B2 JUMPI DUP1 PUSH4 0xFD71C650 EQ PUSH2 0x3EF JUMPI PUSH2 0x210 JUMP JUMPDEST DUP1 PUSH4 0x150B7A02 EQ PUSH2 0x215 JUMPI DUP1 PUSH4 0x2E17DE78 EQ PUSH2 0x252 JUMPI DUP1 PUSH4 0x379607F5 EQ PUSH2 0x27B JUMPI DUP1 PUSH4 0x715018A6 EQ PUSH2 0x2A4 JUMPI DUP1 PUSH4 0x8488CC41 EQ PUSH2 0x2BB JUMPI PUSH2 0x210 JUMP JUMPDEST CALLDATASIZE PUSH2 0x210 JUMPI PUSH1 0x0 PUSH2 0xB1 PUSH1 0x3 PUSH2 0x418 JUMP JUMPDEST SUB PUSH2 0xF1 JUMPI PUSH1 0x40 MLOAD PUSH32 0x8C379A000000000000000000000000000000000000000000000000000000000 DUP2 MSTORE PUSH1 0x4 ADD PUSH2 0xE8 SWAP1 PUSH2 0xD4B JUMP JUMPDEST PUSH1 0x40 MLOAD DUP1 SWAP2 SUB SWAP1 REVERT JUMPDEST PUSH1 0x0 PUSH2 0xFD PUSH1 0x3 PUSH2 0x418 JUMP JUMPDEST CALLVALUE PUSH2 0x108 SWAP2 SWAP1 PUSH2 0xDD3 JUMP JUMPDEST SWAP1 POP PUSH1 0x0 PUSH1 0x2 PUSH1 0x0 SWAP1 SLOAD SWAP1 PUSH2 0x100 EXP SWAP1 DIV PUSH20 0xFFFFFFFFFFFFFFFFFFFFFFFFFFFFFFFFFFFFFFFF AND PUSH20 0xFFFFFFFFFFFFFFFFFFFFFFFFFFFFFFFFFFFFFFFF AND PUSH4 0x438B6300 ADDRESS PUSH1 0x40 MLOAD DUP3 PUSH4 0xFFFFFFFF AND PUSH1 0xE0 SHL DUP2 MSTORE PUSH1 0x4 ADD PUSH2 0x167 SWAP2 SWAP1 PUSH2 0xE45 JUMP JUMPDEST PUSH1 0x0 PUSH1 0x40 MLOAD DUP1 DUP4 SUB DUP2 DUP7 GAS STATICCALL ISZERO DUP1 ISZERO PUSH2 0x184 JUMPI RETURNDATASIZE PUSH1 0x0 DUP1 RETURNDATACOPY RETURNDATASIZE PUSH1 0x0 REVERT JUMPDEST POP POP POP POP PUSH1 0x40 MLOAD RETURNDATASIZE PUSH1 0x0 DUP3 RETURNDATACOPY RETURNDATASIZE PUSH1 0x1F NOT PUSH1 0x1F DUP3 ADD AND DUP3 ADD DUP1 PUSH1 0x40 MSTORE POP DUP2 ADD SWAP1 PUSH2 0x1AD SWAP2 SWAP1 PUSH2 0xFF9 JUMP JUMPDEST SWAP1 POP PUSH1 0x0 JUMPDEST DUP2 MLOAD DUP2 LT ISZERO PUSH2 0x20E JUMPI DUP3 PUSH1 0x5 PUSH1 0x0 PUSH1 0x6 DUP5 DUP2 SLOAD DUP2 LT PUSH2 0x1D4 JUMPI PUSH2 0x1D3 PUSH2 0x1042 JUMP JUMPDEST JUMPDEST SWAP1 PUSH1 0x0 MSTORE PUSH1 0x20 PUSH1 0x0 KECCAK256 ADD SLOAD DUP2 MSTORE PUSH1 0x20 ADD SWAP1 DUP2 MSTORE PUSH1 0x20 ADD PUSH1 0x0 KECCAK256 PUSH1 0x0 DUP3 DUP3 SLOAD PUSH2 0x1FC SWAP2 SWAP1 PUSH2 0x1071 JUMP JUMPDEST SWAP3 POP POP DUP2 SWAP1 SSTORE POP DUP1 PUSH1 0x1 ADD SWAP1 POP PUSH2 0x1B2 JUMP JUMPDEST STOP JUMPDEST PUSH1 0x0 DUP1 REVERT JUMPDEST CALLVALUE DUP1 ISZERO PUSH2 0x221 JUMPI PUSH1 0x0 DUP1 REVERT JUMPDEST POP PUSH2 0x23C PUSH1 0x4 DUP1 CALLDATASIZE SUB DUP2 ADD SWAP1 PUSH2 0x237 SWAP2 SWAP1 PUSH2 0x119B JUMP JUMPDEST PUSH2 0x426 JUMP JUMPDEST PUSH1 0x40 MLOAD PUSH2 0x249 SWAP2 SWAP1 PUSH2 0x1259 JUMP JUMPDEST PUSH1 0x40 MLOAD DUP1 SWAP2 SUB SWAP1 RETURN JUMPDEST CALLVALUE DUP1 ISZERO PUSH2 0x25E JUMPI PUSH1 0x0 DUP1 REVERT JUMPDEST POP PUSH2 0x279 PUSH1 0x4 DUP1 CALLDATASIZE SUB DUP2 ADD SWAP1 PUSH2 0x274 SWAP2 SWAP1 PUSH2 0x1274 JUMP JUMPDEST PUSH2 0x43A JUMP JUMPDEST STOP JUMPDEST CALLVALUE DUP1 ISZERO PUSH2 0x287 JUMPI PUSH1 0x0 DUP1 REVERT JUMPDEST POP PUSH2 0x2A2 PUSH1 0x4 DUP1 CALLDATASIZE SUB DUP2 ADD SWAP1 PUSH2 0x29D SWAP2 SWAP1 PUSH2 0x1274 JUMP JUMPDEST PUSH2 0x6D7 JUMP JUMPDEST STOP JUMPDEST CALLVALUE DUP1 ISZERO PUSH2 0x2B0 JUMPI PUSH1 0x0 DUP1 REVERT JUMPDEST POP PUSH2 0x2B9 PUSH2 0x8A5 JUMP JUMPDEST STOP JUMPDEST CALLVALUE DUP1 ISZERO PUSH2 0x2C7 JUMPI PUSH1 0x0 DUP1 REVERT JUMPDEST POP PUSH2 0x2E2 PUSH1 0x4 DUP1 CALLDATASIZE SUB DUP2 ADD SWAP1 PUSH2 0x2DD SWAP2 SWAP1 PUSH2 0x1274 JUMP JUMPDEST PUSH2 0x8B9 JUMP JUMPDEST PUSH1 0x40 MLOAD PUSH2 0x2EF SWAP2 SWAP1 PUSH2 0xE45 JUMP JUMPDEST PUSH1 0x40 MLOAD DUP1 SWAP2 SUB SWAP1 RETURN JUMPDEST CALLVALUE DUP1 ISZERO PUSH2 0x304 JUMPI PUSH1 0x0 DUP1 REVERT JUMPDEST POP PUSH2 0x30D PUSH2 0x8EC JUMP JUMPDEST PUSH1 0x40 MLOAD PUSH2 0x31A SWAP2 SWAP1 PUSH2 0xE45 JUMP JUMPDEST PUSH1 0x40 MLOAD DUP1 SWAP2 SUB SWAP1 RETURN JUMPDEST CALLVALUE DUP1 ISZERO PUSH2 0x32F JUMPI PUSH1 0x0 DUP1 REVERT JUMPDEST POP PUSH2 0x34A PUSH1 0x4 DUP1 CALLDATASIZE SUB DUP2 ADD SWAP1 PUSH2 0x345 SWAP2 SWAP1 PUSH2 0x1274 JUMP JUMPDEST PUSH2 0x915 JUMP JUMPDEST STOP JUMPDEST CALLVALUE DUP1 ISZERO PUSH2 0x358 JUMPI PUSH1 0x0 DUP1 REVERT JUMPDEST POP PUSH2 0x373 PUSH1 0x4 DUP1 CALLDATASIZE SUB DUP2 ADD SWAP1 PUSH2 0x36E SWAP2 SWAP1 PUSH2 0x1274 JUMP JUMPDEST PUSH2 0xA2E JUMP JUMPDEST PUSH1 0x40 MLOAD PUSH2 0x380 SWAP2 SWAP1 PUSH2 0x12B0 JUMP JUMPDEST PUSH1 0x40 MLOAD DUP1 SWAP2 SUB SWAP1 RETURN JUMPDEST CALLVALUE DUP1 ISZERO PUSH2 0x395 JUMPI PUSH1 0x0 DUP1 REVERT JUMPDEST POP PUSH2 0x3B0 PUSH1 0x4 DUP1 CALLDATASIZE SUB DUP2 ADD SWAP1 PUSH2 0x3AB SWAP2 SWAP1 PUSH2 0x12CB JUMP JUMPDEST PUSH2 0xA4B JUMP JUMPDEST STOP JUMPDEST CALLVALUE DUP1 ISZERO PUSH2 0x3BE JUMPI PUSH1 0x0 DUP1 REVERT JUMPDEST POP PUSH2 0x3D9 PUSH1 0x4 DUP1 CALLDATASIZE SUB DUP2 ADD SWAP1 PUSH2 0x3D4 SWAP2 SWAP1 PUSH2 0x1274 JUMP JUMPDEST PUSH2 0xACE JUMP JUMPDEST PUSH1 0x40 MLOAD PUSH2 0x3E6 SWAP2 SWAP1 PUSH2 0x12B0 JUMP JUMPDEST PUSH1 0x40 MLOAD DUP1 SWAP2 SUB SWAP1 RETURN JUMPDEST CALLVALUE DUP1 ISZERO PUSH2 0x3FB JUMPI PUSH1 0x0 DUP1 REVERT JUMPDEST POP PUSH2 0x416 PUSH1 0x4 DUP1 CALLDATASIZE SUB DUP2 ADD SWAP1 PUSH2 0x411 SWAP2 SWAP1 PUSH2 0x12CB JUMP JUMPDEST PUSH2 0xAE6 JUMP JUMPDEST STOP JUMPDEST PUSH1 0x0 DUP2 PUSH1 0x0 ADD SLOAD SWAP1 POP SWAP2 SWAP1 POP JUMP JUMPDEST PUSH1 0x0 PUSH4 0x150B7A02 PUSH1 0xE0 SHL SWAP1 POP SWAP5 SWAP4 POP POP POP POP JUMP JUMPDEST PUSH1 0x2 PUSH1 0x1 SLOAD SUB PUSH2 0x47F JUMPI PUSH1 0x40 MLOAD PUSH32 0x8C379A000000000000000000000000000000000000000000000000000000000 DUP2 MSTORE PUSH1 0x4 ADD PUSH2 0x476 SWAP1 PUSH2 0x1344 JUMP JUMPDEST PUSH1 0x40 MLOAD DUP1 SWAP2 SUB SWAP1 REVERT JUMPDEST PUSH1 0x2 PUSH1 0x1 DUP2 SWAP1 SSTORE POP CALLER PUSH20 0xFFFFFFFFFFFFFFFFFFFFFFFFFFFFFFFFFFFFFFFF AND PUSH1 0x4 PUSH1 0x0 DUP4 DUP2 MSTORE PUSH1 0x20 ADD SWAP1 DUP2 MSTORE PUSH1 0x20 ADD PUSH1 0x0 KECCAK256 PUSH1 0x0 SWAP1 SLOAD SWAP1 PUSH2 0x100 EXP SWAP1 DIV PUSH20 0xFFFFFFFFFFFFFFFFFFFFFFFFFFFFFFFFFFFFFFFF AND PUSH20 0xFFFFFFFFFFFFFFFFFFFFFFFFFFFFFFFFFFFFFFFF AND EQ PUSH2 0x528 JUMPI PUSH1 0x40 MLOAD PUSH32 0x8C379A000000000000000000000000000000000000000000000000000000000 DUP2 MSTORE PUSH1 0x4 ADD PUSH2 0x51F SWAP1 PUSH2 0x13B0 JUMP JUMPDEST PUSH1 0x40 MLOAD DUP1 SWAP2 SUB SWAP1 REVERT JUMPDEST PUSH1 0x4 PUSH1 0x0 DUP3 DUP2 MSTORE PUSH1 0x20 ADD SWAP1 DUP2 MSTORE PUSH1 0x20 ADD PUSH1 0x0 KECCAK256 PUSH1 0x0 PUSH2 0x100 EXP DUP2 SLOAD SWAP1 PUSH20 0xFFFFFFFFFFFFFFFFFFFFFFFFFFFFFFFFFFFFFFFF MUL NOT AND SWAP1 SSTORE PUSH2 0x568 PUSH1 0x3 PUSH2 0xB32 JUMP JUMPDEST PUSH1 0x0 PUSH1 0x4 PUSH1 0x0 DUP4 DUP2 MSTORE PUSH1 0x20 ADD SWAP1 DUP2 MSTORE PUSH1 0x20 ADD PUSH1 0x0 KECCAK256 PUSH1 0x0 SWAP1 SLOAD SWAP1 PUSH2 0x100 EXP SWAP1 DIV PUSH20 0xFFFFFFFFFFFFFFFFFFFFFFFFFFFFFFFFFFFFFFFF AND PUSH20 0xFFFFFFFFFFFFFFFFFFFFFFFFFFFFFFFFFFFFFFFF AND PUSH1 0x5 PUSH1 0x0 DUP5 DUP2 MSTORE PUSH1 0x20 ADD SWAP1 DUP2 MSTORE PUSH1 0x20 ADD PUSH1 0x0 KECCAK256 SLOAD PUSH1 0x40 MLOAD PUSH2 0x5D4 SWAP1 PUSH2 0x1401 JUMP JUMPDEST PUSH1 0x0 PUSH1 0x40 MLOAD DUP1 DUP4 SUB DUP2 DUP6 DUP8 GAS CALL SWAP3 POP POP POP RETURNDATASIZE DUP1 PUSH1 0x0 DUP2 EQ PUSH2 0x611 JUMPI PUSH1 0x40 MLOAD SWAP2 POP PUSH1 0x1F NOT PUSH1 0x3F RETURNDATASIZE ADD AND DUP3 ADD PUSH1 0x40 MSTORE RETURNDATASIZE DUP3 MSTORE RETURNDATASIZE PUSH1 0x0 PUSH1 0x20 DUP5 ADD RETURNDATACOPY PUSH2 0x616 JUMP JUMPDEST PUSH1 0x60 SWAP2 POP JUMPDEST POP POP SWAP1 POP DUP1 PUSH2 0x624 JUMPI PUSH1 0x0 DUP1 REVERT JUMPDEST PUSH1 0x5 PUSH1 0x0 DUP4 DUP2 MSTORE PUSH1 0x20 ADD SWAP1 DUP2 MSTORE PUSH1 0x20 ADD PUSH1 0x0 KECCAK256 PUSH1 0x0 SWAP1 SSTORE PUSH1 0x2 PUSH1 0x0 SWAP1 SLOAD SWAP1 PUSH2 0x100 EXP SWAP1 DIV PUSH20 0xFFFFFFFFFFFFFFFFFFFFFFFFFFFFFFFFFFFFFFFF AND PUSH20 0xFFFFFFFFFFFFFFFFFFFFFFFFFFFFFFFFFFFFFFFF AND PUSH4 0x42842E0E ADDRESS CALLER DUP6 PUSH1 0x40 MLOAD DUP5 PUSH4 0xFFFFFFFF AND PUSH1 0xE0 SHL DUP2 MSTORE PUSH1 0x4 ADD PUSH2 0x69A SWAP4 SWAP3 SWAP2 SWAP1 PUSH2 0x1416 JUMP JUMPDEST PUSH1 0x0 PUSH1 0x40 MLOAD DUP1 DUP4 SUB DUP2 PUSH1 0x0 DUP8 DUP1 EXTCODESIZE ISZERO DUP1 ISZERO PUSH2 0x6B4 JUMPI PUSH1 0x0 DUP1 REVERT JUMPDEST POP GAS CALL ISZERO DUP1 ISZERO PUSH2 0x6C8 JUMPI RETURNDATASIZE PUSH1 0x0 DUP1 RETURNDATACOPY RETURNDATASIZE PUSH1 0x0 REVERT JUMPDEST POP POP POP POP POP PUSH1 0x1 DUP1 DUP2 SWAP1 SSTORE POP POP JUMP JUMPDEST PUSH1 0x2 PUSH1 0x1 SLOAD SUB PUSH2 0x71C JUMPI PUSH1 0x40 MLOAD PUSH32 0x8C379A000000000000000000000000000000000000000000000000000000000 DUP2 MSTORE PUSH1 0x4 ADD PUSH2 0x713 SWAP1 PUSH2 0x1344 JUMP JUMPDEST PUSH1 0x40 MLOAD DUP1 SWAP2 SUB SWAP1 REVERT JUMPDEST PUSH1 0x2 PUSH1 0x1 DUP2 SWAP1 SSTORE POP CALLER PUSH20 0xFFFFFFFFFFFFFFFFFFFFFFFFFFFFFFFFFFFFFFFF AND PUSH1 0x4 PUSH1 0x0 DUP4 DUP2 MSTORE PUSH1 0x20 ADD SWAP1 DUP2 MSTORE PUSH1 0x20 ADD PUSH1 0x0 KECCAK256 PUSH1 0x0 SWAP1 SLOAD SWAP1 PUSH2 0x100 EXP SWAP1 DIV PUSH20 0xFFFFFFFFFFFFFFFFFFFFFFFFFFFFFFFFFFFFFFFF AND PUSH20 0xFFFFFFFFFFFFFFFFFFFFFFFFFFFFFFFFFFFFFFFF AND EQ PUSH2 0x7C5 JUMPI PUSH1 0x40 MLOAD PUSH32 0x8C379A000000000000000000000000000000000000000000000000000000000 DUP2 MSTORE PUSH1 0x4 ADD PUSH2 0x7BC SWAP1 PUSH2 0x13B0 JUMP JUMPDEST PUSH1 0x40 MLOAD DUP1 SWAP2 SUB SWAP1 REVERT JUMPDEST PUSH1 0x0 PUSH1 0x4 PUSH1 0x0 DUP4 DUP2 MSTORE PUSH1 0x20 ADD SWAP1 DUP2 MSTORE PUSH1 0x20 ADD PUSH1 0x0 KECCAK256 PUSH1 0x0 SWAP1 SLOAD SWAP1 PUSH2 0x100 EXP SWAP1 DIV PUSH20 0xFFFFFFFFFFFFFFFFFFFFFFFFFFFFFFFFFFFFFFFF AND PUSH20 0xFFFFFFFFFFFFFFFFFFFFFFFFFFFFFFFFFFFFFFFF AND PUSH1 0x5 PUSH1 0x0 DUP5 DUP2 MSTORE PUSH1 0x20 ADD SWAP1 DUP2 MSTORE PUSH1 0x20 ADD PUSH1 0x0 KECCAK256 SLOAD PUSH1 0x40 MLOAD PUSH2 0x831 SWAP1 PUSH2 0x1401 JUMP JUMPDEST PUSH1 0x0 PUSH1 0x40 MLOAD DUP1 DUP4 SUB DUP2 DUP6 DUP8 GAS CALL SWAP3 POP POP POP RETURNDATASIZE DUP1 PUSH1 0x0 DUP2 EQ PUSH2 0x86E JUMPI PUSH1 0x40 MLOAD SWAP2 POP PUSH1 0x1F NOT PUSH1 0x3F RETURNDATASIZE ADD AND DUP3 ADD PUSH1 0x40 MSTORE RETURNDATASIZE DUP3 MSTORE RETURNDATASIZE PUSH1 0x0 PUSH1 0x20 DUP5 ADD RETURNDATACOPY PUSH2 0x873 JUMP JUMPDEST PUSH1 0x60 SWAP2 POP JUMPDEST POP POP SWAP1 POP DUP1 PUSH2 0x881 JUMPI PUSH1 0x0 DUP1 REVERT JUMPDEST PUSH1 0x0 PUSH1 0x5 PUSH1 0x0 DUP5 DUP2 MSTORE PUSH1 0x20 ADD SWAP1 DUP2 MSTORE PUSH1 0x20 ADD PUSH1 0x0 KECCAK256 DUP2 SWAP1 SSTORE POP POP PUSH1 0x1 DUP1 DUP2 SWAP1 SSTORE POP POP JUMP JUMPDEST PUSH2 0x8AD PUSH2 0xB8E JUMP JUMPDEST PUSH2 0x8B7 PUSH1 0x0 PUSH2 0xC0C JUMP JUMPDEST JUMP JUMPDEST PUSH1 0x4 PUSH1 0x20 MSTORE DUP1 PUSH1 0x0 MSTORE PUSH1 0x40 PUSH1 0x0 KECCAK256 PUSH1 0x0 SWAP2 POP SLOAD SWAP1 PUSH2 0x100 EXP SWAP1 DIV PUSH20 0xFFFFFFFFFFFFFFFFFFFFFFFFFFFFFFFFFFFFFFFF AND DUP2 JUMP JUMPDEST PUSH1 0x0 DUP1 PUSH1 0x0 SWAP1 SLOAD SWAP1 PUSH2 0x100 EXP SWAP1 DIV PUSH20 0xFFFFFFFFFFFFFFFFFFFFFFFFFFFFFFFFFFFFFFFF AND SWAP1 POP SWAP1 JUMP JUMPDEST PUSH1 0x2 PUSH1 0x0 SWAP1 SLOAD SWAP1 PUSH2 0x100 EXP SWAP1 DIV PUSH20 0xFFFFFFFFFFFFFFFFFFFFFFFFFFFFFFFFFFFFFFFF AND PUSH20 0xFFFFFFFFFFFFFFFFFFFFFFFFFFFFFFFFFFFFFFFF AND PUSH4 0x42842E0E CALLER ADDRESS DUP5 PUSH1 0x40 MLOAD DUP5 PUSH4 0xFFFFFFFF AND PUSH1 0xE0 SHL DUP2 MSTORE PUSH1 0x4 ADD PUSH2 0x974 SWAP4 SWAP3 SWAP2 SWAP1 PUSH2 0x1416 JUMP JUMPDEST PUSH1 0x0 PUSH1 0x40 MLOAD DUP1 DUP4 SUB DUP2 PUSH1 0x0 DUP8 DUP1 EXTCODESIZE ISZERO DUP1 ISZERO PUSH2 0x98E JUMPI PUSH1 0x0 DUP1 REVERT JUMPDEST POP GAS CALL ISZERO DUP1 ISZERO PUSH2 0x9A2 JUMPI RETURNDATASIZE PUSH1 0x0 DUP1 RETURNDATACOPY RETURNDATASIZE PUSH1 0x0 REVERT JUMPDEST POP POP POP POP CALLER PUSH1 0x4 PUSH1 0x0 DUP4 DUP2 MSTORE PUSH1 0x20 ADD SWAP1 DUP2 MSTORE PUSH1 0x20 ADD PUSH1 0x0 KECCAK256 PUSH1 0x0 PUSH2 0x100 EXP DUP2 SLOAD DUP2 PUSH20 0xFFFFFFFFFFFFFFFFFFFFFFFFFFFFFFFFFFFFFFFF MUL NOT AND SWAP1 DUP4 PUSH20 0xFFFFFFFFFFFFFFFFFFFFFFFFFFFFFFFFFFFFFFFF AND MUL OR SWAP1 SSTORE POP PUSH1 0x6 DUP2 SWAP1 DUP1 PUSH1 0x1 DUP2 SLOAD ADD DUP1 DUP3 SSTORE DUP1 SWAP2 POP POP PUSH1 0x1 SWAP1 SUB SWAP1 PUSH1 0x0 MSTORE PUSH1 0x20 PUSH1 0x0 KECCAK256 ADD PUSH1 0x0 SWAP1 SWAP2 SWAP1 SWAP2 SWAP1 SWAP2 POP SSTORE PUSH2 0xA2B PUSH1 0x3 PUSH2 0xCD0 JUMP JUMPDEST POP JUMP JUMPDEST PUSH1 0x0 PUSH1 0x5 PUSH1 0x0 DUP4 DUP2 MSTORE PUSH1 0x20 ADD SWAP1 DUP2 MSTORE PUSH1 0x20 ADD PUSH1 0x0 KECCAK256 SLOAD SWAP1 POP SWAP2 SWAP1 POP JUMP JUMPDEST PUSH2 0xA53 PUSH2 0xB8E JUMP JUMPDEST PUSH1 0x0 PUSH20 0xFFFFFFFFFFFFFFFFFFFFFFFFFFFFFFFFFFFFFFFF AND DUP2 PUSH20 0xFFFFFFFFFFFFFFFFFFFFFFFFFFFFFFFFFFFFFFFF AND SUB PUSH2 0xAC2 JUMPI PUSH1 0x40 MLOAD PUSH32 0x8C379A000000000000000000000000000000000000000000000000000000000 DUP2 MSTORE PUSH1 0x4 ADD PUSH2 0xAB9 SWAP1 PUSH2 0x14BF JUMP JUMPDEST PUSH1 0x40 MLOAD DUP1 SWAP2 SUB SWAP1 REVERT JUMPDEST PUSH2 0xACB DUP2 PUSH2 0xC0C JUMP JUMPDEST POP JUMP JUMPDEST PUSH1 0x5 PUSH1 0x20 MSTORE DUP1 PUSH1 0x0 MSTORE PUSH1 0x40 PUSH1 0x0 KECCAK256 PUSH1 0x0 SWAP2 POP SWAP1 POP SLOAD DUP2 JUMP JUMPDEST PUSH2 0xAEE PUSH2 0xB8E JUMP JUMPDEST DUP1 PUSH1 0x2 PUSH1 0x0 PUSH2 0x100 EXP DUP2 SLOAD DUP2 PUSH20 0xFFFFFFFFFFFFFFFFFFFFFFFFFFFFFFFFFFFFFFFF MUL NOT AND SWAP1 DUP4 PUSH20 0xFFFFFFFFFFFFFFFFFFFFFFFFFFFFFFFFFFFFFFFF AND MUL OR SWAP1 SSTORE POP POP JUMP JUMPDEST PUSH1 0x0 DUP2 PUSH1 0x0 ADD SLOAD SWAP1 POP PUSH1 0x0 DUP2 GT PUSH2 0xB7E JUMPI PUSH1 0x40 MLOAD PUSH32 0x8C379A000000000000000000000000000000000000000000000000000000000 DUP2 MSTORE PUSH1 0x4 ADD PUSH2 0xB75 SWAP1 PUSH2 0x152B JUMP JUMPDEST PUSH1 0x40 MLOAD DUP1 SWAP2 SUB SWAP1 REVERT JUMPDEST PUSH1 0x1 DUP2 SUB DUP3 PUSH1 0x0 ADD DUP2 SWAP1 SSTORE POP POP POP JUMP JUMPDEST PUSH2 0xB96 PUSH2 0xCE6 JUMP JUMPDEST PUSH20 0xFFFFFFFFFFFFFFFFFFFFFFFFFFFFFFFFFFFFFFFF AND PUSH2 0xBB4 PUSH2 0x8EC JUMP JUMPDEST PUSH20 0xFFFFFFFFFFFFFFFFFFFFFFFFFFFFFFFFFFFFFFFF AND EQ PUSH2 0xC0A JUMPI PUSH1 0x40 MLOAD PUSH32 0x8C379A000000000000000000000000000000000000000000000000000000000 DUP2 MSTORE PUSH1 0x4 ADD PUSH2 0xC01 SWAP1 PUSH2 0x1597 JUMP JUMPDEST PUSH1 0x40 MLOAD DUP1 SWAP2 SUB SWAP1 REVERT JUMPDEST JUMP JUMPDEST PUSH1 0x0 DUP1 PUSH1 0x0 SWAP1 SLOAD SWAP1 PUSH2 0x100 EXP SWAP1 DIV PUSH20 0xFFFFFFFFFFFFFFFFFFFFFFFFFFFFFFFFFFFFFFFF AND SWAP1 POP DUP2 PUSH1 0x0 DUP1 PUSH2 0x100 EXP DUP2 SLOAD DUP2 PUSH20 0xFFFFFFFFFFFFFFFFFFFFFFFFFFFFFFFFFFFFFFFF MUL NOT AND SWAP1 DUP4 PUSH20 0xFFFFFFFFFFFFFFFFFFFFFFFFFFFFFFFFFFFFFFFF AND MUL OR SWAP1 SSTORE POP DUP2 PUSH20 0xFFFFFFFFFFFFFFFFFFFFFFFFFFFFFFFFFFFFFFFF AND DUP2 PUSH20 0xFFFFFFFFFFFFFFFFFFFFFFFFFFFFFFFFFFFFFFFF AND PUSH32 0x8BE0079C531659141344CD1FD0A4F28419497F9722A3DAAFE3B4186F6B6457E0 PUSH1 0x40 MLOAD PUSH1 0x40 MLOAD DUP1 SWAP2 SUB SWAP1 LOG3 POP POP JUMP JUMPDEST PUSH1 0x1 DUP2 PUSH1 0x0 ADD PUSH1 0x0 DUP3 DUP3 SLOAD ADD SWAP3 POP POP DUP2 SWAP1 SSTORE POP POP JUMP JUMPDEST PUSH1 0x0 CALLER SWAP1 POP SWAP1 JUMP JUMPDEST PUSH1 0x0 DUP3 DUP3 MSTORE PUSH1 0x20 DUP3 ADD SWAP1 POP SWAP3 SWAP2 POP POP JUMP JUMPDEST PUSH32 0x4E6F204E46547320617265207374616B65640000000000000000000000000000 PUSH1 0x0 DUP3 ADD MSTORE POP JUMP JUMPDEST PUSH1 0x0 PUSH2 0xD35 PUSH1 0x12 DUP4 PUSH2 0xCEE JUMP JUMPDEST SWAP2 POP PUSH2 0xD40 DUP3 PUSH2 0xCFF JUMP JUMPDEST PUSH1 0x20 DUP3 ADD SWAP1 POP SWAP2 SWAP1 POP JUMP JUMPDEST PUSH1 0x0 PUSH1 0x20 DUP3 ADD SWAP1 POP DUP2 DUP2 SUB PUSH1 0x0 DUP4 ADD MSTORE PUSH2 0xD64 DUP2 PUSH2 0xD28 JUMP JUMPDEST SWAP1 POP SWAP2 SWAP1 POP JUMP JUMPDEST PUSH1 0x0 DUP2 SWAP1 POP SWAP2 SWAP1 POP JUMP JUMPDEST PUSH32 0x4E487B7100000000000000000000000000000000000000000000000000000000 PUSH1 0x0 MSTORE PUSH1 0x12 PUSH1 0x4 MSTORE PUSH1 0x24 PUSH1 0x0 REVERT JUMPDEST PUSH32 0x4E487B7100000000000000000000000000000000000000000000000000000000 PUSH1 0x0 MSTORE PUSH1 0x11 PUSH1 0x4 MSTORE PUSH1 0x24 PUSH1 0x0 REVERT JUMPDEST PUSH1 0x0 PUSH2 0xDDE DUP3 PUSH2 0xD6B JUMP JUMPDEST SWAP2 POP PUSH2 0xDE9 DUP4 PUSH2 0xD6B JUMP JUMPDEST SWAP3 POP DUP3 PUSH2 0xDF9 JUMPI PUSH2 0xDF8 PUSH2 0xD75 JUMP JUMPDEST JUMPDEST DUP3 DUP3 DIV SWAP1 POP SWAP3 SWAP2 POP POP JUMP JUMPDEST PUSH1 0x0 PUSH20 0xFFFFFFFFFFFFFFFFFFFFFFFFFFFFFFFFFFFFFFFF DUP3 AND SWAP1 POP SWAP2 SWAP1 POP JUMP JUMPDEST PUSH1 0x0 PUSH2 0xE2F DUP3 PUSH2 0xE04 JUMP JUMPDEST SWAP1 POP SWAP2 SWAP1 POP JUMP JUMPDEST PUSH2 0xE3F DUP2 PUSH2 0xE24 JUMP JUMPDEST DUP3 MSTORE POP POP JUMP JUMPDEST PUSH1 0x0 PUSH1 0x20 DUP3 ADD SWAP1 POP PUSH2 0xE5A PUSH1 0x0 DUP4 ADD DUP5 PUSH2 0xE36 JUMP JUMPDEST SWAP3 SWAP2 POP POP JUMP JUMPDEST PUSH1 0x0 PUSH1 0x40 MLOAD SWAP1 POP SWAP1 JUMP JUMPDEST PUSH1 0x0 DUP1 REVERT JUMPDEST PUSH1 0x0 DUP1 REVERT JUMPDEST PUSH1 0x0 DUP1 REVERT JUMPDEST PUSH1 0x0 PUSH1 0x1F NOT PUSH1 0x1F DUP4 ADD AND SWAP1 POP SWAP2 SWAP1 POP JUMP JUMPDEST PUSH32 0x4E487B7100000000000000000000000000000000000000000000000000000000 PUSH1 0x0 MSTORE PUSH1 0x41 PUSH1 0x4 MSTORE PUSH1 0x24 PUSH1 0x0 REVERT JUMPDEST PUSH2 0xEC2 DUP3 PUSH2 0xE79 JUMP JUMPDEST DUP2 ADD DUP2 DUP2 LT PUSH8 0xFFFFFFFFFFFFFFFF DUP3 GT OR ISZERO PUSH2 0xEE1 JUMPI PUSH2 0xEE0 PUSH2 0xE8A JUMP JUMPDEST JUMPDEST DUP1 PUSH1 0x40 MSTORE POP POP POP JUMP JUMPDEST PUSH1 0x0 PUSH2 0xEF4 PUSH2 0xE60 JUMP JUMPDEST SWAP1 POP PUSH2 0xF00 DUP3 DUP3 PUSH2 0xEB9 JUMP JUMPDEST SWAP2 SWAP1 POP JUMP JUMPDEST PUSH1 0x0 PUSH8 0xFFFFFFFFFFFFFFFF DUP3 GT ISZERO PUSH2 0xF20 JUMPI PUSH2 0xF1F PUSH2 0xE8A JUMP JUMPDEST JUMPDEST PUSH1 0x20 DUP3 MUL SWAP1 POP PUSH1 0x20 DUP2 ADD SWAP1 POP SWAP2 SWAP1 POP JUMP JUMPDEST PUSH1 0x0 DUP1 REVERT JUMPDEST PUSH2 0xF3F DUP2 PUSH2 0xD6B JUMP JUMPDEST DUP2 EQ PUSH2 0xF4A JUMPI PUSH1 0x0 DUP1 REVERT JUMPDEST POP JUMP JUMPDEST PUSH1 0x0 DUP2 MLOAD SWAP1 POP PUSH2 0xF5C DUP2 PUSH2 0xF36 JUMP JUMPDEST SWAP3 SWAP2 POP POP JUMP JUMPDEST PUSH1 0x0 PUSH2 0xF75 PUSH2 0xF70 DUP5 PUSH2 0xF05 JUMP JUMPDEST PUSH2 0xEEA JUMP JUMPDEST SWAP1 POP DUP1 DUP4 DUP3 MSTORE PUSH1 0x20 DUP3 ADD SWAP1 POP PUSH1 0x20 DUP5 MUL DUP4 ADD DUP6 DUP2 GT ISZERO PUSH2 0xF98 JUMPI PUSH2 0xF97 PUSH2 0xF31 JUMP JUMPDEST JUMPDEST DUP4 JUMPDEST DUP2 DUP2 LT ISZERO PUSH2 0xFC1 JUMPI DUP1 PUSH2 0xFAD DUP9 DUP3 PUSH2 0xF4D JUMP JUMPDEST DUP5 MSTORE PUSH1 0x20 DUP5 ADD SWAP4 POP POP PUSH1 0x20 DUP2 ADD SWAP1 POP PUSH2 0xF9A JUMP JUMPDEST POP POP POP SWAP4 SWAP3 POP POP POP JUMP JUMPDEST PUSH1 0x0 DUP3 PUSH1 0x1F DUP4 ADD SLT PUSH2 0xFE0 JUMPI PUSH2 0xFDF PUSH2 0xE74 JUMP JUMPDEST JUMPDEST DUP2 MLOAD PUSH2 0xFF0 DUP5 DUP3 PUSH1 0x20 DUP7 ADD PUSH2 0xF62 JUMP JUMPDEST SWAP2 POP POP SWAP3 SWAP2 POP POP JUMP JUMPDEST PUSH1 0x0 PUSH1 0x20 DUP3 DUP5 SUB SLT ISZERO PUSH2 0x100F JUMPI PUSH2 0x100E PUSH2 0xE6A JUMP JUMPDEST JUMPDEST PUSH1 0x0 DUP3 ADD MLOAD PUSH8 0xFFFFFFFFFFFFFFFF DUP2 GT ISZERO PUSH2 0x102D JUMPI PUSH2 0x102C PUSH2 0xE6F JUMP JUMPDEST JUMPDEST PUSH2 0x1039 DUP5 DUP3 DUP6 ADD PUSH2 0xFCB JUMP JUMPDEST SWAP2 POP POP SWAP3 SWAP2 POP POP JUMP JUMPDEST PUSH32 0x4E487B7100000000000000000000000000000000000000000000000000000000 PUSH1 0x0 MSTORE PUSH1 0x32 PUSH1 0x4 MSTORE PUSH1 0x24 PUSH1 0x0 REVERT JUMPDEST PUSH1 0x0 PUSH2 0x107C DUP3 PUSH2 0xD6B JUMP JUMPDEST SWAP2 POP PUSH2 0x1087 DUP4 PUSH2 0xD6B JUMP JUMPDEST SWAP3 POP DUP3 DUP3 ADD SWAP1 POP DUP1 DUP3 GT ISZERO PUSH2 0x109F JUMPI PUSH2 0x109E PUSH2 0xDA4 JUMP JUMPDEST JUMPDEST SWAP3 SWAP2 POP POP JUMP JUMPDEST PUSH2 0x10AE DUP2 PUSH2 0xE24 JUMP JUMPDEST DUP2 EQ PUSH2 0x10B9 JUMPI PUSH1 0x0 DUP1 REVERT JUMPDEST POP JUMP JUMPDEST PUSH1 0x0 DUP2 CALLDATALOAD SWAP1 POP PUSH2 0x10CB DUP2 PUSH2 0x10A5 JUMP JUMPDEST SWAP3 SWAP2 POP POP JUMP JUMPDEST PUSH1 0x0 DUP2 CALLDATALOAD SWAP1 POP PUSH2 0x10E0 DUP2 PUSH2 0xF36 JUMP JUMPDEST SWAP3 SWAP2 POP POP JUMP JUMPDEST PUSH1 0x0 DUP1 REVERT JUMPDEST PUSH1 0x0 PUSH8 0xFFFFFFFFFFFFFFFF DUP3 GT ISZERO PUSH2 0x1106 JUMPI PUSH2 0x1105 PUSH2 0xE8A JUMP JUMPDEST JUMPDEST PUSH2 0x110F DUP3 PUSH2 0xE79 JUMP JUMPDEST SWAP1 POP PUSH1 0x20 DUP2 ADD SWAP1 POP SWAP2 SWAP1 POP JUMP JUMPDEST DUP3 DUP2 DUP4 CALLDATACOPY PUSH1 0x0 DUP4 DUP4 ADD MSTORE POP POP POP JUMP JUMPDEST PUSH1 0x0 PUSH2 0x113E PUSH2 0x1139 DUP5 PUSH2 0x10EB JUMP JUMPDEST PUSH2 0xEEA JUMP JUMPDEST SWAP1 POP DUP3 DUP2 MSTORE PUSH1 0x20 DUP2 ADD DUP5 DUP5 DUP5 ADD GT ISZERO PUSH2 0x115A JUMPI PUSH2 0x1159 PUSH2 0x10E6 JUMP JUMPDEST JUMPDEST PUSH2 0x1165 DUP5 DUP3 DUP6 PUSH2 0x111C JUMP JUMPDEST POP SWAP4 SWAP3 POP POP POP JUMP JUMPDEST PUSH1 0x0 DUP3 PUSH1 0x1F DUP4 ADD SLT PUSH2 0x1182 JUMPI PUSH2 0x1181 PUSH2 0xE74 JUMP JUMPDEST JUMPDEST DUP2 CALLDATALOAD PUSH2 0x1192 DUP5 DUP3 PUSH1 0x20 DUP7 ADD PUSH2 0x112B JUMP JUMPDEST SWAP2 POP POP SWAP3 SWAP2 POP POP JUMP JUMPDEST PUSH1 0x0 DUP1 PUSH1 0x0 DUP1 PUSH1 0x80 DUP6 DUP8 SUB SLT ISZERO PUSH2 0x11B5 JUMPI PUSH2 0x11B4 PUSH2 0xE6A JUMP JUMPDEST JUMPDEST PUSH1 0x0 PUSH2 0x11C3 DUP8 DUP3 DUP9 ADD PUSH2 0x10BC JUMP JUMPDEST SWAP5 POP POP PUSH1 0x20 PUSH2 0x11D4 DUP8 DUP3 DUP9 ADD PUSH2 0x10BC JUMP JUMPDEST SWAP4 POP POP PUSH1 0x40 PUSH2 0x11E5 DUP8 DUP3 DUP9 ADD PUSH2 0x10D1 JUMP JUMPDEST SWAP3 POP POP PUSH1 0x60 DUP6 ADD CALLDATALOAD PUSH8 0xFFFFFFFFFFFFFFFF DUP2 GT ISZERO PUSH2 0x1206 JUMPI PUSH2 0x1205 PUSH2 0xE6F JUMP JUMPDEST JUMPDEST PUSH2 0x1212 DUP8 DUP3 DUP9 ADD PUSH2 0x116D JUMP JUMPDEST SWAP2 POP POP SWAP3 SWAP6 SWAP2 SWAP5 POP SWAP3 POP JUMP JUMPDEST PUSH1 0x0 PUSH32 0xFFFFFFFF00000000000000000000000000000000000000000000000000000000 DUP3 AND SWAP1 POP SWAP2 SWAP1 POP JUMP JUMPDEST PUSH2 0x1253 DUP2 PUSH2 0x121E JUMP JUMPDEST DUP3 MSTORE POP POP JUMP JUMPDEST PUSH1 0x0 PUSH1 0x20 DUP3 ADD SWAP1 POP PUSH2 0x126E PUSH1 0x0 DUP4 ADD DUP5 PUSH2 0x124A JUMP JUMPDEST SWAP3 SWAP2 POP POP JUMP JUMPDEST PUSH1 0x0 PUSH1 0x20 DUP3 DUP5 SUB SLT ISZERO PUSH2 0x128A JUMPI PUSH2 0x1289 PUSH2 0xE6A JUMP JUMPDEST JUMPDEST PUSH1 0x0 PUSH2 0x1298 DUP5 DUP3 DUP6 ADD PUSH2 0x10D1 JUMP JUMPDEST SWAP2 POP POP SWAP3 SWAP2 POP POP JUMP JUMPDEST PUSH2 0x12AA DUP2 PUSH2 0xD6B JUMP JUMPDEST DUP3 MSTORE POP POP JUMP JUMPDEST PUSH1 0x0 PUSH1 0x20 DUP3 ADD SWAP1 POP PUSH2 0x12C5 PUSH1 0x0 DUP4 ADD DUP5 PUSH2 0x12A1 JUMP JUMPDEST SWAP3 SWAP2 POP POP JUMP JUMPDEST PUSH1 0x0 PUSH1 0x20 DUP3 DUP5 SUB SLT ISZERO PUSH2 0x12E1 JUMPI PUSH2 0x12E0 PUSH2 0xE6A JUMP JUMPDEST JUMPDEST PUSH1 0x0 PUSH2 0x12EF DUP5 DUP3 DUP6 ADD PUSH2 0x10BC JUMP JUMPDEST SWAP2 POP POP SWAP3 SWAP2 POP POP JUMP JUMPDEST PUSH32 0x5265656E7472616E637947756172643A207265656E7472616E742063616C6C00 PUSH1 0x0 DUP3 ADD MSTORE POP JUMP JUMPDEST PUSH1 0x0 PUSH2 0x132E PUSH1 0x1F DUP4 PUSH2 0xCEE JUMP JUMPDEST SWAP2 POP PUSH2 0x1339 DUP3 PUSH2 0x12F8 JUMP JUMPDEST PUSH1 0x20 DUP3 ADD SWAP1 POP SWAP2 SWAP1 POP JUMP JUMPDEST PUSH1 0x0 PUSH1 0x20 DUP3 ADD SWAP1 POP DUP2 DUP2 SUB PUSH1 0x0 DUP4 ADD MSTORE PUSH2 0x135D DUP2 PUSH2 0x1321 JUMP JUMPDEST SWAP1 POP SWAP2 SWAP1 POP JUMP JUMPDEST PUSH32 0x596F7520617265206E6F7420746865206F776E65722E00000000000000000000 PUSH1 0x0 DUP3 ADD MSTORE POP JUMP JUMPDEST PUSH1 0x0 PUSH2 0x139A PUSH1 0x16 DUP4 PUSH2 0xCEE JUMP JUMPDEST SWAP2 POP PUSH2 0x13A5 DUP3 PUSH2 0x1364 JUMP JUMPDEST PUSH1 0x20 DUP3 ADD SWAP1 POP SWAP2 SWAP1 POP JUMP JUMPDEST PUSH1 0x0 PUSH1 0x20 DUP3 ADD SWAP1 POP DUP2 DUP2 SUB PUSH1 0x0 DUP4 ADD MSTORE PUSH2 0x13C9 DUP2 PUSH2 0x138D JUMP JUMPDEST SWAP1 POP SWAP2 SWAP1 POP JUMP JUMPDEST PUSH1 0x0 DUP2 SWAP1 POP SWAP3 SWAP2 POP POP JUMP JUMPDEST POP JUMP JUMPDEST PUSH1 0x0 PUSH2 0x13EB PUSH1 0x0 DUP4 PUSH2 0x13D0 JUMP JUMPDEST SWAP2 POP PUSH2 0x13F6 DUP3 PUSH2 0x13DB JUMP JUMPDEST PUSH1 0x0 DUP3 ADD SWAP1 POP SWAP2 SWAP1 POP JUMP JUMPDEST PUSH1 0x0 PUSH2 0x140C DUP3 PUSH2 0x13DE JUMP JUMPDEST SWAP2 POP DUP2 SWAP1 POP SWAP2 SWAP1 POP JUMP JUMPDEST PUSH1 0x0 PUSH1 0x60 DUP3 ADD SWAP1 POP PUSH2 0x142B PUSH1 0x0 DUP4 ADD DUP7 PUSH2 0xE36 JUMP JUMPDEST PUSH2 0x1438 PUSH1 0x20 DUP4 ADD DUP6 PUSH2 0xE36 JUMP JUMPDEST PUSH2 0x1445 PUSH1 0x40 DUP4 ADD DUP5 PUSH2 0x12A1 JUMP JUMPDEST SWAP5 SWAP4 POP POP POP POP JUMP JUMPDEST PUSH32 0x4F776E61626C653A206E6577206F776E657220697320746865207A65726F2061 PUSH1 0x0 DUP3 ADD MSTORE PUSH32 0x6464726573730000000000000000000000000000000000000000000000000000 PUSH1 0x20 DUP3 ADD MSTORE POP JUMP JUMPDEST PUSH1 0x0 PUSH2 0x14A9 PUSH1 0x26 DUP4 PUSH2 0xCEE JUMP JUMPDEST SWAP2 POP PUSH2 0x14B4 DUP3 PUSH2 0x144D JUMP JUMPDEST PUSH1 0x40 DUP3 ADD SWAP1 POP SWAP2 SWAP1 POP JUMP JUMPDEST PUSH1 0x0 PUSH1 0x20 DUP3 ADD SWAP1 POP DUP2 DUP2 SUB PUSH1 0x0 DUP4 ADD MSTORE PUSH2 0x14D8 DUP2 PUSH2 0x149C JUMP JUMPDEST SWAP1 POP SWAP2 SWAP1 POP JUMP JUMPDEST PUSH32 0x436F756E7465723A2064656372656D656E74206F766572666C6F770000000000 PUSH1 0x0 DUP3 ADD MSTORE POP JUMP JUMPDEST PUSH1 0x0 PUSH2 0x1515 PUSH1 0x1B DUP4 PUSH2 0xCEE JUMP JUMPDEST SWAP2 POP PUSH2 0x1520 DUP3 PUSH2 0x14DF JUMP JUMPDEST PUSH1 0x20 DUP3 ADD SWAP1 POP SWAP2 SWAP1 POP JUMP JUMPDEST PUSH1 0x0 PUSH1 0x20 DUP3 ADD SWAP1 POP DUP2 DUP2 SUB PUSH1 0x0 DUP4 ADD MSTORE PUSH2 0x1544 DUP2 PUSH2 0x1508 JUMP JUMPDEST SWAP1 POP SWAP2 SWAP1 POP JUMP JUMPDEST PUSH32 0x4F776E61626C653A2063616C6C6572206973206E6F7420746865206F776E6572 PUSH1 0x0 DUP3 ADD MSTORE POP JUMP JUMPDEST PUSH1 0x0 PUSH2 0x1581 PUSH1 0x20 DUP4 PUSH2 0xCEE JUMP JUMPDEST SWAP2 POP PUSH2 0x158C DUP3 PUSH2 0x154B JUMP JUMPDEST PUSH1 0x20 DUP3 ADD SWAP1 POP SWAP2 SWAP1 POP JUMP JUMPDEST PUSH1 0x0 PUSH1 0x20 DUP3 ADD SWAP1 POP DUP2 DUP2 SUB PUSH1 0x0 DUP4 ADD MSTORE PUSH2 0x15B0 DUP2 PUSH2 0x1574 JUMP JUMPDEST SWAP1 POP SWAP2 SWAP1 POP JUMP INVALID LOG2 PUSH5 0x6970667358 0x22 SLT KECCAK256 0xF7 DUP3 0xC9 PUSH23 0xAFF4B1241A8EB5DDE63152623F5232F5A577D674CE27C9 SLT DUP10 PUSH28 0xC1B564736F6C63430008110033000000000000000000000000000000 "
				},
				"gasEstimates": {
					"creation": {
						"codeDepositCost": "1122600",
						"executionCost": "infinite",
						"totalCost": "infinite"
					},
					"external": {
						"calculateRewards(uint256)": "infinite",
						"claim(uint256)": "infinite",
						"onERC721Received(address,address,uint256,bytes)": "infinite",
						"owner()": "2522",
						"renounceOwnership()": "30465",
						"rewards(uint256)": "infinite",
						"setNftContact(address)": "27096",
						"stake(uint256)": "infinite",
						"tokenOwnedBy(uint256)": "2928",
						"transferOwnership(address)": "30810",
						"unstake(uint256)": "infinite"
					}
				},
				"methodIdentifiers": {
					"calculateRewards(uint256)": "d3ea4350",
					"claim(uint256)": "379607f5",
					"onERC721Received(address,address,uint256,bytes)": "150b7a02",
					"owner()": "8da5cb5b",
					"renounceOwnership()": "715018a6",
					"rewards(uint256)": "f301af42",
					"setNftContact(address)": "fd71c650",
					"stake(uint256)": "a694fc3a",
					"tokenOwnedBy(uint256)": "8488cc41",
					"transferOwnership(address)": "f2fde38b",
					"unstake(uint256)": "2e17de78"
				}
			},
			"storageLayout": {
				"storage": [
					{
						"astId": 7,
						"contract": "contracts/NFTStaking.sol:SacredTemple",
						"label": "_owner",
						"offset": 0,
						"slot": "0",
						"type": "t_address"
					},
					{
						"astId": 123,
						"contract": "contracts/NFTStaking.sol:SacredTemple",
						"label": "_status",
						"offset": 0,
						"slot": "1",
						"type": "t_uint256"
					},
					{
						"astId": 445,
						"contract": "contracts/NFTStaking.sol:SacredTemple",
						"label": "_nftContract",
						"offset": 0,
						"slot": "2",
						"type": "t_address"
					},
					{
						"astId": 452,
						"contract": "contracts/NFTStaking.sol:SacredTemple",
						"label": "_stakedNFTCounter",
						"offset": 0,
						"slot": "3",
						"type": "t_struct(Counter)341_storage"
					},
					{
						"astId": 478,
						"contract": "contracts/NFTStaking.sol:SacredTemple",
						"label": "tokenOwnedBy",
						"offset": 0,
						"slot": "4",
						"type": "t_mapping(t_uint256,t_address)"
					},
					{
						"astId": 482,
						"contract": "contracts/NFTStaking.sol:SacredTemple",
						"label": "rewards",
						"offset": 0,
						"slot": "5",
						"type": "t_mapping(t_uint256,t_uint256)"
					},
					{
						"astId": 485,
						"contract": "contracts/NFTStaking.sol:SacredTemple",
						"label": "tokenStaked",
						"offset": 0,
						"slot": "6",
						"type": "t_array(t_uint256)dyn_storage"
					}
				],
				"types": {
					"t_address": {
						"encoding": "inplace",
						"label": "address",
						"numberOfBytes": "20"
					},
					"t_array(t_uint256)dyn_storage": {
						"base": "t_uint256",
						"encoding": "dynamic_array",
						"label": "uint256[]",
						"numberOfBytes": "32"
					},
					"t_mapping(t_uint256,t_address)": {
						"encoding": "mapping",
						"key": "t_uint256",
						"label": "mapping(uint256 => address)",
						"numberOfBytes": "32",
						"value": "t_address"
					},
					"t_mapping(t_uint256,t_uint256)": {
						"encoding": "mapping",
						"key": "t_uint256",
						"label": "mapping(uint256 => uint256)",
						"numberOfBytes": "32",
						"value": "t_uint256"
					},
					"t_struct(Counter)341_storage": {
						"encoding": "inplace",
						"label": "struct Counters.Counter",
						"members": [
							{
								"astId": 340,
								"contract": "contracts/NFTStaking.sol:SacredTemple",
								"label": "_value",
								"offset": 0,
								"slot": "0",
								"type": "t_uint256"
							}
						],
						"numberOfBytes": "32"
					},
					"t_uint256": {
						"encoding": "inplace",
						"label": "uint256",
						"numberOfBytes": "32"
					}
				}
			},
			"userdoc": {
				"kind": "user",
				"methods": {},
				"version": 1
			}
		}
	}
}