{
	"contracts/NFTStaking.sol": {
		"SacredTemple": {
			"abi": [
				{
					"inputs": [
						{
							"internalType": "contract IERC721",
							"name": "nftContract_",
							"type": "address"
						}
					],
					"stateMutability": "nonpayable",
					"type": "constructor"
				},
				{
					"anonymous": false,
					"inputs": [
						{
							"indexed": false,
							"internalType": "address",
							"name": "owner",
							"type": "address"
						},
						{
							"indexed": false,
							"internalType": "uint256",
							"name": "amount",
							"type": "uint256"
						}
					],
					"name": "Claimed",
					"type": "event"
				},
				{
					"anonymous": false,
					"inputs": [
						{
							"indexed": false,
							"internalType": "address",
							"name": "owner",
							"type": "address"
						},
						{
							"indexed": false,
							"internalType": "uint256",
							"name": "tokenId",
							"type": "uint256"
						},
						{
							"indexed": false,
							"internalType": "uint256",
							"name": "value",
							"type": "uint256"
						}
					],
					"name": "NFTStaked",
					"type": "event"
				},
				{
					"anonymous": false,
					"inputs": [
						{
							"indexed": false,
							"internalType": "address",
							"name": "owner",
							"type": "address"
						},
						{
							"indexed": false,
							"internalType": "uint256",
							"name": "tokenId",
							"type": "uint256"
						},
						{
							"indexed": false,
							"internalType": "uint256",
							"name": "value",
							"type": "uint256"
						}
					],
					"name": "NFTUnstaked",
					"type": "event"
				},
				{
					"anonymous": false,
					"inputs": [
						{
							"indexed": true,
							"internalType": "address",
							"name": "previousOwner",
							"type": "address"
						},
						{
							"indexed": true,
							"internalType": "address",
							"name": "newOwner",
							"type": "address"
						}
					],
					"name": "OwnershipTransferred",
					"type": "event"
				},
				{
					"inputs": [
						{
							"internalType": "address",
							"name": "",
							"type": "address"
						},
						{
							"internalType": "address",
							"name": "",
							"type": "address"
						},
						{
							"internalType": "uint256",
							"name": "",
							"type": "uint256"
						},
						{
							"internalType": "bytes",
							"name": "",
							"type": "bytes"
						}
					],
					"name": "onERC721Received",
					"outputs": [
						{
							"internalType": "bytes4",
							"name": "",
							"type": "bytes4"
						}
					],
					"stateMutability": "nonpayable",
					"type": "function"
				},
				{
					"inputs": [],
					"name": "owner",
					"outputs": [
						{
							"internalType": "address",
							"name": "",
							"type": "address"
						}
					],
					"stateMutability": "view",
					"type": "function"
				},
				{
					"inputs": [],
					"name": "renounceOwnership",
					"outputs": [],
					"stateMutability": "nonpayable",
					"type": "function"
				},
				{
					"inputs": [
						{
							"internalType": "address",
							"name": "",
							"type": "address"
						}
					],
					"name": "rewards",
					"outputs": [
						{
							"internalType": "uint256",
							"name": "",
							"type": "uint256"
						}
					],
					"stateMutability": "view",
					"type": "function"
				},
				{
					"inputs": [
						{
							"internalType": "uint256",
							"name": "tokenId",
							"type": "uint256"
						}
					],
					"name": "stake",
					"outputs": [],
					"stateMutability": "nonpayable",
					"type": "function"
				},
				{
					"inputs": [
						{
							"internalType": "uint256",
							"name": "",
							"type": "uint256"
						}
					],
					"name": "tokenOwnedBy",
					"outputs": [
						{
							"internalType": "address",
							"name": "",
							"type": "address"
						}
					],
					"stateMutability": "view",
					"type": "function"
				},
				{
					"inputs": [
						{
							"internalType": "address",
							"name": "newOwner",
							"type": "address"
						}
					],
					"name": "transferOwnership",
					"outputs": [],
					"stateMutability": "nonpayable",
					"type": "function"
				},
				{
					"inputs": [
						{
							"internalType": "uint256",
							"name": "tokenId",
							"type": "uint256"
						}
					],
					"name": "unstake",
					"outputs": [],
					"stateMutability": "nonpayable",
					"type": "function"
				},
				{
					"stateMutability": "payable",
					"type": "receive"
				}
			],
			"devdoc": {
				"kind": "dev",
				"methods": {
					"onERC721Received(address,address,uint256,bytes)": {
						"details": "See {IERC721Receiver-onERC721Received}. Always returns `IERC721Receiver.onERC721Received.selector`."
					},
					"owner()": {
						"details": "Returns the address of the current owner."
					},
					"renounceOwnership()": {
						"details": "Leaves the contract without owner. It will not be possible to call `onlyOwner` functions anymore. Can only be called by the current owner. NOTE: Renouncing ownership will leave the contract without an owner, thereby removing any functionality that is only available to the owner."
					},
					"transferOwnership(address)": {
						"details": "Transfers ownership of the contract to a new account (`newOwner`). Can only be called by the current owner."
					}
				},
				"version": 1
			},
			"evm": {
				"assembly": "    /* \"contracts/NFTStaking.sol\":386:1568  contract SacredTemple is Ownable, ERC721Holder, ReentrancyGuard {... */\n  mstore(0x40, 0x80)\n    /* \"contracts/NFTStaking.sol\":866:945  constructor (IERC721 nftContract_) {... */\n  callvalue\n  dup1\n  iszero\n  tag_1\n  jumpi\n  0x00\n  dup1\n  revert\ntag_1:\n  pop\n  mload(0x40)\n  sub(codesize, bytecodeSize)\n  dup1\n  bytecodeSize\n  dup4\n  codecopy\n  dup2\n  dup2\n  add\n  0x40\n  mstore\n  dup2\n  add\n  swap1\n  tag_2\n  swap2\n  swap1\n  tag_3\n  jump\t// in\ntag_2:\n    /* \"@openzeppelin/contracts@4.7.3/access/Ownable.sol\":936:968  _transferOwnership(_msgSender()) */\n  tag_8\n    /* \"@openzeppelin/contracts@4.7.3/access/Ownable.sol\":955:967  _msgSender() */\n  tag_9\n    /* \"@openzeppelin/contracts@4.7.3/access/Ownable.sol\":955:965  _msgSender */\n  shl(0x20, tag_10)\n    /* \"@openzeppelin/contracts@4.7.3/access/Ownable.sol\":955:967  _msgSender() */\n  0x20\n  shr\n  jump\t// in\ntag_9:\n    /* \"@openzeppelin/contracts@4.7.3/access/Ownable.sol\":936:954  _transferOwnership */\n  shl(0x20, tag_11)\n    /* \"@openzeppelin/contracts@4.7.3/access/Ownable.sol\":936:968  _transferOwnership(_msgSender()) */\n  0x20\n  shr\n  jump\t// in\ntag_8:\n    /* \"@openzeppelin/contracts@4.7.3/security/ReentrancyGuard.sol\":1701:1702  1 */\n  0x01\n    /* \"@openzeppelin/contracts@4.7.3/security/ReentrancyGuard.sol\":1806:1813  _status */\n  dup1\n    /* \"@openzeppelin/contracts@4.7.3/security/ReentrancyGuard.sol\":1806:1828  _status = _NOT_ENTERED */\n  dup2\n  swap1\n  sstore\n  pop\n    /* \"contracts/NFTStaking.sol\":926:938  nftContract_ */\n  dup1\n    /* \"contracts/NFTStaking.sol\":911:923  _nftContract */\n  0x02\n  0x00\n    /* \"contracts/NFTStaking.sol\":911:938  _nftContract = nftContract_ */\n  0x0100\n  exp\n  dup2\n  sload\n  dup2\n  0xffffffffffffffffffffffffffffffffffffffff\n  mul\n  not\n  and\n  swap1\n  dup4\n  0xffffffffffffffffffffffffffffffffffffffff\n  and\n  mul\n  or\n  swap1\n  sstore\n  pop\n    /* \"contracts/NFTStaking.sol\":866:945  constructor (IERC721 nftContract_) {... */\n  pop\n    /* \"contracts/NFTStaking.sol\":386:1568  contract SacredTemple is Ownable, ERC721Holder, ReentrancyGuard {... */\n  jump(tag_14)\n    /* \"@openzeppelin/contracts@4.7.3/utils/Context.sol\":640:736  function _msgSender() internal view virtual returns (address) {... */\ntag_10:\n    /* \"@openzeppelin/contracts@4.7.3/utils/Context.sol\":693:700  address */\n  0x00\n    /* \"@openzeppelin/contracts@4.7.3/utils/Context.sol\":719:729  msg.sender */\n  caller\n    /* \"@openzeppelin/contracts@4.7.3/utils/Context.sol\":712:729  return msg.sender */\n  swap1\n  pop\n    /* \"@openzeppelin/contracts@4.7.3/utils/Context.sol\":640:736  function _msgSender() internal view virtual returns (address) {... */\n  swap1\n  jump\t// out\n    /* \"@openzeppelin/contracts@4.7.3/access/Ownable.sol\":2433:2620  function _transferOwnership(address newOwner) internal virtual {... */\ntag_11:\n    /* \"@openzeppelin/contracts@4.7.3/access/Ownable.sol\":2506:2522  address oldOwner */\n  0x00\n    /* \"@openzeppelin/contracts@4.7.3/access/Ownable.sol\":2525:2531  _owner */\n  dup1\n  0x00\n  swap1\n  sload\n  swap1\n  0x0100\n  exp\n  swap1\n  div\n  0xffffffffffffffffffffffffffffffffffffffff\n  and\n    /* \"@openzeppelin/contracts@4.7.3/access/Ownable.sol\":2506:2531  address oldOwner = _owner */\n  swap1\n  pop\n    /* \"@openzeppelin/contracts@4.7.3/access/Ownable.sol\":2550:2558  newOwner */\n  dup2\n    /* \"@openzeppelin/contracts@4.7.3/access/Ownable.sol\":2541:2547  _owner */\n  0x00\n  dup1\n    /* \"@openzeppelin/contracts@4.7.3/access/Ownable.sol\":2541:2558  _owner = newOwner */\n  0x0100\n  exp\n  dup2\n  sload\n  dup2\n  0xffffffffffffffffffffffffffffffffffffffff\n  mul\n  not\n  and\n  swap1\n  dup4\n  0xffffffffffffffffffffffffffffffffffffffff\n  and\n  mul\n  or\n  swap1\n  sstore\n  pop\n    /* \"@openzeppelin/contracts@4.7.3/access/Ownable.sol\":2604:2612  newOwner */\n  dup2\n    /* \"@openzeppelin/contracts@4.7.3/access/Ownable.sol\":2573:2613  OwnershipTransferred(oldOwner, newOwner) */\n  0xffffffffffffffffffffffffffffffffffffffff\n  and\n    /* \"@openzeppelin/contracts@4.7.3/access/Ownable.sol\":2594:2602  oldOwner */\n  dup2\n    /* \"@openzeppelin/contracts@4.7.3/access/Ownable.sol\":2573:2613  OwnershipTransferred(oldOwner, newOwner) */\n  0xffffffffffffffffffffffffffffffffffffffff\n  and\n  0x8be0079c531659141344cd1fd0a4f28419497f9722a3daafe3b4186f6b6457e0\n  mload(0x40)\n  mload(0x40)\n  dup1\n  swap2\n  sub\n  swap1\n  log3\n    /* \"@openzeppelin/contracts@4.7.3/access/Ownable.sol\":2496:2620  {... */\n  pop\n    /* \"@openzeppelin/contracts@4.7.3/access/Ownable.sol\":2433:2620  function _transferOwnership(address newOwner) internal virtual {... */\n  pop\n  jump\t// out\n    /* \"#utility.yul\":7:180   */\ntag_18:\n    /* \"#utility.yul\":79:84   */\n  0x00\n    /* \"#utility.yul\":110:116   */\n  dup2\n    /* \"#utility.yul\":104:117   */\n  mload\n    /* \"#utility.yul\":95:117   */\n  swap1\n  pop\n    /* \"#utility.yul\":126:174   */\n  tag_20\n    /* \"#utility.yul\":168:173   */\n  dup2\n    /* \"#utility.yul\":126:174   */\n  tag_21\n  jump\t// in\ntag_20:\n    /* \"#utility.yul\":7:180   */\n  swap3\n  swap2\n  pop\n  pop\n  jump\t// out\n    /* \"#utility.yul\":186:567   */\ntag_3:\n    /* \"#utility.yul\":271:277   */\n  0x00\n    /* \"#utility.yul\":320:322   */\n  0x20\n    /* \"#utility.yul\":308:317   */\n  dup3\n    /* \"#utility.yul\":299:306   */\n  dup5\n    /* \"#utility.yul\":295:318   */\n  sub\n    /* \"#utility.yul\":291:323   */\n  slt\n    /* \"#utility.yul\":288:407   */\n  iszero\n  tag_23\n  jumpi\n    /* \"#utility.yul\":326:405   */\n  tag_24\n  tag_25\n  jump\t// in\ntag_24:\n    /* \"#utility.yul\":288:407   */\ntag_23:\n    /* \"#utility.yul\":446:447   */\n  0x00\n    /* \"#utility.yul\":471:550   */\n  tag_26\n    /* \"#utility.yul\":542:549   */\n  dup5\n    /* \"#utility.yul\":533:539   */\n  dup3\n    /* \"#utility.yul\":522:531   */\n  dup6\n    /* \"#utility.yul\":518:540   */\n  add\n    /* \"#utility.yul\":471:550   */\n  tag_18\n  jump\t// in\ntag_26:\n    /* \"#utility.yul\":461:550   */\n  swap2\n  pop\n    /* \"#utility.yul\":417:560   */\n  pop\n    /* \"#utility.yul\":186:567   */\n  swap3\n  swap2\n  pop\n  pop\n  jump\t// out\n    /* \"#utility.yul\":654:750   */\ntag_29:\n    /* \"#utility.yul\":691:698   */\n  0x00\n    /* \"#utility.yul\":720:744   */\n  tag_31\n    /* \"#utility.yul\":738:743   */\n  dup3\n    /* \"#utility.yul\":720:744   */\n  tag_32\n  jump\t// in\ntag_31:\n    /* \"#utility.yul\":709:744   */\n  swap1\n  pop\n    /* \"#utility.yul\":654:750   */\n  swap2\n  swap1\n  pop\n  jump\t// out\n    /* \"#utility.yul\":756:867   */\ntag_33:\n    /* \"#utility.yul\":808:815   */\n  0x00\n    /* \"#utility.yul\":837:861   */\n  tag_35\n    /* \"#utility.yul\":855:860   */\n  dup3\n    /* \"#utility.yul\":837:861   */\n  tag_29\n  jump\t// in\ntag_35:\n    /* \"#utility.yul\":826:861   */\n  swap1\n  pop\n    /* \"#utility.yul\":756:867   */\n  swap2\n  swap1\n  pop\n  jump\t// out\n    /* \"#utility.yul\":873:999   */\ntag_32:\n    /* \"#utility.yul\":910:917   */\n  0x00\n    /* \"#utility.yul\":950:992   */\n  0xffffffffffffffffffffffffffffffffffffffff\n    /* \"#utility.yul\":943:948   */\n  dup3\n    /* \"#utility.yul\":939:993   */\n  and\n    /* \"#utility.yul\":928:993   */\n  swap1\n  pop\n    /* \"#utility.yul\":873:999   */\n  swap2\n  swap1\n  pop\n  jump\t// out\n    /* \"#utility.yul\":1128:1245   */\ntag_25:\n    /* \"#utility.yul\":1237:1238   */\n  0x00\n    /* \"#utility.yul\":1234:1235   */\n  dup1\n    /* \"#utility.yul\":1227:1239   */\n  revert\n    /* \"#utility.yul\":1251:1403   */\ntag_21:\n    /* \"#utility.yul\":1339:1378   */\n  tag_41\n    /* \"#utility.yul\":1372:1377   */\n  dup2\n    /* \"#utility.yul\":1339:1378   */\n  tag_33\n  jump\t// in\ntag_41:\n    /* \"#utility.yul\":1332:1337   */\n  dup2\n    /* \"#utility.yul\":1329:1379   */\n  eq\n    /* \"#utility.yul\":1319:1397   */\n  tag_42\n  jumpi\n    /* \"#utility.yul\":1393:1394   */\n  0x00\n    /* \"#utility.yul\":1390:1391   */\n  dup1\n    /* \"#utility.yul\":1383:1395   */\n  revert\n    /* \"#utility.yul\":1319:1397   */\ntag_42:\n    /* \"#utility.yul\":1251:1403   */\n  pop\n  jump\t// out\n    /* \"contracts/NFTStaking.sol\":386:1568  contract SacredTemple is Ownable, ERC721Holder, ReentrancyGuard {... */\ntag_14:\n  dataSize(sub_0)\n  dup1\n  dataOffset(sub_0)\n  0x00\n  codecopy\n  0x00\n  return\nstop\n\nsub_0: assembly {\n        /* \"contracts/NFTStaking.sol\":386:1568  contract SacredTemple is Ownable, ERC721Holder, ReentrancyGuard {... */\n      mstore(0x40, 0x80)\n      jumpi(tag_1, lt(calldatasize, 0x04))\n      shr(0xe0, calldataload(0x00))\n      dup1\n      0x8488cc41\n      gt\n      tag_11\n      jumpi\n      dup1\n      0x8488cc41\n      eq\n      tag_7\n      jumpi\n      dup1\n      0x8da5cb5b\n      eq\n      tag_8\n      jumpi\n      dup1\n      0xa694fc3a\n      eq\n      tag_9\n      jumpi\n      dup1\n      0xf2fde38b\n      eq\n      tag_10\n      jumpi\n      jump(tag_2)\n    tag_11:\n      dup1\n      0x0700037d\n      eq\n      tag_3\n      jumpi\n      dup1\n      0x150b7a02\n      eq\n      tag_4\n      jumpi\n      dup1\n      0x2e17de78\n      eq\n      tag_5\n      jumpi\n      dup1\n      0x715018a6\n      eq\n      tag_6\n      jumpi\n      jump(tag_2)\n    tag_1:\n      jumpi(tag_2, calldatasize)\n      stop\n    tag_2:\n      0x00\n      dup1\n      revert\n        /* \"contracts/NFTStaking.sol\":816:859  mapping (address => uint256) public rewards */\n    tag_3:\n      callvalue\n      dup1\n      iszero\n      tag_14\n      jumpi\n      0x00\n      dup1\n      revert\n    tag_14:\n      pop\n      tag_15\n      0x04\n      dup1\n      calldatasize\n      sub\n      dup2\n      add\n      swap1\n      tag_16\n      swap2\n      swap1\n      tag_17\n      jump\t// in\n    tag_16:\n      tag_18\n      jump\t// in\n    tag_15:\n      mload(0x40)\n      tag_19\n      swap2\n      swap1\n      tag_20\n      jump\t// in\n    tag_19:\n      mload(0x40)\n      dup1\n      swap2\n      sub\n      swap1\n      return\n        /* \"@openzeppelin/contracts@4.7.3/token/ERC721/utils/ERC721Holder.sol\":588:788  function onERC721Received(... */\n    tag_4:\n      callvalue\n      dup1\n      iszero\n      tag_21\n      jumpi\n      0x00\n      dup1\n      revert\n    tag_21:\n      pop\n      tag_22\n      0x04\n      dup1\n      calldatasize\n      sub\n      dup2\n      add\n      swap1\n      tag_23\n      swap2\n      swap1\n      tag_24\n      jump\t// in\n    tag_23:\n      tag_25\n      jump\t// in\n    tag_22:\n      mload(0x40)\n      tag_26\n      swap2\n      swap1\n      tag_27\n      jump\t// in\n    tag_26:\n      mload(0x40)\n      dup1\n      swap2\n      sub\n      swap1\n      return\n        /* \"contracts/NFTStaking.sol\":1163:1458  function unstake(uint256 tokenId) nonReentrant external {... */\n    tag_5:\n      callvalue\n      dup1\n      iszero\n      tag_28\n      jumpi\n      0x00\n      dup1\n      revert\n    tag_28:\n      pop\n      tag_29\n      0x04\n      dup1\n      calldatasize\n      sub\n      dup2\n      add\n      swap1\n      tag_30\n      swap2\n      swap1\n      tag_31\n      jump\t// in\n    tag_30:\n      tag_32\n      jump\t// in\n    tag_29:\n      stop\n        /* \"@openzeppelin/contracts@4.7.3/access/Ownable.sol\":1831:1932  function renounceOwnership() public virtual onlyOwner {... */\n    tag_6:\n      callvalue\n      dup1\n      iszero\n      tag_33\n      jumpi\n      0x00\n      dup1\n      revert\n    tag_33:\n      pop\n      tag_34\n      tag_35\n      jump\t// in\n    tag_34:\n      stop\n        /* \"contracts/NFTStaking.sol\":762:810  mapping (uint256 => address) public tokenOwnedBy */\n    tag_7:\n      callvalue\n      dup1\n      iszero\n      tag_36\n      jumpi\n      0x00\n      dup1\n      revert\n    tag_36:\n      pop\n      tag_37\n      0x04\n      dup1\n      calldatasize\n      sub\n      dup2\n      add\n      swap1\n      tag_38\n      swap2\n      swap1\n      tag_31\n      jump\t// in\n    tag_38:\n      tag_39\n      jump\t// in\n    tag_37:\n      mload(0x40)\n      tag_40\n      swap2\n      swap1\n      tag_41\n      jump\t// in\n    tag_40:\n      mload(0x40)\n      dup1\n      swap2\n      sub\n      swap1\n      return\n        /* \"@openzeppelin/contracts@4.7.3/access/Ownable.sol\":1201:1286  function owner() public view virtual returns (address) {... */\n    tag_8:\n      callvalue\n      dup1\n      iszero\n      tag_42\n      jumpi\n      0x00\n      dup1\n      revert\n    tag_42:\n      pop\n      tag_43\n      tag_44\n      jump\t// in\n    tag_43:\n      mload(0x40)\n      tag_45\n      swap2\n      swap1\n      tag_41\n      jump\t// in\n    tag_45:\n      mload(0x40)\n      dup1\n      swap2\n      sub\n      swap1\n      return\n        /* \"contracts/NFTStaking.sol\":951:1157  function stake(uint256 tokenId) external {... */\n    tag_9:\n      callvalue\n      dup1\n      iszero\n      tag_46\n      jumpi\n      0x00\n      dup1\n      revert\n    tag_46:\n      pop\n      tag_47\n      0x04\n      dup1\n      calldatasize\n      sub\n      dup2\n      add\n      swap1\n      tag_48\n      swap2\n      swap1\n      tag_31\n      jump\t// in\n    tag_48:\n      tag_49\n      jump\t// in\n    tag_47:\n      stop\n        /* \"@openzeppelin/contracts@4.7.3/access/Ownable.sol\":2081:2279  function transferOwnership(address newOwner) public virtual onlyOwner {... */\n    tag_10:\n      callvalue\n      dup1\n      iszero\n      tag_50\n      jumpi\n      0x00\n      dup1\n      revert\n    tag_50:\n      pop\n      tag_51\n      0x04\n      dup1\n      calldatasize\n      sub\n      dup2\n      add\n      swap1\n      tag_52\n      swap2\n      swap1\n      tag_17\n      jump\t// in\n    tag_52:\n      tag_53\n      jump\t// in\n    tag_51:\n      stop\n        /* \"contracts/NFTStaking.sol\":816:859  mapping (address => uint256) public rewards */\n    tag_18:\n      mstore(0x20, 0x05)\n      dup1\n      0x00\n      mstore\n      keccak256(0x00, 0x40)\n      0x00\n      swap2\n      pop\n      swap1\n      pop\n      sload\n      dup2\n      jump\t// out\n        /* \"@openzeppelin/contracts@4.7.3/token/ERC721/utils/ERC721Holder.sol\":588:788  function onERC721Received(... */\n    tag_25:\n        /* \"@openzeppelin/contracts@4.7.3/token/ERC721/utils/ERC721Holder.sol\":726:732  bytes4 */\n      0x00\n        /* \"@openzeppelin/contracts@4.7.3/token/ERC721/utils/ERC721Holder.sol\":751:781  this.onERC721Received.selector */\n      shl(0xe0, 0x150b7a02)\n        /* \"@openzeppelin/contracts@4.7.3/token/ERC721/utils/ERC721Holder.sol\":744:781  return this.onERC721Received.selector */\n      swap1\n      pop\n        /* \"@openzeppelin/contracts@4.7.3/token/ERC721/utils/ERC721Holder.sol\":588:788  function onERC721Received(... */\n      swap5\n      swap4\n      pop\n      pop\n      pop\n      pop\n      jump\t// out\n        /* \"contracts/NFTStaking.sol\":1163:1458  function unstake(uint256 tokenId) nonReentrant external {... */\n    tag_32:\n        /* \"@openzeppelin/contracts@4.7.3/security/ReentrancyGuard.sol\":1744:1745  2 */\n      0x02\n        /* \"@openzeppelin/contracts@4.7.3/security/ReentrancyGuard.sol\":2325:2332  _status */\n      sload(0x01)\n        /* \"@openzeppelin/contracts@4.7.3/security/ReentrancyGuard.sol\":2325:2344  _status != _ENTERED */\n      eq\n      iszero\n        /* \"@openzeppelin/contracts@4.7.3/security/ReentrancyGuard.sol\":2317:2380  require(_status != _ENTERED, \"ReentrancyGuard: reentrant call\") */\n      tag_56\n      jumpi\n      mload(0x40)\n      0x08c379a000000000000000000000000000000000000000000000000000000000\n      dup2\n      mstore\n      0x04\n      add\n      tag_57\n      swap1\n      tag_58\n      jump\t// in\n    tag_57:\n      mload(0x40)\n      dup1\n      swap2\n      sub\n      swap1\n      revert\n    tag_56:\n        /* \"@openzeppelin/contracts@4.7.3/security/ReentrancyGuard.sol\":1744:1745  2 */\n      0x02\n        /* \"@openzeppelin/contracts@4.7.3/security/ReentrancyGuard.sol\":2455:2462  _status */\n      0x01\n        /* \"@openzeppelin/contracts@4.7.3/security/ReentrancyGuard.sol\":2455:2473  _status = _ENTERED */\n      dup2\n      swap1\n      sstore\n      pop\n        /* \"contracts/NFTStaking.sol\":1262:1272  msg.sender */\n      caller\n        /* \"contracts/NFTStaking.sol\":1237:1272  tokenOwnedBy[tokenId] == msg.sender */\n      0xffffffffffffffffffffffffffffffffffffffff\n      and\n        /* \"contracts/NFTStaking.sol\":1237:1249  tokenOwnedBy */\n      0x04\n        /* \"contracts/NFTStaking.sol\":1237:1258  tokenOwnedBy[tokenId] */\n      0x00\n        /* \"contracts/NFTStaking.sol\":1250:1257  tokenId */\n      dup4\n        /* \"contracts/NFTStaking.sol\":1237:1258  tokenOwnedBy[tokenId] */\n      dup2\n      mstore\n      0x20\n      add\n      swap1\n      dup2\n      mstore\n      0x20\n      add\n      0x00\n      keccak256\n      0x00\n      swap1\n      sload\n      swap1\n      0x0100\n      exp\n      swap1\n      div\n      0xffffffffffffffffffffffffffffffffffffffff\n      and\n        /* \"contracts/NFTStaking.sol\":1237:1272  tokenOwnedBy[tokenId] == msg.sender */\n      0xffffffffffffffffffffffffffffffffffffffff\n      and\n      eq\n        /* \"contracts/NFTStaking.sol\":1229:1299  require(tokenOwnedBy[tokenId] == msg.sender, \"You are not the owner.\") */\n      tag_60\n      jumpi\n      mload(0x40)\n      0x08c379a000000000000000000000000000000000000000000000000000000000\n      dup2\n      mstore\n      0x04\n      add\n      tag_61\n      swap1\n      tag_62\n      jump\t// in\n    tag_61:\n      mload(0x40)\n      dup1\n      swap2\n      sub\n      swap1\n      revert\n    tag_60:\n        /* \"contracts/NFTStaking.sol\":1316:1328  tokenOwnedBy */\n      0x04\n        /* \"contracts/NFTStaking.sol\":1316:1337  tokenOwnedBy[tokenId] */\n      0x00\n        /* \"contracts/NFTStaking.sol\":1329:1336  tokenId */\n      dup3\n        /* \"contracts/NFTStaking.sol\":1316:1337  tokenOwnedBy[tokenId] */\n      dup2\n      mstore\n      0x20\n      add\n      swap1\n      dup2\n      mstore\n      0x20\n      add\n      0x00\n      keccak256\n      0x00\n        /* \"contracts/NFTStaking.sol\":1309:1337  delete tokenOwnedBy[tokenId] */\n      0x0100\n      exp\n      dup2\n      sload\n      swap1\n      0xffffffffffffffffffffffffffffffffffffffff\n      mul\n      not\n      and\n      swap1\n      sstore\n        /* \"contracts/NFTStaking.sol\":1347:1376  _stakedNFTCounter.decrement() */\n      tag_63\n        /* \"contracts/NFTStaking.sol\":1347:1364  _stakedNFTCounter */\n      0x03\n        /* \"contracts/NFTStaking.sol\":1347:1374  _stakedNFTCounter.decrement */\n      tag_64\n        /* \"contracts/NFTStaking.sol\":1347:1376  _stakedNFTCounter.decrement() */\n      jump\t// in\n    tag_63:\n        /* \"contracts/NFTStaking.sol\":1386:1398  _nftContract */\n      0x02\n      0x00\n      swap1\n      sload\n      swap1\n      0x0100\n      exp\n      swap1\n      div\n      0xffffffffffffffffffffffffffffffffffffffff\n      and\n        /* \"contracts/NFTStaking.sol\":1386:1415  _nftContract.safeTransferFrom */\n      0xffffffffffffffffffffffffffffffffffffffff\n      and\n      0x42842e0e\n        /* \"contracts/NFTStaking.sol\":1424:1428  this */\n      address\n        /* \"contracts/NFTStaking.sol\":1431:1441  msg.sender */\n      caller\n        /* \"contracts/NFTStaking.sol\":1443:1450  tokenId */\n      dup5\n        /* \"contracts/NFTStaking.sol\":1386:1451  _nftContract.safeTransferFrom(address(this), msg.sender, tokenId) */\n      mload(0x40)\n      dup5\n      0xffffffff\n      and\n      0xe0\n      shl\n      dup2\n      mstore\n      0x04\n      add\n      tag_65\n      swap4\n      swap3\n      swap2\n      swap1\n      tag_66\n      jump\t// in\n    tag_65:\n      0x00\n      mload(0x40)\n      dup1\n      dup4\n      sub\n      dup2\n      0x00\n      dup8\n      dup1\n      extcodesize\n      iszero\n      dup1\n      iszero\n      tag_67\n      jumpi\n      0x00\n      dup1\n      revert\n    tag_67:\n      pop\n      gas\n      call\n      iszero\n      dup1\n      iszero\n      tag_69\n      jumpi\n      returndatasize\n      0x00\n      dup1\n      returndatacopy\n      revert(0x00, returndatasize)\n    tag_69:\n      pop\n      pop\n      pop\n      pop\n        /* \"@openzeppelin/contracts@4.7.3/security/ReentrancyGuard.sol\":1701:1702  1 */\n      0x01\n        /* \"@openzeppelin/contracts@4.7.3/security/ReentrancyGuard.sol\":2628:2635  _status */\n      dup1\n        /* \"@openzeppelin/contracts@4.7.3/security/ReentrancyGuard.sol\":2628:2650  _status = _NOT_ENTERED */\n      dup2\n      swap1\n      sstore\n      pop\n        /* \"contracts/NFTStaking.sol\":1163:1458  function unstake(uint256 tokenId) nonReentrant external {... */\n      pop\n      jump\t// out\n        /* \"@openzeppelin/contracts@4.7.3/access/Ownable.sol\":1831:1932  function renounceOwnership() public virtual onlyOwner {... */\n    tag_35:\n        /* \"@openzeppelin/contracts@4.7.3/access/Ownable.sol\":1094:1107  _checkOwner() */\n      tag_71\n        /* \"@openzeppelin/contracts@4.7.3/access/Ownable.sol\":1094:1105  _checkOwner */\n      tag_72\n        /* \"@openzeppelin/contracts@4.7.3/access/Ownable.sol\":1094:1107  _checkOwner() */\n      jump\t// in\n    tag_71:\n        /* \"@openzeppelin/contracts@4.7.3/access/Ownable.sol\":1895:1925  _transferOwnership(address(0)) */\n      tag_74\n        /* \"@openzeppelin/contracts@4.7.3/access/Ownable.sol\":1922:1923  0 */\n      0x00\n        /* \"@openzeppelin/contracts@4.7.3/access/Ownable.sol\":1895:1913  _transferOwnership */\n      tag_75\n        /* \"@openzeppelin/contracts@4.7.3/access/Ownable.sol\":1895:1925  _transferOwnership(address(0)) */\n      jump\t// in\n    tag_74:\n        /* \"@openzeppelin/contracts@4.7.3/access/Ownable.sol\":1831:1932  function renounceOwnership() public virtual onlyOwner {... */\n      jump\t// out\n        /* \"contracts/NFTStaking.sol\":762:810  mapping (uint256 => address) public tokenOwnedBy */\n    tag_39:\n      mstore(0x20, 0x04)\n      dup1\n      0x00\n      mstore\n      keccak256(0x00, 0x40)\n      0x00\n      swap2\n      pop\n      sload\n      swap1\n      0x0100\n      exp\n      swap1\n      div\n      0xffffffffffffffffffffffffffffffffffffffff\n      and\n      dup2\n      jump\t// out\n        /* \"@openzeppelin/contracts@4.7.3/access/Ownable.sol\":1201:1286  function owner() public view virtual returns (address) {... */\n    tag_44:\n        /* \"@openzeppelin/contracts@4.7.3/access/Ownable.sol\":1247:1254  address */\n      0x00\n        /* \"@openzeppelin/contracts@4.7.3/access/Ownable.sol\":1273:1279  _owner */\n      dup1\n      0x00\n      swap1\n      sload\n      swap1\n      0x0100\n      exp\n      swap1\n      div\n      0xffffffffffffffffffffffffffffffffffffffff\n      and\n        /* \"@openzeppelin/contracts@4.7.3/access/Ownable.sol\":1266:1279  return _owner */\n      swap1\n      pop\n        /* \"@openzeppelin/contracts@4.7.3/access/Ownable.sol\":1201:1286  function owner() public view virtual returns (address) {... */\n      swap1\n      jump\t// out\n        /* \"contracts/NFTStaking.sol\":951:1157  function stake(uint256 tokenId) external {... */\n    tag_49:\n        /* \"contracts/NFTStaking.sol\":1002:1014  _nftContract */\n      0x02\n      0x00\n      swap1\n      sload\n      swap1\n      0x0100\n      exp\n      swap1\n      div\n      0xffffffffffffffffffffffffffffffffffffffff\n      and\n        /* \"contracts/NFTStaking.sol\":1002:1031  _nftContract.safeTransferFrom */\n      0xffffffffffffffffffffffffffffffffffffffff\n      and\n      0x42842e0e\n        /* \"contracts/NFTStaking.sol\":1032:1042  msg.sender */\n      caller\n        /* \"contracts/NFTStaking.sol\":1052:1056  this */\n      address\n        /* \"contracts/NFTStaking.sol\":1059:1066  tokenId */\n      dup5\n        /* \"contracts/NFTStaking.sol\":1002:1067  _nftContract.safeTransferFrom(msg.sender, address(this), tokenId) */\n      mload(0x40)\n      dup5\n      0xffffffff\n      and\n      0xe0\n      shl\n      dup2\n      mstore\n      0x04\n      add\n      tag_78\n      swap4\n      swap3\n      swap2\n      swap1\n      tag_66\n      jump\t// in\n    tag_78:\n      0x00\n      mload(0x40)\n      dup1\n      dup4\n      sub\n      dup2\n      0x00\n      dup8\n      dup1\n      extcodesize\n      iszero\n      dup1\n      iszero\n      tag_79\n      jumpi\n      0x00\n      dup1\n      revert\n    tag_79:\n      pop\n      gas\n      call\n      iszero\n      dup1\n      iszero\n      tag_81\n      jumpi\n      returndatasize\n      0x00\n      dup1\n      returndatacopy\n      revert(0x00, returndatasize)\n    tag_81:\n      pop\n      pop\n      pop\n      pop\n        /* \"contracts/NFTStaking.sol\":1101:1111  msg.sender */\n      caller\n        /* \"contracts/NFTStaking.sol\":1077:1089  tokenOwnedBy */\n      0x04\n        /* \"contracts/NFTStaking.sol\":1077:1098  tokenOwnedBy[tokenId] */\n      0x00\n        /* \"contracts/NFTStaking.sol\":1090:1097  tokenId */\n      dup4\n        /* \"contracts/NFTStaking.sol\":1077:1098  tokenOwnedBy[tokenId] */\n      dup2\n      mstore\n      0x20\n      add\n      swap1\n      dup2\n      mstore\n      0x20\n      add\n      0x00\n      keccak256\n      0x00\n        /* \"contracts/NFTStaking.sol\":1077:1111  tokenOwnedBy[tokenId] = msg.sender */\n      0x0100\n      exp\n      dup2\n      sload\n      dup2\n      0xffffffffffffffffffffffffffffffffffffffff\n      mul\n      not\n      and\n      swap1\n      dup4\n      0xffffffffffffffffffffffffffffffffffffffff\n      and\n      mul\n      or\n      swap1\n      sstore\n      pop\n        /* \"contracts/NFTStaking.sol\":1121:1150  _stakedNFTCounter.increment() */\n      tag_82\n        /* \"contracts/NFTStaking.sol\":1121:1138  _stakedNFTCounter */\n      0x03\n        /* \"contracts/NFTStaking.sol\":1121:1148  _stakedNFTCounter.increment */\n      tag_83\n        /* \"contracts/NFTStaking.sol\":1121:1150  _stakedNFTCounter.increment() */\n      jump\t// in\n    tag_82:\n        /* \"contracts/NFTStaking.sol\":951:1157  function stake(uint256 tokenId) external {... */\n      pop\n      jump\t// out\n        /* \"@openzeppelin/contracts@4.7.3/access/Ownable.sol\":2081:2279  function transferOwnership(address newOwner) public virtual onlyOwner {... */\n    tag_53:\n        /* \"@openzeppelin/contracts@4.7.3/access/Ownable.sol\":1094:1107  _checkOwner() */\n      tag_85\n        /* \"@openzeppelin/contracts@4.7.3/access/Ownable.sol\":1094:1105  _checkOwner */\n      tag_72\n        /* \"@openzeppelin/contracts@4.7.3/access/Ownable.sol\":1094:1107  _checkOwner() */\n      jump\t// in\n    tag_85:\n        /* \"@openzeppelin/contracts@4.7.3/access/Ownable.sol\":2189:2190  0 */\n      0x00\n        /* \"@openzeppelin/contracts@4.7.3/access/Ownable.sol\":2169:2191  newOwner != address(0) */\n      0xffffffffffffffffffffffffffffffffffffffff\n      and\n        /* \"@openzeppelin/contracts@4.7.3/access/Ownable.sol\":2169:2177  newOwner */\n      dup2\n        /* \"@openzeppelin/contracts@4.7.3/access/Ownable.sol\":2169:2191  newOwner != address(0) */\n      0xffffffffffffffffffffffffffffffffffffffff\n      and\n      eq\n      iszero\n        /* \"@openzeppelin/contracts@4.7.3/access/Ownable.sol\":2161:2234  require(newOwner != address(0), \"Ownable: new owner is the zero address\") */\n      tag_87\n      jumpi\n      mload(0x40)\n      0x08c379a000000000000000000000000000000000000000000000000000000000\n      dup2\n      mstore\n      0x04\n      add\n      tag_88\n      swap1\n      tag_89\n      jump\t// in\n    tag_88:\n      mload(0x40)\n      dup1\n      swap2\n      sub\n      swap1\n      revert\n    tag_87:\n        /* \"@openzeppelin/contracts@4.7.3/access/Ownable.sol\":2244:2272  _transferOwnership(newOwner) */\n      tag_90\n        /* \"@openzeppelin/contracts@4.7.3/access/Ownable.sol\":2263:2271  newOwner */\n      dup2\n        /* \"@openzeppelin/contracts@4.7.3/access/Ownable.sol\":2244:2262  _transferOwnership */\n      tag_75\n        /* \"@openzeppelin/contracts@4.7.3/access/Ownable.sol\":2244:2272  _transferOwnership(newOwner) */\n      jump\t// in\n    tag_90:\n        /* \"@openzeppelin/contracts@4.7.3/access/Ownable.sol\":2081:2279  function transferOwnership(address newOwner) public virtual onlyOwner {... */\n      pop\n      jump\t// out\n        /* \"@openzeppelin/contracts@4.7.3/utils/Counters.sol\":1074:1303  function decrement(Counter storage counter) internal {... */\n    tag_64:\n        /* \"@openzeppelin/contracts@4.7.3/utils/Counters.sol\":1137:1150  uint256 value */\n      0x00\n        /* \"@openzeppelin/contracts@4.7.3/utils/Counters.sol\":1153:1160  counter */\n      dup2\n        /* \"@openzeppelin/contracts@4.7.3/utils/Counters.sol\":1153:1167  counter._value */\n      0x00\n      add\n      sload\n        /* \"@openzeppelin/contracts@4.7.3/utils/Counters.sol\":1137:1167  uint256 value = counter._value */\n      swap1\n      pop\n        /* \"@openzeppelin/contracts@4.7.3/utils/Counters.sol\":1193:1194  0 */\n      0x00\n        /* \"@openzeppelin/contracts@4.7.3/utils/Counters.sol\":1185:1190  value */\n      dup2\n        /* \"@openzeppelin/contracts@4.7.3/utils/Counters.sol\":1185:1194  value > 0 */\n      gt\n        /* \"@openzeppelin/contracts@4.7.3/utils/Counters.sol\":1177:1226  require(value > 0, \"Counter: decrement overflow\") */\n      tag_92\n      jumpi\n      mload(0x40)\n      0x08c379a000000000000000000000000000000000000000000000000000000000\n      dup2\n      mstore\n      0x04\n      add\n      tag_93\n      swap1\n      tag_94\n      jump\t// in\n    tag_93:\n      mload(0x40)\n      dup1\n      swap2\n      sub\n      swap1\n      revert\n    tag_92:\n        /* \"@openzeppelin/contracts@4.7.3/utils/Counters.sol\":1285:1286  1 */\n      0x01\n        /* \"@openzeppelin/contracts@4.7.3/utils/Counters.sol\":1277:1282  value */\n      dup2\n        /* \"@openzeppelin/contracts@4.7.3/utils/Counters.sol\":1277:1286  value - 1 */\n      sub\n        /* \"@openzeppelin/contracts@4.7.3/utils/Counters.sol\":1260:1267  counter */\n      dup3\n        /* \"@openzeppelin/contracts@4.7.3/utils/Counters.sol\":1260:1274  counter._value */\n      0x00\n      add\n        /* \"@openzeppelin/contracts@4.7.3/utils/Counters.sol\":1260:1286  counter._value = value - 1 */\n      dup2\n      swap1\n      sstore\n      pop\n        /* \"@openzeppelin/contracts@4.7.3/utils/Counters.sol\":1127:1303  {... */\n      pop\n        /* \"@openzeppelin/contracts@4.7.3/utils/Counters.sol\":1074:1303  function decrement(Counter storage counter) internal {... */\n      pop\n      jump\t// out\n        /* \"@openzeppelin/contracts@4.7.3/access/Ownable.sol\":1359:1489  function _checkOwner() internal view virtual {... */\n    tag_72:\n        /* \"@openzeppelin/contracts@4.7.3/access/Ownable.sol\":1433:1445  _msgSender() */\n      tag_96\n        /* \"@openzeppelin/contracts@4.7.3/access/Ownable.sol\":1433:1443  _msgSender */\n      tag_97\n        /* \"@openzeppelin/contracts@4.7.3/access/Ownable.sol\":1433:1445  _msgSender() */\n      jump\t// in\n    tag_96:\n        /* \"@openzeppelin/contracts@4.7.3/access/Ownable.sol\":1422:1445  owner() == _msgSender() */\n      0xffffffffffffffffffffffffffffffffffffffff\n      and\n        /* \"@openzeppelin/contracts@4.7.3/access/Ownable.sol\":1422:1429  owner() */\n      tag_98\n        /* \"@openzeppelin/contracts@4.7.3/access/Ownable.sol\":1422:1427  owner */\n      tag_44\n        /* \"@openzeppelin/contracts@4.7.3/access/Ownable.sol\":1422:1429  owner() */\n      jump\t// in\n    tag_98:\n        /* \"@openzeppelin/contracts@4.7.3/access/Ownable.sol\":1422:1445  owner() == _msgSender() */\n      0xffffffffffffffffffffffffffffffffffffffff\n      and\n      eq\n        /* \"@openzeppelin/contracts@4.7.3/access/Ownable.sol\":1414:1482  require(owner() == _msgSender(), \"Ownable: caller is not the owner\") */\n      tag_99\n      jumpi\n      mload(0x40)\n      0x08c379a000000000000000000000000000000000000000000000000000000000\n      dup2\n      mstore\n      0x04\n      add\n      tag_100\n      swap1\n      tag_101\n      jump\t// in\n    tag_100:\n      mload(0x40)\n      dup1\n      swap2\n      sub\n      swap1\n      revert\n    tag_99:\n        /* \"@openzeppelin/contracts@4.7.3/access/Ownable.sol\":1359:1489  function _checkOwner() internal view virtual {... */\n      jump\t// out\n        /* \"@openzeppelin/contracts@4.7.3/access/Ownable.sol\":2433:2620  function _transferOwnership(address newOwner) internal virtual {... */\n    tag_75:\n        /* \"@openzeppelin/contracts@4.7.3/access/Ownable.sol\":2506:2522  address oldOwner */\n      0x00\n        /* \"@openzeppelin/contracts@4.7.3/access/Ownable.sol\":2525:2531  _owner */\n      dup1\n      0x00\n      swap1\n      sload\n      swap1\n      0x0100\n      exp\n      swap1\n      div\n      0xffffffffffffffffffffffffffffffffffffffff\n      and\n        /* \"@openzeppelin/contracts@4.7.3/access/Ownable.sol\":2506:2531  address oldOwner = _owner */\n      swap1\n      pop\n        /* \"@openzeppelin/contracts@4.7.3/access/Ownable.sol\":2550:2558  newOwner */\n      dup2\n        /* \"@openzeppelin/contracts@4.7.3/access/Ownable.sol\":2541:2547  _owner */\n      0x00\n      dup1\n        /* \"@openzeppelin/contracts@4.7.3/access/Ownable.sol\":2541:2558  _owner = newOwner */\n      0x0100\n      exp\n      dup2\n      sload\n      dup2\n      0xffffffffffffffffffffffffffffffffffffffff\n      mul\n      not\n      and\n      swap1\n      dup4\n      0xffffffffffffffffffffffffffffffffffffffff\n      and\n      mul\n      or\n      swap1\n      sstore\n      pop\n        /* \"@openzeppelin/contracts@4.7.3/access/Ownable.sol\":2604:2612  newOwner */\n      dup2\n        /* \"@openzeppelin/contracts@4.7.3/access/Ownable.sol\":2573:2613  OwnershipTransferred(oldOwner, newOwner) */\n      0xffffffffffffffffffffffffffffffffffffffff\n      and\n        /* \"@openzeppelin/contracts@4.7.3/access/Ownable.sol\":2594:2602  oldOwner */\n      dup2\n        /* \"@openzeppelin/contracts@4.7.3/access/Ownable.sol\":2573:2613  OwnershipTransferred(oldOwner, newOwner) */\n      0xffffffffffffffffffffffffffffffffffffffff\n      and\n      0x8be0079c531659141344cd1fd0a4f28419497f9722a3daafe3b4186f6b6457e0\n      mload(0x40)\n      mload(0x40)\n      dup1\n      swap2\n      sub\n      swap1\n      log3\n        /* \"@openzeppelin/contracts@4.7.3/access/Ownable.sol\":2496:2620  {... */\n      pop\n        /* \"@openzeppelin/contracts@4.7.3/access/Ownable.sol\":2433:2620  function _transferOwnership(address newOwner) internal virtual {... */\n      pop\n      jump\t// out\n        /* \"@openzeppelin/contracts@4.7.3/utils/Counters.sol\":945:1068  function increment(Counter storage counter) internal {... */\n    tag_83:\n        /* \"@openzeppelin/contracts@4.7.3/utils/Counters.sol\":1050:1051  1 */\n      0x01\n        /* \"@openzeppelin/contracts@4.7.3/utils/Counters.sol\":1032:1039  counter */\n      dup2\n        /* \"@openzeppelin/contracts@4.7.3/utils/Counters.sol\":1032:1046  counter._value */\n      0x00\n      add\n      0x00\n        /* \"@openzeppelin/contracts@4.7.3/utils/Counters.sol\":1032:1051  counter._value += 1 */\n      dup3\n      dup3\n      sload\n      add\n      swap3\n      pop\n      pop\n      dup2\n      swap1\n      sstore\n      pop\n        /* \"@openzeppelin/contracts@4.7.3/utils/Counters.sol\":945:1068  function increment(Counter storage counter) internal {... */\n      pop\n      jump\t// out\n        /* \"@openzeppelin/contracts@4.7.3/utils/Context.sol\":640:736  function _msgSender() internal view virtual returns (address) {... */\n    tag_97:\n        /* \"@openzeppelin/contracts@4.7.3/utils/Context.sol\":693:700  address */\n      0x00\n        /* \"@openzeppelin/contracts@4.7.3/utils/Context.sol\":719:729  msg.sender */\n      caller\n        /* \"@openzeppelin/contracts@4.7.3/utils/Context.sol\":712:729  return msg.sender */\n      swap1\n      pop\n        /* \"@openzeppelin/contracts@4.7.3/utils/Context.sol\":640:736  function _msgSender() internal view virtual returns (address) {... */\n      swap1\n      jump\t// out\n        /* \"#utility.yul\":7:417   */\n    tag_106:\n        /* \"#utility.yul\":84:89   */\n      0x00\n        /* \"#utility.yul\":109:174   */\n      tag_108\n        /* \"#utility.yul\":125:173   */\n      tag_109\n        /* \"#utility.yul\":166:172   */\n      dup5\n        /* \"#utility.yul\":125:173   */\n      tag_110\n      jump\t// in\n    tag_109:\n        /* \"#utility.yul\":109:174   */\n      tag_111\n      jump\t// in\n    tag_108:\n        /* \"#utility.yul\":100:174   */\n      swap1\n      pop\n        /* \"#utility.yul\":197:203   */\n      dup3\n        /* \"#utility.yul\":190:195   */\n      dup2\n        /* \"#utility.yul\":183:204   */\n      mstore\n        /* \"#utility.yul\":235:239   */\n      0x20\n        /* \"#utility.yul\":228:233   */\n      dup2\n        /* \"#utility.yul\":224:240   */\n      add\n        /* \"#utility.yul\":273:276   */\n      dup5\n        /* \"#utility.yul\":264:270   */\n      dup5\n        /* \"#utility.yul\":259:262   */\n      dup5\n        /* \"#utility.yul\":255:271   */\n      add\n        /* \"#utility.yul\":252:277   */\n      gt\n        /* \"#utility.yul\":249:361   */\n      iszero\n      tag_112\n      jumpi\n        /* \"#utility.yul\":280:359   */\n      tag_113\n      tag_114\n      jump\t// in\n    tag_113:\n        /* \"#utility.yul\":249:361   */\n    tag_112:\n        /* \"#utility.yul\":370:411   */\n      tag_115\n        /* \"#utility.yul\":404:410   */\n      dup5\n        /* \"#utility.yul\":399:402   */\n      dup3\n        /* \"#utility.yul\":394:397   */\n      dup6\n        /* \"#utility.yul\":370:411   */\n      tag_116\n      jump\t// in\n    tag_115:\n        /* \"#utility.yul\":90:417   */\n      pop\n        /* \"#utility.yul\":7:417   */\n      swap4\n      swap3\n      pop\n      pop\n      pop\n      jump\t// out\n        /* \"#utility.yul\":423:562   */\n    tag_117:\n        /* \"#utility.yul\":469:474   */\n      0x00\n        /* \"#utility.yul\":507:513   */\n      dup2\n        /* \"#utility.yul\":494:514   */\n      calldataload\n        /* \"#utility.yul\":485:514   */\n      swap1\n      pop\n        /* \"#utility.yul\":523:556   */\n      tag_119\n        /* \"#utility.yul\":550:555   */\n      dup2\n        /* \"#utility.yul\":523:556   */\n      tag_120\n      jump\t// in\n    tag_119:\n        /* \"#utility.yul\":423:562   */\n      swap3\n      swap2\n      pop\n      pop\n      jump\t// out\n        /* \"#utility.yul\":581:919   */\n    tag_121:\n        /* \"#utility.yul\":636:641   */\n      0x00\n        /* \"#utility.yul\":685:688   */\n      dup3\n        /* \"#utility.yul\":678:682   */\n      0x1f\n        /* \"#utility.yul\":670:676   */\n      dup4\n        /* \"#utility.yul\":666:683   */\n      add\n        /* \"#utility.yul\":662:689   */\n      slt\n        /* \"#utility.yul\":652:774   */\n      tag_123\n      jumpi\n        /* \"#utility.yul\":693:772   */\n      tag_124\n      tag_125\n      jump\t// in\n    tag_124:\n        /* \"#utility.yul\":652:774   */\n    tag_123:\n        /* \"#utility.yul\":810:816   */\n      dup2\n        /* \"#utility.yul\":797:817   */\n      calldataload\n        /* \"#utility.yul\":835:913   */\n      tag_126\n        /* \"#utility.yul\":909:912   */\n      dup5\n        /* \"#utility.yul\":901:907   */\n      dup3\n        /* \"#utility.yul\":894:898   */\n      0x20\n        /* \"#utility.yul\":886:892   */\n      dup7\n        /* \"#utility.yul\":882:899   */\n      add\n        /* \"#utility.yul\":835:913   */\n      tag_106\n      jump\t// in\n    tag_126:\n        /* \"#utility.yul\":826:913   */\n      swap2\n      pop\n        /* \"#utility.yul\":642:919   */\n      pop\n        /* \"#utility.yul\":581:919   */\n      swap3\n      swap2\n      pop\n      pop\n      jump\t// out\n        /* \"#utility.yul\":925:1064   */\n    tag_127:\n        /* \"#utility.yul\":971:976   */\n      0x00\n        /* \"#utility.yul\":1009:1015   */\n      dup2\n        /* \"#utility.yul\":996:1016   */\n      calldataload\n        /* \"#utility.yul\":987:1016   */\n      swap1\n      pop\n        /* \"#utility.yul\":1025:1058   */\n      tag_129\n        /* \"#utility.yul\":1052:1057   */\n      dup2\n        /* \"#utility.yul\":1025:1058   */\n      tag_130\n      jump\t// in\n    tag_129:\n        /* \"#utility.yul\":925:1064   */\n      swap3\n      swap2\n      pop\n      pop\n      jump\t// out\n        /* \"#utility.yul\":1070:1399   */\n    tag_17:\n        /* \"#utility.yul\":1129:1135   */\n      0x00\n        /* \"#utility.yul\":1178:1180   */\n      0x20\n        /* \"#utility.yul\":1166:1175   */\n      dup3\n        /* \"#utility.yul\":1157:1164   */\n      dup5\n        /* \"#utility.yul\":1153:1176   */\n      sub\n        /* \"#utility.yul\":1149:1181   */\n      slt\n        /* \"#utility.yul\":1146:1265   */\n      iszero\n      tag_132\n      jumpi\n        /* \"#utility.yul\":1184:1263   */\n      tag_133\n      tag_134\n      jump\t// in\n    tag_133:\n        /* \"#utility.yul\":1146:1265   */\n    tag_132:\n        /* \"#utility.yul\":1304:1305   */\n      0x00\n        /* \"#utility.yul\":1329:1382   */\n      tag_135\n        /* \"#utility.yul\":1374:1381   */\n      dup5\n        /* \"#utility.yul\":1365:1371   */\n      dup3\n        /* \"#utility.yul\":1354:1363   */\n      dup6\n        /* \"#utility.yul\":1350:1372   */\n      add\n        /* \"#utility.yul\":1329:1382   */\n      tag_117\n      jump\t// in\n    tag_135:\n        /* \"#utility.yul\":1319:1382   */\n      swap2\n      pop\n        /* \"#utility.yul\":1275:1392   */\n      pop\n        /* \"#utility.yul\":1070:1399   */\n      swap3\n      swap2\n      pop\n      pop\n      jump\t// out\n        /* \"#utility.yul\":1405:2348   */\n    tag_24:\n        /* \"#utility.yul\":1500:1506   */\n      0x00\n        /* \"#utility.yul\":1508:1514   */\n      dup1\n        /* \"#utility.yul\":1516:1522   */\n      0x00\n        /* \"#utility.yul\":1524:1530   */\n      dup1\n        /* \"#utility.yul\":1573:1576   */\n      0x80\n        /* \"#utility.yul\":1561:1570   */\n      dup6\n        /* \"#utility.yul\":1552:1559   */\n      dup8\n        /* \"#utility.yul\":1548:1571   */\n      sub\n        /* \"#utility.yul\":1544:1577   */\n      slt\n        /* \"#utility.yul\":1541:1661   */\n      iszero\n      tag_137\n      jumpi\n        /* \"#utility.yul\":1580:1659   */\n      tag_138\n      tag_134\n      jump\t// in\n    tag_138:\n        /* \"#utility.yul\":1541:1661   */\n    tag_137:\n        /* \"#utility.yul\":1700:1701   */\n      0x00\n        /* \"#utility.yul\":1725:1778   */\n      tag_139\n        /* \"#utility.yul\":1770:1777   */\n      dup8\n        /* \"#utility.yul\":1761:1767   */\n      dup3\n        /* \"#utility.yul\":1750:1759   */\n      dup9\n        /* \"#utility.yul\":1746:1768   */\n      add\n        /* \"#utility.yul\":1725:1778   */\n      tag_117\n      jump\t// in\n    tag_139:\n        /* \"#utility.yul\":1715:1778   */\n      swap5\n      pop\n        /* \"#utility.yul\":1671:1788   */\n      pop\n        /* \"#utility.yul\":1827:1829   */\n      0x20\n        /* \"#utility.yul\":1853:1906   */\n      tag_140\n        /* \"#utility.yul\":1898:1905   */\n      dup8\n        /* \"#utility.yul\":1889:1895   */\n      dup3\n        /* \"#utility.yul\":1878:1887   */\n      dup9\n        /* \"#utility.yul\":1874:1896   */\n      add\n        /* \"#utility.yul\":1853:1906   */\n      tag_117\n      jump\t// in\n    tag_140:\n        /* \"#utility.yul\":1843:1906   */\n      swap4\n      pop\n        /* \"#utility.yul\":1798:1916   */\n      pop\n        /* \"#utility.yul\":1955:1957   */\n      0x40\n        /* \"#utility.yul\":1981:2034   */\n      tag_141\n        /* \"#utility.yul\":2026:2033   */\n      dup8\n        /* \"#utility.yul\":2017:2023   */\n      dup3\n        /* \"#utility.yul\":2006:2015   */\n      dup9\n        /* \"#utility.yul\":2002:2024   */\n      add\n        /* \"#utility.yul\":1981:2034   */\n      tag_127\n      jump\t// in\n    tag_141:\n        /* \"#utility.yul\":1971:2034   */\n      swap3\n      pop\n        /* \"#utility.yul\":1926:2044   */\n      pop\n        /* \"#utility.yul\":2111:2113   */\n      0x60\n        /* \"#utility.yul\":2100:2109   */\n      dup6\n        /* \"#utility.yul\":2096:2114   */\n      add\n        /* \"#utility.yul\":2083:2115   */\n      calldataload\n        /* \"#utility.yul\":2142:2160   */\n      0xffffffffffffffff\n        /* \"#utility.yul\":2134:2140   */\n      dup2\n        /* \"#utility.yul\":2131:2161   */\n      gt\n        /* \"#utility.yul\":2128:2245   */\n      iszero\n      tag_142\n      jumpi\n        /* \"#utility.yul\":2164:2243   */\n      tag_143\n      tag_144\n      jump\t// in\n    tag_143:\n        /* \"#utility.yul\":2128:2245   */\n    tag_142:\n        /* \"#utility.yul\":2269:2331   */\n      tag_145\n        /* \"#utility.yul\":2323:2330   */\n      dup8\n        /* \"#utility.yul\":2314:2320   */\n      dup3\n        /* \"#utility.yul\":2303:2312   */\n      dup9\n        /* \"#utility.yul\":2299:2321   */\n      add\n        /* \"#utility.yul\":2269:2331   */\n      tag_121\n      jump\t// in\n    tag_145:\n        /* \"#utility.yul\":2259:2331   */\n      swap2\n      pop\n        /* \"#utility.yul\":2054:2341   */\n      pop\n        /* \"#utility.yul\":1405:2348   */\n      swap3\n      swap6\n      swap2\n      swap5\n      pop\n      swap3\n      pop\n      jump\t// out\n        /* \"#utility.yul\":2354:2683   */\n    tag_31:\n        /* \"#utility.yul\":2413:2419   */\n      0x00\n        /* \"#utility.yul\":2462:2464   */\n      0x20\n        /* \"#utility.yul\":2450:2459   */\n      dup3\n        /* \"#utility.yul\":2441:2448   */\n      dup5\n        /* \"#utility.yul\":2437:2460   */\n      sub\n        /* \"#utility.yul\":2433:2465   */\n      slt\n        /* \"#utility.yul\":2430:2549   */\n      iszero\n      tag_147\n      jumpi\n        /* \"#utility.yul\":2468:2547   */\n      tag_148\n      tag_134\n      jump\t// in\n    tag_148:\n        /* \"#utility.yul\":2430:2549   */\n    tag_147:\n        /* \"#utility.yul\":2588:2589   */\n      0x00\n        /* \"#utility.yul\":2613:2666   */\n      tag_149\n        /* \"#utility.yul\":2658:2665   */\n      dup5\n        /* \"#utility.yul\":2649:2655   */\n      dup3\n        /* \"#utility.yul\":2638:2647   */\n      dup6\n        /* \"#utility.yul\":2634:2656   */\n      add\n        /* \"#utility.yul\":2613:2666   */\n      tag_127\n      jump\t// in\n    tag_149:\n        /* \"#utility.yul\":2603:2666   */\n      swap2\n      pop\n        /* \"#utility.yul\":2559:2676   */\n      pop\n        /* \"#utility.yul\":2354:2683   */\n      swap3\n      swap2\n      pop\n      pop\n      jump\t// out\n        /* \"#utility.yul\":2689:2807   */\n    tag_150:\n        /* \"#utility.yul\":2776:2800   */\n      tag_152\n        /* \"#utility.yul\":2794:2799   */\n      dup2\n        /* \"#utility.yul\":2776:2800   */\n      tag_153\n      jump\t// in\n    tag_152:\n        /* \"#utility.yul\":2771:2774   */\n      dup3\n        /* \"#utility.yul\":2764:2801   */\n      mstore\n        /* \"#utility.yul\":2689:2807   */\n      pop\n      pop\n      jump\t// out\n        /* \"#utility.yul\":2813:2928   */\n    tag_154:\n        /* \"#utility.yul\":2898:2921   */\n      tag_156\n        /* \"#utility.yul\":2915:2920   */\n      dup2\n        /* \"#utility.yul\":2898:2921   */\n      tag_157\n      jump\t// in\n    tag_156:\n        /* \"#utility.yul\":2893:2896   */\n      dup3\n        /* \"#utility.yul\":2886:2922   */\n      mstore\n        /* \"#utility.yul\":2813:2928   */\n      pop\n      pop\n      jump\t// out\n        /* \"#utility.yul\":2934:3300   */\n    tag_158:\n        /* \"#utility.yul\":3076:3079   */\n      0x00\n        /* \"#utility.yul\":3097:3164   */\n      tag_160\n        /* \"#utility.yul\":3161:3163   */\n      0x1b\n        /* \"#utility.yul\":3156:3159   */\n      dup4\n        /* \"#utility.yul\":3097:3164   */\n      tag_161\n      jump\t// in\n    tag_160:\n        /* \"#utility.yul\":3090:3164   */\n      swap2\n      pop\n        /* \"#utility.yul\":3173:3266   */\n      tag_162\n        /* \"#utility.yul\":3262:3265   */\n      dup3\n        /* \"#utility.yul\":3173:3266   */\n      tag_163\n      jump\t// in\n    tag_162:\n        /* \"#utility.yul\":3291:3293   */\n      0x20\n        /* \"#utility.yul\":3286:3289   */\n      dup3\n        /* \"#utility.yul\":3282:3294   */\n      add\n        /* \"#utility.yul\":3275:3294   */\n      swap1\n      pop\n        /* \"#utility.yul\":2934:3300   */\n      swap2\n      swap1\n      pop\n      jump\t// out\n        /* \"#utility.yul\":3306:3672   */\n    tag_164:\n        /* \"#utility.yul\":3448:3451   */\n      0x00\n        /* \"#utility.yul\":3469:3536   */\n      tag_166\n        /* \"#utility.yul\":3533:3535   */\n      0x26\n        /* \"#utility.yul\":3528:3531   */\n      dup4\n        /* \"#utility.yul\":3469:3536   */\n      tag_161\n      jump\t// in\n    tag_166:\n        /* \"#utility.yul\":3462:3536   */\n      swap2\n      pop\n        /* \"#utility.yul\":3545:3638   */\n      tag_167\n        /* \"#utility.yul\":3634:3637   */\n      dup3\n        /* \"#utility.yul\":3545:3638   */\n      tag_168\n      jump\t// in\n    tag_167:\n        /* \"#utility.yul\":3663:3665   */\n      0x40\n        /* \"#utility.yul\":3658:3661   */\n      dup3\n        /* \"#utility.yul\":3654:3666   */\n      add\n        /* \"#utility.yul\":3647:3666   */\n      swap1\n      pop\n        /* \"#utility.yul\":3306:3672   */\n      swap2\n      swap1\n      pop\n      jump\t// out\n        /* \"#utility.yul\":3678:4044   */\n    tag_169:\n        /* \"#utility.yul\":3820:3823   */\n      0x00\n        /* \"#utility.yul\":3841:3908   */\n      tag_171\n        /* \"#utility.yul\":3905:3907   */\n      0x20\n        /* \"#utility.yul\":3900:3903   */\n      dup4\n        /* \"#utility.yul\":3841:3908   */\n      tag_161\n      jump\t// in\n    tag_171:\n        /* \"#utility.yul\":3834:3908   */\n      swap2\n      pop\n        /* \"#utility.yul\":3917:4010   */\n      tag_172\n        /* \"#utility.yul\":4006:4009   */\n      dup3\n        /* \"#utility.yul\":3917:4010   */\n      tag_173\n      jump\t// in\n    tag_172:\n        /* \"#utility.yul\":4035:4037   */\n      0x20\n        /* \"#utility.yul\":4030:4033   */\n      dup3\n        /* \"#utility.yul\":4026:4038   */\n      add\n        /* \"#utility.yul\":4019:4038   */\n      swap1\n      pop\n        /* \"#utility.yul\":3678:4044   */\n      swap2\n      swap1\n      pop\n      jump\t// out\n        /* \"#utility.yul\":4050:4416   */\n    tag_174:\n        /* \"#utility.yul\":4192:4195   */\n      0x00\n        /* \"#utility.yul\":4213:4280   */\n      tag_176\n        /* \"#utility.yul\":4277:4279   */\n      0x16\n        /* \"#utility.yul\":4272:4275   */\n      dup4\n        /* \"#utility.yul\":4213:4280   */\n      tag_161\n      jump\t// in\n    tag_176:\n        /* \"#utility.yul\":4206:4280   */\n      swap2\n      pop\n        /* \"#utility.yul\":4289:4382   */\n      tag_177\n        /* \"#utility.yul\":4378:4381   */\n      dup3\n        /* \"#utility.yul\":4289:4382   */\n      tag_178\n      jump\t// in\n    tag_177:\n        /* \"#utility.yul\":4407:4409   */\n      0x20\n        /* \"#utility.yul\":4402:4405   */\n      dup3\n        /* \"#utility.yul\":4398:4410   */\n      add\n        /* \"#utility.yul\":4391:4410   */\n      swap1\n      pop\n        /* \"#utility.yul\":4050:4416   */\n      swap2\n      swap1\n      pop\n      jump\t// out\n        /* \"#utility.yul\":4422:4788   */\n    tag_179:\n        /* \"#utility.yul\":4564:4567   */\n      0x00\n        /* \"#utility.yul\":4585:4652   */\n      tag_181\n        /* \"#utility.yul\":4649:4651   */\n      0x1f\n        /* \"#utility.yul\":4644:4647   */\n      dup4\n        /* \"#utility.yul\":4585:4652   */\n      tag_161\n      jump\t// in\n    tag_181:\n        /* \"#utility.yul\":4578:4652   */\n      swap2\n      pop\n        /* \"#utility.yul\":4661:4754   */\n      tag_182\n        /* \"#utility.yul\":4750:4753   */\n      dup3\n        /* \"#utility.yul\":4661:4754   */\n      tag_183\n      jump\t// in\n    tag_182:\n        /* \"#utility.yul\":4779:4781   */\n      0x20\n        /* \"#utility.yul\":4774:4777   */\n      dup3\n        /* \"#utility.yul\":4770:4782   */\n      add\n        /* \"#utility.yul\":4763:4782   */\n      swap1\n      pop\n        /* \"#utility.yul\":4422:4788   */\n      swap2\n      swap1\n      pop\n      jump\t// out\n        /* \"#utility.yul\":4794:4912   */\n    tag_184:\n        /* \"#utility.yul\":4881:4905   */\n      tag_186\n        /* \"#utility.yul\":4899:4904   */\n      dup2\n        /* \"#utility.yul\":4881:4905   */\n      tag_187\n      jump\t// in\n    tag_186:\n        /* \"#utility.yul\":4876:4879   */\n      dup3\n        /* \"#utility.yul\":4869:4906   */\n      mstore\n        /* \"#utility.yul\":4794:4912   */\n      pop\n      pop\n      jump\t// out\n        /* \"#utility.yul\":4918:5140   */\n    tag_41:\n        /* \"#utility.yul\":5011:5015   */\n      0x00\n        /* \"#utility.yul\":5049:5051   */\n      0x20\n        /* \"#utility.yul\":5038:5047   */\n      dup3\n        /* \"#utility.yul\":5034:5052   */\n      add\n        /* \"#utility.yul\":5026:5052   */\n      swap1\n      pop\n        /* \"#utility.yul\":5062:5133   */\n      tag_189\n        /* \"#utility.yul\":5130:5131   */\n      0x00\n        /* \"#utility.yul\":5119:5128   */\n      dup4\n        /* \"#utility.yul\":5115:5132   */\n      add\n        /* \"#utility.yul\":5106:5112   */\n      dup5\n        /* \"#utility.yul\":5062:5133   */\n      tag_150\n      jump\t// in\n    tag_189:\n        /* \"#utility.yul\":4918:5140   */\n      swap3\n      swap2\n      pop\n      pop\n      jump\t// out\n        /* \"#utility.yul\":5146:5588   */\n    tag_66:\n        /* \"#utility.yul\":5295:5299   */\n      0x00\n        /* \"#utility.yul\":5333:5335   */\n      0x60\n        /* \"#utility.yul\":5322:5331   */\n      dup3\n        /* \"#utility.yul\":5318:5336   */\n      add\n        /* \"#utility.yul\":5310:5336   */\n      swap1\n      pop\n        /* \"#utility.yul\":5346:5417   */\n      tag_191\n        /* \"#utility.yul\":5414:5415   */\n      0x00\n        /* \"#utility.yul\":5403:5412   */\n      dup4\n        /* \"#utility.yul\":5399:5416   */\n      add\n        /* \"#utility.yul\":5390:5396   */\n      dup7\n        /* \"#utility.yul\":5346:5417   */\n      tag_150\n      jump\t// in\n    tag_191:\n        /* \"#utility.yul\":5427:5499   */\n      tag_192\n        /* \"#utility.yul\":5495:5497   */\n      0x20\n        /* \"#utility.yul\":5484:5493   */\n      dup4\n        /* \"#utility.yul\":5480:5498   */\n      add\n        /* \"#utility.yul\":5471:5477   */\n      dup6\n        /* \"#utility.yul\":5427:5499   */\n      tag_150\n      jump\t// in\n    tag_192:\n        /* \"#utility.yul\":5509:5581   */\n      tag_193\n        /* \"#utility.yul\":5577:5579   */\n      0x40\n        /* \"#utility.yul\":5566:5575   */\n      dup4\n        /* \"#utility.yul\":5562:5580   */\n      add\n        /* \"#utility.yul\":5553:5559   */\n      dup5\n        /* \"#utility.yul\":5509:5581   */\n      tag_184\n      jump\t// in\n    tag_193:\n        /* \"#utility.yul\":5146:5588   */\n      swap5\n      swap4\n      pop\n      pop\n      pop\n      pop\n      jump\t// out\n        /* \"#utility.yul\":5594:5812   */\n    tag_27:\n        /* \"#utility.yul\":5685:5689   */\n      0x00\n        /* \"#utility.yul\":5723:5725   */\n      0x20\n        /* \"#utility.yul\":5712:5721   */\n      dup3\n        /* \"#utility.yul\":5708:5726   */\n      add\n        /* \"#utility.yul\":5700:5726   */\n      swap1\n      pop\n        /* \"#utility.yul\":5736:5805   */\n      tag_195\n        /* \"#utility.yul\":5802:5803   */\n      0x00\n        /* \"#utility.yul\":5791:5800   */\n      dup4\n        /* \"#utility.yul\":5787:5804   */\n      add\n        /* \"#utility.yul\":5778:5784   */\n      dup5\n        /* \"#utility.yul\":5736:5805   */\n      tag_154\n      jump\t// in\n    tag_195:\n        /* \"#utility.yul\":5594:5812   */\n      swap3\n      swap2\n      pop\n      pop\n      jump\t// out\n        /* \"#utility.yul\":5818:6237   */\n    tag_94:\n        /* \"#utility.yul\":5984:5988   */\n      0x00\n        /* \"#utility.yul\":6022:6024   */\n      0x20\n        /* \"#utility.yul\":6011:6020   */\n      dup3\n        /* \"#utility.yul\":6007:6025   */\n      add\n        /* \"#utility.yul\":5999:6025   */\n      swap1\n      pop\n        /* \"#utility.yul\":6071:6080   */\n      dup2\n        /* \"#utility.yul\":6065:6069   */\n      dup2\n        /* \"#utility.yul\":6061:6081   */\n      sub\n        /* \"#utility.yul\":6057:6058   */\n      0x00\n        /* \"#utility.yul\":6046:6055   */\n      dup4\n        /* \"#utility.yul\":6042:6059   */\n      add\n        /* \"#utility.yul\":6035:6082   */\n      mstore\n        /* \"#utility.yul\":6099:6230   */\n      tag_197\n        /* \"#utility.yul\":6225:6229   */\n      dup2\n        /* \"#utility.yul\":6099:6230   */\n      tag_158\n      jump\t// in\n    tag_197:\n        /* \"#utility.yul\":6091:6230   */\n      swap1\n      pop\n        /* \"#utility.yul\":5818:6237   */\n      swap2\n      swap1\n      pop\n      jump\t// out\n        /* \"#utility.yul\":6243:6662   */\n    tag_89:\n        /* \"#utility.yul\":6409:6413   */\n      0x00\n        /* \"#utility.yul\":6447:6449   */\n      0x20\n        /* \"#utility.yul\":6436:6445   */\n      dup3\n        /* \"#utility.yul\":6432:6450   */\n      add\n        /* \"#utility.yul\":6424:6450   */\n      swap1\n      pop\n        /* \"#utility.yul\":6496:6505   */\n      dup2\n        /* \"#utility.yul\":6490:6494   */\n      dup2\n        /* \"#utility.yul\":6486:6506   */\n      sub\n        /* \"#utility.yul\":6482:6483   */\n      0x00\n        /* \"#utility.yul\":6471:6480   */\n      dup4\n        /* \"#utility.yul\":6467:6484   */\n      add\n        /* \"#utility.yul\":6460:6507   */\n      mstore\n        /* \"#utility.yul\":6524:6655   */\n      tag_199\n        /* \"#utility.yul\":6650:6654   */\n      dup2\n        /* \"#utility.yul\":6524:6655   */\n      tag_164\n      jump\t// in\n    tag_199:\n        /* \"#utility.yul\":6516:6655   */\n      swap1\n      pop\n        /* \"#utility.yul\":6243:6662   */\n      swap2\n      swap1\n      pop\n      jump\t// out\n        /* \"#utility.yul\":6668:7087   */\n    tag_101:\n        /* \"#utility.yul\":6834:6838   */\n      0x00\n        /* \"#utility.yul\":6872:6874   */\n      0x20\n        /* \"#utility.yul\":6861:6870   */\n      dup3\n        /* \"#utility.yul\":6857:6875   */\n      add\n        /* \"#utility.yul\":6849:6875   */\n      swap1\n      pop\n        /* \"#utility.yul\":6921:6930   */\n      dup2\n        /* \"#utility.yul\":6915:6919   */\n      dup2\n        /* \"#utility.yul\":6911:6931   */\n      sub\n        /* \"#utility.yul\":6907:6908   */\n      0x00\n        /* \"#utility.yul\":6896:6905   */\n      dup4\n        /* \"#utility.yul\":6892:6909   */\n      add\n        /* \"#utility.yul\":6885:6932   */\n      mstore\n        /* \"#utility.yul\":6949:7080   */\n      tag_201\n        /* \"#utility.yul\":7075:7079   */\n      dup2\n        /* \"#utility.yul\":6949:7080   */\n      tag_169\n      jump\t// in\n    tag_201:\n        /* \"#utility.yul\":6941:7080   */\n      swap1\n      pop\n        /* \"#utility.yul\":6668:7087   */\n      swap2\n      swap1\n      pop\n      jump\t// out\n        /* \"#utility.yul\":7093:7512   */\n    tag_62:\n        /* \"#utility.yul\":7259:7263   */\n      0x00\n        /* \"#utility.yul\":7297:7299   */\n      0x20\n        /* \"#utility.yul\":7286:7295   */\n      dup3\n        /* \"#utility.yul\":7282:7300   */\n      add\n        /* \"#utility.yul\":7274:7300   */\n      swap1\n      pop\n        /* \"#utility.yul\":7346:7355   */\n      dup2\n        /* \"#utility.yul\":7340:7344   */\n      dup2\n        /* \"#utility.yul\":7336:7356   */\n      sub\n        /* \"#utility.yul\":7332:7333   */\n      0x00\n        /* \"#utility.yul\":7321:7330   */\n      dup4\n        /* \"#utility.yul\":7317:7334   */\n      add\n        /* \"#utility.yul\":7310:7357   */\n      mstore\n        /* \"#utility.yul\":7374:7505   */\n      tag_203\n        /* \"#utility.yul\":7500:7504   */\n      dup2\n        /* \"#utility.yul\":7374:7505   */\n      tag_174\n      jump\t// in\n    tag_203:\n        /* \"#utility.yul\":7366:7505   */\n      swap1\n      pop\n        /* \"#utility.yul\":7093:7512   */\n      swap2\n      swap1\n      pop\n      jump\t// out\n        /* \"#utility.yul\":7518:7937   */\n    tag_58:\n        /* \"#utility.yul\":7684:7688   */\n      0x00\n        /* \"#utility.yul\":7722:7724   */\n      0x20\n        /* \"#utility.yul\":7711:7720   */\n      dup3\n        /* \"#utility.yul\":7707:7725   */\n      add\n        /* \"#utility.yul\":7699:7725   */\n      swap1\n      pop\n        /* \"#utility.yul\":7771:7780   */\n      dup2\n        /* \"#utility.yul\":7765:7769   */\n      dup2\n        /* \"#utility.yul\":7761:7781   */\n      sub\n        /* \"#utility.yul\":7757:7758   */\n      0x00\n        /* \"#utility.yul\":7746:7755   */\n      dup4\n        /* \"#utility.yul\":7742:7759   */\n      add\n        /* \"#utility.yul\":7735:7782   */\n      mstore\n        /* \"#utility.yul\":7799:7930   */\n      tag_205\n        /* \"#utility.yul\":7925:7929   */\n      dup2\n        /* \"#utility.yul\":7799:7930   */\n      tag_179\n      jump\t// in\n    tag_205:\n        /* \"#utility.yul\":7791:7930   */\n      swap1\n      pop\n        /* \"#utility.yul\":7518:7937   */\n      swap2\n      swap1\n      pop\n      jump\t// out\n        /* \"#utility.yul\":7943:8165   */\n    tag_20:\n        /* \"#utility.yul\":8036:8040   */\n      0x00\n        /* \"#utility.yul\":8074:8076   */\n      0x20\n        /* \"#utility.yul\":8063:8072   */\n      dup3\n        /* \"#utility.yul\":8059:8077   */\n      add\n        /* \"#utility.yul\":8051:8077   */\n      swap1\n      pop\n        /* \"#utility.yul\":8087:8158   */\n      tag_207\n        /* \"#utility.yul\":8155:8156   */\n      0x00\n        /* \"#utility.yul\":8144:8153   */\n      dup4\n        /* \"#utility.yul\":8140:8157   */\n      add\n        /* \"#utility.yul\":8131:8137   */\n      dup5\n        /* \"#utility.yul\":8087:8158   */\n      tag_184\n      jump\t// in\n    tag_207:\n        /* \"#utility.yul\":7943:8165   */\n      swap3\n      swap2\n      pop\n      pop\n      jump\t// out\n        /* \"#utility.yul\":8171:8300   */\n    tag_111:\n        /* \"#utility.yul\":8205:8211   */\n      0x00\n        /* \"#utility.yul\":8232:8252   */\n      tag_209\n      tag_210\n      jump\t// in\n    tag_209:\n        /* \"#utility.yul\":8222:8252   */\n      swap1\n      pop\n        /* \"#utility.yul\":8261:8294   */\n      tag_211\n        /* \"#utility.yul\":8289:8293   */\n      dup3\n        /* \"#utility.yul\":8281:8287   */\n      dup3\n        /* \"#utility.yul\":8261:8294   */\n      tag_212\n      jump\t// in\n    tag_211:\n        /* \"#utility.yul\":8171:8300   */\n      swap2\n      swap1\n      pop\n      jump\t// out\n        /* \"#utility.yul\":8306:8381   */\n    tag_210:\n        /* \"#utility.yul\":8339:8345   */\n      0x00\n        /* \"#utility.yul\":8372:8374   */\n      0x40\n        /* \"#utility.yul\":8366:8375   */\n      mload\n        /* \"#utility.yul\":8356:8375   */\n      swap1\n      pop\n        /* \"#utility.yul\":8306:8381   */\n      swap1\n      jump\t// out\n        /* \"#utility.yul\":8387:8694   */\n    tag_110:\n        /* \"#utility.yul\":8448:8452   */\n      0x00\n        /* \"#utility.yul\":8538:8556   */\n      0xffffffffffffffff\n        /* \"#utility.yul\":8530:8536   */\n      dup3\n        /* \"#utility.yul\":8527:8557   */\n      gt\n        /* \"#utility.yul\":8524:8580   */\n      iszero\n      tag_215\n      jumpi\n        /* \"#utility.yul\":8560:8578   */\n      tag_216\n      tag_217\n      jump\t// in\n    tag_216:\n        /* \"#utility.yul\":8524:8580   */\n    tag_215:\n        /* \"#utility.yul\":8598:8627   */\n      tag_218\n        /* \"#utility.yul\":8620:8626   */\n      dup3\n        /* \"#utility.yul\":8598:8627   */\n      tag_219\n      jump\t// in\n    tag_218:\n        /* \"#utility.yul\":8590:8627   */\n      swap1\n      pop\n        /* \"#utility.yul\":8682:8686   */\n      0x20\n        /* \"#utility.yul\":8676:8680   */\n      dup2\n        /* \"#utility.yul\":8672:8687   */\n      add\n        /* \"#utility.yul\":8664:8687   */\n      swap1\n      pop\n        /* \"#utility.yul\":8387:8694   */\n      swap2\n      swap1\n      pop\n      jump\t// out\n        /* \"#utility.yul\":8700:8869   */\n    tag_161:\n        /* \"#utility.yul\":8784:8795   */\n      0x00\n        /* \"#utility.yul\":8818:8824   */\n      dup3\n        /* \"#utility.yul\":8813:8816   */\n      dup3\n        /* \"#utility.yul\":8806:8825   */\n      mstore\n        /* \"#utility.yul\":8858:8862   */\n      0x20\n        /* \"#utility.yul\":8853:8856   */\n      dup3\n        /* \"#utility.yul\":8849:8863   */\n      add\n        /* \"#utility.yul\":8834:8863   */\n      swap1\n      pop\n        /* \"#utility.yul\":8700:8869   */\n      swap3\n      swap2\n      pop\n      pop\n      jump\t// out\n        /* \"#utility.yul\":8875:8971   */\n    tag_153:\n        /* \"#utility.yul\":8912:8919   */\n      0x00\n        /* \"#utility.yul\":8941:8965   */\n      tag_222\n        /* \"#utility.yul\":8959:8964   */\n      dup3\n        /* \"#utility.yul\":8941:8965   */\n      tag_223\n      jump\t// in\n    tag_222:\n        /* \"#utility.yul\":8930:8965   */\n      swap1\n      pop\n        /* \"#utility.yul\":8875:8971   */\n      swap2\n      swap1\n      pop\n      jump\t// out\n        /* \"#utility.yul\":8977:9126   */\n    tag_157:\n        /* \"#utility.yul\":9013:9020   */\n      0x00\n        /* \"#utility.yul\":9053:9119   */\n      0xffffffff00000000000000000000000000000000000000000000000000000000\n        /* \"#utility.yul\":9046:9051   */\n      dup3\n        /* \"#utility.yul\":9042:9120   */\n      and\n        /* \"#utility.yul\":9031:9120   */\n      swap1\n      pop\n        /* \"#utility.yul\":8977:9126   */\n      swap2\n      swap1\n      pop\n      jump\t// out\n        /* \"#utility.yul\":9132:9258   */\n    tag_223:\n        /* \"#utility.yul\":9169:9176   */\n      0x00\n        /* \"#utility.yul\":9209:9251   */\n      0xffffffffffffffffffffffffffffffffffffffff\n        /* \"#utility.yul\":9202:9207   */\n      dup3\n        /* \"#utility.yul\":9198:9252   */\n      and\n        /* \"#utility.yul\":9187:9252   */\n      swap1\n      pop\n        /* \"#utility.yul\":9132:9258   */\n      swap2\n      swap1\n      pop\n      jump\t// out\n        /* \"#utility.yul\":9264:9341   */\n    tag_187:\n        /* \"#utility.yul\":9301:9308   */\n      0x00\n        /* \"#utility.yul\":9330:9335   */\n      dup2\n        /* \"#utility.yul\":9319:9335   */\n      swap1\n      pop\n        /* \"#utility.yul\":9264:9341   */\n      swap2\n      swap1\n      pop\n      jump\t// out\n        /* \"#utility.yul\":9347:9501   */\n    tag_116:\n        /* \"#utility.yul\":9431:9437   */\n      dup3\n        /* \"#utility.yul\":9426:9429   */\n      dup2\n        /* \"#utility.yul\":9421:9424   */\n      dup4\n        /* \"#utility.yul\":9408:9438   */\n      calldatacopy\n        /* \"#utility.yul\":9493:9494   */\n      0x00\n        /* \"#utility.yul\":9484:9490   */\n      dup4\n        /* \"#utility.yul\":9479:9482   */\n      dup4\n        /* \"#utility.yul\":9475:9491   */\n      add\n        /* \"#utility.yul\":9468:9495   */\n      mstore\n        /* \"#utility.yul\":9347:9501   */\n      pop\n      pop\n      pop\n      jump\t// out\n        /* \"#utility.yul\":9507:9788   */\n    tag_212:\n        /* \"#utility.yul\":9590:9617   */\n      tag_229\n        /* \"#utility.yul\":9612:9616   */\n      dup3\n        /* \"#utility.yul\":9590:9617   */\n      tag_219\n      jump\t// in\n    tag_229:\n        /* \"#utility.yul\":9582:9588   */\n      dup2\n        /* \"#utility.yul\":9578:9618   */\n      add\n        /* \"#utility.yul\":9720:9726   */\n      dup2\n        /* \"#utility.yul\":9708:9718   */\n      dup2\n        /* \"#utility.yul\":9705:9727   */\n      lt\n        /* \"#utility.yul\":9684:9702   */\n      0xffffffffffffffff\n        /* \"#utility.yul\":9672:9682   */\n      dup3\n        /* \"#utility.yul\":9669:9703   */\n      gt\n        /* \"#utility.yul\":9666:9728   */\n      or\n        /* \"#utility.yul\":9663:9751   */\n      iszero\n      tag_230\n      jumpi\n        /* \"#utility.yul\":9731:9749   */\n      tag_231\n      tag_217\n      jump\t// in\n    tag_231:\n        /* \"#utility.yul\":9663:9751   */\n    tag_230:\n        /* \"#utility.yul\":9771:9781   */\n      dup1\n        /* \"#utility.yul\":9767:9769   */\n      0x40\n        /* \"#utility.yul\":9760:9782   */\n      mstore\n        /* \"#utility.yul\":9550:9788   */\n      pop\n        /* \"#utility.yul\":9507:9788   */\n      pop\n      pop\n      jump\t// out\n        /* \"#utility.yul\":9794:9974   */\n    tag_217:\n        /* \"#utility.yul\":9842:9919   */\n      0x4e487b7100000000000000000000000000000000000000000000000000000000\n        /* \"#utility.yul\":9839:9840   */\n      0x00\n        /* \"#utility.yul\":9832:9920   */\n      mstore\n        /* \"#utility.yul\":9939:9943   */\n      0x41\n        /* \"#utility.yul\":9936:9937   */\n      0x04\n        /* \"#utility.yul\":9929:9944   */\n      mstore\n        /* \"#utility.yul\":9963:9967   */\n      0x24\n        /* \"#utility.yul\":9960:9961   */\n      0x00\n        /* \"#utility.yul\":9953:9968   */\n      revert\n        /* \"#utility.yul\":9980:10097   */\n    tag_125:\n        /* \"#utility.yul\":10089:10090   */\n      0x00\n        /* \"#utility.yul\":10086:10087   */\n      dup1\n        /* \"#utility.yul\":10079:10091   */\n      revert\n        /* \"#utility.yul\":10103:10220   */\n    tag_114:\n        /* \"#utility.yul\":10212:10213   */\n      0x00\n        /* \"#utility.yul\":10209:10210   */\n      dup1\n        /* \"#utility.yul\":10202:10214   */\n      revert\n        /* \"#utility.yul\":10226:10343   */\n    tag_144:\n        /* \"#utility.yul\":10335:10336   */\n      0x00\n        /* \"#utility.yul\":10332:10333   */\n      dup1\n        /* \"#utility.yul\":10325:10337   */\n      revert\n        /* \"#utility.yul\":10349:10466   */\n    tag_134:\n        /* \"#utility.yul\":10458:10459   */\n      0x00\n        /* \"#utility.yul\":10455:10456   */\n      dup1\n        /* \"#utility.yul\":10448:10460   */\n      revert\n        /* \"#utility.yul\":10472:10574   */\n    tag_219:\n        /* \"#utility.yul\":10513:10519   */\n      0x00\n        /* \"#utility.yul\":10564:10566   */\n      0x1f\n        /* \"#utility.yul\":10560:10567   */\n      not\n        /* \"#utility.yul\":10555:10557   */\n      0x1f\n        /* \"#utility.yul\":10548:10553   */\n      dup4\n        /* \"#utility.yul\":10544:10558   */\n      add\n        /* \"#utility.yul\":10540:10568   */\n      and\n        /* \"#utility.yul\":10530:10568   */\n      swap1\n      pop\n        /* \"#utility.yul\":10472:10574   */\n      swap2\n      swap1\n      pop\n      jump\t// out\n        /* \"#utility.yul\":10580:10757   */\n    tag_163:\n        /* \"#utility.yul\":10720:10749   */\n      0x436f756e7465723a2064656372656d656e74206f766572666c6f770000000000\n        /* \"#utility.yul\":10716:10717   */\n      0x00\n        /* \"#utility.yul\":10708:10714   */\n      dup3\n        /* \"#utility.yul\":10704:10718   */\n      add\n        /* \"#utility.yul\":10697:10750   */\n      mstore\n        /* \"#utility.yul\":10580:10757   */\n      pop\n      jump\t// out\n        /* \"#utility.yul\":10763:10988   */\n    tag_168:\n        /* \"#utility.yul\":10903:10937   */\n      0x4f776e61626c653a206e6577206f776e657220697320746865207a65726f2061\n        /* \"#utility.yul\":10899:10900   */\n      0x00\n        /* \"#utility.yul\":10891:10897   */\n      dup3\n        /* \"#utility.yul\":10887:10901   */\n      add\n        /* \"#utility.yul\":10880:10938   */\n      mstore\n        /* \"#utility.yul\":10972:10980   */\n      0x6464726573730000000000000000000000000000000000000000000000000000\n        /* \"#utility.yul\":10967:10969   */\n      0x20\n        /* \"#utility.yul\":10959:10965   */\n      dup3\n        /* \"#utility.yul\":10955:10970   */\n      add\n        /* \"#utility.yul\":10948:10981   */\n      mstore\n        /* \"#utility.yul\":10763:10988   */\n      pop\n      jump\t// out\n        /* \"#utility.yul\":10994:11176   */\n    tag_173:\n        /* \"#utility.yul\":11134:11168   */\n      0x4f776e61626c653a2063616c6c6572206973206e6f7420746865206f776e6572\n        /* \"#utility.yul\":11130:11131   */\n      0x00\n        /* \"#utility.yul\":11122:11128   */\n      dup3\n        /* \"#utility.yul\":11118:11132   */\n      add\n        /* \"#utility.yul\":11111:11169   */\n      mstore\n        /* \"#utility.yul\":10994:11176   */\n      pop\n      jump\t// out\n        /* \"#utility.yul\":11182:11354   */\n    tag_178:\n        /* \"#utility.yul\":11322:11346   */\n      0x596f7520617265206e6f7420746865206f776e65722e00000000000000000000\n        /* \"#utility.yul\":11318:11319   */\n      0x00\n        /* \"#utility.yul\":11310:11316   */\n      dup3\n        /* \"#utility.yul\":11306:11320   */\n      add\n        /* \"#utility.yul\":11299:11347   */\n      mstore\n        /* \"#utility.yul\":11182:11354   */\n      pop\n      jump\t// out\n        /* \"#utility.yul\":11360:11541   */\n    tag_183:\n        /* \"#utility.yul\":11500:11533   */\n      0x5265656e7472616e637947756172643a207265656e7472616e742063616c6c00\n        /* \"#utility.yul\":11496:11497   */\n      0x00\n        /* \"#utility.yul\":11488:11494   */\n      dup3\n        /* \"#utility.yul\":11484:11498   */\n      add\n        /* \"#utility.yul\":11477:11534   */\n      mstore\n        /* \"#utility.yul\":11360:11541   */\n      pop\n      jump\t// out\n        /* \"#utility.yul\":11547:11669   */\n    tag_120:\n        /* \"#utility.yul\":11620:11644   */\n      tag_244\n        /* \"#utility.yul\":11638:11643   */\n      dup2\n        /* \"#utility.yul\":11620:11644   */\n      tag_153\n      jump\t// in\n    tag_244:\n        /* \"#utility.yul\":11613:11618   */\n      dup2\n        /* \"#utility.yul\":11610:11645   */\n      eq\n        /* \"#utility.yul\":11600:11663   */\n      tag_245\n      jumpi\n        /* \"#utility.yul\":11659:11660   */\n      0x00\n        /* \"#utility.yul\":11656:11657   */\n      dup1\n        /* \"#utility.yul\":11649:11661   */\n      revert\n        /* \"#utility.yul\":11600:11663   */\n    tag_245:\n        /* \"#utility.yul\":11547:11669   */\n      pop\n      jump\t// out\n        /* \"#utility.yul\":11675:11797   */\n    tag_130:\n        /* \"#utility.yul\":11748:11772   */\n      tag_247\n        /* \"#utility.yul\":11766:11771   */\n      dup2\n        /* \"#utility.yul\":11748:11772   */\n      tag_187\n      jump\t// in\n    tag_247:\n        /* \"#utility.yul\":11741:11746   */\n      dup2\n        /* \"#utility.yul\":11738:11773   */\n      eq\n        /* \"#utility.yul\":11728:11791   */\n      tag_248\n      jumpi\n        /* \"#utility.yul\":11787:11788   */\n      0x00\n        /* \"#utility.yul\":11784:11785   */\n      dup1\n        /* \"#utility.yul\":11777:11789   */\n      revert\n        /* \"#utility.yul\":11728:11791   */\n    tag_248:\n        /* \"#utility.yul\":11675:11797   */\n      pop\n      jump\t// out\n\n    auxdata: 0xa2646970667358221220ca278c13e82d0859db6101bf3d49c5a514a613a2a95d3d546e577de540f1e82a64736f6c63430008070033\n}\n",
				"bytecode": {
					"linkReferences": {},
					"object": "60806040523480156200001157600080fd5b5060405162000ffc38038062000ffc833981810160405281019062000037919062000189565b620000576200004b620000a660201b60201c565b620000ae60201b60201c565b6001808190555080600260006101000a81548173ffffffffffffffffffffffffffffffffffffffff021916908373ffffffffffffffffffffffffffffffffffffffff1602179055505062000222565b600033905090565b60008060009054906101000a900473ffffffffffffffffffffffffffffffffffffffff169050816000806101000a81548173ffffffffffffffffffffffffffffffffffffffff021916908373ffffffffffffffffffffffffffffffffffffffff1602179055508173ffffffffffffffffffffffffffffffffffffffff168173ffffffffffffffffffffffffffffffffffffffff167f8be0079c531659141344cd1fd0a4f28419497f9722a3daafe3b4186f6b6457e060405160405180910390a35050565b600081519050620001838162000208565b92915050565b600060208284031215620001a257620001a162000203565b5b6000620001b28482850162000172565b91505092915050565b6000620001c882620001e3565b9050919050565b6000620001dc82620001bb565b9050919050565b600073ffffffffffffffffffffffffffffffffffffffff82169050919050565b600080fd5b6200021381620001cf565b81146200021f57600080fd5b50565b610dca80620002326000396000f3fe60806040526004361061007f5760003560e01c80638488cc411161004e5780638488cc41146101455780638da5cb5b14610182578063a694fc3a146101ad578063f2fde38b146101d657610086565b80630700037d1461008b578063150b7a02146100c85780632e17de7814610105578063715018a61461012e57610086565b3661008657005b600080fd5b34801561009757600080fd5b506100b260048036038101906100ad919061082f565b6101ff565b6040516100bf9190610af5565b60405180910390f35b3480156100d457600080fd5b506100ef60048036038101906100ea919061085c565b610217565b6040516100fc9190610a3a565b60405180910390f35b34801561011157600080fd5b5061012c600480360381019061012791906108df565b61022b565b005b34801561013a57600080fd5b506101436103f5565b005b34801561015157600080fd5b5061016c600480360381019061016791906108df565b610409565b60405161017991906109e8565b60405180910390f35b34801561018e57600080fd5b5061019761043c565b6040516101a491906109e8565b60405180910390f35b3480156101b957600080fd5b506101d460048036038101906101cf91906108df565b610465565b005b3480156101e257600080fd5b506101fd60048036038101906101f8919061082f565b610555565b005b60056020528060005260406000206000915090505481565b600063150b7a0260e01b9050949350505050565b60026001541415610271576040517f08c379a000000000000000000000000000000000000000000000000000000000815260040161026890610ad5565b60405180910390fd5b60026001819055503373ffffffffffffffffffffffffffffffffffffffff166004600083815260200190815260200160002060009054906101000a900473ffffffffffffffffffffffffffffffffffffffff1673ffffffffffffffffffffffffffffffffffffffff161461031a576040517f08c379a000000000000000000000000000000000000000000000000000000000815260040161031190610ab5565b60405180910390fd5b6004600082815260200190815260200160002060006101000a81549073ffffffffffffffffffffffffffffffffffffffff021916905561035a60036105d9565b600260009054906101000a900473ffffffffffffffffffffffffffffffffffffffff1673ffffffffffffffffffffffffffffffffffffffff166342842e0e3033846040518463ffffffff1660e01b81526004016103b993929190610a03565b600060405180830381600087803b1580156103d357600080fd5b505af11580156103e7573d6000803e3d6000fd5b505050506001808190555050565b6103fd610635565b61040760006106b3565b565b60046020528060005260406000206000915054906101000a900473ffffffffffffffffffffffffffffffffffffffff1681565b60008060009054906101000a900473ffffffffffffffffffffffffffffffffffffffff16905090565b600260009054906101000a900473ffffffffffffffffffffffffffffffffffffffff1673ffffffffffffffffffffffffffffffffffffffff166342842e0e3330846040518463ffffffff1660e01b81526004016104c493929190610a03565b600060405180830381600087803b1580156104de57600080fd5b505af11580156104f2573d6000803e3d6000fd5b50505050336004600083815260200190815260200160002060006101000a81548173ffffffffffffffffffffffffffffffffffffffff021916908373ffffffffffffffffffffffffffffffffffffffff1602179055506105526003610777565b50565b61055d610635565b600073ffffffffffffffffffffffffffffffffffffffff168173ffffffffffffffffffffffffffffffffffffffff1614156105cd576040517f08c379a00000000000000000000000000000000000000000000000000000000081526004016105c490610a75565b60405180910390fd5b6105d6816106b3565b50565b60008160000154905060008111610625576040517f08c379a000000000000000000000000000000000000000000000000000000000815260040161061c90610a55565b60405180910390fd5b6001810382600001819055505050565b61063d61078d565b73ffffffffffffffffffffffffffffffffffffffff1661065b61043c565b73ffffffffffffffffffffffffffffffffffffffff16146106b1576040517f08c379a00000000000000000000000000000000000000000000000000000000081526004016106a890610a95565b60405180910390fd5b565b60008060009054906101000a900473ffffffffffffffffffffffffffffffffffffffff169050816000806101000a81548173ffffffffffffffffffffffffffffffffffffffff021916908373ffffffffffffffffffffffffffffffffffffffff1602179055508173ffffffffffffffffffffffffffffffffffffffff168173ffffffffffffffffffffffffffffffffffffffff167f8be0079c531659141344cd1fd0a4f28419497f9722a3daafe3b4186f6b6457e060405160405180910390a35050565b6001816000016000828254019250508190555050565b600033905090565b60006107a86107a384610b35565b610b10565b9050828152602081018484840111156107c4576107c3610c53565b5b6107cf848285610bdf565b509392505050565b6000813590506107e681610d66565b92915050565b600082601f83011261080157610800610c4e565b5b8135610811848260208601610795565b91505092915050565b60008135905061082981610d7d565b92915050565b60006020828403121561084557610844610c5d565b5b6000610853848285016107d7565b91505092915050565b6000806000806080858703121561087657610875610c5d565b5b6000610884878288016107d7565b9450506020610895878288016107d7565b93505060406108a68782880161081a565b925050606085013567ffffffffffffffff8111156108c7576108c6610c58565b5b6108d3878288016107ec565b91505092959194509250565b6000602082840312156108f5576108f4610c5d565b5b60006109038482850161081a565b91505092915050565b61091581610b77565b82525050565b61092481610b89565b82525050565b6000610937601b83610b66565b915061094282610c73565b602082019050919050565b600061095a602683610b66565b915061096582610c9c565b604082019050919050565b600061097d602083610b66565b915061098882610ceb565b602082019050919050565b60006109a0601683610b66565b91506109ab82610d14565b602082019050919050565b60006109c3601f83610b66565b91506109ce82610d3d565b602082019050919050565b6109e281610bd5565b82525050565b60006020820190506109fd600083018461090c565b92915050565b6000606082019050610a18600083018661090c565b610a25602083018561090c565b610a3260408301846109d9565b949350505050565b6000602082019050610a4f600083018461091b565b92915050565b60006020820190508181036000830152610a6e8161092a565b9050919050565b60006020820190508181036000830152610a8e8161094d565b9050919050565b60006020820190508181036000830152610aae81610970565b9050919050565b60006020820190508181036000830152610ace81610993565b9050919050565b60006020820190508181036000830152610aee816109b6565b9050919050565b6000602082019050610b0a60008301846109d9565b92915050565b6000610b1a610b2b565b9050610b268282610bee565b919050565b6000604051905090565b600067ffffffffffffffff821115610b5057610b4f610c1f565b5b610b5982610c62565b9050602081019050919050565b600082825260208201905092915050565b6000610b8282610bb5565b9050919050565b60007fffffffff0000000000000000000000000000000000000000000000000000000082169050919050565b600073ffffffffffffffffffffffffffffffffffffffff82169050919050565b6000819050919050565b82818337600083830152505050565b610bf782610c62565b810181811067ffffffffffffffff82111715610c1657610c15610c1f565b5b80604052505050565b7f4e487b7100000000000000000000000000000000000000000000000000000000600052604160045260246000fd5b600080fd5b600080fd5b600080fd5b600080fd5b6000601f19601f8301169050919050565b7f436f756e7465723a2064656372656d656e74206f766572666c6f770000000000600082015250565b7f4f776e61626c653a206e6577206f776e657220697320746865207a65726f206160008201527f6464726573730000000000000000000000000000000000000000000000000000602082015250565b7f4f776e61626c653a2063616c6c6572206973206e6f7420746865206f776e6572600082015250565b7f596f7520617265206e6f7420746865206f776e65722e00000000000000000000600082015250565b7f5265656e7472616e637947756172643a207265656e7472616e742063616c6c00600082015250565b610d6f81610b77565b8114610d7a57600080fd5b50565b610d8681610bd5565b8114610d9157600080fd5b5056fea2646970667358221220ca278c13e82d0859db6101bf3d49c5a514a613a2a95d3d546e577de540f1e82a64736f6c63430008070033",
					"opcodes": "PUSH1 0x80 PUSH1 0x40 MSTORE CALLVALUE DUP1 ISZERO PUSH3 0x11 JUMPI PUSH1 0x0 DUP1 REVERT JUMPDEST POP PUSH1 0x40 MLOAD PUSH3 0xFFC CODESIZE SUB DUP1 PUSH3 0xFFC DUP4 CODECOPY DUP2 DUP2 ADD PUSH1 0x40 MSTORE DUP2 ADD SWAP1 PUSH3 0x37 SWAP2 SWAP1 PUSH3 0x189 JUMP JUMPDEST PUSH3 0x57 PUSH3 0x4B PUSH3 0xA6 PUSH1 0x20 SHL PUSH1 0x20 SHR JUMP JUMPDEST PUSH3 0xAE PUSH1 0x20 SHL PUSH1 0x20 SHR JUMP JUMPDEST PUSH1 0x1 DUP1 DUP2 SWAP1 SSTORE POP DUP1 PUSH1 0x2 PUSH1 0x0 PUSH2 0x100 EXP DUP2 SLOAD DUP2 PUSH20 0xFFFFFFFFFFFFFFFFFFFFFFFFFFFFFFFFFFFFFFFF MUL NOT AND SWAP1 DUP4 PUSH20 0xFFFFFFFFFFFFFFFFFFFFFFFFFFFFFFFFFFFFFFFF AND MUL OR SWAP1 SSTORE POP POP PUSH3 0x222 JUMP JUMPDEST PUSH1 0x0 CALLER SWAP1 POP SWAP1 JUMP JUMPDEST PUSH1 0x0 DUP1 PUSH1 0x0 SWAP1 SLOAD SWAP1 PUSH2 0x100 EXP SWAP1 DIV PUSH20 0xFFFFFFFFFFFFFFFFFFFFFFFFFFFFFFFFFFFFFFFF AND SWAP1 POP DUP2 PUSH1 0x0 DUP1 PUSH2 0x100 EXP DUP2 SLOAD DUP2 PUSH20 0xFFFFFFFFFFFFFFFFFFFFFFFFFFFFFFFFFFFFFFFF MUL NOT AND SWAP1 DUP4 PUSH20 0xFFFFFFFFFFFFFFFFFFFFFFFFFFFFFFFFFFFFFFFF AND MUL OR SWAP1 SSTORE POP DUP2 PUSH20 0xFFFFFFFFFFFFFFFFFFFFFFFFFFFFFFFFFFFFFFFF AND DUP2 PUSH20 0xFFFFFFFFFFFFFFFFFFFFFFFFFFFFFFFFFFFFFFFF AND PUSH32 0x8BE0079C531659141344CD1FD0A4F28419497F9722A3DAAFE3B4186F6B6457E0 PUSH1 0x40 MLOAD PUSH1 0x40 MLOAD DUP1 SWAP2 SUB SWAP1 LOG3 POP POP JUMP JUMPDEST PUSH1 0x0 DUP2 MLOAD SWAP1 POP PUSH3 0x183 DUP2 PUSH3 0x208 JUMP JUMPDEST SWAP3 SWAP2 POP POP JUMP JUMPDEST PUSH1 0x0 PUSH1 0x20 DUP3 DUP5 SUB SLT ISZERO PUSH3 0x1A2 JUMPI PUSH3 0x1A1 PUSH3 0x203 JUMP JUMPDEST JUMPDEST PUSH1 0x0 PUSH3 0x1B2 DUP5 DUP3 DUP6 ADD PUSH3 0x172 JUMP JUMPDEST SWAP2 POP POP SWAP3 SWAP2 POP POP JUMP JUMPDEST PUSH1 0x0 PUSH3 0x1C8 DUP3 PUSH3 0x1E3 JUMP JUMPDEST SWAP1 POP SWAP2 SWAP1 POP JUMP JUMPDEST PUSH1 0x0 PUSH3 0x1DC DUP3 PUSH3 0x1BB JUMP JUMPDEST SWAP1 POP SWAP2 SWAP1 POP JUMP JUMPDEST PUSH1 0x0 PUSH20 0xFFFFFFFFFFFFFFFFFFFFFFFFFFFFFFFFFFFFFFFF DUP3 AND SWAP1 POP SWAP2 SWAP1 POP JUMP JUMPDEST PUSH1 0x0 DUP1 REVERT JUMPDEST PUSH3 0x213 DUP2 PUSH3 0x1CF JUMP JUMPDEST DUP2 EQ PUSH3 0x21F JUMPI PUSH1 0x0 DUP1 REVERT JUMPDEST POP JUMP JUMPDEST PUSH2 0xDCA DUP1 PUSH3 0x232 PUSH1 0x0 CODECOPY PUSH1 0x0 RETURN INVALID PUSH1 0x80 PUSH1 0x40 MSTORE PUSH1 0x4 CALLDATASIZE LT PUSH2 0x7F JUMPI PUSH1 0x0 CALLDATALOAD PUSH1 0xE0 SHR DUP1 PUSH4 0x8488CC41 GT PUSH2 0x4E JUMPI DUP1 PUSH4 0x8488CC41 EQ PUSH2 0x145 JUMPI DUP1 PUSH4 0x8DA5CB5B EQ PUSH2 0x182 JUMPI DUP1 PUSH4 0xA694FC3A EQ PUSH2 0x1AD JUMPI DUP1 PUSH4 0xF2FDE38B EQ PUSH2 0x1D6 JUMPI PUSH2 0x86 JUMP JUMPDEST DUP1 PUSH4 0x700037D EQ PUSH2 0x8B JUMPI DUP1 PUSH4 0x150B7A02 EQ PUSH2 0xC8 JUMPI DUP1 PUSH4 0x2E17DE78 EQ PUSH2 0x105 JUMPI DUP1 PUSH4 0x715018A6 EQ PUSH2 0x12E JUMPI PUSH2 0x86 JUMP JUMPDEST CALLDATASIZE PUSH2 0x86 JUMPI STOP JUMPDEST PUSH1 0x0 DUP1 REVERT JUMPDEST CALLVALUE DUP1 ISZERO PUSH2 0x97 JUMPI PUSH1 0x0 DUP1 REVERT JUMPDEST POP PUSH2 0xB2 PUSH1 0x4 DUP1 CALLDATASIZE SUB DUP2 ADD SWAP1 PUSH2 0xAD SWAP2 SWAP1 PUSH2 0x82F JUMP JUMPDEST PUSH2 0x1FF JUMP JUMPDEST PUSH1 0x40 MLOAD PUSH2 0xBF SWAP2 SWAP1 PUSH2 0xAF5 JUMP JUMPDEST PUSH1 0x40 MLOAD DUP1 SWAP2 SUB SWAP1 RETURN JUMPDEST CALLVALUE DUP1 ISZERO PUSH2 0xD4 JUMPI PUSH1 0x0 DUP1 REVERT JUMPDEST POP PUSH2 0xEF PUSH1 0x4 DUP1 CALLDATASIZE SUB DUP2 ADD SWAP1 PUSH2 0xEA SWAP2 SWAP1 PUSH2 0x85C JUMP JUMPDEST PUSH2 0x217 JUMP JUMPDEST PUSH1 0x40 MLOAD PUSH2 0xFC SWAP2 SWAP1 PUSH2 0xA3A JUMP JUMPDEST PUSH1 0x40 MLOAD DUP1 SWAP2 SUB SWAP1 RETURN JUMPDEST CALLVALUE DUP1 ISZERO PUSH2 0x111 JUMPI PUSH1 0x0 DUP1 REVERT JUMPDEST POP PUSH2 0x12C PUSH1 0x4 DUP1 CALLDATASIZE SUB DUP2 ADD SWAP1 PUSH2 0x127 SWAP2 SWAP1 PUSH2 0x8DF JUMP JUMPDEST PUSH2 0x22B JUMP JUMPDEST STOP JUMPDEST CALLVALUE DUP1 ISZERO PUSH2 0x13A JUMPI PUSH1 0x0 DUP1 REVERT JUMPDEST POP PUSH2 0x143 PUSH2 0x3F5 JUMP JUMPDEST STOP JUMPDEST CALLVALUE DUP1 ISZERO PUSH2 0x151 JUMPI PUSH1 0x0 DUP1 REVERT JUMPDEST POP PUSH2 0x16C PUSH1 0x4 DUP1 CALLDATASIZE SUB DUP2 ADD SWAP1 PUSH2 0x167 SWAP2 SWAP1 PUSH2 0x8DF JUMP JUMPDEST PUSH2 0x409 JUMP JUMPDEST PUSH1 0x40 MLOAD PUSH2 0x179 SWAP2 SWAP1 PUSH2 0x9E8 JUMP JUMPDEST PUSH1 0x40 MLOAD DUP1 SWAP2 SUB SWAP1 RETURN JUMPDEST CALLVALUE DUP1 ISZERO PUSH2 0x18E JUMPI PUSH1 0x0 DUP1 REVERT JUMPDEST POP PUSH2 0x197 PUSH2 0x43C JUMP JUMPDEST PUSH1 0x40 MLOAD PUSH2 0x1A4 SWAP2 SWAP1 PUSH2 0x9E8 JUMP JUMPDEST PUSH1 0x40 MLOAD DUP1 SWAP2 SUB SWAP1 RETURN JUMPDEST CALLVALUE DUP1 ISZERO PUSH2 0x1B9 JUMPI PUSH1 0x0 DUP1 REVERT JUMPDEST POP PUSH2 0x1D4 PUSH1 0x4 DUP1 CALLDATASIZE SUB DUP2 ADD SWAP1 PUSH2 0x1CF SWAP2 SWAP1 PUSH2 0x8DF JUMP JUMPDEST PUSH2 0x465 JUMP JUMPDEST STOP JUMPDEST CALLVALUE DUP1 ISZERO PUSH2 0x1E2 JUMPI PUSH1 0x0 DUP1 REVERT JUMPDEST POP PUSH2 0x1FD PUSH1 0x4 DUP1 CALLDATASIZE SUB DUP2 ADD SWAP1 PUSH2 0x1F8 SWAP2 SWAP1 PUSH2 0x82F JUMP JUMPDEST PUSH2 0x555 JUMP JUMPDEST STOP JUMPDEST PUSH1 0x5 PUSH1 0x20 MSTORE DUP1 PUSH1 0x0 MSTORE PUSH1 0x40 PUSH1 0x0 KECCAK256 PUSH1 0x0 SWAP2 POP SWAP1 POP SLOAD DUP2 JUMP JUMPDEST PUSH1 0x0 PUSH4 0x150B7A02 PUSH1 0xE0 SHL SWAP1 POP SWAP5 SWAP4 POP POP POP POP JUMP JUMPDEST PUSH1 0x2 PUSH1 0x1 SLOAD EQ ISZERO PUSH2 0x271 JUMPI PUSH1 0x40 MLOAD PUSH32 0x8C379A000000000000000000000000000000000000000000000000000000000 DUP2 MSTORE PUSH1 0x4 ADD PUSH2 0x268 SWAP1 PUSH2 0xAD5 JUMP JUMPDEST PUSH1 0x40 MLOAD DUP1 SWAP2 SUB SWAP1 REVERT JUMPDEST PUSH1 0x2 PUSH1 0x1 DUP2 SWAP1 SSTORE POP CALLER PUSH20 0xFFFFFFFFFFFFFFFFFFFFFFFFFFFFFFFFFFFFFFFF AND PUSH1 0x4 PUSH1 0x0 DUP4 DUP2 MSTORE PUSH1 0x20 ADD SWAP1 DUP2 MSTORE PUSH1 0x20 ADD PUSH1 0x0 KECCAK256 PUSH1 0x0 SWAP1 SLOAD SWAP1 PUSH2 0x100 EXP SWAP1 DIV PUSH20 0xFFFFFFFFFFFFFFFFFFFFFFFFFFFFFFFFFFFFFFFF AND PUSH20 0xFFFFFFFFFFFFFFFFFFFFFFFFFFFFFFFFFFFFFFFF AND EQ PUSH2 0x31A JUMPI PUSH1 0x40 MLOAD PUSH32 0x8C379A000000000000000000000000000000000000000000000000000000000 DUP2 MSTORE PUSH1 0x4 ADD PUSH2 0x311 SWAP1 PUSH2 0xAB5 JUMP JUMPDEST PUSH1 0x40 MLOAD DUP1 SWAP2 SUB SWAP1 REVERT JUMPDEST PUSH1 0x4 PUSH1 0x0 DUP3 DUP2 MSTORE PUSH1 0x20 ADD SWAP1 DUP2 MSTORE PUSH1 0x20 ADD PUSH1 0x0 KECCAK256 PUSH1 0x0 PUSH2 0x100 EXP DUP2 SLOAD SWAP1 PUSH20 0xFFFFFFFFFFFFFFFFFFFFFFFFFFFFFFFFFFFFFFFF MUL NOT AND SWAP1 SSTORE PUSH2 0x35A PUSH1 0x3 PUSH2 0x5D9 JUMP JUMPDEST PUSH1 0x2 PUSH1 0x0 SWAP1 SLOAD SWAP1 PUSH2 0x100 EXP SWAP1 DIV PUSH20 0xFFFFFFFFFFFFFFFFFFFFFFFFFFFFFFFFFFFFFFFF AND PUSH20 0xFFFFFFFFFFFFFFFFFFFFFFFFFFFFFFFFFFFFFFFF AND PUSH4 0x42842E0E ADDRESS CALLER DUP5 PUSH1 0x40 MLOAD DUP5 PUSH4 0xFFFFFFFF AND PUSH1 0xE0 SHL DUP2 MSTORE PUSH1 0x4 ADD PUSH2 0x3B9 SWAP4 SWAP3 SWAP2 SWAP1 PUSH2 0xA03 JUMP JUMPDEST PUSH1 0x0 PUSH1 0x40 MLOAD DUP1 DUP4 SUB DUP2 PUSH1 0x0 DUP8 DUP1 EXTCODESIZE ISZERO DUP1 ISZERO PUSH2 0x3D3 JUMPI PUSH1 0x0 DUP1 REVERT JUMPDEST POP GAS CALL ISZERO DUP1 ISZERO PUSH2 0x3E7 JUMPI RETURNDATASIZE PUSH1 0x0 DUP1 RETURNDATACOPY RETURNDATASIZE PUSH1 0x0 REVERT JUMPDEST POP POP POP POP PUSH1 0x1 DUP1 DUP2 SWAP1 SSTORE POP POP JUMP JUMPDEST PUSH2 0x3FD PUSH2 0x635 JUMP JUMPDEST PUSH2 0x407 PUSH1 0x0 PUSH2 0x6B3 JUMP JUMPDEST JUMP JUMPDEST PUSH1 0x4 PUSH1 0x20 MSTORE DUP1 PUSH1 0x0 MSTORE PUSH1 0x40 PUSH1 0x0 KECCAK256 PUSH1 0x0 SWAP2 POP SLOAD SWAP1 PUSH2 0x100 EXP SWAP1 DIV PUSH20 0xFFFFFFFFFFFFFFFFFFFFFFFFFFFFFFFFFFFFFFFF AND DUP2 JUMP JUMPDEST PUSH1 0x0 DUP1 PUSH1 0x0 SWAP1 SLOAD SWAP1 PUSH2 0x100 EXP SWAP1 DIV PUSH20 0xFFFFFFFFFFFFFFFFFFFFFFFFFFFFFFFFFFFFFFFF AND SWAP1 POP SWAP1 JUMP JUMPDEST PUSH1 0x2 PUSH1 0x0 SWAP1 SLOAD SWAP1 PUSH2 0x100 EXP SWAP1 DIV PUSH20 0xFFFFFFFFFFFFFFFFFFFFFFFFFFFFFFFFFFFFFFFF AND PUSH20 0xFFFFFFFFFFFFFFFFFFFFFFFFFFFFFFFFFFFFFFFF AND PUSH4 0x42842E0E CALLER ADDRESS DUP5 PUSH1 0x40 MLOAD DUP5 PUSH4 0xFFFFFFFF AND PUSH1 0xE0 SHL DUP2 MSTORE PUSH1 0x4 ADD PUSH2 0x4C4 SWAP4 SWAP3 SWAP2 SWAP1 PUSH2 0xA03 JUMP JUMPDEST PUSH1 0x0 PUSH1 0x40 MLOAD DUP1 DUP4 SUB DUP2 PUSH1 0x0 DUP8 DUP1 EXTCODESIZE ISZERO DUP1 ISZERO PUSH2 0x4DE JUMPI PUSH1 0x0 DUP1 REVERT JUMPDEST POP GAS CALL ISZERO DUP1 ISZERO PUSH2 0x4F2 JUMPI RETURNDATASIZE PUSH1 0x0 DUP1 RETURNDATACOPY RETURNDATASIZE PUSH1 0x0 REVERT JUMPDEST POP POP POP POP CALLER PUSH1 0x4 PUSH1 0x0 DUP4 DUP2 MSTORE PUSH1 0x20 ADD SWAP1 DUP2 MSTORE PUSH1 0x20 ADD PUSH1 0x0 KECCAK256 PUSH1 0x0 PUSH2 0x100 EXP DUP2 SLOAD DUP2 PUSH20 0xFFFFFFFFFFFFFFFFFFFFFFFFFFFFFFFFFFFFFFFF MUL NOT AND SWAP1 DUP4 PUSH20 0xFFFFFFFFFFFFFFFFFFFFFFFFFFFFFFFFFFFFFFFF AND MUL OR SWAP1 SSTORE POP PUSH2 0x552 PUSH1 0x3 PUSH2 0x777 JUMP JUMPDEST POP JUMP JUMPDEST PUSH2 0x55D PUSH2 0x635 JUMP JUMPDEST PUSH1 0x0 PUSH20 0xFFFFFFFFFFFFFFFFFFFFFFFFFFFFFFFFFFFFFFFF AND DUP2 PUSH20 0xFFFFFFFFFFFFFFFFFFFFFFFFFFFFFFFFFFFFFFFF AND EQ ISZERO PUSH2 0x5CD JUMPI PUSH1 0x40 MLOAD PUSH32 0x8C379A000000000000000000000000000000000000000000000000000000000 DUP2 MSTORE PUSH1 0x4 ADD PUSH2 0x5C4 SWAP1 PUSH2 0xA75 JUMP JUMPDEST PUSH1 0x40 MLOAD DUP1 SWAP2 SUB SWAP1 REVERT JUMPDEST PUSH2 0x5D6 DUP2 PUSH2 0x6B3 JUMP JUMPDEST POP JUMP JUMPDEST PUSH1 0x0 DUP2 PUSH1 0x0 ADD SLOAD SWAP1 POP PUSH1 0x0 DUP2 GT PUSH2 0x625 JUMPI PUSH1 0x40 MLOAD PUSH32 0x8C379A000000000000000000000000000000000000000000000000000000000 DUP2 MSTORE PUSH1 0x4 ADD PUSH2 0x61C SWAP1 PUSH2 0xA55 JUMP JUMPDEST PUSH1 0x40 MLOAD DUP1 SWAP2 SUB SWAP1 REVERT JUMPDEST PUSH1 0x1 DUP2 SUB DUP3 PUSH1 0x0 ADD DUP2 SWAP1 SSTORE POP POP POP JUMP JUMPDEST PUSH2 0x63D PUSH2 0x78D JUMP JUMPDEST PUSH20 0xFFFFFFFFFFFFFFFFFFFFFFFFFFFFFFFFFFFFFFFF AND PUSH2 0x65B PUSH2 0x43C JUMP JUMPDEST PUSH20 0xFFFFFFFFFFFFFFFFFFFFFFFFFFFFFFFFFFFFFFFF AND EQ PUSH2 0x6B1 JUMPI PUSH1 0x40 MLOAD PUSH32 0x8C379A000000000000000000000000000000000000000000000000000000000 DUP2 MSTORE PUSH1 0x4 ADD PUSH2 0x6A8 SWAP1 PUSH2 0xA95 JUMP JUMPDEST PUSH1 0x40 MLOAD DUP1 SWAP2 SUB SWAP1 REVERT JUMPDEST JUMP JUMPDEST PUSH1 0x0 DUP1 PUSH1 0x0 SWAP1 SLOAD SWAP1 PUSH2 0x100 EXP SWAP1 DIV PUSH20 0xFFFFFFFFFFFFFFFFFFFFFFFFFFFFFFFFFFFFFFFF AND SWAP1 POP DUP2 PUSH1 0x0 DUP1 PUSH2 0x100 EXP DUP2 SLOAD DUP2 PUSH20 0xFFFFFFFFFFFFFFFFFFFFFFFFFFFFFFFFFFFFFFFF MUL NOT AND SWAP1 DUP4 PUSH20 0xFFFFFFFFFFFFFFFFFFFFFFFFFFFFFFFFFFFFFFFF AND MUL OR SWAP1 SSTORE POP DUP2 PUSH20 0xFFFFFFFFFFFFFFFFFFFFFFFFFFFFFFFFFFFFFFFF AND DUP2 PUSH20 0xFFFFFFFFFFFFFFFFFFFFFFFFFFFFFFFFFFFFFFFF AND PUSH32 0x8BE0079C531659141344CD1FD0A4F28419497F9722A3DAAFE3B4186F6B6457E0 PUSH1 0x40 MLOAD PUSH1 0x40 MLOAD DUP1 SWAP2 SUB SWAP1 LOG3 POP POP JUMP JUMPDEST PUSH1 0x1 DUP2 PUSH1 0x0 ADD PUSH1 0x0 DUP3 DUP3 SLOAD ADD SWAP3 POP POP DUP2 SWAP1 SSTORE POP POP JUMP JUMPDEST PUSH1 0x0 CALLER SWAP1 POP SWAP1 JUMP JUMPDEST PUSH1 0x0 PUSH2 0x7A8 PUSH2 0x7A3 DUP5 PUSH2 0xB35 JUMP JUMPDEST PUSH2 0xB10 JUMP JUMPDEST SWAP1 POP DUP3 DUP2 MSTORE PUSH1 0x20 DUP2 ADD DUP5 DUP5 DUP5 ADD GT ISZERO PUSH2 0x7C4 JUMPI PUSH2 0x7C3 PUSH2 0xC53 JUMP JUMPDEST JUMPDEST PUSH2 0x7CF DUP5 DUP3 DUP6 PUSH2 0xBDF JUMP JUMPDEST POP SWAP4 SWAP3 POP POP POP JUMP JUMPDEST PUSH1 0x0 DUP2 CALLDATALOAD SWAP1 POP PUSH2 0x7E6 DUP2 PUSH2 0xD66 JUMP JUMPDEST SWAP3 SWAP2 POP POP JUMP JUMPDEST PUSH1 0x0 DUP3 PUSH1 0x1F DUP4 ADD SLT PUSH2 0x801 JUMPI PUSH2 0x800 PUSH2 0xC4E JUMP JUMPDEST JUMPDEST DUP2 CALLDATALOAD PUSH2 0x811 DUP5 DUP3 PUSH1 0x20 DUP7 ADD PUSH2 0x795 JUMP JUMPDEST SWAP2 POP POP SWAP3 SWAP2 POP POP JUMP JUMPDEST PUSH1 0x0 DUP2 CALLDATALOAD SWAP1 POP PUSH2 0x829 DUP2 PUSH2 0xD7D JUMP JUMPDEST SWAP3 SWAP2 POP POP JUMP JUMPDEST PUSH1 0x0 PUSH1 0x20 DUP3 DUP5 SUB SLT ISZERO PUSH2 0x845 JUMPI PUSH2 0x844 PUSH2 0xC5D JUMP JUMPDEST JUMPDEST PUSH1 0x0 PUSH2 0x853 DUP5 DUP3 DUP6 ADD PUSH2 0x7D7 JUMP JUMPDEST SWAP2 POP POP SWAP3 SWAP2 POP POP JUMP JUMPDEST PUSH1 0x0 DUP1 PUSH1 0x0 DUP1 PUSH1 0x80 DUP6 DUP8 SUB SLT ISZERO PUSH2 0x876 JUMPI PUSH2 0x875 PUSH2 0xC5D JUMP JUMPDEST JUMPDEST PUSH1 0x0 PUSH2 0x884 DUP8 DUP3 DUP9 ADD PUSH2 0x7D7 JUMP JUMPDEST SWAP5 POP POP PUSH1 0x20 PUSH2 0x895 DUP8 DUP3 DUP9 ADD PUSH2 0x7D7 JUMP JUMPDEST SWAP4 POP POP PUSH1 0x40 PUSH2 0x8A6 DUP8 DUP3 DUP9 ADD PUSH2 0x81A JUMP JUMPDEST SWAP3 POP POP PUSH1 0x60 DUP6 ADD CALLDATALOAD PUSH8 0xFFFFFFFFFFFFFFFF DUP2 GT ISZERO PUSH2 0x8C7 JUMPI PUSH2 0x8C6 PUSH2 0xC58 JUMP JUMPDEST JUMPDEST PUSH2 0x8D3 DUP8 DUP3 DUP9 ADD PUSH2 0x7EC JUMP JUMPDEST SWAP2 POP POP SWAP3 SWAP6 SWAP2 SWAP5 POP SWAP3 POP JUMP JUMPDEST PUSH1 0x0 PUSH1 0x20 DUP3 DUP5 SUB SLT ISZERO PUSH2 0x8F5 JUMPI PUSH2 0x8F4 PUSH2 0xC5D JUMP JUMPDEST JUMPDEST PUSH1 0x0 PUSH2 0x903 DUP5 DUP3 DUP6 ADD PUSH2 0x81A JUMP JUMPDEST SWAP2 POP POP SWAP3 SWAP2 POP POP JUMP JUMPDEST PUSH2 0x915 DUP2 PUSH2 0xB77 JUMP JUMPDEST DUP3 MSTORE POP POP JUMP JUMPDEST PUSH2 0x924 DUP2 PUSH2 0xB89 JUMP JUMPDEST DUP3 MSTORE POP POP JUMP JUMPDEST PUSH1 0x0 PUSH2 0x937 PUSH1 0x1B DUP4 PUSH2 0xB66 JUMP JUMPDEST SWAP2 POP PUSH2 0x942 DUP3 PUSH2 0xC73 JUMP JUMPDEST PUSH1 0x20 DUP3 ADD SWAP1 POP SWAP2 SWAP1 POP JUMP JUMPDEST PUSH1 0x0 PUSH2 0x95A PUSH1 0x26 DUP4 PUSH2 0xB66 JUMP JUMPDEST SWAP2 POP PUSH2 0x965 DUP3 PUSH2 0xC9C JUMP JUMPDEST PUSH1 0x40 DUP3 ADD SWAP1 POP SWAP2 SWAP1 POP JUMP JUMPDEST PUSH1 0x0 PUSH2 0x97D PUSH1 0x20 DUP4 PUSH2 0xB66 JUMP JUMPDEST SWAP2 POP PUSH2 0x988 DUP3 PUSH2 0xCEB JUMP JUMPDEST PUSH1 0x20 DUP3 ADD SWAP1 POP SWAP2 SWAP1 POP JUMP JUMPDEST PUSH1 0x0 PUSH2 0x9A0 PUSH1 0x16 DUP4 PUSH2 0xB66 JUMP JUMPDEST SWAP2 POP PUSH2 0x9AB DUP3 PUSH2 0xD14 JUMP JUMPDEST PUSH1 0x20 DUP3 ADD SWAP1 POP SWAP2 SWAP1 POP JUMP JUMPDEST PUSH1 0x0 PUSH2 0x9C3 PUSH1 0x1F DUP4 PUSH2 0xB66 JUMP JUMPDEST SWAP2 POP PUSH2 0x9CE DUP3 PUSH2 0xD3D JUMP JUMPDEST PUSH1 0x20 DUP3 ADD SWAP1 POP SWAP2 SWAP1 POP JUMP JUMPDEST PUSH2 0x9E2 DUP2 PUSH2 0xBD5 JUMP JUMPDEST DUP3 MSTORE POP POP JUMP JUMPDEST PUSH1 0x0 PUSH1 0x20 DUP3 ADD SWAP1 POP PUSH2 0x9FD PUSH1 0x0 DUP4 ADD DUP5 PUSH2 0x90C JUMP JUMPDEST SWAP3 SWAP2 POP POP JUMP JUMPDEST PUSH1 0x0 PUSH1 0x60 DUP3 ADD SWAP1 POP PUSH2 0xA18 PUSH1 0x0 DUP4 ADD DUP7 PUSH2 0x90C JUMP JUMPDEST PUSH2 0xA25 PUSH1 0x20 DUP4 ADD DUP6 PUSH2 0x90C JUMP JUMPDEST PUSH2 0xA32 PUSH1 0x40 DUP4 ADD DUP5 PUSH2 0x9D9 JUMP JUMPDEST SWAP5 SWAP4 POP POP POP POP JUMP JUMPDEST PUSH1 0x0 PUSH1 0x20 DUP3 ADD SWAP1 POP PUSH2 0xA4F PUSH1 0x0 DUP4 ADD DUP5 PUSH2 0x91B JUMP JUMPDEST SWAP3 SWAP2 POP POP JUMP JUMPDEST PUSH1 0x0 PUSH1 0x20 DUP3 ADD SWAP1 POP DUP2 DUP2 SUB PUSH1 0x0 DUP4 ADD MSTORE PUSH2 0xA6E DUP2 PUSH2 0x92A JUMP JUMPDEST SWAP1 POP SWAP2 SWAP1 POP JUMP JUMPDEST PUSH1 0x0 PUSH1 0x20 DUP3 ADD SWAP1 POP DUP2 DUP2 SUB PUSH1 0x0 DUP4 ADD MSTORE PUSH2 0xA8E DUP2 PUSH2 0x94D JUMP JUMPDEST SWAP1 POP SWAP2 SWAP1 POP JUMP JUMPDEST PUSH1 0x0 PUSH1 0x20 DUP3 ADD SWAP1 POP DUP2 DUP2 SUB PUSH1 0x0 DUP4 ADD MSTORE PUSH2 0xAAE DUP2 PUSH2 0x970 JUMP JUMPDEST SWAP1 POP SWAP2 SWAP1 POP JUMP JUMPDEST PUSH1 0x0 PUSH1 0x20 DUP3 ADD SWAP1 POP DUP2 DUP2 SUB PUSH1 0x0 DUP4 ADD MSTORE PUSH2 0xACE DUP2 PUSH2 0x993 JUMP JUMPDEST SWAP1 POP SWAP2 SWAP1 POP JUMP JUMPDEST PUSH1 0x0 PUSH1 0x20 DUP3 ADD SWAP1 POP DUP2 DUP2 SUB PUSH1 0x0 DUP4 ADD MSTORE PUSH2 0xAEE DUP2 PUSH2 0x9B6 JUMP JUMPDEST SWAP1 POP SWAP2 SWAP1 POP JUMP JUMPDEST PUSH1 0x0 PUSH1 0x20 DUP3 ADD SWAP1 POP PUSH2 0xB0A PUSH1 0x0 DUP4 ADD DUP5 PUSH2 0x9D9 JUMP JUMPDEST SWAP3 SWAP2 POP POP JUMP JUMPDEST PUSH1 0x0 PUSH2 0xB1A PUSH2 0xB2B JUMP JUMPDEST SWAP1 POP PUSH2 0xB26 DUP3 DUP3 PUSH2 0xBEE JUMP JUMPDEST SWAP2 SWAP1 POP JUMP JUMPDEST PUSH1 0x0 PUSH1 0x40 MLOAD SWAP1 POP SWAP1 JUMP JUMPDEST PUSH1 0x0 PUSH8 0xFFFFFFFFFFFFFFFF DUP3 GT ISZERO PUSH2 0xB50 JUMPI PUSH2 0xB4F PUSH2 0xC1F JUMP JUMPDEST JUMPDEST PUSH2 0xB59 DUP3 PUSH2 0xC62 JUMP JUMPDEST SWAP1 POP PUSH1 0x20 DUP2 ADD SWAP1 POP SWAP2 SWAP1 POP JUMP JUMPDEST PUSH1 0x0 DUP3 DUP3 MSTORE PUSH1 0x20 DUP3 ADD SWAP1 POP SWAP3 SWAP2 POP POP JUMP JUMPDEST PUSH1 0x0 PUSH2 0xB82 DUP3 PUSH2 0xBB5 JUMP JUMPDEST SWAP1 POP SWAP2 SWAP1 POP JUMP JUMPDEST PUSH1 0x0 PUSH32 0xFFFFFFFF00000000000000000000000000000000000000000000000000000000 DUP3 AND SWAP1 POP SWAP2 SWAP1 POP JUMP JUMPDEST PUSH1 0x0 PUSH20 0xFFFFFFFFFFFFFFFFFFFFFFFFFFFFFFFFFFFFFFFF DUP3 AND SWAP1 POP SWAP2 SWAP1 POP JUMP JUMPDEST PUSH1 0x0 DUP2 SWAP1 POP SWAP2 SWAP1 POP JUMP JUMPDEST DUP3 DUP2 DUP4 CALLDATACOPY PUSH1 0x0 DUP4 DUP4 ADD MSTORE POP POP POP JUMP JUMPDEST PUSH2 0xBF7 DUP3 PUSH2 0xC62 JUMP JUMPDEST DUP2 ADD DUP2 DUP2 LT PUSH8 0xFFFFFFFFFFFFFFFF DUP3 GT OR ISZERO PUSH2 0xC16 JUMPI PUSH2 0xC15 PUSH2 0xC1F JUMP JUMPDEST JUMPDEST DUP1 PUSH1 0x40 MSTORE POP POP POP JUMP JUMPDEST PUSH32 0x4E487B7100000000000000000000000000000000000000000000000000000000 PUSH1 0x0 MSTORE PUSH1 0x41 PUSH1 0x4 MSTORE PUSH1 0x24 PUSH1 0x0 REVERT JUMPDEST PUSH1 0x0 DUP1 REVERT JUMPDEST PUSH1 0x0 DUP1 REVERT JUMPDEST PUSH1 0x0 DUP1 REVERT JUMPDEST PUSH1 0x0 DUP1 REVERT JUMPDEST PUSH1 0x0 PUSH1 0x1F NOT PUSH1 0x1F DUP4 ADD AND SWAP1 POP SWAP2 SWAP1 POP JUMP JUMPDEST PUSH32 0x436F756E7465723A2064656372656D656E74206F766572666C6F770000000000 PUSH1 0x0 DUP3 ADD MSTORE POP JUMP JUMPDEST PUSH32 0x4F776E61626C653A206E6577206F776E657220697320746865207A65726F2061 PUSH1 0x0 DUP3 ADD MSTORE PUSH32 0x6464726573730000000000000000000000000000000000000000000000000000 PUSH1 0x20 DUP3 ADD MSTORE POP JUMP JUMPDEST PUSH32 0x4F776E61626C653A2063616C6C6572206973206E6F7420746865206F776E6572 PUSH1 0x0 DUP3 ADD MSTORE POP JUMP JUMPDEST PUSH32 0x596F7520617265206E6F7420746865206F776E65722E00000000000000000000 PUSH1 0x0 DUP3 ADD MSTORE POP JUMP JUMPDEST PUSH32 0x5265656E7472616E637947756172643A207265656E7472616E742063616C6C00 PUSH1 0x0 DUP3 ADD MSTORE POP JUMP JUMPDEST PUSH2 0xD6F DUP2 PUSH2 0xB77 JUMP JUMPDEST DUP2 EQ PUSH2 0xD7A JUMPI PUSH1 0x0 DUP1 REVERT JUMPDEST POP JUMP JUMPDEST PUSH2 0xD86 DUP2 PUSH2 0xBD5 JUMP JUMPDEST DUP2 EQ PUSH2 0xD91 JUMPI PUSH1 0x0 DUP1 REVERT JUMPDEST POP JUMP INVALID LOG2 PUSH5 0x6970667358 0x22 SLT KECCAK256 0xCA 0x27 DUP13 SGT 0xE8 0x2D ADDMOD MSIZE 0xDB PUSH2 0x1BF RETURNDATASIZE 0x49 0xC5 0xA5 EQ 0xA6 SGT LOG2 0xA9 0x5D RETURNDATASIZE SLOAD PUSH15 0x577DE540F1E82A64736F6C63430008 SMOD STOP CALLER "
				},
				"gasEstimates": {
					"creation": {
						"codeDepositCost": "706000",
						"executionCost": "infinite",
						"totalCost": "infinite"
					},
					"external": {
						"onERC721Received(address,address,uint256,bytes)": "infinite",
						"owner()": "2544",
						"renounceOwnership()": "30465",
						"rewards(address)": "2815",
						"stake(uint256)": "infinite",
						"tokenOwnedBy(uint256)": "2839",
						"transferOwnership(address)": "30813",
						"unstake(uint256)": "infinite"
					}
				},
				"methodIdentifiers": {
					"onERC721Received(address,address,uint256,bytes)": "150b7a02",
					"owner()": "8da5cb5b",
					"renounceOwnership()": "715018a6",
					"rewards(address)": "0700037d",
					"stake(uint256)": "a694fc3a",
					"tokenOwnedBy(uint256)": "8488cc41",
					"transferOwnership(address)": "f2fde38b",
					"unstake(uint256)": "2e17de78"
				}
			},
			"storageLayout": {
				"storage": [
					{
						"astId": 7,
						"contract": "contracts/NFTStaking.sol:SacredTemple",
						"label": "_owner",
						"offset": 0,
						"slot": "0",
						"type": "t_address"
					},
					{
						"astId": 123,
						"contract": "contracts/NFTStaking.sol:SacredTemple",
						"label": "_status",
						"offset": 0,
						"slot": "1",
						"type": "t_uint256"
					},
					{
						"astId": 437,
						"contract": "contracts/NFTStaking.sol:SacredTemple",
						"label": "_nftContract",
						"offset": 0,
						"slot": "2",
						"type": "t_contract(IERC721)268"
					},
					{
						"astId": 444,
						"contract": "contracts/NFTStaking.sol:SacredTemple",
						"label": "_stakedNFTCounter",
						"offset": 0,
						"slot": "3",
						"type": "t_struct(Counter)341_storage"
					},
					{
						"astId": 470,
						"contract": "contracts/NFTStaking.sol:SacredTemple",
						"label": "tokenOwnedBy",
						"offset": 0,
						"slot": "4",
						"type": "t_mapping(t_uint256,t_address)"
					},
					{
						"astId": 474,
						"contract": "contracts/NFTStaking.sol:SacredTemple",
						"label": "rewards",
						"offset": 0,
						"slot": "5",
						"type": "t_mapping(t_address,t_uint256)"
					}
				],
				"types": {
					"t_address": {
						"encoding": "inplace",
						"label": "address",
						"numberOfBytes": "20"
					},
					"t_contract(IERC721)268": {
						"encoding": "inplace",
						"label": "contract IERC721",
						"numberOfBytes": "20"
					},
					"t_mapping(t_address,t_uint256)": {
						"encoding": "mapping",
						"key": "t_address",
						"label": "mapping(address => uint256)",
						"numberOfBytes": "32",
						"value": "t_uint256"
					},
					"t_mapping(t_uint256,t_address)": {
						"encoding": "mapping",
						"key": "t_uint256",
						"label": "mapping(uint256 => address)",
						"numberOfBytes": "32",
						"value": "t_address"
					},
					"t_struct(Counter)341_storage": {
						"encoding": "inplace",
						"label": "struct Counters.Counter",
						"members": [
							{
								"astId": 340,
								"contract": "contracts/NFTStaking.sol:SacredTemple",
								"label": "_value",
								"offset": 0,
								"slot": "0",
								"type": "t_uint256"
							}
						],
						"numberOfBytes": "32"
					},
					"t_uint256": {
						"encoding": "inplace",
						"label": "uint256",
						"numberOfBytes": "32"
					}
				}
			},
			"userdoc": {
				"kind": "user",
				"methods": {},
				"version": 1
			}
		}
	}
}