{
	"contracts/NFTStaking.sol": {
		"SacredTemple": {
			"abi": [
				{
					"inputs": [
						{
							"internalType": "address",
							"name": "nftContract_",
							"type": "address"
						}
					],
					"stateMutability": "nonpayable",
					"type": "constructor"
				},
				{
					"anonymous": false,
					"inputs": [
						{
							"indexed": false,
							"internalType": "address",
							"name": "owner",
							"type": "address"
						},
						{
							"indexed": false,
							"internalType": "uint256",
							"name": "amount",
							"type": "uint256"
						}
					],
					"name": "Claimed",
					"type": "event"
				},
				{
					"anonymous": false,
					"inputs": [
						{
							"indexed": false,
							"internalType": "address",
							"name": "owner",
							"type": "address"
						},
						{
							"indexed": false,
							"internalType": "uint256",
							"name": "tokenId",
							"type": "uint256"
						},
						{
							"indexed": false,
							"internalType": "uint256",
							"name": "value",
							"type": "uint256"
						}
					],
					"name": "NFTStaked",
					"type": "event"
				},
				{
					"anonymous": false,
					"inputs": [
						{
							"indexed": false,
							"internalType": "address",
							"name": "owner",
							"type": "address"
						},
						{
							"indexed": false,
							"internalType": "uint256",
							"name": "tokenId",
							"type": "uint256"
						},
						{
							"indexed": false,
							"internalType": "uint256",
							"name": "value",
							"type": "uint256"
						}
					],
					"name": "NFTUnstaked",
					"type": "event"
				},
				{
					"anonymous": false,
					"inputs": [
						{
							"indexed": true,
							"internalType": "address",
							"name": "previousOwner",
							"type": "address"
						},
						{
							"indexed": true,
							"internalType": "address",
							"name": "newOwner",
							"type": "address"
						}
					],
					"name": "OwnershipTransferred",
					"type": "event"
				},
				{
					"inputs": [
						{
							"internalType": "uint256",
							"name": "tokenId",
							"type": "uint256"
						}
					],
					"name": "calculateRewards",
					"outputs": [
						{
							"internalType": "uint256",
							"name": "",
							"type": "uint256"
						}
					],
					"stateMutability": "view",
					"type": "function"
				},
				{
					"inputs": [
						{
							"internalType": "uint256",
							"name": "tokenId",
							"type": "uint256"
						}
					],
					"name": "claim",
					"outputs": [],
					"stateMutability": "nonpayable",
					"type": "function"
				},
				{
					"inputs": [
						{
							"internalType": "address",
							"name": "user",
							"type": "address"
						}
					],
					"name": "getTokensStakedByUser",
					"outputs": [
						{
							"internalType": "uint256[]",
							"name": "",
							"type": "uint256[]"
						}
					],
					"stateMutability": "view",
					"type": "function"
				},
				{
					"inputs": [
						{
							"internalType": "address",
							"name": "",
							"type": "address"
						},
						{
							"internalType": "address",
							"name": "",
							"type": "address"
						},
						{
							"internalType": "uint256",
							"name": "",
							"type": "uint256"
						},
						{
							"internalType": "bytes",
							"name": "",
							"type": "bytes"
						}
					],
					"name": "onERC721Received",
					"outputs": [
						{
							"internalType": "bytes4",
							"name": "",
							"type": "bytes4"
						}
					],
					"stateMutability": "nonpayable",
					"type": "function"
				},
				{
					"inputs": [],
					"name": "owner",
					"outputs": [
						{
							"internalType": "address",
							"name": "",
							"type": "address"
						}
					],
					"stateMutability": "view",
					"type": "function"
				},
				{
					"inputs": [],
					"name": "renounceOwnership",
					"outputs": [],
					"stateMutability": "nonpayable",
					"type": "function"
				},
				{
					"inputs": [
						{
							"internalType": "uint256",
							"name": "",
							"type": "uint256"
						}
					],
					"name": "rewards",
					"outputs": [
						{
							"internalType": "uint256",
							"name": "",
							"type": "uint256"
						}
					],
					"stateMutability": "view",
					"type": "function"
				},
				{
					"inputs": [
						{
							"internalType": "address",
							"name": "nftContract_",
							"type": "address"
						}
					],
					"name": "setNftContact",
					"outputs": [],
					"stateMutability": "nonpayable",
					"type": "function"
				},
				{
					"inputs": [
						{
							"internalType": "uint256",
							"name": "tokenId",
							"type": "uint256"
						}
					],
					"name": "stake",
					"outputs": [],
					"stateMutability": "nonpayable",
					"type": "function"
				},
				{
					"inputs": [
						{
							"internalType": "uint256",
							"name": "",
							"type": "uint256"
						}
					],
					"name": "tokenOwnerOf",
					"outputs": [
						{
							"internalType": "address",
							"name": "",
							"type": "address"
						}
					],
					"stateMutability": "view",
					"type": "function"
				},
				{
					"inputs": [
						{
							"internalType": "address",
							"name": "newOwner",
							"type": "address"
						}
					],
					"name": "transferOwnership",
					"outputs": [],
					"stateMutability": "nonpayable",
					"type": "function"
				},
				{
					"inputs": [
						{
							"internalType": "uint256",
							"name": "tokenId",
							"type": "uint256"
						}
					],
					"name": "unstake",
					"outputs": [],
					"stateMutability": "nonpayable",
					"type": "function"
				},
				{
					"stateMutability": "payable",
					"type": "receive"
				}
			],
			"devdoc": {
				"kind": "dev",
				"methods": {
					"onERC721Received(address,address,uint256,bytes)": {
						"details": "See {IERC721Receiver-onERC721Received}. Always returns `IERC721Receiver.onERC721Received.selector`."
					},
					"owner()": {
						"details": "Returns the address of the current owner."
					},
					"renounceOwnership()": {
						"details": "Leaves the contract without owner. It will not be possible to call `onlyOwner` functions anymore. Can only be called by the current owner. NOTE: Renouncing ownership will leave the contract without an owner, thereby removing any functionality that is only available to the owner."
					},
					"transferOwnership(address)": {
						"details": "Transfers ownership of the contract to a new account (`newOwner`). Can only be called by the current owner."
					}
				},
				"version": 1
			},
			"evm": {
				"assembly": "    /* \"contracts/NFTStaking.sol\":492:3301  contract SacredTemple is Ownable, ERC721Holder, ReentrancyGuard {... */\n  mstore(0x40, 0x80)\n    /* \"contracts/NFTStaking.sol\":999:1078  constructor (address nftContract_) {... */\n  callvalue\n  dup1\n  iszero\n  tag_1\n  jumpi\n  0x00\n  dup1\n  revert\ntag_1:\n  pop\n  mload(0x40)\n  sub(codesize, bytecodeSize)\n  dup1\n  bytecodeSize\n  dup4\n  codecopy\n  dup2\n  add\n  0x40\n  dup2\n  swap1\n  mstore\n  tag_2\n  swap2\n  tag_3\n  jump\t// in\ntag_2:\n    /* \"@openzeppelin/contracts@4.7.3/access/Ownable.sol\":936:968  _transferOwnership(_msgSender()) */\n  tag_8\n    /* \"@openzeppelin/contracts@4.7.3/utils/Context.sol\":719:729  msg.sender */\n  caller\n    /* \"@openzeppelin/contracts@4.7.3/access/Ownable.sol\":936:954  _transferOwnership */\n  tag_11\n    /* \"@openzeppelin/contracts@4.7.3/access/Ownable.sol\":936:968  _transferOwnership(_msgSender()) */\n  jump\t// in\ntag_8:\n    /* \"@openzeppelin/contracts@4.7.3/security/ReentrancyGuard.sol\":1701:1702  1 */\n  0x01\n    /* \"@openzeppelin/contracts@4.7.3/security/ReentrancyGuard.sol\":1806:1828  _status = _NOT_ENTERED */\n  dup1\n  sstore\n    /* \"contracts/NFTStaking.sol\":1044:1056  _nftContract */\n  0x02\n    /* \"contracts/NFTStaking.sol\":1044:1071  _nftContract = nftContract_ */\n  dup1\n  sload\n  not(sub(shl(0xa0, 0x01), 0x01))\n  and\n  sub(shl(0xa0, 0x01), 0x01)\n  swap3\n  swap1\n  swap3\n  and\n  swap2\n  swap1\n  swap2\n  or\n  swap1\n  sstore\n    /* \"contracts/NFTStaking.sol\":492:3301  contract SacredTemple is Ownable, ERC721Holder, ReentrancyGuard {... */\n  jump(tag_17)\n    /* \"@openzeppelin/contracts@4.7.3/access/Ownable.sol\":2433:2620  function _transferOwnership(address newOwner) internal virtual {... */\ntag_11:\n    /* \"@openzeppelin/contracts@4.7.3/access/Ownable.sol\":2506:2522  address oldOwner */\n  0x00\n    /* \"@openzeppelin/contracts@4.7.3/access/Ownable.sol\":2525:2531  _owner */\n  dup1\n  sload\n  sub(shl(0xa0, 0x01), 0x01)\n    /* \"@openzeppelin/contracts@4.7.3/access/Ownable.sol\":2541:2558  _owner = newOwner */\n  dup4\n  dup2\n  and\n  not(sub(shl(0xa0, 0x01), 0x01))\n  dup4\n  and\n  dup2\n  or\n  dup5\n  sstore\n    /* \"@openzeppelin/contracts@4.7.3/access/Ownable.sol\":2573:2613  OwnershipTransferred(oldOwner, newOwner) */\n  mload(0x40)\n    /* \"@openzeppelin/contracts@4.7.3/access/Ownable.sol\":2525:2531  _owner */\n  swap2\n  swap1\n  swap3\n  and\n  swap3\n  dup4\n  swap2\n    /* \"@openzeppelin/contracts@4.7.3/access/Ownable.sol\":2573:2613  OwnershipTransferred(oldOwner, newOwner) */\n  0x8be0079c531659141344cd1fd0a4f28419497f9722a3daafe3b4186f6b6457e0\n  swap2\n    /* \"@openzeppelin/contracts@4.7.3/access/Ownable.sol\":2506:2522  address oldOwner */\n  swap1\n    /* \"@openzeppelin/contracts@4.7.3/access/Ownable.sol\":2573:2613  OwnershipTransferred(oldOwner, newOwner) */\n  log3\n    /* \"@openzeppelin/contracts@4.7.3/access/Ownable.sol\":2496:2620  {... */\n  pop\n    /* \"@openzeppelin/contracts@4.7.3/access/Ownable.sol\":2433:2620  function _transferOwnership(address newOwner) internal virtual {... */\n  pop\n  jump\t// out\n    /* \"#utility.yul\":14:304   */\ntag_3:\n    /* \"#utility.yul\":84:90   */\n  0x00\n    /* \"#utility.yul\":137:139   */\n  0x20\n    /* \"#utility.yul\":125:134   */\n  dup3\n    /* \"#utility.yul\":116:123   */\n  dup5\n    /* \"#utility.yul\":112:135   */\n  sub\n    /* \"#utility.yul\":108:140   */\n  slt\n    /* \"#utility.yul\":105:157   */\n  iszero\n  tag_19\n  jumpi\n    /* \"#utility.yul\":153:154   */\n  0x00\n    /* \"#utility.yul\":150:151   */\n  dup1\n    /* \"#utility.yul\":143:155   */\n  revert\n    /* \"#utility.yul\":105:157   */\ntag_19:\n    /* \"#utility.yul\":179:195   */\n  dup2\n  mload\n  sub(shl(0xa0, 0x01), 0x01)\n    /* \"#utility.yul\":224:255   */\n  dup2\n  and\n    /* \"#utility.yul\":214:256   */\n  dup2\n  eq\n    /* \"#utility.yul\":204:274   */\n  tag_20\n  jumpi\n    /* \"#utility.yul\":270:271   */\n  0x00\n    /* \"#utility.yul\":267:268   */\n  dup1\n    /* \"#utility.yul\":260:272   */\n  revert\n    /* \"#utility.yul\":204:274   */\ntag_20:\n    /* \"#utility.yul\":293:298   */\n  swap4\n    /* \"#utility.yul\":14:304   */\n  swap3\n  pop\n  pop\n  pop\n  jump\t// out\ntag_17:\n    /* \"contracts/NFTStaking.sol\":492:3301  contract SacredTemple is Ownable, ERC721Holder, ReentrancyGuard {... */\n  dataSize(sub_0)\n  dup1\n  dataOffset(sub_0)\n  0x00\n  codecopy\n  0x00\n  return\nstop\n\nsub_0: assembly {\n        /* \"contracts/NFTStaking.sol\":492:3301  contract SacredTemple is Ownable, ERC721Holder, ReentrancyGuard {... */\n      mstore(0x40, 0x80)\n      jumpi(tag_1, lt(calldatasize, 0x04))\n      shr(0xe0, calldataload(0x00))\n      dup1\n      0x8da5cb5b\n      gt\n      tag_15\n      jumpi\n      dup1\n      0x8da5cb5b\n      eq\n      tag_9\n      jumpi\n      dup1\n      0xa694fc3a\n      eq\n      tag_10\n      jumpi\n      dup1\n      0xd3ea4350\n      eq\n      tag_11\n      jumpi\n      dup1\n      0xf2fde38b\n      eq\n      tag_12\n      jumpi\n      dup1\n      0xf301af42\n      eq\n      tag_13\n      jumpi\n      dup1\n      0xfd71c650\n      eq\n      tag_14\n      jumpi\n      0x00\n      dup1\n      revert\n    tag_15:\n      dup1\n      0x150b7a02\n      eq\n      tag_3\n      jumpi\n      dup1\n      0x2e17de78\n      eq\n      tag_4\n      jumpi\n      dup1\n      0x379607f5\n      eq\n      tag_5\n      jumpi\n      dup1\n      0x55ed9d53\n      eq\n      tag_6\n      jumpi\n      dup1\n      0x715018a6\n      eq\n      tag_7\n      jumpi\n      dup1\n      0x89885a59\n      eq\n      tag_8\n      jumpi\n      0x00\n      dup1\n      revert\n    tag_1:\n      jumpi(tag_2, calldatasize)\n        /* \"contracts/NFTStaking.sol\":2921:2938  _stakedNFTCounter */\n      0x03\n        /* \"@openzeppelin/contracts@4.7.3/utils/Counters.sol\":918:932  counter._value */\n      sload\n        /* \"contracts/NFTStaking.sol\":2952:2953  0 */\n      0x00\n        /* \"contracts/NFTStaking.sol\":2921:2953  _stakedNFTCounter.current() != 0 */\n      sub\n        /* \"contracts/NFTStaking.sol\":2913:2976  require(_stakedNFTCounter.current() != 0, \"No NFTs are staked\") */\n      tag_20\n      jumpi\n      mload(0x40)\n      shl(0xe5, 0x461bcd)\n      dup2\n      mstore\n        /* \"#utility.yul\":216:218   */\n      0x20\n        /* \"contracts/NFTStaking.sol\":2913:2976  require(_stakedNFTCounter.current() != 0, \"No NFTs are staked\") */\n      0x04\n      dup3\n      add\n        /* \"#utility.yul\":198:219   */\n      mstore\n        /* \"#utility.yul\":255:257   */\n      0x12\n        /* \"#utility.yul\":235:253   */\n      0x24\n      dup3\n      add\n        /* \"#utility.yul\":228:258   */\n      mstore\n      shl(0x72, 0x139bc81391951cc8185c99481cdd185ad959)\n        /* \"#utility.yul\":274:292   */\n      0x44\n      dup3\n      add\n        /* \"#utility.yul\":267:315   */\n      mstore\n        /* \"#utility.yul\":332:350   */\n      0x64\n      add\n        /* \"contracts/NFTStaking.sol\":2913:2976  require(_stakedNFTCounter.current() != 0, \"No NFTs are staked\") */\n    tag_21:\n      mload(0x40)\n      dup1\n      swap2\n      sub\n      swap1\n      revert\n    tag_20:\n        /* \"contracts/NFTStaking.sol\":2986:3006  uint256 sharePerEach */\n      0x00\n        /* \"contracts/NFTStaking.sol\":3021:3048  _stakedNFTCounter.current() */\n      tag_23\n        /* \"contracts/NFTStaking.sol\":3021:3038  _stakedNFTCounter */\n      0x03\n        /* \"@openzeppelin/contracts@4.7.3/utils/Counters.sol\":918:932  counter._value */\n      sload\n      swap1\n        /* \"@openzeppelin/contracts@4.7.3/utils/Counters.sol\":827:939  function current(Counter storage counter) internal view returns (uint256) {... */\n      jump\n        /* \"contracts/NFTStaking.sol\":3021:3048  _stakedNFTCounter.current() */\n    tag_23:\n        /* \"contracts/NFTStaking.sol\":3009:3048  msg.value / _stakedNFTCounter.current() */\n      tag_24\n      swap1\n        /* \"contracts/NFTStaking.sol\":3009:3018  msg.value */\n      callvalue\n        /* \"contracts/NFTStaking.sol\":3009:3048  msg.value / _stakedNFTCounter.current() */\n      tag_25\n      jump\t// in\n    tag_24:\n        /* \"contracts/NFTStaking.sol\":3095:3107  _nftContract */\n      sload(0x02)\n        /* \"contracts/NFTStaking.sol\":3090:3137  INFT(_nftContract).walletOfOwner(address(this)) */\n      mload(0x40)\n      shl(0xe8, 0x438b63)\n      dup2\n      mstore\n        /* \"contracts/NFTStaking.sol\":3131:3135  this */\n      address\n        /* \"contracts/NFTStaking.sol\":3090:3137  INFT(_nftContract).walletOfOwner(address(this)) */\n      0x04\n      dup3\n      add\n        /* \"#utility.yul\":861:912   */\n      mstore\n        /* \"contracts/NFTStaking.sol\":2986:3048  uint256 sharePerEach = msg.value / _stakedNFTCounter.current() */\n      swap2\n      swap3\n      pop\n        /* \"contracts/NFTStaking.sol\":3058:3087  uint256[] memory tokensStaked */\n      0x00\n      swap2\n      sub(shl(0xa0, 0x01), 0x01)\n        /* \"contracts/NFTStaking.sol\":3095:3107  _nftContract */\n      swap1\n      swap2\n      and\n      swap1\n        /* \"contracts/NFTStaking.sol\":3090:3122  INFT(_nftContract).walletOfOwner */\n      0x438b6300\n      swap1\n        /* \"#utility.yul\":834:852   */\n      0x24\n      add\n        /* \"contracts/NFTStaking.sol\":3090:3137  INFT(_nftContract).walletOfOwner(address(this)) */\n      0x00\n      mload(0x40)\n      dup1\n      dup4\n      sub\n      dup2\n      dup7\n      gas\n      staticcall\n      iszero\n      dup1\n      iszero\n      tag_29\n      jumpi\n      returndatasize\n      0x00\n      dup1\n      returndatacopy\n      revert(0x00, returndatasize)\n    tag_29:\n      pop\n      pop\n      pop\n      pop\n      mload(0x40)\n      returndatasize\n      0x00\n      dup3\n      returndatacopy\n      0x1f\n      returndatasize\n      swap1\n      dup2\n      add\n      not(0x1f)\n      and\n      dup3\n      add\n      0x40\n      mstore\n      tag_30\n      swap2\n      swap1\n      dup2\n      add\n      swap1\n      tag_31\n      jump\t// in\n    tag_30:\n        /* \"contracts/NFTStaking.sol\":3058:3137  uint256[] memory tokensStaked = INFT(_nftContract).walletOfOwner(address(this)) */\n      swap1\n      pop\n        /* \"contracts/NFTStaking.sol\":3160:3169  uint256 i */\n      0x00\n        /* \"contracts/NFTStaking.sol\":3156:3293  for(uint256 i = 0; i < tokensStaked.length;){... */\n    tag_32:\n        /* \"contracts/NFTStaking.sol\":3179:3191  tokensStaked */\n      dup2\n        /* \"contracts/NFTStaking.sol\":3179:3198  tokensStaked.length */\n      mload\n        /* \"contracts/NFTStaking.sol\":3175:3176  i */\n      dup2\n        /* \"contracts/NFTStaking.sol\":3175:3198  i < tokensStaked.length */\n      lt\n        /* \"contracts/NFTStaking.sol\":3156:3293  for(uint256 i = 0; i < tokensStaked.length;){... */\n      iszero\n      tag_33\n      jumpi\n        /* \"contracts/NFTStaking.sol\":3241:3253  sharePerEach */\n      dup3\n        /* \"contracts/NFTStaking.sol\":3214:3221  rewards */\n      0x05\n        /* \"contracts/NFTStaking.sol\":3214:3237  rewards[tokenStaked[i]] */\n      0x00\n        /* \"contracts/NFTStaking.sol\":3222:3233  tokenStaked */\n      0x06\n        /* \"contracts/NFTStaking.sol\":3234:3235  i */\n      dup5\n        /* \"contracts/NFTStaking.sol\":3222:3236  tokenStaked[i] */\n      dup2\n      sload\n      dup2\n      lt\n      tag_36\n      jumpi\n      tag_36\n      tag_37\n      jump\t// in\n    tag_36:\n      swap1\n      0x00\n      mstore\n      keccak256(0x00, 0x20)\n      add\n      sload\n        /* \"contracts/NFTStaking.sol\":3214:3237  rewards[tokenStaked[i]] */\n      dup2\n      mstore\n      0x20\n      add\n      swap1\n      dup2\n      mstore\n      0x20\n      add\n      0x00\n      keccak256\n      0x00\n        /* \"contracts/NFTStaking.sol\":3214:3253  rewards[tokenStaked[i]] += sharePerEach */\n      dup3\n      dup3\n      sload\n      tag_39\n      swap2\n      swap1\n      tag_40\n      jump\t// in\n    tag_39:\n      swap1\n      swap2\n      sstore\n      pop\n      pop\n        /* \"contracts/NFTStaking.sol\":3278:3281  ++i */\n      0x01\n      add\n        /* \"contracts/NFTStaking.sol\":3156:3293  for(uint256 i = 0; i < tokensStaked.length;){... */\n      jump(tag_32)\n    tag_33:\n      stop\n        /* \"contracts/NFTStaking.sol\":492:3301  contract SacredTemple is Ownable, ERC721Holder, ReentrancyGuard {... */\n    tag_2:\n      0x00\n      dup1\n      revert\n        /* \"@openzeppelin/contracts@4.7.3/token/ERC721/utils/ERC721Holder.sol\":588:788  function onERC721Received(... */\n    tag_3:\n      callvalue\n      dup1\n      iszero\n      tag_41\n      jumpi\n      0x00\n      dup1\n      revert\n    tag_41:\n      pop\n      tag_42\n      tag_43\n      calldatasize\n      0x04\n      tag_44\n      jump\t// in\n    tag_43:\n      shl(0xe1, 0x0a85bd01)\n      swap5\n      swap4\n      pop\n      pop\n      pop\n      pop\n      jump\n    tag_42:\n      mload(0x40)\n      not(sub(shl(0xe0, 0x01), 0x01))\n        /* \"#utility.yul\":3863:3896   */\n      swap1\n      swap2\n      and\n        /* \"#utility.yul\":3845:3897   */\n      dup2\n      mstore\n        /* \"#utility.yul\":3833:3835   */\n      0x20\n        /* \"#utility.yul\":3818:3836   */\n      add\n        /* \"@openzeppelin/contracts@4.7.3/token/ERC721/utils/ERC721Holder.sol\":588:788  function onERC721Received(... */\n    tag_46:\n      mload(0x40)\n      dup1\n      swap2\n      sub\n      swap1\n      return\n        /* \"contracts/NFTStaking.sol\":1454:1910  function unstake(uint256 tokenId) nonReentrant external {... */\n    tag_4:\n      callvalue\n      dup1\n      iszero\n      tag_48\n      jumpi\n      0x00\n      dup1\n      revert\n    tag_48:\n      pop\n      tag_33\n      tag_50\n      calldatasize\n      0x04\n      tag_51\n      jump\t// in\n    tag_50:\n      tag_52\n      jump\t// in\n        /* \"contracts/NFTStaking.sol\":1916:2206  function claim(uint256 tokenId) nonReentrant external {... */\n    tag_5:\n      callvalue\n      dup1\n      iszero\n      tag_53\n      jumpi\n      0x00\n      dup1\n      revert\n    tag_53:\n      pop\n      tag_33\n      tag_55\n      calldatasize\n      0x04\n      tag_51\n      jump\t// in\n    tag_55:\n      tag_56\n      jump\t// in\n        /* \"contracts/NFTStaking.sol\":2329:2870  function getTokensStakedByUser(address user) public view returns(uint[] memory){... */\n    tag_6:\n      callvalue\n      dup1\n      iszero\n      tag_57\n      jumpi\n      0x00\n      dup1\n      revert\n    tag_57:\n      pop\n      tag_58\n      tag_59\n      calldatasize\n      0x04\n      tag_60\n      jump\t// in\n    tag_59:\n      tag_61\n      jump\t// in\n    tag_58:\n      mload(0x40)\n      tag_46\n      swap2\n      swap1\n      tag_63\n      jump\t// in\n        /* \"@openzeppelin/contracts@4.7.3/access/Ownable.sol\":1831:1932  function renounceOwnership() public virtual onlyOwner {... */\n    tag_7:\n      callvalue\n      dup1\n      iszero\n      tag_64\n      jumpi\n      0x00\n      dup1\n      revert\n    tag_64:\n      pop\n      tag_33\n      tag_66\n      jump\t// in\n        /* \"contracts/NFTStaking.sol\":868:916  mapping (uint256 => address) public tokenOwnerOf */\n    tag_8:\n      callvalue\n      dup1\n      iszero\n      tag_67\n      jumpi\n      0x00\n      dup1\n      revert\n    tag_67:\n      pop\n      tag_68\n      tag_69\n      calldatasize\n      0x04\n      tag_51\n      jump\t// in\n    tag_69:\n      mstore(0x20, 0x04)\n      0x00\n      swap1\n      dup2\n      mstore\n      0x40\n      swap1\n      keccak256\n      sload\n      sub(shl(0xa0, 0x01), 0x01)\n      and\n      dup2\n      jump\n    tag_68:\n      mload(0x40)\n      sub(shl(0xa0, 0x01), 0x01)\n        /* \"#utility.yul\":879:911   */\n      swap1\n      swap2\n      and\n        /* \"#utility.yul\":861:912   */\n      dup2\n      mstore\n        /* \"#utility.yul\":849:851   */\n      0x20\n        /* \"#utility.yul\":834:852   */\n      add\n        /* \"contracts/NFTStaking.sol\":868:916  mapping (uint256 => address) public tokenOwnerOf */\n      tag_46\n        /* \"#utility.yul\":715:918   */\n      jump\n        /* \"@openzeppelin/contracts@4.7.3/access/Ownable.sol\":1201:1286  function owner() public view virtual returns (address) {... */\n    tag_9:\n      callvalue\n      dup1\n      iszero\n      tag_72\n      jumpi\n      0x00\n      dup1\n      revert\n    tag_72:\n      pop\n        /* \"@openzeppelin/contracts@4.7.3/access/Ownable.sol\":1247:1254  address */\n      0x00\n        /* \"@openzeppelin/contracts@4.7.3/access/Ownable.sol\":1273:1279  _owner */\n      sload\n      sub(shl(0xa0, 0x01), 0x01)\n      and\n        /* \"@openzeppelin/contracts@4.7.3/access/Ownable.sol\":1201:1286  function owner() public view virtual returns (address) {... */\n      jump(tag_68)\n        /* \"contracts/NFTStaking.sol\":1198:1448  function stake(uint256 tokenId) external {... */\n    tag_10:\n      callvalue\n      dup1\n      iszero\n      tag_76\n      jumpi\n      0x00\n      dup1\n      revert\n    tag_76:\n      pop\n      tag_33\n      tag_78\n      calldatasize\n      0x04\n      tag_51\n      jump\t// in\n    tag_78:\n      tag_79\n      jump\t// in\n        /* \"contracts/NFTStaking.sol\":2212:2323  function calculateRewards(uint256 tokenId) public view returns(uint256){... */\n    tag_11:\n      callvalue\n      dup1\n      iszero\n      tag_80\n      jumpi\n      0x00\n      dup1\n      revert\n    tag_80:\n      pop\n      tag_81\n      tag_82\n      calldatasize\n      0x04\n      tag_51\n      jump\t// in\n    tag_82:\n        /* \"contracts/NFTStaking.sol\":2275:2282  uint256 */\n      0x00\n        /* \"contracts/NFTStaking.sol\":2300:2316  rewards[tokenId] */\n      swap1\n      dup2\n      mstore\n        /* \"contracts/NFTStaking.sol\":2300:2307  rewards */\n      0x05\n        /* \"contracts/NFTStaking.sol\":2300:2316  rewards[tokenId] */\n      0x20\n      mstore\n      0x40\n      swap1\n      keccak256\n      sload\n      swap1\n        /* \"contracts/NFTStaking.sol\":2212:2323  function calculateRewards(uint256 tokenId) public view returns(uint256){... */\n      jump\n    tag_81:\n      mload(0x40)\n        /* \"#utility.yul\":5067:5092   */\n      swap1\n      dup2\n      mstore\n        /* \"#utility.yul\":5055:5057   */\n      0x20\n        /* \"#utility.yul\":5040:5058   */\n      add\n        /* \"contracts/NFTStaking.sol\":2212:2323  function calculateRewards(uint256 tokenId) public view returns(uint256){... */\n      tag_46\n        /* \"#utility.yul\":4921:5098   */\n      jump\n        /* \"@openzeppelin/contracts@4.7.3/access/Ownable.sol\":2081:2279  function transferOwnership(address newOwner) public virtual onlyOwner {... */\n    tag_12:\n      callvalue\n      dup1\n      iszero\n      tag_86\n      jumpi\n      0x00\n      dup1\n      revert\n    tag_86:\n      pop\n      tag_33\n      tag_88\n      calldatasize\n      0x04\n      tag_60\n      jump\t// in\n    tag_88:\n      tag_89\n      jump\t// in\n        /* \"contracts/NFTStaking.sol\":922:965  mapping (uint256 => uint256) public rewards */\n    tag_13:\n      callvalue\n      dup1\n      iszero\n      tag_90\n      jumpi\n      0x00\n      dup1\n      revert\n    tag_90:\n      pop\n      tag_81\n      tag_92\n      calldatasize\n      0x04\n      tag_51\n      jump\t// in\n    tag_92:\n      mstore(0x20, 0x05)\n      0x00\n      swap1\n      dup2\n      mstore\n      0x40\n      swap1\n      keccak256\n      sload\n      dup2\n      jump\n        /* \"contracts/NFTStaking.sol\":1084:1192  function setNftContact(address nftContract_) external onlyOwner {... */\n    tag_14:\n      callvalue\n      dup1\n      iszero\n      tag_95\n      jumpi\n      0x00\n      dup1\n      revert\n    tag_95:\n      pop\n      tag_33\n      tag_97\n      calldatasize\n      0x04\n      tag_60\n      jump\t// in\n    tag_97:\n      tag_98\n      jump\t// in\n        /* \"contracts/NFTStaking.sol\":1454:1910  function unstake(uint256 tokenId) nonReentrant external {... */\n    tag_52:\n        /* \"@openzeppelin/contracts@4.7.3/security/ReentrancyGuard.sol\":1744:1745  2 */\n      0x02\n        /* \"@openzeppelin/contracts@4.7.3/security/ReentrancyGuard.sol\":2325:2332  _status */\n      sload(0x01)\n        /* \"@openzeppelin/contracts@4.7.3/security/ReentrancyGuard.sol\":2325:2344  _status != _ENTERED */\n      sub\n        /* \"@openzeppelin/contracts@4.7.3/security/ReentrancyGuard.sol\":2317:2380  require(_status != _ENTERED, \"ReentrancyGuard: reentrant call\") */\n      tag_102\n      jumpi\n      mload(0x40)\n      shl(0xe5, 0x461bcd)\n      dup2\n      mstore\n        /* \"#utility.yul\":5305:5307   */\n      0x20\n        /* \"@openzeppelin/contracts@4.7.3/security/ReentrancyGuard.sol\":2317:2380  require(_status != _ENTERED, \"ReentrancyGuard: reentrant call\") */\n      0x04\n      dup3\n      add\n        /* \"#utility.yul\":5287:5308   */\n      mstore\n        /* \"#utility.yul\":5344:5346   */\n      0x1f\n        /* \"#utility.yul\":5324:5342   */\n      0x24\n      dup3\n      add\n        /* \"#utility.yul\":5317:5347   */\n      mstore\n        /* \"#utility.yul\":5383:5416   */\n      0x5265656e7472616e637947756172643a207265656e7472616e742063616c6c00\n        /* \"#utility.yul\":5363:5381   */\n      0x44\n      dup3\n      add\n        /* \"#utility.yul\":5356:5417   */\n      mstore\n        /* \"#utility.yul\":5434:5452   */\n      0x64\n      add\n        /* \"@openzeppelin/contracts@4.7.3/security/ReentrancyGuard.sol\":2317:2380  require(_status != _ENTERED, \"ReentrancyGuard: reentrant call\") */\n      tag_21\n        /* \"#utility.yul\":5103:5458   */\n      jump\n        /* \"@openzeppelin/contracts@4.7.3/security/ReentrancyGuard.sol\":2317:2380  require(_status != _ENTERED, \"ReentrancyGuard: reentrant call\") */\n    tag_102:\n        /* \"@openzeppelin/contracts@4.7.3/security/ReentrancyGuard.sol\":1744:1745  2 */\n      0x02\n        /* \"@openzeppelin/contracts@4.7.3/security/ReentrancyGuard.sol\":2455:2462  _status */\n      0x01\n        /* \"@openzeppelin/contracts@4.7.3/security/ReentrancyGuard.sol\":2455:2473  _status = _ENTERED */\n      sstore\n        /* \"contracts/NFTStaking.sol\":1528:1549  tokenOwnerOf[tokenId] */\n      0x00\n      dup2\n      dup2\n      mstore\n        /* \"contracts/NFTStaking.sol\":1528:1540  tokenOwnerOf */\n      0x04\n        /* \"contracts/NFTStaking.sol\":1528:1549  tokenOwnerOf[tokenId] */\n      0x20\n      mstore\n      0x40\n      swap1\n      keccak256\n      sload\n      sub(shl(0xa0, 0x01), 0x01)\n      and\n        /* \"contracts/NFTStaking.sol\":1553:1563  msg.sender */\n      caller\n        /* \"contracts/NFTStaking.sol\":1528:1563  tokenOwnerOf[tokenId] == msg.sender */\n      eq\n        /* \"contracts/NFTStaking.sol\":1520:1590  require(tokenOwnerOf[tokenId] == msg.sender, \"You are not the owner.\") */\n      tag_106\n      jumpi\n      mload(0x40)\n      shl(0xe5, 0x461bcd)\n      dup2\n      mstore\n        /* \"#utility.yul\":5665:5667   */\n      0x20\n        /* \"contracts/NFTStaking.sol\":1520:1590  require(tokenOwnerOf[tokenId] == msg.sender, \"You are not the owner.\") */\n      0x04\n      dup3\n      add\n        /* \"#utility.yul\":5647:5668   */\n      mstore\n        /* \"#utility.yul\":5704:5706   */\n      0x16\n        /* \"#utility.yul\":5684:5702   */\n      0x24\n      dup3\n      add\n        /* \"#utility.yul\":5677:5707   */\n      mstore\n      shl(0x51, 0x2cb7ba9030b932903737ba103a34329037bbb732b917)\n        /* \"#utility.yul\":5723:5741   */\n      0x44\n      dup3\n      add\n        /* \"#utility.yul\":5716:5768   */\n      mstore\n        /* \"#utility.yul\":5785:5803   */\n      0x64\n      add\n        /* \"contracts/NFTStaking.sol\":1520:1590  require(tokenOwnerOf[tokenId] == msg.sender, \"You are not the owner.\") */\n      tag_21\n        /* \"#utility.yul\":5463:5809   */\n      jump\n        /* \"contracts/NFTStaking.sol\":1520:1590  require(tokenOwnerOf[tokenId] == msg.sender, \"You are not the owner.\") */\n    tag_106:\n        /* \"contracts/NFTStaking.sol\":1607:1628  tokenOwnerOf[tokenId] */\n      0x00\n      dup2\n      dup2\n      mstore\n        /* \"contracts/NFTStaking.sol\":1607:1619  tokenOwnerOf */\n      0x04\n        /* \"contracts/NFTStaking.sol\":1607:1628  tokenOwnerOf[tokenId] */\n      0x20\n      mstore\n      0x40\n      swap1\n      keccak256\n        /* \"contracts/NFTStaking.sol\":1600:1628  delete tokenOwnerOf[tokenId] */\n      dup1\n      sload\n      not(sub(shl(0xa0, 0x01), 0x01))\n      and\n      swap1\n      sstore\n        /* \"contracts/NFTStaking.sol\":1638:1667  _stakedNFTCounter.decrement() */\n      tag_109\n        /* \"contracts/NFTStaking.sol\":1638:1655  _stakedNFTCounter */\n      0x03\n        /* \"contracts/NFTStaking.sol\":1638:1665  _stakedNFTCounter.decrement */\n      tag_110\n        /* \"contracts/NFTStaking.sol\":1638:1667  _stakedNFTCounter.decrement() */\n      jump\t// in\n    tag_109:\n        /* \"contracts/NFTStaking.sol\":1678:1690  bool success */\n      0x00\n        /* \"contracts/NFTStaking.sol\":1704:1725  tokenOwnerOf[tokenId] */\n      dup2\n      dup2\n      mstore\n        /* \"contracts/NFTStaking.sol\":1704:1716  tokenOwnerOf */\n      0x04\n        /* \"contracts/NFTStaking.sol\":1704:1725  tokenOwnerOf[tokenId] */\n      0x20\n      swap1\n      dup2\n      mstore\n      0x40\n      dup1\n      dup4\n      keccak256\n      sload\n        /* \"contracts/NFTStaking.sol\":1739:1746  rewards */\n      0x05\n        /* \"contracts/NFTStaking.sol\":1739:1755  rewards[tokenId] */\n      swap1\n      swap3\n      mstore\n      dup1\n      dup4\n      keccak256\n      sload\n        /* \"contracts/NFTStaking.sol\":1696:1760  payable(tokenOwnerOf[tokenId]).call{value: rewards[tokenId]}(\"\") */\n      swap1\n      mload\n      sub(shl(0xa0, 0x01), 0x01)\n        /* \"contracts/NFTStaking.sol\":1704:1725  tokenOwnerOf[tokenId] */\n      swap1\n      swap3\n      and\n      swap2\n        /* \"contracts/NFTStaking.sol\":1678:1690  bool success */\n      dup4\n        /* \"contracts/NFTStaking.sol\":1696:1760  payable(tokenOwnerOf[tokenId]).call{value: rewards[tokenId]}(\"\") */\n      dup2\n        /* \"contracts/NFTStaking.sol\":1678:1690  bool success */\n      dup2\n        /* \"contracts/NFTStaking.sol\":1696:1760  payable(tokenOwnerOf[tokenId]).call{value: rewards[tokenId]}(\"\") */\n      dup2\n        /* \"contracts/NFTStaking.sol\":1739:1755  rewards[tokenId] */\n      dup6\n        /* \"contracts/NFTStaking.sol\":1704:1725  tokenOwnerOf[tokenId] */\n      dup8\n        /* \"contracts/NFTStaking.sol\":1696:1760  payable(tokenOwnerOf[tokenId]).call{value: rewards[tokenId]}(\"\") */\n      gas\n      call\n      swap3\n      pop\n      pop\n      pop\n      returndatasize\n      dup1\n      0x00\n      dup2\n      eq\n      tag_115\n      jumpi\n      mload(0x40)\n      swap2\n      pop\n      and(add(returndatasize, 0x3f), not(0x1f))\n      dup3\n      add\n      0x40\n      mstore\n      returndatasize\n      dup3\n      mstore\n      returndatasize\n      0x00\n      0x20\n      dup5\n      add\n      returndatacopy\n      jump(tag_114)\n    tag_115:\n      0x60\n      swap2\n      pop\n    tag_114:\n      pop\n        /* \"contracts/NFTStaking.sol\":1677:1760  (bool success, ) = payable(tokenOwnerOf[tokenId]).call{value: rewards[tokenId]}(\"\") */\n      pop\n      swap1\n      pop\n        /* \"contracts/NFTStaking.sol\":1778:1785  success */\n      dup1\n        /* \"contracts/NFTStaking.sol\":1770:1786  require(success) */\n      tag_116\n      jumpi\n      0x00\n      dup1\n      revert\n    tag_116:\n        /* \"contracts/NFTStaking.sol\":1803:1819  rewards[tokenId] */\n      0x00\n      dup3\n      dup2\n      mstore\n        /* \"contracts/NFTStaking.sol\":1803:1810  rewards */\n      0x05\n        /* \"contracts/NFTStaking.sol\":1803:1819  rewards[tokenId] */\n      0x20\n      mstore\n      0x40\n      dup1\n      dup3\n      keccak256\n        /* \"contracts/NFTStaking.sol\":1796:1819  delete rewards[tokenId] */\n      swap2\n      swap1\n      swap2\n      sstore\n        /* \"contracts/NFTStaking.sol\":1837:1849  _nftContract */\n      sload(0x02)\n        /* \"contracts/NFTStaking.sol\":1829:1903  IERC721(_nftContract).safeTransferFrom(address(this), msg.sender, tokenId) */\n      swap1\n      mload\n      shl(0xe1, 0x21421707)\n      dup2\n      mstore\n        /* \"contracts/NFTStaking.sol\":1876:1880  this */\n      address\n        /* \"contracts/NFTStaking.sol\":1829:1903  IERC721(_nftContract).safeTransferFrom(address(this), msg.sender, tokenId) */\n      0x04\n      dup3\n      add\n        /* \"#utility.yul\":6264:6298   */\n      mstore\n        /* \"contracts/NFTStaking.sol\":1883:1893  msg.sender */\n      caller\n        /* \"#utility.yul\":6314:6332   */\n      0x24\n      dup3\n      add\n        /* \"#utility.yul\":6307:6350   */\n      mstore\n        /* \"#utility.yul\":6366:6384   */\n      0x44\n      dup2\n      add\n        /* \"#utility.yul\":6359:6393   */\n      dup5\n      swap1\n      mstore\n      sub(shl(0xa0, 0x01), 0x01)\n        /* \"contracts/NFTStaking.sol\":1837:1849  _nftContract */\n      swap1\n      swap2\n      and\n      swap1\n        /* \"contracts/NFTStaking.sol\":1829:1867  IERC721(_nftContract).safeTransferFrom */\n      0x42842e0e\n      swap1\n        /* \"#utility.yul\":6199:6217   */\n      0x64\n      add\n        /* \"contracts/NFTStaking.sol\":1829:1903  IERC721(_nftContract).safeTransferFrom(address(this), msg.sender, tokenId) */\n      0x00\n      mload(0x40)\n      dup1\n      dup4\n      sub\n      dup2\n      0x00\n      dup8\n      dup1\n      extcodesize\n      iszero\n      dup1\n      iszero\n      tag_119\n      jumpi\n      0x00\n      dup1\n      revert\n    tag_119:\n      pop\n      gas\n      call\n      iszero\n      dup1\n      iszero\n      tag_121\n      jumpi\n      returndatasize\n      0x00\n      dup1\n      returndatacopy\n      revert(0x00, returndatasize)\n    tag_121:\n      pop\n      pop\n        /* \"@openzeppelin/contracts@4.7.3/security/ReentrancyGuard.sol\":1701:1702  1 */\n      0x01\n        /* \"@openzeppelin/contracts@4.7.3/security/ReentrancyGuard.sol\":2628:2650  _status = _NOT_ENTERED */\n      dup1\n      sstore\n      pop\n      pop\n      pop\n      pop\n        /* \"contracts/NFTStaking.sol\":1454:1910  function unstake(uint256 tokenId) nonReentrant external {... */\n      jump\t// out\n        /* \"contracts/NFTStaking.sol\":1916:2206  function claim(uint256 tokenId) nonReentrant external {... */\n    tag_56:\n        /* \"@openzeppelin/contracts@4.7.3/security/ReentrancyGuard.sol\":1744:1745  2 */\n      0x02\n        /* \"@openzeppelin/contracts@4.7.3/security/ReentrancyGuard.sol\":2325:2332  _status */\n      sload(0x01)\n        /* \"@openzeppelin/contracts@4.7.3/security/ReentrancyGuard.sol\":2325:2344  _status != _ENTERED */\n      sub\n        /* \"@openzeppelin/contracts@4.7.3/security/ReentrancyGuard.sol\":2317:2380  require(_status != _ENTERED, \"ReentrancyGuard: reentrant call\") */\n      tag_123\n      jumpi\n      mload(0x40)\n      shl(0xe5, 0x461bcd)\n      dup2\n      mstore\n        /* \"#utility.yul\":5305:5307   */\n      0x20\n        /* \"@openzeppelin/contracts@4.7.3/security/ReentrancyGuard.sol\":2317:2380  require(_status != _ENTERED, \"ReentrancyGuard: reentrant call\") */\n      0x04\n      dup3\n      add\n        /* \"#utility.yul\":5287:5308   */\n      mstore\n        /* \"#utility.yul\":5344:5346   */\n      0x1f\n        /* \"#utility.yul\":5324:5342   */\n      0x24\n      dup3\n      add\n        /* \"#utility.yul\":5317:5347   */\n      mstore\n        /* \"#utility.yul\":5383:5416   */\n      0x5265656e7472616e637947756172643a207265656e7472616e742063616c6c00\n        /* \"#utility.yul\":5363:5381   */\n      0x44\n      dup3\n      add\n        /* \"#utility.yul\":5356:5417   */\n      mstore\n        /* \"#utility.yul\":5434:5452   */\n      0x64\n      add\n        /* \"@openzeppelin/contracts@4.7.3/security/ReentrancyGuard.sol\":2317:2380  require(_status != _ENTERED, \"ReentrancyGuard: reentrant call\") */\n      tag_21\n        /* \"#utility.yul\":5103:5458   */\n      jump\n        /* \"@openzeppelin/contracts@4.7.3/security/ReentrancyGuard.sol\":2317:2380  require(_status != _ENTERED, \"ReentrancyGuard: reentrant call\") */\n    tag_123:\n        /* \"@openzeppelin/contracts@4.7.3/security/ReentrancyGuard.sol\":1744:1745  2 */\n      0x02\n        /* \"@openzeppelin/contracts@4.7.3/security/ReentrancyGuard.sol\":2455:2462  _status */\n      0x01\n        /* \"@openzeppelin/contracts@4.7.3/security/ReentrancyGuard.sol\":2455:2473  _status = _ENTERED */\n      sstore\n        /* \"contracts/NFTStaking.sol\":1988:2009  tokenOwnerOf[tokenId] */\n      0x00\n      dup2\n      dup2\n      mstore\n        /* \"contracts/NFTStaking.sol\":1988:2000  tokenOwnerOf */\n      0x04\n        /* \"contracts/NFTStaking.sol\":1988:2009  tokenOwnerOf[tokenId] */\n      0x20\n      mstore\n      0x40\n      swap1\n      keccak256\n      sload\n      sub(shl(0xa0, 0x01), 0x01)\n      and\n        /* \"contracts/NFTStaking.sol\":2013:2023  msg.sender */\n      caller\n        /* \"contracts/NFTStaking.sol\":1988:2023  tokenOwnerOf[tokenId] == msg.sender */\n      eq\n        /* \"contracts/NFTStaking.sol\":1980:2050  require(tokenOwnerOf[tokenId] == msg.sender, \"You are not the owner.\") */\n      tag_126\n      jumpi\n      mload(0x40)\n      shl(0xe5, 0x461bcd)\n      dup2\n      mstore\n        /* \"#utility.yul\":5665:5667   */\n      0x20\n        /* \"contracts/NFTStaking.sol\":1980:2050  require(tokenOwnerOf[tokenId] == msg.sender, \"You are not the owner.\") */\n      0x04\n      dup3\n      add\n        /* \"#utility.yul\":5647:5668   */\n      mstore\n        /* \"#utility.yul\":5704:5706   */\n      0x16\n        /* \"#utility.yul\":5684:5702   */\n      0x24\n      dup3\n      add\n        /* \"#utility.yul\":5677:5707   */\n      mstore\n      shl(0x51, 0x2cb7ba9030b932903737ba103a34329037bbb732b917)\n        /* \"#utility.yul\":5723:5741   */\n      0x44\n      dup3\n      add\n        /* \"#utility.yul\":5716:5768   */\n      mstore\n        /* \"#utility.yul\":5785:5803   */\n      0x64\n      add\n        /* \"contracts/NFTStaking.sol\":1980:2050  require(tokenOwnerOf[tokenId] == msg.sender, \"You are not the owner.\") */\n      tag_21\n        /* \"#utility.yul\":5463:5809   */\n      jump\n        /* \"contracts/NFTStaking.sol\":1980:2050  require(tokenOwnerOf[tokenId] == msg.sender, \"You are not the owner.\") */\n    tag_126:\n        /* \"contracts/NFTStaking.sol\":2061:2073  bool success */\n      0x00\n        /* \"contracts/NFTStaking.sol\":2087:2108  tokenOwnerOf[tokenId] */\n      dup2\n      dup2\n      mstore\n        /* \"contracts/NFTStaking.sol\":2087:2099  tokenOwnerOf */\n      0x04\n        /* \"contracts/NFTStaking.sol\":2087:2108  tokenOwnerOf[tokenId] */\n      0x20\n      swap1\n      dup2\n      mstore\n      0x40\n      dup1\n      dup4\n      keccak256\n      sload\n        /* \"contracts/NFTStaking.sol\":2122:2129  rewards */\n      0x05\n        /* \"contracts/NFTStaking.sol\":2122:2138  rewards[tokenId] */\n      swap1\n      swap3\n      mstore\n      dup1\n      dup4\n      keccak256\n      sload\n        /* \"contracts/NFTStaking.sol\":2079:2143  payable(tokenOwnerOf[tokenId]).call{value: rewards[tokenId]}(\"\") */\n      swap1\n      mload\n      sub(shl(0xa0, 0x01), 0x01)\n        /* \"contracts/NFTStaking.sol\":2087:2108  tokenOwnerOf[tokenId] */\n      swap1\n      swap3\n      and\n      swap2\n        /* \"contracts/NFTStaking.sol\":2061:2073  bool success */\n      dup4\n        /* \"contracts/NFTStaking.sol\":2079:2143  payable(tokenOwnerOf[tokenId]).call{value: rewards[tokenId]}(\"\") */\n      dup2\n        /* \"contracts/NFTStaking.sol\":2061:2073  bool success */\n      dup2\n        /* \"contracts/NFTStaking.sol\":2079:2143  payable(tokenOwnerOf[tokenId]).call{value: rewards[tokenId]}(\"\") */\n      dup2\n        /* \"contracts/NFTStaking.sol\":2122:2138  rewards[tokenId] */\n      dup6\n        /* \"contracts/NFTStaking.sol\":2087:2108  tokenOwnerOf[tokenId] */\n      dup8\n        /* \"contracts/NFTStaking.sol\":2079:2143  payable(tokenOwnerOf[tokenId]).call{value: rewards[tokenId]}(\"\") */\n      gas\n      call\n      swap3\n      pop\n      pop\n      pop\n      returndatasize\n      dup1\n      0x00\n      dup2\n      eq\n      tag_131\n      jumpi\n      mload(0x40)\n      swap2\n      pop\n      and(add(returndatasize, 0x3f), not(0x1f))\n      dup3\n      add\n      0x40\n      mstore\n      returndatasize\n      dup3\n      mstore\n      returndatasize\n      0x00\n      0x20\n      dup5\n      add\n      returndatacopy\n      jump(tag_130)\n    tag_131:\n      0x60\n      swap2\n      pop\n    tag_130:\n      pop\n        /* \"contracts/NFTStaking.sol\":2060:2143  (bool success, ) = payable(tokenOwnerOf[tokenId]).call{value: rewards[tokenId]}(\"\") */\n      pop\n      swap1\n      pop\n        /* \"contracts/NFTStaking.sol\":2161:2168  success */\n      dup1\n        /* \"contracts/NFTStaking.sol\":2153:2169  require(success) */\n      tag_132\n      jumpi\n      0x00\n      dup1\n      revert\n    tag_132:\n      pop\n        /* \"contracts/NFTStaking.sol\":2198:2199  0 */\n      0x00\n        /* \"contracts/NFTStaking.sol\":2179:2195  rewards[tokenId] */\n      swap1\n      dup2\n      mstore\n        /* \"contracts/NFTStaking.sol\":2179:2186  rewards */\n      0x05\n        /* \"contracts/NFTStaking.sol\":2179:2195  rewards[tokenId] */\n      0x20\n      mstore\n      0x40\n      dup2\n      keccak256\n        /* \"contracts/NFTStaking.sol\":2179:2199  rewards[tokenId] = 0 */\n      sstore\n        /* \"@openzeppelin/contracts@4.7.3/security/ReentrancyGuard.sol\":1701:1702  1 */\n      0x01\n        /* \"@openzeppelin/contracts@4.7.3/security/ReentrancyGuard.sol\":2628:2650  _status = _NOT_ENTERED */\n      dup1\n      sstore\n        /* \"contracts/NFTStaking.sol\":1916:2206  function claim(uint256 tokenId) nonReentrant external {... */\n      jump\t// out\n        /* \"contracts/NFTStaking.sol\":2329:2870  function getTokensStakedByUser(address user) public view returns(uint[] memory){... */\n    tag_61:\n        /* \"contracts/NFTStaking.sol\":2455:2467  _nftContract */\n      sload(0x02)\n        /* \"contracts/NFTStaking.sol\":2450:2497  INFT(_nftContract).walletOfOwner(address(this)) */\n      mload(0x40)\n      shl(0xe8, 0x438b63)\n      dup2\n      mstore\n        /* \"contracts/NFTStaking.sol\":2491:2495  this */\n      address\n        /* \"contracts/NFTStaking.sol\":2450:2497  INFT(_nftContract).walletOfOwner(address(this)) */\n      0x04\n      dup3\n      add\n        /* \"#utility.yul\":861:912   */\n      mstore\n        /* \"contracts/NFTStaking.sol\":2394:2407  uint[] memory */\n      0x60\n      swap2\n        /* \"contracts/NFTStaking.sol\":2418:2447  uint256[] memory _tokenStaked */\n      0x00\n      swap2\n      sub(shl(0xa0, 0x01), 0x01)\n        /* \"contracts/NFTStaking.sol\":2455:2467  _nftContract */\n      swap1\n      swap2\n      and\n      swap1\n        /* \"contracts/NFTStaking.sol\":2450:2482  INFT(_nftContract).walletOfOwner */\n      0x438b6300\n      swap1\n        /* \"#utility.yul\":834:852   */\n      0x24\n      add\n        /* \"contracts/NFTStaking.sol\":2450:2497  INFT(_nftContract).walletOfOwner(address(this)) */\n      0x00\n      mload(0x40)\n      dup1\n      dup4\n      sub\n      dup2\n      dup7\n      gas\n      staticcall\n      iszero\n      dup1\n      iszero\n      tag_136\n      jumpi\n      returndatasize\n      0x00\n      dup1\n      returndatacopy\n      revert(0x00, returndatasize)\n    tag_136:\n      pop\n      pop\n      pop\n      pop\n      mload(0x40)\n      returndatasize\n      0x00\n      dup3\n      returndatacopy\n      0x1f\n      returndatasize\n      swap1\n      dup2\n      add\n      not(0x1f)\n      and\n      dup3\n      add\n      0x40\n      mstore\n      tag_137\n      swap2\n      swap1\n      dup2\n      add\n      swap1\n      tag_31\n      jump\t// in\n    tag_137:\n        /* \"contracts/NFTStaking.sol\":2418:2497  uint256[] memory _tokenStaked = INFT(_nftContract).walletOfOwner(address(this)) */\n      swap1\n      pop\n        /* \"contracts/NFTStaking.sol\":2507:2540  uint256[] memory tokenOwnerOfUser */\n      0x60\n        /* \"contracts/NFTStaking.sol\":2550:2570  uint256 currentIndex */\n      0x00\n        /* \"contracts/NFTStaking.sol\":2590:2596  uint i */\n      dup1\n        /* \"contracts/NFTStaking.sol\":2585:2830  for (uint i; i < _tokenStaked.length;){... */\n    tag_138:\n        /* \"contracts/NFTStaking.sol\":2602:2614  _tokenStaked */\n      dup4\n        /* \"contracts/NFTStaking.sol\":2602:2621  _tokenStaked.length */\n      mload\n        /* \"contracts/NFTStaking.sol\":2598:2599  i */\n      dup2\n        /* \"contracts/NFTStaking.sol\":2598:2621  i < _tokenStaked.length */\n      lt\n        /* \"contracts/NFTStaking.sol\":2585:2830  for (uint i; i < _tokenStaked.length;){... */\n      iszero\n      tag_139\n      jumpi\n        /* \"contracts/NFTStaking.sol\":2648:2660  tokenOwnerOf */\n      0x04\n        /* \"contracts/NFTStaking.sol\":2648:2677  tokenOwnerOf[_tokenStaked[i]] */\n      0x00\n        /* \"contracts/NFTStaking.sol\":2661:2673  _tokenStaked */\n      dup6\n        /* \"contracts/NFTStaking.sol\":2674:2675  i */\n      dup4\n        /* \"contracts/NFTStaking.sol\":2661:2676  _tokenStaked[i] */\n      dup2\n      mload\n      dup2\n      lt\n      tag_142\n      jumpi\n      tag_142\n      tag_37\n      jump\t// in\n    tag_142:\n      0x20\n      swap1\n      dup2\n      mul\n      swap2\n      swap1\n      swap2\n      add\n      dup2\n      add\n      mload\n        /* \"contracts/NFTStaking.sol\":2648:2677  tokenOwnerOf[_tokenStaked[i]] */\n      dup3\n      mstore\n      dup2\n      add\n      swap2\n      swap1\n      swap2\n      mstore\n      0x40\n      add\n      0x00\n      keccak256\n      sload\n      sub(shl(0xa0, 0x01), 0x01)\n      swap1\n      dup2\n      and\n        /* \"contracts/NFTStaking.sol\":2640:2677  user == tokenOwnerOf[_tokenStaked[i]] */\n      swap1\n      dup8\n      and\n      sub\n        /* \"contracts/NFTStaking.sol\":2637:2791  if(user == tokenOwnerOf[_tokenStaked[i]]){... */\n      tag_143\n      jumpi\n        /* \"contracts/NFTStaking.sol\":2729:2741  _tokenStaked */\n      dup4\n        /* \"contracts/NFTStaking.sol\":2742:2743  i */\n      dup2\n        /* \"contracts/NFTStaking.sol\":2729:2744  _tokenStaked[i] */\n      dup2\n      mload\n      dup2\n      lt\n      tag_145\n      jumpi\n      tag_145\n      tag_37\n      jump\t// in\n    tag_145:\n      0x20\n      mul\n      0x20\n      add\n      add\n      mload\n        /* \"contracts/NFTStaking.sol\":2696:2712  tokenOwnerOfUser */\n      dup4\n        /* \"contracts/NFTStaking.sol\":2713:2725  currentIndex */\n      dup4\n        /* \"contracts/NFTStaking.sol\":2696:2726  tokenOwnerOfUser[currentIndex] */\n      dup2\n      mload\n      dup2\n      lt\n      tag_147\n      jumpi\n      tag_147\n      tag_37\n      jump\t// in\n    tag_147:\n      0x20\n      swap1\n      dup2\n      mul\n      swap2\n      swap1\n      swap2\n      add\n      add\n        /* \"contracts/NFTStaking.sol\":2696:2744  tokenOwnerOfUser[currentIndex] = _tokenStaked[i] */\n      mstore\n        /* \"contracts/NFTStaking.sol\":2762:2776  currentIndex++ */\n      dup2\n      tag_148\n      dup2\n      tag_149\n      jump\t// in\n    tag_148:\n      swap3\n      pop\n      pop\n        /* \"contracts/NFTStaking.sol\":2637:2791  if(user == tokenOwnerOf[_tokenStaked[i]]){... */\n    tag_143:\n        /* \"contracts/NFTStaking.sol\":2815:2818  ++i */\n      0x01\n      add\n        /* \"contracts/NFTStaking.sol\":2585:2830  for (uint i; i < _tokenStaked.length;){... */\n      jump(tag_138)\n    tag_139:\n      pop\n        /* \"contracts/NFTStaking.sol\":2847:2863  tokenOwnerOfUser */\n      swap1\n      swap5\n        /* \"contracts/NFTStaking.sol\":2329:2870  function getTokensStakedByUser(address user) public view returns(uint[] memory){... */\n      swap4\n      pop\n      pop\n      pop\n      pop\n      jump\t// out\n        /* \"@openzeppelin/contracts@4.7.3/access/Ownable.sol\":1831:1932  function renounceOwnership() public virtual onlyOwner {... */\n    tag_66:\n        /* \"@openzeppelin/contracts@4.7.3/access/Ownable.sol\":1094:1107  _checkOwner() */\n      tag_151\n        /* \"@openzeppelin/contracts@4.7.3/access/Ownable.sol\":1094:1105  _checkOwner */\n      tag_152\n        /* \"@openzeppelin/contracts@4.7.3/access/Ownable.sol\":1094:1107  _checkOwner() */\n      jump\t// in\n    tag_151:\n        /* \"@openzeppelin/contracts@4.7.3/access/Ownable.sol\":1895:1925  _transferOwnership(address(0)) */\n      tag_154\n        /* \"@openzeppelin/contracts@4.7.3/access/Ownable.sol\":1922:1923  0 */\n      0x00\n        /* \"@openzeppelin/contracts@4.7.3/access/Ownable.sol\":1895:1913  _transferOwnership */\n      tag_155\n        /* \"@openzeppelin/contracts@4.7.3/access/Ownable.sol\":1895:1925  _transferOwnership(address(0)) */\n      jump\t// in\n    tag_154:\n        /* \"@openzeppelin/contracts@4.7.3/access/Ownable.sol\":1831:1932  function renounceOwnership() public virtual onlyOwner {... */\n      jump\t// out\n        /* \"contracts/NFTStaking.sol\":1198:1448  function stake(uint256 tokenId) external {... */\n    tag_79:\n        /* \"contracts/NFTStaking.sol\":1257:1269  _nftContract */\n      sload(0x02)\n        /* \"contracts/NFTStaking.sol\":1249:1323  IERC721(_nftContract).safeTransferFrom(msg.sender, address(this), tokenId) */\n      mload(0x40)\n      shl(0xe1, 0x21421707)\n      dup2\n      mstore\n        /* \"contracts/NFTStaking.sol\":1288:1298  msg.sender */\n      caller\n        /* \"contracts/NFTStaking.sol\":1249:1323  IERC721(_nftContract).safeTransferFrom(msg.sender, address(this), tokenId) */\n      0x04\n      dup3\n      add\n        /* \"#utility.yul\":6264:6298   */\n      mstore\n        /* \"contracts/NFTStaking.sol\":1308:1312  this */\n      address\n        /* \"#utility.yul\":6314:6332   */\n      0x24\n      dup3\n      add\n        /* \"#utility.yul\":6307:6350   */\n      mstore\n        /* \"#utility.yul\":6366:6384   */\n      0x44\n      dup2\n      add\n        /* \"#utility.yul\":6359:6393   */\n      dup4\n      swap1\n      mstore\n      sub(shl(0xa0, 0x01), 0x01)\n        /* \"contracts/NFTStaking.sol\":1257:1269  _nftContract */\n      swap1\n      swap2\n      and\n      swap1\n        /* \"contracts/NFTStaking.sol\":1249:1287  IERC721(_nftContract).safeTransferFrom */\n      0x42842e0e\n      swap1\n        /* \"#utility.yul\":6199:6217   */\n      0x64\n      add\n        /* \"contracts/NFTStaking.sol\":1249:1323  IERC721(_nftContract).safeTransferFrom(msg.sender, address(this), tokenId) */\n      0x00\n      mload(0x40)\n      dup1\n      dup4\n      sub\n      dup2\n      0x00\n      dup8\n      dup1\n      extcodesize\n      iszero\n      dup1\n      iszero\n      tag_159\n      jumpi\n      0x00\n      dup1\n      revert\n    tag_159:\n      pop\n      gas\n      call\n      iszero\n      dup1\n      iszero\n      tag_161\n      jumpi\n      returndatasize\n      0x00\n      dup1\n      returndatacopy\n      revert(0x00, returndatasize)\n    tag_161:\n      pop\n      pop\n      pop\n        /* \"contracts/NFTStaking.sol\":1333:1354  tokenOwnerOf[tokenId] */\n      0x00\n      dup3\n      dup2\n      mstore\n        /* \"contracts/NFTStaking.sol\":1333:1345  tokenOwnerOf */\n      0x04\n        /* \"contracts/NFTStaking.sol\":1333:1354  tokenOwnerOf[tokenId] */\n      0x20\n      mstore\n      0x40\n      dup2\n      keccak256\n        /* \"contracts/NFTStaking.sol\":1333:1367  tokenOwnerOf[tokenId] = msg.sender */\n      dup1\n      sload\n      not(sub(shl(0xa0, 0x01), 0x01))\n      and\n        /* \"contracts/NFTStaking.sol\":1357:1367  msg.sender */\n      caller\n        /* \"contracts/NFTStaking.sol\":1333:1367  tokenOwnerOf[tokenId] = msg.sender */\n      or\n      swap1\n      sstore\n        /* \"contracts/NFTStaking.sol\":1377:1388  tokenStaked */\n      0x06\n        /* \"contracts/NFTStaking.sol\":1377:1402  tokenStaked.push(tokenId) */\n      dup1\n      sload\n        /* \"contracts/NFTStaking.sol\":1333:1367  tokenOwnerOf[tokenId] = msg.sender */\n      0x01\n        /* \"contracts/NFTStaking.sol\":1377:1402  tokenStaked.push(tokenId) */\n      dup2\n      add\n      dup3\n      sstore\n      swap2\n      mstore\n      0xf652222313e28459528d920b65115c16c04f3efc82aaedc97be59f3f377c0d3f\n      add\n      dup3\n      swap1\n      sstore\n      pop\n        /* \"contracts/NFTStaking.sol\":1412:1441  _stakedNFTCounter.increment() */\n      tag_163\n        /* \"contracts/NFTStaking.sol\":1412:1429  _stakedNFTCounter */\n      0x03\n        /* \"@openzeppelin/contracts@4.7.3/utils/Counters.sol\":1032:1051  counter._value += 1 */\n      dup1\n      sload\n        /* \"@openzeppelin/contracts@4.7.3/utils/Counters.sol\":1050:1051  1 */\n      0x01\n        /* \"@openzeppelin/contracts@4.7.3/utils/Counters.sol\":1032:1051  counter._value += 1 */\n      add\n      swap1\n      sstore\n        /* \"@openzeppelin/contracts@4.7.3/utils/Counters.sol\":945:1068  function increment(Counter storage counter) internal {... */\n      jump\n        /* \"contracts/NFTStaking.sol\":1412:1441  _stakedNFTCounter.increment() */\n    tag_163:\n        /* \"contracts/NFTStaking.sol\":1198:1448  function stake(uint256 tokenId) external {... */\n      pop\n      jump\t// out\n        /* \"@openzeppelin/contracts@4.7.3/access/Ownable.sol\":2081:2279  function transferOwnership(address newOwner) public virtual onlyOwner {... */\n    tag_89:\n        /* \"@openzeppelin/contracts@4.7.3/access/Ownable.sol\":1094:1107  _checkOwner() */\n      tag_167\n        /* \"@openzeppelin/contracts@4.7.3/access/Ownable.sol\":1094:1105  _checkOwner */\n      tag_152\n        /* \"@openzeppelin/contracts@4.7.3/access/Ownable.sol\":1094:1107  _checkOwner() */\n      jump\t// in\n    tag_167:\n      sub(shl(0xa0, 0x01), 0x01)\n        /* \"@openzeppelin/contracts@4.7.3/access/Ownable.sol\":2169:2191  newOwner != address(0) */\n      dup2\n      and\n        /* \"@openzeppelin/contracts@4.7.3/access/Ownable.sol\":2161:2234  require(newOwner != address(0), \"Ownable: new owner is the zero address\") */\n      tag_169\n      jumpi\n      mload(0x40)\n      shl(0xe5, 0x461bcd)\n      dup2\n      mstore\n        /* \"#utility.yul\":6746:6748   */\n      0x20\n        /* \"@openzeppelin/contracts@4.7.3/access/Ownable.sol\":2161:2234  require(newOwner != address(0), \"Ownable: new owner is the zero address\") */\n      0x04\n      dup3\n      add\n        /* \"#utility.yul\":6728:6749   */\n      mstore\n        /* \"#utility.yul\":6785:6787   */\n      0x26\n        /* \"#utility.yul\":6765:6783   */\n      0x24\n      dup3\n      add\n        /* \"#utility.yul\":6758:6788   */\n      mstore\n        /* \"#utility.yul\":6824:6858   */\n      0x4f776e61626c653a206e6577206f776e657220697320746865207a65726f2061\n        /* \"#utility.yul\":6804:6822   */\n      0x44\n      dup3\n      add\n        /* \"#utility.yul\":6797:6859   */\n      mstore\n      shl(0xd0, 0x646472657373)\n        /* \"#utility.yul\":6875:6893   */\n      0x64\n      dup3\n      add\n        /* \"#utility.yul\":6868:6904   */\n      mstore\n        /* \"#utility.yul\":6921:6940   */\n      0x84\n      add\n        /* \"@openzeppelin/contracts@4.7.3/access/Ownable.sol\":2161:2234  require(newOwner != address(0), \"Ownable: new owner is the zero address\") */\n      tag_21\n        /* \"#utility.yul\":6544:6946   */\n      jump\n        /* \"@openzeppelin/contracts@4.7.3/access/Ownable.sol\":2161:2234  require(newOwner != address(0), \"Ownable: new owner is the zero address\") */\n    tag_169:\n        /* \"@openzeppelin/contracts@4.7.3/access/Ownable.sol\":2244:2272  _transferOwnership(newOwner) */\n      tag_163\n        /* \"@openzeppelin/contracts@4.7.3/access/Ownable.sol\":2263:2271  newOwner */\n      dup2\n        /* \"@openzeppelin/contracts@4.7.3/access/Ownable.sol\":2244:2262  _transferOwnership */\n      tag_155\n        /* \"@openzeppelin/contracts@4.7.3/access/Ownable.sol\":2244:2272  _transferOwnership(newOwner) */\n      jump\t// in\n        /* \"contracts/NFTStaking.sol\":1084:1192  function setNftContact(address nftContract_) external onlyOwner {... */\n    tag_98:\n        /* \"@openzeppelin/contracts@4.7.3/access/Ownable.sol\":1094:1107  _checkOwner() */\n      tag_174\n        /* \"@openzeppelin/contracts@4.7.3/access/Ownable.sol\":1094:1105  _checkOwner */\n      tag_152\n        /* \"@openzeppelin/contracts@4.7.3/access/Ownable.sol\":1094:1107  _checkOwner() */\n      jump\t// in\n    tag_174:\n        /* \"contracts/NFTStaking.sol\":1158:1170  _nftContract */\n      0x02\n        /* \"contracts/NFTStaking.sol\":1158:1185  _nftContract = nftContract_ */\n      dup1\n      sload\n      not(sub(shl(0xa0, 0x01), 0x01))\n      and\n      sub(shl(0xa0, 0x01), 0x01)\n      swap3\n      swap1\n      swap3\n      and\n      swap2\n      swap1\n      swap2\n      or\n      swap1\n      sstore\n        /* \"contracts/NFTStaking.sol\":1084:1192  function setNftContact(address nftContract_) external onlyOwner {... */\n      jump\t// out\n        /* \"@openzeppelin/contracts@4.7.3/utils/Counters.sol\":1074:1303  function decrement(Counter storage counter) internal {... */\n    tag_110:\n        /* \"@openzeppelin/contracts@4.7.3/utils/Counters.sol\":1153:1167  counter._value */\n      dup1\n      sload\n        /* \"@openzeppelin/contracts@4.7.3/utils/Counters.sol\":1185:1194  value > 0 */\n      dup1\n        /* \"@openzeppelin/contracts@4.7.3/utils/Counters.sol\":1177:1226  require(value > 0, \"Counter: decrement overflow\") */\n      tag_177\n      jumpi\n      mload(0x40)\n      shl(0xe5, 0x461bcd)\n      dup2\n      mstore\n        /* \"#utility.yul\":7153:7155   */\n      0x20\n        /* \"@openzeppelin/contracts@4.7.3/utils/Counters.sol\":1177:1226  require(value > 0, \"Counter: decrement overflow\") */\n      0x04\n      dup3\n      add\n        /* \"#utility.yul\":7135:7156   */\n      mstore\n        /* \"#utility.yul\":7192:7194   */\n      0x1b\n        /* \"#utility.yul\":7172:7190   */\n      0x24\n      dup3\n      add\n        /* \"#utility.yul\":7165:7195   */\n      mstore\n        /* \"#utility.yul\":7231:7260   */\n      0x436f756e7465723a2064656372656d656e74206f766572666c6f770000000000\n        /* \"#utility.yul\":7211:7229   */\n      0x44\n      dup3\n      add\n        /* \"#utility.yul\":7204:7261   */\n      mstore\n        /* \"#utility.yul\":7278:7296   */\n      0x64\n      add\n        /* \"@openzeppelin/contracts@4.7.3/utils/Counters.sol\":1177:1226  require(value > 0, \"Counter: decrement overflow\") */\n      tag_21\n        /* \"#utility.yul\":6951:7302   */\n      jump\n        /* \"@openzeppelin/contracts@4.7.3/utils/Counters.sol\":1177:1226  require(value > 0, \"Counter: decrement overflow\") */\n    tag_177:\n      not(0x00)\n        /* \"@openzeppelin/contracts@4.7.3/utils/Counters.sol\":1277:1286  value - 1 */\n      add\n        /* \"@openzeppelin/contracts@4.7.3/utils/Counters.sol\":1260:1286  counter._value = value - 1 */\n      swap1\n      sstore\n        /* \"@openzeppelin/contracts@4.7.3/utils/Counters.sol\":1074:1303  function decrement(Counter storage counter) internal {... */\n      jump\t// out\n        /* \"@openzeppelin/contracts@4.7.3/access/Ownable.sol\":1359:1489  function _checkOwner() internal view virtual {... */\n    tag_152:\n        /* \"@openzeppelin/contracts@4.7.3/access/Ownable.sol\":1247:1254  address */\n      0x00\n        /* \"@openzeppelin/contracts@4.7.3/access/Ownable.sol\":1273:1279  _owner */\n      sload\n      sub(shl(0xa0, 0x01), 0x01)\n      and\n        /* \"@openzeppelin/contracts@4.7.3/utils/Context.sol\":719:729  msg.sender */\n      caller\n        /* \"@openzeppelin/contracts@4.7.3/access/Ownable.sol\":1422:1445  owner() == _msgSender() */\n      eq\n        /* \"@openzeppelin/contracts@4.7.3/access/Ownable.sol\":1414:1482  require(owner() == _msgSender(), \"Ownable: caller is not the owner\") */\n      tag_154\n      jumpi\n      mload(0x40)\n      shl(0xe5, 0x461bcd)\n      dup2\n      mstore\n        /* \"#utility.yul\":7509:7511   */\n      0x20\n        /* \"@openzeppelin/contracts@4.7.3/access/Ownable.sol\":1414:1482  require(owner() == _msgSender(), \"Ownable: caller is not the owner\") */\n      0x04\n      dup3\n      add\n        /* \"#utility.yul\":7491:7512   */\n      dup2\n      swap1\n      mstore\n        /* \"#utility.yul\":7528:7546   */\n      0x24\n      dup3\n      add\n        /* \"#utility.yul\":7521:7551   */\n      mstore\n        /* \"#utility.yul\":7587:7621   */\n      0x4f776e61626c653a2063616c6c6572206973206e6f7420746865206f776e6572\n        /* \"#utility.yul\":7567:7585   */\n      0x44\n      dup3\n      add\n        /* \"#utility.yul\":7560:7622   */\n      mstore\n        /* \"#utility.yul\":7639:7657   */\n      0x64\n      add\n        /* \"@openzeppelin/contracts@4.7.3/access/Ownable.sol\":1414:1482  require(owner() == _msgSender(), \"Ownable: caller is not the owner\") */\n      tag_21\n        /* \"#utility.yul\":7307:7663   */\n      jump\n        /* \"@openzeppelin/contracts@4.7.3/access/Ownable.sol\":2433:2620  function _transferOwnership(address newOwner) internal virtual {... */\n    tag_155:\n        /* \"@openzeppelin/contracts@4.7.3/access/Ownable.sol\":2506:2522  address oldOwner */\n      0x00\n        /* \"@openzeppelin/contracts@4.7.3/access/Ownable.sol\":2525:2531  _owner */\n      dup1\n      sload\n      sub(shl(0xa0, 0x01), 0x01)\n        /* \"@openzeppelin/contracts@4.7.3/access/Ownable.sol\":2541:2558  _owner = newOwner */\n      dup4\n      dup2\n      and\n      not(sub(shl(0xa0, 0x01), 0x01))\n      dup4\n      and\n      dup2\n      or\n      dup5\n      sstore\n        /* \"@openzeppelin/contracts@4.7.3/access/Ownable.sol\":2573:2613  OwnershipTransferred(oldOwner, newOwner) */\n      mload(0x40)\n        /* \"@openzeppelin/contracts@4.7.3/access/Ownable.sol\":2525:2531  _owner */\n      swap2\n      swap1\n      swap3\n      and\n      swap3\n      dup4\n      swap2\n        /* \"@openzeppelin/contracts@4.7.3/access/Ownable.sol\":2573:2613  OwnershipTransferred(oldOwner, newOwner) */\n      0x8be0079c531659141344cd1fd0a4f28419497f9722a3daafe3b4186f6b6457e0\n      swap2\n        /* \"@openzeppelin/contracts@4.7.3/access/Ownable.sol\":2506:2522  address oldOwner */\n      swap1\n        /* \"@openzeppelin/contracts@4.7.3/access/Ownable.sol\":2573:2613  OwnershipTransferred(oldOwner, newOwner) */\n      log3\n        /* \"@openzeppelin/contracts@4.7.3/access/Ownable.sol\":2496:2620  {... */\n      pop\n        /* \"@openzeppelin/contracts@4.7.3/access/Ownable.sol\":2433:2620  function _transferOwnership(address newOwner) internal virtual {... */\n      pop\n      jump\t// out\n        /* \"#utility.yul\":361:488   */\n    tag_190:\n        /* \"#utility.yul\":422:432   */\n      0x4e487b71\n        /* \"#utility.yul\":417:420   */\n      0xe0\n        /* \"#utility.yul\":413:433   */\n      shl\n        /* \"#utility.yul\":410:411   */\n      0x00\n        /* \"#utility.yul\":403:434   */\n      mstore\n        /* \"#utility.yul\":453:457   */\n      0x11\n        /* \"#utility.yul\":450:451   */\n      0x04\n        /* \"#utility.yul\":443:458   */\n      mstore\n        /* \"#utility.yul\":477:481   */\n      0x24\n        /* \"#utility.yul\":474:475   */\n      0x00\n        /* \"#utility.yul\":467:482   */\n      revert\n        /* \"#utility.yul\":493:710   */\n    tag_25:\n        /* \"#utility.yul\":533:534   */\n      0x00\n        /* \"#utility.yul\":559:560   */\n      dup3\n        /* \"#utility.yul\":549:681   */\n      tag_198\n      jumpi\n        /* \"#utility.yul\":603:613   */\n      0x4e487b71\n        /* \"#utility.yul\":598:601   */\n      0xe0\n        /* \"#utility.yul\":594:614   */\n      shl\n        /* \"#utility.yul\":591:592   */\n      0x00\n        /* \"#utility.yul\":584:615   */\n      mstore\n        /* \"#utility.yul\":638:642   */\n      0x12\n        /* \"#utility.yul\":635:636   */\n      0x04\n        /* \"#utility.yul\":628:643   */\n      mstore\n        /* \"#utility.yul\":666:670   */\n      0x24\n        /* \"#utility.yul\":663:664   */\n      0x00\n        /* \"#utility.yul\":656:671   */\n      revert\n        /* \"#utility.yul\":549:681   */\n    tag_198:\n      pop\n        /* \"#utility.yul\":695:704   */\n      div\n      swap1\n        /* \"#utility.yul\":493:710   */\n      jump\t// out\n        /* \"#utility.yul\":923:1050   */\n    tag_191:\n        /* \"#utility.yul\":984:994   */\n      0x4e487b71\n        /* \"#utility.yul\":979:982   */\n      0xe0\n        /* \"#utility.yul\":975:995   */\n      shl\n        /* \"#utility.yul\":972:973   */\n      0x00\n        /* \"#utility.yul\":965:996   */\n      mstore\n        /* \"#utility.yul\":1015:1019   */\n      0x41\n        /* \"#utility.yul\":1012:1013   */\n      0x04\n        /* \"#utility.yul\":1005:1020   */\n      mstore\n        /* \"#utility.yul\":1039:1043   */\n      0x24\n        /* \"#utility.yul\":1036:1037   */\n      0x00\n        /* \"#utility.yul\":1029:1044   */\n      revert\n        /* \"#utility.yul\":1055:1330   */\n    tag_192:\n        /* \"#utility.yul\":1126:1128   */\n      0x40\n        /* \"#utility.yul\":1120:1129   */\n      mload\n        /* \"#utility.yul\":1191:1193   */\n      0x1f\n        /* \"#utility.yul\":1172:1185   */\n      dup3\n      add\n      not(0x1f)\n        /* \"#utility.yul\":1168:1195   */\n      and\n        /* \"#utility.yul\":1156:1196   */\n      dup2\n      add\n        /* \"#utility.yul\":1226:1244   */\n      0xffffffffffffffff\n        /* \"#utility.yul\":1211:1245   */\n      dup2\n      gt\n        /* \"#utility.yul\":1247:1269   */\n      dup3\n      dup3\n      lt\n        /* \"#utility.yul\":1208:1270   */\n      or\n        /* \"#utility.yul\":1205:1293   */\n      iszero\n      tag_203\n      jumpi\n        /* \"#utility.yul\":1273:1291   */\n      tag_203\n      tag_191\n      jump\t// in\n    tag_203:\n        /* \"#utility.yul\":1309:1311   */\n      0x40\n        /* \"#utility.yul\":1302:1324   */\n      mstore\n        /* \"#utility.yul\":1055:1330   */\n      swap2\n      swap1\n      pop\n      jump\t// out\n        /* \"#utility.yul\":1335:2271   */\n    tag_31:\n        /* \"#utility.yul\":1430:1436   */\n      0x00\n        /* \"#utility.yul\":1461:1463   */\n      0x20\n        /* \"#utility.yul\":1504:1506   */\n      dup1\n        /* \"#utility.yul\":1492:1501   */\n      dup4\n        /* \"#utility.yul\":1483:1490   */\n      dup6\n        /* \"#utility.yul\":1479:1502   */\n      sub\n        /* \"#utility.yul\":1475:1507   */\n      slt\n        /* \"#utility.yul\":1472:1524   */\n      iszero\n      tag_205\n      jumpi\n        /* \"#utility.yul\":1520:1521   */\n      0x00\n        /* \"#utility.yul\":1517:1518   */\n      dup1\n        /* \"#utility.yul\":1510:1522   */\n      revert\n        /* \"#utility.yul\":1472:1524   */\n    tag_205:\n        /* \"#utility.yul\":1553:1562   */\n      dup3\n        /* \"#utility.yul\":1547:1563   */\n      mload\n        /* \"#utility.yul\":1582:1600   */\n      0xffffffffffffffff\n        /* \"#utility.yul\":1623:1625   */\n      dup1\n        /* \"#utility.yul\":1615:1621   */\n      dup3\n        /* \"#utility.yul\":1612:1626   */\n      gt\n        /* \"#utility.yul\":1609:1643   */\n      iszero\n      tag_206\n      jumpi\n        /* \"#utility.yul\":1639:1640   */\n      0x00\n        /* \"#utility.yul\":1636:1637   */\n      dup1\n        /* \"#utility.yul\":1629:1641   */\n      revert\n        /* \"#utility.yul\":1609:1643   */\n    tag_206:\n        /* \"#utility.yul\":1677:1683   */\n      dup2\n        /* \"#utility.yul\":1666:1675   */\n      dup6\n        /* \"#utility.yul\":1662:1684   */\n      add\n        /* \"#utility.yul\":1652:1684   */\n      swap2\n      pop\n        /* \"#utility.yul\":1722:1729   */\n      dup6\n        /* \"#utility.yul\":1715:1719   */\n      0x1f\n        /* \"#utility.yul\":1711:1713   */\n      dup4\n        /* \"#utility.yul\":1707:1720   */\n      add\n        /* \"#utility.yul\":1703:1730   */\n      slt\n        /* \"#utility.yul\":1693:1748   */\n      tag_207\n      jumpi\n        /* \"#utility.yul\":1744:1745   */\n      0x00\n        /* \"#utility.yul\":1741:1742   */\n      dup1\n        /* \"#utility.yul\":1734:1746   */\n      revert\n        /* \"#utility.yul\":1693:1748   */\n    tag_207:\n        /* \"#utility.yul\":1773:1775   */\n      dup2\n        /* \"#utility.yul\":1767:1776   */\n      mload\n        /* \"#utility.yul\":1795:1797   */\n      dup2\n        /* \"#utility.yul\":1791:1793   */\n      dup2\n        /* \"#utility.yul\":1788:1798   */\n      gt\n        /* \"#utility.yul\":1785:1821   */\n      iszero\n      tag_209\n      jumpi\n        /* \"#utility.yul\":1801:1819   */\n      tag_209\n      tag_191\n      jump\t// in\n    tag_209:\n        /* \"#utility.yul\":1847:1849   */\n      dup1\n        /* \"#utility.yul\":1844:1845   */\n      0x05\n        /* \"#utility.yul\":1840:1850   */\n      shl\n        /* \"#utility.yul\":1830:1850   */\n      swap2\n      pop\n        /* \"#utility.yul\":1870:1898   */\n      tag_210\n        /* \"#utility.yul\":1894:1896   */\n      dup5\n        /* \"#utility.yul\":1890:1892   */\n      dup4\n        /* \"#utility.yul\":1886:1897   */\n      add\n        /* \"#utility.yul\":1870:1898   */\n      tag_192\n      jump\t// in\n    tag_210:\n        /* \"#utility.yul\":1932:1947   */\n      dup2\n      dup2\n      mstore\n        /* \"#utility.yul\":2002:2013   */\n      swap2\n      dup4\n      add\n        /* \"#utility.yul\":1998:2018   */\n      dup5\n      add\n      swap2\n        /* \"#utility.yul\":1963:1975   */\n      dup5\n      dup2\n      add\n      swap1\n        /* \"#utility.yul\":2030:2049   */\n      dup9\n      dup5\n      gt\n        /* \"#utility.yul\":2027:2066   */\n      iszero\n      tag_211\n      jumpi\n        /* \"#utility.yul\":2062:2063   */\n      0x00\n        /* \"#utility.yul\":2059:2060   */\n      dup1\n        /* \"#utility.yul\":2052:2064   */\n      revert\n        /* \"#utility.yul\":2027:2066   */\n    tag_211:\n        /* \"#utility.yul\":2086:2097   */\n      swap4\n      dup6\n      add\n      swap4\n        /* \"#utility.yul\":2106:2241   */\n    tag_212:\n        /* \"#utility.yul\":2122:2128   */\n      dup4\n        /* \"#utility.yul\":2117:2120   */\n      dup6\n        /* \"#utility.yul\":2114:2129   */\n      lt\n        /* \"#utility.yul\":2106:2241   */\n      iszero\n      tag_214\n      jumpi\n        /* \"#utility.yul\":2188:2198   */\n      dup5\n      mload\n        /* \"#utility.yul\":2176:2199   */\n      dup3\n      mstore\n        /* \"#utility.yul\":2139:2151   */\n      swap4\n      dup6\n      add\n      swap4\n        /* \"#utility.yul\":2219:2231   */\n      swap1\n      dup6\n      add\n      swap1\n        /* \"#utility.yul\":2106:2241   */\n      jump(tag_212)\n    tag_214:\n        /* \"#utility.yul\":2260:2265   */\n      swap9\n        /* \"#utility.yul\":1335:2271   */\n      swap8\n      pop\n      pop\n      pop\n      pop\n      pop\n      pop\n      pop\n      pop\n      jump\t// out\n        /* \"#utility.yul\":2276:2403   */\n    tag_37:\n        /* \"#utility.yul\":2337:2347   */\n      0x4e487b71\n        /* \"#utility.yul\":2332:2335   */\n      0xe0\n        /* \"#utility.yul\":2328:2348   */\n      shl\n        /* \"#utility.yul\":2325:2326   */\n      0x00\n        /* \"#utility.yul\":2318:2349   */\n      mstore\n        /* \"#utility.yul\":2368:2372   */\n      0x32\n        /* \"#utility.yul\":2365:2366   */\n      0x04\n        /* \"#utility.yul\":2358:2373   */\n      mstore\n        /* \"#utility.yul\":2392:2396   */\n      0x24\n        /* \"#utility.yul\":2389:2390   */\n      0x00\n        /* \"#utility.yul\":2382:2397   */\n      revert\n        /* \"#utility.yul\":2408:2533   */\n    tag_40:\n        /* \"#utility.yul\":2473:2482   */\n      dup1\n      dup3\n      add\n        /* \"#utility.yul\":2494:2504   */\n      dup1\n      dup3\n      gt\n        /* \"#utility.yul\":2491:2527   */\n      iszero\n      tag_218\n      jumpi\n        /* \"#utility.yul\":2507:2525   */\n      tag_218\n      tag_190\n      jump\t// in\n    tag_218:\n        /* \"#utility.yul\":2408:2533   */\n      swap3\n      swap2\n      pop\n      pop\n      jump\t// out\n        /* \"#utility.yul\":2538:2711   */\n    tag_193:\n        /* \"#utility.yul\":2606:2626   */\n      dup1\n      calldataload\n      sub(shl(0xa0, 0x01), 0x01)\n        /* \"#utility.yul\":2655:2686   */\n      dup2\n      and\n        /* \"#utility.yul\":2645:2687   */\n      dup2\n      eq\n        /* \"#utility.yul\":2635:2705   */\n      tag_220\n      jumpi\n        /* \"#utility.yul\":2701:2702   */\n      0x00\n        /* \"#utility.yul\":2698:2699   */\n      dup1\n        /* \"#utility.yul\":2691:2703   */\n      revert\n        /* \"#utility.yul\":2635:2705   */\n    tag_220:\n        /* \"#utility.yul\":2538:2711   */\n      swap2\n      swap1\n      pop\n      jump\t// out\n        /* \"#utility.yul\":2716:3696   */\n    tag_44:\n        /* \"#utility.yul\":2811:2817   */\n      0x00\n        /* \"#utility.yul\":2819:2825   */\n      dup1\n        /* \"#utility.yul\":2827:2833   */\n      0x00\n        /* \"#utility.yul\":2835:2841   */\n      dup1\n        /* \"#utility.yul\":2888:2891   */\n      0x80\n        /* \"#utility.yul\":2876:2885   */\n      dup6\n        /* \"#utility.yul\":2867:2874   */\n      dup8\n        /* \"#utility.yul\":2863:2886   */\n      sub\n        /* \"#utility.yul\":2859:2892   */\n      slt\n        /* \"#utility.yul\":2856:2909   */\n      iszero\n      tag_222\n      jumpi\n        /* \"#utility.yul\":2905:2906   */\n      0x00\n        /* \"#utility.yul\":2902:2903   */\n      dup1\n        /* \"#utility.yul\":2895:2907   */\n      revert\n        /* \"#utility.yul\":2856:2909   */\n    tag_222:\n        /* \"#utility.yul\":2928:2957   */\n      tag_223\n        /* \"#utility.yul\":2947:2956   */\n      dup6\n        /* \"#utility.yul\":2928:2957   */\n      tag_193\n      jump\t// in\n    tag_223:\n        /* \"#utility.yul\":2918:2957   */\n      swap4\n      pop\n        /* \"#utility.yul\":2976:2978   */\n      0x20\n        /* \"#utility.yul\":2997:3035   */\n      tag_224\n        /* \"#utility.yul\":3031:3033   */\n      dup2\n        /* \"#utility.yul\":3020:3029   */\n      dup8\n        /* \"#utility.yul\":3016:3034   */\n      add\n        /* \"#utility.yul\":2997:3035   */\n      tag_193\n      jump\t// in\n    tag_224:\n        /* \"#utility.yul\":2987:3035   */\n      swap4\n      pop\n        /* \"#utility.yul\":3082:3084   */\n      0x40\n        /* \"#utility.yul\":3071:3080   */\n      dup7\n        /* \"#utility.yul\":3067:3085   */\n      add\n        /* \"#utility.yul\":3054:3086   */\n      calldataload\n        /* \"#utility.yul\":3044:3086   */\n      swap3\n      pop\n        /* \"#utility.yul\":3137:3139   */\n      0x60\n        /* \"#utility.yul\":3126:3135   */\n      dup7\n        /* \"#utility.yul\":3122:3140   */\n      add\n        /* \"#utility.yul\":3109:3141   */\n      calldataload\n        /* \"#utility.yul\":3160:3178   */\n      0xffffffffffffffff\n        /* \"#utility.yul\":3201:3203   */\n      dup1\n        /* \"#utility.yul\":3193:3199   */\n      dup3\n        /* \"#utility.yul\":3190:3204   */\n      gt\n        /* \"#utility.yul\":3187:3221   */\n      iszero\n      tag_225\n      jumpi\n        /* \"#utility.yul\":3217:3218   */\n      0x00\n        /* \"#utility.yul\":3214:3215   */\n      dup1\n        /* \"#utility.yul\":3207:3219   */\n      revert\n        /* \"#utility.yul\":3187:3221   */\n    tag_225:\n        /* \"#utility.yul\":3255:3261   */\n      dup2\n        /* \"#utility.yul\":3244:3253   */\n      dup9\n        /* \"#utility.yul\":3240:3262   */\n      add\n        /* \"#utility.yul\":3230:3262   */\n      swap2\n      pop\n        /* \"#utility.yul\":3300:3307   */\n      dup9\n        /* \"#utility.yul\":3293:3297   */\n      0x1f\n        /* \"#utility.yul\":3289:3291   */\n      dup4\n        /* \"#utility.yul\":3285:3298   */\n      add\n        /* \"#utility.yul\":3281:3308   */\n      slt\n        /* \"#utility.yul\":3271:3326   */\n      tag_226\n      jumpi\n        /* \"#utility.yul\":3322:3323   */\n      0x00\n        /* \"#utility.yul\":3319:3320   */\n      dup1\n        /* \"#utility.yul\":3312:3324   */\n      revert\n        /* \"#utility.yul\":3271:3326   */\n    tag_226:\n        /* \"#utility.yul\":3358:3360   */\n      dup2\n        /* \"#utility.yul\":3345:3361   */\n      calldataload\n        /* \"#utility.yul\":3380:3382   */\n      dup2\n        /* \"#utility.yul\":3376:3378   */\n      dup2\n        /* \"#utility.yul\":3373:3383   */\n      gt\n        /* \"#utility.yul\":3370:3406   */\n      iszero\n      tag_228\n      jumpi\n        /* \"#utility.yul\":3386:3404   */\n      tag_228\n      tag_191\n      jump\t// in\n    tag_228:\n        /* \"#utility.yul\":3428:3481   */\n      tag_229\n        /* \"#utility.yul\":3471:3473   */\n      0x1f\n        /* \"#utility.yul\":3452:3465   */\n      dup3\n      add\n      not(0x1f)\n        /* \"#utility.yul\":3448:3475   */\n      and\n        /* \"#utility.yul\":3444:3480   */\n      dup6\n      add\n        /* \"#utility.yul\":3428:3481   */\n      tag_192\n      jump\t// in\n    tag_229:\n        /* \"#utility.yul\":3415:3481   */\n      swap2\n      pop\n        /* \"#utility.yul\":3504:3506   */\n      dup1\n        /* \"#utility.yul\":3497:3502   */\n      dup3\n        /* \"#utility.yul\":3490:3507   */\n      mstore\n        /* \"#utility.yul\":3544:3551   */\n      dup10\n        /* \"#utility.yul\":3539:3541   */\n      dup5\n        /* \"#utility.yul\":3534:3536   */\n      dup3\n        /* \"#utility.yul\":3530:3532   */\n      dup6\n        /* \"#utility.yul\":3526:3537   */\n      add\n        /* \"#utility.yul\":3522:3542   */\n      add\n        /* \"#utility.yul\":3519:3552   */\n      gt\n        /* \"#utility.yul\":3516:3569   */\n      iszero\n      tag_230\n      jumpi\n        /* \"#utility.yul\":3565:3566   */\n      0x00\n        /* \"#utility.yul\":3562:3563   */\n      dup1\n        /* \"#utility.yul\":3555:3567   */\n      revert\n        /* \"#utility.yul\":3516:3569   */\n    tag_230:\n        /* \"#utility.yul\":3620:3622   */\n      dup1\n        /* \"#utility.yul\":3615:3617   */\n      dup5\n        /* \"#utility.yul\":3611:3613   */\n      dup5\n        /* \"#utility.yul\":3607:3618   */\n      add\n        /* \"#utility.yul\":3602:3604   */\n      dup6\n        /* \"#utility.yul\":3595:3600   */\n      dup5\n        /* \"#utility.yul\":3591:3605   */\n      add\n        /* \"#utility.yul\":3578:3623   */\n      calldatacopy\n        /* \"#utility.yul\":3664:3665   */\n      0x00\n        /* \"#utility.yul\":3659:3661   */\n      dup5\n        /* \"#utility.yul\":3654:3656   */\n      dup3\n        /* \"#utility.yul\":3647:3652   */\n      dup5\n        /* \"#utility.yul\":3643:3657   */\n      add\n        /* \"#utility.yul\":3639:3662   */\n      add\n        /* \"#utility.yul\":3632:3666   */\n      mstore\n      pop\n        /* \"#utility.yul\":3685:3690   */\n      dup1\n        /* \"#utility.yul\":3675:3690   */\n      swap4\n      pop\n      pop\n      pop\n      pop\n        /* \"#utility.yul\":2716:3696   */\n      swap3\n      swap6\n      swap2\n      swap5\n      pop\n      swap3\n      pop\n      jump\t// out\n        /* \"#utility.yul\":3908:4088   */\n    tag_51:\n        /* \"#utility.yul\":3967:3973   */\n      0x00\n        /* \"#utility.yul\":4020:4022   */\n      0x20\n        /* \"#utility.yul\":4008:4017   */\n      dup3\n        /* \"#utility.yul\":3999:4006   */\n      dup5\n        /* \"#utility.yul\":3995:4018   */\n      sub\n        /* \"#utility.yul\":3991:4023   */\n      slt\n        /* \"#utility.yul\":3988:4040   */\n      iszero\n      tag_233\n      jumpi\n        /* \"#utility.yul\":4036:4037   */\n      0x00\n        /* \"#utility.yul\":4033:4034   */\n      dup1\n        /* \"#utility.yul\":4026:4038   */\n      revert\n        /* \"#utility.yul\":3988:4040   */\n    tag_233:\n      pop\n        /* \"#utility.yul\":4059:4082   */\n      calldataload\n      swap2\n        /* \"#utility.yul\":3908:4088   */\n      swap1\n      pop\n      jump\t// out\n        /* \"#utility.yul\":4093:4279   */\n    tag_60:\n        /* \"#utility.yul\":4152:4158   */\n      0x00\n        /* \"#utility.yul\":4205:4207   */\n      0x20\n        /* \"#utility.yul\":4193:4202   */\n      dup3\n        /* \"#utility.yul\":4184:4191   */\n      dup5\n        /* \"#utility.yul\":4180:4203   */\n      sub\n        /* \"#utility.yul\":4176:4208   */\n      slt\n        /* \"#utility.yul\":4173:4225   */\n      iszero\n      tag_235\n      jumpi\n        /* \"#utility.yul\":4221:4222   */\n      0x00\n        /* \"#utility.yul\":4218:4219   */\n      dup1\n        /* \"#utility.yul\":4211:4223   */\n      revert\n        /* \"#utility.yul\":4173:4225   */\n    tag_235:\n        /* \"#utility.yul\":4244:4273   */\n      tag_236\n        /* \"#utility.yul\":4263:4272   */\n      dup3\n        /* \"#utility.yul\":4244:4273   */\n      tag_193\n      jump\t// in\n    tag_236:\n        /* \"#utility.yul\":4234:4273   */\n      swap4\n        /* \"#utility.yul\":4093:4279   */\n      swap3\n      pop\n      pop\n      pop\n      jump\t// out\n        /* \"#utility.yul\":4284:4916   */\n    tag_63:\n        /* \"#utility.yul\":4455:4457   */\n      0x20\n        /* \"#utility.yul\":4507:4528   */\n      dup1\n      dup3\n      mstore\n        /* \"#utility.yul\":4577:4590   */\n      dup3\n      mload\n        /* \"#utility.yul\":4480:4498   */\n      dup3\n      dup3\n      add\n        /* \"#utility.yul\":4599:4621   */\n      dup2\n      swap1\n      mstore\n        /* \"#utility.yul\":4426:4430   */\n      0x00\n      swap2\n        /* \"#utility.yul\":4455:4457   */\n      swap1\n        /* \"#utility.yul\":4678:4693   */\n      dup5\n      dup3\n      add\n      swap1\n        /* \"#utility.yul\":4652:4654   */\n      0x40\n        /* \"#utility.yul\":4637:4655   */\n      dup6\n      add\n      swap1\n        /* \"#utility.yul\":4426:4430   */\n      dup5\n        /* \"#utility.yul\":4721:4890   */\n    tag_238:\n        /* \"#utility.yul\":4735:4741   */\n      dup2\n        /* \"#utility.yul\":4732:4733   */\n      dup2\n        /* \"#utility.yul\":4729:4742   */\n      lt\n        /* \"#utility.yul\":4721:4890   */\n      iszero\n      tag_240\n      jumpi\n        /* \"#utility.yul\":4796:4809   */\n      dup4\n      mload\n        /* \"#utility.yul\":4784:4810   */\n      dup4\n      mstore\n        /* \"#utility.yul\":4865:4880   */\n      swap3\n      dup5\n      add\n      swap3\n        /* \"#utility.yul\":4830:4842   */\n      swap2\n      dup5\n      add\n      swap2\n        /* \"#utility.yul\":4757:4758   */\n      0x01\n        /* \"#utility.yul\":4750:4759   */\n      add\n        /* \"#utility.yul\":4721:4890   */\n      jump(tag_238)\n    tag_240:\n      pop\n        /* \"#utility.yul\":4907:4910   */\n      swap1\n      swap7\n        /* \"#utility.yul\":4284:4916   */\n      swap6\n      pop\n      pop\n      pop\n      pop\n      pop\n      pop\n      jump\t// out\n        /* \"#utility.yul\":6404:6539   */\n    tag_149:\n        /* \"#utility.yul\":6443:6446   */\n      0x00\n        /* \"#utility.yul\":6464:6481   */\n      0x01\n      dup3\n      add\n        /* \"#utility.yul\":6461:6504   */\n      tag_248\n      jumpi\n        /* \"#utility.yul\":6484:6502   */\n      tag_248\n      tag_190\n      jump\t// in\n    tag_248:\n      pop\n        /* \"#utility.yul\":6531:6532   */\n      0x01\n        /* \"#utility.yul\":6520:6533   */\n      add\n      swap1\n        /* \"#utility.yul\":6404:6539   */\n      jump\t// out\n\n    auxdata: 0xa2646970667358221220127bae5853e737dc785e178f60043749eaa834ba36b92e28c5e76c5714b2e32864736f6c63430008110033\n}\n",
				"bytecode": {
					"linkReferences": {},
					"object": "608060405234801561001057600080fd5b50604051610e89380380610e8983398101604081905261002f916100b1565b61003833610061565b60018055600280546001600160a01b0319166001600160a01b03929092169190911790556100e1565b600080546001600160a01b038381166001600160a01b0319831681178455604051919092169283917f8be0079c531659141344cd1fd0a4f28419497f9722a3daafe3b4186f6b6457e09190a35050565b6000602082840312156100c357600080fd5b81516001600160a01b03811681146100da57600080fd5b9392505050565b610d99806100f06000396000f3fe6080604052600436106100ab5760003560e01c80638da5cb5b116100645780638da5cb5b14610301578063a694fc3a1461031f578063d3ea43501461033f578063f2fde38b1461037a578063f301af421461039a578063fd71c650146103c757600080fd5b8063150b7a02146101e85780632e17de7814610231578063379607f51461025157806355ed9d5314610271578063715018a61461029e57806389885a59146102b357600080fd5b366101e3576003546000036100fc5760405162461bcd60e51b8152602060048201526012602482015271139bc81391951cc8185c99481cdd185ad95960721b60448201526064015b60405180910390fd5b600061010760035490565b6101119034610ab1565b60025460405162438b6360e81b81523060048201529192506000916001600160a01b039091169063438b630090602401600060405180830381865afa15801561015e573d6000803e3d6000fd5b505050506040513d6000823e601f3d908101601f191682016040526101869190810190610b1a565b905060005b81518110156101e1578260056000600684815481106101ac576101ac610bc0565b9060005260206000200154815260200190815260200160002060008282546101d49190610bd6565b909155505060010161018b565b005b600080fd5b3480156101f457600080fd5b50610213610203366004610c0b565b630a85bd0160e11b949350505050565b6040516001600160e01b031990911681526020015b60405180910390f35b34801561023d57600080fd5b506101e161024c366004610ccb565b6103e7565b34801561025d57600080fd5b506101e161026c366004610ccb565b6105bb565b34801561027d57600080fd5b5061029161028c366004610ce4565b6106fb565b6040516102289190610d06565b3480156102aa57600080fd5b506101e161081c565b3480156102bf57600080fd5b506102e96102ce366004610ccb565b6004602052600090815260409020546001600160a01b031681565b6040516001600160a01b039091168152602001610228565b34801561030d57600080fd5b506000546001600160a01b03166102e9565b34801561032b57600080fd5b506101e161033a366004610ccb565b610830565b34801561034b57600080fd5b5061036c61035a366004610ccb565b60009081526005602052604090205490565b604051908152602001610228565b34801561038657600080fd5b506101e1610395366004610ce4565b6108fa565b3480156103a657600080fd5b5061036c6103b5366004610ccb565b60056020526000908152604090205481565b3480156103d357600080fd5b506101e16103e2366004610ce4565b610970565b6002600154036104395760405162461bcd60e51b815260206004820152601f60248201527f5265656e7472616e637947756172643a207265656e7472616e742063616c6c0060448201526064016100f3565b60026001556000818152600460205260409020546001600160a01b0316331461049d5760405162461bcd60e51b81526020600482015260166024820152752cb7ba9030b932903737ba103a34329037bbb732b91760511b60448201526064016100f3565b600081815260046020526040902080546001600160a01b03191690556104c3600361099a565b60008181526004602090815260408083205460059092528083205490516001600160a01b03909216918381818185875af1925050503d8060008114610524576040519150601f19603f3d011682016040523d82523d6000602084013e610529565b606091505b505090508061053757600080fd5b600082815260056020526040808220919091556002549051632142170760e11b8152306004820152336024820152604481018490526001600160a01b03909116906342842e0e90606401600060405180830381600087803b15801561059b57600080fd5b505af11580156105af573d6000803e3d6000fd5b50506001805550505050565b60026001540361060d5760405162461bcd60e51b815260206004820152601f60248201527f5265656e7472616e637947756172643a207265656e7472616e742063616c6c0060448201526064016100f3565b60026001556000818152600460205260409020546001600160a01b031633146106715760405162461bcd60e51b81526020600482015260166024820152752cb7ba9030b932903737ba103a34329037bbb732b91760511b60448201526064016100f3565b60008181526004602090815260408083205460059092528083205490516001600160a01b03909216918381818185875af1925050503d80600081146106d2576040519150601f19603f3d011682016040523d82523d6000602084013e6106d7565b606091505b50509050806106e557600080fd5b5060009081526005602052604081205560018055565b60025460405162438b6360e81b81523060048201526060916000916001600160a01b039091169063438b630090602401600060405180830381865afa158015610748573d6000803e3d6000fd5b505050506040513d6000823e601f3d908101601f191682016040526107709190810190610b1a565b905060606000805b8351811015610812576004600085838151811061079757610797610bc0565b6020908102919091018101518252810191909152604001600020546001600160a01b039081169087160361080a578381815181106107d7576107d7610bc0565b60200260200101518383815181106107f1576107f1610bc0565b60209081029190910101528161080681610d4a565b9250505b600101610778565b5090949350505050565b6108246109f1565b61082e6000610a4b565b565b600254604051632142170760e11b8152336004820152306024820152604481018390526001600160a01b03909116906342842e0e90606401600060405180830381600087803b15801561088257600080fd5b505af1158015610896573d6000803e3d6000fd5b505050600082815260046020526040812080546001600160a01b031916331790556006805460018101825591527ff652222313e28459528d920b65115c16c04f3efc82aaedc97be59f3f377c0d3f01829055506108f7600380546001019055565b50565b6109026109f1565b6001600160a01b0381166109675760405162461bcd60e51b815260206004820152602660248201527f4f776e61626c653a206e6577206f776e657220697320746865207a65726f206160448201526564647265737360d01b60648201526084016100f3565b6108f781610a4b565b6109786109f1565b600280546001600160a01b0319166001600160a01b0392909216919091179055565b8054806109e95760405162461bcd60e51b815260206004820152601b60248201527f436f756e7465723a2064656372656d656e74206f766572666c6f77000000000060448201526064016100f3565b600019019055565b6000546001600160a01b0316331461082e5760405162461bcd60e51b815260206004820181905260248201527f4f776e61626c653a2063616c6c6572206973206e6f7420746865206f776e657260448201526064016100f3565b600080546001600160a01b038381166001600160a01b0319831681178455604051919092169283917f8be0079c531659141344cd1fd0a4f28419497f9722a3daafe3b4186f6b6457e09190a35050565b634e487b7160e01b600052601160045260246000fd5b600082610ace57634e487b7160e01b600052601260045260246000fd5b500490565b634e487b7160e01b600052604160045260246000fd5b604051601f8201601f1916810167ffffffffffffffff81118282101715610b1257610b12610ad3565b604052919050565b60006020808385031215610b2d57600080fd5b825167ffffffffffffffff80821115610b4557600080fd5b818501915085601f830112610b5957600080fd5b815181811115610b6b57610b6b610ad3565b8060051b9150610b7c848301610ae9565b8181529183018401918481019088841115610b9657600080fd5b938501935b83851015610bb457845182529385019390850190610b9b565b98975050505050505050565b634e487b7160e01b600052603260045260246000fd5b80820180821115610be957610be9610a9b565b92915050565b80356001600160a01b0381168114610c0657600080fd5b919050565b60008060008060808587031215610c2157600080fd5b610c2a85610bef565b93506020610c39818701610bef565b935060408601359250606086013567ffffffffffffffff80821115610c5d57600080fd5b818801915088601f830112610c7157600080fd5b813581811115610c8357610c83610ad3565b610c95601f8201601f19168501610ae9565b91508082528984828501011115610cab57600080fd5b808484018584013760008482840101525080935050505092959194509250565b600060208284031215610cdd57600080fd5b5035919050565b600060208284031215610cf657600080fd5b610cff82610bef565b9392505050565b6020808252825182820181905260009190848201906040850190845b81811015610d3e57835183529284019291840191600101610d22565b50909695505050505050565b600060018201610d5c57610d5c610a9b565b506001019056fea2646970667358221220127bae5853e737dc785e178f60043749eaa834ba36b92e28c5e76c5714b2e32864736f6c63430008110033",
					"opcodes": "PUSH1 0x80 PUSH1 0x40 MSTORE CALLVALUE DUP1 ISZERO PUSH2 0x10 JUMPI PUSH1 0x0 DUP1 REVERT JUMPDEST POP PUSH1 0x40 MLOAD PUSH2 0xE89 CODESIZE SUB DUP1 PUSH2 0xE89 DUP4 CODECOPY DUP2 ADD PUSH1 0x40 DUP2 SWAP1 MSTORE PUSH2 0x2F SWAP2 PUSH2 0xB1 JUMP JUMPDEST PUSH2 0x38 CALLER PUSH2 0x61 JUMP JUMPDEST PUSH1 0x1 DUP1 SSTORE PUSH1 0x2 DUP1 SLOAD PUSH1 0x1 PUSH1 0x1 PUSH1 0xA0 SHL SUB NOT AND PUSH1 0x1 PUSH1 0x1 PUSH1 0xA0 SHL SUB SWAP3 SWAP1 SWAP3 AND SWAP2 SWAP1 SWAP2 OR SWAP1 SSTORE PUSH2 0xE1 JUMP JUMPDEST PUSH1 0x0 DUP1 SLOAD PUSH1 0x1 PUSH1 0x1 PUSH1 0xA0 SHL SUB DUP4 DUP2 AND PUSH1 0x1 PUSH1 0x1 PUSH1 0xA0 SHL SUB NOT DUP4 AND DUP2 OR DUP5 SSTORE PUSH1 0x40 MLOAD SWAP2 SWAP1 SWAP3 AND SWAP3 DUP4 SWAP2 PUSH32 0x8BE0079C531659141344CD1FD0A4F28419497F9722A3DAAFE3B4186F6B6457E0 SWAP2 SWAP1 LOG3 POP POP JUMP JUMPDEST PUSH1 0x0 PUSH1 0x20 DUP3 DUP5 SUB SLT ISZERO PUSH2 0xC3 JUMPI PUSH1 0x0 DUP1 REVERT JUMPDEST DUP2 MLOAD PUSH1 0x1 PUSH1 0x1 PUSH1 0xA0 SHL SUB DUP2 AND DUP2 EQ PUSH2 0xDA JUMPI PUSH1 0x0 DUP1 REVERT JUMPDEST SWAP4 SWAP3 POP POP POP JUMP JUMPDEST PUSH2 0xD99 DUP1 PUSH2 0xF0 PUSH1 0x0 CODECOPY PUSH1 0x0 RETURN INVALID PUSH1 0x80 PUSH1 0x40 MSTORE PUSH1 0x4 CALLDATASIZE LT PUSH2 0xAB JUMPI PUSH1 0x0 CALLDATALOAD PUSH1 0xE0 SHR DUP1 PUSH4 0x8DA5CB5B GT PUSH2 0x64 JUMPI DUP1 PUSH4 0x8DA5CB5B EQ PUSH2 0x301 JUMPI DUP1 PUSH4 0xA694FC3A EQ PUSH2 0x31F JUMPI DUP1 PUSH4 0xD3EA4350 EQ PUSH2 0x33F JUMPI DUP1 PUSH4 0xF2FDE38B EQ PUSH2 0x37A JUMPI DUP1 PUSH4 0xF301AF42 EQ PUSH2 0x39A JUMPI DUP1 PUSH4 0xFD71C650 EQ PUSH2 0x3C7 JUMPI PUSH1 0x0 DUP1 REVERT JUMPDEST DUP1 PUSH4 0x150B7A02 EQ PUSH2 0x1E8 JUMPI DUP1 PUSH4 0x2E17DE78 EQ PUSH2 0x231 JUMPI DUP1 PUSH4 0x379607F5 EQ PUSH2 0x251 JUMPI DUP1 PUSH4 0x55ED9D53 EQ PUSH2 0x271 JUMPI DUP1 PUSH4 0x715018A6 EQ PUSH2 0x29E JUMPI DUP1 PUSH4 0x89885A59 EQ PUSH2 0x2B3 JUMPI PUSH1 0x0 DUP1 REVERT JUMPDEST CALLDATASIZE PUSH2 0x1E3 JUMPI PUSH1 0x3 SLOAD PUSH1 0x0 SUB PUSH2 0xFC JUMPI PUSH1 0x40 MLOAD PUSH3 0x461BCD PUSH1 0xE5 SHL DUP2 MSTORE PUSH1 0x20 PUSH1 0x4 DUP3 ADD MSTORE PUSH1 0x12 PUSH1 0x24 DUP3 ADD MSTORE PUSH18 0x139BC81391951CC8185C99481CDD185AD959 PUSH1 0x72 SHL PUSH1 0x44 DUP3 ADD MSTORE PUSH1 0x64 ADD JUMPDEST PUSH1 0x40 MLOAD DUP1 SWAP2 SUB SWAP1 REVERT JUMPDEST PUSH1 0x0 PUSH2 0x107 PUSH1 0x3 SLOAD SWAP1 JUMP JUMPDEST PUSH2 0x111 SWAP1 CALLVALUE PUSH2 0xAB1 JUMP JUMPDEST PUSH1 0x2 SLOAD PUSH1 0x40 MLOAD PUSH3 0x438B63 PUSH1 0xE8 SHL DUP2 MSTORE ADDRESS PUSH1 0x4 DUP3 ADD MSTORE SWAP2 SWAP3 POP PUSH1 0x0 SWAP2 PUSH1 0x1 PUSH1 0x1 PUSH1 0xA0 SHL SUB SWAP1 SWAP2 AND SWAP1 PUSH4 0x438B6300 SWAP1 PUSH1 0x24 ADD PUSH1 0x0 PUSH1 0x40 MLOAD DUP1 DUP4 SUB DUP2 DUP7 GAS STATICCALL ISZERO DUP1 ISZERO PUSH2 0x15E JUMPI RETURNDATASIZE PUSH1 0x0 DUP1 RETURNDATACOPY RETURNDATASIZE PUSH1 0x0 REVERT JUMPDEST POP POP POP POP PUSH1 0x40 MLOAD RETURNDATASIZE PUSH1 0x0 DUP3 RETURNDATACOPY PUSH1 0x1F RETURNDATASIZE SWAP1 DUP2 ADD PUSH1 0x1F NOT AND DUP3 ADD PUSH1 0x40 MSTORE PUSH2 0x186 SWAP2 SWAP1 DUP2 ADD SWAP1 PUSH2 0xB1A JUMP JUMPDEST SWAP1 POP PUSH1 0x0 JUMPDEST DUP2 MLOAD DUP2 LT ISZERO PUSH2 0x1E1 JUMPI DUP3 PUSH1 0x5 PUSH1 0x0 PUSH1 0x6 DUP5 DUP2 SLOAD DUP2 LT PUSH2 0x1AC JUMPI PUSH2 0x1AC PUSH2 0xBC0 JUMP JUMPDEST SWAP1 PUSH1 0x0 MSTORE PUSH1 0x20 PUSH1 0x0 KECCAK256 ADD SLOAD DUP2 MSTORE PUSH1 0x20 ADD SWAP1 DUP2 MSTORE PUSH1 0x20 ADD PUSH1 0x0 KECCAK256 PUSH1 0x0 DUP3 DUP3 SLOAD PUSH2 0x1D4 SWAP2 SWAP1 PUSH2 0xBD6 JUMP JUMPDEST SWAP1 SWAP2 SSTORE POP POP PUSH1 0x1 ADD PUSH2 0x18B JUMP JUMPDEST STOP JUMPDEST PUSH1 0x0 DUP1 REVERT JUMPDEST CALLVALUE DUP1 ISZERO PUSH2 0x1F4 JUMPI PUSH1 0x0 DUP1 REVERT JUMPDEST POP PUSH2 0x213 PUSH2 0x203 CALLDATASIZE PUSH1 0x4 PUSH2 0xC0B JUMP JUMPDEST PUSH4 0xA85BD01 PUSH1 0xE1 SHL SWAP5 SWAP4 POP POP POP POP JUMP JUMPDEST PUSH1 0x40 MLOAD PUSH1 0x1 PUSH1 0x1 PUSH1 0xE0 SHL SUB NOT SWAP1 SWAP2 AND DUP2 MSTORE PUSH1 0x20 ADD JUMPDEST PUSH1 0x40 MLOAD DUP1 SWAP2 SUB SWAP1 RETURN JUMPDEST CALLVALUE DUP1 ISZERO PUSH2 0x23D JUMPI PUSH1 0x0 DUP1 REVERT JUMPDEST POP PUSH2 0x1E1 PUSH2 0x24C CALLDATASIZE PUSH1 0x4 PUSH2 0xCCB JUMP JUMPDEST PUSH2 0x3E7 JUMP JUMPDEST CALLVALUE DUP1 ISZERO PUSH2 0x25D JUMPI PUSH1 0x0 DUP1 REVERT JUMPDEST POP PUSH2 0x1E1 PUSH2 0x26C CALLDATASIZE PUSH1 0x4 PUSH2 0xCCB JUMP JUMPDEST PUSH2 0x5BB JUMP JUMPDEST CALLVALUE DUP1 ISZERO PUSH2 0x27D JUMPI PUSH1 0x0 DUP1 REVERT JUMPDEST POP PUSH2 0x291 PUSH2 0x28C CALLDATASIZE PUSH1 0x4 PUSH2 0xCE4 JUMP JUMPDEST PUSH2 0x6FB JUMP JUMPDEST PUSH1 0x40 MLOAD PUSH2 0x228 SWAP2 SWAP1 PUSH2 0xD06 JUMP JUMPDEST CALLVALUE DUP1 ISZERO PUSH2 0x2AA JUMPI PUSH1 0x0 DUP1 REVERT JUMPDEST POP PUSH2 0x1E1 PUSH2 0x81C JUMP JUMPDEST CALLVALUE DUP1 ISZERO PUSH2 0x2BF JUMPI PUSH1 0x0 DUP1 REVERT JUMPDEST POP PUSH2 0x2E9 PUSH2 0x2CE CALLDATASIZE PUSH1 0x4 PUSH2 0xCCB JUMP JUMPDEST PUSH1 0x4 PUSH1 0x20 MSTORE PUSH1 0x0 SWAP1 DUP2 MSTORE PUSH1 0x40 SWAP1 KECCAK256 SLOAD PUSH1 0x1 PUSH1 0x1 PUSH1 0xA0 SHL SUB AND DUP2 JUMP JUMPDEST PUSH1 0x40 MLOAD PUSH1 0x1 PUSH1 0x1 PUSH1 0xA0 SHL SUB SWAP1 SWAP2 AND DUP2 MSTORE PUSH1 0x20 ADD PUSH2 0x228 JUMP JUMPDEST CALLVALUE DUP1 ISZERO PUSH2 0x30D JUMPI PUSH1 0x0 DUP1 REVERT JUMPDEST POP PUSH1 0x0 SLOAD PUSH1 0x1 PUSH1 0x1 PUSH1 0xA0 SHL SUB AND PUSH2 0x2E9 JUMP JUMPDEST CALLVALUE DUP1 ISZERO PUSH2 0x32B JUMPI PUSH1 0x0 DUP1 REVERT JUMPDEST POP PUSH2 0x1E1 PUSH2 0x33A CALLDATASIZE PUSH1 0x4 PUSH2 0xCCB JUMP JUMPDEST PUSH2 0x830 JUMP JUMPDEST CALLVALUE DUP1 ISZERO PUSH2 0x34B JUMPI PUSH1 0x0 DUP1 REVERT JUMPDEST POP PUSH2 0x36C PUSH2 0x35A CALLDATASIZE PUSH1 0x4 PUSH2 0xCCB JUMP JUMPDEST PUSH1 0x0 SWAP1 DUP2 MSTORE PUSH1 0x5 PUSH1 0x20 MSTORE PUSH1 0x40 SWAP1 KECCAK256 SLOAD SWAP1 JUMP JUMPDEST PUSH1 0x40 MLOAD SWAP1 DUP2 MSTORE PUSH1 0x20 ADD PUSH2 0x228 JUMP JUMPDEST CALLVALUE DUP1 ISZERO PUSH2 0x386 JUMPI PUSH1 0x0 DUP1 REVERT JUMPDEST POP PUSH2 0x1E1 PUSH2 0x395 CALLDATASIZE PUSH1 0x4 PUSH2 0xCE4 JUMP JUMPDEST PUSH2 0x8FA JUMP JUMPDEST CALLVALUE DUP1 ISZERO PUSH2 0x3A6 JUMPI PUSH1 0x0 DUP1 REVERT JUMPDEST POP PUSH2 0x36C PUSH2 0x3B5 CALLDATASIZE PUSH1 0x4 PUSH2 0xCCB JUMP JUMPDEST PUSH1 0x5 PUSH1 0x20 MSTORE PUSH1 0x0 SWAP1 DUP2 MSTORE PUSH1 0x40 SWAP1 KECCAK256 SLOAD DUP2 JUMP JUMPDEST CALLVALUE DUP1 ISZERO PUSH2 0x3D3 JUMPI PUSH1 0x0 DUP1 REVERT JUMPDEST POP PUSH2 0x1E1 PUSH2 0x3E2 CALLDATASIZE PUSH1 0x4 PUSH2 0xCE4 JUMP JUMPDEST PUSH2 0x970 JUMP JUMPDEST PUSH1 0x2 PUSH1 0x1 SLOAD SUB PUSH2 0x439 JUMPI PUSH1 0x40 MLOAD PUSH3 0x461BCD PUSH1 0xE5 SHL DUP2 MSTORE PUSH1 0x20 PUSH1 0x4 DUP3 ADD MSTORE PUSH1 0x1F PUSH1 0x24 DUP3 ADD MSTORE PUSH32 0x5265656E7472616E637947756172643A207265656E7472616E742063616C6C00 PUSH1 0x44 DUP3 ADD MSTORE PUSH1 0x64 ADD PUSH2 0xF3 JUMP JUMPDEST PUSH1 0x2 PUSH1 0x1 SSTORE PUSH1 0x0 DUP2 DUP2 MSTORE PUSH1 0x4 PUSH1 0x20 MSTORE PUSH1 0x40 SWAP1 KECCAK256 SLOAD PUSH1 0x1 PUSH1 0x1 PUSH1 0xA0 SHL SUB AND CALLER EQ PUSH2 0x49D JUMPI PUSH1 0x40 MLOAD PUSH3 0x461BCD PUSH1 0xE5 SHL DUP2 MSTORE PUSH1 0x20 PUSH1 0x4 DUP3 ADD MSTORE PUSH1 0x16 PUSH1 0x24 DUP3 ADD MSTORE PUSH22 0x2CB7BA9030B932903737BA103A34329037BBB732B917 PUSH1 0x51 SHL PUSH1 0x44 DUP3 ADD MSTORE PUSH1 0x64 ADD PUSH2 0xF3 JUMP JUMPDEST PUSH1 0x0 DUP2 DUP2 MSTORE PUSH1 0x4 PUSH1 0x20 MSTORE PUSH1 0x40 SWAP1 KECCAK256 DUP1 SLOAD PUSH1 0x1 PUSH1 0x1 PUSH1 0xA0 SHL SUB NOT AND SWAP1 SSTORE PUSH2 0x4C3 PUSH1 0x3 PUSH2 0x99A JUMP JUMPDEST PUSH1 0x0 DUP2 DUP2 MSTORE PUSH1 0x4 PUSH1 0x20 SWAP1 DUP2 MSTORE PUSH1 0x40 DUP1 DUP4 KECCAK256 SLOAD PUSH1 0x5 SWAP1 SWAP3 MSTORE DUP1 DUP4 KECCAK256 SLOAD SWAP1 MLOAD PUSH1 0x1 PUSH1 0x1 PUSH1 0xA0 SHL SUB SWAP1 SWAP3 AND SWAP2 DUP4 DUP2 DUP2 DUP2 DUP6 DUP8 GAS CALL SWAP3 POP POP POP RETURNDATASIZE DUP1 PUSH1 0x0 DUP2 EQ PUSH2 0x524 JUMPI PUSH1 0x40 MLOAD SWAP2 POP PUSH1 0x1F NOT PUSH1 0x3F RETURNDATASIZE ADD AND DUP3 ADD PUSH1 0x40 MSTORE RETURNDATASIZE DUP3 MSTORE RETURNDATASIZE PUSH1 0x0 PUSH1 0x20 DUP5 ADD RETURNDATACOPY PUSH2 0x529 JUMP JUMPDEST PUSH1 0x60 SWAP2 POP JUMPDEST POP POP SWAP1 POP DUP1 PUSH2 0x537 JUMPI PUSH1 0x0 DUP1 REVERT JUMPDEST PUSH1 0x0 DUP3 DUP2 MSTORE PUSH1 0x5 PUSH1 0x20 MSTORE PUSH1 0x40 DUP1 DUP3 KECCAK256 SWAP2 SWAP1 SWAP2 SSTORE PUSH1 0x2 SLOAD SWAP1 MLOAD PUSH4 0x21421707 PUSH1 0xE1 SHL DUP2 MSTORE ADDRESS PUSH1 0x4 DUP3 ADD MSTORE CALLER PUSH1 0x24 DUP3 ADD MSTORE PUSH1 0x44 DUP2 ADD DUP5 SWAP1 MSTORE PUSH1 0x1 PUSH1 0x1 PUSH1 0xA0 SHL SUB SWAP1 SWAP2 AND SWAP1 PUSH4 0x42842E0E SWAP1 PUSH1 0x64 ADD PUSH1 0x0 PUSH1 0x40 MLOAD DUP1 DUP4 SUB DUP2 PUSH1 0x0 DUP8 DUP1 EXTCODESIZE ISZERO DUP1 ISZERO PUSH2 0x59B JUMPI PUSH1 0x0 DUP1 REVERT JUMPDEST POP GAS CALL ISZERO DUP1 ISZERO PUSH2 0x5AF JUMPI RETURNDATASIZE PUSH1 0x0 DUP1 RETURNDATACOPY RETURNDATASIZE PUSH1 0x0 REVERT JUMPDEST POP POP PUSH1 0x1 DUP1 SSTORE POP POP POP POP JUMP JUMPDEST PUSH1 0x2 PUSH1 0x1 SLOAD SUB PUSH2 0x60D JUMPI PUSH1 0x40 MLOAD PUSH3 0x461BCD PUSH1 0xE5 SHL DUP2 MSTORE PUSH1 0x20 PUSH1 0x4 DUP3 ADD MSTORE PUSH1 0x1F PUSH1 0x24 DUP3 ADD MSTORE PUSH32 0x5265656E7472616E637947756172643A207265656E7472616E742063616C6C00 PUSH1 0x44 DUP3 ADD MSTORE PUSH1 0x64 ADD PUSH2 0xF3 JUMP JUMPDEST PUSH1 0x2 PUSH1 0x1 SSTORE PUSH1 0x0 DUP2 DUP2 MSTORE PUSH1 0x4 PUSH1 0x20 MSTORE PUSH1 0x40 SWAP1 KECCAK256 SLOAD PUSH1 0x1 PUSH1 0x1 PUSH1 0xA0 SHL SUB AND CALLER EQ PUSH2 0x671 JUMPI PUSH1 0x40 MLOAD PUSH3 0x461BCD PUSH1 0xE5 SHL DUP2 MSTORE PUSH1 0x20 PUSH1 0x4 DUP3 ADD MSTORE PUSH1 0x16 PUSH1 0x24 DUP3 ADD MSTORE PUSH22 0x2CB7BA9030B932903737BA103A34329037BBB732B917 PUSH1 0x51 SHL PUSH1 0x44 DUP3 ADD MSTORE PUSH1 0x64 ADD PUSH2 0xF3 JUMP JUMPDEST PUSH1 0x0 DUP2 DUP2 MSTORE PUSH1 0x4 PUSH1 0x20 SWAP1 DUP2 MSTORE PUSH1 0x40 DUP1 DUP4 KECCAK256 SLOAD PUSH1 0x5 SWAP1 SWAP3 MSTORE DUP1 DUP4 KECCAK256 SLOAD SWAP1 MLOAD PUSH1 0x1 PUSH1 0x1 PUSH1 0xA0 SHL SUB SWAP1 SWAP3 AND SWAP2 DUP4 DUP2 DUP2 DUP2 DUP6 DUP8 GAS CALL SWAP3 POP POP POP RETURNDATASIZE DUP1 PUSH1 0x0 DUP2 EQ PUSH2 0x6D2 JUMPI PUSH1 0x40 MLOAD SWAP2 POP PUSH1 0x1F NOT PUSH1 0x3F RETURNDATASIZE ADD AND DUP3 ADD PUSH1 0x40 MSTORE RETURNDATASIZE DUP3 MSTORE RETURNDATASIZE PUSH1 0x0 PUSH1 0x20 DUP5 ADD RETURNDATACOPY PUSH2 0x6D7 JUMP JUMPDEST PUSH1 0x60 SWAP2 POP JUMPDEST POP POP SWAP1 POP DUP1 PUSH2 0x6E5 JUMPI PUSH1 0x0 DUP1 REVERT JUMPDEST POP PUSH1 0x0 SWAP1 DUP2 MSTORE PUSH1 0x5 PUSH1 0x20 MSTORE PUSH1 0x40 DUP2 KECCAK256 SSTORE PUSH1 0x1 DUP1 SSTORE JUMP JUMPDEST PUSH1 0x2 SLOAD PUSH1 0x40 MLOAD PUSH3 0x438B63 PUSH1 0xE8 SHL DUP2 MSTORE ADDRESS PUSH1 0x4 DUP3 ADD MSTORE PUSH1 0x60 SWAP2 PUSH1 0x0 SWAP2 PUSH1 0x1 PUSH1 0x1 PUSH1 0xA0 SHL SUB SWAP1 SWAP2 AND SWAP1 PUSH4 0x438B6300 SWAP1 PUSH1 0x24 ADD PUSH1 0x0 PUSH1 0x40 MLOAD DUP1 DUP4 SUB DUP2 DUP7 GAS STATICCALL ISZERO DUP1 ISZERO PUSH2 0x748 JUMPI RETURNDATASIZE PUSH1 0x0 DUP1 RETURNDATACOPY RETURNDATASIZE PUSH1 0x0 REVERT JUMPDEST POP POP POP POP PUSH1 0x40 MLOAD RETURNDATASIZE PUSH1 0x0 DUP3 RETURNDATACOPY PUSH1 0x1F RETURNDATASIZE SWAP1 DUP2 ADD PUSH1 0x1F NOT AND DUP3 ADD PUSH1 0x40 MSTORE PUSH2 0x770 SWAP2 SWAP1 DUP2 ADD SWAP1 PUSH2 0xB1A JUMP JUMPDEST SWAP1 POP PUSH1 0x60 PUSH1 0x0 DUP1 JUMPDEST DUP4 MLOAD DUP2 LT ISZERO PUSH2 0x812 JUMPI PUSH1 0x4 PUSH1 0x0 DUP6 DUP4 DUP2 MLOAD DUP2 LT PUSH2 0x797 JUMPI PUSH2 0x797 PUSH2 0xBC0 JUMP JUMPDEST PUSH1 0x20 SWAP1 DUP2 MUL SWAP2 SWAP1 SWAP2 ADD DUP2 ADD MLOAD DUP3 MSTORE DUP2 ADD SWAP2 SWAP1 SWAP2 MSTORE PUSH1 0x40 ADD PUSH1 0x0 KECCAK256 SLOAD PUSH1 0x1 PUSH1 0x1 PUSH1 0xA0 SHL SUB SWAP1 DUP2 AND SWAP1 DUP8 AND SUB PUSH2 0x80A JUMPI DUP4 DUP2 DUP2 MLOAD DUP2 LT PUSH2 0x7D7 JUMPI PUSH2 0x7D7 PUSH2 0xBC0 JUMP JUMPDEST PUSH1 0x20 MUL PUSH1 0x20 ADD ADD MLOAD DUP4 DUP4 DUP2 MLOAD DUP2 LT PUSH2 0x7F1 JUMPI PUSH2 0x7F1 PUSH2 0xBC0 JUMP JUMPDEST PUSH1 0x20 SWAP1 DUP2 MUL SWAP2 SWAP1 SWAP2 ADD ADD MSTORE DUP2 PUSH2 0x806 DUP2 PUSH2 0xD4A JUMP JUMPDEST SWAP3 POP POP JUMPDEST PUSH1 0x1 ADD PUSH2 0x778 JUMP JUMPDEST POP SWAP1 SWAP5 SWAP4 POP POP POP POP JUMP JUMPDEST PUSH2 0x824 PUSH2 0x9F1 JUMP JUMPDEST PUSH2 0x82E PUSH1 0x0 PUSH2 0xA4B JUMP JUMPDEST JUMP JUMPDEST PUSH1 0x2 SLOAD PUSH1 0x40 MLOAD PUSH4 0x21421707 PUSH1 0xE1 SHL DUP2 MSTORE CALLER PUSH1 0x4 DUP3 ADD MSTORE ADDRESS PUSH1 0x24 DUP3 ADD MSTORE PUSH1 0x44 DUP2 ADD DUP4 SWAP1 MSTORE PUSH1 0x1 PUSH1 0x1 PUSH1 0xA0 SHL SUB SWAP1 SWAP2 AND SWAP1 PUSH4 0x42842E0E SWAP1 PUSH1 0x64 ADD PUSH1 0x0 PUSH1 0x40 MLOAD DUP1 DUP4 SUB DUP2 PUSH1 0x0 DUP8 DUP1 EXTCODESIZE ISZERO DUP1 ISZERO PUSH2 0x882 JUMPI PUSH1 0x0 DUP1 REVERT JUMPDEST POP GAS CALL ISZERO DUP1 ISZERO PUSH2 0x896 JUMPI RETURNDATASIZE PUSH1 0x0 DUP1 RETURNDATACOPY RETURNDATASIZE PUSH1 0x0 REVERT JUMPDEST POP POP POP PUSH1 0x0 DUP3 DUP2 MSTORE PUSH1 0x4 PUSH1 0x20 MSTORE PUSH1 0x40 DUP2 KECCAK256 DUP1 SLOAD PUSH1 0x1 PUSH1 0x1 PUSH1 0xA0 SHL SUB NOT AND CALLER OR SWAP1 SSTORE PUSH1 0x6 DUP1 SLOAD PUSH1 0x1 DUP2 ADD DUP3 SSTORE SWAP2 MSTORE PUSH32 0xF652222313E28459528D920B65115C16C04F3EFC82AAEDC97BE59F3F377C0D3F ADD DUP3 SWAP1 SSTORE POP PUSH2 0x8F7 PUSH1 0x3 DUP1 SLOAD PUSH1 0x1 ADD SWAP1 SSTORE JUMP JUMPDEST POP JUMP JUMPDEST PUSH2 0x902 PUSH2 0x9F1 JUMP JUMPDEST PUSH1 0x1 PUSH1 0x1 PUSH1 0xA0 SHL SUB DUP2 AND PUSH2 0x967 JUMPI PUSH1 0x40 MLOAD PUSH3 0x461BCD PUSH1 0xE5 SHL DUP2 MSTORE PUSH1 0x20 PUSH1 0x4 DUP3 ADD MSTORE PUSH1 0x26 PUSH1 0x24 DUP3 ADD MSTORE PUSH32 0x4F776E61626C653A206E6577206F776E657220697320746865207A65726F2061 PUSH1 0x44 DUP3 ADD MSTORE PUSH6 0x646472657373 PUSH1 0xD0 SHL PUSH1 0x64 DUP3 ADD MSTORE PUSH1 0x84 ADD PUSH2 0xF3 JUMP JUMPDEST PUSH2 0x8F7 DUP2 PUSH2 0xA4B JUMP JUMPDEST PUSH2 0x978 PUSH2 0x9F1 JUMP JUMPDEST PUSH1 0x2 DUP1 SLOAD PUSH1 0x1 PUSH1 0x1 PUSH1 0xA0 SHL SUB NOT AND PUSH1 0x1 PUSH1 0x1 PUSH1 0xA0 SHL SUB SWAP3 SWAP1 SWAP3 AND SWAP2 SWAP1 SWAP2 OR SWAP1 SSTORE JUMP JUMPDEST DUP1 SLOAD DUP1 PUSH2 0x9E9 JUMPI PUSH1 0x40 MLOAD PUSH3 0x461BCD PUSH1 0xE5 SHL DUP2 MSTORE PUSH1 0x20 PUSH1 0x4 DUP3 ADD MSTORE PUSH1 0x1B PUSH1 0x24 DUP3 ADD MSTORE PUSH32 0x436F756E7465723A2064656372656D656E74206F766572666C6F770000000000 PUSH1 0x44 DUP3 ADD MSTORE PUSH1 0x64 ADD PUSH2 0xF3 JUMP JUMPDEST PUSH1 0x0 NOT ADD SWAP1 SSTORE JUMP JUMPDEST PUSH1 0x0 SLOAD PUSH1 0x1 PUSH1 0x1 PUSH1 0xA0 SHL SUB AND CALLER EQ PUSH2 0x82E JUMPI PUSH1 0x40 MLOAD PUSH3 0x461BCD PUSH1 0xE5 SHL DUP2 MSTORE PUSH1 0x20 PUSH1 0x4 DUP3 ADD DUP2 SWAP1 MSTORE PUSH1 0x24 DUP3 ADD MSTORE PUSH32 0x4F776E61626C653A2063616C6C6572206973206E6F7420746865206F776E6572 PUSH1 0x44 DUP3 ADD MSTORE PUSH1 0x64 ADD PUSH2 0xF3 JUMP JUMPDEST PUSH1 0x0 DUP1 SLOAD PUSH1 0x1 PUSH1 0x1 PUSH1 0xA0 SHL SUB DUP4 DUP2 AND PUSH1 0x1 PUSH1 0x1 PUSH1 0xA0 SHL SUB NOT DUP4 AND DUP2 OR DUP5 SSTORE PUSH1 0x40 MLOAD SWAP2 SWAP1 SWAP3 AND SWAP3 DUP4 SWAP2 PUSH32 0x8BE0079C531659141344CD1FD0A4F28419497F9722A3DAAFE3B4186F6B6457E0 SWAP2 SWAP1 LOG3 POP POP JUMP JUMPDEST PUSH4 0x4E487B71 PUSH1 0xE0 SHL PUSH1 0x0 MSTORE PUSH1 0x11 PUSH1 0x4 MSTORE PUSH1 0x24 PUSH1 0x0 REVERT JUMPDEST PUSH1 0x0 DUP3 PUSH2 0xACE JUMPI PUSH4 0x4E487B71 PUSH1 0xE0 SHL PUSH1 0x0 MSTORE PUSH1 0x12 PUSH1 0x4 MSTORE PUSH1 0x24 PUSH1 0x0 REVERT JUMPDEST POP DIV SWAP1 JUMP JUMPDEST PUSH4 0x4E487B71 PUSH1 0xE0 SHL PUSH1 0x0 MSTORE PUSH1 0x41 PUSH1 0x4 MSTORE PUSH1 0x24 PUSH1 0x0 REVERT JUMPDEST PUSH1 0x40 MLOAD PUSH1 0x1F DUP3 ADD PUSH1 0x1F NOT AND DUP2 ADD PUSH8 0xFFFFFFFFFFFFFFFF DUP2 GT DUP3 DUP3 LT OR ISZERO PUSH2 0xB12 JUMPI PUSH2 0xB12 PUSH2 0xAD3 JUMP JUMPDEST PUSH1 0x40 MSTORE SWAP2 SWAP1 POP JUMP JUMPDEST PUSH1 0x0 PUSH1 0x20 DUP1 DUP4 DUP6 SUB SLT ISZERO PUSH2 0xB2D JUMPI PUSH1 0x0 DUP1 REVERT JUMPDEST DUP3 MLOAD PUSH8 0xFFFFFFFFFFFFFFFF DUP1 DUP3 GT ISZERO PUSH2 0xB45 JUMPI PUSH1 0x0 DUP1 REVERT JUMPDEST DUP2 DUP6 ADD SWAP2 POP DUP6 PUSH1 0x1F DUP4 ADD SLT PUSH2 0xB59 JUMPI PUSH1 0x0 DUP1 REVERT JUMPDEST DUP2 MLOAD DUP2 DUP2 GT ISZERO PUSH2 0xB6B JUMPI PUSH2 0xB6B PUSH2 0xAD3 JUMP JUMPDEST DUP1 PUSH1 0x5 SHL SWAP2 POP PUSH2 0xB7C DUP5 DUP4 ADD PUSH2 0xAE9 JUMP JUMPDEST DUP2 DUP2 MSTORE SWAP2 DUP4 ADD DUP5 ADD SWAP2 DUP5 DUP2 ADD SWAP1 DUP9 DUP5 GT ISZERO PUSH2 0xB96 JUMPI PUSH1 0x0 DUP1 REVERT JUMPDEST SWAP4 DUP6 ADD SWAP4 JUMPDEST DUP4 DUP6 LT ISZERO PUSH2 0xBB4 JUMPI DUP5 MLOAD DUP3 MSTORE SWAP4 DUP6 ADD SWAP4 SWAP1 DUP6 ADD SWAP1 PUSH2 0xB9B JUMP JUMPDEST SWAP9 SWAP8 POP POP POP POP POP POP POP POP JUMP JUMPDEST PUSH4 0x4E487B71 PUSH1 0xE0 SHL PUSH1 0x0 MSTORE PUSH1 0x32 PUSH1 0x4 MSTORE PUSH1 0x24 PUSH1 0x0 REVERT JUMPDEST DUP1 DUP3 ADD DUP1 DUP3 GT ISZERO PUSH2 0xBE9 JUMPI PUSH2 0xBE9 PUSH2 0xA9B JUMP JUMPDEST SWAP3 SWAP2 POP POP JUMP JUMPDEST DUP1 CALLDATALOAD PUSH1 0x1 PUSH1 0x1 PUSH1 0xA0 SHL SUB DUP2 AND DUP2 EQ PUSH2 0xC06 JUMPI PUSH1 0x0 DUP1 REVERT JUMPDEST SWAP2 SWAP1 POP JUMP JUMPDEST PUSH1 0x0 DUP1 PUSH1 0x0 DUP1 PUSH1 0x80 DUP6 DUP8 SUB SLT ISZERO PUSH2 0xC21 JUMPI PUSH1 0x0 DUP1 REVERT JUMPDEST PUSH2 0xC2A DUP6 PUSH2 0xBEF JUMP JUMPDEST SWAP4 POP PUSH1 0x20 PUSH2 0xC39 DUP2 DUP8 ADD PUSH2 0xBEF JUMP JUMPDEST SWAP4 POP PUSH1 0x40 DUP7 ADD CALLDATALOAD SWAP3 POP PUSH1 0x60 DUP7 ADD CALLDATALOAD PUSH8 0xFFFFFFFFFFFFFFFF DUP1 DUP3 GT ISZERO PUSH2 0xC5D JUMPI PUSH1 0x0 DUP1 REVERT JUMPDEST DUP2 DUP9 ADD SWAP2 POP DUP9 PUSH1 0x1F DUP4 ADD SLT PUSH2 0xC71 JUMPI PUSH1 0x0 DUP1 REVERT JUMPDEST DUP2 CALLDATALOAD DUP2 DUP2 GT ISZERO PUSH2 0xC83 JUMPI PUSH2 0xC83 PUSH2 0xAD3 JUMP JUMPDEST PUSH2 0xC95 PUSH1 0x1F DUP3 ADD PUSH1 0x1F NOT AND DUP6 ADD PUSH2 0xAE9 JUMP JUMPDEST SWAP2 POP DUP1 DUP3 MSTORE DUP10 DUP5 DUP3 DUP6 ADD ADD GT ISZERO PUSH2 0xCAB JUMPI PUSH1 0x0 DUP1 REVERT JUMPDEST DUP1 DUP5 DUP5 ADD DUP6 DUP5 ADD CALLDATACOPY PUSH1 0x0 DUP5 DUP3 DUP5 ADD ADD MSTORE POP DUP1 SWAP4 POP POP POP POP SWAP3 SWAP6 SWAP2 SWAP5 POP SWAP3 POP JUMP JUMPDEST PUSH1 0x0 PUSH1 0x20 DUP3 DUP5 SUB SLT ISZERO PUSH2 0xCDD JUMPI PUSH1 0x0 DUP1 REVERT JUMPDEST POP CALLDATALOAD SWAP2 SWAP1 POP JUMP JUMPDEST PUSH1 0x0 PUSH1 0x20 DUP3 DUP5 SUB SLT ISZERO PUSH2 0xCF6 JUMPI PUSH1 0x0 DUP1 REVERT JUMPDEST PUSH2 0xCFF DUP3 PUSH2 0xBEF JUMP JUMPDEST SWAP4 SWAP3 POP POP POP JUMP JUMPDEST PUSH1 0x20 DUP1 DUP3 MSTORE DUP3 MLOAD DUP3 DUP3 ADD DUP2 SWAP1 MSTORE PUSH1 0x0 SWAP2 SWAP1 DUP5 DUP3 ADD SWAP1 PUSH1 0x40 DUP6 ADD SWAP1 DUP5 JUMPDEST DUP2 DUP2 LT ISZERO PUSH2 0xD3E JUMPI DUP4 MLOAD DUP4 MSTORE SWAP3 DUP5 ADD SWAP3 SWAP2 DUP5 ADD SWAP2 PUSH1 0x1 ADD PUSH2 0xD22 JUMP JUMPDEST POP SWAP1 SWAP7 SWAP6 POP POP POP POP POP POP JUMP JUMPDEST PUSH1 0x0 PUSH1 0x1 DUP3 ADD PUSH2 0xD5C JUMPI PUSH2 0xD5C PUSH2 0xA9B JUMP JUMPDEST POP PUSH1 0x1 ADD SWAP1 JUMP INVALID LOG2 PUSH5 0x6970667358 0x22 SLT KECCAK256 SLT PUSH28 0xAE5853E737DC785E178F60043749EAA834BA36B92E28C5E76C5714B2 0xE3 0x28 PUSH5 0x736F6C6343 STOP ADDMOD GT STOP CALLER "
				},
				"gasEstimates": {
					"creation": {
						"codeDepositCost": "696200",
						"executionCost": "infinite",
						"totalCost": "infinite"
					},
					"external": {
						"calculateRewards(uint256)": "2482",
						"claim(uint256)": "infinite",
						"getTokensStakedByUser(address)": "infinite",
						"onERC721Received(address,address,uint256,bytes)": "infinite",
						"owner()": "2331",
						"renounceOwnership()": "infinite",
						"rewards(uint256)": "2526",
						"setNftContact(address)": "26845",
						"stake(uint256)": "infinite",
						"tokenOwnerOf(uint256)": "2588",
						"transferOwnership(address)": "28399",
						"unstake(uint256)": "infinite"
					}
				},
				"methodIdentifiers": {
					"calculateRewards(uint256)": "d3ea4350",
					"claim(uint256)": "379607f5",
					"getTokensStakedByUser(address)": "55ed9d53",
					"onERC721Received(address,address,uint256,bytes)": "150b7a02",
					"owner()": "8da5cb5b",
					"renounceOwnership()": "715018a6",
					"rewards(uint256)": "f301af42",
					"setNftContact(address)": "fd71c650",
					"stake(uint256)": "a694fc3a",
					"tokenOwnerOf(uint256)": "89885a59",
					"transferOwnership(address)": "f2fde38b",
					"unstake(uint256)": "2e17de78"
				}
			},
			"storageLayout": {
				"storage": [
					{
						"astId": 7,
						"contract": "contracts/NFTStaking.sol:SacredTemple",
						"label": "_owner",
						"offset": 0,
						"slot": "0",
						"type": "t_address"
					},
					{
						"astId": 123,
						"contract": "contracts/NFTStaking.sol:SacredTemple",
						"label": "_status",
						"offset": 0,
						"slot": "1",
						"type": "t_uint256"
					},
					{
						"astId": 445,
						"contract": "contracts/NFTStaking.sol:SacredTemple",
						"label": "_nftContract",
						"offset": 0,
						"slot": "2",
						"type": "t_address"
					},
					{
						"astId": 452,
						"contract": "contracts/NFTStaking.sol:SacredTemple",
						"label": "_stakedNFTCounter",
						"offset": 0,
						"slot": "3",
						"type": "t_struct(Counter)341_storage"
					},
					{
						"astId": 478,
						"contract": "contracts/NFTStaking.sol:SacredTemple",
						"label": "tokenOwnerOf",
						"offset": 0,
						"slot": "4",
						"type": "t_mapping(t_uint256,t_address)"
					},
					{
						"astId": 482,
						"contract": "contracts/NFTStaking.sol:SacredTemple",
						"label": "rewards",
						"offset": 0,
						"slot": "5",
						"type": "t_mapping(t_uint256,t_uint256)"
					},
					{
						"astId": 485,
						"contract": "contracts/NFTStaking.sol:SacredTemple",
						"label": "tokenStaked",
						"offset": 0,
						"slot": "6",
						"type": "t_array(t_uint256)dyn_storage"
					}
				],
				"types": {
					"t_address": {
						"encoding": "inplace",
						"label": "address",
						"numberOfBytes": "20"
					},
					"t_array(t_uint256)dyn_storage": {
						"base": "t_uint256",
						"encoding": "dynamic_array",
						"label": "uint256[]",
						"numberOfBytes": "32"
					},
					"t_mapping(t_uint256,t_address)": {
						"encoding": "mapping",
						"key": "t_uint256",
						"label": "mapping(uint256 => address)",
						"numberOfBytes": "32",
						"value": "t_address"
					},
					"t_mapping(t_uint256,t_uint256)": {
						"encoding": "mapping",
						"key": "t_uint256",
						"label": "mapping(uint256 => uint256)",
						"numberOfBytes": "32",
						"value": "t_uint256"
					},
					"t_struct(Counter)341_storage": {
						"encoding": "inplace",
						"label": "struct Counters.Counter",
						"members": [
							{
								"astId": 340,
								"contract": "contracts/NFTStaking.sol:SacredTemple",
								"label": "_value",
								"offset": 0,
								"slot": "0",
								"type": "t_uint256"
							}
						],
						"numberOfBytes": "32"
					},
					"t_uint256": {
						"encoding": "inplace",
						"label": "uint256",
						"numberOfBytes": "32"
					}
				}
			},
			"userdoc": {
				"kind": "user",
				"methods": {},
				"version": 1
			}
		}
	}
}