{
	"contracts/NFTStaking.sol": {
		"SacredTemple": {
			"abi": [
				{
					"inputs": [
						{
							"internalType": "address",
							"name": "nftContract_",
							"type": "address"
						}
					],
					"stateMutability": "nonpayable",
					"type": "constructor"
				},
				{
					"anonymous": false,
					"inputs": [
						{
							"indexed": false,
							"internalType": "address",
							"name": "owner",
							"type": "address"
						},
						{
							"indexed": false,
							"internalType": "uint256",
							"name": "amount",
							"type": "uint256"
						}
					],
					"name": "Claimed",
					"type": "event"
				},
				{
					"anonymous": false,
					"inputs": [
						{
							"indexed": false,
							"internalType": "address",
							"name": "owner",
							"type": "address"
						},
						{
							"indexed": false,
							"internalType": "uint256",
							"name": "tokenId",
							"type": "uint256"
						},
						{
							"indexed": false,
							"internalType": "uint256",
							"name": "value",
							"type": "uint256"
						}
					],
					"name": "NFTStaked",
					"type": "event"
				},
				{
					"anonymous": false,
					"inputs": [
						{
							"indexed": false,
							"internalType": "address",
							"name": "owner",
							"type": "address"
						},
						{
							"indexed": false,
							"internalType": "uint256",
							"name": "tokenId",
							"type": "uint256"
						},
						{
							"indexed": false,
							"internalType": "uint256",
							"name": "value",
							"type": "uint256"
						}
					],
					"name": "NFTUnstaked",
					"type": "event"
				},
				{
					"anonymous": false,
					"inputs": [
						{
							"indexed": true,
							"internalType": "address",
							"name": "previousOwner",
							"type": "address"
						},
						{
							"indexed": true,
							"internalType": "address",
							"name": "newOwner",
							"type": "address"
						}
					],
					"name": "OwnershipTransferred",
					"type": "event"
				},
				{
					"inputs": [
						{
							"internalType": "uint256",
							"name": "tokenId",
							"type": "uint256"
						}
					],
					"name": "claim",
					"outputs": [],
					"stateMutability": "nonpayable",
					"type": "function"
				},
				{
					"inputs": [
						{
							"internalType": "address",
							"name": "",
							"type": "address"
						},
						{
							"internalType": "address",
							"name": "",
							"type": "address"
						},
						{
							"internalType": "uint256",
							"name": "",
							"type": "uint256"
						},
						{
							"internalType": "bytes",
							"name": "",
							"type": "bytes"
						}
					],
					"name": "onERC721Received",
					"outputs": [
						{
							"internalType": "bytes4",
							"name": "",
							"type": "bytes4"
						}
					],
					"stateMutability": "nonpayable",
					"type": "function"
				},
				{
					"inputs": [],
					"name": "owner",
					"outputs": [
						{
							"internalType": "address",
							"name": "",
							"type": "address"
						}
					],
					"stateMutability": "view",
					"type": "function"
				},
				{
					"inputs": [],
					"name": "renounceOwnership",
					"outputs": [],
					"stateMutability": "nonpayable",
					"type": "function"
				},
				{
					"inputs": [
						{
							"internalType": "uint256",
							"name": "",
							"type": "uint256"
						}
					],
					"name": "rewards",
					"outputs": [
						{
							"internalType": "uint256",
							"name": "",
							"type": "uint256"
						}
					],
					"stateMutability": "view",
					"type": "function"
				},
				{
					"inputs": [
						{
							"internalType": "address",
							"name": "nftContract_",
							"type": "address"
						}
					],
					"name": "setNftContact",
					"outputs": [],
					"stateMutability": "nonpayable",
					"type": "function"
				},
				{
					"inputs": [
						{
							"internalType": "uint256",
							"name": "tokenId",
							"type": "uint256"
						}
					],
					"name": "stake",
					"outputs": [],
					"stateMutability": "nonpayable",
					"type": "function"
				},
				{
					"inputs": [
						{
							"internalType": "uint256",
							"name": "",
							"type": "uint256"
						}
					],
					"name": "tokenOwnedBy",
					"outputs": [
						{
							"internalType": "address",
							"name": "",
							"type": "address"
						}
					],
					"stateMutability": "view",
					"type": "function"
				},
				{
					"inputs": [
						{
							"internalType": "address",
							"name": "newOwner",
							"type": "address"
						}
					],
					"name": "transferOwnership",
					"outputs": [],
					"stateMutability": "nonpayable",
					"type": "function"
				},
				{
					"inputs": [
						{
							"internalType": "uint256",
							"name": "tokenId",
							"type": "uint256"
						}
					],
					"name": "unstake",
					"outputs": [],
					"stateMutability": "nonpayable",
					"type": "function"
				},
				{
					"stateMutability": "payable",
					"type": "receive"
				}
			],
			"devdoc": {
				"kind": "dev",
				"methods": {
					"onERC721Received(address,address,uint256,bytes)": {
						"details": "See {IERC721Receiver-onERC721Received}. Always returns `IERC721Receiver.onERC721Received.selector`."
					},
					"owner()": {
						"details": "Returns the address of the current owner."
					},
					"renounceOwnership()": {
						"details": "Leaves the contract without owner. It will not be possible to call `onlyOwner` functions anymore. Can only be called by the current owner. NOTE: Renouncing ownership will leave the contract without an owner, thereby removing any functionality that is only available to the owner."
					},
					"transferOwnership(address)": {
						"details": "Transfers ownership of the contract to a new account (`newOwner`). Can only be called by the current owner."
					}
				},
				"version": 1
			},
			"evm": {
				"assembly": "    /* \"contracts/NFTStaking.sol\":491:2342  contract SacredTemple is Ownable, ERC721Holder, ReentrancyGuard {... */\n  mstore(0x40, 0x80)\n    /* \"contracts/NFTStaking.sol\":998:1077  constructor (address nftContract_) {... */\n  callvalue\n  dup1\n  iszero\n  tag_1\n  jumpi\n  0x00\n  dup1\n  revert\ntag_1:\n  pop\n  mload(0x40)\n  sub(codesize, bytecodeSize)\n  dup1\n  bytecodeSize\n  dup4\n  codecopy\n  dup2\n  add\n  0x40\n  dup2\n  swap1\n  mstore\n  tag_2\n  swap2\n  tag_3\n  jump\t// in\ntag_2:\n    /* \"@openzeppelin/contracts@4.7.3/access/Ownable.sol\":936:968  _transferOwnership(_msgSender()) */\n  tag_8\n    /* \"@openzeppelin/contracts@4.7.3/utils/Context.sol\":719:729  msg.sender */\n  caller\n    /* \"@openzeppelin/contracts@4.7.3/access/Ownable.sol\":936:954  _transferOwnership */\n  tag_11\n    /* \"@openzeppelin/contracts@4.7.3/access/Ownable.sol\":936:968  _transferOwnership(_msgSender()) */\n  jump\t// in\ntag_8:\n    /* \"@openzeppelin/contracts@4.7.3/security/ReentrancyGuard.sol\":1701:1702  1 */\n  0x01\n    /* \"@openzeppelin/contracts@4.7.3/security/ReentrancyGuard.sol\":1806:1828  _status = _NOT_ENTERED */\n  dup1\n  sstore\n    /* \"contracts/NFTStaking.sol\":1043:1055  _nftContract */\n  0x02\n    /* \"contracts/NFTStaking.sol\":1043:1070  _nftContract = nftContract_ */\n  dup1\n  sload\n  not(sub(shl(0xa0, 0x01), 0x01))\n  and\n  sub(shl(0xa0, 0x01), 0x01)\n  swap3\n  swap1\n  swap3\n  and\n  swap2\n  swap1\n  swap2\n  or\n  swap1\n  sstore\n    /* \"contracts/NFTStaking.sol\":491:2342  contract SacredTemple is Ownable, ERC721Holder, ReentrancyGuard {... */\n  jump(tag_17)\n    /* \"@openzeppelin/contracts@4.7.3/access/Ownable.sol\":2433:2620  function _transferOwnership(address newOwner) internal virtual {... */\ntag_11:\n    /* \"@openzeppelin/contracts@4.7.3/access/Ownable.sol\":2506:2522  address oldOwner */\n  0x00\n    /* \"@openzeppelin/contracts@4.7.3/access/Ownable.sol\":2525:2531  _owner */\n  dup1\n  sload\n  sub(shl(0xa0, 0x01), 0x01)\n    /* \"@openzeppelin/contracts@4.7.3/access/Ownable.sol\":2541:2558  _owner = newOwner */\n  dup4\n  dup2\n  and\n  not(sub(shl(0xa0, 0x01), 0x01))\n  dup4\n  and\n  dup2\n  or\n  dup5\n  sstore\n    /* \"@openzeppelin/contracts@4.7.3/access/Ownable.sol\":2573:2613  OwnershipTransferred(oldOwner, newOwner) */\n  mload(0x40)\n    /* \"@openzeppelin/contracts@4.7.3/access/Ownable.sol\":2525:2531  _owner */\n  swap2\n  swap1\n  swap3\n  and\n  swap3\n  dup4\n  swap2\n    /* \"@openzeppelin/contracts@4.7.3/access/Ownable.sol\":2573:2613  OwnershipTransferred(oldOwner, newOwner) */\n  0x8be0079c531659141344cd1fd0a4f28419497f9722a3daafe3b4186f6b6457e0\n  swap2\n    /* \"@openzeppelin/contracts@4.7.3/access/Ownable.sol\":2506:2522  address oldOwner */\n  swap1\n    /* \"@openzeppelin/contracts@4.7.3/access/Ownable.sol\":2573:2613  OwnershipTransferred(oldOwner, newOwner) */\n  log3\n    /* \"@openzeppelin/contracts@4.7.3/access/Ownable.sol\":2496:2620  {... */\n  pop\n    /* \"@openzeppelin/contracts@4.7.3/access/Ownable.sol\":2433:2620  function _transferOwnership(address newOwner) internal virtual {... */\n  pop\n  jump\t// out\n    /* \"#utility.yul\":14:304   */\ntag_3:\n    /* \"#utility.yul\":84:90   */\n  0x00\n    /* \"#utility.yul\":137:139   */\n  0x20\n    /* \"#utility.yul\":125:134   */\n  dup3\n    /* \"#utility.yul\":116:123   */\n  dup5\n    /* \"#utility.yul\":112:135   */\n  sub\n    /* \"#utility.yul\":108:140   */\n  slt\n    /* \"#utility.yul\":105:157   */\n  iszero\n  tag_19\n  jumpi\n    /* \"#utility.yul\":153:154   */\n  0x00\n    /* \"#utility.yul\":150:151   */\n  dup1\n    /* \"#utility.yul\":143:155   */\n  revert\n    /* \"#utility.yul\":105:157   */\ntag_19:\n    /* \"#utility.yul\":179:195   */\n  dup2\n  mload\n  sub(shl(0xa0, 0x01), 0x01)\n    /* \"#utility.yul\":224:255   */\n  dup2\n  and\n    /* \"#utility.yul\":214:256   */\n  dup2\n  eq\n    /* \"#utility.yul\":204:274   */\n  tag_20\n  jumpi\n    /* \"#utility.yul\":270:271   */\n  0x00\n    /* \"#utility.yul\":267:268   */\n  dup1\n    /* \"#utility.yul\":260:272   */\n  revert\n    /* \"#utility.yul\":204:274   */\ntag_20:\n    /* \"#utility.yul\":293:298   */\n  swap4\n    /* \"#utility.yul\":14:304   */\n  swap3\n  pop\n  pop\n  pop\n  jump\t// out\ntag_17:\n    /* \"contracts/NFTStaking.sol\":491:2342  contract SacredTemple is Ownable, ERC721Holder, ReentrancyGuard {... */\n  dataSize(sub_0)\n  dup1\n  dataOffset(sub_0)\n  0x00\n  codecopy\n  0x00\n  return\nstop\n\nsub_0: assembly {\n        /* \"contracts/NFTStaking.sol\":491:2342  contract SacredTemple is Ownable, ERC721Holder, ReentrancyGuard {... */\n      mstore(0x40, 0x80)\n      jumpi(tag_1, lt(calldatasize, 0x04))\n      shr(0xe0, calldataload(0x00))\n      dup1\n      0x8da5cb5b\n      gt\n      tag_13\n      jumpi\n      dup1\n      0x8da5cb5b\n      eq\n      tag_8\n      jumpi\n      dup1\n      0xa694fc3a\n      eq\n      tag_9\n      jumpi\n      dup1\n      0xf2fde38b\n      eq\n      tag_10\n      jumpi\n      dup1\n      0xf301af42\n      eq\n      tag_11\n      jumpi\n      dup1\n      0xfd71c650\n      eq\n      tag_12\n      jumpi\n      0x00\n      dup1\n      revert\n    tag_13:\n      dup1\n      0x150b7a02\n      eq\n      tag_3\n      jumpi\n      dup1\n      0x2e17de78\n      eq\n      tag_4\n      jumpi\n      dup1\n      0x379607f5\n      eq\n      tag_5\n      jumpi\n      dup1\n      0x715018a6\n      eq\n      tag_6\n      jumpi\n      dup1\n      0x8488cc41\n      eq\n      tag_7\n      jumpi\n      0x00\n      dup1\n      revert\n    tag_1:\n      jumpi(tag_2, calldatasize)\n        /* \"contracts/NFTStaking.sol\":2028:2048  uint256 sharePerEach */\n      0x00\n        /* \"contracts/NFTStaking.sol\":2063:2090  _stakedNFTCounter.current() */\n      tag_16\n        /* \"contracts/NFTStaking.sol\":2063:2080  _stakedNFTCounter */\n      0x03\n        /* \"@openzeppelin/contracts@4.7.3/utils/Counters.sol\":918:932  counter._value */\n      sload\n      swap1\n        /* \"@openzeppelin/contracts@4.7.3/utils/Counters.sol\":827:939  function current(Counter storage counter) internal view returns (uint256) {... */\n      jump\n        /* \"contracts/NFTStaking.sol\":2063:2090  _stakedNFTCounter.current() */\n    tag_16:\n        /* \"contracts/NFTStaking.sol\":2051:2090  msg.value / _stakedNFTCounter.current() */\n      tag_18\n      swap1\n        /* \"contracts/NFTStaking.sol\":2051:2060  msg.value */\n      callvalue\n        /* \"contracts/NFTStaking.sol\":2051:2090  msg.value / _stakedNFTCounter.current() */\n      tag_19\n      jump\t// in\n    tag_18:\n        /* \"contracts/NFTStaking.sol\":2136:2148  _nftContract */\n      sload(0x02)\n        /* \"contracts/NFTStaking.sol\":2132:2178  NFT(_nftContract).walletOfOwner(address(this)) */\n      mload(0x40)\n      shl(0xe8, 0x438b63)\n      dup2\n      mstore\n        /* \"contracts/NFTStaking.sol\":2172:2176  this */\n      address\n        /* \"contracts/NFTStaking.sol\":2132:2178  NFT(_nftContract).walletOfOwner(address(this)) */\n      0x04\n      dup3\n      add\n        /* \"#utility.yul\":382:433   */\n      mstore\n        /* \"contracts/NFTStaking.sol\":2028:2090  uint256 sharePerEach = msg.value / _stakedNFTCounter.current() */\n      swap2\n      swap3\n      pop\n        /* \"contracts/NFTStaking.sol\":2100:2129  uint256[] memory tokensStaked */\n      0x00\n      swap2\n      sub(shl(0xa0, 0x01), 0x01)\n        /* \"contracts/NFTStaking.sol\":2136:2148  _nftContract */\n      swap1\n      swap2\n      and\n      swap1\n        /* \"contracts/NFTStaking.sol\":2132:2163  NFT(_nftContract).walletOfOwner */\n      0x438b6300\n      swap1\n        /* \"#utility.yul\":355:373   */\n      0x24\n      add\n        /* \"contracts/NFTStaking.sol\":2132:2178  NFT(_nftContract).walletOfOwner(address(this)) */\n      0x00\n      mload(0x40)\n      dup1\n      dup4\n      sub\n      dup2\n      dup7\n      gas\n      staticcall\n      iszero\n      dup1\n      iszero\n      tag_23\n      jumpi\n      returndatasize\n      0x00\n      dup1\n      returndatacopy\n      revert(0x00, returndatasize)\n    tag_23:\n      pop\n      pop\n      pop\n      pop\n      mload(0x40)\n      returndatasize\n      0x00\n      dup3\n      returndatacopy\n      0x1f\n      returndatasize\n      swap1\n      dup2\n      add\n      not(0x1f)\n      and\n      dup3\n      add\n      0x40\n      mstore\n      tag_24\n      swap2\n      swap1\n      dup2\n      add\n      swap1\n      tag_25\n      jump\t// in\n    tag_24:\n        /* \"contracts/NFTStaking.sol\":2100:2178  uint256[] memory tokensStaked = NFT(_nftContract).walletOfOwner(address(this)) */\n      swap1\n      pop\n        /* \"contracts/NFTStaking.sol\":2201:2210  uint256 i */\n      0x00\n        /* \"contracts/NFTStaking.sol\":2197:2334  for(uint256 i = 0; i < tokensStaked.length;){... */\n    tag_26:\n        /* \"contracts/NFTStaking.sol\":2220:2232  tokensStaked */\n      dup2\n        /* \"contracts/NFTStaking.sol\":2220:2239  tokensStaked.length */\n      mload\n        /* \"contracts/NFTStaking.sol\":2216:2217  i */\n      dup2\n        /* \"contracts/NFTStaking.sol\":2216:2239  i < tokensStaked.length */\n      lt\n        /* \"contracts/NFTStaking.sol\":2197:2334  for(uint256 i = 0; i < tokensStaked.length;){... */\n      iszero\n      tag_27\n      jumpi\n        /* \"contracts/NFTStaking.sol\":2282:2294  sharePerEach */\n      dup3\n        /* \"contracts/NFTStaking.sol\":2255:2262  rewards */\n      0x05\n        /* \"contracts/NFTStaking.sol\":2255:2278  rewards[tokenStaked[i]] */\n      0x00\n        /* \"contracts/NFTStaking.sol\":2263:2274  tokenStaked */\n      0x06\n        /* \"contracts/NFTStaking.sol\":2275:2276  i */\n      dup5\n        /* \"contracts/NFTStaking.sol\":2263:2277  tokenStaked[i] */\n      dup2\n      sload\n      dup2\n      lt\n      tag_30\n      jumpi\n      tag_30\n      tag_31\n      jump\t// in\n    tag_30:\n      swap1\n      0x00\n      mstore\n      keccak256(0x00, 0x20)\n      add\n      sload\n        /* \"contracts/NFTStaking.sol\":2255:2278  rewards[tokenStaked[i]] */\n      dup2\n      mstore\n      0x20\n      add\n      swap1\n      dup2\n      mstore\n      0x20\n      add\n      0x00\n      keccak256\n      0x00\n        /* \"contracts/NFTStaking.sol\":2255:2294  rewards[tokenStaked[i]] += sharePerEach */\n      dup3\n      dup3\n      sload\n      tag_33\n      swap2\n      swap1\n      tag_34\n      jump\t// in\n    tag_33:\n      swap1\n      swap2\n      sstore\n      pop\n      pop\n        /* \"contracts/NFTStaking.sol\":2319:2322  ++i */\n      0x01\n      add\n        /* \"contracts/NFTStaking.sol\":2197:2334  for(uint256 i = 0; i < tokensStaked.length;){... */\n      jump(tag_26)\n    tag_27:\n      stop\n        /* \"contracts/NFTStaking.sol\":491:2342  contract SacredTemple is Ownable, ERC721Holder, ReentrancyGuard {... */\n    tag_2:\n      0x00\n      dup1\n      revert\n        /* \"@openzeppelin/contracts@4.7.3/token/ERC721/utils/ERC721Holder.sol\":588:788  function onERC721Received(... */\n    tag_3:\n      callvalue\n      dup1\n      iszero\n      tag_35\n      jumpi\n      0x00\n      dup1\n      revert\n    tag_35:\n      pop\n      tag_36\n      tag_37\n      calldatasize\n      0x04\n      tag_38\n      jump\t// in\n    tag_37:\n      shl(0xe1, 0x0a85bd01)\n      swap5\n      swap4\n      pop\n      pop\n      pop\n      pop\n      jump\n    tag_36:\n      mload(0x40)\n      not(sub(shl(0xe0, 0x01), 0x01))\n        /* \"#utility.yul\":3481:3514   */\n      swap1\n      swap2\n      and\n        /* \"#utility.yul\":3463:3515   */\n      dup2\n      mstore\n        /* \"#utility.yul\":3451:3453   */\n      0x20\n        /* \"#utility.yul\":3436:3454   */\n      add\n        /* \"@openzeppelin/contracts@4.7.3/token/ERC721/utils/ERC721Holder.sol\":588:788  function onERC721Received(... */\n    tag_40:\n      mload(0x40)\n      dup1\n      swap2\n      sub\n      swap1\n      return\n        /* \"contracts/NFTStaking.sol\":1453:1909  function unstake(uint256 tokenId) nonReentrant external {... */\n    tag_4:\n      callvalue\n      dup1\n      iszero\n      tag_42\n      jumpi\n      0x00\n      dup1\n      revert\n    tag_42:\n      pop\n      tag_27\n      tag_44\n      calldatasize\n      0x04\n      tag_45\n      jump\t// in\n    tag_44:\n      tag_46\n      jump\t// in\n        /* \"contracts/NFTStaking.sol\":1915:1985  function claim(uint256 tokenId) nonReentrant external {... */\n    tag_5:\n      callvalue\n      dup1\n      iszero\n      tag_47\n      jumpi\n      0x00\n      dup1\n      revert\n    tag_47:\n      pop\n      tag_27\n      tag_49\n      calldatasize\n      0x04\n      tag_45\n      jump\t// in\n    tag_49:\n      tag_50\n      jump\t// in\n        /* \"@openzeppelin/contracts@4.7.3/access/Ownable.sol\":1831:1932  function renounceOwnership() public virtual onlyOwner {... */\n    tag_6:\n      callvalue\n      dup1\n      iszero\n      tag_51\n      jumpi\n      0x00\n      dup1\n      revert\n    tag_51:\n      pop\n      tag_27\n      tag_53\n      jump\t// in\n        /* \"contracts/NFTStaking.sol\":867:915  mapping (uint256 => address) public tokenOwnedBy */\n    tag_7:\n      callvalue\n      dup1\n      iszero\n      tag_54\n      jumpi\n      0x00\n      dup1\n      revert\n    tag_54:\n      pop\n      tag_55\n      tag_56\n      calldatasize\n      0x04\n      tag_45\n      jump\t// in\n    tag_56:\n      mstore(0x20, 0x04)\n      0x00\n      swap1\n      dup2\n      mstore\n      0x40\n      swap1\n      keccak256\n      sload\n      sub(shl(0xa0, 0x01), 0x01)\n      and\n      dup2\n      jump\n    tag_55:\n      mload(0x40)\n      sub(shl(0xa0, 0x01), 0x01)\n        /* \"#utility.yul\":400:432   */\n      swap1\n      swap2\n      and\n        /* \"#utility.yul\":382:433   */\n      dup2\n      mstore\n        /* \"#utility.yul\":370:372   */\n      0x20\n        /* \"#utility.yul\":355:373   */\n      add\n        /* \"contracts/NFTStaking.sol\":867:915  mapping (uint256 => address) public tokenOwnedBy */\n      tag_40\n        /* \"#utility.yul\":236:439   */\n      jump\n        /* \"@openzeppelin/contracts@4.7.3/access/Ownable.sol\":1201:1286  function owner() public view virtual returns (address) {... */\n    tag_8:\n      callvalue\n      dup1\n      iszero\n      tag_59\n      jumpi\n      0x00\n      dup1\n      revert\n    tag_59:\n      pop\n        /* \"@openzeppelin/contracts@4.7.3/access/Ownable.sol\":1247:1254  address */\n      0x00\n        /* \"@openzeppelin/contracts@4.7.3/access/Ownable.sol\":1273:1279  _owner */\n      sload\n      sub(shl(0xa0, 0x01), 0x01)\n      and\n        /* \"@openzeppelin/contracts@4.7.3/access/Ownable.sol\":1201:1286  function owner() public view virtual returns (address) {... */\n      jump(tag_55)\n        /* \"contracts/NFTStaking.sol\":1197:1447  function stake(uint256 tokenId) external {... */\n    tag_9:\n      callvalue\n      dup1\n      iszero\n      tag_63\n      jumpi\n      0x00\n      dup1\n      revert\n    tag_63:\n      pop\n      tag_27\n      tag_65\n      calldatasize\n      0x04\n      tag_45\n      jump\t// in\n    tag_65:\n      tag_66\n      jump\t// in\n        /* \"@openzeppelin/contracts@4.7.3/access/Ownable.sol\":2081:2279  function transferOwnership(address newOwner) public virtual onlyOwner {... */\n    tag_10:\n      callvalue\n      dup1\n      iszero\n      tag_67\n      jumpi\n      0x00\n      dup1\n      revert\n    tag_67:\n      pop\n      tag_27\n      tag_69\n      calldatasize\n      0x04\n      tag_70\n      jump\t// in\n    tag_69:\n      tag_71\n      jump\t// in\n        /* \"contracts/NFTStaking.sol\":921:964  mapping (uint256 => uint256) public rewards */\n    tag_11:\n      callvalue\n      dup1\n      iszero\n      tag_72\n      jumpi\n      0x00\n      dup1\n      revert\n    tag_72:\n      pop\n      tag_73\n      tag_74\n      calldatasize\n      0x04\n      tag_45\n      jump\t// in\n    tag_74:\n      mstore(0x20, 0x05)\n      0x00\n      swap1\n      dup2\n      mstore\n      0x40\n      swap1\n      keccak256\n      sload\n      dup2\n      jump\n    tag_73:\n      mload(0x40)\n        /* \"#utility.yul\":4048:4073   */\n      swap1\n      dup2\n      mstore\n        /* \"#utility.yul\":4036:4038   */\n      0x20\n        /* \"#utility.yul\":4021:4039   */\n      add\n        /* \"contracts/NFTStaking.sol\":921:964  mapping (uint256 => uint256) public rewards */\n      tag_40\n        /* \"#utility.yul\":3902:4079   */\n      jump\n        /* \"contracts/NFTStaking.sol\":1083:1191  function setNftContact(address nftContract_) external onlyOwner {... */\n    tag_12:\n      callvalue\n      dup1\n      iszero\n      tag_78\n      jumpi\n      0x00\n      dup1\n      revert\n    tag_78:\n      pop\n      tag_27\n      tag_80\n      calldatasize\n      0x04\n      tag_70\n      jump\t// in\n    tag_80:\n      tag_81\n      jump\t// in\n        /* \"contracts/NFTStaking.sol\":1453:1909  function unstake(uint256 tokenId) nonReentrant external {... */\n    tag_46:\n        /* \"@openzeppelin/contracts@4.7.3/security/ReentrancyGuard.sol\":1744:1745  2 */\n      0x02\n        /* \"@openzeppelin/contracts@4.7.3/security/ReentrancyGuard.sol\":2325:2332  _status */\n      sload(0x01)\n        /* \"@openzeppelin/contracts@4.7.3/security/ReentrancyGuard.sol\":2325:2344  _status != _ENTERED */\n      sub\n        /* \"@openzeppelin/contracts@4.7.3/security/ReentrancyGuard.sol\":2317:2380  require(_status != _ENTERED, \"ReentrancyGuard: reentrant call\") */\n      tag_85\n      jumpi\n      mload(0x40)\n      shl(0xe5, 0x461bcd)\n      dup2\n      mstore\n        /* \"#utility.yul\":4286:4288   */\n      0x20\n        /* \"@openzeppelin/contracts@4.7.3/security/ReentrancyGuard.sol\":2317:2380  require(_status != _ENTERED, \"ReentrancyGuard: reentrant call\") */\n      0x04\n      dup3\n      add\n        /* \"#utility.yul\":4268:4289   */\n      mstore\n        /* \"#utility.yul\":4325:4327   */\n      0x1f\n        /* \"#utility.yul\":4305:4323   */\n      0x24\n      dup3\n      add\n        /* \"#utility.yul\":4298:4328   */\n      mstore\n        /* \"#utility.yul\":4364:4397   */\n      0x5265656e7472616e637947756172643a207265656e7472616e742063616c6c00\n        /* \"#utility.yul\":4344:4362   */\n      0x44\n      dup3\n      add\n        /* \"#utility.yul\":4337:4398   */\n      mstore\n        /* \"#utility.yul\":4415:4433   */\n      0x64\n      add\n        /* \"@openzeppelin/contracts@4.7.3/security/ReentrancyGuard.sol\":2317:2380  require(_status != _ENTERED, \"ReentrancyGuard: reentrant call\") */\n    tag_86:\n      mload(0x40)\n      dup1\n      swap2\n      sub\n      swap1\n      revert\n    tag_85:\n        /* \"@openzeppelin/contracts@4.7.3/security/ReentrancyGuard.sol\":1744:1745  2 */\n      0x02\n        /* \"@openzeppelin/contracts@4.7.3/security/ReentrancyGuard.sol\":2455:2462  _status */\n      0x01\n        /* \"@openzeppelin/contracts@4.7.3/security/ReentrancyGuard.sol\":2455:2473  _status = _ENTERED */\n      sstore\n        /* \"contracts/NFTStaking.sol\":1527:1548  tokenOwnedBy[tokenId] */\n      0x00\n      dup2\n      dup2\n      mstore\n        /* \"contracts/NFTStaking.sol\":1527:1539  tokenOwnedBy */\n      0x04\n        /* \"contracts/NFTStaking.sol\":1527:1548  tokenOwnedBy[tokenId] */\n      0x20\n      mstore\n      0x40\n      swap1\n      keccak256\n      sload\n      sub(shl(0xa0, 0x01), 0x01)\n      and\n        /* \"contracts/NFTStaking.sol\":1552:1562  msg.sender */\n      caller\n        /* \"contracts/NFTStaking.sol\":1527:1562  tokenOwnedBy[tokenId] == msg.sender */\n      eq\n        /* \"contracts/NFTStaking.sol\":1519:1589  require(tokenOwnedBy[tokenId] == msg.sender, \"You are not the owner.\") */\n      tag_89\n      jumpi\n      mload(0x40)\n      shl(0xe5, 0x461bcd)\n      dup2\n      mstore\n        /* \"#utility.yul\":4646:4648   */\n      0x20\n        /* \"contracts/NFTStaking.sol\":1519:1589  require(tokenOwnedBy[tokenId] == msg.sender, \"You are not the owner.\") */\n      0x04\n      dup3\n      add\n        /* \"#utility.yul\":4628:4649   */\n      mstore\n        /* \"#utility.yul\":4685:4687   */\n      0x16\n        /* \"#utility.yul\":4665:4683   */\n      0x24\n      dup3\n      add\n        /* \"#utility.yul\":4658:4688   */\n      mstore\n      shl(0x51, 0x2cb7ba9030b932903737ba103a34329037bbb732b917)\n        /* \"#utility.yul\":4704:4722   */\n      0x44\n      dup3\n      add\n        /* \"#utility.yul\":4697:4749   */\n      mstore\n        /* \"#utility.yul\":4766:4784   */\n      0x64\n      add\n        /* \"contracts/NFTStaking.sol\":1519:1589  require(tokenOwnedBy[tokenId] == msg.sender, \"You are not the owner.\") */\n      tag_86\n        /* \"#utility.yul\":4444:4790   */\n      jump\n        /* \"contracts/NFTStaking.sol\":1519:1589  require(tokenOwnedBy[tokenId] == msg.sender, \"You are not the owner.\") */\n    tag_89:\n        /* \"contracts/NFTStaking.sol\":1606:1627  tokenOwnedBy[tokenId] */\n      0x00\n      dup2\n      dup2\n      mstore\n        /* \"contracts/NFTStaking.sol\":1606:1618  tokenOwnedBy */\n      0x04\n        /* \"contracts/NFTStaking.sol\":1606:1627  tokenOwnedBy[tokenId] */\n      0x20\n      mstore\n      0x40\n      swap1\n      keccak256\n        /* \"contracts/NFTStaking.sol\":1599:1627  delete tokenOwnedBy[tokenId] */\n      dup1\n      sload\n      not(sub(shl(0xa0, 0x01), 0x01))\n      and\n      swap1\n      sstore\n        /* \"contracts/NFTStaking.sol\":1637:1666  _stakedNFTCounter.decrement() */\n      tag_92\n        /* \"contracts/NFTStaking.sol\":1637:1654  _stakedNFTCounter */\n      0x03\n        /* \"contracts/NFTStaking.sol\":1637:1664  _stakedNFTCounter.decrement */\n      tag_93\n        /* \"contracts/NFTStaking.sol\":1637:1666  _stakedNFTCounter.decrement() */\n      jump\t// in\n    tag_92:\n        /* \"contracts/NFTStaking.sol\":1677:1689  bool success */\n      0x00\n        /* \"contracts/NFTStaking.sol\":1703:1724  tokenOwnedBy[tokenId] */\n      dup2\n      dup2\n      mstore\n        /* \"contracts/NFTStaking.sol\":1703:1715  tokenOwnedBy */\n      0x04\n        /* \"contracts/NFTStaking.sol\":1703:1724  tokenOwnedBy[tokenId] */\n      0x20\n      swap1\n      dup2\n      mstore\n      0x40\n      dup1\n      dup4\n      keccak256\n      sload\n        /* \"contracts/NFTStaking.sol\":1738:1745  rewards */\n      0x05\n        /* \"contracts/NFTStaking.sol\":1738:1754  rewards[tokenId] */\n      swap1\n      swap3\n      mstore\n      dup1\n      dup4\n      keccak256\n      sload\n        /* \"contracts/NFTStaking.sol\":1695:1759  payable(tokenOwnedBy[tokenId]).call{value: rewards[tokenId]}(\"\") */\n      swap1\n      mload\n      sub(shl(0xa0, 0x01), 0x01)\n        /* \"contracts/NFTStaking.sol\":1703:1724  tokenOwnedBy[tokenId] */\n      swap1\n      swap3\n      and\n      swap2\n        /* \"contracts/NFTStaking.sol\":1677:1689  bool success */\n      dup4\n        /* \"contracts/NFTStaking.sol\":1695:1759  payable(tokenOwnedBy[tokenId]).call{value: rewards[tokenId]}(\"\") */\n      dup2\n        /* \"contracts/NFTStaking.sol\":1677:1689  bool success */\n      dup2\n        /* \"contracts/NFTStaking.sol\":1695:1759  payable(tokenOwnedBy[tokenId]).call{value: rewards[tokenId]}(\"\") */\n      dup2\n        /* \"contracts/NFTStaking.sol\":1738:1754  rewards[tokenId] */\n      dup6\n        /* \"contracts/NFTStaking.sol\":1703:1724  tokenOwnedBy[tokenId] */\n      dup8\n        /* \"contracts/NFTStaking.sol\":1695:1759  payable(tokenOwnedBy[tokenId]).call{value: rewards[tokenId]}(\"\") */\n      gas\n      call\n      swap3\n      pop\n      pop\n      pop\n      returndatasize\n      dup1\n      0x00\n      dup2\n      eq\n      tag_98\n      jumpi\n      mload(0x40)\n      swap2\n      pop\n      and(add(returndatasize, 0x3f), not(0x1f))\n      dup3\n      add\n      0x40\n      mstore\n      returndatasize\n      dup3\n      mstore\n      returndatasize\n      0x00\n      0x20\n      dup5\n      add\n      returndatacopy\n      jump(tag_97)\n    tag_98:\n      0x60\n      swap2\n      pop\n    tag_97:\n      pop\n        /* \"contracts/NFTStaking.sol\":1676:1759  (bool success, ) = payable(tokenOwnedBy[tokenId]).call{value: rewards[tokenId]}(\"\") */\n      pop\n      swap1\n      pop\n        /* \"contracts/NFTStaking.sol\":1777:1784  success */\n      dup1\n        /* \"contracts/NFTStaking.sol\":1769:1785  require(success) */\n      tag_99\n      jumpi\n      0x00\n      dup1\n      revert\n    tag_99:\n        /* \"contracts/NFTStaking.sol\":1802:1818  rewards[tokenId] */\n      0x00\n      dup3\n      dup2\n      mstore\n        /* \"contracts/NFTStaking.sol\":1802:1809  rewards */\n      0x05\n        /* \"contracts/NFTStaking.sol\":1802:1818  rewards[tokenId] */\n      0x20\n      mstore\n      0x40\n      dup1\n      dup3\n      keccak256\n        /* \"contracts/NFTStaking.sol\":1795:1818  delete rewards[tokenId] */\n      swap2\n      swap1\n      swap2\n      sstore\n        /* \"contracts/NFTStaking.sol\":1836:1848  _nftContract */\n      sload(0x02)\n        /* \"contracts/NFTStaking.sol\":1828:1902  IERC721(_nftContract).safeTransferFrom(address(this), msg.sender, tokenId) */\n      swap1\n      mload\n      shl(0xe1, 0x21421707)\n      dup2\n      mstore\n        /* \"contracts/NFTStaking.sol\":1875:1879  this */\n      address\n        /* \"contracts/NFTStaking.sol\":1828:1902  IERC721(_nftContract).safeTransferFrom(address(this), msg.sender, tokenId) */\n      0x04\n      dup3\n      add\n        /* \"#utility.yul\":5245:5279   */\n      mstore\n        /* \"contracts/NFTStaking.sol\":1882:1892  msg.sender */\n      caller\n        /* \"#utility.yul\":5295:5313   */\n      0x24\n      dup3\n      add\n        /* \"#utility.yul\":5288:5331   */\n      mstore\n        /* \"#utility.yul\":5347:5365   */\n      0x44\n      dup2\n      add\n        /* \"#utility.yul\":5340:5374   */\n      dup5\n      swap1\n      mstore\n      sub(shl(0xa0, 0x01), 0x01)\n        /* \"contracts/NFTStaking.sol\":1836:1848  _nftContract */\n      swap1\n      swap2\n      and\n      swap1\n        /* \"contracts/NFTStaking.sol\":1828:1866  IERC721(_nftContract).safeTransferFrom */\n      0x42842e0e\n      swap1\n        /* \"#utility.yul\":5180:5198   */\n      0x64\n      add\n        /* \"contracts/NFTStaking.sol\":1828:1902  IERC721(_nftContract).safeTransferFrom(address(this), msg.sender, tokenId) */\n      0x00\n      mload(0x40)\n      dup1\n      dup4\n      sub\n      dup2\n      0x00\n      dup8\n      dup1\n      extcodesize\n      iszero\n      dup1\n      iszero\n      tag_102\n      jumpi\n      0x00\n      dup1\n      revert\n    tag_102:\n      pop\n      gas\n      call\n      iszero\n      dup1\n      iszero\n      tag_104\n      jumpi\n      returndatasize\n      0x00\n      dup1\n      returndatacopy\n      revert(0x00, returndatasize)\n    tag_104:\n      pop\n      pop\n        /* \"@openzeppelin/contracts@4.7.3/security/ReentrancyGuard.sol\":1701:1702  1 */\n      0x01\n        /* \"@openzeppelin/contracts@4.7.3/security/ReentrancyGuard.sol\":2628:2650  _status = _NOT_ENTERED */\n      dup1\n      sstore\n      pop\n      pop\n      pop\n      pop\n        /* \"contracts/NFTStaking.sol\":1453:1909  function unstake(uint256 tokenId) nonReentrant external {... */\n      jump\t// out\n        /* \"contracts/NFTStaking.sol\":1915:1985  function claim(uint256 tokenId) nonReentrant external {... */\n    tag_50:\n        /* \"@openzeppelin/contracts@4.7.3/security/ReentrancyGuard.sol\":1744:1745  2 */\n      0x02\n        /* \"@openzeppelin/contracts@4.7.3/security/ReentrancyGuard.sol\":2325:2332  _status */\n      sload(0x01)\n        /* \"@openzeppelin/contracts@4.7.3/security/ReentrancyGuard.sol\":2325:2344  _status != _ENTERED */\n      sub\n        /* \"@openzeppelin/contracts@4.7.3/security/ReentrancyGuard.sol\":2317:2380  require(_status != _ENTERED, \"ReentrancyGuard: reentrant call\") */\n      tag_106\n      jumpi\n      mload(0x40)\n      shl(0xe5, 0x461bcd)\n      dup2\n      mstore\n        /* \"#utility.yul\":4286:4288   */\n      0x20\n        /* \"@openzeppelin/contracts@4.7.3/security/ReentrancyGuard.sol\":2317:2380  require(_status != _ENTERED, \"ReentrancyGuard: reentrant call\") */\n      0x04\n      dup3\n      add\n        /* \"#utility.yul\":4268:4289   */\n      mstore\n        /* \"#utility.yul\":4325:4327   */\n      0x1f\n        /* \"#utility.yul\":4305:4323   */\n      0x24\n      dup3\n      add\n        /* \"#utility.yul\":4298:4328   */\n      mstore\n        /* \"#utility.yul\":4364:4397   */\n      0x5265656e7472616e637947756172643a207265656e7472616e742063616c6c00\n        /* \"#utility.yul\":4344:4362   */\n      0x44\n      dup3\n      add\n        /* \"#utility.yul\":4337:4398   */\n      mstore\n        /* \"#utility.yul\":4415:4433   */\n      0x64\n      add\n        /* \"@openzeppelin/contracts@4.7.3/security/ReentrancyGuard.sol\":2317:2380  require(_status != _ENTERED, \"ReentrancyGuard: reentrant call\") */\n      tag_86\n        /* \"#utility.yul\":4084:4439   */\n      jump\n        /* \"@openzeppelin/contracts@4.7.3/security/ReentrancyGuard.sol\":2317:2380  require(_status != _ENTERED, \"ReentrancyGuard: reentrant call\") */\n    tag_106:\n      pop\n        /* \"@openzeppelin/contracts@4.7.3/security/ReentrancyGuard.sol\":2455:2462  _status */\n      0x01\n        /* \"@openzeppelin/contracts@4.7.3/security/ReentrancyGuard.sol\":2628:2650  _status = _NOT_ENTERED */\n      dup1\n      sstore\n        /* \"contracts/NFTStaking.sol\":1915:1985  function claim(uint256 tokenId) nonReentrant external {... */\n      jump\t// out\n        /* \"@openzeppelin/contracts@4.7.3/access/Ownable.sol\":1831:1932  function renounceOwnership() public virtual onlyOwner {... */\n    tag_53:\n        /* \"@openzeppelin/contracts@4.7.3/access/Ownable.sol\":1094:1107  _checkOwner() */\n      tag_110\n        /* \"@openzeppelin/contracts@4.7.3/access/Ownable.sol\":1094:1105  _checkOwner */\n      tag_111\n        /* \"@openzeppelin/contracts@4.7.3/access/Ownable.sol\":1094:1107  _checkOwner() */\n      jump\t// in\n    tag_110:\n        /* \"@openzeppelin/contracts@4.7.3/access/Ownable.sol\":1895:1925  _transferOwnership(address(0)) */\n      tag_113\n        /* \"@openzeppelin/contracts@4.7.3/access/Ownable.sol\":1922:1923  0 */\n      0x00\n        /* \"@openzeppelin/contracts@4.7.3/access/Ownable.sol\":1895:1913  _transferOwnership */\n      tag_114\n        /* \"@openzeppelin/contracts@4.7.3/access/Ownable.sol\":1895:1925  _transferOwnership(address(0)) */\n      jump\t// in\n    tag_113:\n        /* \"@openzeppelin/contracts@4.7.3/access/Ownable.sol\":1831:1932  function renounceOwnership() public virtual onlyOwner {... */\n      jump\t// out\n        /* \"contracts/NFTStaking.sol\":1197:1447  function stake(uint256 tokenId) external {... */\n    tag_66:\n        /* \"contracts/NFTStaking.sol\":1256:1268  _nftContract */\n      sload(0x02)\n        /* \"contracts/NFTStaking.sol\":1248:1322  IERC721(_nftContract).safeTransferFrom(msg.sender, address(this), tokenId) */\n      mload(0x40)\n      shl(0xe1, 0x21421707)\n      dup2\n      mstore\n        /* \"contracts/NFTStaking.sol\":1287:1297  msg.sender */\n      caller\n        /* \"contracts/NFTStaking.sol\":1248:1322  IERC721(_nftContract).safeTransferFrom(msg.sender, address(this), tokenId) */\n      0x04\n      dup3\n      add\n        /* \"#utility.yul\":5245:5279   */\n      mstore\n        /* \"contracts/NFTStaking.sol\":1307:1311  this */\n      address\n        /* \"#utility.yul\":5295:5313   */\n      0x24\n      dup3\n      add\n        /* \"#utility.yul\":5288:5331   */\n      mstore\n        /* \"#utility.yul\":5347:5365   */\n      0x44\n      dup2\n      add\n        /* \"#utility.yul\":5340:5374   */\n      dup4\n      swap1\n      mstore\n      sub(shl(0xa0, 0x01), 0x01)\n        /* \"contracts/NFTStaking.sol\":1256:1268  _nftContract */\n      swap1\n      swap2\n      and\n      swap1\n        /* \"contracts/NFTStaking.sol\":1248:1286  IERC721(_nftContract).safeTransferFrom */\n      0x42842e0e\n      swap1\n        /* \"#utility.yul\":5180:5198   */\n      0x64\n      add\n        /* \"contracts/NFTStaking.sol\":1248:1322  IERC721(_nftContract).safeTransferFrom(msg.sender, address(this), tokenId) */\n      0x00\n      mload(0x40)\n      dup1\n      dup4\n      sub\n      dup2\n      0x00\n      dup8\n      dup1\n      extcodesize\n      iszero\n      dup1\n      iszero\n      tag_118\n      jumpi\n      0x00\n      dup1\n      revert\n    tag_118:\n      pop\n      gas\n      call\n      iszero\n      dup1\n      iszero\n      tag_120\n      jumpi\n      returndatasize\n      0x00\n      dup1\n      returndatacopy\n      revert(0x00, returndatasize)\n    tag_120:\n      pop\n      pop\n      pop\n        /* \"contracts/NFTStaking.sol\":1332:1353  tokenOwnedBy[tokenId] */\n      0x00\n      dup3\n      dup2\n      mstore\n        /* \"contracts/NFTStaking.sol\":1332:1344  tokenOwnedBy */\n      0x04\n        /* \"contracts/NFTStaking.sol\":1332:1353  tokenOwnedBy[tokenId] */\n      0x20\n      mstore\n      0x40\n      dup2\n      keccak256\n        /* \"contracts/NFTStaking.sol\":1332:1366  tokenOwnedBy[tokenId] = msg.sender */\n      dup1\n      sload\n      not(sub(shl(0xa0, 0x01), 0x01))\n      and\n        /* \"contracts/NFTStaking.sol\":1356:1366  msg.sender */\n      caller\n        /* \"contracts/NFTStaking.sol\":1332:1366  tokenOwnedBy[tokenId] = msg.sender */\n      or\n      swap1\n      sstore\n        /* \"contracts/NFTStaking.sol\":1376:1387  tokenStaked */\n      0x06\n        /* \"contracts/NFTStaking.sol\":1376:1401  tokenStaked.push(tokenId) */\n      dup1\n      sload\n        /* \"contracts/NFTStaking.sol\":1332:1366  tokenOwnedBy[tokenId] = msg.sender */\n      0x01\n        /* \"contracts/NFTStaking.sol\":1376:1401  tokenStaked.push(tokenId) */\n      dup2\n      add\n      dup3\n      sstore\n      swap2\n      mstore\n      0xf652222313e28459528d920b65115c16c04f3efc82aaedc97be59f3f377c0d3f\n      add\n      dup3\n      swap1\n      sstore\n      pop\n        /* \"contracts/NFTStaking.sol\":1411:1440  _stakedNFTCounter.increment() */\n      tag_122\n        /* \"contracts/NFTStaking.sol\":1411:1428  _stakedNFTCounter */\n      0x03\n        /* \"@openzeppelin/contracts@4.7.3/utils/Counters.sol\":1032:1051  counter._value += 1 */\n      dup1\n      sload\n        /* \"@openzeppelin/contracts@4.7.3/utils/Counters.sol\":1050:1051  1 */\n      0x01\n        /* \"@openzeppelin/contracts@4.7.3/utils/Counters.sol\":1032:1051  counter._value += 1 */\n      add\n      swap1\n      sstore\n        /* \"@openzeppelin/contracts@4.7.3/utils/Counters.sol\":945:1068  function increment(Counter storage counter) internal {... */\n      jump\n        /* \"contracts/NFTStaking.sol\":1411:1440  _stakedNFTCounter.increment() */\n    tag_122:\n        /* \"contracts/NFTStaking.sol\":1197:1447  function stake(uint256 tokenId) external {... */\n      pop\n      jump\t// out\n        /* \"@openzeppelin/contracts@4.7.3/access/Ownable.sol\":2081:2279  function transferOwnership(address newOwner) public virtual onlyOwner {... */\n    tag_71:\n        /* \"@openzeppelin/contracts@4.7.3/access/Ownable.sol\":1094:1107  _checkOwner() */\n      tag_125\n        /* \"@openzeppelin/contracts@4.7.3/access/Ownable.sol\":1094:1105  _checkOwner */\n      tag_111\n        /* \"@openzeppelin/contracts@4.7.3/access/Ownable.sol\":1094:1107  _checkOwner() */\n      jump\t// in\n    tag_125:\n      sub(shl(0xa0, 0x01), 0x01)\n        /* \"@openzeppelin/contracts@4.7.3/access/Ownable.sol\":2169:2191  newOwner != address(0) */\n      dup2\n      and\n        /* \"@openzeppelin/contracts@4.7.3/access/Ownable.sol\":2161:2234  require(newOwner != address(0), \"Ownable: new owner is the zero address\") */\n      tag_127\n      jumpi\n      mload(0x40)\n      shl(0xe5, 0x461bcd)\n      dup2\n      mstore\n        /* \"#utility.yul\":5587:5589   */\n      0x20\n        /* \"@openzeppelin/contracts@4.7.3/access/Ownable.sol\":2161:2234  require(newOwner != address(0), \"Ownable: new owner is the zero address\") */\n      0x04\n      dup3\n      add\n        /* \"#utility.yul\":5569:5590   */\n      mstore\n        /* \"#utility.yul\":5626:5628   */\n      0x26\n        /* \"#utility.yul\":5606:5624   */\n      0x24\n      dup3\n      add\n        /* \"#utility.yul\":5599:5629   */\n      mstore\n        /* \"#utility.yul\":5665:5699   */\n      0x4f776e61626c653a206e6577206f776e657220697320746865207a65726f2061\n        /* \"#utility.yul\":5645:5663   */\n      0x44\n      dup3\n      add\n        /* \"#utility.yul\":5638:5700   */\n      mstore\n      shl(0xd0, 0x646472657373)\n        /* \"#utility.yul\":5716:5734   */\n      0x64\n      dup3\n      add\n        /* \"#utility.yul\":5709:5745   */\n      mstore\n        /* \"#utility.yul\":5762:5781   */\n      0x84\n      add\n        /* \"@openzeppelin/contracts@4.7.3/access/Ownable.sol\":2161:2234  require(newOwner != address(0), \"Ownable: new owner is the zero address\") */\n      tag_86\n        /* \"#utility.yul\":5385:5787   */\n      jump\n        /* \"@openzeppelin/contracts@4.7.3/access/Ownable.sol\":2161:2234  require(newOwner != address(0), \"Ownable: new owner is the zero address\") */\n    tag_127:\n        /* \"@openzeppelin/contracts@4.7.3/access/Ownable.sol\":2244:2272  _transferOwnership(newOwner) */\n      tag_122\n        /* \"@openzeppelin/contracts@4.7.3/access/Ownable.sol\":2263:2271  newOwner */\n      dup2\n        /* \"@openzeppelin/contracts@4.7.3/access/Ownable.sol\":2244:2262  _transferOwnership */\n      tag_114\n        /* \"@openzeppelin/contracts@4.7.3/access/Ownable.sol\":2244:2272  _transferOwnership(newOwner) */\n      jump\t// in\n        /* \"contracts/NFTStaking.sol\":1083:1191  function setNftContact(address nftContract_) external onlyOwner {... */\n    tag_81:\n        /* \"@openzeppelin/contracts@4.7.3/access/Ownable.sol\":1094:1107  _checkOwner() */\n      tag_132\n        /* \"@openzeppelin/contracts@4.7.3/access/Ownable.sol\":1094:1105  _checkOwner */\n      tag_111\n        /* \"@openzeppelin/contracts@4.7.3/access/Ownable.sol\":1094:1107  _checkOwner() */\n      jump\t// in\n    tag_132:\n        /* \"contracts/NFTStaking.sol\":1157:1169  _nftContract */\n      0x02\n        /* \"contracts/NFTStaking.sol\":1157:1184  _nftContract = nftContract_ */\n      dup1\n      sload\n      not(sub(shl(0xa0, 0x01), 0x01))\n      and\n      sub(shl(0xa0, 0x01), 0x01)\n      swap3\n      swap1\n      swap3\n      and\n      swap2\n      swap1\n      swap2\n      or\n      swap1\n      sstore\n        /* \"contracts/NFTStaking.sol\":1083:1191  function setNftContact(address nftContract_) external onlyOwner {... */\n      jump\t// out\n        /* \"@openzeppelin/contracts@4.7.3/utils/Counters.sol\":1074:1303  function decrement(Counter storage counter) internal {... */\n    tag_93:\n        /* \"@openzeppelin/contracts@4.7.3/utils/Counters.sol\":1153:1167  counter._value */\n      dup1\n      sload\n        /* \"@openzeppelin/contracts@4.7.3/utils/Counters.sol\":1185:1194  value > 0 */\n      dup1\n        /* \"@openzeppelin/contracts@4.7.3/utils/Counters.sol\":1177:1226  require(value > 0, \"Counter: decrement overflow\") */\n      tag_135\n      jumpi\n      mload(0x40)\n      shl(0xe5, 0x461bcd)\n      dup2\n      mstore\n        /* \"#utility.yul\":5994:5996   */\n      0x20\n        /* \"@openzeppelin/contracts@4.7.3/utils/Counters.sol\":1177:1226  require(value > 0, \"Counter: decrement overflow\") */\n      0x04\n      dup3\n      add\n        /* \"#utility.yul\":5976:5997   */\n      mstore\n        /* \"#utility.yul\":6033:6035   */\n      0x1b\n        /* \"#utility.yul\":6013:6031   */\n      0x24\n      dup3\n      add\n        /* \"#utility.yul\":6006:6036   */\n      mstore\n        /* \"#utility.yul\":6072:6101   */\n      0x436f756e7465723a2064656372656d656e74206f766572666c6f770000000000\n        /* \"#utility.yul\":6052:6070   */\n      0x44\n      dup3\n      add\n        /* \"#utility.yul\":6045:6102   */\n      mstore\n        /* \"#utility.yul\":6119:6137   */\n      0x64\n      add\n        /* \"@openzeppelin/contracts@4.7.3/utils/Counters.sol\":1177:1226  require(value > 0, \"Counter: decrement overflow\") */\n      tag_86\n        /* \"#utility.yul\":5792:6143   */\n      jump\n        /* \"@openzeppelin/contracts@4.7.3/utils/Counters.sol\":1177:1226  require(value > 0, \"Counter: decrement overflow\") */\n    tag_135:\n      not(0x00)\n        /* \"@openzeppelin/contracts@4.7.3/utils/Counters.sol\":1277:1286  value - 1 */\n      add\n        /* \"@openzeppelin/contracts@4.7.3/utils/Counters.sol\":1260:1286  counter._value = value - 1 */\n      swap1\n      sstore\n        /* \"@openzeppelin/contracts@4.7.3/utils/Counters.sol\":1074:1303  function decrement(Counter storage counter) internal {... */\n      jump\t// out\n        /* \"@openzeppelin/contracts@4.7.3/access/Ownable.sol\":1359:1489  function _checkOwner() internal view virtual {... */\n    tag_111:\n        /* \"@openzeppelin/contracts@4.7.3/access/Ownable.sol\":1247:1254  address */\n      0x00\n        /* \"@openzeppelin/contracts@4.7.3/access/Ownable.sol\":1273:1279  _owner */\n      sload\n      sub(shl(0xa0, 0x01), 0x01)\n      and\n        /* \"@openzeppelin/contracts@4.7.3/utils/Context.sol\":719:729  msg.sender */\n      caller\n        /* \"@openzeppelin/contracts@4.7.3/access/Ownable.sol\":1422:1445  owner() == _msgSender() */\n      eq\n        /* \"@openzeppelin/contracts@4.7.3/access/Ownable.sol\":1414:1482  require(owner() == _msgSender(), \"Ownable: caller is not the owner\") */\n      tag_113\n      jumpi\n      mload(0x40)\n      shl(0xe5, 0x461bcd)\n      dup2\n      mstore\n        /* \"#utility.yul\":6350:6352   */\n      0x20\n        /* \"@openzeppelin/contracts@4.7.3/access/Ownable.sol\":1414:1482  require(owner() == _msgSender(), \"Ownable: caller is not the owner\") */\n      0x04\n      dup3\n      add\n        /* \"#utility.yul\":6332:6353   */\n      dup2\n      swap1\n      mstore\n        /* \"#utility.yul\":6369:6387   */\n      0x24\n      dup3\n      add\n        /* \"#utility.yul\":6362:6392   */\n      mstore\n        /* \"#utility.yul\":6428:6462   */\n      0x4f776e61626c653a2063616c6c6572206973206e6f7420746865206f776e6572\n        /* \"#utility.yul\":6408:6426   */\n      0x44\n      dup3\n      add\n        /* \"#utility.yul\":6401:6463   */\n      mstore\n        /* \"#utility.yul\":6480:6498   */\n      0x64\n      add\n        /* \"@openzeppelin/contracts@4.7.3/access/Ownable.sol\":1414:1482  require(owner() == _msgSender(), \"Ownable: caller is not the owner\") */\n      tag_86\n        /* \"#utility.yul\":6148:6504   */\n      jump\n        /* \"@openzeppelin/contracts@4.7.3/access/Ownable.sol\":2433:2620  function _transferOwnership(address newOwner) internal virtual {... */\n    tag_114:\n        /* \"@openzeppelin/contracts@4.7.3/access/Ownable.sol\":2506:2522  address oldOwner */\n      0x00\n        /* \"@openzeppelin/contracts@4.7.3/access/Ownable.sol\":2525:2531  _owner */\n      dup1\n      sload\n      sub(shl(0xa0, 0x01), 0x01)\n        /* \"@openzeppelin/contracts@4.7.3/access/Ownable.sol\":2541:2558  _owner = newOwner */\n      dup4\n      dup2\n      and\n      not(sub(shl(0xa0, 0x01), 0x01))\n      dup4\n      and\n      dup2\n      or\n      dup5\n      sstore\n        /* \"@openzeppelin/contracts@4.7.3/access/Ownable.sol\":2573:2613  OwnershipTransferred(oldOwner, newOwner) */\n      mload(0x40)\n        /* \"@openzeppelin/contracts@4.7.3/access/Ownable.sol\":2525:2531  _owner */\n      swap2\n      swap1\n      swap3\n      and\n      swap3\n      dup4\n      swap2\n        /* \"@openzeppelin/contracts@4.7.3/access/Ownable.sol\":2573:2613  OwnershipTransferred(oldOwner, newOwner) */\n      0x8be0079c531659141344cd1fd0a4f28419497f9722a3daafe3b4186f6b6457e0\n      swap2\n        /* \"@openzeppelin/contracts@4.7.3/access/Ownable.sol\":2506:2522  address oldOwner */\n      swap1\n        /* \"@openzeppelin/contracts@4.7.3/access/Ownable.sol\":2573:2613  OwnershipTransferred(oldOwner, newOwner) */\n      log3\n        /* \"@openzeppelin/contracts@4.7.3/access/Ownable.sol\":2496:2620  {... */\n      pop\n        /* \"@openzeppelin/contracts@4.7.3/access/Ownable.sol\":2433:2620  function _transferOwnership(address newOwner) internal virtual {... */\n      pop\n      jump\t// out\n        /* \"#utility.yul\":14:231   */\n    tag_19:\n        /* \"#utility.yul\":54:55   */\n      0x00\n        /* \"#utility.yul\":80:81   */\n      dup3\n        /* \"#utility.yul\":70:202   */\n      tag_153\n      jumpi\n        /* \"#utility.yul\":124:134   */\n      0x4e487b71\n        /* \"#utility.yul\":119:122   */\n      0xe0\n        /* \"#utility.yul\":115:135   */\n      shl\n        /* \"#utility.yul\":112:113   */\n      0x00\n        /* \"#utility.yul\":105:136   */\n      mstore\n        /* \"#utility.yul\":159:163   */\n      0x12\n        /* \"#utility.yul\":156:157   */\n      0x04\n        /* \"#utility.yul\":149:164   */\n      mstore\n        /* \"#utility.yul\":187:191   */\n      0x24\n        /* \"#utility.yul\":184:185   */\n      0x00\n        /* \"#utility.yul\":177:192   */\n      revert\n        /* \"#utility.yul\":70:202   */\n    tag_153:\n      pop\n        /* \"#utility.yul\":216:225   */\n      div\n      swap1\n        /* \"#utility.yul\":14:231   */\n      jump\t// out\n        /* \"#utility.yul\":444:571   */\n    tag_148:\n        /* \"#utility.yul\":505:515   */\n      0x4e487b71\n        /* \"#utility.yul\":500:503   */\n      0xe0\n        /* \"#utility.yul\":496:516   */\n      shl\n        /* \"#utility.yul\":493:494   */\n      0x00\n        /* \"#utility.yul\":486:517   */\n      mstore\n        /* \"#utility.yul\":536:540   */\n      0x41\n        /* \"#utility.yul\":533:534   */\n      0x04\n        /* \"#utility.yul\":526:541   */\n      mstore\n        /* \"#utility.yul\":560:564   */\n      0x24\n        /* \"#utility.yul\":557:558   */\n      0x00\n        /* \"#utility.yul\":550:565   */\n      revert\n        /* \"#utility.yul\":576:851   */\n    tag_149:\n        /* \"#utility.yul\":647:649   */\n      0x40\n        /* \"#utility.yul\":641:650   */\n      mload\n        /* \"#utility.yul\":712:714   */\n      0x1f\n        /* \"#utility.yul\":693:706   */\n      dup3\n      add\n      not(0x1f)\n        /* \"#utility.yul\":689:716   */\n      and\n        /* \"#utility.yul\":677:717   */\n      dup2\n      add\n        /* \"#utility.yul\":747:765   */\n      0xffffffffffffffff\n        /* \"#utility.yul\":732:766   */\n      dup2\n      gt\n        /* \"#utility.yul\":768:790   */\n      dup3\n      dup3\n      lt\n        /* \"#utility.yul\":729:791   */\n      or\n        /* \"#utility.yul\":726:814   */\n      iszero\n      tag_158\n      jumpi\n        /* \"#utility.yul\":794:812   */\n      tag_158\n      tag_148\n      jump\t// in\n    tag_158:\n        /* \"#utility.yul\":830:832   */\n      0x40\n        /* \"#utility.yul\":823:845   */\n      mstore\n        /* \"#utility.yul\":576:851   */\n      swap2\n      swap1\n      pop\n      jump\t// out\n        /* \"#utility.yul\":856:1792   */\n    tag_25:\n        /* \"#utility.yul\":951:957   */\n      0x00\n        /* \"#utility.yul\":982:984   */\n      0x20\n        /* \"#utility.yul\":1025:1027   */\n      dup1\n        /* \"#utility.yul\":1013:1022   */\n      dup4\n        /* \"#utility.yul\":1004:1011   */\n      dup6\n        /* \"#utility.yul\":1000:1023   */\n      sub\n        /* \"#utility.yul\":996:1028   */\n      slt\n        /* \"#utility.yul\":993:1045   */\n      iszero\n      tag_160\n      jumpi\n        /* \"#utility.yul\":1041:1042   */\n      0x00\n        /* \"#utility.yul\":1038:1039   */\n      dup1\n        /* \"#utility.yul\":1031:1043   */\n      revert\n        /* \"#utility.yul\":993:1045   */\n    tag_160:\n        /* \"#utility.yul\":1074:1083   */\n      dup3\n        /* \"#utility.yul\":1068:1084   */\n      mload\n        /* \"#utility.yul\":1103:1121   */\n      0xffffffffffffffff\n        /* \"#utility.yul\":1144:1146   */\n      dup1\n        /* \"#utility.yul\":1136:1142   */\n      dup3\n        /* \"#utility.yul\":1133:1147   */\n      gt\n        /* \"#utility.yul\":1130:1164   */\n      iszero\n      tag_161\n      jumpi\n        /* \"#utility.yul\":1160:1161   */\n      0x00\n        /* \"#utility.yul\":1157:1158   */\n      dup1\n        /* \"#utility.yul\":1150:1162   */\n      revert\n        /* \"#utility.yul\":1130:1164   */\n    tag_161:\n        /* \"#utility.yul\":1198:1204   */\n      dup2\n        /* \"#utility.yul\":1187:1196   */\n      dup6\n        /* \"#utility.yul\":1183:1205   */\n      add\n        /* \"#utility.yul\":1173:1205   */\n      swap2\n      pop\n        /* \"#utility.yul\":1243:1250   */\n      dup6\n        /* \"#utility.yul\":1236:1240   */\n      0x1f\n        /* \"#utility.yul\":1232:1234   */\n      dup4\n        /* \"#utility.yul\":1228:1241   */\n      add\n        /* \"#utility.yul\":1224:1251   */\n      slt\n        /* \"#utility.yul\":1214:1269   */\n      tag_162\n      jumpi\n        /* \"#utility.yul\":1265:1266   */\n      0x00\n        /* \"#utility.yul\":1262:1263   */\n      dup1\n        /* \"#utility.yul\":1255:1267   */\n      revert\n        /* \"#utility.yul\":1214:1269   */\n    tag_162:\n        /* \"#utility.yul\":1294:1296   */\n      dup2\n        /* \"#utility.yul\":1288:1297   */\n      mload\n        /* \"#utility.yul\":1316:1318   */\n      dup2\n        /* \"#utility.yul\":1312:1314   */\n      dup2\n        /* \"#utility.yul\":1309:1319   */\n      gt\n        /* \"#utility.yul\":1306:1342   */\n      iszero\n      tag_164\n      jumpi\n        /* \"#utility.yul\":1322:1340   */\n      tag_164\n      tag_148\n      jump\t// in\n    tag_164:\n        /* \"#utility.yul\":1368:1370   */\n      dup1\n        /* \"#utility.yul\":1365:1366   */\n      0x05\n        /* \"#utility.yul\":1361:1371   */\n      shl\n        /* \"#utility.yul\":1351:1371   */\n      swap2\n      pop\n        /* \"#utility.yul\":1391:1419   */\n      tag_165\n        /* \"#utility.yul\":1415:1417   */\n      dup5\n        /* \"#utility.yul\":1411:1413   */\n      dup4\n        /* \"#utility.yul\":1407:1418   */\n      add\n        /* \"#utility.yul\":1391:1419   */\n      tag_149\n      jump\t// in\n    tag_165:\n        /* \"#utility.yul\":1453:1468   */\n      dup2\n      dup2\n      mstore\n        /* \"#utility.yul\":1523:1534   */\n      swap2\n      dup4\n      add\n        /* \"#utility.yul\":1519:1539   */\n      dup5\n      add\n      swap2\n        /* \"#utility.yul\":1484:1496   */\n      dup5\n      dup2\n      add\n      swap1\n        /* \"#utility.yul\":1551:1570   */\n      dup9\n      dup5\n      gt\n        /* \"#utility.yul\":1548:1587   */\n      iszero\n      tag_166\n      jumpi\n        /* \"#utility.yul\":1583:1584   */\n      0x00\n        /* \"#utility.yul\":1580:1581   */\n      dup1\n        /* \"#utility.yul\":1573:1585   */\n      revert\n        /* \"#utility.yul\":1548:1587   */\n    tag_166:\n        /* \"#utility.yul\":1607:1618   */\n      swap4\n      dup6\n      add\n      swap4\n        /* \"#utility.yul\":1627:1762   */\n    tag_167:\n        /* \"#utility.yul\":1643:1649   */\n      dup4\n        /* \"#utility.yul\":1638:1641   */\n      dup6\n        /* \"#utility.yul\":1635:1650   */\n      lt\n        /* \"#utility.yul\":1627:1762   */\n      iszero\n      tag_169\n      jumpi\n        /* \"#utility.yul\":1709:1719   */\n      dup5\n      mload\n        /* \"#utility.yul\":1697:1720   */\n      dup3\n      mstore\n        /* \"#utility.yul\":1660:1672   */\n      swap4\n      dup6\n      add\n      swap4\n        /* \"#utility.yul\":1740:1752   */\n      swap1\n      dup6\n      add\n      swap1\n        /* \"#utility.yul\":1627:1762   */\n      jump(tag_167)\n    tag_169:\n        /* \"#utility.yul\":1781:1786   */\n      swap9\n        /* \"#utility.yul\":856:1792   */\n      swap8\n      pop\n      pop\n      pop\n      pop\n      pop\n      pop\n      pop\n      pop\n      jump\t// out\n        /* \"#utility.yul\":1797:1924   */\n    tag_31:\n        /* \"#utility.yul\":1858:1868   */\n      0x4e487b71\n        /* \"#utility.yul\":1853:1856   */\n      0xe0\n        /* \"#utility.yul\":1849:1869   */\n      shl\n        /* \"#utility.yul\":1846:1847   */\n      0x00\n        /* \"#utility.yul\":1839:1870   */\n      mstore\n        /* \"#utility.yul\":1889:1893   */\n      0x32\n        /* \"#utility.yul\":1886:1887   */\n      0x04\n        /* \"#utility.yul\":1879:1894   */\n      mstore\n        /* \"#utility.yul\":1913:1917   */\n      0x24\n        /* \"#utility.yul\":1910:1911   */\n      0x00\n        /* \"#utility.yul\":1903:1918   */\n      revert\n        /* \"#utility.yul\":1929:2151   */\n    tag_34:\n        /* \"#utility.yul\":1994:2003   */\n      dup1\n      dup3\n      add\n        /* \"#utility.yul\":2015:2025   */\n      dup1\n      dup3\n      gt\n        /* \"#utility.yul\":2012:2145   */\n      iszero\n      tag_172\n      jumpi\n        /* \"#utility.yul\":2067:2077   */\n      0x4e487b71\n        /* \"#utility.yul\":2062:2065   */\n      0xe0\n        /* \"#utility.yul\":2058:2078   */\n      shl\n        /* \"#utility.yul\":2055:2056   */\n      0x00\n        /* \"#utility.yul\":2048:2079   */\n      mstore\n        /* \"#utility.yul\":2102:2106   */\n      0x11\n        /* \"#utility.yul\":2099:2100   */\n      0x04\n        /* \"#utility.yul\":2092:2107   */\n      mstore\n        /* \"#utility.yul\":2130:2134   */\n      0x24\n        /* \"#utility.yul\":2127:2128   */\n      0x00\n        /* \"#utility.yul\":2120:2135   */\n      revert\n        /* \"#utility.yul\":2012:2145   */\n    tag_172:\n        /* \"#utility.yul\":1929:2151   */\n      swap3\n      swap2\n      pop\n      pop\n      jump\t// out\n        /* \"#utility.yul\":2156:2329   */\n    tag_150:\n        /* \"#utility.yul\":2224:2244   */\n      dup1\n      calldataload\n      sub(shl(0xa0, 0x01), 0x01)\n        /* \"#utility.yul\":2273:2304   */\n      dup2\n      and\n        /* \"#utility.yul\":2263:2305   */\n      dup2\n      eq\n        /* \"#utility.yul\":2253:2323   */\n      tag_174\n      jumpi\n        /* \"#utility.yul\":2319:2320   */\n      0x00\n        /* \"#utility.yul\":2316:2317   */\n      dup1\n        /* \"#utility.yul\":2309:2321   */\n      revert\n        /* \"#utility.yul\":2253:2323   */\n    tag_174:\n        /* \"#utility.yul\":2156:2329   */\n      swap2\n      swap1\n      pop\n      jump\t// out\n        /* \"#utility.yul\":2334:3314   */\n    tag_38:\n        /* \"#utility.yul\":2429:2435   */\n      0x00\n        /* \"#utility.yul\":2437:2443   */\n      dup1\n        /* \"#utility.yul\":2445:2451   */\n      0x00\n        /* \"#utility.yul\":2453:2459   */\n      dup1\n        /* \"#utility.yul\":2506:2509   */\n      0x80\n        /* \"#utility.yul\":2494:2503   */\n      dup6\n        /* \"#utility.yul\":2485:2492   */\n      dup8\n        /* \"#utility.yul\":2481:2504   */\n      sub\n        /* \"#utility.yul\":2477:2510   */\n      slt\n        /* \"#utility.yul\":2474:2527   */\n      iszero\n      tag_176\n      jumpi\n        /* \"#utility.yul\":2523:2524   */\n      0x00\n        /* \"#utility.yul\":2520:2521   */\n      dup1\n        /* \"#utility.yul\":2513:2525   */\n      revert\n        /* \"#utility.yul\":2474:2527   */\n    tag_176:\n        /* \"#utility.yul\":2546:2575   */\n      tag_177\n        /* \"#utility.yul\":2565:2574   */\n      dup6\n        /* \"#utility.yul\":2546:2575   */\n      tag_150\n      jump\t// in\n    tag_177:\n        /* \"#utility.yul\":2536:2575   */\n      swap4\n      pop\n        /* \"#utility.yul\":2594:2596   */\n      0x20\n        /* \"#utility.yul\":2615:2653   */\n      tag_178\n        /* \"#utility.yul\":2649:2651   */\n      dup2\n        /* \"#utility.yul\":2638:2647   */\n      dup8\n        /* \"#utility.yul\":2634:2652   */\n      add\n        /* \"#utility.yul\":2615:2653   */\n      tag_150\n      jump\t// in\n    tag_178:\n        /* \"#utility.yul\":2605:2653   */\n      swap4\n      pop\n        /* \"#utility.yul\":2700:2702   */\n      0x40\n        /* \"#utility.yul\":2689:2698   */\n      dup7\n        /* \"#utility.yul\":2685:2703   */\n      add\n        /* \"#utility.yul\":2672:2704   */\n      calldataload\n        /* \"#utility.yul\":2662:2704   */\n      swap3\n      pop\n        /* \"#utility.yul\":2755:2757   */\n      0x60\n        /* \"#utility.yul\":2744:2753   */\n      dup7\n        /* \"#utility.yul\":2740:2758   */\n      add\n        /* \"#utility.yul\":2727:2759   */\n      calldataload\n        /* \"#utility.yul\":2778:2796   */\n      0xffffffffffffffff\n        /* \"#utility.yul\":2819:2821   */\n      dup1\n        /* \"#utility.yul\":2811:2817   */\n      dup3\n        /* \"#utility.yul\":2808:2822   */\n      gt\n        /* \"#utility.yul\":2805:2839   */\n      iszero\n      tag_179\n      jumpi\n        /* \"#utility.yul\":2835:2836   */\n      0x00\n        /* \"#utility.yul\":2832:2833   */\n      dup1\n        /* \"#utility.yul\":2825:2837   */\n      revert\n        /* \"#utility.yul\":2805:2839   */\n    tag_179:\n        /* \"#utility.yul\":2873:2879   */\n      dup2\n        /* \"#utility.yul\":2862:2871   */\n      dup9\n        /* \"#utility.yul\":2858:2880   */\n      add\n        /* \"#utility.yul\":2848:2880   */\n      swap2\n      pop\n        /* \"#utility.yul\":2918:2925   */\n      dup9\n        /* \"#utility.yul\":2911:2915   */\n      0x1f\n        /* \"#utility.yul\":2907:2909   */\n      dup4\n        /* \"#utility.yul\":2903:2916   */\n      add\n        /* \"#utility.yul\":2899:2926   */\n      slt\n        /* \"#utility.yul\":2889:2944   */\n      tag_180\n      jumpi\n        /* \"#utility.yul\":2940:2941   */\n      0x00\n        /* \"#utility.yul\":2937:2938   */\n      dup1\n        /* \"#utility.yul\":2930:2942   */\n      revert\n        /* \"#utility.yul\":2889:2944   */\n    tag_180:\n        /* \"#utility.yul\":2976:2978   */\n      dup2\n        /* \"#utility.yul\":2963:2979   */\n      calldataload\n        /* \"#utility.yul\":2998:3000   */\n      dup2\n        /* \"#utility.yul\":2994:2996   */\n      dup2\n        /* \"#utility.yul\":2991:3001   */\n      gt\n        /* \"#utility.yul\":2988:3024   */\n      iszero\n      tag_182\n      jumpi\n        /* \"#utility.yul\":3004:3022   */\n      tag_182\n      tag_148\n      jump\t// in\n    tag_182:\n        /* \"#utility.yul\":3046:3099   */\n      tag_183\n        /* \"#utility.yul\":3089:3091   */\n      0x1f\n        /* \"#utility.yul\":3070:3083   */\n      dup3\n      add\n      not(0x1f)\n        /* \"#utility.yul\":3066:3093   */\n      and\n        /* \"#utility.yul\":3062:3098   */\n      dup6\n      add\n        /* \"#utility.yul\":3046:3099   */\n      tag_149\n      jump\t// in\n    tag_183:\n        /* \"#utility.yul\":3033:3099   */\n      swap2\n      pop\n        /* \"#utility.yul\":3122:3124   */\n      dup1\n        /* \"#utility.yul\":3115:3120   */\n      dup3\n        /* \"#utility.yul\":3108:3125   */\n      mstore\n        /* \"#utility.yul\":3162:3169   */\n      dup10\n        /* \"#utility.yul\":3157:3159   */\n      dup5\n        /* \"#utility.yul\":3152:3154   */\n      dup3\n        /* \"#utility.yul\":3148:3150   */\n      dup6\n        /* \"#utility.yul\":3144:3155   */\n      add\n        /* \"#utility.yul\":3140:3160   */\n      add\n        /* \"#utility.yul\":3137:3170   */\n      gt\n        /* \"#utility.yul\":3134:3187   */\n      iszero\n      tag_184\n      jumpi\n        /* \"#utility.yul\":3183:3184   */\n      0x00\n        /* \"#utility.yul\":3180:3181   */\n      dup1\n        /* \"#utility.yul\":3173:3185   */\n      revert\n        /* \"#utility.yul\":3134:3187   */\n    tag_184:\n        /* \"#utility.yul\":3238:3240   */\n      dup1\n        /* \"#utility.yul\":3233:3235   */\n      dup5\n        /* \"#utility.yul\":3229:3231   */\n      dup5\n        /* \"#utility.yul\":3225:3236   */\n      add\n        /* \"#utility.yul\":3220:3222   */\n      dup6\n        /* \"#utility.yul\":3213:3218   */\n      dup5\n        /* \"#utility.yul\":3209:3223   */\n      add\n        /* \"#utility.yul\":3196:3241   */\n      calldatacopy\n        /* \"#utility.yul\":3282:3283   */\n      0x00\n        /* \"#utility.yul\":3277:3279   */\n      dup5\n        /* \"#utility.yul\":3272:3274   */\n      dup3\n        /* \"#utility.yul\":3265:3270   */\n      dup5\n        /* \"#utility.yul\":3261:3275   */\n      add\n        /* \"#utility.yul\":3257:3280   */\n      add\n        /* \"#utility.yul\":3250:3284   */\n      mstore\n      pop\n        /* \"#utility.yul\":3303:3308   */\n      dup1\n        /* \"#utility.yul\":3293:3308   */\n      swap4\n      pop\n      pop\n      pop\n      pop\n        /* \"#utility.yul\":2334:3314   */\n      swap3\n      swap6\n      swap2\n      swap5\n      pop\n      swap3\n      pop\n      jump\t// out\n        /* \"#utility.yul\":3526:3706   */\n    tag_45:\n        /* \"#utility.yul\":3585:3591   */\n      0x00\n        /* \"#utility.yul\":3638:3640   */\n      0x20\n        /* \"#utility.yul\":3626:3635   */\n      dup3\n        /* \"#utility.yul\":3617:3624   */\n      dup5\n        /* \"#utility.yul\":3613:3636   */\n      sub\n        /* \"#utility.yul\":3609:3641   */\n      slt\n        /* \"#utility.yul\":3606:3658   */\n      iszero\n      tag_187\n      jumpi\n        /* \"#utility.yul\":3654:3655   */\n      0x00\n        /* \"#utility.yul\":3651:3652   */\n      dup1\n        /* \"#utility.yul\":3644:3656   */\n      revert\n        /* \"#utility.yul\":3606:3658   */\n    tag_187:\n      pop\n        /* \"#utility.yul\":3677:3700   */\n      calldataload\n      swap2\n        /* \"#utility.yul\":3526:3706   */\n      swap1\n      pop\n      jump\t// out\n        /* \"#utility.yul\":3711:3897   */\n    tag_70:\n        /* \"#utility.yul\":3770:3776   */\n      0x00\n        /* \"#utility.yul\":3823:3825   */\n      0x20\n        /* \"#utility.yul\":3811:3820   */\n      dup3\n        /* \"#utility.yul\":3802:3809   */\n      dup5\n        /* \"#utility.yul\":3798:3821   */\n      sub\n        /* \"#utility.yul\":3794:3826   */\n      slt\n        /* \"#utility.yul\":3791:3843   */\n      iszero\n      tag_189\n      jumpi\n        /* \"#utility.yul\":3839:3840   */\n      0x00\n        /* \"#utility.yul\":3836:3837   */\n      dup1\n        /* \"#utility.yul\":3829:3841   */\n      revert\n        /* \"#utility.yul\":3791:3843   */\n    tag_189:\n        /* \"#utility.yul\":3862:3891   */\n      tag_190\n        /* \"#utility.yul\":3881:3890   */\n      dup3\n        /* \"#utility.yul\":3862:3891   */\n      tag_150\n      jump\t// in\n    tag_190:\n        /* \"#utility.yul\":3852:3891   */\n      swap4\n        /* \"#utility.yul\":3711:3897   */\n      swap3\n      pop\n      pop\n      pop\n      jump\t// out\n\n    auxdata: 0xa2646970667358221220ca9aee039775573d201036c33f6336997c980fc0a7d59b491bb446b46fa91d1864736f6c63430008110033\n}\n",
				"bytecode": {
					"linkReferences": {},
					"object": "608060405234801561001057600080fd5b50604051610b65380380610b6583398101604081905261002f916100b1565b61003833610061565b60018055600280546001600160a01b0319166001600160a01b03929092169190911790556100e1565b600080546001600160a01b038381166001600160a01b0319831681178455604051919092169283917f8be0079c531659141344cd1fd0a4f28419497f9722a3daafe3b4186f6b6457e09190a35050565b6000602082840312156100c357600080fd5b81516001600160a01b03811681146100da57600080fd5b9392505050565b610a75806100f06000396000f3fe6080604052600436106100955760003560e01c80638da5cb5b116100595780638da5cb5b14610272578063a694fc3a14610290578063f2fde38b146102b0578063f301af42146102d0578063fd71c6501461030b57600080fd5b8063150b7a02146101865780632e17de78146101cf578063379607f5146101ef578063715018a61461020f5780638488cc411461022457600080fd5b366101815760006100a560035490565b6100af90346107dc565b60025460405162438b6360e81b81523060048201529192506000916001600160a01b039091169063438b630090602401600060405180830381865afa1580156100fc573d6000803e3d6000fd5b505050506040513d6000823e601f3d908101601f191682016040526101249190810190610845565b905060005b815181101561017f5782600560006006848154811061014a5761014a6108eb565b9060005260206000200154815260200190815260200160002060008282546101729190610901565b9091555050600101610129565b005b600080fd5b34801561019257600080fd5b506101b16101a1366004610944565b630a85bd0160e11b949350505050565b6040516001600160e01b031990911681526020015b60405180910390f35b3480156101db57600080fd5b5061017f6101ea366004610a04565b61032b565b3480156101fb57600080fd5b5061017f61020a366004610a04565b610504565b34801561021b57600080fd5b5061017f61055d565b34801561023057600080fd5b5061025a61023f366004610a04565b6004602052600090815260409020546001600160a01b031681565b6040516001600160a01b0390911681526020016101c6565b34801561027e57600080fd5b506000546001600160a01b031661025a565b34801561029c57600080fd5b5061017f6102ab366004610a04565b610571565b3480156102bc57600080fd5b5061017f6102cb366004610a1d565b61063b565b3480156102dc57600080fd5b506102fd6102eb366004610a04565b60056020526000908152604090205481565b6040519081526020016101c6565b34801561031757600080fd5b5061017f610326366004610a1d565b6106b1565b6002600154036103825760405162461bcd60e51b815260206004820152601f60248201527f5265656e7472616e637947756172643a207265656e7472616e742063616c6c0060448201526064015b60405180910390fd5b60026001556000818152600460205260409020546001600160a01b031633146103e65760405162461bcd60e51b81526020600482015260166024820152752cb7ba9030b932903737ba103a34329037bbb732b91760511b6044820152606401610379565b600081815260046020526040902080546001600160a01b031916905561040c60036106db565b60008181526004602090815260408083205460059092528083205490516001600160a01b03909216918381818185875af1925050503d806000811461046d576040519150601f19603f3d011682016040523d82523d6000602084013e610472565b606091505b505090508061048057600080fd5b600082815260056020526040808220919091556002549051632142170760e11b8152306004820152336024820152604481018490526001600160a01b03909116906342842e0e90606401600060405180830381600087803b1580156104e457600080fd5b505af11580156104f8573d6000803e3d6000fd5b50506001805550505050565b6002600154036105565760405162461bcd60e51b815260206004820152601f60248201527f5265656e7472616e637947756172643a207265656e7472616e742063616c6c006044820152606401610379565b5060018055565b610565610732565b61056f600061078c565b565b600254604051632142170760e11b8152336004820152306024820152604481018390526001600160a01b03909116906342842e0e90606401600060405180830381600087803b1580156105c357600080fd5b505af11580156105d7573d6000803e3d6000fd5b505050600082815260046020526040812080546001600160a01b031916331790556006805460018101825591527ff652222313e28459528d920b65115c16c04f3efc82aaedc97be59f3f377c0d3f0182905550610638600380546001019055565b50565b610643610732565b6001600160a01b0381166106a85760405162461bcd60e51b815260206004820152602660248201527f4f776e61626c653a206e6577206f776e657220697320746865207a65726f206160448201526564647265737360d01b6064820152608401610379565b6106388161078c565b6106b9610732565b600280546001600160a01b0319166001600160a01b0392909216919091179055565b80548061072a5760405162461bcd60e51b815260206004820152601b60248201527f436f756e7465723a2064656372656d656e74206f766572666c6f7700000000006044820152606401610379565b600019019055565b6000546001600160a01b0316331461056f5760405162461bcd60e51b815260206004820181905260248201527f4f776e61626c653a2063616c6c6572206973206e6f7420746865206f776e65726044820152606401610379565b600080546001600160a01b038381166001600160a01b0319831681178455604051919092169283917f8be0079c531659141344cd1fd0a4f28419497f9722a3daafe3b4186f6b6457e09190a35050565b6000826107f957634e487b7160e01b600052601260045260246000fd5b500490565b634e487b7160e01b600052604160045260246000fd5b604051601f8201601f1916810167ffffffffffffffff8111828210171561083d5761083d6107fe565b604052919050565b6000602080838503121561085857600080fd5b825167ffffffffffffffff8082111561087057600080fd5b818501915085601f83011261088457600080fd5b815181811115610896576108966107fe565b8060051b91506108a7848301610814565b81815291830184019184810190888411156108c157600080fd5b938501935b838510156108df578451825293850193908501906108c6565b98975050505050505050565b634e487b7160e01b600052603260045260246000fd5b8082018082111561092257634e487b7160e01b600052601160045260246000fd5b92915050565b80356001600160a01b038116811461093f57600080fd5b919050565b6000806000806080858703121561095a57600080fd5b61096385610928565b93506020610972818701610928565b935060408601359250606086013567ffffffffffffffff8082111561099657600080fd5b818801915088601f8301126109aa57600080fd5b8135818111156109bc576109bc6107fe565b6109ce601f8201601f19168501610814565b915080825289848285010111156109e457600080fd5b808484018584013760008482840101525080935050505092959194509250565b600060208284031215610a1657600080fd5b5035919050565b600060208284031215610a2f57600080fd5b610a3882610928565b939250505056fea2646970667358221220ca9aee039775573d201036c33f6336997c980fc0a7d59b491bb446b46fa91d1864736f6c63430008110033",
					"opcodes": "PUSH1 0x80 PUSH1 0x40 MSTORE CALLVALUE DUP1 ISZERO PUSH2 0x10 JUMPI PUSH1 0x0 DUP1 REVERT JUMPDEST POP PUSH1 0x40 MLOAD PUSH2 0xB65 CODESIZE SUB DUP1 PUSH2 0xB65 DUP4 CODECOPY DUP2 ADD PUSH1 0x40 DUP2 SWAP1 MSTORE PUSH2 0x2F SWAP2 PUSH2 0xB1 JUMP JUMPDEST PUSH2 0x38 CALLER PUSH2 0x61 JUMP JUMPDEST PUSH1 0x1 DUP1 SSTORE PUSH1 0x2 DUP1 SLOAD PUSH1 0x1 PUSH1 0x1 PUSH1 0xA0 SHL SUB NOT AND PUSH1 0x1 PUSH1 0x1 PUSH1 0xA0 SHL SUB SWAP3 SWAP1 SWAP3 AND SWAP2 SWAP1 SWAP2 OR SWAP1 SSTORE PUSH2 0xE1 JUMP JUMPDEST PUSH1 0x0 DUP1 SLOAD PUSH1 0x1 PUSH1 0x1 PUSH1 0xA0 SHL SUB DUP4 DUP2 AND PUSH1 0x1 PUSH1 0x1 PUSH1 0xA0 SHL SUB NOT DUP4 AND DUP2 OR DUP5 SSTORE PUSH1 0x40 MLOAD SWAP2 SWAP1 SWAP3 AND SWAP3 DUP4 SWAP2 PUSH32 0x8BE0079C531659141344CD1FD0A4F28419497F9722A3DAAFE3B4186F6B6457E0 SWAP2 SWAP1 LOG3 POP POP JUMP JUMPDEST PUSH1 0x0 PUSH1 0x20 DUP3 DUP5 SUB SLT ISZERO PUSH2 0xC3 JUMPI PUSH1 0x0 DUP1 REVERT JUMPDEST DUP2 MLOAD PUSH1 0x1 PUSH1 0x1 PUSH1 0xA0 SHL SUB DUP2 AND DUP2 EQ PUSH2 0xDA JUMPI PUSH1 0x0 DUP1 REVERT JUMPDEST SWAP4 SWAP3 POP POP POP JUMP JUMPDEST PUSH2 0xA75 DUP1 PUSH2 0xF0 PUSH1 0x0 CODECOPY PUSH1 0x0 RETURN INVALID PUSH1 0x80 PUSH1 0x40 MSTORE PUSH1 0x4 CALLDATASIZE LT PUSH2 0x95 JUMPI PUSH1 0x0 CALLDATALOAD PUSH1 0xE0 SHR DUP1 PUSH4 0x8DA5CB5B GT PUSH2 0x59 JUMPI DUP1 PUSH4 0x8DA5CB5B EQ PUSH2 0x272 JUMPI DUP1 PUSH4 0xA694FC3A EQ PUSH2 0x290 JUMPI DUP1 PUSH4 0xF2FDE38B EQ PUSH2 0x2B0 JUMPI DUP1 PUSH4 0xF301AF42 EQ PUSH2 0x2D0 JUMPI DUP1 PUSH4 0xFD71C650 EQ PUSH2 0x30B JUMPI PUSH1 0x0 DUP1 REVERT JUMPDEST DUP1 PUSH4 0x150B7A02 EQ PUSH2 0x186 JUMPI DUP1 PUSH4 0x2E17DE78 EQ PUSH2 0x1CF JUMPI DUP1 PUSH4 0x379607F5 EQ PUSH2 0x1EF JUMPI DUP1 PUSH4 0x715018A6 EQ PUSH2 0x20F JUMPI DUP1 PUSH4 0x8488CC41 EQ PUSH2 0x224 JUMPI PUSH1 0x0 DUP1 REVERT JUMPDEST CALLDATASIZE PUSH2 0x181 JUMPI PUSH1 0x0 PUSH2 0xA5 PUSH1 0x3 SLOAD SWAP1 JUMP JUMPDEST PUSH2 0xAF SWAP1 CALLVALUE PUSH2 0x7DC JUMP JUMPDEST PUSH1 0x2 SLOAD PUSH1 0x40 MLOAD PUSH3 0x438B63 PUSH1 0xE8 SHL DUP2 MSTORE ADDRESS PUSH1 0x4 DUP3 ADD MSTORE SWAP2 SWAP3 POP PUSH1 0x0 SWAP2 PUSH1 0x1 PUSH1 0x1 PUSH1 0xA0 SHL SUB SWAP1 SWAP2 AND SWAP1 PUSH4 0x438B6300 SWAP1 PUSH1 0x24 ADD PUSH1 0x0 PUSH1 0x40 MLOAD DUP1 DUP4 SUB DUP2 DUP7 GAS STATICCALL ISZERO DUP1 ISZERO PUSH2 0xFC JUMPI RETURNDATASIZE PUSH1 0x0 DUP1 RETURNDATACOPY RETURNDATASIZE PUSH1 0x0 REVERT JUMPDEST POP POP POP POP PUSH1 0x40 MLOAD RETURNDATASIZE PUSH1 0x0 DUP3 RETURNDATACOPY PUSH1 0x1F RETURNDATASIZE SWAP1 DUP2 ADD PUSH1 0x1F NOT AND DUP3 ADD PUSH1 0x40 MSTORE PUSH2 0x124 SWAP2 SWAP1 DUP2 ADD SWAP1 PUSH2 0x845 JUMP JUMPDEST SWAP1 POP PUSH1 0x0 JUMPDEST DUP2 MLOAD DUP2 LT ISZERO PUSH2 0x17F JUMPI DUP3 PUSH1 0x5 PUSH1 0x0 PUSH1 0x6 DUP5 DUP2 SLOAD DUP2 LT PUSH2 0x14A JUMPI PUSH2 0x14A PUSH2 0x8EB JUMP JUMPDEST SWAP1 PUSH1 0x0 MSTORE PUSH1 0x20 PUSH1 0x0 KECCAK256 ADD SLOAD DUP2 MSTORE PUSH1 0x20 ADD SWAP1 DUP2 MSTORE PUSH1 0x20 ADD PUSH1 0x0 KECCAK256 PUSH1 0x0 DUP3 DUP3 SLOAD PUSH2 0x172 SWAP2 SWAP1 PUSH2 0x901 JUMP JUMPDEST SWAP1 SWAP2 SSTORE POP POP PUSH1 0x1 ADD PUSH2 0x129 JUMP JUMPDEST STOP JUMPDEST PUSH1 0x0 DUP1 REVERT JUMPDEST CALLVALUE DUP1 ISZERO PUSH2 0x192 JUMPI PUSH1 0x0 DUP1 REVERT JUMPDEST POP PUSH2 0x1B1 PUSH2 0x1A1 CALLDATASIZE PUSH1 0x4 PUSH2 0x944 JUMP JUMPDEST PUSH4 0xA85BD01 PUSH1 0xE1 SHL SWAP5 SWAP4 POP POP POP POP JUMP JUMPDEST PUSH1 0x40 MLOAD PUSH1 0x1 PUSH1 0x1 PUSH1 0xE0 SHL SUB NOT SWAP1 SWAP2 AND DUP2 MSTORE PUSH1 0x20 ADD JUMPDEST PUSH1 0x40 MLOAD DUP1 SWAP2 SUB SWAP1 RETURN JUMPDEST CALLVALUE DUP1 ISZERO PUSH2 0x1DB JUMPI PUSH1 0x0 DUP1 REVERT JUMPDEST POP PUSH2 0x17F PUSH2 0x1EA CALLDATASIZE PUSH1 0x4 PUSH2 0xA04 JUMP JUMPDEST PUSH2 0x32B JUMP JUMPDEST CALLVALUE DUP1 ISZERO PUSH2 0x1FB JUMPI PUSH1 0x0 DUP1 REVERT JUMPDEST POP PUSH2 0x17F PUSH2 0x20A CALLDATASIZE PUSH1 0x4 PUSH2 0xA04 JUMP JUMPDEST PUSH2 0x504 JUMP JUMPDEST CALLVALUE DUP1 ISZERO PUSH2 0x21B JUMPI PUSH1 0x0 DUP1 REVERT JUMPDEST POP PUSH2 0x17F PUSH2 0x55D JUMP JUMPDEST CALLVALUE DUP1 ISZERO PUSH2 0x230 JUMPI PUSH1 0x0 DUP1 REVERT JUMPDEST POP PUSH2 0x25A PUSH2 0x23F CALLDATASIZE PUSH1 0x4 PUSH2 0xA04 JUMP JUMPDEST PUSH1 0x4 PUSH1 0x20 MSTORE PUSH1 0x0 SWAP1 DUP2 MSTORE PUSH1 0x40 SWAP1 KECCAK256 SLOAD PUSH1 0x1 PUSH1 0x1 PUSH1 0xA0 SHL SUB AND DUP2 JUMP JUMPDEST PUSH1 0x40 MLOAD PUSH1 0x1 PUSH1 0x1 PUSH1 0xA0 SHL SUB SWAP1 SWAP2 AND DUP2 MSTORE PUSH1 0x20 ADD PUSH2 0x1C6 JUMP JUMPDEST CALLVALUE DUP1 ISZERO PUSH2 0x27E JUMPI PUSH1 0x0 DUP1 REVERT JUMPDEST POP PUSH1 0x0 SLOAD PUSH1 0x1 PUSH1 0x1 PUSH1 0xA0 SHL SUB AND PUSH2 0x25A JUMP JUMPDEST CALLVALUE DUP1 ISZERO PUSH2 0x29C JUMPI PUSH1 0x0 DUP1 REVERT JUMPDEST POP PUSH2 0x17F PUSH2 0x2AB CALLDATASIZE PUSH1 0x4 PUSH2 0xA04 JUMP JUMPDEST PUSH2 0x571 JUMP JUMPDEST CALLVALUE DUP1 ISZERO PUSH2 0x2BC JUMPI PUSH1 0x0 DUP1 REVERT JUMPDEST POP PUSH2 0x17F PUSH2 0x2CB CALLDATASIZE PUSH1 0x4 PUSH2 0xA1D JUMP JUMPDEST PUSH2 0x63B JUMP JUMPDEST CALLVALUE DUP1 ISZERO PUSH2 0x2DC JUMPI PUSH1 0x0 DUP1 REVERT JUMPDEST POP PUSH2 0x2FD PUSH2 0x2EB CALLDATASIZE PUSH1 0x4 PUSH2 0xA04 JUMP JUMPDEST PUSH1 0x5 PUSH1 0x20 MSTORE PUSH1 0x0 SWAP1 DUP2 MSTORE PUSH1 0x40 SWAP1 KECCAK256 SLOAD DUP2 JUMP JUMPDEST PUSH1 0x40 MLOAD SWAP1 DUP2 MSTORE PUSH1 0x20 ADD PUSH2 0x1C6 JUMP JUMPDEST CALLVALUE DUP1 ISZERO PUSH2 0x317 JUMPI PUSH1 0x0 DUP1 REVERT JUMPDEST POP PUSH2 0x17F PUSH2 0x326 CALLDATASIZE PUSH1 0x4 PUSH2 0xA1D JUMP JUMPDEST PUSH2 0x6B1 JUMP JUMPDEST PUSH1 0x2 PUSH1 0x1 SLOAD SUB PUSH2 0x382 JUMPI PUSH1 0x40 MLOAD PUSH3 0x461BCD PUSH1 0xE5 SHL DUP2 MSTORE PUSH1 0x20 PUSH1 0x4 DUP3 ADD MSTORE PUSH1 0x1F PUSH1 0x24 DUP3 ADD MSTORE PUSH32 0x5265656E7472616E637947756172643A207265656E7472616E742063616C6C00 PUSH1 0x44 DUP3 ADD MSTORE PUSH1 0x64 ADD JUMPDEST PUSH1 0x40 MLOAD DUP1 SWAP2 SUB SWAP1 REVERT JUMPDEST PUSH1 0x2 PUSH1 0x1 SSTORE PUSH1 0x0 DUP2 DUP2 MSTORE PUSH1 0x4 PUSH1 0x20 MSTORE PUSH1 0x40 SWAP1 KECCAK256 SLOAD PUSH1 0x1 PUSH1 0x1 PUSH1 0xA0 SHL SUB AND CALLER EQ PUSH2 0x3E6 JUMPI PUSH1 0x40 MLOAD PUSH3 0x461BCD PUSH1 0xE5 SHL DUP2 MSTORE PUSH1 0x20 PUSH1 0x4 DUP3 ADD MSTORE PUSH1 0x16 PUSH1 0x24 DUP3 ADD MSTORE PUSH22 0x2CB7BA9030B932903737BA103A34329037BBB732B917 PUSH1 0x51 SHL PUSH1 0x44 DUP3 ADD MSTORE PUSH1 0x64 ADD PUSH2 0x379 JUMP JUMPDEST PUSH1 0x0 DUP2 DUP2 MSTORE PUSH1 0x4 PUSH1 0x20 MSTORE PUSH1 0x40 SWAP1 KECCAK256 DUP1 SLOAD PUSH1 0x1 PUSH1 0x1 PUSH1 0xA0 SHL SUB NOT AND SWAP1 SSTORE PUSH2 0x40C PUSH1 0x3 PUSH2 0x6DB JUMP JUMPDEST PUSH1 0x0 DUP2 DUP2 MSTORE PUSH1 0x4 PUSH1 0x20 SWAP1 DUP2 MSTORE PUSH1 0x40 DUP1 DUP4 KECCAK256 SLOAD PUSH1 0x5 SWAP1 SWAP3 MSTORE DUP1 DUP4 KECCAK256 SLOAD SWAP1 MLOAD PUSH1 0x1 PUSH1 0x1 PUSH1 0xA0 SHL SUB SWAP1 SWAP3 AND SWAP2 DUP4 DUP2 DUP2 DUP2 DUP6 DUP8 GAS CALL SWAP3 POP POP POP RETURNDATASIZE DUP1 PUSH1 0x0 DUP2 EQ PUSH2 0x46D JUMPI PUSH1 0x40 MLOAD SWAP2 POP PUSH1 0x1F NOT PUSH1 0x3F RETURNDATASIZE ADD AND DUP3 ADD PUSH1 0x40 MSTORE RETURNDATASIZE DUP3 MSTORE RETURNDATASIZE PUSH1 0x0 PUSH1 0x20 DUP5 ADD RETURNDATACOPY PUSH2 0x472 JUMP JUMPDEST PUSH1 0x60 SWAP2 POP JUMPDEST POP POP SWAP1 POP DUP1 PUSH2 0x480 JUMPI PUSH1 0x0 DUP1 REVERT JUMPDEST PUSH1 0x0 DUP3 DUP2 MSTORE PUSH1 0x5 PUSH1 0x20 MSTORE PUSH1 0x40 DUP1 DUP3 KECCAK256 SWAP2 SWAP1 SWAP2 SSTORE PUSH1 0x2 SLOAD SWAP1 MLOAD PUSH4 0x21421707 PUSH1 0xE1 SHL DUP2 MSTORE ADDRESS PUSH1 0x4 DUP3 ADD MSTORE CALLER PUSH1 0x24 DUP3 ADD MSTORE PUSH1 0x44 DUP2 ADD DUP5 SWAP1 MSTORE PUSH1 0x1 PUSH1 0x1 PUSH1 0xA0 SHL SUB SWAP1 SWAP2 AND SWAP1 PUSH4 0x42842E0E SWAP1 PUSH1 0x64 ADD PUSH1 0x0 PUSH1 0x40 MLOAD DUP1 DUP4 SUB DUP2 PUSH1 0x0 DUP8 DUP1 EXTCODESIZE ISZERO DUP1 ISZERO PUSH2 0x4E4 JUMPI PUSH1 0x0 DUP1 REVERT JUMPDEST POP GAS CALL ISZERO DUP1 ISZERO PUSH2 0x4F8 JUMPI RETURNDATASIZE PUSH1 0x0 DUP1 RETURNDATACOPY RETURNDATASIZE PUSH1 0x0 REVERT JUMPDEST POP POP PUSH1 0x1 DUP1 SSTORE POP POP POP POP JUMP JUMPDEST PUSH1 0x2 PUSH1 0x1 SLOAD SUB PUSH2 0x556 JUMPI PUSH1 0x40 MLOAD PUSH3 0x461BCD PUSH1 0xE5 SHL DUP2 MSTORE PUSH1 0x20 PUSH1 0x4 DUP3 ADD MSTORE PUSH1 0x1F PUSH1 0x24 DUP3 ADD MSTORE PUSH32 0x5265656E7472616E637947756172643A207265656E7472616E742063616C6C00 PUSH1 0x44 DUP3 ADD MSTORE PUSH1 0x64 ADD PUSH2 0x379 JUMP JUMPDEST POP PUSH1 0x1 DUP1 SSTORE JUMP JUMPDEST PUSH2 0x565 PUSH2 0x732 JUMP JUMPDEST PUSH2 0x56F PUSH1 0x0 PUSH2 0x78C JUMP JUMPDEST JUMP JUMPDEST PUSH1 0x2 SLOAD PUSH1 0x40 MLOAD PUSH4 0x21421707 PUSH1 0xE1 SHL DUP2 MSTORE CALLER PUSH1 0x4 DUP3 ADD MSTORE ADDRESS PUSH1 0x24 DUP3 ADD MSTORE PUSH1 0x44 DUP2 ADD DUP4 SWAP1 MSTORE PUSH1 0x1 PUSH1 0x1 PUSH1 0xA0 SHL SUB SWAP1 SWAP2 AND SWAP1 PUSH4 0x42842E0E SWAP1 PUSH1 0x64 ADD PUSH1 0x0 PUSH1 0x40 MLOAD DUP1 DUP4 SUB DUP2 PUSH1 0x0 DUP8 DUP1 EXTCODESIZE ISZERO DUP1 ISZERO PUSH2 0x5C3 JUMPI PUSH1 0x0 DUP1 REVERT JUMPDEST POP GAS CALL ISZERO DUP1 ISZERO PUSH2 0x5D7 JUMPI RETURNDATASIZE PUSH1 0x0 DUP1 RETURNDATACOPY RETURNDATASIZE PUSH1 0x0 REVERT JUMPDEST POP POP POP PUSH1 0x0 DUP3 DUP2 MSTORE PUSH1 0x4 PUSH1 0x20 MSTORE PUSH1 0x40 DUP2 KECCAK256 DUP1 SLOAD PUSH1 0x1 PUSH1 0x1 PUSH1 0xA0 SHL SUB NOT AND CALLER OR SWAP1 SSTORE PUSH1 0x6 DUP1 SLOAD PUSH1 0x1 DUP2 ADD DUP3 SSTORE SWAP2 MSTORE PUSH32 0xF652222313E28459528D920B65115C16C04F3EFC82AAEDC97BE59F3F377C0D3F ADD DUP3 SWAP1 SSTORE POP PUSH2 0x638 PUSH1 0x3 DUP1 SLOAD PUSH1 0x1 ADD SWAP1 SSTORE JUMP JUMPDEST POP JUMP JUMPDEST PUSH2 0x643 PUSH2 0x732 JUMP JUMPDEST PUSH1 0x1 PUSH1 0x1 PUSH1 0xA0 SHL SUB DUP2 AND PUSH2 0x6A8 JUMPI PUSH1 0x40 MLOAD PUSH3 0x461BCD PUSH1 0xE5 SHL DUP2 MSTORE PUSH1 0x20 PUSH1 0x4 DUP3 ADD MSTORE PUSH1 0x26 PUSH1 0x24 DUP3 ADD MSTORE PUSH32 0x4F776E61626C653A206E6577206F776E657220697320746865207A65726F2061 PUSH1 0x44 DUP3 ADD MSTORE PUSH6 0x646472657373 PUSH1 0xD0 SHL PUSH1 0x64 DUP3 ADD MSTORE PUSH1 0x84 ADD PUSH2 0x379 JUMP JUMPDEST PUSH2 0x638 DUP2 PUSH2 0x78C JUMP JUMPDEST PUSH2 0x6B9 PUSH2 0x732 JUMP JUMPDEST PUSH1 0x2 DUP1 SLOAD PUSH1 0x1 PUSH1 0x1 PUSH1 0xA0 SHL SUB NOT AND PUSH1 0x1 PUSH1 0x1 PUSH1 0xA0 SHL SUB SWAP3 SWAP1 SWAP3 AND SWAP2 SWAP1 SWAP2 OR SWAP1 SSTORE JUMP JUMPDEST DUP1 SLOAD DUP1 PUSH2 0x72A JUMPI PUSH1 0x40 MLOAD PUSH3 0x461BCD PUSH1 0xE5 SHL DUP2 MSTORE PUSH1 0x20 PUSH1 0x4 DUP3 ADD MSTORE PUSH1 0x1B PUSH1 0x24 DUP3 ADD MSTORE PUSH32 0x436F756E7465723A2064656372656D656E74206F766572666C6F770000000000 PUSH1 0x44 DUP3 ADD MSTORE PUSH1 0x64 ADD PUSH2 0x379 JUMP JUMPDEST PUSH1 0x0 NOT ADD SWAP1 SSTORE JUMP JUMPDEST PUSH1 0x0 SLOAD PUSH1 0x1 PUSH1 0x1 PUSH1 0xA0 SHL SUB AND CALLER EQ PUSH2 0x56F JUMPI PUSH1 0x40 MLOAD PUSH3 0x461BCD PUSH1 0xE5 SHL DUP2 MSTORE PUSH1 0x20 PUSH1 0x4 DUP3 ADD DUP2 SWAP1 MSTORE PUSH1 0x24 DUP3 ADD MSTORE PUSH32 0x4F776E61626C653A2063616C6C6572206973206E6F7420746865206F776E6572 PUSH1 0x44 DUP3 ADD MSTORE PUSH1 0x64 ADD PUSH2 0x379 JUMP JUMPDEST PUSH1 0x0 DUP1 SLOAD PUSH1 0x1 PUSH1 0x1 PUSH1 0xA0 SHL SUB DUP4 DUP2 AND PUSH1 0x1 PUSH1 0x1 PUSH1 0xA0 SHL SUB NOT DUP4 AND DUP2 OR DUP5 SSTORE PUSH1 0x40 MLOAD SWAP2 SWAP1 SWAP3 AND SWAP3 DUP4 SWAP2 PUSH32 0x8BE0079C531659141344CD1FD0A4F28419497F9722A3DAAFE3B4186F6B6457E0 SWAP2 SWAP1 LOG3 POP POP JUMP JUMPDEST PUSH1 0x0 DUP3 PUSH2 0x7F9 JUMPI PUSH4 0x4E487B71 PUSH1 0xE0 SHL PUSH1 0x0 MSTORE PUSH1 0x12 PUSH1 0x4 MSTORE PUSH1 0x24 PUSH1 0x0 REVERT JUMPDEST POP DIV SWAP1 JUMP JUMPDEST PUSH4 0x4E487B71 PUSH1 0xE0 SHL PUSH1 0x0 MSTORE PUSH1 0x41 PUSH1 0x4 MSTORE PUSH1 0x24 PUSH1 0x0 REVERT JUMPDEST PUSH1 0x40 MLOAD PUSH1 0x1F DUP3 ADD PUSH1 0x1F NOT AND DUP2 ADD PUSH8 0xFFFFFFFFFFFFFFFF DUP2 GT DUP3 DUP3 LT OR ISZERO PUSH2 0x83D JUMPI PUSH2 0x83D PUSH2 0x7FE JUMP JUMPDEST PUSH1 0x40 MSTORE SWAP2 SWAP1 POP JUMP JUMPDEST PUSH1 0x0 PUSH1 0x20 DUP1 DUP4 DUP6 SUB SLT ISZERO PUSH2 0x858 JUMPI PUSH1 0x0 DUP1 REVERT JUMPDEST DUP3 MLOAD PUSH8 0xFFFFFFFFFFFFFFFF DUP1 DUP3 GT ISZERO PUSH2 0x870 JUMPI PUSH1 0x0 DUP1 REVERT JUMPDEST DUP2 DUP6 ADD SWAP2 POP DUP6 PUSH1 0x1F DUP4 ADD SLT PUSH2 0x884 JUMPI PUSH1 0x0 DUP1 REVERT JUMPDEST DUP2 MLOAD DUP2 DUP2 GT ISZERO PUSH2 0x896 JUMPI PUSH2 0x896 PUSH2 0x7FE JUMP JUMPDEST DUP1 PUSH1 0x5 SHL SWAP2 POP PUSH2 0x8A7 DUP5 DUP4 ADD PUSH2 0x814 JUMP JUMPDEST DUP2 DUP2 MSTORE SWAP2 DUP4 ADD DUP5 ADD SWAP2 DUP5 DUP2 ADD SWAP1 DUP9 DUP5 GT ISZERO PUSH2 0x8C1 JUMPI PUSH1 0x0 DUP1 REVERT JUMPDEST SWAP4 DUP6 ADD SWAP4 JUMPDEST DUP4 DUP6 LT ISZERO PUSH2 0x8DF JUMPI DUP5 MLOAD DUP3 MSTORE SWAP4 DUP6 ADD SWAP4 SWAP1 DUP6 ADD SWAP1 PUSH2 0x8C6 JUMP JUMPDEST SWAP9 SWAP8 POP POP POP POP POP POP POP POP JUMP JUMPDEST PUSH4 0x4E487B71 PUSH1 0xE0 SHL PUSH1 0x0 MSTORE PUSH1 0x32 PUSH1 0x4 MSTORE PUSH1 0x24 PUSH1 0x0 REVERT JUMPDEST DUP1 DUP3 ADD DUP1 DUP3 GT ISZERO PUSH2 0x922 JUMPI PUSH4 0x4E487B71 PUSH1 0xE0 SHL PUSH1 0x0 MSTORE PUSH1 0x11 PUSH1 0x4 MSTORE PUSH1 0x24 PUSH1 0x0 REVERT JUMPDEST SWAP3 SWAP2 POP POP JUMP JUMPDEST DUP1 CALLDATALOAD PUSH1 0x1 PUSH1 0x1 PUSH1 0xA0 SHL SUB DUP2 AND DUP2 EQ PUSH2 0x93F JUMPI PUSH1 0x0 DUP1 REVERT JUMPDEST SWAP2 SWAP1 POP JUMP JUMPDEST PUSH1 0x0 DUP1 PUSH1 0x0 DUP1 PUSH1 0x80 DUP6 DUP8 SUB SLT ISZERO PUSH2 0x95A JUMPI PUSH1 0x0 DUP1 REVERT JUMPDEST PUSH2 0x963 DUP6 PUSH2 0x928 JUMP JUMPDEST SWAP4 POP PUSH1 0x20 PUSH2 0x972 DUP2 DUP8 ADD PUSH2 0x928 JUMP JUMPDEST SWAP4 POP PUSH1 0x40 DUP7 ADD CALLDATALOAD SWAP3 POP PUSH1 0x60 DUP7 ADD CALLDATALOAD PUSH8 0xFFFFFFFFFFFFFFFF DUP1 DUP3 GT ISZERO PUSH2 0x996 JUMPI PUSH1 0x0 DUP1 REVERT JUMPDEST DUP2 DUP9 ADD SWAP2 POP DUP9 PUSH1 0x1F DUP4 ADD SLT PUSH2 0x9AA JUMPI PUSH1 0x0 DUP1 REVERT JUMPDEST DUP2 CALLDATALOAD DUP2 DUP2 GT ISZERO PUSH2 0x9BC JUMPI PUSH2 0x9BC PUSH2 0x7FE JUMP JUMPDEST PUSH2 0x9CE PUSH1 0x1F DUP3 ADD PUSH1 0x1F NOT AND DUP6 ADD PUSH2 0x814 JUMP JUMPDEST SWAP2 POP DUP1 DUP3 MSTORE DUP10 DUP5 DUP3 DUP6 ADD ADD GT ISZERO PUSH2 0x9E4 JUMPI PUSH1 0x0 DUP1 REVERT JUMPDEST DUP1 DUP5 DUP5 ADD DUP6 DUP5 ADD CALLDATACOPY PUSH1 0x0 DUP5 DUP3 DUP5 ADD ADD MSTORE POP DUP1 SWAP4 POP POP POP POP SWAP3 SWAP6 SWAP2 SWAP5 POP SWAP3 POP JUMP JUMPDEST PUSH1 0x0 PUSH1 0x20 DUP3 DUP5 SUB SLT ISZERO PUSH2 0xA16 JUMPI PUSH1 0x0 DUP1 REVERT JUMPDEST POP CALLDATALOAD SWAP2 SWAP1 POP JUMP JUMPDEST PUSH1 0x0 PUSH1 0x20 DUP3 DUP5 SUB SLT ISZERO PUSH2 0xA2F JUMPI PUSH1 0x0 DUP1 REVERT JUMPDEST PUSH2 0xA38 DUP3 PUSH2 0x928 JUMP JUMPDEST SWAP4 SWAP3 POP POP POP JUMP INVALID LOG2 PUSH5 0x6970667358 0x22 SLT KECCAK256 0xCA SWAP11 0xEE SUB SWAP8 PUSH22 0x573D201036C33F6336997C980FC0A7D59B491BB446B4 PUSH16 0xA91D1864736F6C634300081100330000 "
				},
				"gasEstimates": {
					"creation": {
						"codeDepositCost": "535400",
						"executionCost": "infinite",
						"totalCost": "infinite"
					},
					"external": {
						"claim(uint256)": "24497",
						"onERC721Received(address,address,uint256,bytes)": "infinite",
						"owner()": "2331",
						"renounceOwnership()": "infinite",
						"rewards(uint256)": "2504",
						"setNftContact(address)": "26823",
						"stake(uint256)": "infinite",
						"tokenOwnedBy(uint256)": "2566",
						"transferOwnership(address)": "28377",
						"unstake(uint256)": "infinite"
					}
				},
				"methodIdentifiers": {
					"claim(uint256)": "379607f5",
					"onERC721Received(address,address,uint256,bytes)": "150b7a02",
					"owner()": "8da5cb5b",
					"renounceOwnership()": "715018a6",
					"rewards(uint256)": "f301af42",
					"setNftContact(address)": "fd71c650",
					"stake(uint256)": "a694fc3a",
					"tokenOwnedBy(uint256)": "8488cc41",
					"transferOwnership(address)": "f2fde38b",
					"unstake(uint256)": "2e17de78"
				}
			},
			"storageLayout": {
				"storage": [
					{
						"astId": 7,
						"contract": "contracts/NFTStaking.sol:SacredTemple",
						"label": "_owner",
						"offset": 0,
						"slot": "0",
						"type": "t_address"
					},
					{
						"astId": 123,
						"contract": "contracts/NFTStaking.sol:SacredTemple",
						"label": "_status",
						"offset": 0,
						"slot": "1",
						"type": "t_uint256"
					},
					{
						"astId": 445,
						"contract": "contracts/NFTStaking.sol:SacredTemple",
						"label": "_nftContract",
						"offset": 0,
						"slot": "2",
						"type": "t_address"
					},
					{
						"astId": 452,
						"contract": "contracts/NFTStaking.sol:SacredTemple",
						"label": "_stakedNFTCounter",
						"offset": 0,
						"slot": "3",
						"type": "t_struct(Counter)341_storage"
					},
					{
						"astId": 478,
						"contract": "contracts/NFTStaking.sol:SacredTemple",
						"label": "tokenOwnedBy",
						"offset": 0,
						"slot": "4",
						"type": "t_mapping(t_uint256,t_address)"
					},
					{
						"astId": 482,
						"contract": "contracts/NFTStaking.sol:SacredTemple",
						"label": "rewards",
						"offset": 0,
						"slot": "5",
						"type": "t_mapping(t_uint256,t_uint256)"
					},
					{
						"astId": 485,
						"contract": "contracts/NFTStaking.sol:SacredTemple",
						"label": "tokenStaked",
						"offset": 0,
						"slot": "6",
						"type": "t_array(t_uint256)dyn_storage"
					}
				],
				"types": {
					"t_address": {
						"encoding": "inplace",
						"label": "address",
						"numberOfBytes": "20"
					},
					"t_array(t_uint256)dyn_storage": {
						"base": "t_uint256",
						"encoding": "dynamic_array",
						"label": "uint256[]",
						"numberOfBytes": "32"
					},
					"t_mapping(t_uint256,t_address)": {
						"encoding": "mapping",
						"key": "t_uint256",
						"label": "mapping(uint256 => address)",
						"numberOfBytes": "32",
						"value": "t_address"
					},
					"t_mapping(t_uint256,t_uint256)": {
						"encoding": "mapping",
						"key": "t_uint256",
						"label": "mapping(uint256 => uint256)",
						"numberOfBytes": "32",
						"value": "t_uint256"
					},
					"t_struct(Counter)341_storage": {
						"encoding": "inplace",
						"label": "struct Counters.Counter",
						"members": [
							{
								"astId": 340,
								"contract": "contracts/NFTStaking.sol:SacredTemple",
								"label": "_value",
								"offset": 0,
								"slot": "0",
								"type": "t_uint256"
							}
						],
						"numberOfBytes": "32"
					},
					"t_uint256": {
						"encoding": "inplace",
						"label": "uint256",
						"numberOfBytes": "32"
					}
				}
			},
			"userdoc": {
				"kind": "user",
				"methods": {},
				"version": 1
			}
		}
	}
}