{
	"contracts/NFTStaking.sol": {
		"SacredTemple": {
			"abi": [
				{
					"inputs": [
						{
							"internalType": "address",
							"name": "nftContract_",
							"type": "address"
						}
					],
					"stateMutability": "nonpayable",
					"type": "constructor"
				},
				{
					"anonymous": false,
					"inputs": [
						{
							"indexed": false,
							"internalType": "address",
							"name": "owner",
							"type": "address"
						},
						{
							"indexed": false,
							"internalType": "uint256",
							"name": "amount",
							"type": "uint256"
						}
					],
					"name": "Claimed",
					"type": "event"
				},
				{
					"anonymous": false,
					"inputs": [
						{
							"indexed": false,
							"internalType": "address",
							"name": "owner",
							"type": "address"
						},
						{
							"indexed": false,
							"internalType": "uint256",
							"name": "tokenId",
							"type": "uint256"
						},
						{
							"indexed": false,
							"internalType": "uint256",
							"name": "value",
							"type": "uint256"
						}
					],
					"name": "NFTStaked",
					"type": "event"
				},
				{
					"anonymous": false,
					"inputs": [
						{
							"indexed": false,
							"internalType": "address",
							"name": "owner",
							"type": "address"
						},
						{
							"indexed": false,
							"internalType": "uint256",
							"name": "tokenId",
							"type": "uint256"
						},
						{
							"indexed": false,
							"internalType": "uint256",
							"name": "value",
							"type": "uint256"
						}
					],
					"name": "NFTUnstaked",
					"type": "event"
				},
				{
					"anonymous": false,
					"inputs": [
						{
							"indexed": true,
							"internalType": "address",
							"name": "previousOwner",
							"type": "address"
						},
						{
							"indexed": true,
							"internalType": "address",
							"name": "newOwner",
							"type": "address"
						}
					],
					"name": "OwnershipTransferred",
					"type": "event"
				},
				{
					"inputs": [
						{
							"internalType": "uint256",
							"name": "tokenId",
							"type": "uint256"
						}
					],
					"name": "calculateRewards",
					"outputs": [
						{
							"internalType": "uint256",
							"name": "",
							"type": "uint256"
						}
					],
					"stateMutability": "view",
					"type": "function"
				},
				{
					"inputs": [
						{
							"internalType": "uint256",
							"name": "tokenId",
							"type": "uint256"
						}
					],
					"name": "claim",
					"outputs": [],
					"stateMutability": "nonpayable",
					"type": "function"
				},
				{
					"inputs": [
						{
							"internalType": "address",
							"name": "",
							"type": "address"
						},
						{
							"internalType": "address",
							"name": "",
							"type": "address"
						},
						{
							"internalType": "uint256",
							"name": "",
							"type": "uint256"
						},
						{
							"internalType": "bytes",
							"name": "",
							"type": "bytes"
						}
					],
					"name": "onERC721Received",
					"outputs": [
						{
							"internalType": "bytes4",
							"name": "",
							"type": "bytes4"
						}
					],
					"stateMutability": "nonpayable",
					"type": "function"
				},
				{
					"inputs": [],
					"name": "owner",
					"outputs": [
						{
							"internalType": "address",
							"name": "",
							"type": "address"
						}
					],
					"stateMutability": "view",
					"type": "function"
				},
				{
					"inputs": [],
					"name": "renounceOwnership",
					"outputs": [],
					"stateMutability": "nonpayable",
					"type": "function"
				},
				{
					"inputs": [
						{
							"internalType": "uint256",
							"name": "",
							"type": "uint256"
						}
					],
					"name": "rewards",
					"outputs": [
						{
							"internalType": "uint256",
							"name": "",
							"type": "uint256"
						}
					],
					"stateMutability": "view",
					"type": "function"
				},
				{
					"inputs": [
						{
							"internalType": "address",
							"name": "nftContract_",
							"type": "address"
						}
					],
					"name": "setNftContact",
					"outputs": [],
					"stateMutability": "nonpayable",
					"type": "function"
				},
				{
					"inputs": [
						{
							"internalType": "uint256",
							"name": "tokenId",
							"type": "uint256"
						}
					],
					"name": "stake",
					"outputs": [],
					"stateMutability": "nonpayable",
					"type": "function"
				},
				{
					"inputs": [
						{
							"internalType": "uint256",
							"name": "",
							"type": "uint256"
						}
					],
					"name": "tokenOwnedBy",
					"outputs": [
						{
							"internalType": "address",
							"name": "",
							"type": "address"
						}
					],
					"stateMutability": "view",
					"type": "function"
				},
				{
					"inputs": [
						{
							"internalType": "address",
							"name": "newOwner",
							"type": "address"
						}
					],
					"name": "transferOwnership",
					"outputs": [],
					"stateMutability": "nonpayable",
					"type": "function"
				},
				{
					"inputs": [
						{
							"internalType": "uint256",
							"name": "tokenId",
							"type": "uint256"
						}
					],
					"name": "unstake",
					"outputs": [],
					"stateMutability": "nonpayable",
					"type": "function"
				},
				{
					"stateMutability": "payable",
					"type": "receive"
				}
			],
			"devdoc": {
				"kind": "dev",
				"methods": {
					"onERC721Received(address,address,uint256,bytes)": {
						"details": "See {IERC721Receiver-onERC721Received}. Always returns `IERC721Receiver.onERC721Received.selector`."
					},
					"owner()": {
						"details": "Returns the address of the current owner."
					},
					"renounceOwnership()": {
						"details": "Leaves the contract without owner. It will not be possible to call `onlyOwner` functions anymore. Can only be called by the current owner. NOTE: Renouncing ownership will leave the contract without an owner, thereby removing any functionality that is only available to the owner."
					},
					"transferOwnership(address)": {
						"details": "Transfers ownership of the contract to a new account (`newOwner`). Can only be called by the current owner."
					}
				},
				"version": 1
			},
			"evm": {
				"assembly": "    /* \"contracts/NFTStaking.sol\":492:2754  contract SacredTemple is Ownable, ERC721Holder, ReentrancyGuard {... */\n  mstore(0x40, 0x80)\n    /* \"contracts/NFTStaking.sol\":999:1078  constructor (address nftContract_) {... */\n  callvalue\n  dup1\n  iszero\n  tag_1\n  jumpi\n  0x00\n  dup1\n  revert\ntag_1:\n  pop\n  mload(0x40)\n  sub(codesize, bytecodeSize)\n  dup1\n  bytecodeSize\n  dup4\n  codecopy\n  dup2\n  add\n  0x40\n  dup2\n  swap1\n  mstore\n  tag_2\n  swap2\n  tag_3\n  jump\t// in\ntag_2:\n    /* \"@openzeppelin/contracts@4.7.3/access/Ownable.sol\":936:968  _transferOwnership(_msgSender()) */\n  tag_8\n    /* \"@openzeppelin/contracts@4.7.3/utils/Context.sol\":719:729  msg.sender */\n  caller\n    /* \"@openzeppelin/contracts@4.7.3/access/Ownable.sol\":936:954  _transferOwnership */\n  tag_11\n    /* \"@openzeppelin/contracts@4.7.3/access/Ownable.sol\":936:968  _transferOwnership(_msgSender()) */\n  jump\t// in\ntag_8:\n    /* \"@openzeppelin/contracts@4.7.3/security/ReentrancyGuard.sol\":1701:1702  1 */\n  0x01\n    /* \"@openzeppelin/contracts@4.7.3/security/ReentrancyGuard.sol\":1806:1828  _status = _NOT_ENTERED */\n  dup1\n  sstore\n    /* \"contracts/NFTStaking.sol\":1044:1056  _nftContract */\n  0x02\n    /* \"contracts/NFTStaking.sol\":1044:1071  _nftContract = nftContract_ */\n  dup1\n  sload\n  not(sub(shl(0xa0, 0x01), 0x01))\n  and\n  sub(shl(0xa0, 0x01), 0x01)\n  swap3\n  swap1\n  swap3\n  and\n  swap2\n  swap1\n  swap2\n  or\n  swap1\n  sstore\n    /* \"contracts/NFTStaking.sol\":492:2754  contract SacredTemple is Ownable, ERC721Holder, ReentrancyGuard {... */\n  jump(tag_17)\n    /* \"@openzeppelin/contracts@4.7.3/access/Ownable.sol\":2433:2620  function _transferOwnership(address newOwner) internal virtual {... */\ntag_11:\n    /* \"@openzeppelin/contracts@4.7.3/access/Ownable.sol\":2506:2522  address oldOwner */\n  0x00\n    /* \"@openzeppelin/contracts@4.7.3/access/Ownable.sol\":2525:2531  _owner */\n  dup1\n  sload\n  sub(shl(0xa0, 0x01), 0x01)\n    /* \"@openzeppelin/contracts@4.7.3/access/Ownable.sol\":2541:2558  _owner = newOwner */\n  dup4\n  dup2\n  and\n  not(sub(shl(0xa0, 0x01), 0x01))\n  dup4\n  and\n  dup2\n  or\n  dup5\n  sstore\n    /* \"@openzeppelin/contracts@4.7.3/access/Ownable.sol\":2573:2613  OwnershipTransferred(oldOwner, newOwner) */\n  mload(0x40)\n    /* \"@openzeppelin/contracts@4.7.3/access/Ownable.sol\":2525:2531  _owner */\n  swap2\n  swap1\n  swap3\n  and\n  swap3\n  dup4\n  swap2\n    /* \"@openzeppelin/contracts@4.7.3/access/Ownable.sol\":2573:2613  OwnershipTransferred(oldOwner, newOwner) */\n  0x8be0079c531659141344cd1fd0a4f28419497f9722a3daafe3b4186f6b6457e0\n  swap2\n    /* \"@openzeppelin/contracts@4.7.3/access/Ownable.sol\":2506:2522  address oldOwner */\n  swap1\n    /* \"@openzeppelin/contracts@4.7.3/access/Ownable.sol\":2573:2613  OwnershipTransferred(oldOwner, newOwner) */\n  log3\n    /* \"@openzeppelin/contracts@4.7.3/access/Ownable.sol\":2496:2620  {... */\n  pop\n    /* \"@openzeppelin/contracts@4.7.3/access/Ownable.sol\":2433:2620  function _transferOwnership(address newOwner) internal virtual {... */\n  pop\n  jump\t// out\n    /* \"#utility.yul\":14:304   */\ntag_3:\n    /* \"#utility.yul\":84:90   */\n  0x00\n    /* \"#utility.yul\":137:139   */\n  0x20\n    /* \"#utility.yul\":125:134   */\n  dup3\n    /* \"#utility.yul\":116:123   */\n  dup5\n    /* \"#utility.yul\":112:135   */\n  sub\n    /* \"#utility.yul\":108:140   */\n  slt\n    /* \"#utility.yul\":105:157   */\n  iszero\n  tag_19\n  jumpi\n    /* \"#utility.yul\":153:154   */\n  0x00\n    /* \"#utility.yul\":150:151   */\n  dup1\n    /* \"#utility.yul\":143:155   */\n  revert\n    /* \"#utility.yul\":105:157   */\ntag_19:\n    /* \"#utility.yul\":179:195   */\n  dup2\n  mload\n  sub(shl(0xa0, 0x01), 0x01)\n    /* \"#utility.yul\":224:255   */\n  dup2\n  and\n    /* \"#utility.yul\":214:256   */\n  dup2\n  eq\n    /* \"#utility.yul\":204:274   */\n  tag_20\n  jumpi\n    /* \"#utility.yul\":270:271   */\n  0x00\n    /* \"#utility.yul\":267:268   */\n  dup1\n    /* \"#utility.yul\":260:272   */\n  revert\n    /* \"#utility.yul\":204:274   */\ntag_20:\n    /* \"#utility.yul\":293:298   */\n  swap4\n    /* \"#utility.yul\":14:304   */\n  swap3\n  pop\n  pop\n  pop\n  jump\t// out\ntag_17:\n    /* \"contracts/NFTStaking.sol\":492:2754  contract SacredTemple is Ownable, ERC721Holder, ReentrancyGuard {... */\n  dataSize(sub_0)\n  dup1\n  dataOffset(sub_0)\n  0x00\n  codecopy\n  0x00\n  return\nstop\n\nsub_0: assembly {\n        /* \"contracts/NFTStaking.sol\":492:2754  contract SacredTemple is Ownable, ERC721Holder, ReentrancyGuard {... */\n      mstore(0x40, 0x80)\n      jumpi(tag_1, lt(calldatasize, 0x04))\n      shr(0xe0, calldataload(0x00))\n      dup1\n      0x8da5cb5b\n      gt\n      tag_14\n      jumpi\n      dup1\n      0x8da5cb5b\n      eq\n      tag_8\n      jumpi\n      dup1\n      0xa694fc3a\n      eq\n      tag_9\n      jumpi\n      dup1\n      0xd3ea4350\n      eq\n      tag_10\n      jumpi\n      dup1\n      0xf2fde38b\n      eq\n      tag_11\n      jumpi\n      dup1\n      0xf301af42\n      eq\n      tag_12\n      jumpi\n      dup1\n      0xfd71c650\n      eq\n      tag_13\n      jumpi\n      0x00\n      dup1\n      revert\n    tag_14:\n      dup1\n      0x150b7a02\n      eq\n      tag_3\n      jumpi\n      dup1\n      0x2e17de78\n      eq\n      tag_4\n      jumpi\n      dup1\n      0x379607f5\n      eq\n      tag_5\n      jumpi\n      dup1\n      0x715018a6\n      eq\n      tag_6\n      jumpi\n      dup1\n      0x8488cc41\n      eq\n      tag_7\n      jumpi\n      0x00\n      dup1\n      revert\n    tag_1:\n      jumpi(tag_2, calldatasize)\n        /* \"contracts/NFTStaking.sol\":2374:2391  _stakedNFTCounter */\n      0x03\n        /* \"@openzeppelin/contracts@4.7.3/utils/Counters.sol\":918:932  counter._value */\n      sload\n        /* \"contracts/NFTStaking.sol\":2405:2406  0 */\n      0x00\n        /* \"contracts/NFTStaking.sol\":2374:2406  _stakedNFTCounter.current() != 0 */\n      sub\n        /* \"contracts/NFTStaking.sol\":2366:2429  require(_stakedNFTCounter.current() != 0, \"No NFTs are staked\") */\n      tag_19\n      jumpi\n      mload(0x40)\n      shl(0xe5, 0x461bcd)\n      dup2\n      mstore\n        /* \"#utility.yul\":216:218   */\n      0x20\n        /* \"contracts/NFTStaking.sol\":2366:2429  require(_stakedNFTCounter.current() != 0, \"No NFTs are staked\") */\n      0x04\n      dup3\n      add\n        /* \"#utility.yul\":198:219   */\n      mstore\n        /* \"#utility.yul\":255:257   */\n      0x12\n        /* \"#utility.yul\":235:253   */\n      0x24\n      dup3\n      add\n        /* \"#utility.yul\":228:258   */\n      mstore\n      shl(0x72, 0x139bc81391951cc8185c99481cdd185ad959)\n        /* \"#utility.yul\":274:292   */\n      0x44\n      dup3\n      add\n        /* \"#utility.yul\":267:315   */\n      mstore\n        /* \"#utility.yul\":332:350   */\n      0x64\n      add\n        /* \"contracts/NFTStaking.sol\":2366:2429  require(_stakedNFTCounter.current() != 0, \"No NFTs are staked\") */\n    tag_20:\n      mload(0x40)\n      dup1\n      swap2\n      sub\n      swap1\n      revert\n    tag_19:\n        /* \"contracts/NFTStaking.sol\":2439:2459  uint256 sharePerEach */\n      0x00\n        /* \"contracts/NFTStaking.sol\":2474:2501  _stakedNFTCounter.current() */\n      tag_22\n        /* \"contracts/NFTStaking.sol\":2474:2491  _stakedNFTCounter */\n      0x03\n        /* \"@openzeppelin/contracts@4.7.3/utils/Counters.sol\":918:932  counter._value */\n      sload\n      swap1\n        /* \"@openzeppelin/contracts@4.7.3/utils/Counters.sol\":827:939  function current(Counter storage counter) internal view returns (uint256) {... */\n      jump\n        /* \"contracts/NFTStaking.sol\":2474:2501  _stakedNFTCounter.current() */\n    tag_22:\n        /* \"contracts/NFTStaking.sol\":2462:2501  msg.value / _stakedNFTCounter.current() */\n      tag_23\n      swap1\n        /* \"contracts/NFTStaking.sol\":2462:2471  msg.value */\n      callvalue\n        /* \"contracts/NFTStaking.sol\":2462:2501  msg.value / _stakedNFTCounter.current() */\n      tag_24\n      jump\t// in\n    tag_23:\n        /* \"contracts/NFTStaking.sol\":2548:2560  _nftContract */\n      sload(0x02)\n        /* \"contracts/NFTStaking.sol\":2543:2590  INFT(_nftContract).walletOfOwner(address(this)) */\n      mload(0x40)\n      shl(0xe8, 0x438b63)\n      dup2\n      mstore\n        /* \"contracts/NFTStaking.sol\":2584:2588  this */\n      address\n        /* \"contracts/NFTStaking.sol\":2543:2590  INFT(_nftContract).walletOfOwner(address(this)) */\n      0x04\n      dup3\n      add\n        /* \"#utility.yul\":729:780   */\n      mstore\n        /* \"contracts/NFTStaking.sol\":2439:2501  uint256 sharePerEach = msg.value / _stakedNFTCounter.current() */\n      swap2\n      swap3\n      pop\n        /* \"contracts/NFTStaking.sol\":2511:2540  uint256[] memory tokensStaked */\n      0x00\n      swap2\n      sub(shl(0xa0, 0x01), 0x01)\n        /* \"contracts/NFTStaking.sol\":2548:2560  _nftContract */\n      swap1\n      swap2\n      and\n      swap1\n        /* \"contracts/NFTStaking.sol\":2543:2575  INFT(_nftContract).walletOfOwner */\n      0x438b6300\n      swap1\n        /* \"#utility.yul\":702:720   */\n      0x24\n      add\n        /* \"contracts/NFTStaking.sol\":2543:2590  INFT(_nftContract).walletOfOwner(address(this)) */\n      0x00\n      mload(0x40)\n      dup1\n      dup4\n      sub\n      dup2\n      dup7\n      gas\n      staticcall\n      iszero\n      dup1\n      iszero\n      tag_28\n      jumpi\n      returndatasize\n      0x00\n      dup1\n      returndatacopy\n      revert(0x00, returndatasize)\n    tag_28:\n      pop\n      pop\n      pop\n      pop\n      mload(0x40)\n      returndatasize\n      0x00\n      dup3\n      returndatacopy\n      0x1f\n      returndatasize\n      swap1\n      dup2\n      add\n      not(0x1f)\n      and\n      dup3\n      add\n      0x40\n      mstore\n      tag_29\n      swap2\n      swap1\n      dup2\n      add\n      swap1\n      tag_30\n      jump\t// in\n    tag_29:\n        /* \"contracts/NFTStaking.sol\":2511:2590  uint256[] memory tokensStaked = INFT(_nftContract).walletOfOwner(address(this)) */\n      swap1\n      pop\n        /* \"contracts/NFTStaking.sol\":2613:2622  uint256 i */\n      0x00\n        /* \"contracts/NFTStaking.sol\":2609:2746  for(uint256 i = 0; i < tokensStaked.length;){... */\n    tag_31:\n        /* \"contracts/NFTStaking.sol\":2632:2644  tokensStaked */\n      dup2\n        /* \"contracts/NFTStaking.sol\":2632:2651  tokensStaked.length */\n      mload\n        /* \"contracts/NFTStaking.sol\":2628:2629  i */\n      dup2\n        /* \"contracts/NFTStaking.sol\":2628:2651  i < tokensStaked.length */\n      lt\n        /* \"contracts/NFTStaking.sol\":2609:2746  for(uint256 i = 0; i < tokensStaked.length;){... */\n      iszero\n      tag_32\n      jumpi\n        /* \"contracts/NFTStaking.sol\":2694:2706  sharePerEach */\n      dup3\n        /* \"contracts/NFTStaking.sol\":2667:2674  rewards */\n      0x05\n        /* \"contracts/NFTStaking.sol\":2667:2690  rewards[tokenStaked[i]] */\n      0x00\n        /* \"contracts/NFTStaking.sol\":2675:2686  tokenStaked */\n      0x06\n        /* \"contracts/NFTStaking.sol\":2687:2688  i */\n      dup5\n        /* \"contracts/NFTStaking.sol\":2675:2689  tokenStaked[i] */\n      dup2\n      sload\n      dup2\n      lt\n      tag_35\n      jumpi\n      tag_35\n      tag_36\n      jump\t// in\n    tag_35:\n      swap1\n      0x00\n      mstore\n      keccak256(0x00, 0x20)\n      add\n      sload\n        /* \"contracts/NFTStaking.sol\":2667:2690  rewards[tokenStaked[i]] */\n      dup2\n      mstore\n      0x20\n      add\n      swap1\n      dup2\n      mstore\n      0x20\n      add\n      0x00\n      keccak256\n      0x00\n        /* \"contracts/NFTStaking.sol\":2667:2706  rewards[tokenStaked[i]] += sharePerEach */\n      dup3\n      dup3\n      sload\n      tag_38\n      swap2\n      swap1\n      tag_39\n      jump\t// in\n    tag_38:\n      swap1\n      swap2\n      sstore\n      pop\n      pop\n        /* \"contracts/NFTStaking.sol\":2731:2734  ++i */\n      0x01\n      add\n        /* \"contracts/NFTStaking.sol\":2609:2746  for(uint256 i = 0; i < tokensStaked.length;){... */\n      jump(tag_31)\n    tag_32:\n      stop\n        /* \"contracts/NFTStaking.sol\":492:2754  contract SacredTemple is Ownable, ERC721Holder, ReentrancyGuard {... */\n    tag_2:\n      0x00\n      dup1\n      revert\n        /* \"@openzeppelin/contracts@4.7.3/token/ERC721/utils/ERC721Holder.sol\":588:788  function onERC721Received(... */\n    tag_3:\n      callvalue\n      dup1\n      iszero\n      tag_40\n      jumpi\n      0x00\n      dup1\n      revert\n    tag_40:\n      pop\n      tag_41\n      tag_42\n      calldatasize\n      0x04\n      tag_43\n      jump\t// in\n    tag_42:\n      shl(0xe1, 0x0a85bd01)\n      swap5\n      swap4\n      pop\n      pop\n      pop\n      pop\n      jump\n    tag_41:\n      mload(0x40)\n      not(sub(shl(0xe0, 0x01), 0x01))\n        /* \"#utility.yul\":3828:3861   */\n      swap1\n      swap2\n      and\n        /* \"#utility.yul\":3810:3862   */\n      dup2\n      mstore\n        /* \"#utility.yul\":3798:3800   */\n      0x20\n        /* \"#utility.yul\":3783:3801   */\n      add\n        /* \"@openzeppelin/contracts@4.7.3/token/ERC721/utils/ERC721Holder.sol\":588:788  function onERC721Received(... */\n    tag_45:\n      mload(0x40)\n      dup1\n      swap2\n      sub\n      swap1\n      return\n        /* \"contracts/NFTStaking.sol\":1454:1910  function unstake(uint256 tokenId) nonReentrant external {... */\n    tag_4:\n      callvalue\n      dup1\n      iszero\n      tag_47\n      jumpi\n      0x00\n      dup1\n      revert\n    tag_47:\n      pop\n      tag_32\n      tag_49\n      calldatasize\n      0x04\n      tag_50\n      jump\t// in\n    tag_49:\n      tag_51\n      jump\t// in\n        /* \"contracts/NFTStaking.sol\":1916:2206  function claim(uint256 tokenId) nonReentrant external {... */\n    tag_5:\n      callvalue\n      dup1\n      iszero\n      tag_52\n      jumpi\n      0x00\n      dup1\n      revert\n    tag_52:\n      pop\n      tag_32\n      tag_54\n      calldatasize\n      0x04\n      tag_50\n      jump\t// in\n    tag_54:\n      tag_55\n      jump\t// in\n        /* \"@openzeppelin/contracts@4.7.3/access/Ownable.sol\":1831:1932  function renounceOwnership() public virtual onlyOwner {... */\n    tag_6:\n      callvalue\n      dup1\n      iszero\n      tag_56\n      jumpi\n      0x00\n      dup1\n      revert\n    tag_56:\n      pop\n      tag_32\n      tag_58\n      jump\t// in\n        /* \"contracts/NFTStaking.sol\":868:916  mapping (uint256 => address) public tokenOwnedBy */\n    tag_7:\n      callvalue\n      dup1\n      iszero\n      tag_59\n      jumpi\n      0x00\n      dup1\n      revert\n    tag_59:\n      pop\n      tag_60\n      tag_61\n      calldatasize\n      0x04\n      tag_50\n      jump\t// in\n    tag_61:\n      mstore(0x20, 0x04)\n      0x00\n      swap1\n      dup2\n      mstore\n      0x40\n      swap1\n      keccak256\n      sload\n      sub(shl(0xa0, 0x01), 0x01)\n      and\n      dup2\n      jump\n    tag_60:\n      mload(0x40)\n      sub(shl(0xa0, 0x01), 0x01)\n        /* \"#utility.yul\":747:779   */\n      swap1\n      swap2\n      and\n        /* \"#utility.yul\":729:780   */\n      dup2\n      mstore\n        /* \"#utility.yul\":717:719   */\n      0x20\n        /* \"#utility.yul\":702:720   */\n      add\n        /* \"contracts/NFTStaking.sol\":868:916  mapping (uint256 => address) public tokenOwnedBy */\n      tag_45\n        /* \"#utility.yul\":583:786   */\n      jump\n        /* \"@openzeppelin/contracts@4.7.3/access/Ownable.sol\":1201:1286  function owner() public view virtual returns (address) {... */\n    tag_8:\n      callvalue\n      dup1\n      iszero\n      tag_64\n      jumpi\n      0x00\n      dup1\n      revert\n    tag_64:\n      pop\n        /* \"@openzeppelin/contracts@4.7.3/access/Ownable.sol\":1247:1254  address */\n      0x00\n        /* \"@openzeppelin/contracts@4.7.3/access/Ownable.sol\":1273:1279  _owner */\n      sload\n      sub(shl(0xa0, 0x01), 0x01)\n      and\n        /* \"@openzeppelin/contracts@4.7.3/access/Ownable.sol\":1201:1286  function owner() public view virtual returns (address) {... */\n      jump(tag_60)\n        /* \"contracts/NFTStaking.sol\":1198:1448  function stake(uint256 tokenId) external {... */\n    tag_9:\n      callvalue\n      dup1\n      iszero\n      tag_68\n      jumpi\n      0x00\n      dup1\n      revert\n    tag_68:\n      pop\n      tag_32\n      tag_70\n      calldatasize\n      0x04\n      tag_50\n      jump\t// in\n    tag_70:\n      tag_71\n      jump\t// in\n        /* \"contracts/NFTStaking.sol\":2212:2323  function calculateRewards(uint256 tokenId) public view returns(uint256){... */\n    tag_10:\n      callvalue\n      dup1\n      iszero\n      tag_72\n      jumpi\n      0x00\n      dup1\n      revert\n    tag_72:\n      pop\n      tag_73\n      tag_74\n      calldatasize\n      0x04\n      tag_50\n      jump\t// in\n    tag_74:\n        /* \"contracts/NFTStaking.sol\":2275:2282  uint256 */\n      0x00\n        /* \"contracts/NFTStaking.sol\":2300:2316  rewards[tokenId] */\n      swap1\n      dup2\n      mstore\n        /* \"contracts/NFTStaking.sol\":2300:2307  rewards */\n      0x05\n        /* \"contracts/NFTStaking.sol\":2300:2316  rewards[tokenId] */\n      0x20\n      mstore\n      0x40\n      swap1\n      keccak256\n      sload\n      swap1\n        /* \"contracts/NFTStaking.sol\":2212:2323  function calculateRewards(uint256 tokenId) public view returns(uint256){... */\n      jump\n    tag_73:\n      mload(0x40)\n        /* \"#utility.yul\":4204:4229   */\n      swap1\n      dup2\n      mstore\n        /* \"#utility.yul\":4192:4194   */\n      0x20\n        /* \"#utility.yul\":4177:4195   */\n      add\n        /* \"contracts/NFTStaking.sol\":2212:2323  function calculateRewards(uint256 tokenId) public view returns(uint256){... */\n      tag_45\n        /* \"#utility.yul\":4058:4235   */\n      jump\n        /* \"@openzeppelin/contracts@4.7.3/access/Ownable.sol\":2081:2279  function transferOwnership(address newOwner) public virtual onlyOwner {... */\n    tag_11:\n      callvalue\n      dup1\n      iszero\n      tag_78\n      jumpi\n      0x00\n      dup1\n      revert\n    tag_78:\n      pop\n      tag_32\n      tag_80\n      calldatasize\n      0x04\n      tag_81\n      jump\t// in\n    tag_80:\n      tag_82\n      jump\t// in\n        /* \"contracts/NFTStaking.sol\":922:965  mapping (uint256 => uint256) public rewards */\n    tag_12:\n      callvalue\n      dup1\n      iszero\n      tag_83\n      jumpi\n      0x00\n      dup1\n      revert\n    tag_83:\n      pop\n      tag_73\n      tag_85\n      calldatasize\n      0x04\n      tag_50\n      jump\t// in\n    tag_85:\n      mstore(0x20, 0x05)\n      0x00\n      swap1\n      dup2\n      mstore\n      0x40\n      swap1\n      keccak256\n      sload\n      dup2\n      jump\n        /* \"contracts/NFTStaking.sol\":1084:1192  function setNftContact(address nftContract_) external onlyOwner {... */\n    tag_13:\n      callvalue\n      dup1\n      iszero\n      tag_88\n      jumpi\n      0x00\n      dup1\n      revert\n    tag_88:\n      pop\n      tag_32\n      tag_90\n      calldatasize\n      0x04\n      tag_81\n      jump\t// in\n    tag_90:\n      tag_91\n      jump\t// in\n        /* \"contracts/NFTStaking.sol\":1454:1910  function unstake(uint256 tokenId) nonReentrant external {... */\n    tag_51:\n        /* \"@openzeppelin/contracts@4.7.3/security/ReentrancyGuard.sol\":1744:1745  2 */\n      0x02\n        /* \"@openzeppelin/contracts@4.7.3/security/ReentrancyGuard.sol\":2325:2332  _status */\n      sload(0x01)\n        /* \"@openzeppelin/contracts@4.7.3/security/ReentrancyGuard.sol\":2325:2344  _status != _ENTERED */\n      sub\n        /* \"@openzeppelin/contracts@4.7.3/security/ReentrancyGuard.sol\":2317:2380  require(_status != _ENTERED, \"ReentrancyGuard: reentrant call\") */\n      tag_95\n      jumpi\n      mload(0x40)\n      shl(0xe5, 0x461bcd)\n      dup2\n      mstore\n        /* \"#utility.yul\":4633:4635   */\n      0x20\n        /* \"@openzeppelin/contracts@4.7.3/security/ReentrancyGuard.sol\":2317:2380  require(_status != _ENTERED, \"ReentrancyGuard: reentrant call\") */\n      0x04\n      dup3\n      add\n        /* \"#utility.yul\":4615:4636   */\n      mstore\n        /* \"#utility.yul\":4672:4674   */\n      0x1f\n        /* \"#utility.yul\":4652:4670   */\n      0x24\n      dup3\n      add\n        /* \"#utility.yul\":4645:4675   */\n      mstore\n        /* \"#utility.yul\":4711:4744   */\n      0x5265656e7472616e637947756172643a207265656e7472616e742063616c6c00\n        /* \"#utility.yul\":4691:4709   */\n      0x44\n      dup3\n      add\n        /* \"#utility.yul\":4684:4745   */\n      mstore\n        /* \"#utility.yul\":4762:4780   */\n      0x64\n      add\n        /* \"@openzeppelin/contracts@4.7.3/security/ReentrancyGuard.sol\":2317:2380  require(_status != _ENTERED, \"ReentrancyGuard: reentrant call\") */\n      tag_20\n        /* \"#utility.yul\":4431:4786   */\n      jump\n        /* \"@openzeppelin/contracts@4.7.3/security/ReentrancyGuard.sol\":2317:2380  require(_status != _ENTERED, \"ReentrancyGuard: reentrant call\") */\n    tag_95:\n        /* \"@openzeppelin/contracts@4.7.3/security/ReentrancyGuard.sol\":1744:1745  2 */\n      0x02\n        /* \"@openzeppelin/contracts@4.7.3/security/ReentrancyGuard.sol\":2455:2462  _status */\n      0x01\n        /* \"@openzeppelin/contracts@4.7.3/security/ReentrancyGuard.sol\":2455:2473  _status = _ENTERED */\n      sstore\n        /* \"contracts/NFTStaking.sol\":1528:1549  tokenOwnedBy[tokenId] */\n      0x00\n      dup2\n      dup2\n      mstore\n        /* \"contracts/NFTStaking.sol\":1528:1540  tokenOwnedBy */\n      0x04\n        /* \"contracts/NFTStaking.sol\":1528:1549  tokenOwnedBy[tokenId] */\n      0x20\n      mstore\n      0x40\n      swap1\n      keccak256\n      sload\n      sub(shl(0xa0, 0x01), 0x01)\n      and\n        /* \"contracts/NFTStaking.sol\":1553:1563  msg.sender */\n      caller\n        /* \"contracts/NFTStaking.sol\":1528:1563  tokenOwnedBy[tokenId] == msg.sender */\n      eq\n        /* \"contracts/NFTStaking.sol\":1520:1590  require(tokenOwnedBy[tokenId] == msg.sender, \"You are not the owner.\") */\n      tag_99\n      jumpi\n      mload(0x40)\n      shl(0xe5, 0x461bcd)\n      dup2\n      mstore\n        /* \"#utility.yul\":4993:4995   */\n      0x20\n        /* \"contracts/NFTStaking.sol\":1520:1590  require(tokenOwnedBy[tokenId] == msg.sender, \"You are not the owner.\") */\n      0x04\n      dup3\n      add\n        /* \"#utility.yul\":4975:4996   */\n      mstore\n        /* \"#utility.yul\":5032:5034   */\n      0x16\n        /* \"#utility.yul\":5012:5030   */\n      0x24\n      dup3\n      add\n        /* \"#utility.yul\":5005:5035   */\n      mstore\n      shl(0x51, 0x2cb7ba9030b932903737ba103a34329037bbb732b917)\n        /* \"#utility.yul\":5051:5069   */\n      0x44\n      dup3\n      add\n        /* \"#utility.yul\":5044:5096   */\n      mstore\n        /* \"#utility.yul\":5113:5131   */\n      0x64\n      add\n        /* \"contracts/NFTStaking.sol\":1520:1590  require(tokenOwnedBy[tokenId] == msg.sender, \"You are not the owner.\") */\n      tag_20\n        /* \"#utility.yul\":4791:5137   */\n      jump\n        /* \"contracts/NFTStaking.sol\":1520:1590  require(tokenOwnedBy[tokenId] == msg.sender, \"You are not the owner.\") */\n    tag_99:\n        /* \"contracts/NFTStaking.sol\":1607:1628  tokenOwnedBy[tokenId] */\n      0x00\n      dup2\n      dup2\n      mstore\n        /* \"contracts/NFTStaking.sol\":1607:1619  tokenOwnedBy */\n      0x04\n        /* \"contracts/NFTStaking.sol\":1607:1628  tokenOwnedBy[tokenId] */\n      0x20\n      mstore\n      0x40\n      swap1\n      keccak256\n        /* \"contracts/NFTStaking.sol\":1600:1628  delete tokenOwnedBy[tokenId] */\n      dup1\n      sload\n      not(sub(shl(0xa0, 0x01), 0x01))\n      and\n      swap1\n      sstore\n        /* \"contracts/NFTStaking.sol\":1638:1667  _stakedNFTCounter.decrement() */\n      tag_102\n        /* \"contracts/NFTStaking.sol\":1638:1655  _stakedNFTCounter */\n      0x03\n        /* \"contracts/NFTStaking.sol\":1638:1665  _stakedNFTCounter.decrement */\n      tag_103\n        /* \"contracts/NFTStaking.sol\":1638:1667  _stakedNFTCounter.decrement() */\n      jump\t// in\n    tag_102:\n        /* \"contracts/NFTStaking.sol\":1678:1690  bool success */\n      0x00\n        /* \"contracts/NFTStaking.sol\":1704:1725  tokenOwnedBy[tokenId] */\n      dup2\n      dup2\n      mstore\n        /* \"contracts/NFTStaking.sol\":1704:1716  tokenOwnedBy */\n      0x04\n        /* \"contracts/NFTStaking.sol\":1704:1725  tokenOwnedBy[tokenId] */\n      0x20\n      swap1\n      dup2\n      mstore\n      0x40\n      dup1\n      dup4\n      keccak256\n      sload\n        /* \"contracts/NFTStaking.sol\":1739:1746  rewards */\n      0x05\n        /* \"contracts/NFTStaking.sol\":1739:1755  rewards[tokenId] */\n      swap1\n      swap3\n      mstore\n      dup1\n      dup4\n      keccak256\n      sload\n        /* \"contracts/NFTStaking.sol\":1696:1760  payable(tokenOwnedBy[tokenId]).call{value: rewards[tokenId]}(\"\") */\n      swap1\n      mload\n      sub(shl(0xa0, 0x01), 0x01)\n        /* \"contracts/NFTStaking.sol\":1704:1725  tokenOwnedBy[tokenId] */\n      swap1\n      swap3\n      and\n      swap2\n        /* \"contracts/NFTStaking.sol\":1678:1690  bool success */\n      dup4\n        /* \"contracts/NFTStaking.sol\":1696:1760  payable(tokenOwnedBy[tokenId]).call{value: rewards[tokenId]}(\"\") */\n      dup2\n        /* \"contracts/NFTStaking.sol\":1678:1690  bool success */\n      dup2\n        /* \"contracts/NFTStaking.sol\":1696:1760  payable(tokenOwnedBy[tokenId]).call{value: rewards[tokenId]}(\"\") */\n      dup2\n        /* \"contracts/NFTStaking.sol\":1739:1755  rewards[tokenId] */\n      dup6\n        /* \"contracts/NFTStaking.sol\":1704:1725  tokenOwnedBy[tokenId] */\n      dup8\n        /* \"contracts/NFTStaking.sol\":1696:1760  payable(tokenOwnedBy[tokenId]).call{value: rewards[tokenId]}(\"\") */\n      gas\n      call\n      swap3\n      pop\n      pop\n      pop\n      returndatasize\n      dup1\n      0x00\n      dup2\n      eq\n      tag_108\n      jumpi\n      mload(0x40)\n      swap2\n      pop\n      and(add(returndatasize, 0x3f), not(0x1f))\n      dup3\n      add\n      0x40\n      mstore\n      returndatasize\n      dup3\n      mstore\n      returndatasize\n      0x00\n      0x20\n      dup5\n      add\n      returndatacopy\n      jump(tag_107)\n    tag_108:\n      0x60\n      swap2\n      pop\n    tag_107:\n      pop\n        /* \"contracts/NFTStaking.sol\":1677:1760  (bool success, ) = payable(tokenOwnedBy[tokenId]).call{value: rewards[tokenId]}(\"\") */\n      pop\n      swap1\n      pop\n        /* \"contracts/NFTStaking.sol\":1778:1785  success */\n      dup1\n        /* \"contracts/NFTStaking.sol\":1770:1786  require(success) */\n      tag_109\n      jumpi\n      0x00\n      dup1\n      revert\n    tag_109:\n        /* \"contracts/NFTStaking.sol\":1803:1819  rewards[tokenId] */\n      0x00\n      dup3\n      dup2\n      mstore\n        /* \"contracts/NFTStaking.sol\":1803:1810  rewards */\n      0x05\n        /* \"contracts/NFTStaking.sol\":1803:1819  rewards[tokenId] */\n      0x20\n      mstore\n      0x40\n      dup1\n      dup3\n      keccak256\n        /* \"contracts/NFTStaking.sol\":1796:1819  delete rewards[tokenId] */\n      swap2\n      swap1\n      swap2\n      sstore\n        /* \"contracts/NFTStaking.sol\":1837:1849  _nftContract */\n      sload(0x02)\n        /* \"contracts/NFTStaking.sol\":1829:1903  IERC721(_nftContract).safeTransferFrom(address(this), msg.sender, tokenId) */\n      swap1\n      mload\n      shl(0xe1, 0x21421707)\n      dup2\n      mstore\n        /* \"contracts/NFTStaking.sol\":1876:1880  this */\n      address\n        /* \"contracts/NFTStaking.sol\":1829:1903  IERC721(_nftContract).safeTransferFrom(address(this), msg.sender, tokenId) */\n      0x04\n      dup3\n      add\n        /* \"#utility.yul\":5592:5626   */\n      mstore\n        /* \"contracts/NFTStaking.sol\":1883:1893  msg.sender */\n      caller\n        /* \"#utility.yul\":5642:5660   */\n      0x24\n      dup3\n      add\n        /* \"#utility.yul\":5635:5678   */\n      mstore\n        /* \"#utility.yul\":5694:5712   */\n      0x44\n      dup2\n      add\n        /* \"#utility.yul\":5687:5721   */\n      dup5\n      swap1\n      mstore\n      sub(shl(0xa0, 0x01), 0x01)\n        /* \"contracts/NFTStaking.sol\":1837:1849  _nftContract */\n      swap1\n      swap2\n      and\n      swap1\n        /* \"contracts/NFTStaking.sol\":1829:1867  IERC721(_nftContract).safeTransferFrom */\n      0x42842e0e\n      swap1\n        /* \"#utility.yul\":5527:5545   */\n      0x64\n      add\n        /* \"contracts/NFTStaking.sol\":1829:1903  IERC721(_nftContract).safeTransferFrom(address(this), msg.sender, tokenId) */\n      0x00\n      mload(0x40)\n      dup1\n      dup4\n      sub\n      dup2\n      0x00\n      dup8\n      dup1\n      extcodesize\n      iszero\n      dup1\n      iszero\n      tag_112\n      jumpi\n      0x00\n      dup1\n      revert\n    tag_112:\n      pop\n      gas\n      call\n      iszero\n      dup1\n      iszero\n      tag_114\n      jumpi\n      returndatasize\n      0x00\n      dup1\n      returndatacopy\n      revert(0x00, returndatasize)\n    tag_114:\n      pop\n      pop\n        /* \"@openzeppelin/contracts@4.7.3/security/ReentrancyGuard.sol\":1701:1702  1 */\n      0x01\n        /* \"@openzeppelin/contracts@4.7.3/security/ReentrancyGuard.sol\":2628:2650  _status = _NOT_ENTERED */\n      dup1\n      sstore\n      pop\n      pop\n      pop\n      pop\n        /* \"contracts/NFTStaking.sol\":1454:1910  function unstake(uint256 tokenId) nonReentrant external {... */\n      jump\t// out\n        /* \"contracts/NFTStaking.sol\":1916:2206  function claim(uint256 tokenId) nonReentrant external {... */\n    tag_55:\n        /* \"@openzeppelin/contracts@4.7.3/security/ReentrancyGuard.sol\":1744:1745  2 */\n      0x02\n        /* \"@openzeppelin/contracts@4.7.3/security/ReentrancyGuard.sol\":2325:2332  _status */\n      sload(0x01)\n        /* \"@openzeppelin/contracts@4.7.3/security/ReentrancyGuard.sol\":2325:2344  _status != _ENTERED */\n      sub\n        /* \"@openzeppelin/contracts@4.7.3/security/ReentrancyGuard.sol\":2317:2380  require(_status != _ENTERED, \"ReentrancyGuard: reentrant call\") */\n      tag_116\n      jumpi\n      mload(0x40)\n      shl(0xe5, 0x461bcd)\n      dup2\n      mstore\n        /* \"#utility.yul\":4633:4635   */\n      0x20\n        /* \"@openzeppelin/contracts@4.7.3/security/ReentrancyGuard.sol\":2317:2380  require(_status != _ENTERED, \"ReentrancyGuard: reentrant call\") */\n      0x04\n      dup3\n      add\n        /* \"#utility.yul\":4615:4636   */\n      mstore\n        /* \"#utility.yul\":4672:4674   */\n      0x1f\n        /* \"#utility.yul\":4652:4670   */\n      0x24\n      dup3\n      add\n        /* \"#utility.yul\":4645:4675   */\n      mstore\n        /* \"#utility.yul\":4711:4744   */\n      0x5265656e7472616e637947756172643a207265656e7472616e742063616c6c00\n        /* \"#utility.yul\":4691:4709   */\n      0x44\n      dup3\n      add\n        /* \"#utility.yul\":4684:4745   */\n      mstore\n        /* \"#utility.yul\":4762:4780   */\n      0x64\n      add\n        /* \"@openzeppelin/contracts@4.7.3/security/ReentrancyGuard.sol\":2317:2380  require(_status != _ENTERED, \"ReentrancyGuard: reentrant call\") */\n      tag_20\n        /* \"#utility.yul\":4431:4786   */\n      jump\n        /* \"@openzeppelin/contracts@4.7.3/security/ReentrancyGuard.sol\":2317:2380  require(_status != _ENTERED, \"ReentrancyGuard: reentrant call\") */\n    tag_116:\n        /* \"@openzeppelin/contracts@4.7.3/security/ReentrancyGuard.sol\":1744:1745  2 */\n      0x02\n        /* \"@openzeppelin/contracts@4.7.3/security/ReentrancyGuard.sol\":2455:2462  _status */\n      0x01\n        /* \"@openzeppelin/contracts@4.7.3/security/ReentrancyGuard.sol\":2455:2473  _status = _ENTERED */\n      sstore\n        /* \"contracts/NFTStaking.sol\":1988:2009  tokenOwnedBy[tokenId] */\n      0x00\n      dup2\n      dup2\n      mstore\n        /* \"contracts/NFTStaking.sol\":1988:2000  tokenOwnedBy */\n      0x04\n        /* \"contracts/NFTStaking.sol\":1988:2009  tokenOwnedBy[tokenId] */\n      0x20\n      mstore\n      0x40\n      swap1\n      keccak256\n      sload\n      sub(shl(0xa0, 0x01), 0x01)\n      and\n        /* \"contracts/NFTStaking.sol\":2013:2023  msg.sender */\n      caller\n        /* \"contracts/NFTStaking.sol\":1988:2023  tokenOwnedBy[tokenId] == msg.sender */\n      eq\n        /* \"contracts/NFTStaking.sol\":1980:2050  require(tokenOwnedBy[tokenId] == msg.sender, \"You are not the owner.\") */\n      tag_119\n      jumpi\n      mload(0x40)\n      shl(0xe5, 0x461bcd)\n      dup2\n      mstore\n        /* \"#utility.yul\":4993:4995   */\n      0x20\n        /* \"contracts/NFTStaking.sol\":1980:2050  require(tokenOwnedBy[tokenId] == msg.sender, \"You are not the owner.\") */\n      0x04\n      dup3\n      add\n        /* \"#utility.yul\":4975:4996   */\n      mstore\n        /* \"#utility.yul\":5032:5034   */\n      0x16\n        /* \"#utility.yul\":5012:5030   */\n      0x24\n      dup3\n      add\n        /* \"#utility.yul\":5005:5035   */\n      mstore\n      shl(0x51, 0x2cb7ba9030b932903737ba103a34329037bbb732b917)\n        /* \"#utility.yul\":5051:5069   */\n      0x44\n      dup3\n      add\n        /* \"#utility.yul\":5044:5096   */\n      mstore\n        /* \"#utility.yul\":5113:5131   */\n      0x64\n      add\n        /* \"contracts/NFTStaking.sol\":1980:2050  require(tokenOwnedBy[tokenId] == msg.sender, \"You are not the owner.\") */\n      tag_20\n        /* \"#utility.yul\":4791:5137   */\n      jump\n        /* \"contracts/NFTStaking.sol\":1980:2050  require(tokenOwnedBy[tokenId] == msg.sender, \"You are not the owner.\") */\n    tag_119:\n        /* \"contracts/NFTStaking.sol\":2061:2073  bool success */\n      0x00\n        /* \"contracts/NFTStaking.sol\":2087:2108  tokenOwnedBy[tokenId] */\n      dup2\n      dup2\n      mstore\n        /* \"contracts/NFTStaking.sol\":2087:2099  tokenOwnedBy */\n      0x04\n        /* \"contracts/NFTStaking.sol\":2087:2108  tokenOwnedBy[tokenId] */\n      0x20\n      swap1\n      dup2\n      mstore\n      0x40\n      dup1\n      dup4\n      keccak256\n      sload\n        /* \"contracts/NFTStaking.sol\":2122:2129  rewards */\n      0x05\n        /* \"contracts/NFTStaking.sol\":2122:2138  rewards[tokenId] */\n      swap1\n      swap3\n      mstore\n      dup1\n      dup4\n      keccak256\n      sload\n        /* \"contracts/NFTStaking.sol\":2079:2143  payable(tokenOwnedBy[tokenId]).call{value: rewards[tokenId]}(\"\") */\n      swap1\n      mload\n      sub(shl(0xa0, 0x01), 0x01)\n        /* \"contracts/NFTStaking.sol\":2087:2108  tokenOwnedBy[tokenId] */\n      swap1\n      swap3\n      and\n      swap2\n        /* \"contracts/NFTStaking.sol\":2061:2073  bool success */\n      dup4\n        /* \"contracts/NFTStaking.sol\":2079:2143  payable(tokenOwnedBy[tokenId]).call{value: rewards[tokenId]}(\"\") */\n      dup2\n        /* \"contracts/NFTStaking.sol\":2061:2073  bool success */\n      dup2\n        /* \"contracts/NFTStaking.sol\":2079:2143  payable(tokenOwnedBy[tokenId]).call{value: rewards[tokenId]}(\"\") */\n      dup2\n        /* \"contracts/NFTStaking.sol\":2122:2138  rewards[tokenId] */\n      dup6\n        /* \"contracts/NFTStaking.sol\":2087:2108  tokenOwnedBy[tokenId] */\n      dup8\n        /* \"contracts/NFTStaking.sol\":2079:2143  payable(tokenOwnedBy[tokenId]).call{value: rewards[tokenId]}(\"\") */\n      gas\n      call\n      swap3\n      pop\n      pop\n      pop\n      returndatasize\n      dup1\n      0x00\n      dup2\n      eq\n      tag_124\n      jumpi\n      mload(0x40)\n      swap2\n      pop\n      and(add(returndatasize, 0x3f), not(0x1f))\n      dup3\n      add\n      0x40\n      mstore\n      returndatasize\n      dup3\n      mstore\n      returndatasize\n      0x00\n      0x20\n      dup5\n      add\n      returndatacopy\n      jump(tag_123)\n    tag_124:\n      0x60\n      swap2\n      pop\n    tag_123:\n      pop\n        /* \"contracts/NFTStaking.sol\":2060:2143  (bool success, ) = payable(tokenOwnedBy[tokenId]).call{value: rewards[tokenId]}(\"\") */\n      pop\n      swap1\n      pop\n        /* \"contracts/NFTStaking.sol\":2161:2168  success */\n      dup1\n        /* \"contracts/NFTStaking.sol\":2153:2169  require(success) */\n      tag_125\n      jumpi\n      0x00\n      dup1\n      revert\n    tag_125:\n      pop\n        /* \"contracts/NFTStaking.sol\":2198:2199  0 */\n      0x00\n        /* \"contracts/NFTStaking.sol\":2179:2195  rewards[tokenId] */\n      swap1\n      dup2\n      mstore\n        /* \"contracts/NFTStaking.sol\":2179:2186  rewards */\n      0x05\n        /* \"contracts/NFTStaking.sol\":2179:2195  rewards[tokenId] */\n      0x20\n      mstore\n      0x40\n      dup2\n      keccak256\n        /* \"contracts/NFTStaking.sol\":2179:2199  rewards[tokenId] = 0 */\n      sstore\n        /* \"@openzeppelin/contracts@4.7.3/security/ReentrancyGuard.sol\":1701:1702  1 */\n      0x01\n        /* \"@openzeppelin/contracts@4.7.3/security/ReentrancyGuard.sol\":2628:2650  _status = _NOT_ENTERED */\n      dup1\n      sstore\n        /* \"contracts/NFTStaking.sol\":1916:2206  function claim(uint256 tokenId) nonReentrant external {... */\n      jump\t// out\n        /* \"@openzeppelin/contracts@4.7.3/access/Ownable.sol\":1831:1932  function renounceOwnership() public virtual onlyOwner {... */\n    tag_58:\n        /* \"@openzeppelin/contracts@4.7.3/access/Ownable.sol\":1094:1107  _checkOwner() */\n      tag_127\n        /* \"@openzeppelin/contracts@4.7.3/access/Ownable.sol\":1094:1105  _checkOwner */\n      tag_128\n        /* \"@openzeppelin/contracts@4.7.3/access/Ownable.sol\":1094:1107  _checkOwner() */\n      jump\t// in\n    tag_127:\n        /* \"@openzeppelin/contracts@4.7.3/access/Ownable.sol\":1895:1925  _transferOwnership(address(0)) */\n      tag_130\n        /* \"@openzeppelin/contracts@4.7.3/access/Ownable.sol\":1922:1923  0 */\n      0x00\n        /* \"@openzeppelin/contracts@4.7.3/access/Ownable.sol\":1895:1913  _transferOwnership */\n      tag_131\n        /* \"@openzeppelin/contracts@4.7.3/access/Ownable.sol\":1895:1925  _transferOwnership(address(0)) */\n      jump\t// in\n    tag_130:\n        /* \"@openzeppelin/contracts@4.7.3/access/Ownable.sol\":1831:1932  function renounceOwnership() public virtual onlyOwner {... */\n      jump\t// out\n        /* \"contracts/NFTStaking.sol\":1198:1448  function stake(uint256 tokenId) external {... */\n    tag_71:\n        /* \"contracts/NFTStaking.sol\":1257:1269  _nftContract */\n      sload(0x02)\n        /* \"contracts/NFTStaking.sol\":1249:1323  IERC721(_nftContract).safeTransferFrom(msg.sender, address(this), tokenId) */\n      mload(0x40)\n      shl(0xe1, 0x21421707)\n      dup2\n      mstore\n        /* \"contracts/NFTStaking.sol\":1288:1298  msg.sender */\n      caller\n        /* \"contracts/NFTStaking.sol\":1249:1323  IERC721(_nftContract).safeTransferFrom(msg.sender, address(this), tokenId) */\n      0x04\n      dup3\n      add\n        /* \"#utility.yul\":5592:5626   */\n      mstore\n        /* \"contracts/NFTStaking.sol\":1308:1312  this */\n      address\n        /* \"#utility.yul\":5642:5660   */\n      0x24\n      dup3\n      add\n        /* \"#utility.yul\":5635:5678   */\n      mstore\n        /* \"#utility.yul\":5694:5712   */\n      0x44\n      dup2\n      add\n        /* \"#utility.yul\":5687:5721   */\n      dup4\n      swap1\n      mstore\n      sub(shl(0xa0, 0x01), 0x01)\n        /* \"contracts/NFTStaking.sol\":1257:1269  _nftContract */\n      swap1\n      swap2\n      and\n      swap1\n        /* \"contracts/NFTStaking.sol\":1249:1287  IERC721(_nftContract).safeTransferFrom */\n      0x42842e0e\n      swap1\n        /* \"#utility.yul\":5527:5545   */\n      0x64\n      add\n        /* \"contracts/NFTStaking.sol\":1249:1323  IERC721(_nftContract).safeTransferFrom(msg.sender, address(this), tokenId) */\n      0x00\n      mload(0x40)\n      dup1\n      dup4\n      sub\n      dup2\n      0x00\n      dup8\n      dup1\n      extcodesize\n      iszero\n      dup1\n      iszero\n      tag_135\n      jumpi\n      0x00\n      dup1\n      revert\n    tag_135:\n      pop\n      gas\n      call\n      iszero\n      dup1\n      iszero\n      tag_137\n      jumpi\n      returndatasize\n      0x00\n      dup1\n      returndatacopy\n      revert(0x00, returndatasize)\n    tag_137:\n      pop\n      pop\n      pop\n        /* \"contracts/NFTStaking.sol\":1333:1354  tokenOwnedBy[tokenId] */\n      0x00\n      dup3\n      dup2\n      mstore\n        /* \"contracts/NFTStaking.sol\":1333:1345  tokenOwnedBy */\n      0x04\n        /* \"contracts/NFTStaking.sol\":1333:1354  tokenOwnedBy[tokenId] */\n      0x20\n      mstore\n      0x40\n      dup2\n      keccak256\n        /* \"contracts/NFTStaking.sol\":1333:1367  tokenOwnedBy[tokenId] = msg.sender */\n      dup1\n      sload\n      not(sub(shl(0xa0, 0x01), 0x01))\n      and\n        /* \"contracts/NFTStaking.sol\":1357:1367  msg.sender */\n      caller\n        /* \"contracts/NFTStaking.sol\":1333:1367  tokenOwnedBy[tokenId] = msg.sender */\n      or\n      swap1\n      sstore\n        /* \"contracts/NFTStaking.sol\":1377:1388  tokenStaked */\n      0x06\n        /* \"contracts/NFTStaking.sol\":1377:1402  tokenStaked.push(tokenId) */\n      dup1\n      sload\n        /* \"contracts/NFTStaking.sol\":1333:1367  tokenOwnedBy[tokenId] = msg.sender */\n      0x01\n        /* \"contracts/NFTStaking.sol\":1377:1402  tokenStaked.push(tokenId) */\n      dup2\n      add\n      dup3\n      sstore\n      swap2\n      mstore\n      0xf652222313e28459528d920b65115c16c04f3efc82aaedc97be59f3f377c0d3f\n      add\n      dup3\n      swap1\n      sstore\n      pop\n        /* \"contracts/NFTStaking.sol\":1412:1441  _stakedNFTCounter.increment() */\n      tag_139\n        /* \"contracts/NFTStaking.sol\":1412:1429  _stakedNFTCounter */\n      0x03\n        /* \"@openzeppelin/contracts@4.7.3/utils/Counters.sol\":1032:1051  counter._value += 1 */\n      dup1\n      sload\n        /* \"@openzeppelin/contracts@4.7.3/utils/Counters.sol\":1050:1051  1 */\n      0x01\n        /* \"@openzeppelin/contracts@4.7.3/utils/Counters.sol\":1032:1051  counter._value += 1 */\n      add\n      swap1\n      sstore\n        /* \"@openzeppelin/contracts@4.7.3/utils/Counters.sol\":945:1068  function increment(Counter storage counter) internal {... */\n      jump\n        /* \"contracts/NFTStaking.sol\":1412:1441  _stakedNFTCounter.increment() */\n    tag_139:\n        /* \"contracts/NFTStaking.sol\":1198:1448  function stake(uint256 tokenId) external {... */\n      pop\n      jump\t// out\n        /* \"@openzeppelin/contracts@4.7.3/access/Ownable.sol\":2081:2279  function transferOwnership(address newOwner) public virtual onlyOwner {... */\n    tag_82:\n        /* \"@openzeppelin/contracts@4.7.3/access/Ownable.sol\":1094:1107  _checkOwner() */\n      tag_143\n        /* \"@openzeppelin/contracts@4.7.3/access/Ownable.sol\":1094:1105  _checkOwner */\n      tag_128\n        /* \"@openzeppelin/contracts@4.7.3/access/Ownable.sol\":1094:1107  _checkOwner() */\n      jump\t// in\n    tag_143:\n      sub(shl(0xa0, 0x01), 0x01)\n        /* \"@openzeppelin/contracts@4.7.3/access/Ownable.sol\":2169:2191  newOwner != address(0) */\n      dup2\n      and\n        /* \"@openzeppelin/contracts@4.7.3/access/Ownable.sol\":2161:2234  require(newOwner != address(0), \"Ownable: new owner is the zero address\") */\n      tag_145\n      jumpi\n      mload(0x40)\n      shl(0xe5, 0x461bcd)\n      dup2\n      mstore\n        /* \"#utility.yul\":5934:5936   */\n      0x20\n        /* \"@openzeppelin/contracts@4.7.3/access/Ownable.sol\":2161:2234  require(newOwner != address(0), \"Ownable: new owner is the zero address\") */\n      0x04\n      dup3\n      add\n        /* \"#utility.yul\":5916:5937   */\n      mstore\n        /* \"#utility.yul\":5973:5975   */\n      0x26\n        /* \"#utility.yul\":5953:5971   */\n      0x24\n      dup3\n      add\n        /* \"#utility.yul\":5946:5976   */\n      mstore\n        /* \"#utility.yul\":6012:6046   */\n      0x4f776e61626c653a206e6577206f776e657220697320746865207a65726f2061\n        /* \"#utility.yul\":5992:6010   */\n      0x44\n      dup3\n      add\n        /* \"#utility.yul\":5985:6047   */\n      mstore\n      shl(0xd0, 0x646472657373)\n        /* \"#utility.yul\":6063:6081   */\n      0x64\n      dup3\n      add\n        /* \"#utility.yul\":6056:6092   */\n      mstore\n        /* \"#utility.yul\":6109:6128   */\n      0x84\n      add\n        /* \"@openzeppelin/contracts@4.7.3/access/Ownable.sol\":2161:2234  require(newOwner != address(0), \"Ownable: new owner is the zero address\") */\n      tag_20\n        /* \"#utility.yul\":5732:6134   */\n      jump\n        /* \"@openzeppelin/contracts@4.7.3/access/Ownable.sol\":2161:2234  require(newOwner != address(0), \"Ownable: new owner is the zero address\") */\n    tag_145:\n        /* \"@openzeppelin/contracts@4.7.3/access/Ownable.sol\":2244:2272  _transferOwnership(newOwner) */\n      tag_139\n        /* \"@openzeppelin/contracts@4.7.3/access/Ownable.sol\":2263:2271  newOwner */\n      dup2\n        /* \"@openzeppelin/contracts@4.7.3/access/Ownable.sol\":2244:2262  _transferOwnership */\n      tag_131\n        /* \"@openzeppelin/contracts@4.7.3/access/Ownable.sol\":2244:2272  _transferOwnership(newOwner) */\n      jump\t// in\n        /* \"contracts/NFTStaking.sol\":1084:1192  function setNftContact(address nftContract_) external onlyOwner {... */\n    tag_91:\n        /* \"@openzeppelin/contracts@4.7.3/access/Ownable.sol\":1094:1107  _checkOwner() */\n      tag_150\n        /* \"@openzeppelin/contracts@4.7.3/access/Ownable.sol\":1094:1105  _checkOwner */\n      tag_128\n        /* \"@openzeppelin/contracts@4.7.3/access/Ownable.sol\":1094:1107  _checkOwner() */\n      jump\t// in\n    tag_150:\n        /* \"contracts/NFTStaking.sol\":1158:1170  _nftContract */\n      0x02\n        /* \"contracts/NFTStaking.sol\":1158:1185  _nftContract = nftContract_ */\n      dup1\n      sload\n      not(sub(shl(0xa0, 0x01), 0x01))\n      and\n      sub(shl(0xa0, 0x01), 0x01)\n      swap3\n      swap1\n      swap3\n      and\n      swap2\n      swap1\n      swap2\n      or\n      swap1\n      sstore\n        /* \"contracts/NFTStaking.sol\":1084:1192  function setNftContact(address nftContract_) external onlyOwner {... */\n      jump\t// out\n        /* \"@openzeppelin/contracts@4.7.3/utils/Counters.sol\":1074:1303  function decrement(Counter storage counter) internal {... */\n    tag_103:\n        /* \"@openzeppelin/contracts@4.7.3/utils/Counters.sol\":1153:1167  counter._value */\n      dup1\n      sload\n        /* \"@openzeppelin/contracts@4.7.3/utils/Counters.sol\":1185:1194  value > 0 */\n      dup1\n        /* \"@openzeppelin/contracts@4.7.3/utils/Counters.sol\":1177:1226  require(value > 0, \"Counter: decrement overflow\") */\n      tag_153\n      jumpi\n      mload(0x40)\n      shl(0xe5, 0x461bcd)\n      dup2\n      mstore\n        /* \"#utility.yul\":6341:6343   */\n      0x20\n        /* \"@openzeppelin/contracts@4.7.3/utils/Counters.sol\":1177:1226  require(value > 0, \"Counter: decrement overflow\") */\n      0x04\n      dup3\n      add\n        /* \"#utility.yul\":6323:6344   */\n      mstore\n        /* \"#utility.yul\":6380:6382   */\n      0x1b\n        /* \"#utility.yul\":6360:6378   */\n      0x24\n      dup3\n      add\n        /* \"#utility.yul\":6353:6383   */\n      mstore\n        /* \"#utility.yul\":6419:6448   */\n      0x436f756e7465723a2064656372656d656e74206f766572666c6f770000000000\n        /* \"#utility.yul\":6399:6417   */\n      0x44\n      dup3\n      add\n        /* \"#utility.yul\":6392:6449   */\n      mstore\n        /* \"#utility.yul\":6466:6484   */\n      0x64\n      add\n        /* \"@openzeppelin/contracts@4.7.3/utils/Counters.sol\":1177:1226  require(value > 0, \"Counter: decrement overflow\") */\n      tag_20\n        /* \"#utility.yul\":6139:6490   */\n      jump\n        /* \"@openzeppelin/contracts@4.7.3/utils/Counters.sol\":1177:1226  require(value > 0, \"Counter: decrement overflow\") */\n    tag_153:\n      not(0x00)\n        /* \"@openzeppelin/contracts@4.7.3/utils/Counters.sol\":1277:1286  value - 1 */\n      add\n        /* \"@openzeppelin/contracts@4.7.3/utils/Counters.sol\":1260:1286  counter._value = value - 1 */\n      swap1\n      sstore\n        /* \"@openzeppelin/contracts@4.7.3/utils/Counters.sol\":1074:1303  function decrement(Counter storage counter) internal {... */\n      jump\t// out\n        /* \"@openzeppelin/contracts@4.7.3/access/Ownable.sol\":1359:1489  function _checkOwner() internal view virtual {... */\n    tag_128:\n        /* \"@openzeppelin/contracts@4.7.3/access/Ownable.sol\":1247:1254  address */\n      0x00\n        /* \"@openzeppelin/contracts@4.7.3/access/Ownable.sol\":1273:1279  _owner */\n      sload\n      sub(shl(0xa0, 0x01), 0x01)\n      and\n        /* \"@openzeppelin/contracts@4.7.3/utils/Context.sol\":719:729  msg.sender */\n      caller\n        /* \"@openzeppelin/contracts@4.7.3/access/Ownable.sol\":1422:1445  owner() == _msgSender() */\n      eq\n        /* \"@openzeppelin/contracts@4.7.3/access/Ownable.sol\":1414:1482  require(owner() == _msgSender(), \"Ownable: caller is not the owner\") */\n      tag_130\n      jumpi\n      mload(0x40)\n      shl(0xe5, 0x461bcd)\n      dup2\n      mstore\n        /* \"#utility.yul\":6697:6699   */\n      0x20\n        /* \"@openzeppelin/contracts@4.7.3/access/Ownable.sol\":1414:1482  require(owner() == _msgSender(), \"Ownable: caller is not the owner\") */\n      0x04\n      dup3\n      add\n        /* \"#utility.yul\":6679:6700   */\n      dup2\n      swap1\n      mstore\n        /* \"#utility.yul\":6716:6734   */\n      0x24\n      dup3\n      add\n        /* \"#utility.yul\":6709:6739   */\n      mstore\n        /* \"#utility.yul\":6775:6809   */\n      0x4f776e61626c653a2063616c6c6572206973206e6f7420746865206f776e6572\n        /* \"#utility.yul\":6755:6773   */\n      0x44\n      dup3\n      add\n        /* \"#utility.yul\":6748:6810   */\n      mstore\n        /* \"#utility.yul\":6827:6845   */\n      0x64\n      add\n        /* \"@openzeppelin/contracts@4.7.3/access/Ownable.sol\":1414:1482  require(owner() == _msgSender(), \"Ownable: caller is not the owner\") */\n      tag_20\n        /* \"#utility.yul\":6495:6851   */\n      jump\n        /* \"@openzeppelin/contracts@4.7.3/access/Ownable.sol\":2433:2620  function _transferOwnership(address newOwner) internal virtual {... */\n    tag_131:\n        /* \"@openzeppelin/contracts@4.7.3/access/Ownable.sol\":2506:2522  address oldOwner */\n      0x00\n        /* \"@openzeppelin/contracts@4.7.3/access/Ownable.sol\":2525:2531  _owner */\n      dup1\n      sload\n      sub(shl(0xa0, 0x01), 0x01)\n        /* \"@openzeppelin/contracts@4.7.3/access/Ownable.sol\":2541:2558  _owner = newOwner */\n      dup4\n      dup2\n      and\n      not(sub(shl(0xa0, 0x01), 0x01))\n      dup4\n      and\n      dup2\n      or\n      dup5\n      sstore\n        /* \"@openzeppelin/contracts@4.7.3/access/Ownable.sol\":2573:2613  OwnershipTransferred(oldOwner, newOwner) */\n      mload(0x40)\n        /* \"@openzeppelin/contracts@4.7.3/access/Ownable.sol\":2525:2531  _owner */\n      swap2\n      swap1\n      swap3\n      and\n      swap3\n      dup4\n      swap2\n        /* \"@openzeppelin/contracts@4.7.3/access/Ownable.sol\":2573:2613  OwnershipTransferred(oldOwner, newOwner) */\n      0x8be0079c531659141344cd1fd0a4f28419497f9722a3daafe3b4186f6b6457e0\n      swap2\n        /* \"@openzeppelin/contracts@4.7.3/access/Ownable.sol\":2506:2522  address oldOwner */\n      swap1\n        /* \"@openzeppelin/contracts@4.7.3/access/Ownable.sol\":2573:2613  OwnershipTransferred(oldOwner, newOwner) */\n      log3\n        /* \"@openzeppelin/contracts@4.7.3/access/Ownable.sol\":2496:2620  {... */\n      pop\n        /* \"@openzeppelin/contracts@4.7.3/access/Ownable.sol\":2433:2620  function _transferOwnership(address newOwner) internal virtual {... */\n      pop\n      jump\t// out\n        /* \"#utility.yul\":361:578   */\n    tag_24:\n        /* \"#utility.yul\":401:402   */\n      0x00\n        /* \"#utility.yul\":427:428   */\n      dup3\n        /* \"#utility.yul\":417:549   */\n      tag_172\n      jumpi\n        /* \"#utility.yul\":471:481   */\n      0x4e487b71\n        /* \"#utility.yul\":466:469   */\n      0xe0\n        /* \"#utility.yul\":462:482   */\n      shl\n        /* \"#utility.yul\":459:460   */\n      0x00\n        /* \"#utility.yul\":452:483   */\n      mstore\n        /* \"#utility.yul\":506:510   */\n      0x12\n        /* \"#utility.yul\":503:504   */\n      0x04\n        /* \"#utility.yul\":496:511   */\n      mstore\n        /* \"#utility.yul\":534:538   */\n      0x24\n        /* \"#utility.yul\":531:532   */\n      0x00\n        /* \"#utility.yul\":524:539   */\n      revert\n        /* \"#utility.yul\":417:549   */\n    tag_172:\n      pop\n        /* \"#utility.yul\":563:572   */\n      div\n      swap1\n        /* \"#utility.yul\":361:578   */\n      jump\t// out\n        /* \"#utility.yul\":791:918   */\n    tag_166:\n        /* \"#utility.yul\":852:862   */\n      0x4e487b71\n        /* \"#utility.yul\":847:850   */\n      0xe0\n        /* \"#utility.yul\":843:863   */\n      shl\n        /* \"#utility.yul\":840:841   */\n      0x00\n        /* \"#utility.yul\":833:864   */\n      mstore\n        /* \"#utility.yul\":883:887   */\n      0x41\n        /* \"#utility.yul\":880:881   */\n      0x04\n        /* \"#utility.yul\":873:888   */\n      mstore\n        /* \"#utility.yul\":907:911   */\n      0x24\n        /* \"#utility.yul\":904:905   */\n      0x00\n        /* \"#utility.yul\":897:912   */\n      revert\n        /* \"#utility.yul\":923:1198   */\n    tag_167:\n        /* \"#utility.yul\":994:996   */\n      0x40\n        /* \"#utility.yul\":988:997   */\n      mload\n        /* \"#utility.yul\":1059:1061   */\n      0x1f\n        /* \"#utility.yul\":1040:1053   */\n      dup3\n      add\n      not(0x1f)\n        /* \"#utility.yul\":1036:1063   */\n      and\n        /* \"#utility.yul\":1024:1064   */\n      dup2\n      add\n        /* \"#utility.yul\":1094:1112   */\n      0xffffffffffffffff\n        /* \"#utility.yul\":1079:1113   */\n      dup2\n      gt\n        /* \"#utility.yul\":1115:1137   */\n      dup3\n      dup3\n      lt\n        /* \"#utility.yul\":1076:1138   */\n      or\n        /* \"#utility.yul\":1073:1161   */\n      iszero\n      tag_177\n      jumpi\n        /* \"#utility.yul\":1141:1159   */\n      tag_177\n      tag_166\n      jump\t// in\n    tag_177:\n        /* \"#utility.yul\":1177:1179   */\n      0x40\n        /* \"#utility.yul\":1170:1192   */\n      mstore\n        /* \"#utility.yul\":923:1198   */\n      swap2\n      swap1\n      pop\n      jump\t// out\n        /* \"#utility.yul\":1203:2139   */\n    tag_30:\n        /* \"#utility.yul\":1298:1304   */\n      0x00\n        /* \"#utility.yul\":1329:1331   */\n      0x20\n        /* \"#utility.yul\":1372:1374   */\n      dup1\n        /* \"#utility.yul\":1360:1369   */\n      dup4\n        /* \"#utility.yul\":1351:1358   */\n      dup6\n        /* \"#utility.yul\":1347:1370   */\n      sub\n        /* \"#utility.yul\":1343:1375   */\n      slt\n        /* \"#utility.yul\":1340:1392   */\n      iszero\n      tag_179\n      jumpi\n        /* \"#utility.yul\":1388:1389   */\n      0x00\n        /* \"#utility.yul\":1385:1386   */\n      dup1\n        /* \"#utility.yul\":1378:1390   */\n      revert\n        /* \"#utility.yul\":1340:1392   */\n    tag_179:\n        /* \"#utility.yul\":1421:1430   */\n      dup3\n        /* \"#utility.yul\":1415:1431   */\n      mload\n        /* \"#utility.yul\":1450:1468   */\n      0xffffffffffffffff\n        /* \"#utility.yul\":1491:1493   */\n      dup1\n        /* \"#utility.yul\":1483:1489   */\n      dup3\n        /* \"#utility.yul\":1480:1494   */\n      gt\n        /* \"#utility.yul\":1477:1511   */\n      iszero\n      tag_180\n      jumpi\n        /* \"#utility.yul\":1507:1508   */\n      0x00\n        /* \"#utility.yul\":1504:1505   */\n      dup1\n        /* \"#utility.yul\":1497:1509   */\n      revert\n        /* \"#utility.yul\":1477:1511   */\n    tag_180:\n        /* \"#utility.yul\":1545:1551   */\n      dup2\n        /* \"#utility.yul\":1534:1543   */\n      dup6\n        /* \"#utility.yul\":1530:1552   */\n      add\n        /* \"#utility.yul\":1520:1552   */\n      swap2\n      pop\n        /* \"#utility.yul\":1590:1597   */\n      dup6\n        /* \"#utility.yul\":1583:1587   */\n      0x1f\n        /* \"#utility.yul\":1579:1581   */\n      dup4\n        /* \"#utility.yul\":1575:1588   */\n      add\n        /* \"#utility.yul\":1571:1598   */\n      slt\n        /* \"#utility.yul\":1561:1616   */\n      tag_181\n      jumpi\n        /* \"#utility.yul\":1612:1613   */\n      0x00\n        /* \"#utility.yul\":1609:1610   */\n      dup1\n        /* \"#utility.yul\":1602:1614   */\n      revert\n        /* \"#utility.yul\":1561:1616   */\n    tag_181:\n        /* \"#utility.yul\":1641:1643   */\n      dup2\n        /* \"#utility.yul\":1635:1644   */\n      mload\n        /* \"#utility.yul\":1663:1665   */\n      dup2\n        /* \"#utility.yul\":1659:1661   */\n      dup2\n        /* \"#utility.yul\":1656:1666   */\n      gt\n        /* \"#utility.yul\":1653:1689   */\n      iszero\n      tag_183\n      jumpi\n        /* \"#utility.yul\":1669:1687   */\n      tag_183\n      tag_166\n      jump\t// in\n    tag_183:\n        /* \"#utility.yul\":1715:1717   */\n      dup1\n        /* \"#utility.yul\":1712:1713   */\n      0x05\n        /* \"#utility.yul\":1708:1718   */\n      shl\n        /* \"#utility.yul\":1698:1718   */\n      swap2\n      pop\n        /* \"#utility.yul\":1738:1766   */\n      tag_184\n        /* \"#utility.yul\":1762:1764   */\n      dup5\n        /* \"#utility.yul\":1758:1760   */\n      dup4\n        /* \"#utility.yul\":1754:1765   */\n      add\n        /* \"#utility.yul\":1738:1766   */\n      tag_167\n      jump\t// in\n    tag_184:\n        /* \"#utility.yul\":1800:1815   */\n      dup2\n      dup2\n      mstore\n        /* \"#utility.yul\":1870:1881   */\n      swap2\n      dup4\n      add\n        /* \"#utility.yul\":1866:1886   */\n      dup5\n      add\n      swap2\n        /* \"#utility.yul\":1831:1843   */\n      dup5\n      dup2\n      add\n      swap1\n        /* \"#utility.yul\":1898:1917   */\n      dup9\n      dup5\n      gt\n        /* \"#utility.yul\":1895:1934   */\n      iszero\n      tag_185\n      jumpi\n        /* \"#utility.yul\":1930:1931   */\n      0x00\n        /* \"#utility.yul\":1927:1928   */\n      dup1\n        /* \"#utility.yul\":1920:1932   */\n      revert\n        /* \"#utility.yul\":1895:1934   */\n    tag_185:\n        /* \"#utility.yul\":1954:1965   */\n      swap4\n      dup6\n      add\n      swap4\n        /* \"#utility.yul\":1974:2109   */\n    tag_186:\n        /* \"#utility.yul\":1990:1996   */\n      dup4\n        /* \"#utility.yul\":1985:1988   */\n      dup6\n        /* \"#utility.yul\":1982:1997   */\n      lt\n        /* \"#utility.yul\":1974:2109   */\n      iszero\n      tag_188\n      jumpi\n        /* \"#utility.yul\":2056:2066   */\n      dup5\n      mload\n        /* \"#utility.yul\":2044:2067   */\n      dup3\n      mstore\n        /* \"#utility.yul\":2007:2019   */\n      swap4\n      dup6\n      add\n      swap4\n        /* \"#utility.yul\":2087:2099   */\n      swap1\n      dup6\n      add\n      swap1\n        /* \"#utility.yul\":1974:2109   */\n      jump(tag_186)\n    tag_188:\n        /* \"#utility.yul\":2128:2133   */\n      swap9\n        /* \"#utility.yul\":1203:2139   */\n      swap8\n      pop\n      pop\n      pop\n      pop\n      pop\n      pop\n      pop\n      pop\n      jump\t// out\n        /* \"#utility.yul\":2144:2271   */\n    tag_36:\n        /* \"#utility.yul\":2205:2215   */\n      0x4e487b71\n        /* \"#utility.yul\":2200:2203   */\n      0xe0\n        /* \"#utility.yul\":2196:2216   */\n      shl\n        /* \"#utility.yul\":2193:2194   */\n      0x00\n        /* \"#utility.yul\":2186:2217   */\n      mstore\n        /* \"#utility.yul\":2236:2240   */\n      0x32\n        /* \"#utility.yul\":2233:2234   */\n      0x04\n        /* \"#utility.yul\":2226:2241   */\n      mstore\n        /* \"#utility.yul\":2260:2264   */\n      0x24\n        /* \"#utility.yul\":2257:2258   */\n      0x00\n        /* \"#utility.yul\":2250:2265   */\n      revert\n        /* \"#utility.yul\":2276:2498   */\n    tag_39:\n        /* \"#utility.yul\":2341:2350   */\n      dup1\n      dup3\n      add\n        /* \"#utility.yul\":2362:2372   */\n      dup1\n      dup3\n      gt\n        /* \"#utility.yul\":2359:2492   */\n      iszero\n      tag_191\n      jumpi\n        /* \"#utility.yul\":2414:2424   */\n      0x4e487b71\n        /* \"#utility.yul\":2409:2412   */\n      0xe0\n        /* \"#utility.yul\":2405:2425   */\n      shl\n        /* \"#utility.yul\":2402:2403   */\n      0x00\n        /* \"#utility.yul\":2395:2426   */\n      mstore\n        /* \"#utility.yul\":2449:2453   */\n      0x11\n        /* \"#utility.yul\":2446:2447   */\n      0x04\n        /* \"#utility.yul\":2439:2454   */\n      mstore\n        /* \"#utility.yul\":2477:2481   */\n      0x24\n        /* \"#utility.yul\":2474:2475   */\n      0x00\n        /* \"#utility.yul\":2467:2482   */\n      revert\n        /* \"#utility.yul\":2359:2492   */\n    tag_191:\n        /* \"#utility.yul\":2276:2498   */\n      swap3\n      swap2\n      pop\n      pop\n      jump\t// out\n        /* \"#utility.yul\":2503:2676   */\n    tag_168:\n        /* \"#utility.yul\":2571:2591   */\n      dup1\n      calldataload\n      sub(shl(0xa0, 0x01), 0x01)\n        /* \"#utility.yul\":2620:2651   */\n      dup2\n      and\n        /* \"#utility.yul\":2610:2652   */\n      dup2\n      eq\n        /* \"#utility.yul\":2600:2670   */\n      tag_193\n      jumpi\n        /* \"#utility.yul\":2666:2667   */\n      0x00\n        /* \"#utility.yul\":2663:2664   */\n      dup1\n        /* \"#utility.yul\":2656:2668   */\n      revert\n        /* \"#utility.yul\":2600:2670   */\n    tag_193:\n        /* \"#utility.yul\":2503:2676   */\n      swap2\n      swap1\n      pop\n      jump\t// out\n        /* \"#utility.yul\":2681:3661   */\n    tag_43:\n        /* \"#utility.yul\":2776:2782   */\n      0x00\n        /* \"#utility.yul\":2784:2790   */\n      dup1\n        /* \"#utility.yul\":2792:2798   */\n      0x00\n        /* \"#utility.yul\":2800:2806   */\n      dup1\n        /* \"#utility.yul\":2853:2856   */\n      0x80\n        /* \"#utility.yul\":2841:2850   */\n      dup6\n        /* \"#utility.yul\":2832:2839   */\n      dup8\n        /* \"#utility.yul\":2828:2851   */\n      sub\n        /* \"#utility.yul\":2824:2857   */\n      slt\n        /* \"#utility.yul\":2821:2874   */\n      iszero\n      tag_195\n      jumpi\n        /* \"#utility.yul\":2870:2871   */\n      0x00\n        /* \"#utility.yul\":2867:2868   */\n      dup1\n        /* \"#utility.yul\":2860:2872   */\n      revert\n        /* \"#utility.yul\":2821:2874   */\n    tag_195:\n        /* \"#utility.yul\":2893:2922   */\n      tag_196\n        /* \"#utility.yul\":2912:2921   */\n      dup6\n        /* \"#utility.yul\":2893:2922   */\n      tag_168\n      jump\t// in\n    tag_196:\n        /* \"#utility.yul\":2883:2922   */\n      swap4\n      pop\n        /* \"#utility.yul\":2941:2943   */\n      0x20\n        /* \"#utility.yul\":2962:3000   */\n      tag_197\n        /* \"#utility.yul\":2996:2998   */\n      dup2\n        /* \"#utility.yul\":2985:2994   */\n      dup8\n        /* \"#utility.yul\":2981:2999   */\n      add\n        /* \"#utility.yul\":2962:3000   */\n      tag_168\n      jump\t// in\n    tag_197:\n        /* \"#utility.yul\":2952:3000   */\n      swap4\n      pop\n        /* \"#utility.yul\":3047:3049   */\n      0x40\n        /* \"#utility.yul\":3036:3045   */\n      dup7\n        /* \"#utility.yul\":3032:3050   */\n      add\n        /* \"#utility.yul\":3019:3051   */\n      calldataload\n        /* \"#utility.yul\":3009:3051   */\n      swap3\n      pop\n        /* \"#utility.yul\":3102:3104   */\n      0x60\n        /* \"#utility.yul\":3091:3100   */\n      dup7\n        /* \"#utility.yul\":3087:3105   */\n      add\n        /* \"#utility.yul\":3074:3106   */\n      calldataload\n        /* \"#utility.yul\":3125:3143   */\n      0xffffffffffffffff\n        /* \"#utility.yul\":3166:3168   */\n      dup1\n        /* \"#utility.yul\":3158:3164   */\n      dup3\n        /* \"#utility.yul\":3155:3169   */\n      gt\n        /* \"#utility.yul\":3152:3186   */\n      iszero\n      tag_198\n      jumpi\n        /* \"#utility.yul\":3182:3183   */\n      0x00\n        /* \"#utility.yul\":3179:3180   */\n      dup1\n        /* \"#utility.yul\":3172:3184   */\n      revert\n        /* \"#utility.yul\":3152:3186   */\n    tag_198:\n        /* \"#utility.yul\":3220:3226   */\n      dup2\n        /* \"#utility.yul\":3209:3218   */\n      dup9\n        /* \"#utility.yul\":3205:3227   */\n      add\n        /* \"#utility.yul\":3195:3227   */\n      swap2\n      pop\n        /* \"#utility.yul\":3265:3272   */\n      dup9\n        /* \"#utility.yul\":3258:3262   */\n      0x1f\n        /* \"#utility.yul\":3254:3256   */\n      dup4\n        /* \"#utility.yul\":3250:3263   */\n      add\n        /* \"#utility.yul\":3246:3273   */\n      slt\n        /* \"#utility.yul\":3236:3291   */\n      tag_199\n      jumpi\n        /* \"#utility.yul\":3287:3288   */\n      0x00\n        /* \"#utility.yul\":3284:3285   */\n      dup1\n        /* \"#utility.yul\":3277:3289   */\n      revert\n        /* \"#utility.yul\":3236:3291   */\n    tag_199:\n        /* \"#utility.yul\":3323:3325   */\n      dup2\n        /* \"#utility.yul\":3310:3326   */\n      calldataload\n        /* \"#utility.yul\":3345:3347   */\n      dup2\n        /* \"#utility.yul\":3341:3343   */\n      dup2\n        /* \"#utility.yul\":3338:3348   */\n      gt\n        /* \"#utility.yul\":3335:3371   */\n      iszero\n      tag_201\n      jumpi\n        /* \"#utility.yul\":3351:3369   */\n      tag_201\n      tag_166\n      jump\t// in\n    tag_201:\n        /* \"#utility.yul\":3393:3446   */\n      tag_202\n        /* \"#utility.yul\":3436:3438   */\n      0x1f\n        /* \"#utility.yul\":3417:3430   */\n      dup3\n      add\n      not(0x1f)\n        /* \"#utility.yul\":3413:3440   */\n      and\n        /* \"#utility.yul\":3409:3445   */\n      dup6\n      add\n        /* \"#utility.yul\":3393:3446   */\n      tag_167\n      jump\t// in\n    tag_202:\n        /* \"#utility.yul\":3380:3446   */\n      swap2\n      pop\n        /* \"#utility.yul\":3469:3471   */\n      dup1\n        /* \"#utility.yul\":3462:3467   */\n      dup3\n        /* \"#utility.yul\":3455:3472   */\n      mstore\n        /* \"#utility.yul\":3509:3516   */\n      dup10\n        /* \"#utility.yul\":3504:3506   */\n      dup5\n        /* \"#utility.yul\":3499:3501   */\n      dup3\n        /* \"#utility.yul\":3495:3497   */\n      dup6\n        /* \"#utility.yul\":3491:3502   */\n      add\n        /* \"#utility.yul\":3487:3507   */\n      add\n        /* \"#utility.yul\":3484:3517   */\n      gt\n        /* \"#utility.yul\":3481:3534   */\n      iszero\n      tag_203\n      jumpi\n        /* \"#utility.yul\":3530:3531   */\n      0x00\n        /* \"#utility.yul\":3527:3528   */\n      dup1\n        /* \"#utility.yul\":3520:3532   */\n      revert\n        /* \"#utility.yul\":3481:3534   */\n    tag_203:\n        /* \"#utility.yul\":3585:3587   */\n      dup1\n        /* \"#utility.yul\":3580:3582   */\n      dup5\n        /* \"#utility.yul\":3576:3578   */\n      dup5\n        /* \"#utility.yul\":3572:3583   */\n      add\n        /* \"#utility.yul\":3567:3569   */\n      dup6\n        /* \"#utility.yul\":3560:3565   */\n      dup5\n        /* \"#utility.yul\":3556:3570   */\n      add\n        /* \"#utility.yul\":3543:3588   */\n      calldatacopy\n        /* \"#utility.yul\":3629:3630   */\n      0x00\n        /* \"#utility.yul\":3624:3626   */\n      dup5\n        /* \"#utility.yul\":3619:3621   */\n      dup3\n        /* \"#utility.yul\":3612:3617   */\n      dup5\n        /* \"#utility.yul\":3608:3622   */\n      add\n        /* \"#utility.yul\":3604:3627   */\n      add\n        /* \"#utility.yul\":3597:3631   */\n      mstore\n      pop\n        /* \"#utility.yul\":3650:3655   */\n      dup1\n        /* \"#utility.yul\":3640:3655   */\n      swap4\n      pop\n      pop\n      pop\n      pop\n        /* \"#utility.yul\":2681:3661   */\n      swap3\n      swap6\n      swap2\n      swap5\n      pop\n      swap3\n      pop\n      jump\t// out\n        /* \"#utility.yul\":3873:4053   */\n    tag_50:\n        /* \"#utility.yul\":3932:3938   */\n      0x00\n        /* \"#utility.yul\":3985:3987   */\n      0x20\n        /* \"#utility.yul\":3973:3982   */\n      dup3\n        /* \"#utility.yul\":3964:3971   */\n      dup5\n        /* \"#utility.yul\":3960:3983   */\n      sub\n        /* \"#utility.yul\":3956:3988   */\n      slt\n        /* \"#utility.yul\":3953:4005   */\n      iszero\n      tag_206\n      jumpi\n        /* \"#utility.yul\":4001:4002   */\n      0x00\n        /* \"#utility.yul\":3998:3999   */\n      dup1\n        /* \"#utility.yul\":3991:4003   */\n      revert\n        /* \"#utility.yul\":3953:4005   */\n    tag_206:\n      pop\n        /* \"#utility.yul\":4024:4047   */\n      calldataload\n      swap2\n        /* \"#utility.yul\":3873:4053   */\n      swap1\n      pop\n      jump\t// out\n        /* \"#utility.yul\":4240:4426   */\n    tag_81:\n        /* \"#utility.yul\":4299:4305   */\n      0x00\n        /* \"#utility.yul\":4352:4354   */\n      0x20\n        /* \"#utility.yul\":4340:4349   */\n      dup3\n        /* \"#utility.yul\":4331:4338   */\n      dup5\n        /* \"#utility.yul\":4327:4350   */\n      sub\n        /* \"#utility.yul\":4323:4355   */\n      slt\n        /* \"#utility.yul\":4320:4372   */\n      iszero\n      tag_209\n      jumpi\n        /* \"#utility.yul\":4368:4369   */\n      0x00\n        /* \"#utility.yul\":4365:4366   */\n      dup1\n        /* \"#utility.yul\":4358:4370   */\n      revert\n        /* \"#utility.yul\":4320:4372   */\n    tag_209:\n        /* \"#utility.yul\":4391:4420   */\n      tag_210\n        /* \"#utility.yul\":4410:4419   */\n      dup3\n        /* \"#utility.yul\":4391:4420   */\n      tag_168\n      jump\t// in\n    tag_210:\n        /* \"#utility.yul\":4381:4420   */\n      swap4\n        /* \"#utility.yul\":4240:4426   */\n      swap3\n      pop\n      pop\n      pop\n      jump\t// out\n\n    auxdata: 0xa2646970667358221220e31a7b71ffc867e81d74121a93f27784cd54c1e8a520903794b304d45ff7b74464736f6c63430008110033\n}\n",
				"bytecode": {
					"linkReferences": {},
					"object": "608060405234801561001057600080fd5b50604051610ccb380380610ccb83398101604081905261002f916100b1565b61003833610061565b60018055600280546001600160a01b0319166001600160a01b03929092169190911790556100e1565b600080546001600160a01b038381166001600160a01b0319831681178455604051919092169283917f8be0079c531659141344cd1fd0a4f28419497f9722a3daafe3b4186f6b6457e09190a35050565b6000602082840312156100c357600080fd5b81516001600160a01b03811681146100da57600080fd5b9392505050565b610bdb806100f06000396000f3fe6080604052600436106100a05760003560e01c80638da5cb5b116100645780638da5cb5b146102c9578063a694fc3a146102e7578063d3ea435014610307578063f2fde38b14610342578063f301af4214610362578063fd71c6501461038f57600080fd5b8063150b7a02146101dd5780632e17de7814610226578063379607f514610246578063715018a6146102665780638488cc411461027b57600080fd5b366101d8576003546000036100f15760405162461bcd60e51b8152602060048201526012602482015271139bc81391951cc8185c99481cdd185ad95960721b60448201526064015b60405180910390fd5b60006100fc60035490565b6101069034610942565b60025460405162438b6360e81b81523060048201529192506000916001600160a01b039091169063438b630090602401600060405180830381865afa158015610153573d6000803e3d6000fd5b505050506040513d6000823e601f3d908101601f1916820160405261017b91908101906109ab565b905060005b81518110156101d6578260056000600684815481106101a1576101a1610a51565b9060005260206000200154815260200190815260200160002060008282546101c99190610a67565b9091555050600101610180565b005b600080fd5b3480156101e957600080fd5b506102086101f8366004610aaa565b630a85bd0160e11b949350505050565b6040516001600160e01b031990911681526020015b60405180910390f35b34801561023257600080fd5b506101d6610241366004610b6a565b6103af565b34801561025257600080fd5b506101d6610261366004610b6a565b610583565b34801561027257600080fd5b506101d66106c3565b34801561028757600080fd5b506102b1610296366004610b6a565b6004602052600090815260409020546001600160a01b031681565b6040516001600160a01b03909116815260200161021d565b3480156102d557600080fd5b506000546001600160a01b03166102b1565b3480156102f357600080fd5b506101d6610302366004610b6a565b6106d7565b34801561031357600080fd5b50610334610322366004610b6a565b60009081526005602052604090205490565b60405190815260200161021d565b34801561034e57600080fd5b506101d661035d366004610b83565b6107a1565b34801561036e57600080fd5b5061033461037d366004610b6a565b60056020526000908152604090205481565b34801561039b57600080fd5b506101d66103aa366004610b83565b610817565b6002600154036104015760405162461bcd60e51b815260206004820152601f60248201527f5265656e7472616e637947756172643a207265656e7472616e742063616c6c0060448201526064016100e8565b60026001556000818152600460205260409020546001600160a01b031633146104655760405162461bcd60e51b81526020600482015260166024820152752cb7ba9030b932903737ba103a34329037bbb732b91760511b60448201526064016100e8565b600081815260046020526040902080546001600160a01b031916905561048b6003610841565b60008181526004602090815260408083205460059092528083205490516001600160a01b03909216918381818185875af1925050503d80600081146104ec576040519150601f19603f3d011682016040523d82523d6000602084013e6104f1565b606091505b50509050806104ff57600080fd5b600082815260056020526040808220919091556002549051632142170760e11b8152306004820152336024820152604481018490526001600160a01b03909116906342842e0e90606401600060405180830381600087803b15801561056357600080fd5b505af1158015610577573d6000803e3d6000fd5b50506001805550505050565b6002600154036105d55760405162461bcd60e51b815260206004820152601f60248201527f5265656e7472616e637947756172643a207265656e7472616e742063616c6c0060448201526064016100e8565b60026001556000818152600460205260409020546001600160a01b031633146106395760405162461bcd60e51b81526020600482015260166024820152752cb7ba9030b932903737ba103a34329037bbb732b91760511b60448201526064016100e8565b60008181526004602090815260408083205460059092528083205490516001600160a01b03909216918381818185875af1925050503d806000811461069a576040519150601f19603f3d011682016040523d82523d6000602084013e61069f565b606091505b50509050806106ad57600080fd5b5060009081526005602052604081205560018055565b6106cb610898565b6106d560006108f2565b565b600254604051632142170760e11b8152336004820152306024820152604481018390526001600160a01b03909116906342842e0e90606401600060405180830381600087803b15801561072957600080fd5b505af115801561073d573d6000803e3d6000fd5b505050600082815260046020526040812080546001600160a01b031916331790556006805460018101825591527ff652222313e28459528d920b65115c16c04f3efc82aaedc97be59f3f377c0d3f018290555061079e600380546001019055565b50565b6107a9610898565b6001600160a01b03811661080e5760405162461bcd60e51b815260206004820152602660248201527f4f776e61626c653a206e6577206f776e657220697320746865207a65726f206160448201526564647265737360d01b60648201526084016100e8565b61079e816108f2565b61081f610898565b600280546001600160a01b0319166001600160a01b0392909216919091179055565b8054806108905760405162461bcd60e51b815260206004820152601b60248201527f436f756e7465723a2064656372656d656e74206f766572666c6f77000000000060448201526064016100e8565b600019019055565b6000546001600160a01b031633146106d55760405162461bcd60e51b815260206004820181905260248201527f4f776e61626c653a2063616c6c6572206973206e6f7420746865206f776e657260448201526064016100e8565b600080546001600160a01b038381166001600160a01b0319831681178455604051919092169283917f8be0079c531659141344cd1fd0a4f28419497f9722a3daafe3b4186f6b6457e09190a35050565b60008261095f57634e487b7160e01b600052601260045260246000fd5b500490565b634e487b7160e01b600052604160045260246000fd5b604051601f8201601f1916810167ffffffffffffffff811182821017156109a3576109a3610964565b604052919050565b600060208083850312156109be57600080fd5b825167ffffffffffffffff808211156109d657600080fd5b818501915085601f8301126109ea57600080fd5b8151818111156109fc576109fc610964565b8060051b9150610a0d84830161097a565b8181529183018401918481019088841115610a2757600080fd5b938501935b83851015610a4557845182529385019390850190610a2c565b98975050505050505050565b634e487b7160e01b600052603260045260246000fd5b80820180821115610a8857634e487b7160e01b600052601160045260246000fd5b92915050565b80356001600160a01b0381168114610aa557600080fd5b919050565b60008060008060808587031215610ac057600080fd5b610ac985610a8e565b93506020610ad8818701610a8e565b935060408601359250606086013567ffffffffffffffff80821115610afc57600080fd5b818801915088601f830112610b1057600080fd5b813581811115610b2257610b22610964565b610b34601f8201601f1916850161097a565b91508082528984828501011115610b4a57600080fd5b808484018584013760008482840101525080935050505092959194509250565b600060208284031215610b7c57600080fd5b5035919050565b600060208284031215610b9557600080fd5b610b9e82610a8e565b939250505056fea2646970667358221220e31a7b71ffc867e81d74121a93f27784cd54c1e8a520903794b304d45ff7b74464736f6c63430008110033",
					"opcodes": "PUSH1 0x80 PUSH1 0x40 MSTORE CALLVALUE DUP1 ISZERO PUSH2 0x10 JUMPI PUSH1 0x0 DUP1 REVERT JUMPDEST POP PUSH1 0x40 MLOAD PUSH2 0xCCB CODESIZE SUB DUP1 PUSH2 0xCCB DUP4 CODECOPY DUP2 ADD PUSH1 0x40 DUP2 SWAP1 MSTORE PUSH2 0x2F SWAP2 PUSH2 0xB1 JUMP JUMPDEST PUSH2 0x38 CALLER PUSH2 0x61 JUMP JUMPDEST PUSH1 0x1 DUP1 SSTORE PUSH1 0x2 DUP1 SLOAD PUSH1 0x1 PUSH1 0x1 PUSH1 0xA0 SHL SUB NOT AND PUSH1 0x1 PUSH1 0x1 PUSH1 0xA0 SHL SUB SWAP3 SWAP1 SWAP3 AND SWAP2 SWAP1 SWAP2 OR SWAP1 SSTORE PUSH2 0xE1 JUMP JUMPDEST PUSH1 0x0 DUP1 SLOAD PUSH1 0x1 PUSH1 0x1 PUSH1 0xA0 SHL SUB DUP4 DUP2 AND PUSH1 0x1 PUSH1 0x1 PUSH1 0xA0 SHL SUB NOT DUP4 AND DUP2 OR DUP5 SSTORE PUSH1 0x40 MLOAD SWAP2 SWAP1 SWAP3 AND SWAP3 DUP4 SWAP2 PUSH32 0x8BE0079C531659141344CD1FD0A4F28419497F9722A3DAAFE3B4186F6B6457E0 SWAP2 SWAP1 LOG3 POP POP JUMP JUMPDEST PUSH1 0x0 PUSH1 0x20 DUP3 DUP5 SUB SLT ISZERO PUSH2 0xC3 JUMPI PUSH1 0x0 DUP1 REVERT JUMPDEST DUP2 MLOAD PUSH1 0x1 PUSH1 0x1 PUSH1 0xA0 SHL SUB DUP2 AND DUP2 EQ PUSH2 0xDA JUMPI PUSH1 0x0 DUP1 REVERT JUMPDEST SWAP4 SWAP3 POP POP POP JUMP JUMPDEST PUSH2 0xBDB DUP1 PUSH2 0xF0 PUSH1 0x0 CODECOPY PUSH1 0x0 RETURN INVALID PUSH1 0x80 PUSH1 0x40 MSTORE PUSH1 0x4 CALLDATASIZE LT PUSH2 0xA0 JUMPI PUSH1 0x0 CALLDATALOAD PUSH1 0xE0 SHR DUP1 PUSH4 0x8DA5CB5B GT PUSH2 0x64 JUMPI DUP1 PUSH4 0x8DA5CB5B EQ PUSH2 0x2C9 JUMPI DUP1 PUSH4 0xA694FC3A EQ PUSH2 0x2E7 JUMPI DUP1 PUSH4 0xD3EA4350 EQ PUSH2 0x307 JUMPI DUP1 PUSH4 0xF2FDE38B EQ PUSH2 0x342 JUMPI DUP1 PUSH4 0xF301AF42 EQ PUSH2 0x362 JUMPI DUP1 PUSH4 0xFD71C650 EQ PUSH2 0x38F JUMPI PUSH1 0x0 DUP1 REVERT JUMPDEST DUP1 PUSH4 0x150B7A02 EQ PUSH2 0x1DD JUMPI DUP1 PUSH4 0x2E17DE78 EQ PUSH2 0x226 JUMPI DUP1 PUSH4 0x379607F5 EQ PUSH2 0x246 JUMPI DUP1 PUSH4 0x715018A6 EQ PUSH2 0x266 JUMPI DUP1 PUSH4 0x8488CC41 EQ PUSH2 0x27B JUMPI PUSH1 0x0 DUP1 REVERT JUMPDEST CALLDATASIZE PUSH2 0x1D8 JUMPI PUSH1 0x3 SLOAD PUSH1 0x0 SUB PUSH2 0xF1 JUMPI PUSH1 0x40 MLOAD PUSH3 0x461BCD PUSH1 0xE5 SHL DUP2 MSTORE PUSH1 0x20 PUSH1 0x4 DUP3 ADD MSTORE PUSH1 0x12 PUSH1 0x24 DUP3 ADD MSTORE PUSH18 0x139BC81391951CC8185C99481CDD185AD959 PUSH1 0x72 SHL PUSH1 0x44 DUP3 ADD MSTORE PUSH1 0x64 ADD JUMPDEST PUSH1 0x40 MLOAD DUP1 SWAP2 SUB SWAP1 REVERT JUMPDEST PUSH1 0x0 PUSH2 0xFC PUSH1 0x3 SLOAD SWAP1 JUMP JUMPDEST PUSH2 0x106 SWAP1 CALLVALUE PUSH2 0x942 JUMP JUMPDEST PUSH1 0x2 SLOAD PUSH1 0x40 MLOAD PUSH3 0x438B63 PUSH1 0xE8 SHL DUP2 MSTORE ADDRESS PUSH1 0x4 DUP3 ADD MSTORE SWAP2 SWAP3 POP PUSH1 0x0 SWAP2 PUSH1 0x1 PUSH1 0x1 PUSH1 0xA0 SHL SUB SWAP1 SWAP2 AND SWAP1 PUSH4 0x438B6300 SWAP1 PUSH1 0x24 ADD PUSH1 0x0 PUSH1 0x40 MLOAD DUP1 DUP4 SUB DUP2 DUP7 GAS STATICCALL ISZERO DUP1 ISZERO PUSH2 0x153 JUMPI RETURNDATASIZE PUSH1 0x0 DUP1 RETURNDATACOPY RETURNDATASIZE PUSH1 0x0 REVERT JUMPDEST POP POP POP POP PUSH1 0x40 MLOAD RETURNDATASIZE PUSH1 0x0 DUP3 RETURNDATACOPY PUSH1 0x1F RETURNDATASIZE SWAP1 DUP2 ADD PUSH1 0x1F NOT AND DUP3 ADD PUSH1 0x40 MSTORE PUSH2 0x17B SWAP2 SWAP1 DUP2 ADD SWAP1 PUSH2 0x9AB JUMP JUMPDEST SWAP1 POP PUSH1 0x0 JUMPDEST DUP2 MLOAD DUP2 LT ISZERO PUSH2 0x1D6 JUMPI DUP3 PUSH1 0x5 PUSH1 0x0 PUSH1 0x6 DUP5 DUP2 SLOAD DUP2 LT PUSH2 0x1A1 JUMPI PUSH2 0x1A1 PUSH2 0xA51 JUMP JUMPDEST SWAP1 PUSH1 0x0 MSTORE PUSH1 0x20 PUSH1 0x0 KECCAK256 ADD SLOAD DUP2 MSTORE PUSH1 0x20 ADD SWAP1 DUP2 MSTORE PUSH1 0x20 ADD PUSH1 0x0 KECCAK256 PUSH1 0x0 DUP3 DUP3 SLOAD PUSH2 0x1C9 SWAP2 SWAP1 PUSH2 0xA67 JUMP JUMPDEST SWAP1 SWAP2 SSTORE POP POP PUSH1 0x1 ADD PUSH2 0x180 JUMP JUMPDEST STOP JUMPDEST PUSH1 0x0 DUP1 REVERT JUMPDEST CALLVALUE DUP1 ISZERO PUSH2 0x1E9 JUMPI PUSH1 0x0 DUP1 REVERT JUMPDEST POP PUSH2 0x208 PUSH2 0x1F8 CALLDATASIZE PUSH1 0x4 PUSH2 0xAAA JUMP JUMPDEST PUSH4 0xA85BD01 PUSH1 0xE1 SHL SWAP5 SWAP4 POP POP POP POP JUMP JUMPDEST PUSH1 0x40 MLOAD PUSH1 0x1 PUSH1 0x1 PUSH1 0xE0 SHL SUB NOT SWAP1 SWAP2 AND DUP2 MSTORE PUSH1 0x20 ADD JUMPDEST PUSH1 0x40 MLOAD DUP1 SWAP2 SUB SWAP1 RETURN JUMPDEST CALLVALUE DUP1 ISZERO PUSH2 0x232 JUMPI PUSH1 0x0 DUP1 REVERT JUMPDEST POP PUSH2 0x1D6 PUSH2 0x241 CALLDATASIZE PUSH1 0x4 PUSH2 0xB6A JUMP JUMPDEST PUSH2 0x3AF JUMP JUMPDEST CALLVALUE DUP1 ISZERO PUSH2 0x252 JUMPI PUSH1 0x0 DUP1 REVERT JUMPDEST POP PUSH2 0x1D6 PUSH2 0x261 CALLDATASIZE PUSH1 0x4 PUSH2 0xB6A JUMP JUMPDEST PUSH2 0x583 JUMP JUMPDEST CALLVALUE DUP1 ISZERO PUSH2 0x272 JUMPI PUSH1 0x0 DUP1 REVERT JUMPDEST POP PUSH2 0x1D6 PUSH2 0x6C3 JUMP JUMPDEST CALLVALUE DUP1 ISZERO PUSH2 0x287 JUMPI PUSH1 0x0 DUP1 REVERT JUMPDEST POP PUSH2 0x2B1 PUSH2 0x296 CALLDATASIZE PUSH1 0x4 PUSH2 0xB6A JUMP JUMPDEST PUSH1 0x4 PUSH1 0x20 MSTORE PUSH1 0x0 SWAP1 DUP2 MSTORE PUSH1 0x40 SWAP1 KECCAK256 SLOAD PUSH1 0x1 PUSH1 0x1 PUSH1 0xA0 SHL SUB AND DUP2 JUMP JUMPDEST PUSH1 0x40 MLOAD PUSH1 0x1 PUSH1 0x1 PUSH1 0xA0 SHL SUB SWAP1 SWAP2 AND DUP2 MSTORE PUSH1 0x20 ADD PUSH2 0x21D JUMP JUMPDEST CALLVALUE DUP1 ISZERO PUSH2 0x2D5 JUMPI PUSH1 0x0 DUP1 REVERT JUMPDEST POP PUSH1 0x0 SLOAD PUSH1 0x1 PUSH1 0x1 PUSH1 0xA0 SHL SUB AND PUSH2 0x2B1 JUMP JUMPDEST CALLVALUE DUP1 ISZERO PUSH2 0x2F3 JUMPI PUSH1 0x0 DUP1 REVERT JUMPDEST POP PUSH2 0x1D6 PUSH2 0x302 CALLDATASIZE PUSH1 0x4 PUSH2 0xB6A JUMP JUMPDEST PUSH2 0x6D7 JUMP JUMPDEST CALLVALUE DUP1 ISZERO PUSH2 0x313 JUMPI PUSH1 0x0 DUP1 REVERT JUMPDEST POP PUSH2 0x334 PUSH2 0x322 CALLDATASIZE PUSH1 0x4 PUSH2 0xB6A JUMP JUMPDEST PUSH1 0x0 SWAP1 DUP2 MSTORE PUSH1 0x5 PUSH1 0x20 MSTORE PUSH1 0x40 SWAP1 KECCAK256 SLOAD SWAP1 JUMP JUMPDEST PUSH1 0x40 MLOAD SWAP1 DUP2 MSTORE PUSH1 0x20 ADD PUSH2 0x21D JUMP JUMPDEST CALLVALUE DUP1 ISZERO PUSH2 0x34E JUMPI PUSH1 0x0 DUP1 REVERT JUMPDEST POP PUSH2 0x1D6 PUSH2 0x35D CALLDATASIZE PUSH1 0x4 PUSH2 0xB83 JUMP JUMPDEST PUSH2 0x7A1 JUMP JUMPDEST CALLVALUE DUP1 ISZERO PUSH2 0x36E JUMPI PUSH1 0x0 DUP1 REVERT JUMPDEST POP PUSH2 0x334 PUSH2 0x37D CALLDATASIZE PUSH1 0x4 PUSH2 0xB6A JUMP JUMPDEST PUSH1 0x5 PUSH1 0x20 MSTORE PUSH1 0x0 SWAP1 DUP2 MSTORE PUSH1 0x40 SWAP1 KECCAK256 SLOAD DUP2 JUMP JUMPDEST CALLVALUE DUP1 ISZERO PUSH2 0x39B JUMPI PUSH1 0x0 DUP1 REVERT JUMPDEST POP PUSH2 0x1D6 PUSH2 0x3AA CALLDATASIZE PUSH1 0x4 PUSH2 0xB83 JUMP JUMPDEST PUSH2 0x817 JUMP JUMPDEST PUSH1 0x2 PUSH1 0x1 SLOAD SUB PUSH2 0x401 JUMPI PUSH1 0x40 MLOAD PUSH3 0x461BCD PUSH1 0xE5 SHL DUP2 MSTORE PUSH1 0x20 PUSH1 0x4 DUP3 ADD MSTORE PUSH1 0x1F PUSH1 0x24 DUP3 ADD MSTORE PUSH32 0x5265656E7472616E637947756172643A207265656E7472616E742063616C6C00 PUSH1 0x44 DUP3 ADD MSTORE PUSH1 0x64 ADD PUSH2 0xE8 JUMP JUMPDEST PUSH1 0x2 PUSH1 0x1 SSTORE PUSH1 0x0 DUP2 DUP2 MSTORE PUSH1 0x4 PUSH1 0x20 MSTORE PUSH1 0x40 SWAP1 KECCAK256 SLOAD PUSH1 0x1 PUSH1 0x1 PUSH1 0xA0 SHL SUB AND CALLER EQ PUSH2 0x465 JUMPI PUSH1 0x40 MLOAD PUSH3 0x461BCD PUSH1 0xE5 SHL DUP2 MSTORE PUSH1 0x20 PUSH1 0x4 DUP3 ADD MSTORE PUSH1 0x16 PUSH1 0x24 DUP3 ADD MSTORE PUSH22 0x2CB7BA9030B932903737BA103A34329037BBB732B917 PUSH1 0x51 SHL PUSH1 0x44 DUP3 ADD MSTORE PUSH1 0x64 ADD PUSH2 0xE8 JUMP JUMPDEST PUSH1 0x0 DUP2 DUP2 MSTORE PUSH1 0x4 PUSH1 0x20 MSTORE PUSH1 0x40 SWAP1 KECCAK256 DUP1 SLOAD PUSH1 0x1 PUSH1 0x1 PUSH1 0xA0 SHL SUB NOT AND SWAP1 SSTORE PUSH2 0x48B PUSH1 0x3 PUSH2 0x841 JUMP JUMPDEST PUSH1 0x0 DUP2 DUP2 MSTORE PUSH1 0x4 PUSH1 0x20 SWAP1 DUP2 MSTORE PUSH1 0x40 DUP1 DUP4 KECCAK256 SLOAD PUSH1 0x5 SWAP1 SWAP3 MSTORE DUP1 DUP4 KECCAK256 SLOAD SWAP1 MLOAD PUSH1 0x1 PUSH1 0x1 PUSH1 0xA0 SHL SUB SWAP1 SWAP3 AND SWAP2 DUP4 DUP2 DUP2 DUP2 DUP6 DUP8 GAS CALL SWAP3 POP POP POP RETURNDATASIZE DUP1 PUSH1 0x0 DUP2 EQ PUSH2 0x4EC JUMPI PUSH1 0x40 MLOAD SWAP2 POP PUSH1 0x1F NOT PUSH1 0x3F RETURNDATASIZE ADD AND DUP3 ADD PUSH1 0x40 MSTORE RETURNDATASIZE DUP3 MSTORE RETURNDATASIZE PUSH1 0x0 PUSH1 0x20 DUP5 ADD RETURNDATACOPY PUSH2 0x4F1 JUMP JUMPDEST PUSH1 0x60 SWAP2 POP JUMPDEST POP POP SWAP1 POP DUP1 PUSH2 0x4FF JUMPI PUSH1 0x0 DUP1 REVERT JUMPDEST PUSH1 0x0 DUP3 DUP2 MSTORE PUSH1 0x5 PUSH1 0x20 MSTORE PUSH1 0x40 DUP1 DUP3 KECCAK256 SWAP2 SWAP1 SWAP2 SSTORE PUSH1 0x2 SLOAD SWAP1 MLOAD PUSH4 0x21421707 PUSH1 0xE1 SHL DUP2 MSTORE ADDRESS PUSH1 0x4 DUP3 ADD MSTORE CALLER PUSH1 0x24 DUP3 ADD MSTORE PUSH1 0x44 DUP2 ADD DUP5 SWAP1 MSTORE PUSH1 0x1 PUSH1 0x1 PUSH1 0xA0 SHL SUB SWAP1 SWAP2 AND SWAP1 PUSH4 0x42842E0E SWAP1 PUSH1 0x64 ADD PUSH1 0x0 PUSH1 0x40 MLOAD DUP1 DUP4 SUB DUP2 PUSH1 0x0 DUP8 DUP1 EXTCODESIZE ISZERO DUP1 ISZERO PUSH2 0x563 JUMPI PUSH1 0x0 DUP1 REVERT JUMPDEST POP GAS CALL ISZERO DUP1 ISZERO PUSH2 0x577 JUMPI RETURNDATASIZE PUSH1 0x0 DUP1 RETURNDATACOPY RETURNDATASIZE PUSH1 0x0 REVERT JUMPDEST POP POP PUSH1 0x1 DUP1 SSTORE POP POP POP POP JUMP JUMPDEST PUSH1 0x2 PUSH1 0x1 SLOAD SUB PUSH2 0x5D5 JUMPI PUSH1 0x40 MLOAD PUSH3 0x461BCD PUSH1 0xE5 SHL DUP2 MSTORE PUSH1 0x20 PUSH1 0x4 DUP3 ADD MSTORE PUSH1 0x1F PUSH1 0x24 DUP3 ADD MSTORE PUSH32 0x5265656E7472616E637947756172643A207265656E7472616E742063616C6C00 PUSH1 0x44 DUP3 ADD MSTORE PUSH1 0x64 ADD PUSH2 0xE8 JUMP JUMPDEST PUSH1 0x2 PUSH1 0x1 SSTORE PUSH1 0x0 DUP2 DUP2 MSTORE PUSH1 0x4 PUSH1 0x20 MSTORE PUSH1 0x40 SWAP1 KECCAK256 SLOAD PUSH1 0x1 PUSH1 0x1 PUSH1 0xA0 SHL SUB AND CALLER EQ PUSH2 0x639 JUMPI PUSH1 0x40 MLOAD PUSH3 0x461BCD PUSH1 0xE5 SHL DUP2 MSTORE PUSH1 0x20 PUSH1 0x4 DUP3 ADD MSTORE PUSH1 0x16 PUSH1 0x24 DUP3 ADD MSTORE PUSH22 0x2CB7BA9030B932903737BA103A34329037BBB732B917 PUSH1 0x51 SHL PUSH1 0x44 DUP3 ADD MSTORE PUSH1 0x64 ADD PUSH2 0xE8 JUMP JUMPDEST PUSH1 0x0 DUP2 DUP2 MSTORE PUSH1 0x4 PUSH1 0x20 SWAP1 DUP2 MSTORE PUSH1 0x40 DUP1 DUP4 KECCAK256 SLOAD PUSH1 0x5 SWAP1 SWAP3 MSTORE DUP1 DUP4 KECCAK256 SLOAD SWAP1 MLOAD PUSH1 0x1 PUSH1 0x1 PUSH1 0xA0 SHL SUB SWAP1 SWAP3 AND SWAP2 DUP4 DUP2 DUP2 DUP2 DUP6 DUP8 GAS CALL SWAP3 POP POP POP RETURNDATASIZE DUP1 PUSH1 0x0 DUP2 EQ PUSH2 0x69A JUMPI PUSH1 0x40 MLOAD SWAP2 POP PUSH1 0x1F NOT PUSH1 0x3F RETURNDATASIZE ADD AND DUP3 ADD PUSH1 0x40 MSTORE RETURNDATASIZE DUP3 MSTORE RETURNDATASIZE PUSH1 0x0 PUSH1 0x20 DUP5 ADD RETURNDATACOPY PUSH2 0x69F JUMP JUMPDEST PUSH1 0x60 SWAP2 POP JUMPDEST POP POP SWAP1 POP DUP1 PUSH2 0x6AD JUMPI PUSH1 0x0 DUP1 REVERT JUMPDEST POP PUSH1 0x0 SWAP1 DUP2 MSTORE PUSH1 0x5 PUSH1 0x20 MSTORE PUSH1 0x40 DUP2 KECCAK256 SSTORE PUSH1 0x1 DUP1 SSTORE JUMP JUMPDEST PUSH2 0x6CB PUSH2 0x898 JUMP JUMPDEST PUSH2 0x6D5 PUSH1 0x0 PUSH2 0x8F2 JUMP JUMPDEST JUMP JUMPDEST PUSH1 0x2 SLOAD PUSH1 0x40 MLOAD PUSH4 0x21421707 PUSH1 0xE1 SHL DUP2 MSTORE CALLER PUSH1 0x4 DUP3 ADD MSTORE ADDRESS PUSH1 0x24 DUP3 ADD MSTORE PUSH1 0x44 DUP2 ADD DUP4 SWAP1 MSTORE PUSH1 0x1 PUSH1 0x1 PUSH1 0xA0 SHL SUB SWAP1 SWAP2 AND SWAP1 PUSH4 0x42842E0E SWAP1 PUSH1 0x64 ADD PUSH1 0x0 PUSH1 0x40 MLOAD DUP1 DUP4 SUB DUP2 PUSH1 0x0 DUP8 DUP1 EXTCODESIZE ISZERO DUP1 ISZERO PUSH2 0x729 JUMPI PUSH1 0x0 DUP1 REVERT JUMPDEST POP GAS CALL ISZERO DUP1 ISZERO PUSH2 0x73D JUMPI RETURNDATASIZE PUSH1 0x0 DUP1 RETURNDATACOPY RETURNDATASIZE PUSH1 0x0 REVERT JUMPDEST POP POP POP PUSH1 0x0 DUP3 DUP2 MSTORE PUSH1 0x4 PUSH1 0x20 MSTORE PUSH1 0x40 DUP2 KECCAK256 DUP1 SLOAD PUSH1 0x1 PUSH1 0x1 PUSH1 0xA0 SHL SUB NOT AND CALLER OR SWAP1 SSTORE PUSH1 0x6 DUP1 SLOAD PUSH1 0x1 DUP2 ADD DUP3 SSTORE SWAP2 MSTORE PUSH32 0xF652222313E28459528D920B65115C16C04F3EFC82AAEDC97BE59F3F377C0D3F ADD DUP3 SWAP1 SSTORE POP PUSH2 0x79E PUSH1 0x3 DUP1 SLOAD PUSH1 0x1 ADD SWAP1 SSTORE JUMP JUMPDEST POP JUMP JUMPDEST PUSH2 0x7A9 PUSH2 0x898 JUMP JUMPDEST PUSH1 0x1 PUSH1 0x1 PUSH1 0xA0 SHL SUB DUP2 AND PUSH2 0x80E JUMPI PUSH1 0x40 MLOAD PUSH3 0x461BCD PUSH1 0xE5 SHL DUP2 MSTORE PUSH1 0x20 PUSH1 0x4 DUP3 ADD MSTORE PUSH1 0x26 PUSH1 0x24 DUP3 ADD MSTORE PUSH32 0x4F776E61626C653A206E6577206F776E657220697320746865207A65726F2061 PUSH1 0x44 DUP3 ADD MSTORE PUSH6 0x646472657373 PUSH1 0xD0 SHL PUSH1 0x64 DUP3 ADD MSTORE PUSH1 0x84 ADD PUSH2 0xE8 JUMP JUMPDEST PUSH2 0x79E DUP2 PUSH2 0x8F2 JUMP JUMPDEST PUSH2 0x81F PUSH2 0x898 JUMP JUMPDEST PUSH1 0x2 DUP1 SLOAD PUSH1 0x1 PUSH1 0x1 PUSH1 0xA0 SHL SUB NOT AND PUSH1 0x1 PUSH1 0x1 PUSH1 0xA0 SHL SUB SWAP3 SWAP1 SWAP3 AND SWAP2 SWAP1 SWAP2 OR SWAP1 SSTORE JUMP JUMPDEST DUP1 SLOAD DUP1 PUSH2 0x890 JUMPI PUSH1 0x40 MLOAD PUSH3 0x461BCD PUSH1 0xE5 SHL DUP2 MSTORE PUSH1 0x20 PUSH1 0x4 DUP3 ADD MSTORE PUSH1 0x1B PUSH1 0x24 DUP3 ADD MSTORE PUSH32 0x436F756E7465723A2064656372656D656E74206F766572666C6F770000000000 PUSH1 0x44 DUP3 ADD MSTORE PUSH1 0x64 ADD PUSH2 0xE8 JUMP JUMPDEST PUSH1 0x0 NOT ADD SWAP1 SSTORE JUMP JUMPDEST PUSH1 0x0 SLOAD PUSH1 0x1 PUSH1 0x1 PUSH1 0xA0 SHL SUB AND CALLER EQ PUSH2 0x6D5 JUMPI PUSH1 0x40 MLOAD PUSH3 0x461BCD PUSH1 0xE5 SHL DUP2 MSTORE PUSH1 0x20 PUSH1 0x4 DUP3 ADD DUP2 SWAP1 MSTORE PUSH1 0x24 DUP3 ADD MSTORE PUSH32 0x4F776E61626C653A2063616C6C6572206973206E6F7420746865206F776E6572 PUSH1 0x44 DUP3 ADD MSTORE PUSH1 0x64 ADD PUSH2 0xE8 JUMP JUMPDEST PUSH1 0x0 DUP1 SLOAD PUSH1 0x1 PUSH1 0x1 PUSH1 0xA0 SHL SUB DUP4 DUP2 AND PUSH1 0x1 PUSH1 0x1 PUSH1 0xA0 SHL SUB NOT DUP4 AND DUP2 OR DUP5 SSTORE PUSH1 0x40 MLOAD SWAP2 SWAP1 SWAP3 AND SWAP3 DUP4 SWAP2 PUSH32 0x8BE0079C531659141344CD1FD0A4F28419497F9722A3DAAFE3B4186F6B6457E0 SWAP2 SWAP1 LOG3 POP POP JUMP JUMPDEST PUSH1 0x0 DUP3 PUSH2 0x95F JUMPI PUSH4 0x4E487B71 PUSH1 0xE0 SHL PUSH1 0x0 MSTORE PUSH1 0x12 PUSH1 0x4 MSTORE PUSH1 0x24 PUSH1 0x0 REVERT JUMPDEST POP DIV SWAP1 JUMP JUMPDEST PUSH4 0x4E487B71 PUSH1 0xE0 SHL PUSH1 0x0 MSTORE PUSH1 0x41 PUSH1 0x4 MSTORE PUSH1 0x24 PUSH1 0x0 REVERT JUMPDEST PUSH1 0x40 MLOAD PUSH1 0x1F DUP3 ADD PUSH1 0x1F NOT AND DUP2 ADD PUSH8 0xFFFFFFFFFFFFFFFF DUP2 GT DUP3 DUP3 LT OR ISZERO PUSH2 0x9A3 JUMPI PUSH2 0x9A3 PUSH2 0x964 JUMP JUMPDEST PUSH1 0x40 MSTORE SWAP2 SWAP1 POP JUMP JUMPDEST PUSH1 0x0 PUSH1 0x20 DUP1 DUP4 DUP6 SUB SLT ISZERO PUSH2 0x9BE JUMPI PUSH1 0x0 DUP1 REVERT JUMPDEST DUP3 MLOAD PUSH8 0xFFFFFFFFFFFFFFFF DUP1 DUP3 GT ISZERO PUSH2 0x9D6 JUMPI PUSH1 0x0 DUP1 REVERT JUMPDEST DUP2 DUP6 ADD SWAP2 POP DUP6 PUSH1 0x1F DUP4 ADD SLT PUSH2 0x9EA JUMPI PUSH1 0x0 DUP1 REVERT JUMPDEST DUP2 MLOAD DUP2 DUP2 GT ISZERO PUSH2 0x9FC JUMPI PUSH2 0x9FC PUSH2 0x964 JUMP JUMPDEST DUP1 PUSH1 0x5 SHL SWAP2 POP PUSH2 0xA0D DUP5 DUP4 ADD PUSH2 0x97A JUMP JUMPDEST DUP2 DUP2 MSTORE SWAP2 DUP4 ADD DUP5 ADD SWAP2 DUP5 DUP2 ADD SWAP1 DUP9 DUP5 GT ISZERO PUSH2 0xA27 JUMPI PUSH1 0x0 DUP1 REVERT JUMPDEST SWAP4 DUP6 ADD SWAP4 JUMPDEST DUP4 DUP6 LT ISZERO PUSH2 0xA45 JUMPI DUP5 MLOAD DUP3 MSTORE SWAP4 DUP6 ADD SWAP4 SWAP1 DUP6 ADD SWAP1 PUSH2 0xA2C JUMP JUMPDEST SWAP9 SWAP8 POP POP POP POP POP POP POP POP JUMP JUMPDEST PUSH4 0x4E487B71 PUSH1 0xE0 SHL PUSH1 0x0 MSTORE PUSH1 0x32 PUSH1 0x4 MSTORE PUSH1 0x24 PUSH1 0x0 REVERT JUMPDEST DUP1 DUP3 ADD DUP1 DUP3 GT ISZERO PUSH2 0xA88 JUMPI PUSH4 0x4E487B71 PUSH1 0xE0 SHL PUSH1 0x0 MSTORE PUSH1 0x11 PUSH1 0x4 MSTORE PUSH1 0x24 PUSH1 0x0 REVERT JUMPDEST SWAP3 SWAP2 POP POP JUMP JUMPDEST DUP1 CALLDATALOAD PUSH1 0x1 PUSH1 0x1 PUSH1 0xA0 SHL SUB DUP2 AND DUP2 EQ PUSH2 0xAA5 JUMPI PUSH1 0x0 DUP1 REVERT JUMPDEST SWAP2 SWAP1 POP JUMP JUMPDEST PUSH1 0x0 DUP1 PUSH1 0x0 DUP1 PUSH1 0x80 DUP6 DUP8 SUB SLT ISZERO PUSH2 0xAC0 JUMPI PUSH1 0x0 DUP1 REVERT JUMPDEST PUSH2 0xAC9 DUP6 PUSH2 0xA8E JUMP JUMPDEST SWAP4 POP PUSH1 0x20 PUSH2 0xAD8 DUP2 DUP8 ADD PUSH2 0xA8E JUMP JUMPDEST SWAP4 POP PUSH1 0x40 DUP7 ADD CALLDATALOAD SWAP3 POP PUSH1 0x60 DUP7 ADD CALLDATALOAD PUSH8 0xFFFFFFFFFFFFFFFF DUP1 DUP3 GT ISZERO PUSH2 0xAFC JUMPI PUSH1 0x0 DUP1 REVERT JUMPDEST DUP2 DUP9 ADD SWAP2 POP DUP9 PUSH1 0x1F DUP4 ADD SLT PUSH2 0xB10 JUMPI PUSH1 0x0 DUP1 REVERT JUMPDEST DUP2 CALLDATALOAD DUP2 DUP2 GT ISZERO PUSH2 0xB22 JUMPI PUSH2 0xB22 PUSH2 0x964 JUMP JUMPDEST PUSH2 0xB34 PUSH1 0x1F DUP3 ADD PUSH1 0x1F NOT AND DUP6 ADD PUSH2 0x97A JUMP JUMPDEST SWAP2 POP DUP1 DUP3 MSTORE DUP10 DUP5 DUP3 DUP6 ADD ADD GT ISZERO PUSH2 0xB4A JUMPI PUSH1 0x0 DUP1 REVERT JUMPDEST DUP1 DUP5 DUP5 ADD DUP6 DUP5 ADD CALLDATACOPY PUSH1 0x0 DUP5 DUP3 DUP5 ADD ADD MSTORE POP DUP1 SWAP4 POP POP POP POP SWAP3 SWAP6 SWAP2 SWAP5 POP SWAP3 POP JUMP JUMPDEST PUSH1 0x0 PUSH1 0x20 DUP3 DUP5 SUB SLT ISZERO PUSH2 0xB7C JUMPI PUSH1 0x0 DUP1 REVERT JUMPDEST POP CALLDATALOAD SWAP2 SWAP1 POP JUMP JUMPDEST PUSH1 0x0 PUSH1 0x20 DUP3 DUP5 SUB SLT ISZERO PUSH2 0xB95 JUMPI PUSH1 0x0 DUP1 REVERT JUMPDEST PUSH2 0xB9E DUP3 PUSH2 0xA8E JUMP JUMPDEST SWAP4 SWAP3 POP POP POP JUMP INVALID LOG2 PUSH5 0x6970667358 0x22 SLT KECCAK256 0xE3 BYTE PUSH28 0x71FFC867E81D74121A93F27784CD54C1E8A520903794B304D45FF7B7 DIFFICULTY PUSH5 0x736F6C6343 STOP ADDMOD GT STOP CALLER "
				},
				"gasEstimates": {
					"creation": {
						"codeDepositCost": "607000",
						"executionCost": "infinite",
						"totalCost": "infinite"
					},
					"external": {
						"calculateRewards(uint256)": "2482",
						"claim(uint256)": "infinite",
						"onERC721Received(address,address,uint256,bytes)": "infinite",
						"owner()": "2331",
						"renounceOwnership()": "infinite",
						"rewards(uint256)": "2526",
						"setNftContact(address)": "26845",
						"stake(uint256)": "infinite",
						"tokenOwnedBy(uint256)": "2566",
						"transferOwnership(address)": "28399",
						"unstake(uint256)": "infinite"
					}
				},
				"methodIdentifiers": {
					"calculateRewards(uint256)": "d3ea4350",
					"claim(uint256)": "379607f5",
					"onERC721Received(address,address,uint256,bytes)": "150b7a02",
					"owner()": "8da5cb5b",
					"renounceOwnership()": "715018a6",
					"rewards(uint256)": "f301af42",
					"setNftContact(address)": "fd71c650",
					"stake(uint256)": "a694fc3a",
					"tokenOwnedBy(uint256)": "8488cc41",
					"transferOwnership(address)": "f2fde38b",
					"unstake(uint256)": "2e17de78"
				}
			},
			"storageLayout": {
				"storage": [
					{
						"astId": 7,
						"contract": "contracts/NFTStaking.sol:SacredTemple",
						"label": "_owner",
						"offset": 0,
						"slot": "0",
						"type": "t_address"
					},
					{
						"astId": 123,
						"contract": "contracts/NFTStaking.sol:SacredTemple",
						"label": "_status",
						"offset": 0,
						"slot": "1",
						"type": "t_uint256"
					},
					{
						"astId": 445,
						"contract": "contracts/NFTStaking.sol:SacredTemple",
						"label": "_nftContract",
						"offset": 0,
						"slot": "2",
						"type": "t_address"
					},
					{
						"astId": 452,
						"contract": "contracts/NFTStaking.sol:SacredTemple",
						"label": "_stakedNFTCounter",
						"offset": 0,
						"slot": "3",
						"type": "t_struct(Counter)341_storage"
					},
					{
						"astId": 478,
						"contract": "contracts/NFTStaking.sol:SacredTemple",
						"label": "tokenOwnedBy",
						"offset": 0,
						"slot": "4",
						"type": "t_mapping(t_uint256,t_address)"
					},
					{
						"astId": 482,
						"contract": "contracts/NFTStaking.sol:SacredTemple",
						"label": "rewards",
						"offset": 0,
						"slot": "5",
						"type": "t_mapping(t_uint256,t_uint256)"
					},
					{
						"astId": 485,
						"contract": "contracts/NFTStaking.sol:SacredTemple",
						"label": "tokenStaked",
						"offset": 0,
						"slot": "6",
						"type": "t_array(t_uint256)dyn_storage"
					}
				],
				"types": {
					"t_address": {
						"encoding": "inplace",
						"label": "address",
						"numberOfBytes": "20"
					},
					"t_array(t_uint256)dyn_storage": {
						"base": "t_uint256",
						"encoding": "dynamic_array",
						"label": "uint256[]",
						"numberOfBytes": "32"
					},
					"t_mapping(t_uint256,t_address)": {
						"encoding": "mapping",
						"key": "t_uint256",
						"label": "mapping(uint256 => address)",
						"numberOfBytes": "32",
						"value": "t_address"
					},
					"t_mapping(t_uint256,t_uint256)": {
						"encoding": "mapping",
						"key": "t_uint256",
						"label": "mapping(uint256 => uint256)",
						"numberOfBytes": "32",
						"value": "t_uint256"
					},
					"t_struct(Counter)341_storage": {
						"encoding": "inplace",
						"label": "struct Counters.Counter",
						"members": [
							{
								"astId": 340,
								"contract": "contracts/NFTStaking.sol:SacredTemple",
								"label": "_value",
								"offset": 0,
								"slot": "0",
								"type": "t_uint256"
							}
						],
						"numberOfBytes": "32"
					},
					"t_uint256": {
						"encoding": "inplace",
						"label": "uint256",
						"numberOfBytes": "32"
					}
				}
			},
			"userdoc": {
				"kind": "user",
				"methods": {},
				"version": 1
			}
		}
	}
}