{
	"contracts/NFTStaking.sol": {
		"SacredTemple": {
			"abi": [
				{
					"inputs": [
						{
							"internalType": "contract IERC721",
							"name": "nftContract_",
							"type": "address"
						}
					],
					"stateMutability": "nonpayable",
					"type": "constructor"
				},
				{
					"anonymous": false,
					"inputs": [
						{
							"indexed": false,
							"internalType": "address",
							"name": "owner",
							"type": "address"
						},
						{
							"indexed": false,
							"internalType": "uint256",
							"name": "amount",
							"type": "uint256"
						}
					],
					"name": "Claimed",
					"type": "event"
				},
				{
					"anonymous": false,
					"inputs": [
						{
							"indexed": false,
							"internalType": "address",
							"name": "owner",
							"type": "address"
						},
						{
							"indexed": false,
							"internalType": "uint256",
							"name": "tokenId",
							"type": "uint256"
						},
						{
							"indexed": false,
							"internalType": "uint256",
							"name": "value",
							"type": "uint256"
						}
					],
					"name": "NFTStaked",
					"type": "event"
				},
				{
					"anonymous": false,
					"inputs": [
						{
							"indexed": false,
							"internalType": "address",
							"name": "owner",
							"type": "address"
						},
						{
							"indexed": false,
							"internalType": "uint256",
							"name": "tokenId",
							"type": "uint256"
						},
						{
							"indexed": false,
							"internalType": "uint256",
							"name": "value",
							"type": "uint256"
						}
					],
					"name": "NFTUnstaked",
					"type": "event"
				},
				{
					"anonymous": false,
					"inputs": [
						{
							"indexed": true,
							"internalType": "address",
							"name": "previousOwner",
							"type": "address"
						},
						{
							"indexed": true,
							"internalType": "address",
							"name": "newOwner",
							"type": "address"
						}
					],
					"name": "OwnershipTransferred",
					"type": "event"
				},
				{
					"inputs": [
						{
							"internalType": "address",
							"name": "",
							"type": "address"
						},
						{
							"internalType": "address",
							"name": "",
							"type": "address"
						},
						{
							"internalType": "uint256",
							"name": "",
							"type": "uint256"
						},
						{
							"internalType": "bytes",
							"name": "",
							"type": "bytes"
						}
					],
					"name": "onERC721Received",
					"outputs": [
						{
							"internalType": "bytes4",
							"name": "",
							"type": "bytes4"
						}
					],
					"stateMutability": "nonpayable",
					"type": "function"
				},
				{
					"inputs": [],
					"name": "owner",
					"outputs": [
						{
							"internalType": "address",
							"name": "",
							"type": "address"
						}
					],
					"stateMutability": "view",
					"type": "function"
				},
				{
					"inputs": [],
					"name": "renounceOwnership",
					"outputs": [],
					"stateMutability": "nonpayable",
					"type": "function"
				},
				{
					"inputs": [
						{
							"internalType": "address",
							"name": "",
							"type": "address"
						}
					],
					"name": "rewards",
					"outputs": [
						{
							"internalType": "uint256",
							"name": "",
							"type": "uint256"
						}
					],
					"stateMutability": "view",
					"type": "function"
				},
				{
					"inputs": [
						{
							"internalType": "contract IERC721",
							"name": "nftContract_",
							"type": "address"
						}
					],
					"name": "setNftContact",
					"outputs": [],
					"stateMutability": "nonpayable",
					"type": "function"
				},
				{
					"inputs": [
						{
							"internalType": "uint256",
							"name": "tokenId",
							"type": "uint256"
						}
					],
					"name": "stake",
					"outputs": [],
					"stateMutability": "nonpayable",
					"type": "function"
				},
				{
					"inputs": [
						{
							"internalType": "uint256",
							"name": "",
							"type": "uint256"
						}
					],
					"name": "tokenOwnedBy",
					"outputs": [
						{
							"internalType": "address",
							"name": "",
							"type": "address"
						}
					],
					"stateMutability": "view",
					"type": "function"
				},
				{
					"inputs": [
						{
							"internalType": "address",
							"name": "newOwner",
							"type": "address"
						}
					],
					"name": "transferOwnership",
					"outputs": [],
					"stateMutability": "nonpayable",
					"type": "function"
				},
				{
					"inputs": [
						{
							"internalType": "uint256",
							"name": "tokenId",
							"type": "uint256"
						}
					],
					"name": "unstake",
					"outputs": [],
					"stateMutability": "nonpayable",
					"type": "function"
				},
				{
					"stateMutability": "payable",
					"type": "receive"
				}
			],
			"devdoc": {
				"kind": "dev",
				"methods": {
					"onERC721Received(address,address,uint256,bytes)": {
						"details": "See {IERC721Receiver-onERC721Received}. Always returns `IERC721Receiver.onERC721Received.selector`."
					},
					"owner()": {
						"details": "Returns the address of the current owner."
					},
					"renounceOwnership()": {
						"details": "Leaves the contract without owner. It will not be possible to call `onlyOwner` functions anymore. Can only be called by the current owner. NOTE: Renouncing ownership will leave the contract without an owner, thereby removing any functionality that is only available to the owner."
					},
					"transferOwnership(address)": {
						"details": "Transfers ownership of the contract to a new account (`newOwner`). Can only be called by the current owner."
					}
				},
				"version": 1
			},
			"evm": {
				"assembly": "    /* \"contracts/NFTStaking.sol\":386:1710  contract SacredTemple is Ownable, ERC721Holder, ReentrancyGuard {... */\n  mstore(0x40, 0x80)\n    /* \"contracts/NFTStaking.sol\":894:973  constructor (IERC721 nftContract_) {... */\n  callvalue\n  dup1\n  iszero\n  tag_1\n  jumpi\n  0x00\n  dup1\n  revert\ntag_1:\n  pop\n  mload(0x40)\n  sub(codesize, bytecodeSize)\n  dup1\n  bytecodeSize\n  dup4\n  codecopy\n  dup2\n  dup2\n  add\n  0x40\n  mstore\n  dup2\n  add\n  swap1\n  tag_2\n  swap2\n  swap1\n  tag_3\n  jump\t// in\ntag_2:\n    /* \"@openzeppelin/contracts@4.7.3/access/Ownable.sol\":936:968  _transferOwnership(_msgSender()) */\n  tag_8\n    /* \"@openzeppelin/contracts@4.7.3/access/Ownable.sol\":955:967  _msgSender() */\n  tag_9\n    /* \"@openzeppelin/contracts@4.7.3/access/Ownable.sol\":955:965  _msgSender */\n  shl(0x20, tag_10)\n    /* \"@openzeppelin/contracts@4.7.3/access/Ownable.sol\":955:967  _msgSender() */\n  0x20\n  shr\n  jump\t// in\ntag_9:\n    /* \"@openzeppelin/contracts@4.7.3/access/Ownable.sol\":936:954  _transferOwnership */\n  shl(0x20, tag_11)\n    /* \"@openzeppelin/contracts@4.7.3/access/Ownable.sol\":936:968  _transferOwnership(_msgSender()) */\n  0x20\n  shr\n  jump\t// in\ntag_8:\n    /* \"@openzeppelin/contracts@4.7.3/security/ReentrancyGuard.sol\":1701:1702  1 */\n  0x01\n    /* \"@openzeppelin/contracts@4.7.3/security/ReentrancyGuard.sol\":1806:1813  _status */\n  dup1\n    /* \"@openzeppelin/contracts@4.7.3/security/ReentrancyGuard.sol\":1806:1828  _status = _NOT_ENTERED */\n  dup2\n  swap1\n  sstore\n  pop\n    /* \"contracts/NFTStaking.sol\":954:966  nftContract_ */\n  dup1\n    /* \"contracts/NFTStaking.sol\":939:951  _nftContract */\n  0x02\n  0x00\n    /* \"contracts/NFTStaking.sol\":939:966  _nftContract = nftContract_ */\n  0x0100\n  exp\n  dup2\n  sload\n  dup2\n  0xffffffffffffffffffffffffffffffffffffffff\n  mul\n  not\n  and\n  swap1\n  dup4\n  0xffffffffffffffffffffffffffffffffffffffff\n  and\n  mul\n  or\n  swap1\n  sstore\n  pop\n    /* \"contracts/NFTStaking.sol\":894:973  constructor (IERC721 nftContract_) {... */\n  pop\n    /* \"contracts/NFTStaking.sol\":386:1710  contract SacredTemple is Ownable, ERC721Holder, ReentrancyGuard {... */\n  jump(tag_14)\n    /* \"@openzeppelin/contracts@4.7.3/utils/Context.sol\":640:736  function _msgSender() internal view virtual returns (address) {... */\ntag_10:\n    /* \"@openzeppelin/contracts@4.7.3/utils/Context.sol\":693:700  address */\n  0x00\n    /* \"@openzeppelin/contracts@4.7.3/utils/Context.sol\":719:729  msg.sender */\n  caller\n    /* \"@openzeppelin/contracts@4.7.3/utils/Context.sol\":712:729  return msg.sender */\n  swap1\n  pop\n    /* \"@openzeppelin/contracts@4.7.3/utils/Context.sol\":640:736  function _msgSender() internal view virtual returns (address) {... */\n  swap1\n  jump\t// out\n    /* \"@openzeppelin/contracts@4.7.3/access/Ownable.sol\":2433:2620  function _transferOwnership(address newOwner) internal virtual {... */\ntag_11:\n    /* \"@openzeppelin/contracts@4.7.3/access/Ownable.sol\":2506:2522  address oldOwner */\n  0x00\n    /* \"@openzeppelin/contracts@4.7.3/access/Ownable.sol\":2525:2531  _owner */\n  dup1\n  0x00\n  swap1\n  sload\n  swap1\n  0x0100\n  exp\n  swap1\n  div\n  0xffffffffffffffffffffffffffffffffffffffff\n  and\n    /* \"@openzeppelin/contracts@4.7.3/access/Ownable.sol\":2506:2531  address oldOwner = _owner */\n  swap1\n  pop\n    /* \"@openzeppelin/contracts@4.7.3/access/Ownable.sol\":2550:2558  newOwner */\n  dup2\n    /* \"@openzeppelin/contracts@4.7.3/access/Ownable.sol\":2541:2547  _owner */\n  0x00\n  dup1\n    /* \"@openzeppelin/contracts@4.7.3/access/Ownable.sol\":2541:2558  _owner = newOwner */\n  0x0100\n  exp\n  dup2\n  sload\n  dup2\n  0xffffffffffffffffffffffffffffffffffffffff\n  mul\n  not\n  and\n  swap1\n  dup4\n  0xffffffffffffffffffffffffffffffffffffffff\n  and\n  mul\n  or\n  swap1\n  sstore\n  pop\n    /* \"@openzeppelin/contracts@4.7.3/access/Ownable.sol\":2604:2612  newOwner */\n  dup2\n    /* \"@openzeppelin/contracts@4.7.3/access/Ownable.sol\":2573:2613  OwnershipTransferred(oldOwner, newOwner) */\n  0xffffffffffffffffffffffffffffffffffffffff\n  and\n    /* \"@openzeppelin/contracts@4.7.3/access/Ownable.sol\":2594:2602  oldOwner */\n  dup2\n    /* \"@openzeppelin/contracts@4.7.3/access/Ownable.sol\":2573:2613  OwnershipTransferred(oldOwner, newOwner) */\n  0xffffffffffffffffffffffffffffffffffffffff\n  and\n  0x8be0079c531659141344cd1fd0a4f28419497f9722a3daafe3b4186f6b6457e0\n  mload(0x40)\n  mload(0x40)\n  dup1\n  swap2\n  sub\n  swap1\n  log3\n    /* \"@openzeppelin/contracts@4.7.3/access/Ownable.sol\":2496:2620  {... */\n  pop\n    /* \"@openzeppelin/contracts@4.7.3/access/Ownable.sol\":2433:2620  function _transferOwnership(address newOwner) internal virtual {... */\n  pop\n  jump\t// out\n    /* \"#utility.yul\":7:180   */\ntag_18:\n    /* \"#utility.yul\":79:84   */\n  0x00\n    /* \"#utility.yul\":110:116   */\n  dup2\n    /* \"#utility.yul\":104:117   */\n  mload\n    /* \"#utility.yul\":95:117   */\n  swap1\n  pop\n    /* \"#utility.yul\":126:174   */\n  tag_20\n    /* \"#utility.yul\":168:173   */\n  dup2\n    /* \"#utility.yul\":126:174   */\n  tag_21\n  jump\t// in\ntag_20:\n    /* \"#utility.yul\":7:180   */\n  swap3\n  swap2\n  pop\n  pop\n  jump\t// out\n    /* \"#utility.yul\":186:567   */\ntag_3:\n    /* \"#utility.yul\":271:277   */\n  0x00\n    /* \"#utility.yul\":320:322   */\n  0x20\n    /* \"#utility.yul\":308:317   */\n  dup3\n    /* \"#utility.yul\":299:306   */\n  dup5\n    /* \"#utility.yul\":295:318   */\n  sub\n    /* \"#utility.yul\":291:323   */\n  slt\n    /* \"#utility.yul\":288:407   */\n  iszero\n  tag_23\n  jumpi\n    /* \"#utility.yul\":326:405   */\n  tag_24\n  tag_25\n  jump\t// in\ntag_24:\n    /* \"#utility.yul\":288:407   */\ntag_23:\n    /* \"#utility.yul\":446:447   */\n  0x00\n    /* \"#utility.yul\":471:550   */\n  tag_26\n    /* \"#utility.yul\":542:549   */\n  dup5\n    /* \"#utility.yul\":533:539   */\n  dup3\n    /* \"#utility.yul\":522:531   */\n  dup6\n    /* \"#utility.yul\":518:540   */\n  add\n    /* \"#utility.yul\":471:550   */\n  tag_18\n  jump\t// in\ntag_26:\n    /* \"#utility.yul\":461:550   */\n  swap2\n  pop\n    /* \"#utility.yul\":417:560   */\n  pop\n    /* \"#utility.yul\":186:567   */\n  swap3\n  swap2\n  pop\n  pop\n  jump\t// out\n    /* \"#utility.yul\":654:750   */\ntag_29:\n    /* \"#utility.yul\":691:698   */\n  0x00\n    /* \"#utility.yul\":720:744   */\n  tag_31\n    /* \"#utility.yul\":738:743   */\n  dup3\n    /* \"#utility.yul\":720:744   */\n  tag_32\n  jump\t// in\ntag_31:\n    /* \"#utility.yul\":709:744   */\n  swap1\n  pop\n    /* \"#utility.yul\":654:750   */\n  swap2\n  swap1\n  pop\n  jump\t// out\n    /* \"#utility.yul\":756:867   */\ntag_33:\n    /* \"#utility.yul\":808:815   */\n  0x00\n    /* \"#utility.yul\":837:861   */\n  tag_35\n    /* \"#utility.yul\":855:860   */\n  dup3\n    /* \"#utility.yul\":837:861   */\n  tag_29\n  jump\t// in\ntag_35:\n    /* \"#utility.yul\":826:861   */\n  swap1\n  pop\n    /* \"#utility.yul\":756:867   */\n  swap2\n  swap1\n  pop\n  jump\t// out\n    /* \"#utility.yul\":873:999   */\ntag_32:\n    /* \"#utility.yul\":910:917   */\n  0x00\n    /* \"#utility.yul\":950:992   */\n  0xffffffffffffffffffffffffffffffffffffffff\n    /* \"#utility.yul\":943:948   */\n  dup3\n    /* \"#utility.yul\":939:993   */\n  and\n    /* \"#utility.yul\":928:993   */\n  swap1\n  pop\n    /* \"#utility.yul\":873:999   */\n  swap2\n  swap1\n  pop\n  jump\t// out\n    /* \"#utility.yul\":1128:1245   */\ntag_25:\n    /* \"#utility.yul\":1237:1238   */\n  0x00\n    /* \"#utility.yul\":1234:1235   */\n  dup1\n    /* \"#utility.yul\":1227:1239   */\n  revert\n    /* \"#utility.yul\":1251:1403   */\ntag_21:\n    /* \"#utility.yul\":1339:1378   */\n  tag_41\n    /* \"#utility.yul\":1372:1377   */\n  dup2\n    /* \"#utility.yul\":1339:1378   */\n  tag_33\n  jump\t// in\ntag_41:\n    /* \"#utility.yul\":1332:1337   */\n  dup2\n    /* \"#utility.yul\":1329:1379   */\n  eq\n    /* \"#utility.yul\":1319:1397   */\n  tag_42\n  jumpi\n    /* \"#utility.yul\":1393:1394   */\n  0x00\n    /* \"#utility.yul\":1390:1391   */\n  dup1\n    /* \"#utility.yul\":1383:1395   */\n  revert\n    /* \"#utility.yul\":1319:1397   */\ntag_42:\n    /* \"#utility.yul\":1251:1403   */\n  pop\n  jump\t// out\n    /* \"contracts/NFTStaking.sol\":386:1710  contract SacredTemple is Ownable, ERC721Holder, ReentrancyGuard {... */\ntag_14:\n  dataSize(sub_0)\n  dup1\n  dataOffset(sub_0)\n  0x00\n  codecopy\n  0x00\n  return\nstop\n\nsub_0: assembly {\n        /* \"contracts/NFTStaking.sol\":386:1710  contract SacredTemple is Ownable, ERC721Holder, ReentrancyGuard {... */\n      mstore(0x40, 0x80)\n      jumpi(tag_1, lt(calldatasize, 0x04))\n      shr(0xe0, calldataload(0x00))\n      dup1\n      0x8488cc41\n      gt\n      tag_12\n      jumpi\n      dup1\n      0x8488cc41\n      eq\n      tag_7\n      jumpi\n      dup1\n      0x8da5cb5b\n      eq\n      tag_8\n      jumpi\n      dup1\n      0xa694fc3a\n      eq\n      tag_9\n      jumpi\n      dup1\n      0xf2fde38b\n      eq\n      tag_10\n      jumpi\n      dup1\n      0xfd71c650\n      eq\n      tag_11\n      jumpi\n      jump(tag_2)\n    tag_12:\n      dup1\n      0x0700037d\n      eq\n      tag_3\n      jumpi\n      dup1\n      0x150b7a02\n      eq\n      tag_4\n      jumpi\n      dup1\n      0x2e17de78\n      eq\n      tag_5\n      jumpi\n      dup1\n      0x715018a6\n      eq\n      tag_6\n      jumpi\n      jump(tag_2)\n    tag_1:\n      jumpi(tag_2, calldatasize)\n      stop\n    tag_2:\n      0x00\n      dup1\n      revert\n        /* \"contracts/NFTStaking.sol\":816:859  mapping (address => uint256) public rewards */\n    tag_3:\n      callvalue\n      dup1\n      iszero\n      tag_15\n      jumpi\n      0x00\n      dup1\n      revert\n    tag_15:\n      pop\n      tag_16\n      0x04\n      dup1\n      calldatasize\n      sub\n      dup2\n      add\n      swap1\n      tag_17\n      swap2\n      swap1\n      tag_18\n      jump\t// in\n    tag_17:\n      tag_19\n      jump\t// in\n    tag_16:\n      mload(0x40)\n      tag_20\n      swap2\n      swap1\n      tag_21\n      jump\t// in\n    tag_20:\n      mload(0x40)\n      dup1\n      swap2\n      sub\n      swap1\n      return\n        /* \"@openzeppelin/contracts@4.7.3/token/ERC721/utils/ERC721Holder.sol\":588:788  function onERC721Received(... */\n    tag_4:\n      callvalue\n      dup1\n      iszero\n      tag_22\n      jumpi\n      0x00\n      dup1\n      revert\n    tag_22:\n      pop\n      tag_23\n      0x04\n      dup1\n      calldatasize\n      sub\n      dup2\n      add\n      swap1\n      tag_24\n      swap2\n      swap1\n      tag_25\n      jump\t// in\n    tag_24:\n      tag_26\n      jump\t// in\n    tag_23:\n      mload(0x40)\n      tag_27\n      swap2\n      swap1\n      tag_28\n      jump\t// in\n    tag_27:\n      mload(0x40)\n      dup1\n      swap2\n      sub\n      swap1\n      return\n        /* \"contracts/NFTStaking.sol\":1305:1600  function unstake(uint256 tokenId) nonReentrant external {... */\n    tag_5:\n      callvalue\n      dup1\n      iszero\n      tag_29\n      jumpi\n      0x00\n      dup1\n      revert\n    tag_29:\n      pop\n      tag_30\n      0x04\n      dup1\n      calldatasize\n      sub\n      dup2\n      add\n      swap1\n      tag_31\n      swap2\n      swap1\n      tag_32\n      jump\t// in\n    tag_31:\n      tag_33\n      jump\t// in\n    tag_30:\n      stop\n        /* \"@openzeppelin/contracts@4.7.3/access/Ownable.sol\":1831:1932  function renounceOwnership() public virtual onlyOwner {... */\n    tag_6:\n      callvalue\n      dup1\n      iszero\n      tag_34\n      jumpi\n      0x00\n      dup1\n      revert\n    tag_34:\n      pop\n      tag_35\n      tag_36\n      jump\t// in\n    tag_35:\n      stop\n        /* \"contracts/NFTStaking.sol\":762:810  mapping (uint256 => address) public tokenOwnedBy */\n    tag_7:\n      callvalue\n      dup1\n      iszero\n      tag_37\n      jumpi\n      0x00\n      dup1\n      revert\n    tag_37:\n      pop\n      tag_38\n      0x04\n      dup1\n      calldatasize\n      sub\n      dup2\n      add\n      swap1\n      tag_39\n      swap2\n      swap1\n      tag_32\n      jump\t// in\n    tag_39:\n      tag_40\n      jump\t// in\n    tag_38:\n      mload(0x40)\n      tag_41\n      swap2\n      swap1\n      tag_42\n      jump\t// in\n    tag_41:\n      mload(0x40)\n      dup1\n      swap2\n      sub\n      swap1\n      return\n        /* \"@openzeppelin/contracts@4.7.3/access/Ownable.sol\":1201:1286  function owner() public view virtual returns (address) {... */\n    tag_8:\n      callvalue\n      dup1\n      iszero\n      tag_43\n      jumpi\n      0x00\n      dup1\n      revert\n    tag_43:\n      pop\n      tag_44\n      tag_45\n      jump\t// in\n    tag_44:\n      mload(0x40)\n      tag_46\n      swap2\n      swap1\n      tag_42\n      jump\t// in\n    tag_46:\n      mload(0x40)\n      dup1\n      swap2\n      sub\n      swap1\n      return\n        /* \"contracts/NFTStaking.sol\":1093:1299  function stake(uint256 tokenId) external {... */\n    tag_9:\n      callvalue\n      dup1\n      iszero\n      tag_47\n      jumpi\n      0x00\n      dup1\n      revert\n    tag_47:\n      pop\n      tag_48\n      0x04\n      dup1\n      calldatasize\n      sub\n      dup2\n      add\n      swap1\n      tag_49\n      swap2\n      swap1\n      tag_32\n      jump\t// in\n    tag_49:\n      tag_50\n      jump\t// in\n    tag_48:\n      stop\n        /* \"@openzeppelin/contracts@4.7.3/access/Ownable.sol\":2081:2279  function transferOwnership(address newOwner) public virtual onlyOwner {... */\n    tag_10:\n      callvalue\n      dup1\n      iszero\n      tag_51\n      jumpi\n      0x00\n      dup1\n      revert\n    tag_51:\n      pop\n      tag_52\n      0x04\n      dup1\n      calldatasize\n      sub\n      dup2\n      add\n      swap1\n      tag_53\n      swap2\n      swap1\n      tag_18\n      jump\t// in\n    tag_53:\n      tag_54\n      jump\t// in\n    tag_52:\n      stop\n        /* \"contracts/NFTStaking.sol\":979:1087  function setNftContact(IERC721 nftContract_) external onlyOwner {... */\n    tag_11:\n      callvalue\n      dup1\n      iszero\n      tag_55\n      jumpi\n      0x00\n      dup1\n      revert\n    tag_55:\n      pop\n      tag_56\n      0x04\n      dup1\n      calldatasize\n      sub\n      dup2\n      add\n      swap1\n      tag_57\n      swap2\n      swap1\n      tag_58\n      jump\t// in\n    tag_57:\n      tag_59\n      jump\t// in\n    tag_56:\n      stop\n        /* \"contracts/NFTStaking.sol\":816:859  mapping (address => uint256) public rewards */\n    tag_19:\n      mstore(0x20, 0x05)\n      dup1\n      0x00\n      mstore\n      keccak256(0x00, 0x40)\n      0x00\n      swap2\n      pop\n      swap1\n      pop\n      sload\n      dup2\n      jump\t// out\n        /* \"@openzeppelin/contracts@4.7.3/token/ERC721/utils/ERC721Holder.sol\":588:788  function onERC721Received(... */\n    tag_26:\n        /* \"@openzeppelin/contracts@4.7.3/token/ERC721/utils/ERC721Holder.sol\":726:732  bytes4 */\n      0x00\n        /* \"@openzeppelin/contracts@4.7.3/token/ERC721/utils/ERC721Holder.sol\":751:781  this.onERC721Received.selector */\n      shl(0xe0, 0x150b7a02)\n        /* \"@openzeppelin/contracts@4.7.3/token/ERC721/utils/ERC721Holder.sol\":744:781  return this.onERC721Received.selector */\n      swap1\n      pop\n        /* \"@openzeppelin/contracts@4.7.3/token/ERC721/utils/ERC721Holder.sol\":588:788  function onERC721Received(... */\n      swap5\n      swap4\n      pop\n      pop\n      pop\n      pop\n      jump\t// out\n        /* \"contracts/NFTStaking.sol\":1305:1600  function unstake(uint256 tokenId) nonReentrant external {... */\n    tag_33:\n        /* \"@openzeppelin/contracts@4.7.3/security/ReentrancyGuard.sol\":1744:1745  2 */\n      0x02\n        /* \"@openzeppelin/contracts@4.7.3/security/ReentrancyGuard.sol\":2325:2332  _status */\n      sload(0x01)\n        /* \"@openzeppelin/contracts@4.7.3/security/ReentrancyGuard.sol\":2325:2344  _status != _ENTERED */\n      eq\n      iszero\n        /* \"@openzeppelin/contracts@4.7.3/security/ReentrancyGuard.sol\":2317:2380  require(_status != _ENTERED, \"ReentrancyGuard: reentrant call\") */\n      tag_62\n      jumpi\n      mload(0x40)\n      0x08c379a000000000000000000000000000000000000000000000000000000000\n      dup2\n      mstore\n      0x04\n      add\n      tag_63\n      swap1\n      tag_64\n      jump\t// in\n    tag_63:\n      mload(0x40)\n      dup1\n      swap2\n      sub\n      swap1\n      revert\n    tag_62:\n        /* \"@openzeppelin/contracts@4.7.3/security/ReentrancyGuard.sol\":1744:1745  2 */\n      0x02\n        /* \"@openzeppelin/contracts@4.7.3/security/ReentrancyGuard.sol\":2455:2462  _status */\n      0x01\n        /* \"@openzeppelin/contracts@4.7.3/security/ReentrancyGuard.sol\":2455:2473  _status = _ENTERED */\n      dup2\n      swap1\n      sstore\n      pop\n        /* \"contracts/NFTStaking.sol\":1404:1414  msg.sender */\n      caller\n        /* \"contracts/NFTStaking.sol\":1379:1414  tokenOwnedBy[tokenId] == msg.sender */\n      0xffffffffffffffffffffffffffffffffffffffff\n      and\n        /* \"contracts/NFTStaking.sol\":1379:1391  tokenOwnedBy */\n      0x04\n        /* \"contracts/NFTStaking.sol\":1379:1400  tokenOwnedBy[tokenId] */\n      0x00\n        /* \"contracts/NFTStaking.sol\":1392:1399  tokenId */\n      dup4\n        /* \"contracts/NFTStaking.sol\":1379:1400  tokenOwnedBy[tokenId] */\n      dup2\n      mstore\n      0x20\n      add\n      swap1\n      dup2\n      mstore\n      0x20\n      add\n      0x00\n      keccak256\n      0x00\n      swap1\n      sload\n      swap1\n      0x0100\n      exp\n      swap1\n      div\n      0xffffffffffffffffffffffffffffffffffffffff\n      and\n        /* \"contracts/NFTStaking.sol\":1379:1414  tokenOwnedBy[tokenId] == msg.sender */\n      0xffffffffffffffffffffffffffffffffffffffff\n      and\n      eq\n        /* \"contracts/NFTStaking.sol\":1371:1441  require(tokenOwnedBy[tokenId] == msg.sender, \"You are not the owner.\") */\n      tag_66\n      jumpi\n      mload(0x40)\n      0x08c379a000000000000000000000000000000000000000000000000000000000\n      dup2\n      mstore\n      0x04\n      add\n      tag_67\n      swap1\n      tag_68\n      jump\t// in\n    tag_67:\n      mload(0x40)\n      dup1\n      swap2\n      sub\n      swap1\n      revert\n    tag_66:\n        /* \"contracts/NFTStaking.sol\":1458:1470  tokenOwnedBy */\n      0x04\n        /* \"contracts/NFTStaking.sol\":1458:1479  tokenOwnedBy[tokenId] */\n      0x00\n        /* \"contracts/NFTStaking.sol\":1471:1478  tokenId */\n      dup3\n        /* \"contracts/NFTStaking.sol\":1458:1479  tokenOwnedBy[tokenId] */\n      dup2\n      mstore\n      0x20\n      add\n      swap1\n      dup2\n      mstore\n      0x20\n      add\n      0x00\n      keccak256\n      0x00\n        /* \"contracts/NFTStaking.sol\":1451:1479  delete tokenOwnedBy[tokenId] */\n      0x0100\n      exp\n      dup2\n      sload\n      swap1\n      0xffffffffffffffffffffffffffffffffffffffff\n      mul\n      not\n      and\n      swap1\n      sstore\n        /* \"contracts/NFTStaking.sol\":1489:1518  _stakedNFTCounter.decrement() */\n      tag_69\n        /* \"contracts/NFTStaking.sol\":1489:1506  _stakedNFTCounter */\n      0x03\n        /* \"contracts/NFTStaking.sol\":1489:1516  _stakedNFTCounter.decrement */\n      tag_70\n        /* \"contracts/NFTStaking.sol\":1489:1518  _stakedNFTCounter.decrement() */\n      jump\t// in\n    tag_69:\n        /* \"contracts/NFTStaking.sol\":1528:1540  _nftContract */\n      0x02\n      0x00\n      swap1\n      sload\n      swap1\n      0x0100\n      exp\n      swap1\n      div\n      0xffffffffffffffffffffffffffffffffffffffff\n      and\n        /* \"contracts/NFTStaking.sol\":1528:1557  _nftContract.safeTransferFrom */\n      0xffffffffffffffffffffffffffffffffffffffff\n      and\n      0x42842e0e\n        /* \"contracts/NFTStaking.sol\":1566:1570  this */\n      address\n        /* \"contracts/NFTStaking.sol\":1573:1583  msg.sender */\n      caller\n        /* \"contracts/NFTStaking.sol\":1585:1592  tokenId */\n      dup5\n        /* \"contracts/NFTStaking.sol\":1528:1593  _nftContract.safeTransferFrom(address(this), msg.sender, tokenId) */\n      mload(0x40)\n      dup5\n      0xffffffff\n      and\n      0xe0\n      shl\n      dup2\n      mstore\n      0x04\n      add\n      tag_71\n      swap4\n      swap3\n      swap2\n      swap1\n      tag_72\n      jump\t// in\n    tag_71:\n      0x00\n      mload(0x40)\n      dup1\n      dup4\n      sub\n      dup2\n      0x00\n      dup8\n      dup1\n      extcodesize\n      iszero\n      dup1\n      iszero\n      tag_73\n      jumpi\n      0x00\n      dup1\n      revert\n    tag_73:\n      pop\n      gas\n      call\n      iszero\n      dup1\n      iszero\n      tag_75\n      jumpi\n      returndatasize\n      0x00\n      dup1\n      returndatacopy\n      revert(0x00, returndatasize)\n    tag_75:\n      pop\n      pop\n      pop\n      pop\n        /* \"@openzeppelin/contracts@4.7.3/security/ReentrancyGuard.sol\":1701:1702  1 */\n      0x01\n        /* \"@openzeppelin/contracts@4.7.3/security/ReentrancyGuard.sol\":2628:2635  _status */\n      dup1\n        /* \"@openzeppelin/contracts@4.7.3/security/ReentrancyGuard.sol\":2628:2650  _status = _NOT_ENTERED */\n      dup2\n      swap1\n      sstore\n      pop\n        /* \"contracts/NFTStaking.sol\":1305:1600  function unstake(uint256 tokenId) nonReentrant external {... */\n      pop\n      jump\t// out\n        /* \"@openzeppelin/contracts@4.7.3/access/Ownable.sol\":1831:1932  function renounceOwnership() public virtual onlyOwner {... */\n    tag_36:\n        /* \"@openzeppelin/contracts@4.7.3/access/Ownable.sol\":1094:1107  _checkOwner() */\n      tag_77\n        /* \"@openzeppelin/contracts@4.7.3/access/Ownable.sol\":1094:1105  _checkOwner */\n      tag_78\n        /* \"@openzeppelin/contracts@4.7.3/access/Ownable.sol\":1094:1107  _checkOwner() */\n      jump\t// in\n    tag_77:\n        /* \"@openzeppelin/contracts@4.7.3/access/Ownable.sol\":1895:1925  _transferOwnership(address(0)) */\n      tag_80\n        /* \"@openzeppelin/contracts@4.7.3/access/Ownable.sol\":1922:1923  0 */\n      0x00\n        /* \"@openzeppelin/contracts@4.7.3/access/Ownable.sol\":1895:1913  _transferOwnership */\n      tag_81\n        /* \"@openzeppelin/contracts@4.7.3/access/Ownable.sol\":1895:1925  _transferOwnership(address(0)) */\n      jump\t// in\n    tag_80:\n        /* \"@openzeppelin/contracts@4.7.3/access/Ownable.sol\":1831:1932  function renounceOwnership() public virtual onlyOwner {... */\n      jump\t// out\n        /* \"contracts/NFTStaking.sol\":762:810  mapping (uint256 => address) public tokenOwnedBy */\n    tag_40:\n      mstore(0x20, 0x04)\n      dup1\n      0x00\n      mstore\n      keccak256(0x00, 0x40)\n      0x00\n      swap2\n      pop\n      sload\n      swap1\n      0x0100\n      exp\n      swap1\n      div\n      0xffffffffffffffffffffffffffffffffffffffff\n      and\n      dup2\n      jump\t// out\n        /* \"@openzeppelin/contracts@4.7.3/access/Ownable.sol\":1201:1286  function owner() public view virtual returns (address) {... */\n    tag_45:\n        /* \"@openzeppelin/contracts@4.7.3/access/Ownable.sol\":1247:1254  address */\n      0x00\n        /* \"@openzeppelin/contracts@4.7.3/access/Ownable.sol\":1273:1279  _owner */\n      dup1\n      0x00\n      swap1\n      sload\n      swap1\n      0x0100\n      exp\n      swap1\n      div\n      0xffffffffffffffffffffffffffffffffffffffff\n      and\n        /* \"@openzeppelin/contracts@4.7.3/access/Ownable.sol\":1266:1279  return _owner */\n      swap1\n      pop\n        /* \"@openzeppelin/contracts@4.7.3/access/Ownable.sol\":1201:1286  function owner() public view virtual returns (address) {... */\n      swap1\n      jump\t// out\n        /* \"contracts/NFTStaking.sol\":1093:1299  function stake(uint256 tokenId) external {... */\n    tag_50:\n        /* \"contracts/NFTStaking.sol\":1144:1156  _nftContract */\n      0x02\n      0x00\n      swap1\n      sload\n      swap1\n      0x0100\n      exp\n      swap1\n      div\n      0xffffffffffffffffffffffffffffffffffffffff\n      and\n        /* \"contracts/NFTStaking.sol\":1144:1173  _nftContract.safeTransferFrom */\n      0xffffffffffffffffffffffffffffffffffffffff\n      and\n      0x42842e0e\n        /* \"contracts/NFTStaking.sol\":1174:1184  msg.sender */\n      caller\n        /* \"contracts/NFTStaking.sol\":1194:1198  this */\n      address\n        /* \"contracts/NFTStaking.sol\":1201:1208  tokenId */\n      dup5\n        /* \"contracts/NFTStaking.sol\":1144:1209  _nftContract.safeTransferFrom(msg.sender, address(this), tokenId) */\n      mload(0x40)\n      dup5\n      0xffffffff\n      and\n      0xe0\n      shl\n      dup2\n      mstore\n      0x04\n      add\n      tag_84\n      swap4\n      swap3\n      swap2\n      swap1\n      tag_72\n      jump\t// in\n    tag_84:\n      0x00\n      mload(0x40)\n      dup1\n      dup4\n      sub\n      dup2\n      0x00\n      dup8\n      dup1\n      extcodesize\n      iszero\n      dup1\n      iszero\n      tag_85\n      jumpi\n      0x00\n      dup1\n      revert\n    tag_85:\n      pop\n      gas\n      call\n      iszero\n      dup1\n      iszero\n      tag_87\n      jumpi\n      returndatasize\n      0x00\n      dup1\n      returndatacopy\n      revert(0x00, returndatasize)\n    tag_87:\n      pop\n      pop\n      pop\n      pop\n        /* \"contracts/NFTStaking.sol\":1243:1253  msg.sender */\n      caller\n        /* \"contracts/NFTStaking.sol\":1219:1231  tokenOwnedBy */\n      0x04\n        /* \"contracts/NFTStaking.sol\":1219:1240  tokenOwnedBy[tokenId] */\n      0x00\n        /* \"contracts/NFTStaking.sol\":1232:1239  tokenId */\n      dup4\n        /* \"contracts/NFTStaking.sol\":1219:1240  tokenOwnedBy[tokenId] */\n      dup2\n      mstore\n      0x20\n      add\n      swap1\n      dup2\n      mstore\n      0x20\n      add\n      0x00\n      keccak256\n      0x00\n        /* \"contracts/NFTStaking.sol\":1219:1253  tokenOwnedBy[tokenId] = msg.sender */\n      0x0100\n      exp\n      dup2\n      sload\n      dup2\n      0xffffffffffffffffffffffffffffffffffffffff\n      mul\n      not\n      and\n      swap1\n      dup4\n      0xffffffffffffffffffffffffffffffffffffffff\n      and\n      mul\n      or\n      swap1\n      sstore\n      pop\n        /* \"contracts/NFTStaking.sol\":1263:1292  _stakedNFTCounter.increment() */\n      tag_88\n        /* \"contracts/NFTStaking.sol\":1263:1280  _stakedNFTCounter */\n      0x03\n        /* \"contracts/NFTStaking.sol\":1263:1290  _stakedNFTCounter.increment */\n      tag_89\n        /* \"contracts/NFTStaking.sol\":1263:1292  _stakedNFTCounter.increment() */\n      jump\t// in\n    tag_88:\n        /* \"contracts/NFTStaking.sol\":1093:1299  function stake(uint256 tokenId) external {... */\n      pop\n      jump\t// out\n        /* \"@openzeppelin/contracts@4.7.3/access/Ownable.sol\":2081:2279  function transferOwnership(address newOwner) public virtual onlyOwner {... */\n    tag_54:\n        /* \"@openzeppelin/contracts@4.7.3/access/Ownable.sol\":1094:1107  _checkOwner() */\n      tag_91\n        /* \"@openzeppelin/contracts@4.7.3/access/Ownable.sol\":1094:1105  _checkOwner */\n      tag_78\n        /* \"@openzeppelin/contracts@4.7.3/access/Ownable.sol\":1094:1107  _checkOwner() */\n      jump\t// in\n    tag_91:\n        /* \"@openzeppelin/contracts@4.7.3/access/Ownable.sol\":2189:2190  0 */\n      0x00\n        /* \"@openzeppelin/contracts@4.7.3/access/Ownable.sol\":2169:2191  newOwner != address(0) */\n      0xffffffffffffffffffffffffffffffffffffffff\n      and\n        /* \"@openzeppelin/contracts@4.7.3/access/Ownable.sol\":2169:2177  newOwner */\n      dup2\n        /* \"@openzeppelin/contracts@4.7.3/access/Ownable.sol\":2169:2191  newOwner != address(0) */\n      0xffffffffffffffffffffffffffffffffffffffff\n      and\n      eq\n      iszero\n        /* \"@openzeppelin/contracts@4.7.3/access/Ownable.sol\":2161:2234  require(newOwner != address(0), \"Ownable: new owner is the zero address\") */\n      tag_93\n      jumpi\n      mload(0x40)\n      0x08c379a000000000000000000000000000000000000000000000000000000000\n      dup2\n      mstore\n      0x04\n      add\n      tag_94\n      swap1\n      tag_95\n      jump\t// in\n    tag_94:\n      mload(0x40)\n      dup1\n      swap2\n      sub\n      swap1\n      revert\n    tag_93:\n        /* \"@openzeppelin/contracts@4.7.3/access/Ownable.sol\":2244:2272  _transferOwnership(newOwner) */\n      tag_96\n        /* \"@openzeppelin/contracts@4.7.3/access/Ownable.sol\":2263:2271  newOwner */\n      dup2\n        /* \"@openzeppelin/contracts@4.7.3/access/Ownable.sol\":2244:2262  _transferOwnership */\n      tag_81\n        /* \"@openzeppelin/contracts@4.7.3/access/Ownable.sol\":2244:2272  _transferOwnership(newOwner) */\n      jump\t// in\n    tag_96:\n        /* \"@openzeppelin/contracts@4.7.3/access/Ownable.sol\":2081:2279  function transferOwnership(address newOwner) public virtual onlyOwner {... */\n      pop\n      jump\t// out\n        /* \"contracts/NFTStaking.sol\":979:1087  function setNftContact(IERC721 nftContract_) external onlyOwner {... */\n    tag_59:\n        /* \"@openzeppelin/contracts@4.7.3/access/Ownable.sol\":1094:1107  _checkOwner() */\n      tag_98\n        /* \"@openzeppelin/contracts@4.7.3/access/Ownable.sol\":1094:1105  _checkOwner */\n      tag_78\n        /* \"@openzeppelin/contracts@4.7.3/access/Ownable.sol\":1094:1107  _checkOwner() */\n      jump\t// in\n    tag_98:\n        /* \"contracts/NFTStaking.sol\":1068:1080  nftContract_ */\n      dup1\n        /* \"contracts/NFTStaking.sol\":1053:1065  _nftContract */\n      0x02\n      0x00\n        /* \"contracts/NFTStaking.sol\":1053:1080  _nftContract = nftContract_ */\n      0x0100\n      exp\n      dup2\n      sload\n      dup2\n      0xffffffffffffffffffffffffffffffffffffffff\n      mul\n      not\n      and\n      swap1\n      dup4\n      0xffffffffffffffffffffffffffffffffffffffff\n      and\n      mul\n      or\n      swap1\n      sstore\n      pop\n        /* \"contracts/NFTStaking.sol\":979:1087  function setNftContact(IERC721 nftContract_) external onlyOwner {... */\n      pop\n      jump\t// out\n        /* \"@openzeppelin/contracts@4.7.3/utils/Counters.sol\":1074:1303  function decrement(Counter storage counter) internal {... */\n    tag_70:\n        /* \"@openzeppelin/contracts@4.7.3/utils/Counters.sol\":1137:1150  uint256 value */\n      0x00\n        /* \"@openzeppelin/contracts@4.7.3/utils/Counters.sol\":1153:1160  counter */\n      dup2\n        /* \"@openzeppelin/contracts@4.7.3/utils/Counters.sol\":1153:1167  counter._value */\n      0x00\n      add\n      sload\n        /* \"@openzeppelin/contracts@4.7.3/utils/Counters.sol\":1137:1167  uint256 value = counter._value */\n      swap1\n      pop\n        /* \"@openzeppelin/contracts@4.7.3/utils/Counters.sol\":1193:1194  0 */\n      0x00\n        /* \"@openzeppelin/contracts@4.7.3/utils/Counters.sol\":1185:1190  value */\n      dup2\n        /* \"@openzeppelin/contracts@4.7.3/utils/Counters.sol\":1185:1194  value > 0 */\n      gt\n        /* \"@openzeppelin/contracts@4.7.3/utils/Counters.sol\":1177:1226  require(value > 0, \"Counter: decrement overflow\") */\n      tag_101\n      jumpi\n      mload(0x40)\n      0x08c379a000000000000000000000000000000000000000000000000000000000\n      dup2\n      mstore\n      0x04\n      add\n      tag_102\n      swap1\n      tag_103\n      jump\t// in\n    tag_102:\n      mload(0x40)\n      dup1\n      swap2\n      sub\n      swap1\n      revert\n    tag_101:\n        /* \"@openzeppelin/contracts@4.7.3/utils/Counters.sol\":1285:1286  1 */\n      0x01\n        /* \"@openzeppelin/contracts@4.7.3/utils/Counters.sol\":1277:1282  value */\n      dup2\n        /* \"@openzeppelin/contracts@4.7.3/utils/Counters.sol\":1277:1286  value - 1 */\n      sub\n        /* \"@openzeppelin/contracts@4.7.3/utils/Counters.sol\":1260:1267  counter */\n      dup3\n        /* \"@openzeppelin/contracts@4.7.3/utils/Counters.sol\":1260:1274  counter._value */\n      0x00\n      add\n        /* \"@openzeppelin/contracts@4.7.3/utils/Counters.sol\":1260:1286  counter._value = value - 1 */\n      dup2\n      swap1\n      sstore\n      pop\n        /* \"@openzeppelin/contracts@4.7.3/utils/Counters.sol\":1127:1303  {... */\n      pop\n        /* \"@openzeppelin/contracts@4.7.3/utils/Counters.sol\":1074:1303  function decrement(Counter storage counter) internal {... */\n      pop\n      jump\t// out\n        /* \"@openzeppelin/contracts@4.7.3/access/Ownable.sol\":1359:1489  function _checkOwner() internal view virtual {... */\n    tag_78:\n        /* \"@openzeppelin/contracts@4.7.3/access/Ownable.sol\":1433:1445  _msgSender() */\n      tag_105\n        /* \"@openzeppelin/contracts@4.7.3/access/Ownable.sol\":1433:1443  _msgSender */\n      tag_106\n        /* \"@openzeppelin/contracts@4.7.3/access/Ownable.sol\":1433:1445  _msgSender() */\n      jump\t// in\n    tag_105:\n        /* \"@openzeppelin/contracts@4.7.3/access/Ownable.sol\":1422:1445  owner() == _msgSender() */\n      0xffffffffffffffffffffffffffffffffffffffff\n      and\n        /* \"@openzeppelin/contracts@4.7.3/access/Ownable.sol\":1422:1429  owner() */\n      tag_107\n        /* \"@openzeppelin/contracts@4.7.3/access/Ownable.sol\":1422:1427  owner */\n      tag_45\n        /* \"@openzeppelin/contracts@4.7.3/access/Ownable.sol\":1422:1429  owner() */\n      jump\t// in\n    tag_107:\n        /* \"@openzeppelin/contracts@4.7.3/access/Ownable.sol\":1422:1445  owner() == _msgSender() */\n      0xffffffffffffffffffffffffffffffffffffffff\n      and\n      eq\n        /* \"@openzeppelin/contracts@4.7.3/access/Ownable.sol\":1414:1482  require(owner() == _msgSender(), \"Ownable: caller is not the owner\") */\n      tag_108\n      jumpi\n      mload(0x40)\n      0x08c379a000000000000000000000000000000000000000000000000000000000\n      dup2\n      mstore\n      0x04\n      add\n      tag_109\n      swap1\n      tag_110\n      jump\t// in\n    tag_109:\n      mload(0x40)\n      dup1\n      swap2\n      sub\n      swap1\n      revert\n    tag_108:\n        /* \"@openzeppelin/contracts@4.7.3/access/Ownable.sol\":1359:1489  function _checkOwner() internal view virtual {... */\n      jump\t// out\n        /* \"@openzeppelin/contracts@4.7.3/access/Ownable.sol\":2433:2620  function _transferOwnership(address newOwner) internal virtual {... */\n    tag_81:\n        /* \"@openzeppelin/contracts@4.7.3/access/Ownable.sol\":2506:2522  address oldOwner */\n      0x00\n        /* \"@openzeppelin/contracts@4.7.3/access/Ownable.sol\":2525:2531  _owner */\n      dup1\n      0x00\n      swap1\n      sload\n      swap1\n      0x0100\n      exp\n      swap1\n      div\n      0xffffffffffffffffffffffffffffffffffffffff\n      and\n        /* \"@openzeppelin/contracts@4.7.3/access/Ownable.sol\":2506:2531  address oldOwner = _owner */\n      swap1\n      pop\n        /* \"@openzeppelin/contracts@4.7.3/access/Ownable.sol\":2550:2558  newOwner */\n      dup2\n        /* \"@openzeppelin/contracts@4.7.3/access/Ownable.sol\":2541:2547  _owner */\n      0x00\n      dup1\n        /* \"@openzeppelin/contracts@4.7.3/access/Ownable.sol\":2541:2558  _owner = newOwner */\n      0x0100\n      exp\n      dup2\n      sload\n      dup2\n      0xffffffffffffffffffffffffffffffffffffffff\n      mul\n      not\n      and\n      swap1\n      dup4\n      0xffffffffffffffffffffffffffffffffffffffff\n      and\n      mul\n      or\n      swap1\n      sstore\n      pop\n        /* \"@openzeppelin/contracts@4.7.3/access/Ownable.sol\":2604:2612  newOwner */\n      dup2\n        /* \"@openzeppelin/contracts@4.7.3/access/Ownable.sol\":2573:2613  OwnershipTransferred(oldOwner, newOwner) */\n      0xffffffffffffffffffffffffffffffffffffffff\n      and\n        /* \"@openzeppelin/contracts@4.7.3/access/Ownable.sol\":2594:2602  oldOwner */\n      dup2\n        /* \"@openzeppelin/contracts@4.7.3/access/Ownable.sol\":2573:2613  OwnershipTransferred(oldOwner, newOwner) */\n      0xffffffffffffffffffffffffffffffffffffffff\n      and\n      0x8be0079c531659141344cd1fd0a4f28419497f9722a3daafe3b4186f6b6457e0\n      mload(0x40)\n      mload(0x40)\n      dup1\n      swap2\n      sub\n      swap1\n      log3\n        /* \"@openzeppelin/contracts@4.7.3/access/Ownable.sol\":2496:2620  {... */\n      pop\n        /* \"@openzeppelin/contracts@4.7.3/access/Ownable.sol\":2433:2620  function _transferOwnership(address newOwner) internal virtual {... */\n      pop\n      jump\t// out\n        /* \"@openzeppelin/contracts@4.7.3/utils/Counters.sol\":945:1068  function increment(Counter storage counter) internal {... */\n    tag_89:\n        /* \"@openzeppelin/contracts@4.7.3/utils/Counters.sol\":1050:1051  1 */\n      0x01\n        /* \"@openzeppelin/contracts@4.7.3/utils/Counters.sol\":1032:1039  counter */\n      dup2\n        /* \"@openzeppelin/contracts@4.7.3/utils/Counters.sol\":1032:1046  counter._value */\n      0x00\n      add\n      0x00\n        /* \"@openzeppelin/contracts@4.7.3/utils/Counters.sol\":1032:1051  counter._value += 1 */\n      dup3\n      dup3\n      sload\n      add\n      swap3\n      pop\n      pop\n      dup2\n      swap1\n      sstore\n      pop\n        /* \"@openzeppelin/contracts@4.7.3/utils/Counters.sol\":945:1068  function increment(Counter storage counter) internal {... */\n      pop\n      jump\t// out\n        /* \"@openzeppelin/contracts@4.7.3/utils/Context.sol\":640:736  function _msgSender() internal view virtual returns (address) {... */\n    tag_106:\n        /* \"@openzeppelin/contracts@4.7.3/utils/Context.sol\":693:700  address */\n      0x00\n        /* \"@openzeppelin/contracts@4.7.3/utils/Context.sol\":719:729  msg.sender */\n      caller\n        /* \"@openzeppelin/contracts@4.7.3/utils/Context.sol\":712:729  return msg.sender */\n      swap1\n      pop\n        /* \"@openzeppelin/contracts@4.7.3/utils/Context.sol\":640:736  function _msgSender() internal view virtual returns (address) {... */\n      swap1\n      jump\t// out\n        /* \"#utility.yul\":7:417   */\n    tag_115:\n        /* \"#utility.yul\":84:89   */\n      0x00\n        /* \"#utility.yul\":109:174   */\n      tag_117\n        /* \"#utility.yul\":125:173   */\n      tag_118\n        /* \"#utility.yul\":166:172   */\n      dup5\n        /* \"#utility.yul\":125:173   */\n      tag_119\n      jump\t// in\n    tag_118:\n        /* \"#utility.yul\":109:174   */\n      tag_120\n      jump\t// in\n    tag_117:\n        /* \"#utility.yul\":100:174   */\n      swap1\n      pop\n        /* \"#utility.yul\":197:203   */\n      dup3\n        /* \"#utility.yul\":190:195   */\n      dup2\n        /* \"#utility.yul\":183:204   */\n      mstore\n        /* \"#utility.yul\":235:239   */\n      0x20\n        /* \"#utility.yul\":228:233   */\n      dup2\n        /* \"#utility.yul\":224:240   */\n      add\n        /* \"#utility.yul\":273:276   */\n      dup5\n        /* \"#utility.yul\":264:270   */\n      dup5\n        /* \"#utility.yul\":259:262   */\n      dup5\n        /* \"#utility.yul\":255:271   */\n      add\n        /* \"#utility.yul\":252:277   */\n      gt\n        /* \"#utility.yul\":249:361   */\n      iszero\n      tag_121\n      jumpi\n        /* \"#utility.yul\":280:359   */\n      tag_122\n      tag_123\n      jump\t// in\n    tag_122:\n        /* \"#utility.yul\":249:361   */\n    tag_121:\n        /* \"#utility.yul\":370:411   */\n      tag_124\n        /* \"#utility.yul\":404:410   */\n      dup5\n        /* \"#utility.yul\":399:402   */\n      dup3\n        /* \"#utility.yul\":394:397   */\n      dup6\n        /* \"#utility.yul\":370:411   */\n      tag_125\n      jump\t// in\n    tag_124:\n        /* \"#utility.yul\":90:417   */\n      pop\n        /* \"#utility.yul\":7:417   */\n      swap4\n      swap3\n      pop\n      pop\n      pop\n      jump\t// out\n        /* \"#utility.yul\":423:562   */\n    tag_126:\n        /* \"#utility.yul\":469:474   */\n      0x00\n        /* \"#utility.yul\":507:513   */\n      dup2\n        /* \"#utility.yul\":494:514   */\n      calldataload\n        /* \"#utility.yul\":485:514   */\n      swap1\n      pop\n        /* \"#utility.yul\":523:556   */\n      tag_128\n        /* \"#utility.yul\":550:555   */\n      dup2\n        /* \"#utility.yul\":523:556   */\n      tag_129\n      jump\t// in\n    tag_128:\n        /* \"#utility.yul\":423:562   */\n      swap3\n      swap2\n      pop\n      pop\n      jump\t// out\n        /* \"#utility.yul\":581:919   */\n    tag_130:\n        /* \"#utility.yul\":636:641   */\n      0x00\n        /* \"#utility.yul\":685:688   */\n      dup3\n        /* \"#utility.yul\":678:682   */\n      0x1f\n        /* \"#utility.yul\":670:676   */\n      dup4\n        /* \"#utility.yul\":666:683   */\n      add\n        /* \"#utility.yul\":662:689   */\n      slt\n        /* \"#utility.yul\":652:774   */\n      tag_132\n      jumpi\n        /* \"#utility.yul\":693:772   */\n      tag_133\n      tag_134\n      jump\t// in\n    tag_133:\n        /* \"#utility.yul\":652:774   */\n    tag_132:\n        /* \"#utility.yul\":810:816   */\n      dup2\n        /* \"#utility.yul\":797:817   */\n      calldataload\n        /* \"#utility.yul\":835:913   */\n      tag_135\n        /* \"#utility.yul\":909:912   */\n      dup5\n        /* \"#utility.yul\":901:907   */\n      dup3\n        /* \"#utility.yul\":894:898   */\n      0x20\n        /* \"#utility.yul\":886:892   */\n      dup7\n        /* \"#utility.yul\":882:899   */\n      add\n        /* \"#utility.yul\":835:913   */\n      tag_115\n      jump\t// in\n    tag_135:\n        /* \"#utility.yul\":826:913   */\n      swap2\n      pop\n        /* \"#utility.yul\":642:919   */\n      pop\n        /* \"#utility.yul\":581:919   */\n      swap3\n      swap2\n      pop\n      pop\n      jump\t// out\n        /* \"#utility.yul\":925:1094   */\n    tag_136:\n        /* \"#utility.yul\":986:991   */\n      0x00\n        /* \"#utility.yul\":1024:1030   */\n      dup2\n        /* \"#utility.yul\":1011:1031   */\n      calldataload\n        /* \"#utility.yul\":1002:1031   */\n      swap1\n      pop\n        /* \"#utility.yul\":1040:1088   */\n      tag_138\n        /* \"#utility.yul\":1082:1087   */\n      dup2\n        /* \"#utility.yul\":1040:1088   */\n      tag_139\n      jump\t// in\n    tag_138:\n        /* \"#utility.yul\":925:1094   */\n      swap3\n      swap2\n      pop\n      pop\n      jump\t// out\n        /* \"#utility.yul\":1100:1239   */\n    tag_140:\n        /* \"#utility.yul\":1146:1151   */\n      0x00\n        /* \"#utility.yul\":1184:1190   */\n      dup2\n        /* \"#utility.yul\":1171:1191   */\n      calldataload\n        /* \"#utility.yul\":1162:1191   */\n      swap1\n      pop\n        /* \"#utility.yul\":1200:1233   */\n      tag_142\n        /* \"#utility.yul\":1227:1232   */\n      dup2\n        /* \"#utility.yul\":1200:1233   */\n      tag_143\n      jump\t// in\n    tag_142:\n        /* \"#utility.yul\":1100:1239   */\n      swap3\n      swap2\n      pop\n      pop\n      jump\t// out\n        /* \"#utility.yul\":1245:1574   */\n    tag_18:\n        /* \"#utility.yul\":1304:1310   */\n      0x00\n        /* \"#utility.yul\":1353:1355   */\n      0x20\n        /* \"#utility.yul\":1341:1350   */\n      dup3\n        /* \"#utility.yul\":1332:1339   */\n      dup5\n        /* \"#utility.yul\":1328:1351   */\n      sub\n        /* \"#utility.yul\":1324:1356   */\n      slt\n        /* \"#utility.yul\":1321:1440   */\n      iszero\n      tag_145\n      jumpi\n        /* \"#utility.yul\":1359:1438   */\n      tag_146\n      tag_147\n      jump\t// in\n    tag_146:\n        /* \"#utility.yul\":1321:1440   */\n    tag_145:\n        /* \"#utility.yul\":1479:1480   */\n      0x00\n        /* \"#utility.yul\":1504:1557   */\n      tag_148\n        /* \"#utility.yul\":1549:1556   */\n      dup5\n        /* \"#utility.yul\":1540:1546   */\n      dup3\n        /* \"#utility.yul\":1529:1538   */\n      dup6\n        /* \"#utility.yul\":1525:1547   */\n      add\n        /* \"#utility.yul\":1504:1557   */\n      tag_126\n      jump\t// in\n    tag_148:\n        /* \"#utility.yul\":1494:1557   */\n      swap2\n      pop\n        /* \"#utility.yul\":1450:1567   */\n      pop\n        /* \"#utility.yul\":1245:1574   */\n      swap3\n      swap2\n      pop\n      pop\n      jump\t// out\n        /* \"#utility.yul\":1580:2523   */\n    tag_25:\n        /* \"#utility.yul\":1675:1681   */\n      0x00\n        /* \"#utility.yul\":1683:1689   */\n      dup1\n        /* \"#utility.yul\":1691:1697   */\n      0x00\n        /* \"#utility.yul\":1699:1705   */\n      dup1\n        /* \"#utility.yul\":1748:1751   */\n      0x80\n        /* \"#utility.yul\":1736:1745   */\n      dup6\n        /* \"#utility.yul\":1727:1734   */\n      dup8\n        /* \"#utility.yul\":1723:1746   */\n      sub\n        /* \"#utility.yul\":1719:1752   */\n      slt\n        /* \"#utility.yul\":1716:1836   */\n      iszero\n      tag_150\n      jumpi\n        /* \"#utility.yul\":1755:1834   */\n      tag_151\n      tag_147\n      jump\t// in\n    tag_151:\n        /* \"#utility.yul\":1716:1836   */\n    tag_150:\n        /* \"#utility.yul\":1875:1876   */\n      0x00\n        /* \"#utility.yul\":1900:1953   */\n      tag_152\n        /* \"#utility.yul\":1945:1952   */\n      dup8\n        /* \"#utility.yul\":1936:1942   */\n      dup3\n        /* \"#utility.yul\":1925:1934   */\n      dup9\n        /* \"#utility.yul\":1921:1943   */\n      add\n        /* \"#utility.yul\":1900:1953   */\n      tag_126\n      jump\t// in\n    tag_152:\n        /* \"#utility.yul\":1890:1953   */\n      swap5\n      pop\n        /* \"#utility.yul\":1846:1963   */\n      pop\n        /* \"#utility.yul\":2002:2004   */\n      0x20\n        /* \"#utility.yul\":2028:2081   */\n      tag_153\n        /* \"#utility.yul\":2073:2080   */\n      dup8\n        /* \"#utility.yul\":2064:2070   */\n      dup3\n        /* \"#utility.yul\":2053:2062   */\n      dup9\n        /* \"#utility.yul\":2049:2071   */\n      add\n        /* \"#utility.yul\":2028:2081   */\n      tag_126\n      jump\t// in\n    tag_153:\n        /* \"#utility.yul\":2018:2081   */\n      swap4\n      pop\n        /* \"#utility.yul\":1973:2091   */\n      pop\n        /* \"#utility.yul\":2130:2132   */\n      0x40\n        /* \"#utility.yul\":2156:2209   */\n      tag_154\n        /* \"#utility.yul\":2201:2208   */\n      dup8\n        /* \"#utility.yul\":2192:2198   */\n      dup3\n        /* \"#utility.yul\":2181:2190   */\n      dup9\n        /* \"#utility.yul\":2177:2199   */\n      add\n        /* \"#utility.yul\":2156:2209   */\n      tag_140\n      jump\t// in\n    tag_154:\n        /* \"#utility.yul\":2146:2209   */\n      swap3\n      pop\n        /* \"#utility.yul\":2101:2219   */\n      pop\n        /* \"#utility.yul\":2286:2288   */\n      0x60\n        /* \"#utility.yul\":2275:2284   */\n      dup6\n        /* \"#utility.yul\":2271:2289   */\n      add\n        /* \"#utility.yul\":2258:2290   */\n      calldataload\n        /* \"#utility.yul\":2317:2335   */\n      0xffffffffffffffff\n        /* \"#utility.yul\":2309:2315   */\n      dup2\n        /* \"#utility.yul\":2306:2336   */\n      gt\n        /* \"#utility.yul\":2303:2420   */\n      iszero\n      tag_155\n      jumpi\n        /* \"#utility.yul\":2339:2418   */\n      tag_156\n      tag_157\n      jump\t// in\n    tag_156:\n        /* \"#utility.yul\":2303:2420   */\n    tag_155:\n        /* \"#utility.yul\":2444:2506   */\n      tag_158\n        /* \"#utility.yul\":2498:2505   */\n      dup8\n        /* \"#utility.yul\":2489:2495   */\n      dup3\n        /* \"#utility.yul\":2478:2487   */\n      dup9\n        /* \"#utility.yul\":2474:2496   */\n      add\n        /* \"#utility.yul\":2444:2506   */\n      tag_130\n      jump\t// in\n    tag_158:\n        /* \"#utility.yul\":2434:2506   */\n      swap2\n      pop\n        /* \"#utility.yul\":2229:2516   */\n      pop\n        /* \"#utility.yul\":1580:2523   */\n      swap3\n      swap6\n      swap2\n      swap5\n      pop\n      swap3\n      pop\n      jump\t// out\n        /* \"#utility.yul\":2529:2888   */\n    tag_58:\n        /* \"#utility.yul\":2603:2609   */\n      0x00\n        /* \"#utility.yul\":2652:2654   */\n      0x20\n        /* \"#utility.yul\":2640:2649   */\n      dup3\n        /* \"#utility.yul\":2631:2638   */\n      dup5\n        /* \"#utility.yul\":2627:2650   */\n      sub\n        /* \"#utility.yul\":2623:2655   */\n      slt\n        /* \"#utility.yul\":2620:2739   */\n      iszero\n      tag_160\n      jumpi\n        /* \"#utility.yul\":2658:2737   */\n      tag_161\n      tag_147\n      jump\t// in\n    tag_161:\n        /* \"#utility.yul\":2620:2739   */\n    tag_160:\n        /* \"#utility.yul\":2778:2779   */\n      0x00\n        /* \"#utility.yul\":2803:2871   */\n      tag_162\n        /* \"#utility.yul\":2863:2870   */\n      dup5\n        /* \"#utility.yul\":2854:2860   */\n      dup3\n        /* \"#utility.yul\":2843:2852   */\n      dup6\n        /* \"#utility.yul\":2839:2861   */\n      add\n        /* \"#utility.yul\":2803:2871   */\n      tag_136\n      jump\t// in\n    tag_162:\n        /* \"#utility.yul\":2793:2871   */\n      swap2\n      pop\n        /* \"#utility.yul\":2749:2881   */\n      pop\n        /* \"#utility.yul\":2529:2888   */\n      swap3\n      swap2\n      pop\n      pop\n      jump\t// out\n        /* \"#utility.yul\":2894:3223   */\n    tag_32:\n        /* \"#utility.yul\":2953:2959   */\n      0x00\n        /* \"#utility.yul\":3002:3004   */\n      0x20\n        /* \"#utility.yul\":2990:2999   */\n      dup3\n        /* \"#utility.yul\":2981:2988   */\n      dup5\n        /* \"#utility.yul\":2977:3000   */\n      sub\n        /* \"#utility.yul\":2973:3005   */\n      slt\n        /* \"#utility.yul\":2970:3089   */\n      iszero\n      tag_164\n      jumpi\n        /* \"#utility.yul\":3008:3087   */\n      tag_165\n      tag_147\n      jump\t// in\n    tag_165:\n        /* \"#utility.yul\":2970:3089   */\n    tag_164:\n        /* \"#utility.yul\":3128:3129   */\n      0x00\n        /* \"#utility.yul\":3153:3206   */\n      tag_166\n        /* \"#utility.yul\":3198:3205   */\n      dup5\n        /* \"#utility.yul\":3189:3195   */\n      dup3\n        /* \"#utility.yul\":3178:3187   */\n      dup6\n        /* \"#utility.yul\":3174:3196   */\n      add\n        /* \"#utility.yul\":3153:3206   */\n      tag_140\n      jump\t// in\n    tag_166:\n        /* \"#utility.yul\":3143:3206   */\n      swap2\n      pop\n        /* \"#utility.yul\":3099:3216   */\n      pop\n        /* \"#utility.yul\":2894:3223   */\n      swap3\n      swap2\n      pop\n      pop\n      jump\t// out\n        /* \"#utility.yul\":3229:3347   */\n    tag_167:\n        /* \"#utility.yul\":3316:3340   */\n      tag_169\n        /* \"#utility.yul\":3334:3339   */\n      dup2\n        /* \"#utility.yul\":3316:3340   */\n      tag_170\n      jump\t// in\n    tag_169:\n        /* \"#utility.yul\":3311:3314   */\n      dup3\n        /* \"#utility.yul\":3304:3341   */\n      mstore\n        /* \"#utility.yul\":3229:3347   */\n      pop\n      pop\n      jump\t// out\n        /* \"#utility.yul\":3353:3468   */\n    tag_171:\n        /* \"#utility.yul\":3438:3461   */\n      tag_173\n        /* \"#utility.yul\":3455:3460   */\n      dup2\n        /* \"#utility.yul\":3438:3461   */\n      tag_174\n      jump\t// in\n    tag_173:\n        /* \"#utility.yul\":3433:3436   */\n      dup3\n        /* \"#utility.yul\":3426:3462   */\n      mstore\n        /* \"#utility.yul\":3353:3468   */\n      pop\n      pop\n      jump\t// out\n        /* \"#utility.yul\":3474:3840   */\n    tag_175:\n        /* \"#utility.yul\":3616:3619   */\n      0x00\n        /* \"#utility.yul\":3637:3704   */\n      tag_177\n        /* \"#utility.yul\":3701:3703   */\n      0x1b\n        /* \"#utility.yul\":3696:3699   */\n      dup4\n        /* \"#utility.yul\":3637:3704   */\n      tag_178\n      jump\t// in\n    tag_177:\n        /* \"#utility.yul\":3630:3704   */\n      swap2\n      pop\n        /* \"#utility.yul\":3713:3806   */\n      tag_179\n        /* \"#utility.yul\":3802:3805   */\n      dup3\n        /* \"#utility.yul\":3713:3806   */\n      tag_180\n      jump\t// in\n    tag_179:\n        /* \"#utility.yul\":3831:3833   */\n      0x20\n        /* \"#utility.yul\":3826:3829   */\n      dup3\n        /* \"#utility.yul\":3822:3834   */\n      add\n        /* \"#utility.yul\":3815:3834   */\n      swap1\n      pop\n        /* \"#utility.yul\":3474:3840   */\n      swap2\n      swap1\n      pop\n      jump\t// out\n        /* \"#utility.yul\":3846:4212   */\n    tag_181:\n        /* \"#utility.yul\":3988:3991   */\n      0x00\n        /* \"#utility.yul\":4009:4076   */\n      tag_183\n        /* \"#utility.yul\":4073:4075   */\n      0x26\n        /* \"#utility.yul\":4068:4071   */\n      dup4\n        /* \"#utility.yul\":4009:4076   */\n      tag_178\n      jump\t// in\n    tag_183:\n        /* \"#utility.yul\":4002:4076   */\n      swap2\n      pop\n        /* \"#utility.yul\":4085:4178   */\n      tag_184\n        /* \"#utility.yul\":4174:4177   */\n      dup3\n        /* \"#utility.yul\":4085:4178   */\n      tag_185\n      jump\t// in\n    tag_184:\n        /* \"#utility.yul\":4203:4205   */\n      0x40\n        /* \"#utility.yul\":4198:4201   */\n      dup3\n        /* \"#utility.yul\":4194:4206   */\n      add\n        /* \"#utility.yul\":4187:4206   */\n      swap1\n      pop\n        /* \"#utility.yul\":3846:4212   */\n      swap2\n      swap1\n      pop\n      jump\t// out\n        /* \"#utility.yul\":4218:4584   */\n    tag_186:\n        /* \"#utility.yul\":4360:4363   */\n      0x00\n        /* \"#utility.yul\":4381:4448   */\n      tag_188\n        /* \"#utility.yul\":4445:4447   */\n      0x20\n        /* \"#utility.yul\":4440:4443   */\n      dup4\n        /* \"#utility.yul\":4381:4448   */\n      tag_178\n      jump\t// in\n    tag_188:\n        /* \"#utility.yul\":4374:4448   */\n      swap2\n      pop\n        /* \"#utility.yul\":4457:4550   */\n      tag_189\n        /* \"#utility.yul\":4546:4549   */\n      dup3\n        /* \"#utility.yul\":4457:4550   */\n      tag_190\n      jump\t// in\n    tag_189:\n        /* \"#utility.yul\":4575:4577   */\n      0x20\n        /* \"#utility.yul\":4570:4573   */\n      dup3\n        /* \"#utility.yul\":4566:4578   */\n      add\n        /* \"#utility.yul\":4559:4578   */\n      swap1\n      pop\n        /* \"#utility.yul\":4218:4584   */\n      swap2\n      swap1\n      pop\n      jump\t// out\n        /* \"#utility.yul\":4590:4956   */\n    tag_191:\n        /* \"#utility.yul\":4732:4735   */\n      0x00\n        /* \"#utility.yul\":4753:4820   */\n      tag_193\n        /* \"#utility.yul\":4817:4819   */\n      0x16\n        /* \"#utility.yul\":4812:4815   */\n      dup4\n        /* \"#utility.yul\":4753:4820   */\n      tag_178\n      jump\t// in\n    tag_193:\n        /* \"#utility.yul\":4746:4820   */\n      swap2\n      pop\n        /* \"#utility.yul\":4829:4922   */\n      tag_194\n        /* \"#utility.yul\":4918:4921   */\n      dup3\n        /* \"#utility.yul\":4829:4922   */\n      tag_195\n      jump\t// in\n    tag_194:\n        /* \"#utility.yul\":4947:4949   */\n      0x20\n        /* \"#utility.yul\":4942:4945   */\n      dup3\n        /* \"#utility.yul\":4938:4950   */\n      add\n        /* \"#utility.yul\":4931:4950   */\n      swap1\n      pop\n        /* \"#utility.yul\":4590:4956   */\n      swap2\n      swap1\n      pop\n      jump\t// out\n        /* \"#utility.yul\":4962:5328   */\n    tag_196:\n        /* \"#utility.yul\":5104:5107   */\n      0x00\n        /* \"#utility.yul\":5125:5192   */\n      tag_198\n        /* \"#utility.yul\":5189:5191   */\n      0x1f\n        /* \"#utility.yul\":5184:5187   */\n      dup4\n        /* \"#utility.yul\":5125:5192   */\n      tag_178\n      jump\t// in\n    tag_198:\n        /* \"#utility.yul\":5118:5192   */\n      swap2\n      pop\n        /* \"#utility.yul\":5201:5294   */\n      tag_199\n        /* \"#utility.yul\":5290:5293   */\n      dup3\n        /* \"#utility.yul\":5201:5294   */\n      tag_200\n      jump\t// in\n    tag_199:\n        /* \"#utility.yul\":5319:5321   */\n      0x20\n        /* \"#utility.yul\":5314:5317   */\n      dup3\n        /* \"#utility.yul\":5310:5322   */\n      add\n        /* \"#utility.yul\":5303:5322   */\n      swap1\n      pop\n        /* \"#utility.yul\":4962:5328   */\n      swap2\n      swap1\n      pop\n      jump\t// out\n        /* \"#utility.yul\":5334:5452   */\n    tag_201:\n        /* \"#utility.yul\":5421:5445   */\n      tag_203\n        /* \"#utility.yul\":5439:5444   */\n      dup2\n        /* \"#utility.yul\":5421:5445   */\n      tag_204\n      jump\t// in\n    tag_203:\n        /* \"#utility.yul\":5416:5419   */\n      dup3\n        /* \"#utility.yul\":5409:5446   */\n      mstore\n        /* \"#utility.yul\":5334:5452   */\n      pop\n      pop\n      jump\t// out\n        /* \"#utility.yul\":5458:5680   */\n    tag_42:\n        /* \"#utility.yul\":5551:5555   */\n      0x00\n        /* \"#utility.yul\":5589:5591   */\n      0x20\n        /* \"#utility.yul\":5578:5587   */\n      dup3\n        /* \"#utility.yul\":5574:5592   */\n      add\n        /* \"#utility.yul\":5566:5592   */\n      swap1\n      pop\n        /* \"#utility.yul\":5602:5673   */\n      tag_206\n        /* \"#utility.yul\":5670:5671   */\n      0x00\n        /* \"#utility.yul\":5659:5668   */\n      dup4\n        /* \"#utility.yul\":5655:5672   */\n      add\n        /* \"#utility.yul\":5646:5652   */\n      dup5\n        /* \"#utility.yul\":5602:5673   */\n      tag_167\n      jump\t// in\n    tag_206:\n        /* \"#utility.yul\":5458:5680   */\n      swap3\n      swap2\n      pop\n      pop\n      jump\t// out\n        /* \"#utility.yul\":5686:6128   */\n    tag_72:\n        /* \"#utility.yul\":5835:5839   */\n      0x00\n        /* \"#utility.yul\":5873:5875   */\n      0x60\n        /* \"#utility.yul\":5862:5871   */\n      dup3\n        /* \"#utility.yul\":5858:5876   */\n      add\n        /* \"#utility.yul\":5850:5876   */\n      swap1\n      pop\n        /* \"#utility.yul\":5886:5957   */\n      tag_208\n        /* \"#utility.yul\":5954:5955   */\n      0x00\n        /* \"#utility.yul\":5943:5952   */\n      dup4\n        /* \"#utility.yul\":5939:5956   */\n      add\n        /* \"#utility.yul\":5930:5936   */\n      dup7\n        /* \"#utility.yul\":5886:5957   */\n      tag_167\n      jump\t// in\n    tag_208:\n        /* \"#utility.yul\":5967:6039   */\n      tag_209\n        /* \"#utility.yul\":6035:6037   */\n      0x20\n        /* \"#utility.yul\":6024:6033   */\n      dup4\n        /* \"#utility.yul\":6020:6038   */\n      add\n        /* \"#utility.yul\":6011:6017   */\n      dup6\n        /* \"#utility.yul\":5967:6039   */\n      tag_167\n      jump\t// in\n    tag_209:\n        /* \"#utility.yul\":6049:6121   */\n      tag_210\n        /* \"#utility.yul\":6117:6119   */\n      0x40\n        /* \"#utility.yul\":6106:6115   */\n      dup4\n        /* \"#utility.yul\":6102:6120   */\n      add\n        /* \"#utility.yul\":6093:6099   */\n      dup5\n        /* \"#utility.yul\":6049:6121   */\n      tag_201\n      jump\t// in\n    tag_210:\n        /* \"#utility.yul\":5686:6128   */\n      swap5\n      swap4\n      pop\n      pop\n      pop\n      pop\n      jump\t// out\n        /* \"#utility.yul\":6134:6352   */\n    tag_28:\n        /* \"#utility.yul\":6225:6229   */\n      0x00\n        /* \"#utility.yul\":6263:6265   */\n      0x20\n        /* \"#utility.yul\":6252:6261   */\n      dup3\n        /* \"#utility.yul\":6248:6266   */\n      add\n        /* \"#utility.yul\":6240:6266   */\n      swap1\n      pop\n        /* \"#utility.yul\":6276:6345   */\n      tag_212\n        /* \"#utility.yul\":6342:6343   */\n      0x00\n        /* \"#utility.yul\":6331:6340   */\n      dup4\n        /* \"#utility.yul\":6327:6344   */\n      add\n        /* \"#utility.yul\":6318:6324   */\n      dup5\n        /* \"#utility.yul\":6276:6345   */\n      tag_171\n      jump\t// in\n    tag_212:\n        /* \"#utility.yul\":6134:6352   */\n      swap3\n      swap2\n      pop\n      pop\n      jump\t// out\n        /* \"#utility.yul\":6358:6777   */\n    tag_103:\n        /* \"#utility.yul\":6524:6528   */\n      0x00\n        /* \"#utility.yul\":6562:6564   */\n      0x20\n        /* \"#utility.yul\":6551:6560   */\n      dup3\n        /* \"#utility.yul\":6547:6565   */\n      add\n        /* \"#utility.yul\":6539:6565   */\n      swap1\n      pop\n        /* \"#utility.yul\":6611:6620   */\n      dup2\n        /* \"#utility.yul\":6605:6609   */\n      dup2\n        /* \"#utility.yul\":6601:6621   */\n      sub\n        /* \"#utility.yul\":6597:6598   */\n      0x00\n        /* \"#utility.yul\":6586:6595   */\n      dup4\n        /* \"#utility.yul\":6582:6599   */\n      add\n        /* \"#utility.yul\":6575:6622   */\n      mstore\n        /* \"#utility.yul\":6639:6770   */\n      tag_214\n        /* \"#utility.yul\":6765:6769   */\n      dup2\n        /* \"#utility.yul\":6639:6770   */\n      tag_175\n      jump\t// in\n    tag_214:\n        /* \"#utility.yul\":6631:6770   */\n      swap1\n      pop\n        /* \"#utility.yul\":6358:6777   */\n      swap2\n      swap1\n      pop\n      jump\t// out\n        /* \"#utility.yul\":6783:7202   */\n    tag_95:\n        /* \"#utility.yul\":6949:6953   */\n      0x00\n        /* \"#utility.yul\":6987:6989   */\n      0x20\n        /* \"#utility.yul\":6976:6985   */\n      dup3\n        /* \"#utility.yul\":6972:6990   */\n      add\n        /* \"#utility.yul\":6964:6990   */\n      swap1\n      pop\n        /* \"#utility.yul\":7036:7045   */\n      dup2\n        /* \"#utility.yul\":7030:7034   */\n      dup2\n        /* \"#utility.yul\":7026:7046   */\n      sub\n        /* \"#utility.yul\":7022:7023   */\n      0x00\n        /* \"#utility.yul\":7011:7020   */\n      dup4\n        /* \"#utility.yul\":7007:7024   */\n      add\n        /* \"#utility.yul\":7000:7047   */\n      mstore\n        /* \"#utility.yul\":7064:7195   */\n      tag_216\n        /* \"#utility.yul\":7190:7194   */\n      dup2\n        /* \"#utility.yul\":7064:7195   */\n      tag_181\n      jump\t// in\n    tag_216:\n        /* \"#utility.yul\":7056:7195   */\n      swap1\n      pop\n        /* \"#utility.yul\":6783:7202   */\n      swap2\n      swap1\n      pop\n      jump\t// out\n        /* \"#utility.yul\":7208:7627   */\n    tag_110:\n        /* \"#utility.yul\":7374:7378   */\n      0x00\n        /* \"#utility.yul\":7412:7414   */\n      0x20\n        /* \"#utility.yul\":7401:7410   */\n      dup3\n        /* \"#utility.yul\":7397:7415   */\n      add\n        /* \"#utility.yul\":7389:7415   */\n      swap1\n      pop\n        /* \"#utility.yul\":7461:7470   */\n      dup2\n        /* \"#utility.yul\":7455:7459   */\n      dup2\n        /* \"#utility.yul\":7451:7471   */\n      sub\n        /* \"#utility.yul\":7447:7448   */\n      0x00\n        /* \"#utility.yul\":7436:7445   */\n      dup4\n        /* \"#utility.yul\":7432:7449   */\n      add\n        /* \"#utility.yul\":7425:7472   */\n      mstore\n        /* \"#utility.yul\":7489:7620   */\n      tag_218\n        /* \"#utility.yul\":7615:7619   */\n      dup2\n        /* \"#utility.yul\":7489:7620   */\n      tag_186\n      jump\t// in\n    tag_218:\n        /* \"#utility.yul\":7481:7620   */\n      swap1\n      pop\n        /* \"#utility.yul\":7208:7627   */\n      swap2\n      swap1\n      pop\n      jump\t// out\n        /* \"#utility.yul\":7633:8052   */\n    tag_68:\n        /* \"#utility.yul\":7799:7803   */\n      0x00\n        /* \"#utility.yul\":7837:7839   */\n      0x20\n        /* \"#utility.yul\":7826:7835   */\n      dup3\n        /* \"#utility.yul\":7822:7840   */\n      add\n        /* \"#utility.yul\":7814:7840   */\n      swap1\n      pop\n        /* \"#utility.yul\":7886:7895   */\n      dup2\n        /* \"#utility.yul\":7880:7884   */\n      dup2\n        /* \"#utility.yul\":7876:7896   */\n      sub\n        /* \"#utility.yul\":7872:7873   */\n      0x00\n        /* \"#utility.yul\":7861:7870   */\n      dup4\n        /* \"#utility.yul\":7857:7874   */\n      add\n        /* \"#utility.yul\":7850:7897   */\n      mstore\n        /* \"#utility.yul\":7914:8045   */\n      tag_220\n        /* \"#utility.yul\":8040:8044   */\n      dup2\n        /* \"#utility.yul\":7914:8045   */\n      tag_191\n      jump\t// in\n    tag_220:\n        /* \"#utility.yul\":7906:8045   */\n      swap1\n      pop\n        /* \"#utility.yul\":7633:8052   */\n      swap2\n      swap1\n      pop\n      jump\t// out\n        /* \"#utility.yul\":8058:8477   */\n    tag_64:\n        /* \"#utility.yul\":8224:8228   */\n      0x00\n        /* \"#utility.yul\":8262:8264   */\n      0x20\n        /* \"#utility.yul\":8251:8260   */\n      dup3\n        /* \"#utility.yul\":8247:8265   */\n      add\n        /* \"#utility.yul\":8239:8265   */\n      swap1\n      pop\n        /* \"#utility.yul\":8311:8320   */\n      dup2\n        /* \"#utility.yul\":8305:8309   */\n      dup2\n        /* \"#utility.yul\":8301:8321   */\n      sub\n        /* \"#utility.yul\":8297:8298   */\n      0x00\n        /* \"#utility.yul\":8286:8295   */\n      dup4\n        /* \"#utility.yul\":8282:8299   */\n      add\n        /* \"#utility.yul\":8275:8322   */\n      mstore\n        /* \"#utility.yul\":8339:8470   */\n      tag_222\n        /* \"#utility.yul\":8465:8469   */\n      dup2\n        /* \"#utility.yul\":8339:8470   */\n      tag_196\n      jump\t// in\n    tag_222:\n        /* \"#utility.yul\":8331:8470   */\n      swap1\n      pop\n        /* \"#utility.yul\":8058:8477   */\n      swap2\n      swap1\n      pop\n      jump\t// out\n        /* \"#utility.yul\":8483:8705   */\n    tag_21:\n        /* \"#utility.yul\":8576:8580   */\n      0x00\n        /* \"#utility.yul\":8614:8616   */\n      0x20\n        /* \"#utility.yul\":8603:8612   */\n      dup3\n        /* \"#utility.yul\":8599:8617   */\n      add\n        /* \"#utility.yul\":8591:8617   */\n      swap1\n      pop\n        /* \"#utility.yul\":8627:8698   */\n      tag_224\n        /* \"#utility.yul\":8695:8696   */\n      0x00\n        /* \"#utility.yul\":8684:8693   */\n      dup4\n        /* \"#utility.yul\":8680:8697   */\n      add\n        /* \"#utility.yul\":8671:8677   */\n      dup5\n        /* \"#utility.yul\":8627:8698   */\n      tag_201\n      jump\t// in\n    tag_224:\n        /* \"#utility.yul\":8483:8705   */\n      swap3\n      swap2\n      pop\n      pop\n      jump\t// out\n        /* \"#utility.yul\":8711:8840   */\n    tag_120:\n        /* \"#utility.yul\":8745:8751   */\n      0x00\n        /* \"#utility.yul\":8772:8792   */\n      tag_226\n      tag_227\n      jump\t// in\n    tag_226:\n        /* \"#utility.yul\":8762:8792   */\n      swap1\n      pop\n        /* \"#utility.yul\":8801:8834   */\n      tag_228\n        /* \"#utility.yul\":8829:8833   */\n      dup3\n        /* \"#utility.yul\":8821:8827   */\n      dup3\n        /* \"#utility.yul\":8801:8834   */\n      tag_229\n      jump\t// in\n    tag_228:\n        /* \"#utility.yul\":8711:8840   */\n      swap2\n      swap1\n      pop\n      jump\t// out\n        /* \"#utility.yul\":8846:8921   */\n    tag_227:\n        /* \"#utility.yul\":8879:8885   */\n      0x00\n        /* \"#utility.yul\":8912:8914   */\n      0x40\n        /* \"#utility.yul\":8906:8915   */\n      mload\n        /* \"#utility.yul\":8896:8915   */\n      swap1\n      pop\n        /* \"#utility.yul\":8846:8921   */\n      swap1\n      jump\t// out\n        /* \"#utility.yul\":8927:9234   */\n    tag_119:\n        /* \"#utility.yul\":8988:8992   */\n      0x00\n        /* \"#utility.yul\":9078:9096   */\n      0xffffffffffffffff\n        /* \"#utility.yul\":9070:9076   */\n      dup3\n        /* \"#utility.yul\":9067:9097   */\n      gt\n        /* \"#utility.yul\":9064:9120   */\n      iszero\n      tag_232\n      jumpi\n        /* \"#utility.yul\":9100:9118   */\n      tag_233\n      tag_234\n      jump\t// in\n    tag_233:\n        /* \"#utility.yul\":9064:9120   */\n    tag_232:\n        /* \"#utility.yul\":9138:9167   */\n      tag_235\n        /* \"#utility.yul\":9160:9166   */\n      dup3\n        /* \"#utility.yul\":9138:9167   */\n      tag_236\n      jump\t// in\n    tag_235:\n        /* \"#utility.yul\":9130:9167   */\n      swap1\n      pop\n        /* \"#utility.yul\":9222:9226   */\n      0x20\n        /* \"#utility.yul\":9216:9220   */\n      dup2\n        /* \"#utility.yul\":9212:9227   */\n      add\n        /* \"#utility.yul\":9204:9227   */\n      swap1\n      pop\n        /* \"#utility.yul\":8927:9234   */\n      swap2\n      swap1\n      pop\n      jump\t// out\n        /* \"#utility.yul\":9240:9409   */\n    tag_178:\n        /* \"#utility.yul\":9324:9335   */\n      0x00\n        /* \"#utility.yul\":9358:9364   */\n      dup3\n        /* \"#utility.yul\":9353:9356   */\n      dup3\n        /* \"#utility.yul\":9346:9365   */\n      mstore\n        /* \"#utility.yul\":9398:9402   */\n      0x20\n        /* \"#utility.yul\":9393:9396   */\n      dup3\n        /* \"#utility.yul\":9389:9403   */\n      add\n        /* \"#utility.yul\":9374:9403   */\n      swap1\n      pop\n        /* \"#utility.yul\":9240:9409   */\n      swap3\n      swap2\n      pop\n      pop\n      jump\t// out\n        /* \"#utility.yul\":9415:9511   */\n    tag_170:\n        /* \"#utility.yul\":9452:9459   */\n      0x00\n        /* \"#utility.yul\":9481:9505   */\n      tag_239\n        /* \"#utility.yul\":9499:9504   */\n      dup3\n        /* \"#utility.yul\":9481:9505   */\n      tag_240\n      jump\t// in\n    tag_239:\n        /* \"#utility.yul\":9470:9505   */\n      swap1\n      pop\n        /* \"#utility.yul\":9415:9511   */\n      swap2\n      swap1\n      pop\n      jump\t// out\n        /* \"#utility.yul\":9517:9666   */\n    tag_174:\n        /* \"#utility.yul\":9553:9560   */\n      0x00\n        /* \"#utility.yul\":9593:9659   */\n      0xffffffff00000000000000000000000000000000000000000000000000000000\n        /* \"#utility.yul\":9586:9591   */\n      dup3\n        /* \"#utility.yul\":9582:9660   */\n      and\n        /* \"#utility.yul\":9571:9660   */\n      swap1\n      pop\n        /* \"#utility.yul\":9517:9666   */\n      swap2\n      swap1\n      pop\n      jump\t// out\n        /* \"#utility.yul\":9672:9783   */\n    tag_242:\n        /* \"#utility.yul\":9724:9731   */\n      0x00\n        /* \"#utility.yul\":9753:9777   */\n      tag_244\n        /* \"#utility.yul\":9771:9776   */\n      dup3\n        /* \"#utility.yul\":9753:9777   */\n      tag_170\n      jump\t// in\n    tag_244:\n        /* \"#utility.yul\":9742:9777   */\n      swap1\n      pop\n        /* \"#utility.yul\":9672:9783   */\n      swap2\n      swap1\n      pop\n      jump\t// out\n        /* \"#utility.yul\":9789:9915   */\n    tag_240:\n        /* \"#utility.yul\":9826:9833   */\n      0x00\n        /* \"#utility.yul\":9866:9908   */\n      0xffffffffffffffffffffffffffffffffffffffff\n        /* \"#utility.yul\":9859:9864   */\n      dup3\n        /* \"#utility.yul\":9855:9909   */\n      and\n        /* \"#utility.yul\":9844:9909   */\n      swap1\n      pop\n        /* \"#utility.yul\":9789:9915   */\n      swap2\n      swap1\n      pop\n      jump\t// out\n        /* \"#utility.yul\":9921:9998   */\n    tag_204:\n        /* \"#utility.yul\":9958:9965   */\n      0x00\n        /* \"#utility.yul\":9987:9992   */\n      dup2\n        /* \"#utility.yul\":9976:9992   */\n      swap1\n      pop\n        /* \"#utility.yul\":9921:9998   */\n      swap2\n      swap1\n      pop\n      jump\t// out\n        /* \"#utility.yul\":10004:10158   */\n    tag_125:\n        /* \"#utility.yul\":10088:10094   */\n      dup3\n        /* \"#utility.yul\":10083:10086   */\n      dup2\n        /* \"#utility.yul\":10078:10081   */\n      dup4\n        /* \"#utility.yul\":10065:10095   */\n      calldatacopy\n        /* \"#utility.yul\":10150:10151   */\n      0x00\n        /* \"#utility.yul\":10141:10147   */\n      dup4\n        /* \"#utility.yul\":10136:10139   */\n      dup4\n        /* \"#utility.yul\":10132:10148   */\n      add\n        /* \"#utility.yul\":10125:10152   */\n      mstore\n        /* \"#utility.yul\":10004:10158   */\n      pop\n      pop\n      pop\n      jump\t// out\n        /* \"#utility.yul\":10164:10445   */\n    tag_229:\n        /* \"#utility.yul\":10247:10274   */\n      tag_249\n        /* \"#utility.yul\":10269:10273   */\n      dup3\n        /* \"#utility.yul\":10247:10274   */\n      tag_236\n      jump\t// in\n    tag_249:\n        /* \"#utility.yul\":10239:10245   */\n      dup2\n        /* \"#utility.yul\":10235:10275   */\n      add\n        /* \"#utility.yul\":10377:10383   */\n      dup2\n        /* \"#utility.yul\":10365:10375   */\n      dup2\n        /* \"#utility.yul\":10362:10384   */\n      lt\n        /* \"#utility.yul\":10341:10359   */\n      0xffffffffffffffff\n        /* \"#utility.yul\":10329:10339   */\n      dup3\n        /* \"#utility.yul\":10326:10360   */\n      gt\n        /* \"#utility.yul\":10323:10385   */\n      or\n        /* \"#utility.yul\":10320:10408   */\n      iszero\n      tag_250\n      jumpi\n        /* \"#utility.yul\":10388:10406   */\n      tag_251\n      tag_234\n      jump\t// in\n    tag_251:\n        /* \"#utility.yul\":10320:10408   */\n    tag_250:\n        /* \"#utility.yul\":10428:10438   */\n      dup1\n        /* \"#utility.yul\":10424:10426   */\n      0x40\n        /* \"#utility.yul\":10417:10439   */\n      mstore\n        /* \"#utility.yul\":10207:10445   */\n      pop\n        /* \"#utility.yul\":10164:10445   */\n      pop\n      pop\n      jump\t// out\n        /* \"#utility.yul\":10451:10631   */\n    tag_234:\n        /* \"#utility.yul\":10499:10576   */\n      0x4e487b7100000000000000000000000000000000000000000000000000000000\n        /* \"#utility.yul\":10496:10497   */\n      0x00\n        /* \"#utility.yul\":10489:10577   */\n      mstore\n        /* \"#utility.yul\":10596:10600   */\n      0x41\n        /* \"#utility.yul\":10593:10594   */\n      0x04\n        /* \"#utility.yul\":10586:10601   */\n      mstore\n        /* \"#utility.yul\":10620:10624   */\n      0x24\n        /* \"#utility.yul\":10617:10618   */\n      0x00\n        /* \"#utility.yul\":10610:10625   */\n      revert\n        /* \"#utility.yul\":10637:10754   */\n    tag_134:\n        /* \"#utility.yul\":10746:10747   */\n      0x00\n        /* \"#utility.yul\":10743:10744   */\n      dup1\n        /* \"#utility.yul\":10736:10748   */\n      revert\n        /* \"#utility.yul\":10760:10877   */\n    tag_123:\n        /* \"#utility.yul\":10869:10870   */\n      0x00\n        /* \"#utility.yul\":10866:10867   */\n      dup1\n        /* \"#utility.yul\":10859:10871   */\n      revert\n        /* \"#utility.yul\":10883:11000   */\n    tag_157:\n        /* \"#utility.yul\":10992:10993   */\n      0x00\n        /* \"#utility.yul\":10989:10990   */\n      dup1\n        /* \"#utility.yul\":10982:10994   */\n      revert\n        /* \"#utility.yul\":11006:11123   */\n    tag_147:\n        /* \"#utility.yul\":11115:11116   */\n      0x00\n        /* \"#utility.yul\":11112:11113   */\n      dup1\n        /* \"#utility.yul\":11105:11117   */\n      revert\n        /* \"#utility.yul\":11129:11231   */\n    tag_236:\n        /* \"#utility.yul\":11170:11176   */\n      0x00\n        /* \"#utility.yul\":11221:11223   */\n      0x1f\n        /* \"#utility.yul\":11217:11224   */\n      not\n        /* \"#utility.yul\":11212:11214   */\n      0x1f\n        /* \"#utility.yul\":11205:11210   */\n      dup4\n        /* \"#utility.yul\":11201:11215   */\n      add\n        /* \"#utility.yul\":11197:11225   */\n      and\n        /* \"#utility.yul\":11187:11225   */\n      swap1\n      pop\n        /* \"#utility.yul\":11129:11231   */\n      swap2\n      swap1\n      pop\n      jump\t// out\n        /* \"#utility.yul\":11237:11414   */\n    tag_180:\n        /* \"#utility.yul\":11377:11406   */\n      0x436f756e7465723a2064656372656d656e74206f766572666c6f770000000000\n        /* \"#utility.yul\":11373:11374   */\n      0x00\n        /* \"#utility.yul\":11365:11371   */\n      dup3\n        /* \"#utility.yul\":11361:11375   */\n      add\n        /* \"#utility.yul\":11354:11407   */\n      mstore\n        /* \"#utility.yul\":11237:11414   */\n      pop\n      jump\t// out\n        /* \"#utility.yul\":11420:11645   */\n    tag_185:\n        /* \"#utility.yul\":11560:11594   */\n      0x4f776e61626c653a206e6577206f776e657220697320746865207a65726f2061\n        /* \"#utility.yul\":11556:11557   */\n      0x00\n        /* \"#utility.yul\":11548:11554   */\n      dup3\n        /* \"#utility.yul\":11544:11558   */\n      add\n        /* \"#utility.yul\":11537:11595   */\n      mstore\n        /* \"#utility.yul\":11629:11637   */\n      0x6464726573730000000000000000000000000000000000000000000000000000\n        /* \"#utility.yul\":11624:11626   */\n      0x20\n        /* \"#utility.yul\":11616:11622   */\n      dup3\n        /* \"#utility.yul\":11612:11627   */\n      add\n        /* \"#utility.yul\":11605:11638   */\n      mstore\n        /* \"#utility.yul\":11420:11645   */\n      pop\n      jump\t// out\n        /* \"#utility.yul\":11651:11833   */\n    tag_190:\n        /* \"#utility.yul\":11791:11825   */\n      0x4f776e61626c653a2063616c6c6572206973206e6f7420746865206f776e6572\n        /* \"#utility.yul\":11787:11788   */\n      0x00\n        /* \"#utility.yul\":11779:11785   */\n      dup3\n        /* \"#utility.yul\":11775:11789   */\n      add\n        /* \"#utility.yul\":11768:11826   */\n      mstore\n        /* \"#utility.yul\":11651:11833   */\n      pop\n      jump\t// out\n        /* \"#utility.yul\":11839:12011   */\n    tag_195:\n        /* \"#utility.yul\":11979:12003   */\n      0x596f7520617265206e6f7420746865206f776e65722e00000000000000000000\n        /* \"#utility.yul\":11975:11976   */\n      0x00\n        /* \"#utility.yul\":11967:11973   */\n      dup3\n        /* \"#utility.yul\":11963:11977   */\n      add\n        /* \"#utility.yul\":11956:12004   */\n      mstore\n        /* \"#utility.yul\":11839:12011   */\n      pop\n      jump\t// out\n        /* \"#utility.yul\":12017:12198   */\n    tag_200:\n        /* \"#utility.yul\":12157:12190   */\n      0x5265656e7472616e637947756172643a207265656e7472616e742063616c6c00\n        /* \"#utility.yul\":12153:12154   */\n      0x00\n        /* \"#utility.yul\":12145:12151   */\n      dup3\n        /* \"#utility.yul\":12141:12155   */\n      add\n        /* \"#utility.yul\":12134:12191   */\n      mstore\n        /* \"#utility.yul\":12017:12198   */\n      pop\n      jump\t// out\n        /* \"#utility.yul\":12204:12326   */\n    tag_129:\n        /* \"#utility.yul\":12277:12301   */\n      tag_264\n        /* \"#utility.yul\":12295:12300   */\n      dup2\n        /* \"#utility.yul\":12277:12301   */\n      tag_170\n      jump\t// in\n    tag_264:\n        /* \"#utility.yul\":12270:12275   */\n      dup2\n        /* \"#utility.yul\":12267:12302   */\n      eq\n        /* \"#utility.yul\":12257:12320   */\n      tag_265\n      jumpi\n        /* \"#utility.yul\":12316:12317   */\n      0x00\n        /* \"#utility.yul\":12313:12314   */\n      dup1\n        /* \"#utility.yul\":12306:12318   */\n      revert\n        /* \"#utility.yul\":12257:12320   */\n    tag_265:\n        /* \"#utility.yul\":12204:12326   */\n      pop\n      jump\t// out\n        /* \"#utility.yul\":12332:12484   */\n    tag_139:\n        /* \"#utility.yul\":12420:12459   */\n      tag_267\n        /* \"#utility.yul\":12453:12458   */\n      dup2\n        /* \"#utility.yul\":12420:12459   */\n      tag_242\n      jump\t// in\n    tag_267:\n        /* \"#utility.yul\":12413:12418   */\n      dup2\n        /* \"#utility.yul\":12410:12460   */\n      eq\n        /* \"#utility.yul\":12400:12478   */\n      tag_268\n      jumpi\n        /* \"#utility.yul\":12474:12475   */\n      0x00\n        /* \"#utility.yul\":12471:12472   */\n      dup1\n        /* \"#utility.yul\":12464:12476   */\n      revert\n        /* \"#utility.yul\":12400:12478   */\n    tag_268:\n        /* \"#utility.yul\":12332:12484   */\n      pop\n      jump\t// out\n        /* \"#utility.yul\":12490:12612   */\n    tag_143:\n        /* \"#utility.yul\":12563:12587   */\n      tag_270\n        /* \"#utility.yul\":12581:12586   */\n      dup2\n        /* \"#utility.yul\":12563:12587   */\n      tag_204\n      jump\t// in\n    tag_270:\n        /* \"#utility.yul\":12556:12561   */\n      dup2\n        /* \"#utility.yul\":12553:12588   */\n      eq\n        /* \"#utility.yul\":12543:12606   */\n      tag_271\n      jumpi\n        /* \"#utility.yul\":12602:12603   */\n      0x00\n        /* \"#utility.yul\":12599:12600   */\n      dup1\n        /* \"#utility.yul\":12592:12604   */\n      revert\n        /* \"#utility.yul\":12543:12606   */\n    tag_271:\n        /* \"#utility.yul\":12490:12612   */\n      pop\n      jump\t// out\n\n    auxdata: 0xa2646970667358221220a0a3ef79708b2a5dfb5ff9894156569a548b964937c13678ca16e5956063d00164736f6c63430008070033\n}\n",
				"bytecode": {
					"linkReferences": {},
					"object": "60806040523480156200001157600080fd5b50604051620010e7380380620010e7833981810160405281019062000037919062000189565b620000576200004b620000a660201b60201c565b620000ae60201b60201c565b6001808190555080600260006101000a81548173ffffffffffffffffffffffffffffffffffffffff021916908373ffffffffffffffffffffffffffffffffffffffff1602179055505062000222565b600033905090565b60008060009054906101000a900473ffffffffffffffffffffffffffffffffffffffff169050816000806101000a81548173ffffffffffffffffffffffffffffffffffffffff021916908373ffffffffffffffffffffffffffffffffffffffff1602179055508173ffffffffffffffffffffffffffffffffffffffff168173ffffffffffffffffffffffffffffffffffffffff167f8be0079c531659141344cd1fd0a4f28419497f9722a3daafe3b4186f6b6457e060405160405180910390a35050565b600081519050620001838162000208565b92915050565b600060208284031215620001a257620001a162000203565b5b6000620001b28482850162000172565b91505092915050565b6000620001c882620001e3565b9050919050565b6000620001dc82620001bb565b9050919050565b600073ffffffffffffffffffffffffffffffffffffffff82169050919050565b600080fd5b6200021381620001cf565b81146200021f57600080fd5b50565b610eb580620002326000396000f3fe60806040526004361061008a5760003560e01c80638488cc41116100595780638488cc41146101505780638da5cb5b1461018d578063a694fc3a146101b8578063f2fde38b146101e1578063fd71c6501461020a57610091565b80630700037d14610096578063150b7a02146100d35780632e17de7814610110578063715018a61461013957610091565b3661009157005b600080fd5b3480156100a257600080fd5b506100bd60048036038101906100b891906108c4565b610233565b6040516100ca9190610bb7565b60405180910390f35b3480156100df57600080fd5b506100fa60048036038101906100f591906108f1565b61024b565b6040516101079190610afc565b60405180910390f35b34801561011c57600080fd5b50610137600480360381019061013291906109a1565b61025f565b005b34801561014557600080fd5b5061014e610429565b005b34801561015c57600080fd5b50610177600480360381019061017291906109a1565b61043d565b6040516101849190610aaa565b60405180910390f35b34801561019957600080fd5b506101a2610470565b6040516101af9190610aaa565b60405180910390f35b3480156101c457600080fd5b506101df60048036038101906101da91906109a1565b610499565b005b3480156101ed57600080fd5b50610208600480360381019061020391906108c4565b610589565b005b34801561021657600080fd5b50610231600480360381019061022c9190610974565b61060d565b005b60056020528060005260406000206000915090505481565b600063150b7a0260e01b9050949350505050565b600260015414156102a5576040517f08c379a000000000000000000000000000000000000000000000000000000000815260040161029c90610b97565b60405180910390fd5b60026001819055503373ffffffffffffffffffffffffffffffffffffffff166004600083815260200190815260200160002060009054906101000a900473ffffffffffffffffffffffffffffffffffffffff1673ffffffffffffffffffffffffffffffffffffffff161461034e576040517f08c379a000000000000000000000000000000000000000000000000000000000815260040161034590610b77565b60405180910390fd5b6004600082815260200190815260200160002060006101000a81549073ffffffffffffffffffffffffffffffffffffffff021916905561038e6003610659565b600260009054906101000a900473ffffffffffffffffffffffffffffffffffffffff1673ffffffffffffffffffffffffffffffffffffffff166342842e0e3033846040518463ffffffff1660e01b81526004016103ed93929190610ac5565b600060405180830381600087803b15801561040757600080fd5b505af115801561041b573d6000803e3d6000fd5b505050506001808190555050565b6104316106b5565b61043b6000610733565b565b60046020528060005260406000206000915054906101000a900473ffffffffffffffffffffffffffffffffffffffff1681565b60008060009054906101000a900473ffffffffffffffffffffffffffffffffffffffff16905090565b600260009054906101000a900473ffffffffffffffffffffffffffffffffffffffff1673ffffffffffffffffffffffffffffffffffffffff166342842e0e3330846040518463ffffffff1660e01b81526004016104f893929190610ac5565b600060405180830381600087803b15801561051257600080fd5b505af1158015610526573d6000803e3d6000fd5b50505050336004600083815260200190815260200160002060006101000a81548173ffffffffffffffffffffffffffffffffffffffff021916908373ffffffffffffffffffffffffffffffffffffffff16021790555061058660036107f7565b50565b6105916106b5565b600073ffffffffffffffffffffffffffffffffffffffff168173ffffffffffffffffffffffffffffffffffffffff161415610601576040517f08c379a00000000000000000000000000000000000000000000000000000000081526004016105f890610b37565b60405180910390fd5b61060a81610733565b50565b6106156106b5565b80600260006101000a81548173ffffffffffffffffffffffffffffffffffffffff021916908373ffffffffffffffffffffffffffffffffffffffff16021790555050565b600081600001549050600081116106a5576040517f08c379a000000000000000000000000000000000000000000000000000000000815260040161069c90610b17565b60405180910390fd5b6001810382600001819055505050565b6106bd61080d565b73ffffffffffffffffffffffffffffffffffffffff166106db610470565b73ffffffffffffffffffffffffffffffffffffffff1614610731576040517f08c379a000000000000000000000000000000000000000000000000000000000815260040161072890610b57565b60405180910390fd5b565b60008060009054906101000a900473ffffffffffffffffffffffffffffffffffffffff169050816000806101000a81548173ffffffffffffffffffffffffffffffffffffffff021916908373ffffffffffffffffffffffffffffffffffffffff1602179055508173ffffffffffffffffffffffffffffffffffffffff168173ffffffffffffffffffffffffffffffffffffffff167f8be0079c531659141344cd1fd0a4f28419497f9722a3daafe3b4186f6b6457e060405160405180910390a35050565b6001816000016000828254019250508190555050565b600033905090565b600061082861082384610bf7565b610bd2565b90508281526020810184848401111561084457610843610d27565b5b61084f848285610cb3565b509392505050565b60008135905061086681610e3a565b92915050565b600082601f83011261088157610880610d22565b5b8135610891848260208601610815565b91505092915050565b6000813590506108a981610e51565b92915050565b6000813590506108be81610e68565b92915050565b6000602082840312156108da576108d9610d31565b5b60006108e884828501610857565b91505092915050565b6000806000806080858703121561090b5761090a610d31565b5b600061091987828801610857565b945050602061092a87828801610857565b935050604061093b878288016108af565b925050606085013567ffffffffffffffff81111561095c5761095b610d2c565b5b6109688782880161086c565b91505092959194509250565b60006020828403121561098a57610989610d31565b5b60006109988482850161089a565b91505092915050565b6000602082840312156109b7576109b6610d31565b5b60006109c5848285016108af565b91505092915050565b6109d781610c39565b82525050565b6109e681610c4b565b82525050565b60006109f9601b83610c28565b9150610a0482610d47565b602082019050919050565b6000610a1c602683610c28565b9150610a2782610d70565b604082019050919050565b6000610a3f602083610c28565b9150610a4a82610dbf565b602082019050919050565b6000610a62601683610c28565b9150610a6d82610de8565b602082019050919050565b6000610a85601f83610c28565b9150610a9082610e11565b602082019050919050565b610aa481610ca9565b82525050565b6000602082019050610abf60008301846109ce565b92915050565b6000606082019050610ada60008301866109ce565b610ae760208301856109ce565b610af46040830184610a9b565b949350505050565b6000602082019050610b1160008301846109dd565b92915050565b60006020820190508181036000830152610b30816109ec565b9050919050565b60006020820190508181036000830152610b5081610a0f565b9050919050565b60006020820190508181036000830152610b7081610a32565b9050919050565b60006020820190508181036000830152610b9081610a55565b9050919050565b60006020820190508181036000830152610bb081610a78565b9050919050565b6000602082019050610bcc6000830184610a9b565b92915050565b6000610bdc610bed565b9050610be88282610cc2565b919050565b6000604051905090565b600067ffffffffffffffff821115610c1257610c11610cf3565b5b610c1b82610d36565b9050602081019050919050565b600082825260208201905092915050565b6000610c4482610c89565b9050919050565b60007fffffffff0000000000000000000000000000000000000000000000000000000082169050919050565b6000610c8282610c39565b9050919050565b600073ffffffffffffffffffffffffffffffffffffffff82169050919050565b6000819050919050565b82818337600083830152505050565b610ccb82610d36565b810181811067ffffffffffffffff82111715610cea57610ce9610cf3565b5b80604052505050565b7f4e487b7100000000000000000000000000000000000000000000000000000000600052604160045260246000fd5b600080fd5b600080fd5b600080fd5b600080fd5b6000601f19601f8301169050919050565b7f436f756e7465723a2064656372656d656e74206f766572666c6f770000000000600082015250565b7f4f776e61626c653a206e6577206f776e657220697320746865207a65726f206160008201527f6464726573730000000000000000000000000000000000000000000000000000602082015250565b7f4f776e61626c653a2063616c6c6572206973206e6f7420746865206f776e6572600082015250565b7f596f7520617265206e6f7420746865206f776e65722e00000000000000000000600082015250565b7f5265656e7472616e637947756172643a207265656e7472616e742063616c6c00600082015250565b610e4381610c39565b8114610e4e57600080fd5b50565b610e5a81610c77565b8114610e6557600080fd5b50565b610e7181610ca9565b8114610e7c57600080fd5b5056fea2646970667358221220a0a3ef79708b2a5dfb5ff9894156569a548b964937c13678ca16e5956063d00164736f6c63430008070033",
					"opcodes": "PUSH1 0x80 PUSH1 0x40 MSTORE CALLVALUE DUP1 ISZERO PUSH3 0x11 JUMPI PUSH1 0x0 DUP1 REVERT JUMPDEST POP PUSH1 0x40 MLOAD PUSH3 0x10E7 CODESIZE SUB DUP1 PUSH3 0x10E7 DUP4 CODECOPY DUP2 DUP2 ADD PUSH1 0x40 MSTORE DUP2 ADD SWAP1 PUSH3 0x37 SWAP2 SWAP1 PUSH3 0x189 JUMP JUMPDEST PUSH3 0x57 PUSH3 0x4B PUSH3 0xA6 PUSH1 0x20 SHL PUSH1 0x20 SHR JUMP JUMPDEST PUSH3 0xAE PUSH1 0x20 SHL PUSH1 0x20 SHR JUMP JUMPDEST PUSH1 0x1 DUP1 DUP2 SWAP1 SSTORE POP DUP1 PUSH1 0x2 PUSH1 0x0 PUSH2 0x100 EXP DUP2 SLOAD DUP2 PUSH20 0xFFFFFFFFFFFFFFFFFFFFFFFFFFFFFFFFFFFFFFFF MUL NOT AND SWAP1 DUP4 PUSH20 0xFFFFFFFFFFFFFFFFFFFFFFFFFFFFFFFFFFFFFFFF AND MUL OR SWAP1 SSTORE POP POP PUSH3 0x222 JUMP JUMPDEST PUSH1 0x0 CALLER SWAP1 POP SWAP1 JUMP JUMPDEST PUSH1 0x0 DUP1 PUSH1 0x0 SWAP1 SLOAD SWAP1 PUSH2 0x100 EXP SWAP1 DIV PUSH20 0xFFFFFFFFFFFFFFFFFFFFFFFFFFFFFFFFFFFFFFFF AND SWAP1 POP DUP2 PUSH1 0x0 DUP1 PUSH2 0x100 EXP DUP2 SLOAD DUP2 PUSH20 0xFFFFFFFFFFFFFFFFFFFFFFFFFFFFFFFFFFFFFFFF MUL NOT AND SWAP1 DUP4 PUSH20 0xFFFFFFFFFFFFFFFFFFFFFFFFFFFFFFFFFFFFFFFF AND MUL OR SWAP1 SSTORE POP DUP2 PUSH20 0xFFFFFFFFFFFFFFFFFFFFFFFFFFFFFFFFFFFFFFFF AND DUP2 PUSH20 0xFFFFFFFFFFFFFFFFFFFFFFFFFFFFFFFFFFFFFFFF AND PUSH32 0x8BE0079C531659141344CD1FD0A4F28419497F9722A3DAAFE3B4186F6B6457E0 PUSH1 0x40 MLOAD PUSH1 0x40 MLOAD DUP1 SWAP2 SUB SWAP1 LOG3 POP POP JUMP JUMPDEST PUSH1 0x0 DUP2 MLOAD SWAP1 POP PUSH3 0x183 DUP2 PUSH3 0x208 JUMP JUMPDEST SWAP3 SWAP2 POP POP JUMP JUMPDEST PUSH1 0x0 PUSH1 0x20 DUP3 DUP5 SUB SLT ISZERO PUSH3 0x1A2 JUMPI PUSH3 0x1A1 PUSH3 0x203 JUMP JUMPDEST JUMPDEST PUSH1 0x0 PUSH3 0x1B2 DUP5 DUP3 DUP6 ADD PUSH3 0x172 JUMP JUMPDEST SWAP2 POP POP SWAP3 SWAP2 POP POP JUMP JUMPDEST PUSH1 0x0 PUSH3 0x1C8 DUP3 PUSH3 0x1E3 JUMP JUMPDEST SWAP1 POP SWAP2 SWAP1 POP JUMP JUMPDEST PUSH1 0x0 PUSH3 0x1DC DUP3 PUSH3 0x1BB JUMP JUMPDEST SWAP1 POP SWAP2 SWAP1 POP JUMP JUMPDEST PUSH1 0x0 PUSH20 0xFFFFFFFFFFFFFFFFFFFFFFFFFFFFFFFFFFFFFFFF DUP3 AND SWAP1 POP SWAP2 SWAP1 POP JUMP JUMPDEST PUSH1 0x0 DUP1 REVERT JUMPDEST PUSH3 0x213 DUP2 PUSH3 0x1CF JUMP JUMPDEST DUP2 EQ PUSH3 0x21F JUMPI PUSH1 0x0 DUP1 REVERT JUMPDEST POP JUMP JUMPDEST PUSH2 0xEB5 DUP1 PUSH3 0x232 PUSH1 0x0 CODECOPY PUSH1 0x0 RETURN INVALID PUSH1 0x80 PUSH1 0x40 MSTORE PUSH1 0x4 CALLDATASIZE LT PUSH2 0x8A JUMPI PUSH1 0x0 CALLDATALOAD PUSH1 0xE0 SHR DUP1 PUSH4 0x8488CC41 GT PUSH2 0x59 JUMPI DUP1 PUSH4 0x8488CC41 EQ PUSH2 0x150 JUMPI DUP1 PUSH4 0x8DA5CB5B EQ PUSH2 0x18D JUMPI DUP1 PUSH4 0xA694FC3A EQ PUSH2 0x1B8 JUMPI DUP1 PUSH4 0xF2FDE38B EQ PUSH2 0x1E1 JUMPI DUP1 PUSH4 0xFD71C650 EQ PUSH2 0x20A JUMPI PUSH2 0x91 JUMP JUMPDEST DUP1 PUSH4 0x700037D EQ PUSH2 0x96 JUMPI DUP1 PUSH4 0x150B7A02 EQ PUSH2 0xD3 JUMPI DUP1 PUSH4 0x2E17DE78 EQ PUSH2 0x110 JUMPI DUP1 PUSH4 0x715018A6 EQ PUSH2 0x139 JUMPI PUSH2 0x91 JUMP JUMPDEST CALLDATASIZE PUSH2 0x91 JUMPI STOP JUMPDEST PUSH1 0x0 DUP1 REVERT JUMPDEST CALLVALUE DUP1 ISZERO PUSH2 0xA2 JUMPI PUSH1 0x0 DUP1 REVERT JUMPDEST POP PUSH2 0xBD PUSH1 0x4 DUP1 CALLDATASIZE SUB DUP2 ADD SWAP1 PUSH2 0xB8 SWAP2 SWAP1 PUSH2 0x8C4 JUMP JUMPDEST PUSH2 0x233 JUMP JUMPDEST PUSH1 0x40 MLOAD PUSH2 0xCA SWAP2 SWAP1 PUSH2 0xBB7 JUMP JUMPDEST PUSH1 0x40 MLOAD DUP1 SWAP2 SUB SWAP1 RETURN JUMPDEST CALLVALUE DUP1 ISZERO PUSH2 0xDF JUMPI PUSH1 0x0 DUP1 REVERT JUMPDEST POP PUSH2 0xFA PUSH1 0x4 DUP1 CALLDATASIZE SUB DUP2 ADD SWAP1 PUSH2 0xF5 SWAP2 SWAP1 PUSH2 0x8F1 JUMP JUMPDEST PUSH2 0x24B JUMP JUMPDEST PUSH1 0x40 MLOAD PUSH2 0x107 SWAP2 SWAP1 PUSH2 0xAFC JUMP JUMPDEST PUSH1 0x40 MLOAD DUP1 SWAP2 SUB SWAP1 RETURN JUMPDEST CALLVALUE DUP1 ISZERO PUSH2 0x11C JUMPI PUSH1 0x0 DUP1 REVERT JUMPDEST POP PUSH2 0x137 PUSH1 0x4 DUP1 CALLDATASIZE SUB DUP2 ADD SWAP1 PUSH2 0x132 SWAP2 SWAP1 PUSH2 0x9A1 JUMP JUMPDEST PUSH2 0x25F JUMP JUMPDEST STOP JUMPDEST CALLVALUE DUP1 ISZERO PUSH2 0x145 JUMPI PUSH1 0x0 DUP1 REVERT JUMPDEST POP PUSH2 0x14E PUSH2 0x429 JUMP JUMPDEST STOP JUMPDEST CALLVALUE DUP1 ISZERO PUSH2 0x15C JUMPI PUSH1 0x0 DUP1 REVERT JUMPDEST POP PUSH2 0x177 PUSH1 0x4 DUP1 CALLDATASIZE SUB DUP2 ADD SWAP1 PUSH2 0x172 SWAP2 SWAP1 PUSH2 0x9A1 JUMP JUMPDEST PUSH2 0x43D JUMP JUMPDEST PUSH1 0x40 MLOAD PUSH2 0x184 SWAP2 SWAP1 PUSH2 0xAAA JUMP JUMPDEST PUSH1 0x40 MLOAD DUP1 SWAP2 SUB SWAP1 RETURN JUMPDEST CALLVALUE DUP1 ISZERO PUSH2 0x199 JUMPI PUSH1 0x0 DUP1 REVERT JUMPDEST POP PUSH2 0x1A2 PUSH2 0x470 JUMP JUMPDEST PUSH1 0x40 MLOAD PUSH2 0x1AF SWAP2 SWAP1 PUSH2 0xAAA JUMP JUMPDEST PUSH1 0x40 MLOAD DUP1 SWAP2 SUB SWAP1 RETURN JUMPDEST CALLVALUE DUP1 ISZERO PUSH2 0x1C4 JUMPI PUSH1 0x0 DUP1 REVERT JUMPDEST POP PUSH2 0x1DF PUSH1 0x4 DUP1 CALLDATASIZE SUB DUP2 ADD SWAP1 PUSH2 0x1DA SWAP2 SWAP1 PUSH2 0x9A1 JUMP JUMPDEST PUSH2 0x499 JUMP JUMPDEST STOP JUMPDEST CALLVALUE DUP1 ISZERO PUSH2 0x1ED JUMPI PUSH1 0x0 DUP1 REVERT JUMPDEST POP PUSH2 0x208 PUSH1 0x4 DUP1 CALLDATASIZE SUB DUP2 ADD SWAP1 PUSH2 0x203 SWAP2 SWAP1 PUSH2 0x8C4 JUMP JUMPDEST PUSH2 0x589 JUMP JUMPDEST STOP JUMPDEST CALLVALUE DUP1 ISZERO PUSH2 0x216 JUMPI PUSH1 0x0 DUP1 REVERT JUMPDEST POP PUSH2 0x231 PUSH1 0x4 DUP1 CALLDATASIZE SUB DUP2 ADD SWAP1 PUSH2 0x22C SWAP2 SWAP1 PUSH2 0x974 JUMP JUMPDEST PUSH2 0x60D JUMP JUMPDEST STOP JUMPDEST PUSH1 0x5 PUSH1 0x20 MSTORE DUP1 PUSH1 0x0 MSTORE PUSH1 0x40 PUSH1 0x0 KECCAK256 PUSH1 0x0 SWAP2 POP SWAP1 POP SLOAD DUP2 JUMP JUMPDEST PUSH1 0x0 PUSH4 0x150B7A02 PUSH1 0xE0 SHL SWAP1 POP SWAP5 SWAP4 POP POP POP POP JUMP JUMPDEST PUSH1 0x2 PUSH1 0x1 SLOAD EQ ISZERO PUSH2 0x2A5 JUMPI PUSH1 0x40 MLOAD PUSH32 0x8C379A000000000000000000000000000000000000000000000000000000000 DUP2 MSTORE PUSH1 0x4 ADD PUSH2 0x29C SWAP1 PUSH2 0xB97 JUMP JUMPDEST PUSH1 0x40 MLOAD DUP1 SWAP2 SUB SWAP1 REVERT JUMPDEST PUSH1 0x2 PUSH1 0x1 DUP2 SWAP1 SSTORE POP CALLER PUSH20 0xFFFFFFFFFFFFFFFFFFFFFFFFFFFFFFFFFFFFFFFF AND PUSH1 0x4 PUSH1 0x0 DUP4 DUP2 MSTORE PUSH1 0x20 ADD SWAP1 DUP2 MSTORE PUSH1 0x20 ADD PUSH1 0x0 KECCAK256 PUSH1 0x0 SWAP1 SLOAD SWAP1 PUSH2 0x100 EXP SWAP1 DIV PUSH20 0xFFFFFFFFFFFFFFFFFFFFFFFFFFFFFFFFFFFFFFFF AND PUSH20 0xFFFFFFFFFFFFFFFFFFFFFFFFFFFFFFFFFFFFFFFF AND EQ PUSH2 0x34E JUMPI PUSH1 0x40 MLOAD PUSH32 0x8C379A000000000000000000000000000000000000000000000000000000000 DUP2 MSTORE PUSH1 0x4 ADD PUSH2 0x345 SWAP1 PUSH2 0xB77 JUMP JUMPDEST PUSH1 0x40 MLOAD DUP1 SWAP2 SUB SWAP1 REVERT JUMPDEST PUSH1 0x4 PUSH1 0x0 DUP3 DUP2 MSTORE PUSH1 0x20 ADD SWAP1 DUP2 MSTORE PUSH1 0x20 ADD PUSH1 0x0 KECCAK256 PUSH1 0x0 PUSH2 0x100 EXP DUP2 SLOAD SWAP1 PUSH20 0xFFFFFFFFFFFFFFFFFFFFFFFFFFFFFFFFFFFFFFFF MUL NOT AND SWAP1 SSTORE PUSH2 0x38E PUSH1 0x3 PUSH2 0x659 JUMP JUMPDEST PUSH1 0x2 PUSH1 0x0 SWAP1 SLOAD SWAP1 PUSH2 0x100 EXP SWAP1 DIV PUSH20 0xFFFFFFFFFFFFFFFFFFFFFFFFFFFFFFFFFFFFFFFF AND PUSH20 0xFFFFFFFFFFFFFFFFFFFFFFFFFFFFFFFFFFFFFFFF AND PUSH4 0x42842E0E ADDRESS CALLER DUP5 PUSH1 0x40 MLOAD DUP5 PUSH4 0xFFFFFFFF AND PUSH1 0xE0 SHL DUP2 MSTORE PUSH1 0x4 ADD PUSH2 0x3ED SWAP4 SWAP3 SWAP2 SWAP1 PUSH2 0xAC5 JUMP JUMPDEST PUSH1 0x0 PUSH1 0x40 MLOAD DUP1 DUP4 SUB DUP2 PUSH1 0x0 DUP8 DUP1 EXTCODESIZE ISZERO DUP1 ISZERO PUSH2 0x407 JUMPI PUSH1 0x0 DUP1 REVERT JUMPDEST POP GAS CALL ISZERO DUP1 ISZERO PUSH2 0x41B JUMPI RETURNDATASIZE PUSH1 0x0 DUP1 RETURNDATACOPY RETURNDATASIZE PUSH1 0x0 REVERT JUMPDEST POP POP POP POP PUSH1 0x1 DUP1 DUP2 SWAP1 SSTORE POP POP JUMP JUMPDEST PUSH2 0x431 PUSH2 0x6B5 JUMP JUMPDEST PUSH2 0x43B PUSH1 0x0 PUSH2 0x733 JUMP JUMPDEST JUMP JUMPDEST PUSH1 0x4 PUSH1 0x20 MSTORE DUP1 PUSH1 0x0 MSTORE PUSH1 0x40 PUSH1 0x0 KECCAK256 PUSH1 0x0 SWAP2 POP SLOAD SWAP1 PUSH2 0x100 EXP SWAP1 DIV PUSH20 0xFFFFFFFFFFFFFFFFFFFFFFFFFFFFFFFFFFFFFFFF AND DUP2 JUMP JUMPDEST PUSH1 0x0 DUP1 PUSH1 0x0 SWAP1 SLOAD SWAP1 PUSH2 0x100 EXP SWAP1 DIV PUSH20 0xFFFFFFFFFFFFFFFFFFFFFFFFFFFFFFFFFFFFFFFF AND SWAP1 POP SWAP1 JUMP JUMPDEST PUSH1 0x2 PUSH1 0x0 SWAP1 SLOAD SWAP1 PUSH2 0x100 EXP SWAP1 DIV PUSH20 0xFFFFFFFFFFFFFFFFFFFFFFFFFFFFFFFFFFFFFFFF AND PUSH20 0xFFFFFFFFFFFFFFFFFFFFFFFFFFFFFFFFFFFFFFFF AND PUSH4 0x42842E0E CALLER ADDRESS DUP5 PUSH1 0x40 MLOAD DUP5 PUSH4 0xFFFFFFFF AND PUSH1 0xE0 SHL DUP2 MSTORE PUSH1 0x4 ADD PUSH2 0x4F8 SWAP4 SWAP3 SWAP2 SWAP1 PUSH2 0xAC5 JUMP JUMPDEST PUSH1 0x0 PUSH1 0x40 MLOAD DUP1 DUP4 SUB DUP2 PUSH1 0x0 DUP8 DUP1 EXTCODESIZE ISZERO DUP1 ISZERO PUSH2 0x512 JUMPI PUSH1 0x0 DUP1 REVERT JUMPDEST POP GAS CALL ISZERO DUP1 ISZERO PUSH2 0x526 JUMPI RETURNDATASIZE PUSH1 0x0 DUP1 RETURNDATACOPY RETURNDATASIZE PUSH1 0x0 REVERT JUMPDEST POP POP POP POP CALLER PUSH1 0x4 PUSH1 0x0 DUP4 DUP2 MSTORE PUSH1 0x20 ADD SWAP1 DUP2 MSTORE PUSH1 0x20 ADD PUSH1 0x0 KECCAK256 PUSH1 0x0 PUSH2 0x100 EXP DUP2 SLOAD DUP2 PUSH20 0xFFFFFFFFFFFFFFFFFFFFFFFFFFFFFFFFFFFFFFFF MUL NOT AND SWAP1 DUP4 PUSH20 0xFFFFFFFFFFFFFFFFFFFFFFFFFFFFFFFFFFFFFFFF AND MUL OR SWAP1 SSTORE POP PUSH2 0x586 PUSH1 0x3 PUSH2 0x7F7 JUMP JUMPDEST POP JUMP JUMPDEST PUSH2 0x591 PUSH2 0x6B5 JUMP JUMPDEST PUSH1 0x0 PUSH20 0xFFFFFFFFFFFFFFFFFFFFFFFFFFFFFFFFFFFFFFFF AND DUP2 PUSH20 0xFFFFFFFFFFFFFFFFFFFFFFFFFFFFFFFFFFFFFFFF AND EQ ISZERO PUSH2 0x601 JUMPI PUSH1 0x40 MLOAD PUSH32 0x8C379A000000000000000000000000000000000000000000000000000000000 DUP2 MSTORE PUSH1 0x4 ADD PUSH2 0x5F8 SWAP1 PUSH2 0xB37 JUMP JUMPDEST PUSH1 0x40 MLOAD DUP1 SWAP2 SUB SWAP1 REVERT JUMPDEST PUSH2 0x60A DUP2 PUSH2 0x733 JUMP JUMPDEST POP JUMP JUMPDEST PUSH2 0x615 PUSH2 0x6B5 JUMP JUMPDEST DUP1 PUSH1 0x2 PUSH1 0x0 PUSH2 0x100 EXP DUP2 SLOAD DUP2 PUSH20 0xFFFFFFFFFFFFFFFFFFFFFFFFFFFFFFFFFFFFFFFF MUL NOT AND SWAP1 DUP4 PUSH20 0xFFFFFFFFFFFFFFFFFFFFFFFFFFFFFFFFFFFFFFFF AND MUL OR SWAP1 SSTORE POP POP JUMP JUMPDEST PUSH1 0x0 DUP2 PUSH1 0x0 ADD SLOAD SWAP1 POP PUSH1 0x0 DUP2 GT PUSH2 0x6A5 JUMPI PUSH1 0x40 MLOAD PUSH32 0x8C379A000000000000000000000000000000000000000000000000000000000 DUP2 MSTORE PUSH1 0x4 ADD PUSH2 0x69C SWAP1 PUSH2 0xB17 JUMP JUMPDEST PUSH1 0x40 MLOAD DUP1 SWAP2 SUB SWAP1 REVERT JUMPDEST PUSH1 0x1 DUP2 SUB DUP3 PUSH1 0x0 ADD DUP2 SWAP1 SSTORE POP POP POP JUMP JUMPDEST PUSH2 0x6BD PUSH2 0x80D JUMP JUMPDEST PUSH20 0xFFFFFFFFFFFFFFFFFFFFFFFFFFFFFFFFFFFFFFFF AND PUSH2 0x6DB PUSH2 0x470 JUMP JUMPDEST PUSH20 0xFFFFFFFFFFFFFFFFFFFFFFFFFFFFFFFFFFFFFFFF AND EQ PUSH2 0x731 JUMPI PUSH1 0x40 MLOAD PUSH32 0x8C379A000000000000000000000000000000000000000000000000000000000 DUP2 MSTORE PUSH1 0x4 ADD PUSH2 0x728 SWAP1 PUSH2 0xB57 JUMP JUMPDEST PUSH1 0x40 MLOAD DUP1 SWAP2 SUB SWAP1 REVERT JUMPDEST JUMP JUMPDEST PUSH1 0x0 DUP1 PUSH1 0x0 SWAP1 SLOAD SWAP1 PUSH2 0x100 EXP SWAP1 DIV PUSH20 0xFFFFFFFFFFFFFFFFFFFFFFFFFFFFFFFFFFFFFFFF AND SWAP1 POP DUP2 PUSH1 0x0 DUP1 PUSH2 0x100 EXP DUP2 SLOAD DUP2 PUSH20 0xFFFFFFFFFFFFFFFFFFFFFFFFFFFFFFFFFFFFFFFF MUL NOT AND SWAP1 DUP4 PUSH20 0xFFFFFFFFFFFFFFFFFFFFFFFFFFFFFFFFFFFFFFFF AND MUL OR SWAP1 SSTORE POP DUP2 PUSH20 0xFFFFFFFFFFFFFFFFFFFFFFFFFFFFFFFFFFFFFFFF AND DUP2 PUSH20 0xFFFFFFFFFFFFFFFFFFFFFFFFFFFFFFFFFFFFFFFF AND PUSH32 0x8BE0079C531659141344CD1FD0A4F28419497F9722A3DAAFE3B4186F6B6457E0 PUSH1 0x40 MLOAD PUSH1 0x40 MLOAD DUP1 SWAP2 SUB SWAP1 LOG3 POP POP JUMP JUMPDEST PUSH1 0x1 DUP2 PUSH1 0x0 ADD PUSH1 0x0 DUP3 DUP3 SLOAD ADD SWAP3 POP POP DUP2 SWAP1 SSTORE POP POP JUMP JUMPDEST PUSH1 0x0 CALLER SWAP1 POP SWAP1 JUMP JUMPDEST PUSH1 0x0 PUSH2 0x828 PUSH2 0x823 DUP5 PUSH2 0xBF7 JUMP JUMPDEST PUSH2 0xBD2 JUMP JUMPDEST SWAP1 POP DUP3 DUP2 MSTORE PUSH1 0x20 DUP2 ADD DUP5 DUP5 DUP5 ADD GT ISZERO PUSH2 0x844 JUMPI PUSH2 0x843 PUSH2 0xD27 JUMP JUMPDEST JUMPDEST PUSH2 0x84F DUP5 DUP3 DUP6 PUSH2 0xCB3 JUMP JUMPDEST POP SWAP4 SWAP3 POP POP POP JUMP JUMPDEST PUSH1 0x0 DUP2 CALLDATALOAD SWAP1 POP PUSH2 0x866 DUP2 PUSH2 0xE3A JUMP JUMPDEST SWAP3 SWAP2 POP POP JUMP JUMPDEST PUSH1 0x0 DUP3 PUSH1 0x1F DUP4 ADD SLT PUSH2 0x881 JUMPI PUSH2 0x880 PUSH2 0xD22 JUMP JUMPDEST JUMPDEST DUP2 CALLDATALOAD PUSH2 0x891 DUP5 DUP3 PUSH1 0x20 DUP7 ADD PUSH2 0x815 JUMP JUMPDEST SWAP2 POP POP SWAP3 SWAP2 POP POP JUMP JUMPDEST PUSH1 0x0 DUP2 CALLDATALOAD SWAP1 POP PUSH2 0x8A9 DUP2 PUSH2 0xE51 JUMP JUMPDEST SWAP3 SWAP2 POP POP JUMP JUMPDEST PUSH1 0x0 DUP2 CALLDATALOAD SWAP1 POP PUSH2 0x8BE DUP2 PUSH2 0xE68 JUMP JUMPDEST SWAP3 SWAP2 POP POP JUMP JUMPDEST PUSH1 0x0 PUSH1 0x20 DUP3 DUP5 SUB SLT ISZERO PUSH2 0x8DA JUMPI PUSH2 0x8D9 PUSH2 0xD31 JUMP JUMPDEST JUMPDEST PUSH1 0x0 PUSH2 0x8E8 DUP5 DUP3 DUP6 ADD PUSH2 0x857 JUMP JUMPDEST SWAP2 POP POP SWAP3 SWAP2 POP POP JUMP JUMPDEST PUSH1 0x0 DUP1 PUSH1 0x0 DUP1 PUSH1 0x80 DUP6 DUP8 SUB SLT ISZERO PUSH2 0x90B JUMPI PUSH2 0x90A PUSH2 0xD31 JUMP JUMPDEST JUMPDEST PUSH1 0x0 PUSH2 0x919 DUP8 DUP3 DUP9 ADD PUSH2 0x857 JUMP JUMPDEST SWAP5 POP POP PUSH1 0x20 PUSH2 0x92A DUP8 DUP3 DUP9 ADD PUSH2 0x857 JUMP JUMPDEST SWAP4 POP POP PUSH1 0x40 PUSH2 0x93B DUP8 DUP3 DUP9 ADD PUSH2 0x8AF JUMP JUMPDEST SWAP3 POP POP PUSH1 0x60 DUP6 ADD CALLDATALOAD PUSH8 0xFFFFFFFFFFFFFFFF DUP2 GT ISZERO PUSH2 0x95C JUMPI PUSH2 0x95B PUSH2 0xD2C JUMP JUMPDEST JUMPDEST PUSH2 0x968 DUP8 DUP3 DUP9 ADD PUSH2 0x86C JUMP JUMPDEST SWAP2 POP POP SWAP3 SWAP6 SWAP2 SWAP5 POP SWAP3 POP JUMP JUMPDEST PUSH1 0x0 PUSH1 0x20 DUP3 DUP5 SUB SLT ISZERO PUSH2 0x98A JUMPI PUSH2 0x989 PUSH2 0xD31 JUMP JUMPDEST JUMPDEST PUSH1 0x0 PUSH2 0x998 DUP5 DUP3 DUP6 ADD PUSH2 0x89A JUMP JUMPDEST SWAP2 POP POP SWAP3 SWAP2 POP POP JUMP JUMPDEST PUSH1 0x0 PUSH1 0x20 DUP3 DUP5 SUB SLT ISZERO PUSH2 0x9B7 JUMPI PUSH2 0x9B6 PUSH2 0xD31 JUMP JUMPDEST JUMPDEST PUSH1 0x0 PUSH2 0x9C5 DUP5 DUP3 DUP6 ADD PUSH2 0x8AF JUMP JUMPDEST SWAP2 POP POP SWAP3 SWAP2 POP POP JUMP JUMPDEST PUSH2 0x9D7 DUP2 PUSH2 0xC39 JUMP JUMPDEST DUP3 MSTORE POP POP JUMP JUMPDEST PUSH2 0x9E6 DUP2 PUSH2 0xC4B JUMP JUMPDEST DUP3 MSTORE POP POP JUMP JUMPDEST PUSH1 0x0 PUSH2 0x9F9 PUSH1 0x1B DUP4 PUSH2 0xC28 JUMP JUMPDEST SWAP2 POP PUSH2 0xA04 DUP3 PUSH2 0xD47 JUMP JUMPDEST PUSH1 0x20 DUP3 ADD SWAP1 POP SWAP2 SWAP1 POP JUMP JUMPDEST PUSH1 0x0 PUSH2 0xA1C PUSH1 0x26 DUP4 PUSH2 0xC28 JUMP JUMPDEST SWAP2 POP PUSH2 0xA27 DUP3 PUSH2 0xD70 JUMP JUMPDEST PUSH1 0x40 DUP3 ADD SWAP1 POP SWAP2 SWAP1 POP JUMP JUMPDEST PUSH1 0x0 PUSH2 0xA3F PUSH1 0x20 DUP4 PUSH2 0xC28 JUMP JUMPDEST SWAP2 POP PUSH2 0xA4A DUP3 PUSH2 0xDBF JUMP JUMPDEST PUSH1 0x20 DUP3 ADD SWAP1 POP SWAP2 SWAP1 POP JUMP JUMPDEST PUSH1 0x0 PUSH2 0xA62 PUSH1 0x16 DUP4 PUSH2 0xC28 JUMP JUMPDEST SWAP2 POP PUSH2 0xA6D DUP3 PUSH2 0xDE8 JUMP JUMPDEST PUSH1 0x20 DUP3 ADD SWAP1 POP SWAP2 SWAP1 POP JUMP JUMPDEST PUSH1 0x0 PUSH2 0xA85 PUSH1 0x1F DUP4 PUSH2 0xC28 JUMP JUMPDEST SWAP2 POP PUSH2 0xA90 DUP3 PUSH2 0xE11 JUMP JUMPDEST PUSH1 0x20 DUP3 ADD SWAP1 POP SWAP2 SWAP1 POP JUMP JUMPDEST PUSH2 0xAA4 DUP2 PUSH2 0xCA9 JUMP JUMPDEST DUP3 MSTORE POP POP JUMP JUMPDEST PUSH1 0x0 PUSH1 0x20 DUP3 ADD SWAP1 POP PUSH2 0xABF PUSH1 0x0 DUP4 ADD DUP5 PUSH2 0x9CE JUMP JUMPDEST SWAP3 SWAP2 POP POP JUMP JUMPDEST PUSH1 0x0 PUSH1 0x60 DUP3 ADD SWAP1 POP PUSH2 0xADA PUSH1 0x0 DUP4 ADD DUP7 PUSH2 0x9CE JUMP JUMPDEST PUSH2 0xAE7 PUSH1 0x20 DUP4 ADD DUP6 PUSH2 0x9CE JUMP JUMPDEST PUSH2 0xAF4 PUSH1 0x40 DUP4 ADD DUP5 PUSH2 0xA9B JUMP JUMPDEST SWAP5 SWAP4 POP POP POP POP JUMP JUMPDEST PUSH1 0x0 PUSH1 0x20 DUP3 ADD SWAP1 POP PUSH2 0xB11 PUSH1 0x0 DUP4 ADD DUP5 PUSH2 0x9DD JUMP JUMPDEST SWAP3 SWAP2 POP POP JUMP JUMPDEST PUSH1 0x0 PUSH1 0x20 DUP3 ADD SWAP1 POP DUP2 DUP2 SUB PUSH1 0x0 DUP4 ADD MSTORE PUSH2 0xB30 DUP2 PUSH2 0x9EC JUMP JUMPDEST SWAP1 POP SWAP2 SWAP1 POP JUMP JUMPDEST PUSH1 0x0 PUSH1 0x20 DUP3 ADD SWAP1 POP DUP2 DUP2 SUB PUSH1 0x0 DUP4 ADD MSTORE PUSH2 0xB50 DUP2 PUSH2 0xA0F JUMP JUMPDEST SWAP1 POP SWAP2 SWAP1 POP JUMP JUMPDEST PUSH1 0x0 PUSH1 0x20 DUP3 ADD SWAP1 POP DUP2 DUP2 SUB PUSH1 0x0 DUP4 ADD MSTORE PUSH2 0xB70 DUP2 PUSH2 0xA32 JUMP JUMPDEST SWAP1 POP SWAP2 SWAP1 POP JUMP JUMPDEST PUSH1 0x0 PUSH1 0x20 DUP3 ADD SWAP1 POP DUP2 DUP2 SUB PUSH1 0x0 DUP4 ADD MSTORE PUSH2 0xB90 DUP2 PUSH2 0xA55 JUMP JUMPDEST SWAP1 POP SWAP2 SWAP1 POP JUMP JUMPDEST PUSH1 0x0 PUSH1 0x20 DUP3 ADD SWAP1 POP DUP2 DUP2 SUB PUSH1 0x0 DUP4 ADD MSTORE PUSH2 0xBB0 DUP2 PUSH2 0xA78 JUMP JUMPDEST SWAP1 POP SWAP2 SWAP1 POP JUMP JUMPDEST PUSH1 0x0 PUSH1 0x20 DUP3 ADD SWAP1 POP PUSH2 0xBCC PUSH1 0x0 DUP4 ADD DUP5 PUSH2 0xA9B JUMP JUMPDEST SWAP3 SWAP2 POP POP JUMP JUMPDEST PUSH1 0x0 PUSH2 0xBDC PUSH2 0xBED JUMP JUMPDEST SWAP1 POP PUSH2 0xBE8 DUP3 DUP3 PUSH2 0xCC2 JUMP JUMPDEST SWAP2 SWAP1 POP JUMP JUMPDEST PUSH1 0x0 PUSH1 0x40 MLOAD SWAP1 POP SWAP1 JUMP JUMPDEST PUSH1 0x0 PUSH8 0xFFFFFFFFFFFFFFFF DUP3 GT ISZERO PUSH2 0xC12 JUMPI PUSH2 0xC11 PUSH2 0xCF3 JUMP JUMPDEST JUMPDEST PUSH2 0xC1B DUP3 PUSH2 0xD36 JUMP JUMPDEST SWAP1 POP PUSH1 0x20 DUP2 ADD SWAP1 POP SWAP2 SWAP1 POP JUMP JUMPDEST PUSH1 0x0 DUP3 DUP3 MSTORE PUSH1 0x20 DUP3 ADD SWAP1 POP SWAP3 SWAP2 POP POP JUMP JUMPDEST PUSH1 0x0 PUSH2 0xC44 DUP3 PUSH2 0xC89 JUMP JUMPDEST SWAP1 POP SWAP2 SWAP1 POP JUMP JUMPDEST PUSH1 0x0 PUSH32 0xFFFFFFFF00000000000000000000000000000000000000000000000000000000 DUP3 AND SWAP1 POP SWAP2 SWAP1 POP JUMP JUMPDEST PUSH1 0x0 PUSH2 0xC82 DUP3 PUSH2 0xC39 JUMP JUMPDEST SWAP1 POP SWAP2 SWAP1 POP JUMP JUMPDEST PUSH1 0x0 PUSH20 0xFFFFFFFFFFFFFFFFFFFFFFFFFFFFFFFFFFFFFFFF DUP3 AND SWAP1 POP SWAP2 SWAP1 POP JUMP JUMPDEST PUSH1 0x0 DUP2 SWAP1 POP SWAP2 SWAP1 POP JUMP JUMPDEST DUP3 DUP2 DUP4 CALLDATACOPY PUSH1 0x0 DUP4 DUP4 ADD MSTORE POP POP POP JUMP JUMPDEST PUSH2 0xCCB DUP3 PUSH2 0xD36 JUMP JUMPDEST DUP2 ADD DUP2 DUP2 LT PUSH8 0xFFFFFFFFFFFFFFFF DUP3 GT OR ISZERO PUSH2 0xCEA JUMPI PUSH2 0xCE9 PUSH2 0xCF3 JUMP JUMPDEST JUMPDEST DUP1 PUSH1 0x40 MSTORE POP POP POP JUMP JUMPDEST PUSH32 0x4E487B7100000000000000000000000000000000000000000000000000000000 PUSH1 0x0 MSTORE PUSH1 0x41 PUSH1 0x4 MSTORE PUSH1 0x24 PUSH1 0x0 REVERT JUMPDEST PUSH1 0x0 DUP1 REVERT JUMPDEST PUSH1 0x0 DUP1 REVERT JUMPDEST PUSH1 0x0 DUP1 REVERT JUMPDEST PUSH1 0x0 DUP1 REVERT JUMPDEST PUSH1 0x0 PUSH1 0x1F NOT PUSH1 0x1F DUP4 ADD AND SWAP1 POP SWAP2 SWAP1 POP JUMP JUMPDEST PUSH32 0x436F756E7465723A2064656372656D656E74206F766572666C6F770000000000 PUSH1 0x0 DUP3 ADD MSTORE POP JUMP JUMPDEST PUSH32 0x4F776E61626C653A206E6577206F776E657220697320746865207A65726F2061 PUSH1 0x0 DUP3 ADD MSTORE PUSH32 0x6464726573730000000000000000000000000000000000000000000000000000 PUSH1 0x20 DUP3 ADD MSTORE POP JUMP JUMPDEST PUSH32 0x4F776E61626C653A2063616C6C6572206973206E6F7420746865206F776E6572 PUSH1 0x0 DUP3 ADD MSTORE POP JUMP JUMPDEST PUSH32 0x596F7520617265206E6F7420746865206F776E65722E00000000000000000000 PUSH1 0x0 DUP3 ADD MSTORE POP JUMP JUMPDEST PUSH32 0x5265656E7472616E637947756172643A207265656E7472616E742063616C6C00 PUSH1 0x0 DUP3 ADD MSTORE POP JUMP JUMPDEST PUSH2 0xE43 DUP2 PUSH2 0xC39 JUMP JUMPDEST DUP2 EQ PUSH2 0xE4E JUMPI PUSH1 0x0 DUP1 REVERT JUMPDEST POP JUMP JUMPDEST PUSH2 0xE5A DUP2 PUSH2 0xC77 JUMP JUMPDEST DUP2 EQ PUSH2 0xE65 JUMPI PUSH1 0x0 DUP1 REVERT JUMPDEST POP JUMP JUMPDEST PUSH2 0xE71 DUP2 PUSH2 0xCA9 JUMP JUMPDEST DUP2 EQ PUSH2 0xE7C JUMPI PUSH1 0x0 DUP1 REVERT JUMPDEST POP JUMP INVALID LOG2 PUSH5 0x6970667358 0x22 SLT KECCAK256 LOG0 LOG3 0xEF PUSH26 0x708B2A5DFB5FF9894156569A548B964937C13678CA16E5956063 0xD0 ADD PUSH5 0x736F6C6343 STOP ADDMOD SMOD STOP CALLER "
				},
				"gasEstimates": {
					"creation": {
						"codeDepositCost": "753000",
						"executionCost": "infinite",
						"totalCost": "infinite"
					},
					"external": {
						"onERC721Received(address,address,uint256,bytes)": "infinite",
						"owner()": "2544",
						"renounceOwnership()": "30465",
						"rewards(address)": "2815",
						"setNftContact(address)": "27117",
						"stake(uint256)": "infinite",
						"tokenOwnedBy(uint256)": "2839",
						"transferOwnership(address)": "30813",
						"unstake(uint256)": "infinite"
					}
				},
				"methodIdentifiers": {
					"onERC721Received(address,address,uint256,bytes)": "150b7a02",
					"owner()": "8da5cb5b",
					"renounceOwnership()": "715018a6",
					"rewards(address)": "0700037d",
					"setNftContact(address)": "fd71c650",
					"stake(uint256)": "a694fc3a",
					"tokenOwnedBy(uint256)": "8488cc41",
					"transferOwnership(address)": "f2fde38b",
					"unstake(uint256)": "2e17de78"
				}
			},
			"storageLayout": {
				"storage": [
					{
						"astId": 7,
						"contract": "contracts/NFTStaking.sol:SacredTemple",
						"label": "_owner",
						"offset": 0,
						"slot": "0",
						"type": "t_address"
					},
					{
						"astId": 123,
						"contract": "contracts/NFTStaking.sol:SacredTemple",
						"label": "_status",
						"offset": 0,
						"slot": "1",
						"type": "t_uint256"
					},
					{
						"astId": 437,
						"contract": "contracts/NFTStaking.sol:SacredTemple",
						"label": "_nftContract",
						"offset": 0,
						"slot": "2",
						"type": "t_contract(IERC721)268"
					},
					{
						"astId": 444,
						"contract": "contracts/NFTStaking.sol:SacredTemple",
						"label": "_stakedNFTCounter",
						"offset": 0,
						"slot": "3",
						"type": "t_struct(Counter)341_storage"
					},
					{
						"astId": 470,
						"contract": "contracts/NFTStaking.sol:SacredTemple",
						"label": "tokenOwnedBy",
						"offset": 0,
						"slot": "4",
						"type": "t_mapping(t_uint256,t_address)"
					},
					{
						"astId": 474,
						"contract": "contracts/NFTStaking.sol:SacredTemple",
						"label": "rewards",
						"offset": 0,
						"slot": "5",
						"type": "t_mapping(t_address,t_uint256)"
					},
					{
						"astId": 477,
						"contract": "contracts/NFTStaking.sol:SacredTemple",
						"label": "tokensStaked",
						"offset": 0,
						"slot": "6",
						"type": "t_array(t_uint256)dyn_storage"
					}
				],
				"types": {
					"t_address": {
						"encoding": "inplace",
						"label": "address",
						"numberOfBytes": "20"
					},
					"t_array(t_uint256)dyn_storage": {
						"base": "t_uint256",
						"encoding": "dynamic_array",
						"label": "uint256[]",
						"numberOfBytes": "32"
					},
					"t_contract(IERC721)268": {
						"encoding": "inplace",
						"label": "contract IERC721",
						"numberOfBytes": "20"
					},
					"t_mapping(t_address,t_uint256)": {
						"encoding": "mapping",
						"key": "t_address",
						"label": "mapping(address => uint256)",
						"numberOfBytes": "32",
						"value": "t_uint256"
					},
					"t_mapping(t_uint256,t_address)": {
						"encoding": "mapping",
						"key": "t_uint256",
						"label": "mapping(uint256 => address)",
						"numberOfBytes": "32",
						"value": "t_address"
					},
					"t_struct(Counter)341_storage": {
						"encoding": "inplace",
						"label": "struct Counters.Counter",
						"members": [
							{
								"astId": 340,
								"contract": "contracts/NFTStaking.sol:SacredTemple",
								"label": "_value",
								"offset": 0,
								"slot": "0",
								"type": "t_uint256"
							}
						],
						"numberOfBytes": "32"
					},
					"t_uint256": {
						"encoding": "inplace",
						"label": "uint256",
						"numberOfBytes": "32"
					}
				}
			},
			"userdoc": {
				"kind": "user",
				"methods": {},
				"version": 1
			}
		}
	}
}